{
	".deps/npm/@openzeppelin/contracts/token/ERC721/ERC721.sol": {
		"ERC721": {
			"abi": [
				{
					"inputs": [
						{
							"internalType": "string",
							"name": "name_",
							"type": "string"
						},
						{
							"internalType": "string",
							"name": "symbol_",
							"type": "string"
						},
						{
							"internalType": "address",
							"name": "owner_",
							"type": "address"
						}
					],
					"stateMutability": "nonpayable",
					"type": "constructor"
				},
				{
					"anonymous": false,
					"inputs": [
						{
							"indexed": true,
							"internalType": "address",
							"name": "owner",
							"type": "address"
						},
						{
							"indexed": true,
							"internalType": "address",
							"name": "approved",
							"type": "address"
						},
						{
							"indexed": true,
							"internalType": "uint256",
							"name": "tokenId",
							"type": "uint256"
						}
					],
					"name": "Approval",
					"type": "event"
				},
				{
					"anonymous": false,
					"inputs": [
						{
							"indexed": true,
							"internalType": "address",
							"name": "owner",
							"type": "address"
						},
						{
							"indexed": true,
							"internalType": "address",
							"name": "operator",
							"type": "address"
						},
						{
							"indexed": false,
							"internalType": "bool",
							"name": "approved",
							"type": "bool"
						}
					],
					"name": "ApprovalForAll",
					"type": "event"
				},
				{
					"anonymous": false,
					"inputs": [
						{
							"indexed": true,
							"internalType": "address",
							"name": "from",
							"type": "address"
						},
						{
							"indexed": true,
							"internalType": "address",
							"name": "to",
							"type": "address"
						},
						{
							"indexed": true,
							"internalType": "uint256",
							"name": "tokenId",
							"type": "uint256"
						}
					],
					"name": "Transfer",
					"type": "event"
				},
				{
					"inputs": [],
					"name": "_owner",
					"outputs": [
						{
							"internalType": "address",
							"name": "",
							"type": "address"
						}
					],
					"stateMutability": "view",
					"type": "function"
				},
				{
					"inputs": [
						{
							"internalType": "address",
							"name": "from",
							"type": "address"
						},
						{
							"internalType": "address",
							"name": "to",
							"type": "address"
						},
						{
							"internalType": "uint256",
							"name": "tokenId",
							"type": "uint256"
						}
					],
					"name": "_transfer",
					"outputs": [],
					"stateMutability": "nonpayable",
					"type": "function"
				},
				{
					"inputs": [
						{
							"internalType": "address",
							"name": "to",
							"type": "address"
						},
						{
							"internalType": "uint256",
							"name": "tokenId",
							"type": "uint256"
						}
					],
					"name": "approve",
					"outputs": [],
					"stateMutability": "nonpayable",
					"type": "function"
				},
				{
					"inputs": [
						{
							"internalType": "address",
							"name": "owner",
							"type": "address"
						}
					],
					"name": "balanceOf",
					"outputs": [
						{
							"internalType": "uint256",
							"name": "",
							"type": "uint256"
						}
					],
					"stateMutability": "view",
					"type": "function"
				},
				{
					"inputs": [
						{
							"internalType": "uint256",
							"name": "tokenId",
							"type": "uint256"
						}
					],
					"name": "getApproved",
					"outputs": [
						{
							"internalType": "address",
							"name": "",
							"type": "address"
						}
					],
					"stateMutability": "view",
					"type": "function"
				},
				{
					"inputs": [
						{
							"internalType": "address",
							"name": "owner",
							"type": "address"
						},
						{
							"internalType": "address",
							"name": "operator",
							"type": "address"
						}
					],
					"name": "isApprovedForAll",
					"outputs": [
						{
							"internalType": "bool",
							"name": "",
							"type": "bool"
						}
					],
					"stateMutability": "view",
					"type": "function"
				},
				{
					"inputs": [],
					"name": "name",
					"outputs": [
						{
							"internalType": "string",
							"name": "",
							"type": "string"
						}
					],
					"stateMutability": "view",
					"type": "function"
				},
				{
					"inputs": [
						{
							"internalType": "uint256",
							"name": "tokenId",
							"type": "uint256"
						}
					],
					"name": "ownerOf",
					"outputs": [
						{
							"internalType": "address",
							"name": "",
							"type": "address"
						}
					],
					"stateMutability": "view",
					"type": "function"
				},
				{
					"inputs": [
						{
							"internalType": "address",
							"name": "from",
							"type": "address"
						},
						{
							"internalType": "address",
							"name": "to",
							"type": "address"
						},
						{
							"internalType": "uint256",
							"name": "tokenId",
							"type": "uint256"
						}
					],
					"name": "safeTransferFrom",
					"outputs": [],
					"stateMutability": "nonpayable",
					"type": "function"
				},
				{
					"inputs": [
						{
							"internalType": "address",
							"name": "from",
							"type": "address"
						},
						{
							"internalType": "address",
							"name": "to",
							"type": "address"
						},
						{
							"internalType": "uint256",
							"name": "tokenId",
							"type": "uint256"
						},
						{
							"internalType": "bytes",
							"name": "data",
							"type": "bytes"
						}
					],
					"name": "safeTransferFrom",
					"outputs": [],
					"stateMutability": "nonpayable",
					"type": "function"
				},
				{
					"inputs": [
						{
							"internalType": "address",
							"name": "operator",
							"type": "address"
						},
						{
							"internalType": "bool",
							"name": "approved",
							"type": "bool"
						}
					],
					"name": "setApprovalForAll",
					"outputs": [],
					"stateMutability": "nonpayable",
					"type": "function"
				},
				{
					"inputs": [
						{
							"internalType": "bytes4",
							"name": "interfaceId",
							"type": "bytes4"
						}
					],
					"name": "supportsInterface",
					"outputs": [
						{
							"internalType": "bool",
							"name": "",
							"type": "bool"
						}
					],
					"stateMutability": "view",
					"type": "function"
				},
				{
					"inputs": [],
					"name": "symbol",
					"outputs": [
						{
							"internalType": "string",
							"name": "",
							"type": "string"
						}
					],
					"stateMutability": "view",
					"type": "function"
				},
				{
					"inputs": [
						{
							"internalType": "uint256",
							"name": "tokenId",
							"type": "uint256"
						}
					],
					"name": "tokenURI",
					"outputs": [
						{
							"internalType": "string",
							"name": "",
							"type": "string"
						}
					],
					"stateMutability": "view",
					"type": "function"
				},
				{
					"inputs": [
						{
							"internalType": "address",
							"name": "from",
							"type": "address"
						},
						{
							"internalType": "address",
							"name": "to",
							"type": "address"
						},
						{
							"internalType": "uint256",
							"name": "tokenId",
							"type": "uint256"
						}
					],
					"name": "transferFrom",
					"outputs": [],
					"stateMutability": "nonpayable",
					"type": "function"
				}
			],
			"devdoc": {
				"details": "Implementation of https://eips.ethereum.org/EIPS/eip-721[ERC721] Non-Fungible Token Standard, including the Metadata extension, but not including the Enumerable extension, which is available separately as {ERC721Enumerable}.",
				"events": {
					"Approval(address,address,uint256)": {
						"details": "Emitted when `owner` enables `approved` to manage the `tokenId` token."
					},
					"ApprovalForAll(address,address,bool)": {
						"details": "Emitted when `owner` enables or disables (`approved`) `operator` to manage all of its assets."
					},
					"Transfer(address,address,uint256)": {
						"details": "Emitted when `tokenId` token is transferred from `from` to `to`."
					}
				},
				"kind": "dev",
				"methods": {
					"_transfer(address,address,uint256)": {
						"details": "Transfers `tokenId` from `from` to `to`.  As opposed to {transferFrom}, this imposes no restrictions on msg.sender. Requirements: - `to` cannot be the zero address. - `tokenId` token must be owned by `from`. Emits a {Transfer} event."
					},
					"approve(address,uint256)": {
						"details": "See {IERC721-approve}."
					},
					"balanceOf(address)": {
						"details": "See {IERC721-balanceOf}."
					},
					"constructor": {
						"details": "Initializes the contract by setting a `name` and a `symbol` to the token collection."
					},
					"getApproved(uint256)": {
						"details": "See {IERC721-getApproved}."
					},
					"isApprovedForAll(address,address)": {
						"details": "See {IERC721-isApprovedForAll}."
					},
					"name()": {
						"details": "See {IERC721Metadata-name}."
					},
					"ownerOf(uint256)": {
						"details": "See {IERC721-ownerOf}."
					},
					"safeTransferFrom(address,address,uint256)": {
						"details": "See {IERC721-safeTransferFrom}."
					},
					"safeTransferFrom(address,address,uint256,bytes)": {
						"details": "See {IERC721-safeTransferFrom}."
					},
					"setApprovalForAll(address,bool)": {
						"details": "See {IERC721-setApprovalForAll}."
					},
					"supportsInterface(bytes4)": {
						"details": "See {IERC165-supportsInterface}."
					},
					"symbol()": {
						"details": "See {IERC721Metadata-symbol}."
					},
					"tokenURI(uint256)": {
						"details": "See {IERC721Metadata-tokenURI}."
					},
					"transferFrom(address,address,uint256)": {
						"details": "See {IERC721-transferFrom}."
					}
				},
				"version": 1
			},
			"evm": {
				"assembly": "    /* \".deps/npm/@openzeppelin/contracts/token/ERC721/ERC721.sol\":628:17185  contract ERC721 is Context, ERC165, IERC721, IERC721Metadata {... */\n  mstore(0x40, 0x80)\n    /* \".deps/npm/@openzeppelin/contracts/token/ERC721/ERC721.sol\":1416:1570  constructor(string memory name_, string memory symbol_, address owner_) {... */\n  callvalue\n  dup1\n  iszero\n  tag_1\n  jumpi\n  0x00\n  dup1\n  revert\ntag_1:\n  pop\n  mload(0x40)\n  sub(codesize, bytecodeSize)\n  dup1\n  bytecodeSize\n  dup4\n  codecopy\n  dup2\n  dup2\n  add\n  0x40\n  mstore\n  dup2\n  add\n  swap1\n  tag_2\n  swap2\n  swap1\n  tag_3\n  jump\t// in\ntag_2:\n    /* \".deps/npm/@openzeppelin/contracts/token/ERC721/ERC721.sol\":1506:1511  name_ */\n  dup3\n    /* \".deps/npm/@openzeppelin/contracts/token/ERC721/ERC721.sol\":1498:1503  _name */\n  0x01\n    /* \".deps/npm/@openzeppelin/contracts/token/ERC721/ERC721.sol\":1498:1511  _name = name_ */\n  swap1\n  dup2\n  tag_6\n  swap2\n  swap1\n  tag_7\n  jump\t// in\ntag_6:\n  pop\n    /* \".deps/npm/@openzeppelin/contracts/token/ERC721/ERC721.sol\":1531:1538  symbol_ */\n  dup2\n    /* \".deps/npm/@openzeppelin/contracts/token/ERC721/ERC721.sol\":1521:1528  _symbol */\n  0x02\n    /* \".deps/npm/@openzeppelin/contracts/token/ERC721/ERC721.sol\":1521:1538  _symbol = symbol_ */\n  swap1\n  dup2\n  tag_8\n  swap2\n  swap1\n  tag_7\n  jump\t// in\ntag_8:\n  pop\n    /* \".deps/npm/@openzeppelin/contracts/token/ERC721/ERC721.sol\":1557:1563  owner_ */\n  dup1\n    /* \".deps/npm/@openzeppelin/contracts/token/ERC721/ERC721.sol\":1548:1554  _owner */\n  0x00\n  dup1\n    /* \".deps/npm/@openzeppelin/contracts/token/ERC721/ERC721.sol\":1548:1563  _owner = owner_ */\n  0x0100\n  exp\n  dup2\n  sload\n  dup2\n  0xffffffffffffffffffffffffffffffffffffffff\n  mul\n  not\n  and\n  swap1\n  dup4\n  0xffffffffffffffffffffffffffffffffffffffff\n  and\n  mul\n  or\n  swap1\n  sstore\n  pop\n    /* \".deps/npm/@openzeppelin/contracts/token/ERC721/ERC721.sol\":1416:1570  constructor(string memory name_, string memory symbol_, address owner_) {... */\n  pop\n  pop\n  pop\n    /* \".deps/npm/@openzeppelin/contracts/token/ERC721/ERC721.sol\":628:17185  contract ERC721 is Context, ERC165, IERC721, IERC721Metadata {... */\n  jump(tag_9)\n    /* \"#utility.yul\":7:82   */\ntag_10:\n    /* \"#utility.yul\":40:46   */\n  0x00\n    /* \"#utility.yul\":73:75   */\n  0x40\n    /* \"#utility.yul\":67:76   */\n  mload\n    /* \"#utility.yul\":57:76   */\n  swap1\n  pop\n    /* \"#utility.yul\":7:82   */\n  swap1\n  jump\t// out\n    /* \"#utility.yul\":88:205   */\ntag_11:\n    /* \"#utility.yul\":197:198   */\n  0x00\n    /* \"#utility.yul\":194:195   */\n  dup1\n    /* \"#utility.yul\":187:199   */\n  revert\n    /* \"#utility.yul\":211:328   */\ntag_12:\n    /* \"#utility.yul\":320:321   */\n  0x00\n    /* \"#utility.yul\":317:318   */\n  dup1\n    /* \"#utility.yul\":310:322   */\n  revert\n    /* \"#utility.yul\":334:451   */\ntag_13:\n    /* \"#utility.yul\":443:444   */\n  0x00\n    /* \"#utility.yul\":440:441   */\n  dup1\n    /* \"#utility.yul\":433:445   */\n  revert\n    /* \"#utility.yul\":457:574   */\ntag_14:\n    /* \"#utility.yul\":566:567   */\n  0x00\n    /* \"#utility.yul\":563:564   */\n  dup1\n    /* \"#utility.yul\":556:568   */\n  revert\n    /* \"#utility.yul\":580:682   */\ntag_15:\n    /* \"#utility.yul\":621:627   */\n  0x00\n    /* \"#utility.yul\":672:674   */\n  0x1f\n    /* \"#utility.yul\":668:675   */\n  not\n    /* \"#utility.yul\":663:665   */\n  0x1f\n    /* \"#utility.yul\":656:661   */\n  dup4\n    /* \"#utility.yul\":652:666   */\n  add\n    /* \"#utility.yul\":648:676   */\n  and\n    /* \"#utility.yul\":638:676   */\n  swap1\n  pop\n    /* \"#utility.yul\":580:682   */\n  swap2\n  swap1\n  pop\n  jump\t// out\n    /* \"#utility.yul\":688:868   */\ntag_16:\n    /* \"#utility.yul\":736:813   */\n  0x4e487b7100000000000000000000000000000000000000000000000000000000\n    /* \"#utility.yul\":733:734   */\n  0x00\n    /* \"#utility.yul\":726:814   */\n  mstore\n    /* \"#utility.yul\":833:837   */\n  0x41\n    /* \"#utility.yul\":830:831   */\n  0x04\n    /* \"#utility.yul\":823:838   */\n  mstore\n    /* \"#utility.yul\":857:861   */\n  0x24\n    /* \"#utility.yul\":854:855   */\n  0x00\n    /* \"#utility.yul\":847:862   */\n  revert\n    /* \"#utility.yul\":874:1155   */\ntag_17:\n    /* \"#utility.yul\":957:984   */\n  tag_55\n    /* \"#utility.yul\":979:983   */\n  dup3\n    /* \"#utility.yul\":957:984   */\n  tag_15\n  jump\t// in\ntag_55:\n    /* \"#utility.yul\":949:955   */\n  dup2\n    /* \"#utility.yul\":945:985   */\n  add\n    /* \"#utility.yul\":1087:1093   */\n  dup2\n    /* \"#utility.yul\":1075:1085   */\n  dup2\n    /* \"#utility.yul\":1072:1094   */\n  lt\n    /* \"#utility.yul\":1051:1069   */\n  0xffffffffffffffff\n    /* \"#utility.yul\":1039:1049   */\n  dup3\n    /* \"#utility.yul\":1036:1070   */\n  gt\n    /* \"#utility.yul\":1033:1095   */\n  or\n    /* \"#utility.yul\":1030:1118   */\n  iszero\n  tag_56\n  jumpi\n    /* \"#utility.yul\":1098:1116   */\n  tag_57\n  tag_16\n  jump\t// in\ntag_57:\n    /* \"#utility.yul\":1030:1118   */\ntag_56:\n    /* \"#utility.yul\":1138:1148   */\n  dup1\n    /* \"#utility.yul\":1134:1136   */\n  0x40\n    /* \"#utility.yul\":1127:1149   */\n  mstore\n    /* \"#utility.yul\":917:1155   */\n  pop\n    /* \"#utility.yul\":874:1155   */\n  pop\n  pop\n  jump\t// out\n    /* \"#utility.yul\":1161:1290   */\ntag_18:\n    /* \"#utility.yul\":1195:1201   */\n  0x00\n    /* \"#utility.yul\":1222:1242   */\n  tag_59\n  tag_10\n  jump\t// in\ntag_59:\n    /* \"#utility.yul\":1212:1242   */\n  swap1\n  pop\n    /* \"#utility.yul\":1251:1284   */\n  tag_60\n    /* \"#utility.yul\":1279:1283   */\n  dup3\n    /* \"#utility.yul\":1271:1277   */\n  dup3\n    /* \"#utility.yul\":1251:1284   */\n  tag_17\n  jump\t// in\ntag_60:\n    /* \"#utility.yul\":1161:1290   */\n  swap2\n  swap1\n  pop\n  jump\t// out\n    /* \"#utility.yul\":1296:1604   */\ntag_19:\n    /* \"#utility.yul\":1358:1362   */\n  0x00\n    /* \"#utility.yul\":1448:1466   */\n  0xffffffffffffffff\n    /* \"#utility.yul\":1440:1446   */\n  dup3\n    /* \"#utility.yul\":1437:1467   */\n  gt\n    /* \"#utility.yul\":1434:1490   */\n  iszero\n  tag_62\n  jumpi\n    /* \"#utility.yul\":1470:1488   */\n  tag_63\n  tag_16\n  jump\t// in\ntag_63:\n    /* \"#utility.yul\":1434:1490   */\ntag_62:\n    /* \"#utility.yul\":1508:1537   */\n  tag_64\n    /* \"#utility.yul\":1530:1536   */\n  dup3\n    /* \"#utility.yul\":1508:1537   */\n  tag_15\n  jump\t// in\ntag_64:\n    /* \"#utility.yul\":1500:1537   */\n  swap1\n  pop\n    /* \"#utility.yul\":1592:1596   */\n  0x20\n    /* \"#utility.yul\":1586:1590   */\n  dup2\n    /* \"#utility.yul\":1582:1597   */\n  add\n    /* \"#utility.yul\":1574:1597   */\n  swap1\n  pop\n    /* \"#utility.yul\":1296:1604   */\n  swap2\n  swap1\n  pop\n  jump\t// out\n    /* \"#utility.yul\":1610:1856   */\ntag_20:\n    /* \"#utility.yul\":1691:1692   */\n  0x00\n    /* \"#utility.yul\":1701:1814   */\ntag_66:\n    /* \"#utility.yul\":1715:1721   */\n  dup4\n    /* \"#utility.yul\":1712:1713   */\n  dup2\n    /* \"#utility.yul\":1709:1722   */\n  lt\n    /* \"#utility.yul\":1701:1814   */\n  iszero\n  tag_68\n  jumpi\n    /* \"#utility.yul\":1800:1801   */\n  dup1\n    /* \"#utility.yul\":1795:1798   */\n  dup3\n    /* \"#utility.yul\":1791:1802   */\n  add\n    /* \"#utility.yul\":1785:1803   */\n  mload\n    /* \"#utility.yul\":1781:1782   */\n  dup2\n    /* \"#utility.yul\":1776:1779   */\n  dup5\n    /* \"#utility.yul\":1772:1783   */\n  add\n    /* \"#utility.yul\":1765:1804   */\n  mstore\n    /* \"#utility.yul\":1737:1739   */\n  0x20\n    /* \"#utility.yul\":1734:1735   */\n  dup2\n    /* \"#utility.yul\":1730:1740   */\n  add\n    /* \"#utility.yul\":1725:1740   */\n  swap1\n  pop\n    /* \"#utility.yul\":1701:1814   */\n  jump(tag_66)\ntag_68:\n    /* \"#utility.yul\":1848:1849   */\n  0x00\n    /* \"#utility.yul\":1839:1845   */\n  dup5\n    /* \"#utility.yul\":1834:1837   */\n  dup5\n    /* \"#utility.yul\":1830:1846   */\n  add\n    /* \"#utility.yul\":1823:1850   */\n  mstore\n    /* \"#utility.yul\":1672:1856   */\n  pop\n    /* \"#utility.yul\":1610:1856   */\n  pop\n  pop\n  pop\n  jump\t// out\n    /* \"#utility.yul\":1862:2296   */\ntag_21:\n    /* \"#utility.yul\":1951:1956   */\n  0x00\n    /* \"#utility.yul\":1976:2042   */\n  tag_70\n    /* \"#utility.yul\":1992:2041   */\n  tag_71\n    /* \"#utility.yul\":2034:2040   */\n  dup5\n    /* \"#utility.yul\":1992:2041   */\n  tag_19\n  jump\t// in\ntag_71:\n    /* \"#utility.yul\":1976:2042   */\n  tag_18\n  jump\t// in\ntag_70:\n    /* \"#utility.yul\":1967:2042   */\n  swap1\n  pop\n    /* \"#utility.yul\":2065:2071   */\n  dup3\n    /* \"#utility.yul\":2058:2063   */\n  dup2\n    /* \"#utility.yul\":2051:2072   */\n  mstore\n    /* \"#utility.yul\":2103:2107   */\n  0x20\n    /* \"#utility.yul\":2096:2101   */\n  dup2\n    /* \"#utility.yul\":2092:2108   */\n  add\n    /* \"#utility.yul\":2141:2144   */\n  dup5\n    /* \"#utility.yul\":2132:2138   */\n  dup5\n    /* \"#utility.yul\":2127:2130   */\n  dup5\n    /* \"#utility.yul\":2123:2139   */\n  add\n    /* \"#utility.yul\":2120:2145   */\n  gt\n    /* \"#utility.yul\":2117:2229   */\n  iszero\n  tag_72\n  jumpi\n    /* \"#utility.yul\":2148:2227   */\n  tag_73\n  tag_14\n  jump\t// in\ntag_73:\n    /* \"#utility.yul\":2117:2229   */\ntag_72:\n    /* \"#utility.yul\":2238:2290   */\n  tag_74\n    /* \"#utility.yul\":2283:2289   */\n  dup5\n    /* \"#utility.yul\":2278:2281   */\n  dup3\n    /* \"#utility.yul\":2273:2276   */\n  dup6\n    /* \"#utility.yul\":2238:2290   */\n  tag_20\n  jump\t// in\ntag_74:\n    /* \"#utility.yul\":1957:2296   */\n  pop\n    /* \"#utility.yul\":1862:2296   */\n  swap4\n  swap3\n  pop\n  pop\n  pop\n  jump\t// out\n    /* \"#utility.yul\":2316:2671   */\ntag_22:\n    /* \"#utility.yul\":2383:2388   */\n  0x00\n    /* \"#utility.yul\":2432:2435   */\n  dup3\n    /* \"#utility.yul\":2425:2429   */\n  0x1f\n    /* \"#utility.yul\":2417:2423   */\n  dup4\n    /* \"#utility.yul\":2413:2430   */\n  add\n    /* \"#utility.yul\":2409:2436   */\n  slt\n    /* \"#utility.yul\":2399:2521   */\n  tag_76\n  jumpi\n    /* \"#utility.yul\":2440:2519   */\n  tag_77\n  tag_13\n  jump\t// in\ntag_77:\n    /* \"#utility.yul\":2399:2521   */\ntag_76:\n    /* \"#utility.yul\":2550:2556   */\n  dup2\n    /* \"#utility.yul\":2544:2557   */\n  mload\n    /* \"#utility.yul\":2575:2665   */\n  tag_78\n    /* \"#utility.yul\":2661:2664   */\n  dup5\n    /* \"#utility.yul\":2653:2659   */\n  dup3\n    /* \"#utility.yul\":2646:2650   */\n  0x20\n    /* \"#utility.yul\":2638:2644   */\n  dup7\n    /* \"#utility.yul\":2634:2651   */\n  add\n    /* \"#utility.yul\":2575:2665   */\n  tag_21\n  jump\t// in\ntag_78:\n    /* \"#utility.yul\":2566:2665   */\n  swap2\n  pop\n    /* \"#utility.yul\":2389:2671   */\n  pop\n    /* \"#utility.yul\":2316:2671   */\n  swap3\n  swap2\n  pop\n  pop\n  jump\t// out\n    /* \"#utility.yul\":2677:2803   */\ntag_23:\n    /* \"#utility.yul\":2714:2721   */\n  0x00\n    /* \"#utility.yul\":2754:2796   */\n  0xffffffffffffffffffffffffffffffffffffffff\n    /* \"#utility.yul\":2747:2752   */\n  dup3\n    /* \"#utility.yul\":2743:2797   */\n  and\n    /* \"#utility.yul\":2732:2797   */\n  swap1\n  pop\n    /* \"#utility.yul\":2677:2803   */\n  swap2\n  swap1\n  pop\n  jump\t// out\n    /* \"#utility.yul\":2809:2905   */\ntag_24:\n    /* \"#utility.yul\":2846:2853   */\n  0x00\n    /* \"#utility.yul\":2875:2899   */\n  tag_81\n    /* \"#utility.yul\":2893:2898   */\n  dup3\n    /* \"#utility.yul\":2875:2899   */\n  tag_23\n  jump\t// in\ntag_81:\n    /* \"#utility.yul\":2864:2899   */\n  swap1\n  pop\n    /* \"#utility.yul\":2809:2905   */\n  swap2\n  swap1\n  pop\n  jump\t// out\n    /* \"#utility.yul\":2911:3033   */\ntag_25:\n    /* \"#utility.yul\":2984:3008   */\n  tag_83\n    /* \"#utility.yul\":3002:3007   */\n  dup2\n    /* \"#utility.yul\":2984:3008   */\n  tag_24\n  jump\t// in\ntag_83:\n    /* \"#utility.yul\":2977:2982   */\n  dup2\n    /* \"#utility.yul\":2974:3009   */\n  eq\n    /* \"#utility.yul\":2964:3027   */\n  tag_84\n  jumpi\n    /* \"#utility.yul\":3023:3024   */\n  0x00\n    /* \"#utility.yul\":3020:3021   */\n  dup1\n    /* \"#utility.yul\":3013:3025   */\n  revert\n    /* \"#utility.yul\":2964:3027   */\ntag_84:\n    /* \"#utility.yul\":2911:3033   */\n  pop\n  jump\t// out\n    /* \"#utility.yul\":3039:3182   */\ntag_26:\n    /* \"#utility.yul\":3096:3101   */\n  0x00\n    /* \"#utility.yul\":3127:3133   */\n  dup2\n    /* \"#utility.yul\":3121:3134   */\n  mload\n    /* \"#utility.yul\":3112:3134   */\n  swap1\n  pop\n    /* \"#utility.yul\":3143:3176   */\n  tag_86\n    /* \"#utility.yul\":3170:3175   */\n  dup2\n    /* \"#utility.yul\":3143:3176   */\n  tag_25\n  jump\t// in\ntag_86:\n    /* \"#utility.yul\":3039:3182   */\n  swap3\n  swap2\n  pop\n  pop\n  jump\t// out\n    /* \"#utility.yul\":3188:4197   */\ntag_3:\n    /* \"#utility.yul\":3296:3302   */\n  0x00\n    /* \"#utility.yul\":3304:3310   */\n  dup1\n    /* \"#utility.yul\":3312:3318   */\n  0x00\n    /* \"#utility.yul\":3361:3363   */\n  0x60\n    /* \"#utility.yul\":3349:3358   */\n  dup5\n    /* \"#utility.yul\":3340:3347   */\n  dup7\n    /* \"#utility.yul\":3336:3359   */\n  sub\n    /* \"#utility.yul\":3332:3364   */\n  slt\n    /* \"#utility.yul\":3329:3448   */\n  iszero\n  tag_88\n  jumpi\n    /* \"#utility.yul\":3367:3446   */\n  tag_89\n  tag_11\n  jump\t// in\ntag_89:\n    /* \"#utility.yul\":3329:3448   */\ntag_88:\n    /* \"#utility.yul\":3508:3509   */\n  0x00\n    /* \"#utility.yul\":3497:3506   */\n  dup5\n    /* \"#utility.yul\":3493:3510   */\n  add\n    /* \"#utility.yul\":3487:3511   */\n  mload\n    /* \"#utility.yul\":3538:3556   */\n  0xffffffffffffffff\n    /* \"#utility.yul\":3530:3536   */\n  dup2\n    /* \"#utility.yul\":3527:3557   */\n  gt\n    /* \"#utility.yul\":3524:3641   */\n  iszero\n  tag_90\n  jumpi\n    /* \"#utility.yul\":3560:3639   */\n  tag_91\n  tag_12\n  jump\t// in\ntag_91:\n    /* \"#utility.yul\":3524:3641   */\ntag_90:\n    /* \"#utility.yul\":3665:3739   */\n  tag_92\n    /* \"#utility.yul\":3731:3738   */\n  dup7\n    /* \"#utility.yul\":3722:3728   */\n  dup3\n    /* \"#utility.yul\":3711:3720   */\n  dup8\n    /* \"#utility.yul\":3707:3729   */\n  add\n    /* \"#utility.yul\":3665:3739   */\n  tag_22\n  jump\t// in\ntag_92:\n    /* \"#utility.yul\":3655:3739   */\n  swap4\n  pop\n    /* \"#utility.yul\":3458:3749   */\n  pop\n    /* \"#utility.yul\":3809:3811   */\n  0x20\n    /* \"#utility.yul\":3798:3807   */\n  dup5\n    /* \"#utility.yul\":3794:3812   */\n  add\n    /* \"#utility.yul\":3788:3813   */\n  mload\n    /* \"#utility.yul\":3840:3858   */\n  0xffffffffffffffff\n    /* \"#utility.yul\":3832:3838   */\n  dup2\n    /* \"#utility.yul\":3829:3859   */\n  gt\n    /* \"#utility.yul\":3826:3943   */\n  iszero\n  tag_93\n  jumpi\n    /* \"#utility.yul\":3862:3941   */\n  tag_94\n  tag_12\n  jump\t// in\ntag_94:\n    /* \"#utility.yul\":3826:3943   */\ntag_93:\n    /* \"#utility.yul\":3967:4041   */\n  tag_95\n    /* \"#utility.yul\":4033:4040   */\n  dup7\n    /* \"#utility.yul\":4024:4030   */\n  dup3\n    /* \"#utility.yul\":4013:4022   */\n  dup8\n    /* \"#utility.yul\":4009:4031   */\n  add\n    /* \"#utility.yul\":3967:4041   */\n  tag_22\n  jump\t// in\ntag_95:\n    /* \"#utility.yul\":3957:4041   */\n  swap3\n  pop\n    /* \"#utility.yul\":3759:4051   */\n  pop\n    /* \"#utility.yul\":4090:4092   */\n  0x40\n    /* \"#utility.yul\":4116:4180   */\n  tag_96\n    /* \"#utility.yul\":4172:4179   */\n  dup7\n    /* \"#utility.yul\":4163:4169   */\n  dup3\n    /* \"#utility.yul\":4152:4161   */\n  dup8\n    /* \"#utility.yul\":4148:4170   */\n  add\n    /* \"#utility.yul\":4116:4180   */\n  tag_26\n  jump\t// in\ntag_96:\n    /* \"#utility.yul\":4106:4180   */\n  swap2\n  pop\n    /* \"#utility.yul\":4061:4190   */\n  pop\n    /* \"#utility.yul\":3188:4197   */\n  swap3\n  pop\n  swap3\n  pop\n  swap3\n  jump\t// out\n    /* \"#utility.yul\":4203:4302   */\ntag_27:\n    /* \"#utility.yul\":4255:4261   */\n  0x00\n    /* \"#utility.yul\":4289:4294   */\n  dup2\n    /* \"#utility.yul\":4283:4295   */\n  mload\n    /* \"#utility.yul\":4273:4295   */\n  swap1\n  pop\n    /* \"#utility.yul\":4203:4302   */\n  swap2\n  swap1\n  pop\n  jump\t// out\n    /* \"#utility.yul\":4308:4488   */\ntag_28:\n    /* \"#utility.yul\":4356:4433   */\n  0x4e487b7100000000000000000000000000000000000000000000000000000000\n    /* \"#utility.yul\":4353:4354   */\n  0x00\n    /* \"#utility.yul\":4346:4434   */\n  mstore\n    /* \"#utility.yul\":4453:4457   */\n  0x22\n    /* \"#utility.yul\":4450:4451   */\n  0x04\n    /* \"#utility.yul\":4443:4458   */\n  mstore\n    /* \"#utility.yul\":4477:4481   */\n  0x24\n    /* \"#utility.yul\":4474:4475   */\n  0x00\n    /* \"#utility.yul\":4467:4482   */\n  revert\n    /* \"#utility.yul\":4494:4814   */\ntag_29:\n    /* \"#utility.yul\":4538:4544   */\n  0x00\n    /* \"#utility.yul\":4575:4576   */\n  0x02\n    /* \"#utility.yul\":4569:4573   */\n  dup3\n    /* \"#utility.yul\":4565:4577   */\n  div\n    /* \"#utility.yul\":4555:4577   */\n  swap1\n  pop\n    /* \"#utility.yul\":4622:4623   */\n  0x01\n    /* \"#utility.yul\":4616:4620   */\n  dup3\n    /* \"#utility.yul\":4612:4624   */\n  and\n    /* \"#utility.yul\":4643:4661   */\n  dup1\n    /* \"#utility.yul\":4633:4714   */\n  tag_100\n  jumpi\n    /* \"#utility.yul\":4699:4703   */\n  0x7f\n    /* \"#utility.yul\":4691:4697   */\n  dup3\n    /* \"#utility.yul\":4687:4704   */\n  and\n    /* \"#utility.yul\":4677:4704   */\n  swap2\n  pop\n    /* \"#utility.yul\":4633:4714   */\ntag_100:\n    /* \"#utility.yul\":4761:4763   */\n  0x20\n    /* \"#utility.yul\":4753:4759   */\n  dup3\n    /* \"#utility.yul\":4750:4764   */\n  lt\n    /* \"#utility.yul\":4730:4748   */\n  dup2\n    /* \"#utility.yul\":4727:4765   */\n  sub\n    /* \"#utility.yul\":4724:4808   */\n  tag_101\n  jumpi\n    /* \"#utility.yul\":4780:4798   */\n  tag_102\n  tag_28\n  jump\t// in\ntag_102:\n    /* \"#utility.yul\":4724:4808   */\ntag_101:\n    /* \"#utility.yul\":4545:4814   */\n  pop\n    /* \"#utility.yul\":4494:4814   */\n  swap2\n  swap1\n  pop\n  jump\t// out\n    /* \"#utility.yul\":4820:4961   */\ntag_30:\n    /* \"#utility.yul\":4869:4873   */\n  0x00\n    /* \"#utility.yul\":4892:4895   */\n  dup2\n    /* \"#utility.yul\":4884:4895   */\n  swap1\n  pop\n    /* \"#utility.yul\":4915:4918   */\n  dup2\n    /* \"#utility.yul\":4912:4913   */\n  0x00\n    /* \"#utility.yul\":4905:4919   */\n  mstore\n    /* \"#utility.yul\":4949:4953   */\n  0x20\n    /* \"#utility.yul\":4946:4947   */\n  0x00\n    /* \"#utility.yul\":4936:4954   */\n  keccak256\n    /* \"#utility.yul\":4928:4954   */\n  swap1\n  pop\n    /* \"#utility.yul\":4820:4961   */\n  swap2\n  swap1\n  pop\n  jump\t// out\n    /* \"#utility.yul\":4967:5060   */\ntag_31:\n    /* \"#utility.yul\":5004:5010   */\n  0x00\n    /* \"#utility.yul\":5051:5053   */\n  0x20\n    /* \"#utility.yul\":5046:5048   */\n  0x1f\n    /* \"#utility.yul\":5039:5044   */\n  dup4\n    /* \"#utility.yul\":5035:5049   */\n  add\n    /* \"#utility.yul\":5031:5054   */\n  div\n    /* \"#utility.yul\":5021:5054   */\n  swap1\n  pop\n    /* \"#utility.yul\":4967:5060   */\n  swap2\n  swap1\n  pop\n  jump\t// out\n    /* \"#utility.yul\":5066:5173   */\ntag_32:\n    /* \"#utility.yul\":5110:5118   */\n  0x00\n    /* \"#utility.yul\":5160:5165   */\n  dup3\n    /* \"#utility.yul\":5154:5158   */\n  dup3\n    /* \"#utility.yul\":5150:5166   */\n  shl\n    /* \"#utility.yul\":5129:5166   */\n  swap1\n  pop\n    /* \"#utility.yul\":5066:5173   */\n  swap3\n  swap2\n  pop\n  pop\n  jump\t// out\n    /* \"#utility.yul\":5179:5572   */\ntag_33:\n    /* \"#utility.yul\":5248:5254   */\n  0x00\n    /* \"#utility.yul\":5298:5299   */\n  0x08\n    /* \"#utility.yul\":5286:5296   */\n  dup4\n    /* \"#utility.yul\":5282:5300   */\n  mul\n    /* \"#utility.yul\":5321:5418   */\n  tag_107\n    /* \"#utility.yul\":5351:5417   */\n  0xffffffffffffffffffffffffffffffffffffffffffffffffffffffffffffffff\n    /* \"#utility.yul\":5340:5349   */\n  dup3\n    /* \"#utility.yul\":5321:5418   */\n  tag_32\n  jump\t// in\ntag_107:\n    /* \"#utility.yul\":5439:5478   */\n  tag_108\n    /* \"#utility.yul\":5469:5477   */\n  dup7\n    /* \"#utility.yul\":5458:5467   */\n  dup4\n    /* \"#utility.yul\":5439:5478   */\n  tag_32\n  jump\t// in\ntag_108:\n    /* \"#utility.yul\":5427:5478   */\n  swap6\n  pop\n    /* \"#utility.yul\":5511:5515   */\n  dup1\n    /* \"#utility.yul\":5507:5516   */\n  not\n    /* \"#utility.yul\":5500:5505   */\n  dup5\n    /* \"#utility.yul\":5496:5517   */\n  and\n    /* \"#utility.yul\":5487:5517   */\n  swap4\n  pop\n    /* \"#utility.yul\":5560:5564   */\n  dup1\n    /* \"#utility.yul\":5550:5558   */\n  dup7\n    /* \"#utility.yul\":5546:5565   */\n  and\n    /* \"#utility.yul\":5539:5544   */\n  dup5\n    /* \"#utility.yul\":5536:5566   */\n  or\n    /* \"#utility.yul\":5526:5566   */\n  swap3\n  pop\n    /* \"#utility.yul\":5255:5572   */\n  pop\n  pop\n    /* \"#utility.yul\":5179:5572   */\n  swap4\n  swap3\n  pop\n  pop\n  pop\n  jump\t// out\n    /* \"#utility.yul\":5578:5655   */\ntag_34:\n    /* \"#utility.yul\":5615:5622   */\n  0x00\n    /* \"#utility.yul\":5644:5649   */\n  dup2\n    /* \"#utility.yul\":5633:5649   */\n  swap1\n  pop\n    /* \"#utility.yul\":5578:5655   */\n  swap2\n  swap1\n  pop\n  jump\t// out\n    /* \"#utility.yul\":5661:5721   */\ntag_35:\n    /* \"#utility.yul\":5689:5692   */\n  0x00\n    /* \"#utility.yul\":5710:5715   */\n  dup2\n    /* \"#utility.yul\":5703:5715   */\n  swap1\n  pop\n    /* \"#utility.yul\":5661:5721   */\n  swap2\n  swap1\n  pop\n  jump\t// out\n    /* \"#utility.yul\":5727:5869   */\ntag_36:\n    /* \"#utility.yul\":5777:5786   */\n  0x00\n    /* \"#utility.yul\":5810:5863   */\n  tag_112\n    /* \"#utility.yul\":5828:5862   */\n  tag_113\n    /* \"#utility.yul\":5837:5861   */\n  tag_114\n    /* \"#utility.yul\":5855:5860   */\n  dup5\n    /* \"#utility.yul\":5837:5861   */\n  tag_34\n  jump\t// in\ntag_114:\n    /* \"#utility.yul\":5828:5862   */\n  tag_35\n  jump\t// in\ntag_113:\n    /* \"#utility.yul\":5810:5863   */\n  tag_34\n  jump\t// in\ntag_112:\n    /* \"#utility.yul\":5797:5863   */\n  swap1\n  pop\n    /* \"#utility.yul\":5727:5869   */\n  swap2\n  swap1\n  pop\n  jump\t// out\n    /* \"#utility.yul\":5875:5950   */\ntag_37:\n    /* \"#utility.yul\":5918:5921   */\n  0x00\n    /* \"#utility.yul\":5939:5944   */\n  dup2\n    /* \"#utility.yul\":5932:5944   */\n  swap1\n  pop\n    /* \"#utility.yul\":5875:5950   */\n  swap2\n  swap1\n  pop\n  jump\t// out\n    /* \"#utility.yul\":5956:6225   */\ntag_38:\n    /* \"#utility.yul\":6066:6105   */\n  tag_117\n    /* \"#utility.yul\":6097:6104   */\n  dup4\n    /* \"#utility.yul\":6066:6105   */\n  tag_36\n  jump\t// in\ntag_117:\n    /* \"#utility.yul\":6127:6218   */\n  tag_118\n    /* \"#utility.yul\":6176:6217   */\n  tag_119\n    /* \"#utility.yul\":6200:6216   */\n  dup3\n    /* \"#utility.yul\":6176:6217   */\n  tag_37\n  jump\t// in\ntag_119:\n    /* \"#utility.yul\":6168:6174   */\n  dup5\n    /* \"#utility.yul\":6161:6165   */\n  dup5\n    /* \"#utility.yul\":6155:6166   */\n  sload\n    /* \"#utility.yul\":6127:6218   */\n  tag_33\n  jump\t// in\ntag_118:\n    /* \"#utility.yul\":6121:6125   */\n  dup3\n    /* \"#utility.yul\":6114:6219   */\n  sstore\n    /* \"#utility.yul\":6032:6225   */\n  pop\n    /* \"#utility.yul\":5956:6225   */\n  pop\n  pop\n  pop\n  jump\t// out\n    /* \"#utility.yul\":6231:6304   */\ntag_39:\n    /* \"#utility.yul\":6276:6279   */\n  0x00\n    /* \"#utility.yul\":6231:6304   */\n  swap1\n  jump\t// out\n    /* \"#utility.yul\":6310:6499   */\ntag_40:\n    /* \"#utility.yul\":6387:6419   */\n  tag_122\n  tag_39\n  jump\t// in\ntag_122:\n    /* \"#utility.yul\":6428:6493   */\n  tag_123\n    /* \"#utility.yul\":6486:6492   */\n  dup2\n    /* \"#utility.yul\":6478:6484   */\n  dup5\n    /* \"#utility.yul\":6472:6476   */\n  dup5\n    /* \"#utility.yul\":6428:6493   */\n  tag_38\n  jump\t// in\ntag_123:\n    /* \"#utility.yul\":6363:6499   */\n  pop\n    /* \"#utility.yul\":6310:6499   */\n  pop\n  pop\n  jump\t// out\n    /* \"#utility.yul\":6505:6691   */\ntag_41:\n    /* \"#utility.yul\":6565:6685   */\ntag_125:\n    /* \"#utility.yul\":6582:6585   */\n  dup2\n    /* \"#utility.yul\":6575:6580   */\n  dup2\n    /* \"#utility.yul\":6572:6586   */\n  lt\n    /* \"#utility.yul\":6565:6685   */\n  iszero\n  tag_127\n  jumpi\n    /* \"#utility.yul\":6636:6675   */\n  tag_128\n    /* \"#utility.yul\":6673:6674   */\n  0x00\n    /* \"#utility.yul\":6666:6671   */\n  dup3\n    /* \"#utility.yul\":6636:6675   */\n  tag_40\n  jump\t// in\ntag_128:\n    /* \"#utility.yul\":6609:6610   */\n  0x01\n    /* \"#utility.yul\":6602:6607   */\n  dup2\n    /* \"#utility.yul\":6598:6611   */\n  add\n    /* \"#utility.yul\":6589:6611   */\n  swap1\n  pop\n    /* \"#utility.yul\":6565:6685   */\n  jump(tag_125)\ntag_127:\n    /* \"#utility.yul\":6505:6691   */\n  pop\n  pop\n  jump\t// out\n    /* \"#utility.yul\":6697:7240   */\ntag_42:\n    /* \"#utility.yul\":6798:6800   */\n  0x1f\n    /* \"#utility.yul\":6793:6796   */\n  dup3\n    /* \"#utility.yul\":6790:6801   */\n  gt\n    /* \"#utility.yul\":6787:7233   */\n  iszero\n  tag_130\n  jumpi\n    /* \"#utility.yul\":6832:6870   */\n  tag_131\n    /* \"#utility.yul\":6864:6869   */\n  dup2\n    /* \"#utility.yul\":6832:6870   */\n  tag_30\n  jump\t// in\ntag_131:\n    /* \"#utility.yul\":6916:6945   */\n  tag_132\n    /* \"#utility.yul\":6934:6944   */\n  dup5\n    /* \"#utility.yul\":6916:6945   */\n  tag_31\n  jump\t// in\ntag_132:\n    /* \"#utility.yul\":6906:6914   */\n  dup2\n    /* \"#utility.yul\":6902:6946   */\n  add\n    /* \"#utility.yul\":7099:7101   */\n  0x20\n    /* \"#utility.yul\":7087:7097   */\n  dup6\n    /* \"#utility.yul\":7084:7102   */\n  lt\n    /* \"#utility.yul\":7081:7130   */\n  iszero\n  tag_133\n  jumpi\n    /* \"#utility.yul\":7120:7128   */\n  dup2\n    /* \"#utility.yul\":7105:7128   */\n  swap1\n  pop\n    /* \"#utility.yul\":7081:7130   */\ntag_133:\n    /* \"#utility.yul\":7143:7223   */\n  tag_134\n    /* \"#utility.yul\":7199:7221   */\n  tag_135\n    /* \"#utility.yul\":7217:7220   */\n  dup6\n    /* \"#utility.yul\":7199:7221   */\n  tag_31\n  jump\t// in\ntag_135:\n    /* \"#utility.yul\":7189:7197   */\n  dup4\n    /* \"#utility.yul\":7185:7222   */\n  add\n    /* \"#utility.yul\":7172:7183   */\n  dup3\n    /* \"#utility.yul\":7143:7223   */\n  tag_41\n  jump\t// in\ntag_134:\n    /* \"#utility.yul\":6802:7233   */\n  pop\n  pop\n    /* \"#utility.yul\":6787:7233   */\ntag_130:\n    /* \"#utility.yul\":6697:7240   */\n  pop\n  pop\n  pop\n  jump\t// out\n    /* \"#utility.yul\":7246:7363   */\ntag_43:\n    /* \"#utility.yul\":7300:7308   */\n  0x00\n    /* \"#utility.yul\":7350:7355   */\n  dup3\n    /* \"#utility.yul\":7344:7348   */\n  dup3\n    /* \"#utility.yul\":7340:7356   */\n  shr\n    /* \"#utility.yul\":7319:7356   */\n  swap1\n  pop\n    /* \"#utility.yul\":7246:7363   */\n  swap3\n  swap2\n  pop\n  pop\n  jump\t// out\n    /* \"#utility.yul\":7369:7538   */\ntag_44:\n    /* \"#utility.yul\":7413:7419   */\n  0x00\n    /* \"#utility.yul\":7446:7497   */\n  tag_138\n    /* \"#utility.yul\":7494:7495   */\n  0x00\n    /* \"#utility.yul\":7490:7496   */\n  not\n    /* \"#utility.yul\":7482:7487   */\n  dup5\n    /* \"#utility.yul\":7479:7480   */\n  0x08\n    /* \"#utility.yul\":7475:7488   */\n  mul\n    /* \"#utility.yul\":7446:7497   */\n  tag_43\n  jump\t// in\ntag_138:\n    /* \"#utility.yul\":7442:7498   */\n  not\n    /* \"#utility.yul\":7527:7531   */\n  dup1\n    /* \"#utility.yul\":7521:7525   */\n  dup4\n    /* \"#utility.yul\":7517:7532   */\n  and\n    /* \"#utility.yul\":7507:7532   */\n  swap2\n  pop\n    /* \"#utility.yul\":7420:7538   */\n  pop\n    /* \"#utility.yul\":7369:7538   */\n  swap3\n  swap2\n  pop\n  pop\n  jump\t// out\n    /* \"#utility.yul\":7543:7838   */\ntag_45:\n    /* \"#utility.yul\":7619:7623   */\n  0x00\n    /* \"#utility.yul\":7765:7794   */\n  tag_140\n    /* \"#utility.yul\":7790:7793   */\n  dup4\n    /* \"#utility.yul\":7784:7788   */\n  dup4\n    /* \"#utility.yul\":7765:7794   */\n  tag_44\n  jump\t// in\ntag_140:\n    /* \"#utility.yul\":7757:7794   */\n  swap2\n  pop\n    /* \"#utility.yul\":7827:7830   */\n  dup3\n    /* \"#utility.yul\":7824:7825   */\n  0x02\n    /* \"#utility.yul\":7820:7831   */\n  mul\n    /* \"#utility.yul\":7814:7818   */\n  dup3\n    /* \"#utility.yul\":7811:7832   */\n  or\n    /* \"#utility.yul\":7803:7832   */\n  swap1\n  pop\n    /* \"#utility.yul\":7543:7838   */\n  swap3\n  swap2\n  pop\n  pop\n  jump\t// out\n    /* \"#utility.yul\":7843:9238   */\ntag_7:\n    /* \"#utility.yul\":7960:7997   */\n  tag_142\n    /* \"#utility.yul\":7993:7996   */\n  dup3\n    /* \"#utility.yul\":7960:7997   */\n  tag_27\n  jump\t// in\ntag_142:\n    /* \"#utility.yul\":8062:8080   */\n  0xffffffffffffffff\n    /* \"#utility.yul\":8054:8060   */\n  dup2\n    /* \"#utility.yul\":8051:8081   */\n  gt\n    /* \"#utility.yul\":8048:8104   */\n  iszero\n  tag_143\n  jumpi\n    /* \"#utility.yul\":8084:8102   */\n  tag_144\n  tag_16\n  jump\t// in\ntag_144:\n    /* \"#utility.yul\":8048:8104   */\ntag_143:\n    /* \"#utility.yul\":8128:8166   */\n  tag_145\n    /* \"#utility.yul\":8160:8164   */\n  dup3\n    /* \"#utility.yul\":8154:8165   */\n  sload\n    /* \"#utility.yul\":8128:8166   */\n  tag_29\n  jump\t// in\ntag_145:\n    /* \"#utility.yul\":8213:8280   */\n  tag_146\n    /* \"#utility.yul\":8273:8279   */\n  dup3\n    /* \"#utility.yul\":8265:8271   */\n  dup3\n    /* \"#utility.yul\":8259:8263   */\n  dup6\n    /* \"#utility.yul\":8213:8280   */\n  tag_42\n  jump\t// in\ntag_146:\n    /* \"#utility.yul\":8307:8308   */\n  0x00\n    /* \"#utility.yul\":8331:8335   */\n  0x20\n    /* \"#utility.yul\":8318:8335   */\n  swap1\n  pop\n    /* \"#utility.yul\":8363:8365   */\n  0x1f\n    /* \"#utility.yul\":8355:8361   */\n  dup4\n    /* \"#utility.yul\":8352:8366   */\n  gt\n    /* \"#utility.yul\":8380:8381   */\n  0x01\n    /* \"#utility.yul\":8375:8993   */\n  dup2\n  eq\n  tag_148\n  jumpi\n    /* \"#utility.yul\":9037:9038   */\n  0x00\n    /* \"#utility.yul\":9054:9060   */\n  dup5\n    /* \"#utility.yul\":9051:9128   */\n  iszero\n  tag_149\n  jumpi\n    /* \"#utility.yul\":9103:9112   */\n  dup3\n    /* \"#utility.yul\":9098:9101   */\n  dup8\n    /* \"#utility.yul\":9094:9113   */\n  add\n    /* \"#utility.yul\":9088:9114   */\n  mload\n    /* \"#utility.yul\":9079:9114   */\n  swap1\n  pop\n    /* \"#utility.yul\":9051:9128   */\ntag_149:\n    /* \"#utility.yul\":9154:9221   */\n  tag_150\n    /* \"#utility.yul\":9214:9220   */\n  dup6\n    /* \"#utility.yul\":9207:9212   */\n  dup3\n    /* \"#utility.yul\":9154:9221   */\n  tag_45\n  jump\t// in\ntag_150:\n    /* \"#utility.yul\":9148:9152   */\n  dup7\n    /* \"#utility.yul\":9141:9222   */\n  sstore\n    /* \"#utility.yul\":9010:9232   */\n  pop\n    /* \"#utility.yul\":8345:9232   */\n  jump(tag_147)\n    /* \"#utility.yul\":8375:8993   */\ntag_148:\n    /* \"#utility.yul\":8427:8431   */\n  0x1f\n    /* \"#utility.yul\":8423:8432   */\n  not\n    /* \"#utility.yul\":8415:8421   */\n  dup5\n    /* \"#utility.yul\":8411:8433   */\n  and\n    /* \"#utility.yul\":8461:8498   */\n  tag_151\n    /* \"#utility.yul\":8493:8497   */\n  dup7\n    /* \"#utility.yul\":8461:8498   */\n  tag_30\n  jump\t// in\ntag_151:\n    /* \"#utility.yul\":8520:8521   */\n  0x00\n    /* \"#utility.yul\":8534:8742   */\ntag_152:\n    /* \"#utility.yul\":8548:8555   */\n  dup3\n    /* \"#utility.yul\":8545:8546   */\n  dup2\n    /* \"#utility.yul\":8542:8556   */\n  lt\n    /* \"#utility.yul\":8534:8742   */\n  iszero\n  tag_154\n  jumpi\n    /* \"#utility.yul\":8627:8636   */\n  dup5\n    /* \"#utility.yul\":8622:8625   */\n  dup10\n    /* \"#utility.yul\":8618:8637   */\n  add\n    /* \"#utility.yul\":8612:8638   */\n  mload\n    /* \"#utility.yul\":8604:8610   */\n  dup3\n    /* \"#utility.yul\":8597:8639   */\n  sstore\n    /* \"#utility.yul\":8678:8679   */\n  0x01\n    /* \"#utility.yul\":8670:8676   */\n  dup3\n    /* \"#utility.yul\":8666:8680   */\n  add\n    /* \"#utility.yul\":8656:8680   */\n  swap2\n  pop\n    /* \"#utility.yul\":8725:8727   */\n  0x20\n    /* \"#utility.yul\":8714:8723   */\n  dup6\n    /* \"#utility.yul\":8710:8728   */\n  add\n    /* \"#utility.yul\":8697:8728   */\n  swap5\n  pop\n    /* \"#utility.yul\":8571:8575   */\n  0x20\n    /* \"#utility.yul\":8568:8569   */\n  dup2\n    /* \"#utility.yul\":8564:8576   */\n  add\n    /* \"#utility.yul\":8559:8576   */\n  swap1\n  pop\n    /* \"#utility.yul\":8534:8742   */\n  jump(tag_152)\ntag_154:\n    /* \"#utility.yul\":8770:8776   */\n  dup7\n    /* \"#utility.yul\":8761:8768   */\n  dup4\n    /* \"#utility.yul\":8758:8777   */\n  lt\n    /* \"#utility.yul\":8755:8934   */\n  iszero\n  tag_155\n  jumpi\n    /* \"#utility.yul\":8828:8837   */\n  dup5\n    /* \"#utility.yul\":8823:8826   */\n  dup10\n    /* \"#utility.yul\":8819:8838   */\n  add\n    /* \"#utility.yul\":8813:8839   */\n  mload\n    /* \"#utility.yul\":8871:8919   */\n  tag_156\n    /* \"#utility.yul\":8913:8917   */\n  0x1f\n    /* \"#utility.yul\":8905:8911   */\n  dup10\n    /* \"#utility.yul\":8901:8918   */\n  and\n    /* \"#utility.yul\":8890:8899   */\n  dup3\n    /* \"#utility.yul\":8871:8919   */\n  tag_44\n  jump\t// in\ntag_156:\n    /* \"#utility.yul\":8863:8869   */\n  dup4\n    /* \"#utility.yul\":8856:8920   */\n  sstore\n    /* \"#utility.yul\":8778:8934   */\n  pop\n    /* \"#utility.yul\":8755:8934   */\ntag_155:\n    /* \"#utility.yul\":8980:8981   */\n  0x01\n    /* \"#utility.yul\":8976:8977   */\n  0x02\n    /* \"#utility.yul\":8968:8974   */\n  dup9\n    /* \"#utility.yul\":8964:8978   */\n  mul\n    /* \"#utility.yul\":8960:8982   */\n  add\n    /* \"#utility.yul\":8954:8958   */\n  dup9\n    /* \"#utility.yul\":8947:8983   */\n  sstore\n    /* \"#utility.yul\":8382:8993   */\n  pop\n  pop\n  pop\n    /* \"#utility.yul\":8345:9232   */\ntag_147:\n  pop\n    /* \"#utility.yul\":7935:9238   */\n  pop\n  pop\n  pop\n    /* \"#utility.yul\":7843:9238   */\n  pop\n  pop\n  jump\t// out\n    /* \".deps/npm/@openzeppelin/contracts/token/ERC721/ERC721.sol\":628:17185  contract ERC721 is Context, ERC165, IERC721, IERC721Metadata {... */\ntag_9:\n  dataSize(sub_0)\n  dup1\n  dataOffset(sub_0)\n  0x00\n  codecopy\n  0x00\n  return\nstop\n\nsub_0: assembly {\n        /* \".deps/npm/@openzeppelin/contracts/token/ERC721/ERC721.sol\":628:17185  contract ERC721 is Context, ERC165, IERC721, IERC721Metadata {... */\n      mstore(0x40, 0x80)\n      callvalue\n      dup1\n      iszero\n      tag_1\n      jumpi\n      0x00\n      dup1\n      revert\n    tag_1:\n      pop\n      jumpi(tag_2, lt(calldatasize, 0x04))\n      shr(0xe0, calldataload(0x00))\n      dup1\n      0x6352211e\n      gt\n      tag_18\n      jumpi\n      dup1\n      0xb2bdfa7b\n      gt\n      tag_19\n      jumpi\n      dup1\n      0xb2bdfa7b\n      eq\n      tag_14\n      jumpi\n      dup1\n      0xb88d4fde\n      eq\n      tag_15\n      jumpi\n      dup1\n      0xc87b56dd\n      eq\n      tag_16\n      jumpi\n      dup1\n      0xe985e9c5\n      eq\n      tag_17\n      jumpi\n      jump(tag_2)\n    tag_19:\n      dup1\n      0x6352211e\n      eq\n      tag_10\n      jumpi\n      dup1\n      0x70a08231\n      eq\n      tag_11\n      jumpi\n      dup1\n      0x95d89b41\n      eq\n      tag_12\n      jumpi\n      dup1\n      0xa22cb465\n      eq\n      tag_13\n      jumpi\n      jump(tag_2)\n    tag_18:\n      dup1\n      0x095ea7b3\n      gt\n      tag_20\n      jumpi\n      dup1\n      0x095ea7b3\n      eq\n      tag_6\n      jumpi\n      dup1\n      0x23b872dd\n      eq\n      tag_7\n      jumpi\n      dup1\n      0x30e0789e\n      eq\n      tag_8\n      jumpi\n      dup1\n      0x42842e0e\n      eq\n      tag_9\n      jumpi\n      jump(tag_2)\n    tag_20:\n      dup1\n      0x01ffc9a7\n      eq\n      tag_3\n      jumpi\n      dup1\n      0x06fdde03\n      eq\n      tag_4\n      jumpi\n      dup1\n      0x081812fc\n      eq\n      tag_5\n      jumpi\n    tag_2:\n      0x00\n      dup1\n      revert\n        /* \".deps/npm/@openzeppelin/contracts/token/ERC721/ERC721.sol\":1757:2057  function supportsInterface(bytes4 interfaceId) public view virtual override(ERC165, IERC165) returns (bool) {... */\n    tag_3:\n      tag_21\n      0x04\n      dup1\n      calldatasize\n      sub\n      dup2\n      add\n      swap1\n      tag_22\n      swap2\n      swap1\n      tag_23\n      jump\t// in\n    tag_22:\n      tag_24\n      jump\t// in\n    tag_21:\n      mload(0x40)\n      tag_25\n      swap2\n      swap1\n      tag_26\n      jump\t// in\n    tag_25:\n      mload(0x40)\n      dup1\n      swap2\n      sub\n      swap1\n      return\n        /* \".deps/npm/@openzeppelin/contracts/token/ERC721/ERC721.sol\":2658:2756  function name() public view virtual override returns (string memory) {... */\n    tag_4:\n      tag_27\n      tag_28\n      jump\t// in\n    tag_27:\n      mload(0x40)\n      tag_29\n      swap2\n      swap1\n      tag_30\n      jump\t// in\n    tag_29:\n      mload(0x40)\n      dup1\n      swap2\n      sub\n      swap1\n      return\n        /* \".deps/npm/@openzeppelin/contracts/token/ERC721/ERC721.sol\":4122:4289  function getApproved(uint256 tokenId) public view virtual override returns (address) {... */\n    tag_5:\n      tag_31\n      0x04\n      dup1\n      calldatasize\n      sub\n      dup2\n      add\n      swap1\n      tag_32\n      swap2\n      swap1\n      tag_33\n      jump\t// in\n    tag_32:\n      tag_34\n      jump\t// in\n    tag_31:\n      mload(0x40)\n      tag_35\n      swap2\n      swap1\n      tag_36\n      jump\t// in\n    tag_35:\n      mload(0x40)\n      dup1\n      swap2\n      sub\n      swap1\n      return\n        /* \".deps/npm/@openzeppelin/contracts/token/ERC721/ERC721.sol\":3655:4061  function approve(address to, uint256 tokenId) public virtual override {... */\n    tag_6:\n      tag_37\n      0x04\n      dup1\n      calldatasize\n      sub\n      dup2\n      add\n      swap1\n      tag_38\n      swap2\n      swap1\n      tag_39\n      jump\t// in\n    tag_38:\n      tag_40\n      jump\t// in\n    tag_37:\n      stop\n        /* \".deps/npm/@openzeppelin/contracts/token/ERC721/ERC721.sol\":4799:5095  function transferFrom(address from, address to, uint256 tokenId) public virtual override {... */\n    tag_7:\n      tag_41\n      0x04\n      dup1\n      calldatasize\n      sub\n      dup2\n      add\n      swap1\n      tag_42\n      swap2\n      swap1\n      tag_43\n      jump\t// in\n    tag_42:\n      tag_44\n      jump\t// in\n    tag_41:\n      stop\n        /* \".deps/npm/@openzeppelin/contracts/token/ERC721/ERC721.sol\":11444:12640  function _transfer(address from, address to, uint256 tokenId) public  {... */\n    tag_8:\n      tag_45\n      0x04\n      dup1\n      calldatasize\n      sub\n      dup2\n      add\n      swap1\n      tag_46\n      swap2\n      swap1\n      tag_43\n      jump\t// in\n    tag_46:\n      tag_47\n      jump\t// in\n    tag_45:\n      stop\n        /* \".deps/npm/@openzeppelin/contracts/token/ERC721/ERC721.sol\":5161:5310  function safeTransferFrom(address from, address to, uint256 tokenId) public virtual override {... */\n    tag_9:\n      tag_48\n      0x04\n      dup1\n      calldatasize\n      sub\n      dup2\n      add\n      swap1\n      tag_49\n      swap2\n      swap1\n      tag_43\n      jump\t// in\n    tag_49:\n      tag_50\n      jump\t// in\n    tag_48:\n      stop\n        /* \".deps/npm/@openzeppelin/contracts/token/ERC721/ERC721.sol\":2377:2596  function ownerOf(uint256 tokenId) public view virtual override returns (address) {... */\n    tag_10:\n      tag_51\n      0x04\n      dup1\n      calldatasize\n      sub\n      dup2\n      add\n      swap1\n      tag_52\n      swap2\n      swap1\n      tag_33\n      jump\t// in\n    tag_52:\n      tag_53\n      jump\t// in\n    tag_51:\n      mload(0x40)\n      tag_54\n      swap2\n      swap1\n      tag_36\n      jump\t// in\n    tag_54:\n      mload(0x40)\n      dup1\n      swap2\n      sub\n      swap1\n      return\n        /* \".deps/npm/@openzeppelin/contracts/token/ERC721/ERC721.sol\":2116:2320  function balanceOf(address owner) public view virtual override returns (uint256) {... */\n    tag_11:\n      tag_55\n      0x04\n      dup1\n      calldatasize\n      sub\n      dup2\n      add\n      swap1\n      tag_56\n      swap2\n      swap1\n      tag_57\n      jump\t// in\n    tag_56:\n      tag_58\n      jump\t// in\n    tag_55:\n      mload(0x40)\n      tag_59\n      swap2\n      swap1\n      tag_60\n      jump\t// in\n    tag_59:\n      mload(0x40)\n      dup1\n      swap2\n      sub\n      swap1\n      return\n        /* \".deps/npm/@openzeppelin/contracts/token/ERC721/ERC721.sol\":2820:2922  function symbol() public view virtual override returns (string memory) {... */\n    tag_12:\n      tag_61\n      tag_62\n      jump\t// in\n    tag_61:\n      mload(0x40)\n      tag_63\n      swap2\n      swap1\n      tag_30\n      jump\t// in\n    tag_63:\n      mload(0x40)\n      dup1\n      swap2\n      sub\n      swap1\n      return\n        /* \".deps/npm/@openzeppelin/contracts/token/ERC721/ERC721.sol\":4356:4509  function setApprovalForAll(address operator, bool approved) public virtual override {... */\n    tag_13:\n      tag_64\n      0x04\n      dup1\n      calldatasize\n      sub\n      dup2\n      add\n      swap1\n      tag_65\n      swap2\n      swap1\n      tag_66\n      jump\t// in\n    tag_65:\n      tag_67\n      jump\t// in\n    tag_64:\n      stop\n        /* \".deps/npm/@openzeppelin/contracts/token/ERC721/ERC721.sol\":757:778  address public _owner */\n    tag_14:\n      tag_68\n      tag_69\n      jump\t// in\n    tag_68:\n      mload(0x40)\n      tag_70\n      swap2\n      swap1\n      tag_36\n      jump\t// in\n    tag_70:\n      mload(0x40)\n      dup1\n      swap2\n      sub\n      swap1\n      return\n        /* \".deps/npm/@openzeppelin/contracts/token/ERC721/ERC721.sol\":5376:5652  function safeTransferFrom(address from, address to, uint256 tokenId, bytes memory data) public virtual override {... */\n    tag_15:\n      tag_71\n      0x04\n      dup1\n      calldatasize\n      sub\n      dup2\n      add\n      swap1\n      tag_72\n      swap2\n      swap1\n      tag_73\n      jump\t// in\n    tag_72:\n      tag_74\n      jump\t// in\n    tag_71:\n      stop\n        /* \".deps/npm/@openzeppelin/contracts/token/ERC721/ERC721.sol\":2988:3264  function tokenURI(uint256 tokenId) public view virtual override returns (string memory) {... */\n    tag_16:\n      tag_75\n      0x04\n      dup1\n      calldatasize\n      sub\n      dup2\n      add\n      swap1\n      tag_76\n      swap2\n      swap1\n      tag_33\n      jump\t// in\n    tag_76:\n      tag_77\n      jump\t// in\n    tag_75:\n      mload(0x40)\n      tag_78\n      swap2\n      swap1\n      tag_30\n      jump\t// in\n    tag_78:\n      mload(0x40)\n      dup1\n      swap2\n      sub\n      swap1\n      return\n        /* \".deps/npm/@openzeppelin/contracts/token/ERC721/ERC721.sol\":4575:4737  function isApprovedForAll(address owner, address operator) public view virtual override returns (bool) {... */\n    tag_17:\n      tag_79\n      0x04\n      dup1\n      calldatasize\n      sub\n      dup2\n      add\n      swap1\n      tag_80\n      swap2\n      swap1\n      tag_81\n      jump\t// in\n    tag_80:\n      tag_82\n      jump\t// in\n    tag_79:\n      mload(0x40)\n      tag_83\n      swap2\n      swap1\n      tag_26\n      jump\t// in\n    tag_83:\n      mload(0x40)\n      dup1\n      swap2\n      sub\n      swap1\n      return\n        /* \".deps/npm/@openzeppelin/contracts/token/ERC721/ERC721.sol\":1757:2057  function supportsInterface(bytes4 interfaceId) public view virtual override(ERC165, IERC165) returns (bool) {... */\n    tag_24:\n        /* \".deps/npm/@openzeppelin/contracts/token/ERC721/ERC721.sol\":1859:1863  bool */\n      0x00\n        /* \".deps/npm/@openzeppelin/contracts/token/ERC721/ERC721.sol\":1909:1934  type(IERC721).interfaceId */\n      0x80ac58cd00000000000000000000000000000000000000000000000000000000\n        /* \".deps/npm/@openzeppelin/contracts/token/ERC721/ERC721.sol\":1894:1934  interfaceId == type(IERC721).interfaceId */\n      not(0xffffffffffffffffffffffffffffffffffffffffffffffffffffffff)\n      and\n        /* \".deps/npm/@openzeppelin/contracts/token/ERC721/ERC721.sol\":1894:1905  interfaceId */\n      dup3\n        /* \".deps/npm/@openzeppelin/contracts/token/ERC721/ERC721.sol\":1894:1934  interfaceId == type(IERC721).interfaceId */\n      not(0xffffffffffffffffffffffffffffffffffffffffffffffffffffffff)\n      and\n      eq\n        /* \".deps/npm/@openzeppelin/contracts/token/ERC721/ERC721.sol\":1894:1998  interfaceId == type(IERC721).interfaceId ||... */\n      dup1\n      tag_85\n      jumpi\n      pop\n        /* \".deps/npm/@openzeppelin/contracts/token/ERC721/ERC721.sol\":1965:1998  type(IERC721Metadata).interfaceId */\n      0x5b5e139f00000000000000000000000000000000000000000000000000000000\n        /* \".deps/npm/@openzeppelin/contracts/token/ERC721/ERC721.sol\":1950:1998  interfaceId == type(IERC721Metadata).interfaceId */\n      not(0xffffffffffffffffffffffffffffffffffffffffffffffffffffffff)\n      and\n        /* \".deps/npm/@openzeppelin/contracts/token/ERC721/ERC721.sol\":1950:1961  interfaceId */\n      dup3\n        /* \".deps/npm/@openzeppelin/contracts/token/ERC721/ERC721.sol\":1950:1998  interfaceId == type(IERC721Metadata).interfaceId */\n      not(0xffffffffffffffffffffffffffffffffffffffffffffffffffffffff)\n      and\n      eq\n        /* \".deps/npm/@openzeppelin/contracts/token/ERC721/ERC721.sol\":1894:1998  interfaceId == type(IERC721).interfaceId ||... */\n    tag_85:\n        /* \".deps/npm/@openzeppelin/contracts/token/ERC721/ERC721.sol\":1894:2050  interfaceId == type(IERC721).interfaceId ||... */\n      dup1\n      tag_86\n      jumpi\n      pop\n        /* \".deps/npm/@openzeppelin/contracts/token/ERC721/ERC721.sol\":2014:2050  super.supportsInterface(interfaceId) */\n      tag_87\n        /* \".deps/npm/@openzeppelin/contracts/token/ERC721/ERC721.sol\":2038:2049  interfaceId */\n      dup3\n        /* \".deps/npm/@openzeppelin/contracts/token/ERC721/ERC721.sol\":2014:2037  super.supportsInterface */\n      tag_88\n        /* \".deps/npm/@openzeppelin/contracts/token/ERC721/ERC721.sol\":2014:2050  super.supportsInterface(interfaceId) */\n      jump\t// in\n    tag_87:\n        /* \".deps/npm/@openzeppelin/contracts/token/ERC721/ERC721.sol\":1894:2050  interfaceId == type(IERC721).interfaceId ||... */\n    tag_86:\n        /* \".deps/npm/@openzeppelin/contracts/token/ERC721/ERC721.sol\":1875:2050  return... */\n      swap1\n      pop\n        /* \".deps/npm/@openzeppelin/contracts/token/ERC721/ERC721.sol\":1757:2057  function supportsInterface(bytes4 interfaceId) public view virtual override(ERC165, IERC165) returns (bool) {... */\n      swap2\n      swap1\n      pop\n      jump\t// out\n        /* \".deps/npm/@openzeppelin/contracts/token/ERC721/ERC721.sol\":2658:2756  function name() public view virtual override returns (string memory) {... */\n    tag_28:\n        /* \".deps/npm/@openzeppelin/contracts/token/ERC721/ERC721.sol\":2712:2725  string memory */\n      0x60\n        /* \".deps/npm/@openzeppelin/contracts/token/ERC721/ERC721.sol\":2744:2749  _name */\n      0x01\n        /* \".deps/npm/@openzeppelin/contracts/token/ERC721/ERC721.sol\":2737:2749  return _name */\n      dup1\n      sload\n      tag_90\n      swap1\n      tag_91\n      jump\t// in\n    tag_90:\n      dup1\n      0x1f\n      add\n      0x20\n      dup1\n      swap2\n      div\n      mul\n      0x20\n      add\n      mload(0x40)\n      swap1\n      dup2\n      add\n      0x40\n      mstore\n      dup1\n      swap3\n      swap2\n      swap1\n      dup2\n      dup2\n      mstore\n      0x20\n      add\n      dup3\n      dup1\n      sload\n      tag_92\n      swap1\n      tag_91\n      jump\t// in\n    tag_92:\n      dup1\n      iszero\n      tag_93\n      jumpi\n      dup1\n      0x1f\n      lt\n      tag_94\n      jumpi\n      0x0100\n      dup1\n      dup4\n      sload\n      div\n      mul\n      dup4\n      mstore\n      swap2\n      0x20\n      add\n      swap2\n      jump(tag_93)\n    tag_94:\n      dup3\n      add\n      swap2\n      swap1\n      0x00\n      mstore\n      keccak256(0x00, 0x20)\n      swap1\n    tag_95:\n      dup2\n      sload\n      dup2\n      mstore\n      swap1\n      0x01\n      add\n      swap1\n      0x20\n      add\n      dup1\n      dup4\n      gt\n      tag_95\n      jumpi\n      dup3\n      swap1\n      sub\n      0x1f\n      and\n      dup3\n      add\n      swap2\n    tag_93:\n      pop\n      pop\n      pop\n      pop\n      pop\n      swap1\n      pop\n        /* \".deps/npm/@openzeppelin/contracts/token/ERC721/ERC721.sol\":2658:2756  function name() public view virtual override returns (string memory) {... */\n      swap1\n      jump\t// out\n        /* \".deps/npm/@openzeppelin/contracts/token/ERC721/ERC721.sol\":4122:4289  function getApproved(uint256 tokenId) public view virtual override returns (address) {... */\n    tag_34:\n        /* \".deps/npm/@openzeppelin/contracts/token/ERC721/ERC721.sol\":4198:4205  address */\n      0x00\n        /* \".deps/npm/@openzeppelin/contracts/token/ERC721/ERC721.sol\":4217:4240  _requireMinted(tokenId) */\n      tag_97\n        /* \".deps/npm/@openzeppelin/contracts/token/ERC721/ERC721.sol\":4232:4239  tokenId */\n      dup3\n        /* \".deps/npm/@openzeppelin/contracts/token/ERC721/ERC721.sol\":4217:4231  _requireMinted */\n      tag_98\n        /* \".deps/npm/@openzeppelin/contracts/token/ERC721/ERC721.sol\":4217:4240  _requireMinted(tokenId) */\n      jump\t// in\n    tag_97:\n        /* \".deps/npm/@openzeppelin/contracts/token/ERC721/ERC721.sol\":4258:4273  _tokenApprovals */\n      0x05\n        /* \".deps/npm/@openzeppelin/contracts/token/ERC721/ERC721.sol\":4258:4282  _tokenApprovals[tokenId] */\n      0x00\n        /* \".deps/npm/@openzeppelin/contracts/token/ERC721/ERC721.sol\":4274:4281  tokenId */\n      dup4\n        /* \".deps/npm/@openzeppelin/contracts/token/ERC721/ERC721.sol\":4258:4282  _tokenApprovals[tokenId] */\n      dup2\n      mstore\n      0x20\n      add\n      swap1\n      dup2\n      mstore\n      0x20\n      add\n      0x00\n      keccak256\n      0x00\n      swap1\n      sload\n      swap1\n      0x0100\n      exp\n      swap1\n      div\n      0xffffffffffffffffffffffffffffffffffffffff\n      and\n        /* \".deps/npm/@openzeppelin/contracts/token/ERC721/ERC721.sol\":4251:4282  return _tokenApprovals[tokenId] */\n      swap1\n      pop\n        /* \".deps/npm/@openzeppelin/contracts/token/ERC721/ERC721.sol\":4122:4289  function getApproved(uint256 tokenId) public view virtual override returns (address) {... */\n      swap2\n      swap1\n      pop\n      jump\t// out\n        /* \".deps/npm/@openzeppelin/contracts/token/ERC721/ERC721.sol\":3655:4061  function approve(address to, uint256 tokenId) public virtual override {... */\n    tag_40:\n        /* \".deps/npm/@openzeppelin/contracts/token/ERC721/ERC721.sol\":3735:3748  address owner */\n      0x00\n        /* \".deps/npm/@openzeppelin/contracts/token/ERC721/ERC721.sol\":3751:3774  ERC721.ownerOf(tokenId) */\n      tag_100\n        /* \".deps/npm/@openzeppelin/contracts/token/ERC721/ERC721.sol\":3766:3773  tokenId */\n      dup3\n        /* \".deps/npm/@openzeppelin/contracts/token/ERC721/ERC721.sol\":3751:3765  ERC721.ownerOf */\n      tag_53\n        /* \".deps/npm/@openzeppelin/contracts/token/ERC721/ERC721.sol\":3751:3774  ERC721.ownerOf(tokenId) */\n      jump\t// in\n    tag_100:\n        /* \".deps/npm/@openzeppelin/contracts/token/ERC721/ERC721.sol\":3735:3774  address owner = ERC721.ownerOf(tokenId) */\n      swap1\n      pop\n        /* \".deps/npm/@openzeppelin/contracts/token/ERC721/ERC721.sol\":3798:3803  owner */\n      dup1\n        /* \".deps/npm/@openzeppelin/contracts/token/ERC721/ERC721.sol\":3792:3803  to != owner */\n      0xffffffffffffffffffffffffffffffffffffffff\n      and\n        /* \".deps/npm/@openzeppelin/contracts/token/ERC721/ERC721.sol\":3792:3794  to */\n      dup4\n        /* \".deps/npm/@openzeppelin/contracts/token/ERC721/ERC721.sol\":3792:3803  to != owner */\n      0xffffffffffffffffffffffffffffffffffffffff\n      and\n      sub\n        /* \".deps/npm/@openzeppelin/contracts/token/ERC721/ERC721.sol\":3784:3841  require(to != owner, \"ERC721: approval to current owner\") */\n      tag_101\n      jumpi\n      mload(0x40)\n      0x08c379a000000000000000000000000000000000000000000000000000000000\n      dup2\n      mstore\n      0x04\n      add\n      tag_102\n      swap1\n      tag_103\n      jump\t// in\n    tag_102:\n      mload(0x40)\n      dup1\n      swap2\n      sub\n      swap1\n      revert\n    tag_101:\n        /* \".deps/npm/@openzeppelin/contracts/token/ERC721/ERC721.sol\":3889:3894  owner */\n      dup1\n        /* \".deps/npm/@openzeppelin/contracts/token/ERC721/ERC721.sol\":3873:3894  _msgSender() == owner */\n      0xffffffffffffffffffffffffffffffffffffffff\n      and\n        /* \".deps/npm/@openzeppelin/contracts/token/ERC721/ERC721.sol\":3873:3885  _msgSender() */\n      tag_104\n        /* \".deps/npm/@openzeppelin/contracts/token/ERC721/ERC721.sol\":3873:3883  _msgSender */\n      tag_105\n        /* \".deps/npm/@openzeppelin/contracts/token/ERC721/ERC721.sol\":3873:3885  _msgSender() */\n      jump\t// in\n    tag_104:\n        /* \".deps/npm/@openzeppelin/contracts/token/ERC721/ERC721.sol\":3873:3894  _msgSender() == owner */\n      0xffffffffffffffffffffffffffffffffffffffff\n      and\n      eq\n        /* \".deps/npm/@openzeppelin/contracts/token/ERC721/ERC721.sol\":3873:3935  _msgSender() == owner || isApprovedForAll(owner, _msgSender()) */\n      dup1\n      tag_106\n      jumpi\n      pop\n        /* \".deps/npm/@openzeppelin/contracts/token/ERC721/ERC721.sol\":3898:3935  isApprovedForAll(owner, _msgSender()) */\n      tag_107\n        /* \".deps/npm/@openzeppelin/contracts/token/ERC721/ERC721.sol\":3915:3920  owner */\n      dup2\n        /* \".deps/npm/@openzeppelin/contracts/token/ERC721/ERC721.sol\":3922:3934  _msgSender() */\n      tag_108\n        /* \".deps/npm/@openzeppelin/contracts/token/ERC721/ERC721.sol\":3922:3932  _msgSender */\n      tag_105\n        /* \".deps/npm/@openzeppelin/contracts/token/ERC721/ERC721.sol\":3922:3934  _msgSender() */\n      jump\t// in\n    tag_108:\n        /* \".deps/npm/@openzeppelin/contracts/token/ERC721/ERC721.sol\":3898:3914  isApprovedForAll */\n      tag_82\n        /* \".deps/npm/@openzeppelin/contracts/token/ERC721/ERC721.sol\":3898:3935  isApprovedForAll(owner, _msgSender()) */\n      jump\t// in\n    tag_107:\n        /* \".deps/npm/@openzeppelin/contracts/token/ERC721/ERC721.sol\":3873:3935  _msgSender() == owner || isApprovedForAll(owner, _msgSender()) */\n    tag_106:\n        /* \".deps/npm/@openzeppelin/contracts/token/ERC721/ERC721.sol\":3852:4022  require(... */\n      tag_109\n      jumpi\n      mload(0x40)\n      0x08c379a000000000000000000000000000000000000000000000000000000000\n      dup2\n      mstore\n      0x04\n      add\n      tag_110\n      swap1\n      tag_111\n      jump\t// in\n    tag_110:\n      mload(0x40)\n      dup1\n      swap2\n      sub\n      swap1\n      revert\n    tag_109:\n        /* \".deps/npm/@openzeppelin/contracts/token/ERC721/ERC721.sol\":4033:4054  _approve(to, tokenId) */\n      tag_112\n        /* \".deps/npm/@openzeppelin/contracts/token/ERC721/ERC721.sol\":4042:4044  to */\n      dup4\n        /* \".deps/npm/@openzeppelin/contracts/token/ERC721/ERC721.sol\":4046:4053  tokenId */\n      dup4\n        /* \".deps/npm/@openzeppelin/contracts/token/ERC721/ERC721.sol\":4033:4041  _approve */\n      tag_113\n        /* \".deps/npm/@openzeppelin/contracts/token/ERC721/ERC721.sol\":4033:4054  _approve(to, tokenId) */\n      jump\t// in\n    tag_112:\n        /* \".deps/npm/@openzeppelin/contracts/token/ERC721/ERC721.sol\":3725:4061  {... */\n      pop\n        /* \".deps/npm/@openzeppelin/contracts/token/ERC721/ERC721.sol\":3655:4061  function approve(address to, uint256 tokenId) public virtual override {... */\n      pop\n      pop\n      jump\t// out\n        /* \".deps/npm/@openzeppelin/contracts/token/ERC721/ERC721.sol\":4799:5095  function transferFrom(address from, address to, uint256 tokenId) public virtual override {... */\n    tag_44:\n        /* \".deps/npm/@openzeppelin/contracts/token/ERC721/ERC721.sol\":4958:4999  _isApprovedOrOwner(_msgSender(), tokenId) */\n      tag_115\n        /* \".deps/npm/@openzeppelin/contracts/token/ERC721/ERC721.sol\":4977:4989  _msgSender() */\n      tag_116\n        /* \".deps/npm/@openzeppelin/contracts/token/ERC721/ERC721.sol\":4977:4987  _msgSender */\n      tag_105\n        /* \".deps/npm/@openzeppelin/contracts/token/ERC721/ERC721.sol\":4977:4989  _msgSender() */\n      jump\t// in\n    tag_116:\n        /* \".deps/npm/@openzeppelin/contracts/token/ERC721/ERC721.sol\":4991:4998  tokenId */\n      dup3\n        /* \".deps/npm/@openzeppelin/contracts/token/ERC721/ERC721.sol\":4958:4976  _isApprovedOrOwner */\n      tag_117\n        /* \".deps/npm/@openzeppelin/contracts/token/ERC721/ERC721.sol\":4958:4999  _isApprovedOrOwner(_msgSender(), tokenId) */\n      jump\t// in\n    tag_115:\n        /* \".deps/npm/@openzeppelin/contracts/token/ERC721/ERC721.sol\":4950:5049  require(_isApprovedOrOwner(_msgSender(), tokenId), \"ERC721: caller is not token owner or approved\") */\n      tag_118\n      jumpi\n      mload(0x40)\n      0x08c379a000000000000000000000000000000000000000000000000000000000\n      dup2\n      mstore\n      0x04\n      add\n      tag_119\n      swap1\n      tag_120\n      jump\t// in\n    tag_119:\n      mload(0x40)\n      dup1\n      swap2\n      sub\n      swap1\n      revert\n    tag_118:\n        /* \".deps/npm/@openzeppelin/contracts/token/ERC721/ERC721.sol\":5060:5088  _transfer(from, to, tokenId) */\n      tag_121\n        /* \".deps/npm/@openzeppelin/contracts/token/ERC721/ERC721.sol\":5070:5074  from */\n      dup4\n        /* \".deps/npm/@openzeppelin/contracts/token/ERC721/ERC721.sol\":5076:5078  to */\n      dup4\n        /* \".deps/npm/@openzeppelin/contracts/token/ERC721/ERC721.sol\":5080:5087  tokenId */\n      dup4\n        /* \".deps/npm/@openzeppelin/contracts/token/ERC721/ERC721.sol\":5060:5069  _transfer */\n      tag_47\n        /* \".deps/npm/@openzeppelin/contracts/token/ERC721/ERC721.sol\":5060:5088  _transfer(from, to, tokenId) */\n      jump\t// in\n    tag_121:\n        /* \".deps/npm/@openzeppelin/contracts/token/ERC721/ERC721.sol\":4799:5095  function transferFrom(address from, address to, uint256 tokenId) public virtual override {... */\n      pop\n      pop\n      pop\n      jump\t// out\n        /* \".deps/npm/@openzeppelin/contracts/token/ERC721/ERC721.sol\":11444:12640  function _transfer(address from, address to, uint256 tokenId) public  {... */\n    tag_47:\n        /* \".deps/npm/@openzeppelin/contracts/token/ERC721/ERC721.sol\":11559:11563  from */\n      dup3\n        /* \".deps/npm/@openzeppelin/contracts/token/ERC721/ERC721.sol\":11532:11563  ERC721.ownerOf(tokenId) == from */\n      0xffffffffffffffffffffffffffffffffffffffff\n      and\n        /* \".deps/npm/@openzeppelin/contracts/token/ERC721/ERC721.sol\":11532:11555  ERC721.ownerOf(tokenId) */\n      tag_123\n        /* \".deps/npm/@openzeppelin/contracts/token/ERC721/ERC721.sol\":11547:11554  tokenId */\n      dup3\n        /* \".deps/npm/@openzeppelin/contracts/token/ERC721/ERC721.sol\":11532:11546  ERC721.ownerOf */\n      tag_53\n        /* \".deps/npm/@openzeppelin/contracts/token/ERC721/ERC721.sol\":11532:11555  ERC721.ownerOf(tokenId) */\n      jump\t// in\n    tag_123:\n        /* \".deps/npm/@openzeppelin/contracts/token/ERC721/ERC721.sol\":11532:11563  ERC721.ownerOf(tokenId) == from */\n      0xffffffffffffffffffffffffffffffffffffffff\n      and\n      eq\n        /* \".deps/npm/@openzeppelin/contracts/token/ERC721/ERC721.sol\":11524:11605  require(ERC721.ownerOf(tokenId) == from, \"ERC721: transfer from incorrect owner\") */\n      tag_124\n      jumpi\n      mload(0x40)\n      0x08c379a000000000000000000000000000000000000000000000000000000000\n      dup2\n      mstore\n      0x04\n      add\n      tag_125\n      swap1\n      tag_126\n      jump\t// in\n    tag_125:\n      mload(0x40)\n      dup1\n      swap2\n      sub\n      swap1\n      revert\n    tag_124:\n        /* \".deps/npm/@openzeppelin/contracts/token/ERC721/ERC721.sol\":11693:11735  _beforeTokenTransfer(from, to, tokenId, 1) */\n      tag_127\n        /* \".deps/npm/@openzeppelin/contracts/token/ERC721/ERC721.sol\":11714:11718  from */\n      dup4\n        /* \".deps/npm/@openzeppelin/contracts/token/ERC721/ERC721.sol\":11720:11722  to */\n      dup4\n        /* \".deps/npm/@openzeppelin/contracts/token/ERC721/ERC721.sol\":11724:11731  tokenId */\n      dup4\n        /* \".deps/npm/@openzeppelin/contracts/token/ERC721/ERC721.sol\":11733:11734  1 */\n      0x01\n        /* \".deps/npm/@openzeppelin/contracts/token/ERC721/ERC721.sol\":11693:11713  _beforeTokenTransfer */\n      tag_128\n        /* \".deps/npm/@openzeppelin/contracts/token/ERC721/ERC721.sol\":11693:11735  _beforeTokenTransfer(from, to, tokenId, 1) */\n      jump\t// in\n    tag_127:\n        /* \".deps/npm/@openzeppelin/contracts/token/ERC721/ERC721.sol\":11862:11866  from */\n      dup3\n        /* \".deps/npm/@openzeppelin/contracts/token/ERC721/ERC721.sol\":11835:11866  ERC721.ownerOf(tokenId) == from */\n      0xffffffffffffffffffffffffffffffffffffffff\n      and\n        /* \".deps/npm/@openzeppelin/contracts/token/ERC721/ERC721.sol\":11835:11858  ERC721.ownerOf(tokenId) */\n      tag_129\n        /* \".deps/npm/@openzeppelin/contracts/token/ERC721/ERC721.sol\":11850:11857  tokenId */\n      dup3\n        /* \".deps/npm/@openzeppelin/contracts/token/ERC721/ERC721.sol\":11835:11849  ERC721.ownerOf */\n      tag_53\n        /* \".deps/npm/@openzeppelin/contracts/token/ERC721/ERC721.sol\":11835:11858  ERC721.ownerOf(tokenId) */\n      jump\t// in\n    tag_129:\n        /* \".deps/npm/@openzeppelin/contracts/token/ERC721/ERC721.sol\":11835:11866  ERC721.ownerOf(tokenId) == from */\n      0xffffffffffffffffffffffffffffffffffffffff\n      and\n      eq\n        /* \".deps/npm/@openzeppelin/contracts/token/ERC721/ERC721.sol\":11827:11908  require(ERC721.ownerOf(tokenId) == from, \"ERC721: transfer from incorrect owner\") */\n      tag_130\n      jumpi\n      mload(0x40)\n      0x08c379a000000000000000000000000000000000000000000000000000000000\n      dup2\n      mstore\n      0x04\n      add\n      tag_131\n      swap1\n      tag_126\n      jump\t// in\n    tag_131:\n      mload(0x40)\n      dup1\n      swap2\n      sub\n      swap1\n      revert\n    tag_130:\n        /* \".deps/npm/@openzeppelin/contracts/token/ERC721/ERC721.sol\":11977:11992  _tokenApprovals */\n      0x05\n        /* \".deps/npm/@openzeppelin/contracts/token/ERC721/ERC721.sol\":11977:12001  _tokenApprovals[tokenId] */\n      0x00\n        /* \".deps/npm/@openzeppelin/contracts/token/ERC721/ERC721.sol\":11993:12000  tokenId */\n      dup3\n        /* \".deps/npm/@openzeppelin/contracts/token/ERC721/ERC721.sol\":11977:12001  _tokenApprovals[tokenId] */\n      dup2\n      mstore\n      0x20\n      add\n      swap1\n      dup2\n      mstore\n      0x20\n      add\n      0x00\n      keccak256\n      0x00\n        /* \".deps/npm/@openzeppelin/contracts/token/ERC721/ERC721.sol\":11970:12001  delete _tokenApprovals[tokenId] */\n      0x0100\n      exp\n      dup2\n      sload\n      swap1\n      0xffffffffffffffffffffffffffffffffffffffff\n      mul\n      not\n      and\n      swap1\n      sstore\n        /* \".deps/npm/@openzeppelin/contracts/token/ERC721/ERC721.sol\":12464:12465  1 */\n      0x01\n        /* \".deps/npm/@openzeppelin/contracts/token/ERC721/ERC721.sol\":12445:12454  _balances */\n      0x04\n        /* \".deps/npm/@openzeppelin/contracts/token/ERC721/ERC721.sol\":12445:12460  _balances[from] */\n      0x00\n        /* \".deps/npm/@openzeppelin/contracts/token/ERC721/ERC721.sol\":12455:12459  from */\n      dup6\n        /* \".deps/npm/@openzeppelin/contracts/token/ERC721/ERC721.sol\":12445:12460  _balances[from] */\n      0xffffffffffffffffffffffffffffffffffffffff\n      and\n      0xffffffffffffffffffffffffffffffffffffffff\n      and\n      dup2\n      mstore\n      0x20\n      add\n      swap1\n      dup2\n      mstore\n      0x20\n      add\n      0x00\n      keccak256\n      0x00\n        /* \".deps/npm/@openzeppelin/contracts/token/ERC721/ERC721.sol\":12445:12465  _balances[from] -= 1 */\n      dup3\n      dup3\n      sload\n      sub\n      swap3\n      pop\n      pop\n      dup2\n      swap1\n      sstore\n      pop\n        /* \".deps/npm/@openzeppelin/contracts/token/ERC721/ERC721.sol\":12496:12497  1 */\n      0x01\n        /* \".deps/npm/@openzeppelin/contracts/token/ERC721/ERC721.sol\":12479:12488  _balances */\n      0x04\n        /* \".deps/npm/@openzeppelin/contracts/token/ERC721/ERC721.sol\":12479:12492  _balances[to] */\n      0x00\n        /* \".deps/npm/@openzeppelin/contracts/token/ERC721/ERC721.sol\":12489:12491  to */\n      dup5\n        /* \".deps/npm/@openzeppelin/contracts/token/ERC721/ERC721.sol\":12479:12492  _balances[to] */\n      0xffffffffffffffffffffffffffffffffffffffff\n      and\n      0xffffffffffffffffffffffffffffffffffffffff\n      and\n      dup2\n      mstore\n      0x20\n      add\n      swap1\n      dup2\n      mstore\n      0x20\n      add\n      0x00\n      keccak256\n      0x00\n        /* \".deps/npm/@openzeppelin/contracts/token/ERC721/ERC721.sol\":12479:12497  _balances[to] += 1 */\n      dup3\n      dup3\n      sload\n      add\n      swap3\n      pop\n      pop\n      dup2\n      swap1\n      sstore\n      pop\n        /* \".deps/npm/@openzeppelin/contracts/token/ERC721/ERC721.sol\":12536:12538  to */\n      dup2\n        /* \".deps/npm/@openzeppelin/contracts/token/ERC721/ERC721.sol\":12517:12524  _owners */\n      0x03\n        /* \".deps/npm/@openzeppelin/contracts/token/ERC721/ERC721.sol\":12517:12533  _owners[tokenId] */\n      0x00\n        /* \".deps/npm/@openzeppelin/contracts/token/ERC721/ERC721.sol\":12525:12532  tokenId */\n      dup4\n        /* \".deps/npm/@openzeppelin/contracts/token/ERC721/ERC721.sol\":12517:12533  _owners[tokenId] */\n      dup2\n      mstore\n      0x20\n      add\n      swap1\n      dup2\n      mstore\n      0x20\n      add\n      0x00\n      keccak256\n      0x00\n        /* \".deps/npm/@openzeppelin/contracts/token/ERC721/ERC721.sol\":12517:12538  _owners[tokenId] = to */\n      0x0100\n      exp\n      dup2\n      sload\n      dup2\n      0xffffffffffffffffffffffffffffffffffffffff\n      mul\n      not\n      and\n      swap1\n      dup4\n      0xffffffffffffffffffffffffffffffffffffffff\n      and\n      mul\n      or\n      swap1\n      sstore\n      pop\n        /* \".deps/npm/@openzeppelin/contracts/token/ERC721/ERC721.sol\":12573:12580  tokenId */\n      dup1\n        /* \".deps/npm/@openzeppelin/contracts/token/ERC721/ERC721.sol\":12569:12571  to */\n      dup3\n        /* \".deps/npm/@openzeppelin/contracts/token/ERC721/ERC721.sol\":12554:12581  Transfer(from, to, tokenId) */\n      0xffffffffffffffffffffffffffffffffffffffff\n      and\n        /* \".deps/npm/@openzeppelin/contracts/token/ERC721/ERC721.sol\":12563:12567  from */\n      dup5\n        /* \".deps/npm/@openzeppelin/contracts/token/ERC721/ERC721.sol\":12554:12581  Transfer(from, to, tokenId) */\n      0xffffffffffffffffffffffffffffffffffffffff\n      and\n      0xddf252ad1be2c89b69c2b068fc378daa952ba7f163c4a11628f55a4df523b3ef\n      mload(0x40)\n      mload(0x40)\n      dup1\n      swap2\n      sub\n      swap1\n      log4\n        /* \".deps/npm/@openzeppelin/contracts/token/ERC721/ERC721.sol\":12592:12633  _afterTokenTransfer(from, to, tokenId, 1) */\n      tag_132\n        /* \".deps/npm/@openzeppelin/contracts/token/ERC721/ERC721.sol\":12612:12616  from */\n      dup4\n        /* \".deps/npm/@openzeppelin/contracts/token/ERC721/ERC721.sol\":12618:12620  to */\n      dup4\n        /* \".deps/npm/@openzeppelin/contracts/token/ERC721/ERC721.sol\":12622:12629  tokenId */\n      dup4\n        /* \".deps/npm/@openzeppelin/contracts/token/ERC721/ERC721.sol\":12631:12632  1 */\n      0x01\n        /* \".deps/npm/@openzeppelin/contracts/token/ERC721/ERC721.sol\":12592:12611  _afterTokenTransfer */\n      tag_133\n        /* \".deps/npm/@openzeppelin/contracts/token/ERC721/ERC721.sol\":12592:12633  _afterTokenTransfer(from, to, tokenId, 1) */\n      jump\t// in\n    tag_132:\n        /* \".deps/npm/@openzeppelin/contracts/token/ERC721/ERC721.sol\":11444:12640  function _transfer(address from, address to, uint256 tokenId) public  {... */\n      pop\n      pop\n      pop\n      jump\t// out\n        /* \".deps/npm/@openzeppelin/contracts/token/ERC721/ERC721.sol\":5161:5310  function safeTransferFrom(address from, address to, uint256 tokenId) public virtual override {... */\n    tag_50:\n        /* \".deps/npm/@openzeppelin/contracts/token/ERC721/ERC721.sol\":5264:5303  safeTransferFrom(from, to, tokenId, \"\") */\n      tag_135\n        /* \".deps/npm/@openzeppelin/contracts/token/ERC721/ERC721.sol\":5281:5285  from */\n      dup4\n        /* \".deps/npm/@openzeppelin/contracts/token/ERC721/ERC721.sol\":5287:5289  to */\n      dup4\n        /* \".deps/npm/@openzeppelin/contracts/token/ERC721/ERC721.sol\":5291:5298  tokenId */\n      dup4\n        /* \".deps/npm/@openzeppelin/contracts/token/ERC721/ERC721.sol\":5264:5303  safeTransferFrom(from, to, tokenId, \"\") */\n      mload(0x40)\n      dup1\n      0x20\n      add\n      0x40\n      mstore\n      dup1\n      0x00\n      dup2\n      mstore\n      pop\n        /* \".deps/npm/@openzeppelin/contracts/token/ERC721/ERC721.sol\":5264:5280  safeTransferFrom */\n      tag_74\n        /* \".deps/npm/@openzeppelin/contracts/token/ERC721/ERC721.sol\":5264:5303  safeTransferFrom(from, to, tokenId, \"\") */\n      jump\t// in\n    tag_135:\n        /* \".deps/npm/@openzeppelin/contracts/token/ERC721/ERC721.sol\":5161:5310  function safeTransferFrom(address from, address to, uint256 tokenId) public virtual override {... */\n      pop\n      pop\n      pop\n      jump\t// out\n        /* \".deps/npm/@openzeppelin/contracts/token/ERC721/ERC721.sol\":2377:2596  function ownerOf(uint256 tokenId) public view virtual override returns (address) {... */\n    tag_53:\n        /* \".deps/npm/@openzeppelin/contracts/token/ERC721/ERC721.sol\":2449:2456  address */\n      0x00\n        /* \".deps/npm/@openzeppelin/contracts/token/ERC721/ERC721.sol\":2468:2481  address owner */\n      dup1\n        /* \".deps/npm/@openzeppelin/contracts/token/ERC721/ERC721.sol\":2484:2501  _ownerOf(tokenId) */\n      tag_137\n        /* \".deps/npm/@openzeppelin/contracts/token/ERC721/ERC721.sol\":2493:2500  tokenId */\n      dup4\n        /* \".deps/npm/@openzeppelin/contracts/token/ERC721/ERC721.sol\":2484:2492  _ownerOf */\n      tag_138\n        /* \".deps/npm/@openzeppelin/contracts/token/ERC721/ERC721.sol\":2484:2501  _ownerOf(tokenId) */\n      jump\t// in\n    tag_137:\n        /* \".deps/npm/@openzeppelin/contracts/token/ERC721/ERC721.sol\":2468:2501  address owner = _ownerOf(tokenId) */\n      swap1\n      pop\n        /* \".deps/npm/@openzeppelin/contracts/token/ERC721/ERC721.sol\":2536:2537  0 */\n      0x00\n        /* \".deps/npm/@openzeppelin/contracts/token/ERC721/ERC721.sol\":2519:2538  owner != address(0) */\n      0xffffffffffffffffffffffffffffffffffffffff\n      and\n        /* \".deps/npm/@openzeppelin/contracts/token/ERC721/ERC721.sol\":2519:2524  owner */\n      dup2\n        /* \".deps/npm/@openzeppelin/contracts/token/ERC721/ERC721.sol\":2519:2538  owner != address(0) */\n      0xffffffffffffffffffffffffffffffffffffffff\n      and\n      sub\n        /* \".deps/npm/@openzeppelin/contracts/token/ERC721/ERC721.sol\":2511:2567  require(owner != address(0), \"ERC721: invalid token ID\") */\n      tag_139\n      jumpi\n      mload(0x40)\n      0x08c379a000000000000000000000000000000000000000000000000000000000\n      dup2\n      mstore\n      0x04\n      add\n      tag_140\n      swap1\n      tag_141\n      jump\t// in\n    tag_140:\n      mload(0x40)\n      dup1\n      swap2\n      sub\n      swap1\n      revert\n    tag_139:\n        /* \".deps/npm/@openzeppelin/contracts/token/ERC721/ERC721.sol\":2584:2589  owner */\n      dup1\n        /* \".deps/npm/@openzeppelin/contracts/token/ERC721/ERC721.sol\":2577:2589  return owner */\n      swap2\n      pop\n      pop\n        /* \".deps/npm/@openzeppelin/contracts/token/ERC721/ERC721.sol\":2377:2596  function ownerOf(uint256 tokenId) public view virtual override returns (address) {... */\n      swap2\n      swap1\n      pop\n      jump\t// out\n        /* \".deps/npm/@openzeppelin/contracts/token/ERC721/ERC721.sol\":2116:2320  function balanceOf(address owner) public view virtual override returns (uint256) {... */\n    tag_58:\n        /* \".deps/npm/@openzeppelin/contracts/token/ERC721/ERC721.sol\":2188:2195  uint256 */\n      0x00\n        /* \".deps/npm/@openzeppelin/contracts/token/ERC721/ERC721.sol\":2232:2233  0 */\n      dup1\n        /* \".deps/npm/@openzeppelin/contracts/token/ERC721/ERC721.sol\":2215:2234  owner != address(0) */\n      0xffffffffffffffffffffffffffffffffffffffff\n      and\n        /* \".deps/npm/@openzeppelin/contracts/token/ERC721/ERC721.sol\":2215:2220  owner */\n      dup3\n        /* \".deps/npm/@openzeppelin/contracts/token/ERC721/ERC721.sol\":2215:2234  owner != address(0) */\n      0xffffffffffffffffffffffffffffffffffffffff\n      and\n      sub\n        /* \".deps/npm/@openzeppelin/contracts/token/ERC721/ERC721.sol\":2207:2280  require(owner != address(0), \"ERC721: address zero is not a valid owner\") */\n      tag_143\n      jumpi\n      mload(0x40)\n      0x08c379a000000000000000000000000000000000000000000000000000000000\n      dup2\n      mstore\n      0x04\n      add\n      tag_144\n      swap1\n      tag_145\n      jump\t// in\n    tag_144:\n      mload(0x40)\n      dup1\n      swap2\n      sub\n      swap1\n      revert\n    tag_143:\n        /* \".deps/npm/@openzeppelin/contracts/token/ERC721/ERC721.sol\":2297:2306  _balances */\n      0x04\n        /* \".deps/npm/@openzeppelin/contracts/token/ERC721/ERC721.sol\":2297:2313  _balances[owner] */\n      0x00\n        /* \".deps/npm/@openzeppelin/contracts/token/ERC721/ERC721.sol\":2307:2312  owner */\n      dup4\n        /* \".deps/npm/@openzeppelin/contracts/token/ERC721/ERC721.sol\":2297:2313  _balances[owner] */\n      0xffffffffffffffffffffffffffffffffffffffff\n      and\n      0xffffffffffffffffffffffffffffffffffffffff\n      and\n      dup2\n      mstore\n      0x20\n      add\n      swap1\n      dup2\n      mstore\n      0x20\n      add\n      0x00\n      keccak256\n      sload\n        /* \".deps/npm/@openzeppelin/contracts/token/ERC721/ERC721.sol\":2290:2313  return _balances[owner] */\n      swap1\n      pop\n        /* \".deps/npm/@openzeppelin/contracts/token/ERC721/ERC721.sol\":2116:2320  function balanceOf(address owner) public view virtual override returns (uint256) {... */\n      swap2\n      swap1\n      pop\n      jump\t// out\n        /* \".deps/npm/@openzeppelin/contracts/token/ERC721/ERC721.sol\":2820:2922  function symbol() public view virtual override returns (string memory) {... */\n    tag_62:\n        /* \".deps/npm/@openzeppelin/contracts/token/ERC721/ERC721.sol\":2876:2889  string memory */\n      0x60\n        /* \".deps/npm/@openzeppelin/contracts/token/ERC721/ERC721.sol\":2908:2915  _symbol */\n      0x02\n        /* \".deps/npm/@openzeppelin/contracts/token/ERC721/ERC721.sol\":2901:2915  return _symbol */\n      dup1\n      sload\n      tag_147\n      swap1\n      tag_91\n      jump\t// in\n    tag_147:\n      dup1\n      0x1f\n      add\n      0x20\n      dup1\n      swap2\n      div\n      mul\n      0x20\n      add\n      mload(0x40)\n      swap1\n      dup2\n      add\n      0x40\n      mstore\n      dup1\n      swap3\n      swap2\n      swap1\n      dup2\n      dup2\n      mstore\n      0x20\n      add\n      dup3\n      dup1\n      sload\n      tag_148\n      swap1\n      tag_91\n      jump\t// in\n    tag_148:\n      dup1\n      iszero\n      tag_149\n      jumpi\n      dup1\n      0x1f\n      lt\n      tag_150\n      jumpi\n      0x0100\n      dup1\n      dup4\n      sload\n      div\n      mul\n      dup4\n      mstore\n      swap2\n      0x20\n      add\n      swap2\n      jump(tag_149)\n    tag_150:\n      dup3\n      add\n      swap2\n      swap1\n      0x00\n      mstore\n      keccak256(0x00, 0x20)\n      swap1\n    tag_151:\n      dup2\n      sload\n      dup2\n      mstore\n      swap1\n      0x01\n      add\n      swap1\n      0x20\n      add\n      dup1\n      dup4\n      gt\n      tag_151\n      jumpi\n      dup3\n      swap1\n      sub\n      0x1f\n      and\n      dup3\n      add\n      swap2\n    tag_149:\n      pop\n      pop\n      pop\n      pop\n      pop\n      swap1\n      pop\n        /* \".deps/npm/@openzeppelin/contracts/token/ERC721/ERC721.sol\":2820:2922  function symbol() public view virtual override returns (string memory) {... */\n      swap1\n      jump\t// out\n        /* \".deps/npm/@openzeppelin/contracts/token/ERC721/ERC721.sol\":4356:4509  function setApprovalForAll(address operator, bool approved) public virtual override {... */\n    tag_67:\n        /* \".deps/npm/@openzeppelin/contracts/token/ERC721/ERC721.sol\":4450:4502  _setApprovalForAll(_msgSender(), operator, approved) */\n      tag_153\n        /* \".deps/npm/@openzeppelin/contracts/token/ERC721/ERC721.sol\":4469:4481  _msgSender() */\n      tag_154\n        /* \".deps/npm/@openzeppelin/contracts/token/ERC721/ERC721.sol\":4469:4479  _msgSender */\n      tag_105\n        /* \".deps/npm/@openzeppelin/contracts/token/ERC721/ERC721.sol\":4469:4481  _msgSender() */\n      jump\t// in\n    tag_154:\n        /* \".deps/npm/@openzeppelin/contracts/token/ERC721/ERC721.sol\":4483:4491  operator */\n      dup4\n        /* \".deps/npm/@openzeppelin/contracts/token/ERC721/ERC721.sol\":4493:4501  approved */\n      dup4\n        /* \".deps/npm/@openzeppelin/contracts/token/ERC721/ERC721.sol\":4450:4468  _setApprovalForAll */\n      tag_155\n        /* \".deps/npm/@openzeppelin/contracts/token/ERC721/ERC721.sol\":4450:4502  _setApprovalForAll(_msgSender(), operator, approved) */\n      jump\t// in\n    tag_153:\n        /* \".deps/npm/@openzeppelin/contracts/token/ERC721/ERC721.sol\":4356:4509  function setApprovalForAll(address operator, bool approved) public virtual override {... */\n      pop\n      pop\n      jump\t// out\n        /* \".deps/npm/@openzeppelin/contracts/token/ERC721/ERC721.sol\":757:778  address public _owner */\n    tag_69:\n      0x00\n      dup1\n      sload\n      swap1\n      0x0100\n      exp\n      swap1\n      div\n      0xffffffffffffffffffffffffffffffffffffffff\n      and\n      dup2\n      jump\t// out\n        /* \".deps/npm/@openzeppelin/contracts/token/ERC721/ERC721.sol\":5376:5652  function safeTransferFrom(address from, address to, uint256 tokenId, bytes memory data) public virtual override {... */\n    tag_74:\n        /* \".deps/npm/@openzeppelin/contracts/token/ERC721/ERC721.sol\":5506:5547  _isApprovedOrOwner(_msgSender(), tokenId) */\n      tag_157\n        /* \".deps/npm/@openzeppelin/contracts/token/ERC721/ERC721.sol\":5525:5537  _msgSender() */\n      tag_158\n        /* \".deps/npm/@openzeppelin/contracts/token/ERC721/ERC721.sol\":5525:5535  _msgSender */\n      tag_105\n        /* \".deps/npm/@openzeppelin/contracts/token/ERC721/ERC721.sol\":5525:5537  _msgSender() */\n      jump\t// in\n    tag_158:\n        /* \".deps/npm/@openzeppelin/contracts/token/ERC721/ERC721.sol\":5539:5546  tokenId */\n      dup4\n        /* \".deps/npm/@openzeppelin/contracts/token/ERC721/ERC721.sol\":5506:5524  _isApprovedOrOwner */\n      tag_117\n        /* \".deps/npm/@openzeppelin/contracts/token/ERC721/ERC721.sol\":5506:5547  _isApprovedOrOwner(_msgSender(), tokenId) */\n      jump\t// in\n    tag_157:\n        /* \".deps/npm/@openzeppelin/contracts/token/ERC721/ERC721.sol\":5498:5597  require(_isApprovedOrOwner(_msgSender(), tokenId), \"ERC721: caller is not token owner or approved\") */\n      tag_159\n      jumpi\n      mload(0x40)\n      0x08c379a000000000000000000000000000000000000000000000000000000000\n      dup2\n      mstore\n      0x04\n      add\n      tag_160\n      swap1\n      tag_120\n      jump\t// in\n    tag_160:\n      mload(0x40)\n      dup1\n      swap2\n      sub\n      swap1\n      revert\n    tag_159:\n        /* \".deps/npm/@openzeppelin/contracts/token/ERC721/ERC721.sol\":5607:5645  _safeTransfer(from, to, tokenId, data) */\n      tag_161\n        /* \".deps/npm/@openzeppelin/contracts/token/ERC721/ERC721.sol\":5621:5625  from */\n      dup5\n        /* \".deps/npm/@openzeppelin/contracts/token/ERC721/ERC721.sol\":5627:5629  to */\n      dup5\n        /* \".deps/npm/@openzeppelin/contracts/token/ERC721/ERC721.sol\":5631:5638  tokenId */\n      dup5\n        /* \".deps/npm/@openzeppelin/contracts/token/ERC721/ERC721.sol\":5640:5644  data */\n      dup5\n        /* \".deps/npm/@openzeppelin/contracts/token/ERC721/ERC721.sol\":5607:5620  _safeTransfer */\n      tag_162\n        /* \".deps/npm/@openzeppelin/contracts/token/ERC721/ERC721.sol\":5607:5645  _safeTransfer(from, to, tokenId, data) */\n      jump\t// in\n    tag_161:\n        /* \".deps/npm/@openzeppelin/contracts/token/ERC721/ERC721.sol\":5376:5652  function safeTransferFrom(address from, address to, uint256 tokenId, bytes memory data) public virtual override {... */\n      pop\n      pop\n      pop\n      pop\n      jump\t// out\n        /* \".deps/npm/@openzeppelin/contracts/token/ERC721/ERC721.sol\":2988:3264  function tokenURI(uint256 tokenId) public view virtual override returns (string memory) {... */\n    tag_77:\n        /* \".deps/npm/@openzeppelin/contracts/token/ERC721/ERC721.sol\":3061:3074  string memory */\n      0x60\n        /* \".deps/npm/@openzeppelin/contracts/token/ERC721/ERC721.sol\":3086:3109  _requireMinted(tokenId) */\n      tag_164\n        /* \".deps/npm/@openzeppelin/contracts/token/ERC721/ERC721.sol\":3101:3108  tokenId */\n      dup3\n        /* \".deps/npm/@openzeppelin/contracts/token/ERC721/ERC721.sol\":3086:3100  _requireMinted */\n      tag_98\n        /* \".deps/npm/@openzeppelin/contracts/token/ERC721/ERC721.sol\":3086:3109  _requireMinted(tokenId) */\n      jump\t// in\n    tag_164:\n        /* \".deps/npm/@openzeppelin/contracts/token/ERC721/ERC721.sol\":3120:3141  string memory baseURI */\n      0x00\n        /* \".deps/npm/@openzeppelin/contracts/token/ERC721/ERC721.sol\":3144:3154  _baseURI() */\n      tag_165\n        /* \".deps/npm/@openzeppelin/contracts/token/ERC721/ERC721.sol\":3144:3152  _baseURI */\n      tag_166\n        /* \".deps/npm/@openzeppelin/contracts/token/ERC721/ERC721.sol\":3144:3154  _baseURI() */\n      jump\t// in\n    tag_165:\n        /* \".deps/npm/@openzeppelin/contracts/token/ERC721/ERC721.sol\":3120:3154  string memory baseURI = _baseURI() */\n      swap1\n      pop\n        /* \".deps/npm/@openzeppelin/contracts/token/ERC721/ERC721.sol\":3195:3196  0 */\n      0x00\n        /* \".deps/npm/@openzeppelin/contracts/token/ERC721/ERC721.sol\":3177:3184  baseURI */\n      dup2\n        /* \".deps/npm/@openzeppelin/contracts/token/ERC721/ERC721.sol\":3171:3192  bytes(baseURI).length */\n      mload\n        /* \".deps/npm/@openzeppelin/contracts/token/ERC721/ERC721.sol\":3171:3196  bytes(baseURI).length > 0 */\n      gt\n        /* \".deps/npm/@openzeppelin/contracts/token/ERC721/ERC721.sol\":3171:3257  bytes(baseURI).length > 0 ? string(abi.encodePacked(baseURI, tokenId.toString())) : \"\" */\n      tag_167\n      jumpi\n      mload(0x40)\n      dup1\n      0x20\n      add\n      0x40\n      mstore\n      dup1\n      0x00\n      dup2\n      mstore\n      pop\n      jump(tag_168)\n    tag_167:\n        /* \".deps/npm/@openzeppelin/contracts/token/ERC721/ERC721.sol\":3223:3230  baseURI */\n      dup1\n        /* \".deps/npm/@openzeppelin/contracts/token/ERC721/ERC721.sol\":3232:3250  tokenId.toString() */\n      tag_169\n        /* \".deps/npm/@openzeppelin/contracts/token/ERC721/ERC721.sol\":3232:3239  tokenId */\n      dup5\n        /* \".deps/npm/@openzeppelin/contracts/token/ERC721/ERC721.sol\":3232:3248  tokenId.toString */\n      tag_170\n        /* \".deps/npm/@openzeppelin/contracts/token/ERC721/ERC721.sol\":3232:3250  tokenId.toString() */\n      jump\t// in\n    tag_169:\n        /* \".deps/npm/@openzeppelin/contracts/token/ERC721/ERC721.sol\":3206:3251  abi.encodePacked(baseURI, tokenId.toString()) */\n      add(0x20, mload(0x40))\n      tag_171\n      swap3\n      swap2\n      swap1\n      tag_172\n      jump\t// in\n    tag_171:\n      mload(0x40)\n      0x20\n      dup2\n      dup4\n      sub\n      sub\n      dup2\n      mstore\n      swap1\n      0x40\n      mstore\n        /* \".deps/npm/@openzeppelin/contracts/token/ERC721/ERC721.sol\":3171:3257  bytes(baseURI).length > 0 ? string(abi.encodePacked(baseURI, tokenId.toString())) : \"\" */\n    tag_168:\n        /* \".deps/npm/@openzeppelin/contracts/token/ERC721/ERC721.sol\":3164:3257  return bytes(baseURI).length > 0 ? string(abi.encodePacked(baseURI, tokenId.toString())) : \"\" */\n      swap2\n      pop\n      pop\n        /* \".deps/npm/@openzeppelin/contracts/token/ERC721/ERC721.sol\":2988:3264  function tokenURI(uint256 tokenId) public view virtual override returns (string memory) {... */\n      swap2\n      swap1\n      pop\n      jump\t// out\n        /* \".deps/npm/@openzeppelin/contracts/token/ERC721/ERC721.sol\":4575:4737  function isApprovedForAll(address owner, address operator) public view virtual override returns (bool) {... */\n    tag_82:\n        /* \".deps/npm/@openzeppelin/contracts/token/ERC721/ERC721.sol\":4672:4676  bool */\n      0x00\n        /* \".deps/npm/@openzeppelin/contracts/token/ERC721/ERC721.sol\":4695:4713  _operatorApprovals */\n      0x06\n        /* \".deps/npm/@openzeppelin/contracts/token/ERC721/ERC721.sol\":4695:4720  _operatorApprovals[owner] */\n      0x00\n        /* \".deps/npm/@openzeppelin/contracts/token/ERC721/ERC721.sol\":4714:4719  owner */\n      dup5\n        /* \".deps/npm/@openzeppelin/contracts/token/ERC721/ERC721.sol\":4695:4720  _operatorApprovals[owner] */\n      0xffffffffffffffffffffffffffffffffffffffff\n      and\n      0xffffffffffffffffffffffffffffffffffffffff\n      and\n      dup2\n      mstore\n      0x20\n      add\n      swap1\n      dup2\n      mstore\n      0x20\n      add\n      0x00\n      keccak256\n        /* \".deps/npm/@openzeppelin/contracts/token/ERC721/ERC721.sol\":4695:4730  _operatorApprovals[owner][operator] */\n      0x00\n        /* \".deps/npm/@openzeppelin/contracts/token/ERC721/ERC721.sol\":4721:4729  operator */\n      dup4\n        /* \".deps/npm/@openzeppelin/contracts/token/ERC721/ERC721.sol\":4695:4730  _operatorApprovals[owner][operator] */\n      0xffffffffffffffffffffffffffffffffffffffff\n      and\n      0xffffffffffffffffffffffffffffffffffffffff\n      and\n      dup2\n      mstore\n      0x20\n      add\n      swap1\n      dup2\n      mstore\n      0x20\n      add\n      0x00\n      keccak256\n      0x00\n      swap1\n      sload\n      swap1\n      0x0100\n      exp\n      swap1\n      div\n      0xff\n      and\n        /* \".deps/npm/@openzeppelin/contracts/token/ERC721/ERC721.sol\":4688:4730  return _operatorApprovals[owner][operator] */\n      swap1\n      pop\n        /* \".deps/npm/@openzeppelin/contracts/token/ERC721/ERC721.sol\":4575:4737  function isApprovedForAll(address owner, address operator) public view virtual override returns (bool) {... */\n      swap3\n      swap2\n      pop\n      pop\n      jump\t// out\n        /* \".deps/npm/@openzeppelin/contracts/utils/introspection/ERC165.sol\":829:984  function supportsInterface(bytes4 interfaceId) public view virtual override returns (bool) {... */\n    tag_88:\n        /* \".deps/npm/@openzeppelin/contracts/utils/introspection/ERC165.sol\":914:918  bool */\n      0x00\n        /* \".deps/npm/@openzeppelin/contracts/utils/introspection/ERC165.sol\":952:977  type(IERC165).interfaceId */\n      0x01ffc9a700000000000000000000000000000000000000000000000000000000\n        /* \".deps/npm/@openzeppelin/contracts/utils/introspection/ERC165.sol\":937:977  interfaceId == type(IERC165).interfaceId */\n      not(0xffffffffffffffffffffffffffffffffffffffffffffffffffffffff)\n      and\n        /* \".deps/npm/@openzeppelin/contracts/utils/introspection/ERC165.sol\":937:948  interfaceId */\n      dup3\n        /* \".deps/npm/@openzeppelin/contracts/utils/introspection/ERC165.sol\":937:977  interfaceId == type(IERC165).interfaceId */\n      not(0xffffffffffffffffffffffffffffffffffffffffffffffffffffffff)\n      and\n      eq\n        /* \".deps/npm/@openzeppelin/contracts/utils/introspection/ERC165.sol\":930:977  return interfaceId == type(IERC165).interfaceId */\n      swap1\n      pop\n        /* \".deps/npm/@openzeppelin/contracts/utils/introspection/ERC165.sol\":829:984  function supportsInterface(bytes4 interfaceId) public view virtual override returns (bool) {... */\n      swap2\n      swap1\n      pop\n      jump\t// out\n        /* \".deps/npm/@openzeppelin/contracts/token/ERC721/ERC721.sol\":13420:13553  function _requireMinted(uint256 tokenId) internal view virtual {... */\n    tag_98:\n        /* \".deps/npm/@openzeppelin/contracts/token/ERC721/ERC721.sol\":13501:13517  _exists(tokenId) */\n      tag_176\n        /* \".deps/npm/@openzeppelin/contracts/token/ERC721/ERC721.sol\":13509:13516  tokenId */\n      dup2\n        /* \".deps/npm/@openzeppelin/contracts/token/ERC721/ERC721.sol\":13501:13508  _exists */\n      tag_177\n        /* \".deps/npm/@openzeppelin/contracts/token/ERC721/ERC721.sol\":13501:13517  _exists(tokenId) */\n      jump\t// in\n    tag_176:\n        /* \".deps/npm/@openzeppelin/contracts/token/ERC721/ERC721.sol\":13493:13546  require(_exists(tokenId), \"ERC721: invalid token ID\") */\n      tag_178\n      jumpi\n      mload(0x40)\n      0x08c379a000000000000000000000000000000000000000000000000000000000\n      dup2\n      mstore\n      0x04\n      add\n      tag_179\n      swap1\n      tag_141\n      jump\t// in\n    tag_179:\n      mload(0x40)\n      dup1\n      swap2\n      sub\n      swap1\n      revert\n    tag_178:\n        /* \".deps/npm/@openzeppelin/contracts/token/ERC721/ERC721.sol\":13420:13553  function _requireMinted(uint256 tokenId) internal view virtual {... */\n      pop\n      jump\t// out\n        /* \".deps/npm/@openzeppelin/contracts/utils/Context.sol\":640:736  function _msgSender() internal view virtual returns (address) {... */\n    tag_105:\n        /* \".deps/npm/@openzeppelin/contracts/utils/Context.sol\":693:700  address */\n      0x00\n        /* \".deps/npm/@openzeppelin/contracts/utils/Context.sol\":719:729  msg.sender */\n      caller\n        /* \".deps/npm/@openzeppelin/contracts/utils/Context.sol\":712:729  return msg.sender */\n      swap1\n      pop\n        /* \".deps/npm/@openzeppelin/contracts/utils/Context.sol\":640:736  function _msgSender() internal view virtual returns (address) {... */\n      swap1\n      jump\t// out\n        /* \".deps/npm/@openzeppelin/contracts/token/ERC721/ERC721.sol\":12752:12923  function _approve(address to, uint256 tokenId) internal virtual {... */\n    tag_113:\n        /* \".deps/npm/@openzeppelin/contracts/token/ERC721/ERC721.sol\":12853:12855  to */\n      dup2\n        /* \".deps/npm/@openzeppelin/contracts/token/ERC721/ERC721.sol\":12826:12841  _tokenApprovals */\n      0x05\n        /* \".deps/npm/@openzeppelin/contracts/token/ERC721/ERC721.sol\":12826:12850  _tokenApprovals[tokenId] */\n      0x00\n        /* \".deps/npm/@openzeppelin/contracts/token/ERC721/ERC721.sol\":12842:12849  tokenId */\n      dup4\n        /* \".deps/npm/@openzeppelin/contracts/token/ERC721/ERC721.sol\":12826:12850  _tokenApprovals[tokenId] */\n      dup2\n      mstore\n      0x20\n      add\n      swap1\n      dup2\n      mstore\n      0x20\n      add\n      0x00\n      keccak256\n      0x00\n        /* \".deps/npm/@openzeppelin/contracts/token/ERC721/ERC721.sol\":12826:12855  _tokenApprovals[tokenId] = to */\n      0x0100\n      exp\n      dup2\n      sload\n      dup2\n      0xffffffffffffffffffffffffffffffffffffffff\n      mul\n      not\n      and\n      swap1\n      dup4\n      0xffffffffffffffffffffffffffffffffffffffff\n      and\n      mul\n      or\n      swap1\n      sstore\n      pop\n        /* \".deps/npm/@openzeppelin/contracts/token/ERC721/ERC721.sol\":12908:12915  tokenId */\n      dup1\n        /* \".deps/npm/@openzeppelin/contracts/token/ERC721/ERC721.sol\":12904:12906  to */\n      dup3\n        /* \".deps/npm/@openzeppelin/contracts/token/ERC721/ERC721.sol\":12870:12916  Approval(ERC721.ownerOf(tokenId), to, tokenId) */\n      0xffffffffffffffffffffffffffffffffffffffff\n      and\n        /* \".deps/npm/@openzeppelin/contracts/token/ERC721/ERC721.sol\":12879:12902  ERC721.ownerOf(tokenId) */\n      tag_182\n        /* \".deps/npm/@openzeppelin/contracts/token/ERC721/ERC721.sol\":12894:12901  tokenId */\n      dup4\n        /* \".deps/npm/@openzeppelin/contracts/token/ERC721/ERC721.sol\":12879:12893  ERC721.ownerOf */\n      tag_53\n        /* \".deps/npm/@openzeppelin/contracts/token/ERC721/ERC721.sol\":12879:12902  ERC721.ownerOf(tokenId) */\n      jump\t// in\n    tag_182:\n        /* \".deps/npm/@openzeppelin/contracts/token/ERC721/ERC721.sol\":12870:12916  Approval(ERC721.ownerOf(tokenId), to, tokenId) */\n      0xffffffffffffffffffffffffffffffffffffffff\n      and\n      0x8c5be1e5ebec7d5bd14f71427d1e84f3dd0314c0f7b2291e5b200ac8c7c3b925\n      mload(0x40)\n      mload(0x40)\n      dup1\n      swap2\n      sub\n      swap1\n      log4\n        /* \".deps/npm/@openzeppelin/contracts/token/ERC721/ERC721.sol\":12752:12923  function _approve(address to, uint256 tokenId) internal virtual {... */\n      pop\n      pop\n      jump\t// out\n        /* \".deps/npm/@openzeppelin/contracts/token/ERC721/ERC721.sol\":7591:7852  function _isApprovedOrOwner(address spender, uint256 tokenId) internal view virtual returns (bool) {... */\n    tag_117:\n        /* \".deps/npm/@openzeppelin/contracts/token/ERC721/ERC721.sol\":7684:7688  bool */\n      0x00\n        /* \".deps/npm/@openzeppelin/contracts/token/ERC721/ERC721.sol\":7700:7713  address owner */\n      dup1\n        /* \".deps/npm/@openzeppelin/contracts/token/ERC721/ERC721.sol\":7716:7739  ERC721.ownerOf(tokenId) */\n      tag_184\n        /* \".deps/npm/@openzeppelin/contracts/token/ERC721/ERC721.sol\":7731:7738  tokenId */\n      dup4\n        /* \".deps/npm/@openzeppelin/contracts/token/ERC721/ERC721.sol\":7716:7730  ERC721.ownerOf */\n      tag_53\n        /* \".deps/npm/@openzeppelin/contracts/token/ERC721/ERC721.sol\":7716:7739  ERC721.ownerOf(tokenId) */\n      jump\t// in\n    tag_184:\n        /* \".deps/npm/@openzeppelin/contracts/token/ERC721/ERC721.sol\":7700:7739  address owner = ERC721.ownerOf(tokenId) */\n      swap1\n      pop\n        /* \".deps/npm/@openzeppelin/contracts/token/ERC721/ERC721.sol\":7768:7773  owner */\n      dup1\n        /* \".deps/npm/@openzeppelin/contracts/token/ERC721/ERC721.sol\":7757:7773  spender == owner */\n      0xffffffffffffffffffffffffffffffffffffffff\n      and\n        /* \".deps/npm/@openzeppelin/contracts/token/ERC721/ERC721.sol\":7757:7764  spender */\n      dup5\n        /* \".deps/npm/@openzeppelin/contracts/token/ERC721/ERC721.sol\":7757:7773  spender == owner */\n      0xffffffffffffffffffffffffffffffffffffffff\n      and\n      eq\n        /* \".deps/npm/@openzeppelin/contracts/token/ERC721/ERC721.sol\":7757:7809  spender == owner || isApprovedForAll(owner, spender) */\n      dup1\n      tag_185\n      jumpi\n      pop\n        /* \".deps/npm/@openzeppelin/contracts/token/ERC721/ERC721.sol\":7777:7809  isApprovedForAll(owner, spender) */\n      tag_186\n        /* \".deps/npm/@openzeppelin/contracts/token/ERC721/ERC721.sol\":7794:7799  owner */\n      dup2\n        /* \".deps/npm/@openzeppelin/contracts/token/ERC721/ERC721.sol\":7801:7808  spender */\n      dup6\n        /* \".deps/npm/@openzeppelin/contracts/token/ERC721/ERC721.sol\":7777:7793  isApprovedForAll */\n      tag_82\n        /* \".deps/npm/@openzeppelin/contracts/token/ERC721/ERC721.sol\":7777:7809  isApprovedForAll(owner, spender) */\n      jump\t// in\n    tag_186:\n        /* \".deps/npm/@openzeppelin/contracts/token/ERC721/ERC721.sol\":7757:7809  spender == owner || isApprovedForAll(owner, spender) */\n    tag_185:\n        /* \".deps/npm/@openzeppelin/contracts/token/ERC721/ERC721.sol\":7757:7844  spender == owner || isApprovedForAll(owner, spender) || getApproved(tokenId) == spender */\n      dup1\n      tag_187\n      jumpi\n      pop\n        /* \".deps/npm/@openzeppelin/contracts/token/ERC721/ERC721.sol\":7837:7844  spender */\n      dup4\n        /* \".deps/npm/@openzeppelin/contracts/token/ERC721/ERC721.sol\":7813:7844  getApproved(tokenId) == spender */\n      0xffffffffffffffffffffffffffffffffffffffff\n      and\n        /* \".deps/npm/@openzeppelin/contracts/token/ERC721/ERC721.sol\":7813:7833  getApproved(tokenId) */\n      tag_188\n        /* \".deps/npm/@openzeppelin/contracts/token/ERC721/ERC721.sol\":7825:7832  tokenId */\n      dup5\n        /* \".deps/npm/@openzeppelin/contracts/token/ERC721/ERC721.sol\":7813:7824  getApproved */\n      tag_34\n        /* \".deps/npm/@openzeppelin/contracts/token/ERC721/ERC721.sol\":7813:7833  getApproved(tokenId) */\n      jump\t// in\n    tag_188:\n        /* \".deps/npm/@openzeppelin/contracts/token/ERC721/ERC721.sol\":7813:7844  getApproved(tokenId) == spender */\n      0xffffffffffffffffffffffffffffffffffffffff\n      and\n      eq\n        /* \".deps/npm/@openzeppelin/contracts/token/ERC721/ERC721.sol\":7757:7844  spender == owner || isApprovedForAll(owner, spender) || getApproved(tokenId) == spender */\n    tag_187:\n        /* \".deps/npm/@openzeppelin/contracts/token/ERC721/ERC721.sol\":7749:7845  return (spender == owner || isApprovedForAll(owner, spender) || getApproved(tokenId) == spender) */\n      swap2\n      pop\n      pop\n        /* \".deps/npm/@openzeppelin/contracts/token/ERC721/ERC721.sol\":7591:7852  function _isApprovedOrOwner(address spender, uint256 tokenId) internal view virtual returns (bool) {... */\n      swap3\n      swap2\n      pop\n      pop\n      jump\t// out\n        /* \".deps/npm/@openzeppelin/contracts/token/ERC721/ERC721.sol\":15652:15768  function _beforeTokenTransfer(address from, address to, uint256 firstTokenId, uint256 batchSize) internal virtual {} */\n    tag_128:\n      pop\n      pop\n      pop\n      pop\n      jump\t// out\n        /* \".deps/npm/@openzeppelin/contracts/token/ERC721/ERC721.sol\":16474:16589  function _afterTokenTransfer(address from, address to, uint256 firstTokenId, uint256 batchSize) internal virtual {} */\n    tag_133:\n      pop\n      pop\n      pop\n      pop\n      jump\t// out\n        /* \".deps/npm/@openzeppelin/contracts/token/ERC721/ERC721.sol\":6889:7004  function _ownerOf(uint256 tokenId) internal view virtual returns (address) {... */\n    tag_138:\n        /* \".deps/npm/@openzeppelin/contracts/token/ERC721/ERC721.sol\":6955:6962  address */\n      0x00\n        /* \".deps/npm/@openzeppelin/contracts/token/ERC721/ERC721.sol\":6981:6988  _owners */\n      0x03\n        /* \".deps/npm/@openzeppelin/contracts/token/ERC721/ERC721.sol\":6981:6997  _owners[tokenId] */\n      0x00\n        /* \".deps/npm/@openzeppelin/contracts/token/ERC721/ERC721.sol\":6989:6996  tokenId */\n      dup4\n        /* \".deps/npm/@openzeppelin/contracts/token/ERC721/ERC721.sol\":6981:6997  _owners[tokenId] */\n      dup2\n      mstore\n      0x20\n      add\n      swap1\n      dup2\n      mstore\n      0x20\n      add\n      0x00\n      keccak256\n      0x00\n      swap1\n      sload\n      swap1\n      0x0100\n      exp\n      swap1\n      div\n      0xffffffffffffffffffffffffffffffffffffffff\n      and\n        /* \".deps/npm/@openzeppelin/contracts/token/ERC721/ERC721.sol\":6974:6997  return _owners[tokenId] */\n      swap1\n      pop\n        /* \".deps/npm/@openzeppelin/contracts/token/ERC721/ERC721.sol\":6889:7004  function _ownerOf(uint256 tokenId) internal view virtual returns (address) {... */\n      swap2\n      swap1\n      pop\n      jump\t// out\n        /* \".deps/npm/@openzeppelin/contracts/token/ERC721/ERC721.sol\":13059:13336  function _setApprovalForAll(address owner, address operator, bool approved) internal virtual {... */\n    tag_155:\n        /* \".deps/npm/@openzeppelin/contracts/token/ERC721/ERC721.sol\":13179:13187  operator */\n      dup2\n        /* \".deps/npm/@openzeppelin/contracts/token/ERC721/ERC721.sol\":13170:13187  owner != operator */\n      0xffffffffffffffffffffffffffffffffffffffff\n      and\n        /* \".deps/npm/@openzeppelin/contracts/token/ERC721/ERC721.sol\":13170:13175  owner */\n      dup4\n        /* \".deps/npm/@openzeppelin/contracts/token/ERC721/ERC721.sol\":13170:13187  owner != operator */\n      0xffffffffffffffffffffffffffffffffffffffff\n      and\n      sub\n        /* \".deps/npm/@openzeppelin/contracts/token/ERC721/ERC721.sol\":13162:13217  require(owner != operator, \"ERC721: approve to caller\") */\n      tag_193\n      jumpi\n      mload(0x40)\n      0x08c379a000000000000000000000000000000000000000000000000000000000\n      dup2\n      mstore\n      0x04\n      add\n      tag_194\n      swap1\n      tag_195\n      jump\t// in\n    tag_194:\n      mload(0x40)\n      dup1\n      swap2\n      sub\n      swap1\n      revert\n    tag_193:\n        /* \".deps/npm/@openzeppelin/contracts/token/ERC721/ERC721.sol\":13265:13273  approved */\n      dup1\n        /* \".deps/npm/@openzeppelin/contracts/token/ERC721/ERC721.sol\":13227:13245  _operatorApprovals */\n      0x06\n        /* \".deps/npm/@openzeppelin/contracts/token/ERC721/ERC721.sol\":13227:13252  _operatorApprovals[owner] */\n      0x00\n        /* \".deps/npm/@openzeppelin/contracts/token/ERC721/ERC721.sol\":13246:13251  owner */\n      dup6\n        /* \".deps/npm/@openzeppelin/contracts/token/ERC721/ERC721.sol\":13227:13252  _operatorApprovals[owner] */\n      0xffffffffffffffffffffffffffffffffffffffff\n      and\n      0xffffffffffffffffffffffffffffffffffffffff\n      and\n      dup2\n      mstore\n      0x20\n      add\n      swap1\n      dup2\n      mstore\n      0x20\n      add\n      0x00\n      keccak256\n        /* \".deps/npm/@openzeppelin/contracts/token/ERC721/ERC721.sol\":13227:13262  _operatorApprovals[owner][operator] */\n      0x00\n        /* \".deps/npm/@openzeppelin/contracts/token/ERC721/ERC721.sol\":13253:13261  operator */\n      dup5\n        /* \".deps/npm/@openzeppelin/contracts/token/ERC721/ERC721.sol\":13227:13262  _operatorApprovals[owner][operator] */\n      0xffffffffffffffffffffffffffffffffffffffff\n      and\n      0xffffffffffffffffffffffffffffffffffffffff\n      and\n      dup2\n      mstore\n      0x20\n      add\n      swap1\n      dup2\n      mstore\n      0x20\n      add\n      0x00\n      keccak256\n      0x00\n        /* \".deps/npm/@openzeppelin/contracts/token/ERC721/ERC721.sol\":13227:13273  _operatorApprovals[owner][operator] = approved */\n      0x0100\n      exp\n      dup2\n      sload\n      dup2\n      0xff\n      mul\n      not\n      and\n      swap1\n      dup4\n      iszero\n      iszero\n      mul\n      or\n      swap1\n      sstore\n      pop\n        /* \".deps/npm/@openzeppelin/contracts/token/ERC721/ERC721.sol\":13310:13318  operator */\n      dup2\n        /* \".deps/npm/@openzeppelin/contracts/token/ERC721/ERC721.sol\":13288:13329  ApprovalForAll(owner, operator, approved) */\n      0xffffffffffffffffffffffffffffffffffffffff\n      and\n        /* \".deps/npm/@openzeppelin/contracts/token/ERC721/ERC721.sol\":13303:13308  owner */\n      dup4\n        /* \".deps/npm/@openzeppelin/contracts/token/ERC721/ERC721.sol\":13288:13329  ApprovalForAll(owner, operator, approved) */\n      0xffffffffffffffffffffffffffffffffffffffff\n      and\n      0x17307eab39ab6107e8899845ad3d59bd9653f200f220920489ca2b5937696c31\n        /* \".deps/npm/@openzeppelin/contracts/token/ERC721/ERC721.sol\":13320:13328  approved */\n      dup4\n        /* \".deps/npm/@openzeppelin/contracts/token/ERC721/ERC721.sol\":13288:13329  ApprovalForAll(owner, operator, approved) */\n      mload(0x40)\n      tag_196\n      swap2\n      swap1\n      tag_26\n      jump\t// in\n    tag_196:\n      mload(0x40)\n      dup1\n      swap2\n      sub\n      swap1\n      log3\n        /* \".deps/npm/@openzeppelin/contracts/token/ERC721/ERC721.sol\":13059:13336  function _setApprovalForAll(address owner, address operator, bool approved) internal virtual {... */\n      pop\n      pop\n      pop\n      jump\t// out\n        /* \".deps/npm/@openzeppelin/contracts/token/ERC721/ERC721.sol\":6513:6780  function _safeTransfer(address from, address to, uint256 tokenId, bytes memory data) internal virtual {... */\n    tag_162:\n        /* \".deps/npm/@openzeppelin/contracts/token/ERC721/ERC721.sol\":6625:6653  _transfer(from, to, tokenId) */\n      tag_198\n        /* \".deps/npm/@openzeppelin/contracts/token/ERC721/ERC721.sol\":6635:6639  from */\n      dup5\n        /* \".deps/npm/@openzeppelin/contracts/token/ERC721/ERC721.sol\":6641:6643  to */\n      dup5\n        /* \".deps/npm/@openzeppelin/contracts/token/ERC721/ERC721.sol\":6645:6652  tokenId */\n      dup5\n        /* \".deps/npm/@openzeppelin/contracts/token/ERC721/ERC721.sol\":6625:6634  _transfer */\n      tag_47\n        /* \".deps/npm/@openzeppelin/contracts/token/ERC721/ERC721.sol\":6625:6653  _transfer(from, to, tokenId) */\n      jump\t// in\n    tag_198:\n        /* \".deps/npm/@openzeppelin/contracts/token/ERC721/ERC721.sol\":6671:6718  _checkOnERC721Received(from, to, tokenId, data) */\n      tag_199\n        /* \".deps/npm/@openzeppelin/contracts/token/ERC721/ERC721.sol\":6694:6698  from */\n      dup5\n        /* \".deps/npm/@openzeppelin/contracts/token/ERC721/ERC721.sol\":6700:6702  to */\n      dup5\n        /* \".deps/npm/@openzeppelin/contracts/token/ERC721/ERC721.sol\":6704:6711  tokenId */\n      dup5\n        /* \".deps/npm/@openzeppelin/contracts/token/ERC721/ERC721.sol\":6713:6717  data */\n      dup5\n        /* \".deps/npm/@openzeppelin/contracts/token/ERC721/ERC721.sol\":6671:6693  _checkOnERC721Received */\n      tag_200\n        /* \".deps/npm/@openzeppelin/contracts/token/ERC721/ERC721.sol\":6671:6718  _checkOnERC721Received(from, to, tokenId, data) */\n      jump\t// in\n    tag_199:\n        /* \".deps/npm/@openzeppelin/contracts/token/ERC721/ERC721.sol\":6663:6773  require(_checkOnERC721Received(from, to, tokenId, data), \"ERC721: transfer to non ERC721Receiver implementer\") */\n      tag_201\n      jumpi\n      mload(0x40)\n      0x08c379a000000000000000000000000000000000000000000000000000000000\n      dup2\n      mstore\n      0x04\n      add\n      tag_202\n      swap1\n      tag_203\n      jump\t// in\n    tag_202:\n      mload(0x40)\n      dup1\n      swap2\n      sub\n      swap1\n      revert\n    tag_201:\n        /* \".deps/npm/@openzeppelin/contracts/token/ERC721/ERC721.sol\":6513:6780  function _safeTransfer(address from, address to, uint256 tokenId, bytes memory data) internal virtual {... */\n      pop\n      pop\n      pop\n      pop\n      jump\t// out\n        /* \".deps/npm/@openzeppelin/contracts/token/ERC721/ERC721.sol\":3506:3598  function _baseURI() internal view virtual returns (string memory) {... */\n    tag_166:\n        /* \".deps/npm/@openzeppelin/contracts/token/ERC721/ERC721.sol\":3557:3570  string memory */\n      0x60\n        /* \".deps/npm/@openzeppelin/contracts/token/ERC721/ERC721.sol\":3582:3591  return \"\" */\n      mload(0x40)\n      dup1\n      0x20\n      add\n      0x40\n      mstore\n      dup1\n      0x00\n      dup2\n      mstore\n      pop\n      swap1\n      pop\n        /* \".deps/npm/@openzeppelin/contracts/token/ERC721/ERC721.sol\":3506:3598  function _baseURI() internal view virtual returns (string memory) {... */\n      swap1\n      jump\t// out\n        /* \".deps/npm/@openzeppelin/contracts/utils/Strings.sol\":447:1143  function toString(uint256 value) internal pure returns (string memory) {... */\n    tag_170:\n        /* \".deps/npm/@openzeppelin/contracts/utils/Strings.sol\":503:516  string memory */\n      0x60\n        /* \".deps/npm/@openzeppelin/contracts/utils/Strings.sol\":552:566  uint256 length */\n      0x00\n        /* \".deps/npm/@openzeppelin/contracts/utils/Strings.sol\":589:590  1 */\n      0x01\n        /* \".deps/npm/@openzeppelin/contracts/utils/Strings.sol\":569:586  Math.log10(value) */\n      tag_206\n        /* \".deps/npm/@openzeppelin/contracts/utils/Strings.sol\":580:585  value */\n      dup5\n        /* \".deps/npm/@openzeppelin/contracts/utils/Strings.sol\":569:579  Math.log10 */\n      tag_207\n        /* \".deps/npm/@openzeppelin/contracts/utils/Strings.sol\":569:586  Math.log10(value) */\n      jump\t// in\n    tag_206:\n        /* \".deps/npm/@openzeppelin/contracts/utils/Strings.sol\":569:590  Math.log10(value) + 1 */\n      add\n        /* \".deps/npm/@openzeppelin/contracts/utils/Strings.sol\":552:590  uint256 length = Math.log10(value) + 1 */\n      swap1\n      pop\n        /* \".deps/npm/@openzeppelin/contracts/utils/Strings.sol\":604:624  string memory buffer */\n      0x00\n        /* \".deps/npm/@openzeppelin/contracts/utils/Strings.sol\":638:644  length */\n      dup2\n        /* \".deps/npm/@openzeppelin/contracts/utils/Strings.sol\":627:645  new string(length) */\n      0xffffffffffffffff\n      dup2\n      gt\n      iszero\n      tag_208\n      jumpi\n      tag_209\n      tag_210\n      jump\t// in\n    tag_209:\n    tag_208:\n      mload(0x40)\n      swap1\n      dup1\n      dup3\n      mstore\n      dup1\n      0x1f\n      add\n      not(0x1f)\n      and\n      0x20\n      add\n      dup3\n      add\n      0x40\n      mstore\n      dup1\n      iszero\n      tag_211\n      jumpi\n      dup2\n      0x20\n      add\n      0x01\n      dup3\n      mul\n      dup1\n      calldatasize\n      dup4\n      calldatacopy\n      dup1\n      dup3\n      add\n      swap2\n      pop\n      pop\n      swap1\n      pop\n    tag_211:\n      pop\n        /* \".deps/npm/@openzeppelin/contracts/utils/Strings.sol\":604:645  string memory buffer = new string(length) */\n      swap1\n      pop\n        /* \".deps/npm/@openzeppelin/contracts/utils/Strings.sol\":659:670  uint256 ptr */\n      0x00\n        /* \".deps/npm/@openzeppelin/contracts/utils/Strings.sol\":785:791  length */\n      dup3\n        /* \".deps/npm/@openzeppelin/contracts/utils/Strings.sol\":781:783  32 */\n      0x20\n        /* \".deps/npm/@openzeppelin/contracts/utils/Strings.sol\":777:792  add(32, length) */\n      add\n        /* \".deps/npm/@openzeppelin/contracts/utils/Strings.sol\":769:775  buffer */\n      dup3\n        /* \".deps/npm/@openzeppelin/contracts/utils/Strings.sol\":765:793  add(buffer, add(32, length)) */\n      add\n        /* \".deps/npm/@openzeppelin/contracts/utils/Strings.sol\":758:793  ptr := add(buffer, add(32, length)) */\n      swap1\n      pop\n        /* \".deps/npm/@openzeppelin/contracts/utils/Strings.sol\":820:1100  while (true) {... */\n    tag_212:\n        /* \".deps/npm/@openzeppelin/contracts/utils/Strings.sol\":827:831  true */\n      0x01\n        /* \".deps/npm/@openzeppelin/contracts/utils/Strings.sol\":820:1100  while (true) {... */\n      iszero\n      tag_213\n      jumpi\n        /* \".deps/npm/@openzeppelin/contracts/utils/Strings.sol\":851:856  ptr-- */\n      dup1\n      dup1\n      0x01\n      swap1\n      sub\n      swap2\n      pop\n      pop\n        /* \".deps/npm/@openzeppelin/contracts/utils/Strings.sol\":990:998  _SYMBOLS */\n      0x3031323334353637383961626364656600000000000000000000000000000000\n        /* \".deps/npm/@openzeppelin/contracts/utils/Strings.sol\":985:987  10 */\n      0x0a\n        /* \".deps/npm/@openzeppelin/contracts/utils/Strings.sol\":978:983  value */\n      dup7\n        /* \".deps/npm/@openzeppelin/contracts/utils/Strings.sol\":974:988  mod(value, 10) */\n      mod\n        /* \".deps/npm/@openzeppelin/contracts/utils/Strings.sol\":969:999  byte(mod(value, 10), _SYMBOLS) */\n      byte\n        /* \".deps/npm/@openzeppelin/contracts/utils/Strings.sol\":964:967  ptr */\n      dup2\n        /* \".deps/npm/@openzeppelin/contracts/utils/Strings.sol\":956:1000  mstore8(ptr, byte(mod(value, 10), _SYMBOLS)) */\n      mstore8\n        /* \".deps/npm/@openzeppelin/contracts/utils/Strings.sol\":1044:1046  10 */\n      0x0a\n        /* \".deps/npm/@openzeppelin/contracts/utils/Strings.sol\":1035:1046  value /= 10 */\n      dup6\n      dup2\n      tag_214\n      jumpi\n      tag_215\n      tag_216\n      jump\t// in\n    tag_215:\n    tag_214:\n      div\n      swap5\n      pop\n        /* \".deps/npm/@openzeppelin/contracts/utils/Strings.sol\":1077:1078  0 */\n      0x00\n        /* \".deps/npm/@openzeppelin/contracts/utils/Strings.sol\":1068:1073  value */\n      dup6\n        /* \".deps/npm/@openzeppelin/contracts/utils/Strings.sol\":1068:1078  value == 0 */\n      sub\n        /* \".deps/npm/@openzeppelin/contracts/utils/Strings.sol\":820:1100  while (true) {... */\n      tag_212\n        /* \".deps/npm/@openzeppelin/contracts/utils/Strings.sol\":1064:1085  if (value == 0) break */\n      jumpi\n        /* \".deps/npm/@openzeppelin/contracts/utils/Strings.sol\":820:1100  while (true) {... */\n    tag_213:\n        /* \".deps/npm/@openzeppelin/contracts/utils/Strings.sol\":1120:1126  buffer */\n      dup2\n        /* \".deps/npm/@openzeppelin/contracts/utils/Strings.sol\":1113:1126  return buffer */\n      swap4\n      pop\n      pop\n      pop\n      pop\n        /* \".deps/npm/@openzeppelin/contracts/utils/Strings.sol\":447:1143  function toString(uint256 value) internal pure returns (string memory) {... */\n      swap2\n      swap1\n      pop\n      jump\t// out\n        /* \".deps/npm/@openzeppelin/contracts/token/ERC721/ERC721.sol\":7307:7433  function _exists(uint256 tokenId) internal view virtual returns (bool) {... */\n    tag_177:\n        /* \".deps/npm/@openzeppelin/contracts/token/ERC721/ERC721.sol\":7372:7376  bool */\n      0x00\n        /* \".deps/npm/@openzeppelin/contracts/token/ERC721/ERC721.sol\":7424:7425  0 */\n      dup1\n        /* \".deps/npm/@openzeppelin/contracts/token/ERC721/ERC721.sol\":7395:7426  _ownerOf(tokenId) != address(0) */\n      0xffffffffffffffffffffffffffffffffffffffff\n      and\n        /* \".deps/npm/@openzeppelin/contracts/token/ERC721/ERC721.sol\":7395:7412  _ownerOf(tokenId) */\n      tag_219\n        /* \".deps/npm/@openzeppelin/contracts/token/ERC721/ERC721.sol\":7404:7411  tokenId */\n      dup4\n        /* \".deps/npm/@openzeppelin/contracts/token/ERC721/ERC721.sol\":7395:7403  _ownerOf */\n      tag_138\n        /* \".deps/npm/@openzeppelin/contracts/token/ERC721/ERC721.sol\":7395:7412  _ownerOf(tokenId) */\n      jump\t// in\n    tag_219:\n        /* \".deps/npm/@openzeppelin/contracts/token/ERC721/ERC721.sol\":7395:7426  _ownerOf(tokenId) != address(0) */\n      0xffffffffffffffffffffffffffffffffffffffff\n      and\n      eq\n      iszero\n        /* \".deps/npm/@openzeppelin/contracts/token/ERC721/ERC721.sol\":7388:7426  return _ownerOf(tokenId) != address(0) */\n      swap1\n      pop\n        /* \".deps/npm/@openzeppelin/contracts/token/ERC721/ERC721.sol\":7307:7433  function _exists(uint256 tokenId) internal view virtual returns (bool) {... */\n      swap2\n      swap1\n      pop\n      jump\t// out\n        /* \".deps/npm/@openzeppelin/contracts/token/ERC721/ERC721.sol\":14105:14936  function _checkOnERC721Received(... */\n    tag_200:\n        /* \".deps/npm/@openzeppelin/contracts/token/ERC721/ERC721.sol\":14254:14258  bool */\n      0x00\n        /* \".deps/npm/@openzeppelin/contracts/token/ERC721/ERC721.sol\":14274:14289  to.isContract() */\n      tag_221\n        /* \".deps/npm/@openzeppelin/contracts/token/ERC721/ERC721.sol\":14274:14276  to */\n      dup5\n        /* \".deps/npm/@openzeppelin/contracts/token/ERC721/ERC721.sol\":14274:14287  to.isContract */\n      0xffffffffffffffffffffffffffffffffffffffff\n      and\n      tag_222\n        /* \".deps/npm/@openzeppelin/contracts/token/ERC721/ERC721.sol\":14274:14289  to.isContract() */\n      jump\t// in\n    tag_221:\n        /* \".deps/npm/@openzeppelin/contracts/token/ERC721/ERC721.sol\":14270:14930  if (to.isContract()) {... */\n      iszero\n      tag_223\n      jumpi\n        /* \".deps/npm/@openzeppelin/contracts/token/ERC721/ERC721.sol\":14325:14327  to */\n      dup4\n        /* \".deps/npm/@openzeppelin/contracts/token/ERC721/ERC721.sol\":14309:14345  IERC721Receiver(to).onERC721Received */\n      0xffffffffffffffffffffffffffffffffffffffff\n      and\n      0x150b7a02\n        /* \".deps/npm/@openzeppelin/contracts/token/ERC721/ERC721.sol\":14346:14358  _msgSender() */\n      tag_224\n        /* \".deps/npm/@openzeppelin/contracts/token/ERC721/ERC721.sol\":14346:14356  _msgSender */\n      tag_105\n        /* \".deps/npm/@openzeppelin/contracts/token/ERC721/ERC721.sol\":14346:14358  _msgSender() */\n      jump\t// in\n    tag_224:\n        /* \".deps/npm/@openzeppelin/contracts/token/ERC721/ERC721.sol\":14360:14364  from */\n      dup8\n        /* \".deps/npm/@openzeppelin/contracts/token/ERC721/ERC721.sol\":14366:14373  tokenId */\n      dup7\n        /* \".deps/npm/@openzeppelin/contracts/token/ERC721/ERC721.sol\":14375:14379  data */\n      dup7\n        /* \".deps/npm/@openzeppelin/contracts/token/ERC721/ERC721.sol\":14309:14380  IERC721Receiver(to).onERC721Received(_msgSender(), from, tokenId, data) */\n      mload(0x40)\n      dup6\n      0xffffffff\n      and\n      0xe0\n      shl\n      dup2\n      mstore\n      0x04\n      add\n      tag_225\n      swap5\n      swap4\n      swap3\n      swap2\n      swap1\n      tag_226\n      jump\t// in\n    tag_225:\n      0x20\n      mload(0x40)\n      dup1\n      dup4\n      sub\n      dup2\n      0x00\n      dup8\n      gas\n      call\n      swap3\n      pop\n      pop\n      pop\n      dup1\n      iszero\n      tag_227\n      jumpi\n      pop\n      mload(0x40)\n      returndatasize\n      not(0x1f)\n      0x1f\n      dup3\n      add\n      and\n      dup3\n      add\n      dup1\n      0x40\n      mstore\n      pop\n      dup2\n      add\n      swap1\n      tag_228\n      swap2\n      swap1\n      tag_229\n      jump\t// in\n    tag_228:\n      0x01\n    tag_227:\n        /* \".deps/npm/@openzeppelin/contracts/token/ERC721/ERC721.sol\":14305:14878  try IERC721Receiver(to).onERC721Received(_msgSender(), from, tokenId, data) returns (bytes4 retval) {... */\n      tag_230\n      jumpi\n      returndatasize\n      dup1\n      0x00\n      dup2\n      eq\n      tag_235\n      jumpi\n      mload(0x40)\n      swap2\n      pop\n      and(add(returndatasize, 0x3f), not(0x1f))\n      dup3\n      add\n      0x40\n      mstore\n      returndatasize\n      dup3\n      mstore\n      returndatasize\n      0x00\n      0x20\n      dup5\n      add\n      returndatacopy\n      jump(tag_234)\n    tag_235:\n      0x60\n      swap2\n      pop\n    tag_234:\n      pop\n        /* \".deps/npm/@openzeppelin/contracts/token/ERC721/ERC721.sol\":14564:14565  0 */\n      0x00\n        /* \".deps/npm/@openzeppelin/contracts/token/ERC721/ERC721.sol\":14547:14553  reason */\n      dup2\n        /* \".deps/npm/@openzeppelin/contracts/token/ERC721/ERC721.sol\":14547:14560  reason.length */\n      mload\n        /* \".deps/npm/@openzeppelin/contracts/token/ERC721/ERC721.sol\":14547:14565  reason.length == 0 */\n      sub\n        /* \".deps/npm/@openzeppelin/contracts/token/ERC721/ERC721.sol\":14543:14864  if (reason.length == 0) {... */\n      tag_236\n      jumpi\n        /* \".deps/npm/@openzeppelin/contracts/token/ERC721/ERC721.sol\":14589:14649  revert(\"ERC721: transfer to non ERC721Receiver implementer\") */\n      mload(0x40)\n      0x08c379a000000000000000000000000000000000000000000000000000000000\n      dup2\n      mstore\n      0x04\n      add\n      tag_237\n      swap1\n      tag_203\n      jump\t// in\n    tag_237:\n      mload(0x40)\n      dup1\n      swap2\n      sub\n      swap1\n      revert\n        /* \".deps/npm/@openzeppelin/contracts/token/ERC721/ERC721.sol\":14543:14864  if (reason.length == 0) {... */\n    tag_236:\n        /* \".deps/npm/@openzeppelin/contracts/token/ERC721/ERC721.sol\":14816:14822  reason */\n      dup1\n        /* \".deps/npm/@openzeppelin/contracts/token/ERC721/ERC721.sol\":14810:14823  mload(reason) */\n      mload\n        /* \".deps/npm/@openzeppelin/contracts/token/ERC721/ERC721.sol\":14801:14807  reason */\n      dup2\n        /* \".deps/npm/@openzeppelin/contracts/token/ERC721/ERC721.sol\":14797:14799  32 */\n      0x20\n        /* \".deps/npm/@openzeppelin/contracts/token/ERC721/ERC721.sol\":14793:14808  add(32, reason) */\n      add\n        /* \".deps/npm/@openzeppelin/contracts/token/ERC721/ERC721.sol\":14786:14824  revert(add(32, reason), mload(reason)) */\n      revert\n        /* \".deps/npm/@openzeppelin/contracts/token/ERC721/ERC721.sol\":14305:14878  try IERC721Receiver(to).onERC721Received(_msgSender(), from, tokenId, data) returns (bytes4 retval) {... */\n    tag_230:\n        /* \".deps/npm/@openzeppelin/contracts/token/ERC721/ERC721.sol\":14440:14481  IERC721Receiver.onERC721Received.selector */\n      shl(0xe0, 0x150b7a02)\n        /* \".deps/npm/@openzeppelin/contracts/token/ERC721/ERC721.sol\":14430:14481  retval == IERC721Receiver.onERC721Received.selector */\n      not(0xffffffffffffffffffffffffffffffffffffffffffffffffffffffff)\n      and\n        /* \".deps/npm/@openzeppelin/contracts/token/ERC721/ERC721.sol\":14430:14436  retval */\n      dup2\n        /* \".deps/npm/@openzeppelin/contracts/token/ERC721/ERC721.sol\":14430:14481  retval == IERC721Receiver.onERC721Received.selector */\n      not(0xffffffffffffffffffffffffffffffffffffffffffffffffffffffff)\n      and\n      eq\n        /* \".deps/npm/@openzeppelin/contracts/token/ERC721/ERC721.sol\":14423:14481  return retval == IERC721Receiver.onERC721Received.selector */\n      swap2\n      pop\n      pop\n      jump(tag_220)\n        /* \".deps/npm/@openzeppelin/contracts/token/ERC721/ERC721.sol\":14270:14930  if (to.isContract()) {... */\n    tag_223:\n        /* \".deps/npm/@openzeppelin/contracts/token/ERC721/ERC721.sol\":14915:14919  true */\n      0x01\n        /* \".deps/npm/@openzeppelin/contracts/token/ERC721/ERC721.sol\":14908:14919  return true */\n      swap1\n      pop\n        /* \".deps/npm/@openzeppelin/contracts/token/ERC721/ERC721.sol\":14105:14936  function _checkOnERC721Received(... */\n    tag_220:\n      swap5\n      swap4\n      pop\n      pop\n      pop\n      pop\n      jump\t// out\n        /* \".deps/npm/@openzeppelin/contracts/utils/math/Math.sol\":10139:11055  function log10(uint256 value) internal pure returns (uint256) {... */\n    tag_207:\n        /* \".deps/npm/@openzeppelin/contracts/utils/math/Math.sol\":10192:10199  uint256 */\n      0x00\n        /* \".deps/npm/@openzeppelin/contracts/utils/math/Math.sol\":10211:10225  uint256 result */\n      dup1\n        /* \".deps/npm/@openzeppelin/contracts/utils/math/Math.sol\":10228:10229  0 */\n      0x00\n        /* \".deps/npm/@openzeppelin/contracts/utils/math/Math.sol\":10211:10229  uint256 result = 0 */\n      swap1\n      pop\n        /* \".deps/npm/@openzeppelin/contracts/utils/math/Math.sol\":10276:10284  10 ** 64 */\n      0x184f03e93ff9f4daa797ed6e38ed64bf6a1f010000000000000000\n        /* \".deps/npm/@openzeppelin/contracts/utils/math/Math.sol\":10267:10272  value */\n      dup4\n        /* \".deps/npm/@openzeppelin/contracts/utils/math/Math.sol\":10267:10284  value >= 10 ** 64 */\n      lt\n        /* \".deps/npm/@openzeppelin/contracts/utils/math/Math.sol\":10263:10366  if (value >= 10 ** 64) {... */\n      tag_242\n      jumpi\n        /* \".deps/npm/@openzeppelin/contracts/utils/math/Math.sol\":10313:10321  10 ** 64 */\n      0x184f03e93ff9f4daa797ed6e38ed64bf6a1f010000000000000000\n        /* \".deps/npm/@openzeppelin/contracts/utils/math/Math.sol\":10304:10321  value /= 10 ** 64 */\n      dup4\n      dup2\n      tag_243\n      jumpi\n      tag_244\n      tag_216\n      jump\t// in\n    tag_244:\n    tag_243:\n      div\n      swap3\n      pop\n        /* \".deps/npm/@openzeppelin/contracts/utils/math/Math.sol\":10349:10351  64 */\n      0x40\n        /* \".deps/npm/@openzeppelin/contracts/utils/math/Math.sol\":10339:10351  result += 64 */\n      dup2\n      add\n      swap1\n      pop\n        /* \".deps/npm/@openzeppelin/contracts/utils/math/Math.sol\":10263:10366  if (value >= 10 ** 64) {... */\n    tag_242:\n        /* \".deps/npm/@openzeppelin/contracts/utils/math/Math.sol\":10392:10400  10 ** 32 */\n      0x04ee2d6d415b85acef8100000000\n        /* \".deps/npm/@openzeppelin/contracts/utils/math/Math.sol\":10383:10388  value */\n      dup4\n        /* \".deps/npm/@openzeppelin/contracts/utils/math/Math.sol\":10383:10400  value >= 10 ** 32 */\n      lt\n        /* \".deps/npm/@openzeppelin/contracts/utils/math/Math.sol\":10379:10482  if (value >= 10 ** 32) {... */\n      tag_245\n      jumpi\n        /* \".deps/npm/@openzeppelin/contracts/utils/math/Math.sol\":10429:10437  10 ** 32 */\n      0x04ee2d6d415b85acef8100000000\n        /* \".deps/npm/@openzeppelin/contracts/utils/math/Math.sol\":10420:10437  value /= 10 ** 32 */\n      dup4\n      dup2\n      tag_246\n      jumpi\n      tag_247\n      tag_216\n      jump\t// in\n    tag_247:\n    tag_246:\n      div\n      swap3\n      pop\n        /* \".deps/npm/@openzeppelin/contracts/utils/math/Math.sol\":10465:10467  32 */\n      0x20\n        /* \".deps/npm/@openzeppelin/contracts/utils/math/Math.sol\":10455:10467  result += 32 */\n      dup2\n      add\n      swap1\n      pop\n        /* \".deps/npm/@openzeppelin/contracts/utils/math/Math.sol\":10379:10482  if (value >= 10 ** 32) {... */\n    tag_245:\n        /* \".deps/npm/@openzeppelin/contracts/utils/math/Math.sol\":10508:10516  10 ** 16 */\n      0x2386f26fc10000\n        /* \".deps/npm/@openzeppelin/contracts/utils/math/Math.sol\":10499:10504  value */\n      dup4\n        /* \".deps/npm/@openzeppelin/contracts/utils/math/Math.sol\":10499:10516  value >= 10 ** 16 */\n      lt\n        /* \".deps/npm/@openzeppelin/contracts/utils/math/Math.sol\":10495:10598  if (value >= 10 ** 16) {... */\n      tag_248\n      jumpi\n        /* \".deps/npm/@openzeppelin/contracts/utils/math/Math.sol\":10545:10553  10 ** 16 */\n      0x2386f26fc10000\n        /* \".deps/npm/@openzeppelin/contracts/utils/math/Math.sol\":10536:10553  value /= 10 ** 16 */\n      dup4\n      dup2\n      tag_249\n      jumpi\n      tag_250\n      tag_216\n      jump\t// in\n    tag_250:\n    tag_249:\n      div\n      swap3\n      pop\n        /* \".deps/npm/@openzeppelin/contracts/utils/math/Math.sol\":10581:10583  16 */\n      0x10\n        /* \".deps/npm/@openzeppelin/contracts/utils/math/Math.sol\":10571:10583  result += 16 */\n      dup2\n      add\n      swap1\n      pop\n        /* \".deps/npm/@openzeppelin/contracts/utils/math/Math.sol\":10495:10598  if (value >= 10 ** 16) {... */\n    tag_248:\n        /* \".deps/npm/@openzeppelin/contracts/utils/math/Math.sol\":10624:10631  10 ** 8 */\n      0x05f5e100\n        /* \".deps/npm/@openzeppelin/contracts/utils/math/Math.sol\":10615:10620  value */\n      dup4\n        /* \".deps/npm/@openzeppelin/contracts/utils/math/Math.sol\":10615:10631  value >= 10 ** 8 */\n      lt\n        /* \".deps/npm/@openzeppelin/contracts/utils/math/Math.sol\":10611:10711  if (value >= 10 ** 8) {... */\n      tag_251\n      jumpi\n        /* \".deps/npm/@openzeppelin/contracts/utils/math/Math.sol\":10660:10667  10 ** 8 */\n      0x05f5e100\n        /* \".deps/npm/@openzeppelin/contracts/utils/math/Math.sol\":10651:10667  value /= 10 ** 8 */\n      dup4\n      dup2\n      tag_252\n      jumpi\n      tag_253\n      tag_216\n      jump\t// in\n    tag_253:\n    tag_252:\n      div\n      swap3\n      pop\n        /* \".deps/npm/@openzeppelin/contracts/utils/math/Math.sol\":10695:10696  8 */\n      0x08\n        /* \".deps/npm/@openzeppelin/contracts/utils/math/Math.sol\":10685:10696  result += 8 */\n      dup2\n      add\n      swap1\n      pop\n        /* \".deps/npm/@openzeppelin/contracts/utils/math/Math.sol\":10611:10711  if (value >= 10 ** 8) {... */\n    tag_251:\n        /* \".deps/npm/@openzeppelin/contracts/utils/math/Math.sol\":10737:10744  10 ** 4 */\n      0x2710\n        /* \".deps/npm/@openzeppelin/contracts/utils/math/Math.sol\":10728:10733  value */\n      dup4\n        /* \".deps/npm/@openzeppelin/contracts/utils/math/Math.sol\":10728:10744  value >= 10 ** 4 */\n      lt\n        /* \".deps/npm/@openzeppelin/contracts/utils/math/Math.sol\":10724:10824  if (value >= 10 ** 4) {... */\n      tag_254\n      jumpi\n        /* \".deps/npm/@openzeppelin/contracts/utils/math/Math.sol\":10773:10780  10 ** 4 */\n      0x2710\n        /* \".deps/npm/@openzeppelin/contracts/utils/math/Math.sol\":10764:10780  value /= 10 ** 4 */\n      dup4\n      dup2\n      tag_255\n      jumpi\n      tag_256\n      tag_216\n      jump\t// in\n    tag_256:\n    tag_255:\n      div\n      swap3\n      pop\n        /* \".deps/npm/@openzeppelin/contracts/utils/math/Math.sol\":10808:10809  4 */\n      0x04\n        /* \".deps/npm/@openzeppelin/contracts/utils/math/Math.sol\":10798:10809  result += 4 */\n      dup2\n      add\n      swap1\n      pop\n        /* \".deps/npm/@openzeppelin/contracts/utils/math/Math.sol\":10724:10824  if (value >= 10 ** 4) {... */\n    tag_254:\n        /* \".deps/npm/@openzeppelin/contracts/utils/math/Math.sol\":10850:10857  10 ** 2 */\n      0x64\n        /* \".deps/npm/@openzeppelin/contracts/utils/math/Math.sol\":10841:10846  value */\n      dup4\n        /* \".deps/npm/@openzeppelin/contracts/utils/math/Math.sol\":10841:10857  value >= 10 ** 2 */\n      lt\n        /* \".deps/npm/@openzeppelin/contracts/utils/math/Math.sol\":10837:10937  if (value >= 10 ** 2) {... */\n      tag_257\n      jumpi\n        /* \".deps/npm/@openzeppelin/contracts/utils/math/Math.sol\":10886:10893  10 ** 2 */\n      0x64\n        /* \".deps/npm/@openzeppelin/contracts/utils/math/Math.sol\":10877:10893  value /= 10 ** 2 */\n      dup4\n      dup2\n      tag_258\n      jumpi\n      tag_259\n      tag_216\n      jump\t// in\n    tag_259:\n    tag_258:\n      div\n      swap3\n      pop\n        /* \".deps/npm/@openzeppelin/contracts/utils/math/Math.sol\":10921:10922  2 */\n      0x02\n        /* \".deps/npm/@openzeppelin/contracts/utils/math/Math.sol\":10911:10922  result += 2 */\n      dup2\n      add\n      swap1\n      pop\n        /* \".deps/npm/@openzeppelin/contracts/utils/math/Math.sol\":10837:10937  if (value >= 10 ** 2) {... */\n    tag_257:\n        /* \".deps/npm/@openzeppelin/contracts/utils/math/Math.sol\":10963:10970  10 ** 1 */\n      0x0a\n        /* \".deps/npm/@openzeppelin/contracts/utils/math/Math.sol\":10954:10959  value */\n      dup4\n        /* \".deps/npm/@openzeppelin/contracts/utils/math/Math.sol\":10954:10970  value >= 10 ** 1 */\n      lt\n        /* \".deps/npm/@openzeppelin/contracts/utils/math/Math.sol\":10950:11016  if (value >= 10 ** 1) {... */\n      tag_260\n      jumpi\n        /* \".deps/npm/@openzeppelin/contracts/utils/math/Math.sol\":11000:11001  1 */\n      0x01\n        /* \".deps/npm/@openzeppelin/contracts/utils/math/Math.sol\":10990:11001  result += 1 */\n      dup2\n      add\n      swap1\n      pop\n        /* \".deps/npm/@openzeppelin/contracts/utils/math/Math.sol\":10950:11016  if (value >= 10 ** 1) {... */\n    tag_260:\n        /* \".deps/npm/@openzeppelin/contracts/utils/math/Math.sol\":11042:11048  result */\n      dup1\n        /* \".deps/npm/@openzeppelin/contracts/utils/math/Math.sol\":11035:11048  return result */\n      swap2\n      pop\n      pop\n        /* \".deps/npm/@openzeppelin/contracts/utils/math/Math.sol\":10139:11055  function log10(uint256 value) internal pure returns (uint256) {... */\n      swap2\n      swap1\n      pop\n      jump\t// out\n        /* \".deps/npm/@openzeppelin/contracts/utils/Address.sol\":1412:1732  function isContract(address account) internal view returns (bool) {... */\n    tag_222:\n        /* \".deps/npm/@openzeppelin/contracts/utils/Address.sol\":1472:1476  bool */\n      0x00\n        /* \".deps/npm/@openzeppelin/contracts/utils/Address.sol\":1724:1725  0 */\n      dup1\n        /* \".deps/npm/@openzeppelin/contracts/utils/Address.sol\":1702:1709  account */\n      dup3\n        /* \".deps/npm/@openzeppelin/contracts/utils/Address.sol\":1702:1721  account.code.length */\n      0xffffffffffffffffffffffffffffffffffffffff\n      and\n      extcodesize\n        /* \".deps/npm/@openzeppelin/contracts/utils/Address.sol\":1702:1725  account.code.length > 0 */\n      gt\n        /* \".deps/npm/@openzeppelin/contracts/utils/Address.sol\":1695:1725  return account.code.length > 0 */\n      swap1\n      pop\n        /* \".deps/npm/@openzeppelin/contracts/utils/Address.sol\":1412:1732  function isContract(address account) internal view returns (bool) {... */\n      swap2\n      swap1\n      pop\n      jump\t// out\n        /* \"#utility.yul\":7:82   */\n    tag_262:\n        /* \"#utility.yul\":40:46   */\n      0x00\n        /* \"#utility.yul\":73:75   */\n      0x40\n        /* \"#utility.yul\":67:76   */\n      mload\n        /* \"#utility.yul\":57:76   */\n      swap1\n      pop\n        /* \"#utility.yul\":7:82   */\n      swap1\n      jump\t// out\n        /* \"#utility.yul\":88:205   */\n    tag_263:\n        /* \"#utility.yul\":197:198   */\n      0x00\n        /* \"#utility.yul\":194:195   */\n      dup1\n        /* \"#utility.yul\":187:199   */\n      revert\n        /* \"#utility.yul\":211:328   */\n    tag_264:\n        /* \"#utility.yul\":320:321   */\n      0x00\n        /* \"#utility.yul\":317:318   */\n      dup1\n        /* \"#utility.yul\":310:322   */\n      revert\n        /* \"#utility.yul\":334:483   */\n    tag_265:\n        /* \"#utility.yul\":370:377   */\n      0x00\n        /* \"#utility.yul\":410:476   */\n      0xffffffff00000000000000000000000000000000000000000000000000000000\n        /* \"#utility.yul\":403:408   */\n      dup3\n        /* \"#utility.yul\":399:477   */\n      and\n        /* \"#utility.yul\":388:477   */\n      swap1\n      pop\n        /* \"#utility.yul\":334:483   */\n      swap2\n      swap1\n      pop\n      jump\t// out\n        /* \"#utility.yul\":489:609   */\n    tag_266:\n        /* \"#utility.yul\":561:584   */\n      tag_323\n        /* \"#utility.yul\":578:583   */\n      dup2\n        /* \"#utility.yul\":561:584   */\n      tag_265\n      jump\t// in\n    tag_323:\n        /* \"#utility.yul\":554:559   */\n      dup2\n        /* \"#utility.yul\":551:585   */\n      eq\n        /* \"#utility.yul\":541:603   */\n      tag_324\n      jumpi\n        /* \"#utility.yul\":599:600   */\n      0x00\n        /* \"#utility.yul\":596:597   */\n      dup1\n        /* \"#utility.yul\":589:601   */\n      revert\n        /* \"#utility.yul\":541:603   */\n    tag_324:\n        /* \"#utility.yul\":489:609   */\n      pop\n      jump\t// out\n        /* \"#utility.yul\":615:752   */\n    tag_267:\n        /* \"#utility.yul\":660:665   */\n      0x00\n        /* \"#utility.yul\":698:704   */\n      dup2\n        /* \"#utility.yul\":685:705   */\n      calldataload\n        /* \"#utility.yul\":676:705   */\n      swap1\n      pop\n        /* \"#utility.yul\":714:746   */\n      tag_326\n        /* \"#utility.yul\":740:745   */\n      dup2\n        /* \"#utility.yul\":714:746   */\n      tag_266\n      jump\t// in\n    tag_326:\n        /* \"#utility.yul\":615:752   */\n      swap3\n      swap2\n      pop\n      pop\n      jump\t// out\n        /* \"#utility.yul\":758:1085   */\n    tag_23:\n        /* \"#utility.yul\":816:822   */\n      0x00\n        /* \"#utility.yul\":865:867   */\n      0x20\n        /* \"#utility.yul\":853:862   */\n      dup3\n        /* \"#utility.yul\":844:851   */\n      dup5\n        /* \"#utility.yul\":840:863   */\n      sub\n        /* \"#utility.yul\":836:868   */\n      slt\n        /* \"#utility.yul\":833:952   */\n      iszero\n      tag_328\n      jumpi\n        /* \"#utility.yul\":871:950   */\n      tag_329\n      tag_263\n      jump\t// in\n    tag_329:\n        /* \"#utility.yul\":833:952   */\n    tag_328:\n        /* \"#utility.yul\":991:992   */\n      0x00\n        /* \"#utility.yul\":1016:1068   */\n      tag_330\n        /* \"#utility.yul\":1060:1067   */\n      dup5\n        /* \"#utility.yul\":1051:1057   */\n      dup3\n        /* \"#utility.yul\":1040:1049   */\n      dup6\n        /* \"#utility.yul\":1036:1058   */\n      add\n        /* \"#utility.yul\":1016:1068   */\n      tag_267\n      jump\t// in\n    tag_330:\n        /* \"#utility.yul\":1006:1068   */\n      swap2\n      pop\n        /* \"#utility.yul\":962:1078   */\n      pop\n        /* \"#utility.yul\":758:1085   */\n      swap3\n      swap2\n      pop\n      pop\n      jump\t// out\n        /* \"#utility.yul\":1091:1181   */\n    tag_268:\n        /* \"#utility.yul\":1125:1132   */\n      0x00\n        /* \"#utility.yul\":1168:1173   */\n      dup2\n        /* \"#utility.yul\":1161:1174   */\n      iszero\n        /* \"#utility.yul\":1154:1175   */\n      iszero\n        /* \"#utility.yul\":1143:1175   */\n      swap1\n      pop\n        /* \"#utility.yul\":1091:1181   */\n      swap2\n      swap1\n      pop\n      jump\t// out\n        /* \"#utility.yul\":1187:1296   */\n    tag_269:\n        /* \"#utility.yul\":1268:1289   */\n      tag_333\n        /* \"#utility.yul\":1283:1288   */\n      dup2\n        /* \"#utility.yul\":1268:1289   */\n      tag_268\n      jump\t// in\n    tag_333:\n        /* \"#utility.yul\":1263:1266   */\n      dup3\n        /* \"#utility.yul\":1256:1290   */\n      mstore\n        /* \"#utility.yul\":1187:1296   */\n      pop\n      pop\n      jump\t// out\n        /* \"#utility.yul\":1302:1512   */\n    tag_26:\n        /* \"#utility.yul\":1389:1393   */\n      0x00\n        /* \"#utility.yul\":1427:1429   */\n      0x20\n        /* \"#utility.yul\":1416:1425   */\n      dup3\n        /* \"#utility.yul\":1412:1430   */\n      add\n        /* \"#utility.yul\":1404:1430   */\n      swap1\n      pop\n        /* \"#utility.yul\":1440:1505   */\n      tag_335\n        /* \"#utility.yul\":1502:1503   */\n      0x00\n        /* \"#utility.yul\":1491:1500   */\n      dup4\n        /* \"#utility.yul\":1487:1504   */\n      add\n        /* \"#utility.yul\":1478:1484   */\n      dup5\n        /* \"#utility.yul\":1440:1505   */\n      tag_269\n      jump\t// in\n    tag_335:\n        /* \"#utility.yul\":1302:1512   */\n      swap3\n      swap2\n      pop\n      pop\n      jump\t// out\n        /* \"#utility.yul\":1518:1617   */\n    tag_270:\n        /* \"#utility.yul\":1570:1576   */\n      0x00\n        /* \"#utility.yul\":1604:1609   */\n      dup2\n        /* \"#utility.yul\":1598:1610   */\n      mload\n        /* \"#utility.yul\":1588:1610   */\n      swap1\n      pop\n        /* \"#utility.yul\":1518:1617   */\n      swap2\n      swap1\n      pop\n      jump\t// out\n        /* \"#utility.yul\":1623:1792   */\n    tag_271:\n        /* \"#utility.yul\":1707:1718   */\n      0x00\n        /* \"#utility.yul\":1741:1747   */\n      dup3\n        /* \"#utility.yul\":1736:1739   */\n      dup3\n        /* \"#utility.yul\":1729:1748   */\n      mstore\n        /* \"#utility.yul\":1781:1785   */\n      0x20\n        /* \"#utility.yul\":1776:1779   */\n      dup3\n        /* \"#utility.yul\":1772:1786   */\n      add\n        /* \"#utility.yul\":1757:1786   */\n      swap1\n      pop\n        /* \"#utility.yul\":1623:1792   */\n      swap3\n      swap2\n      pop\n      pop\n      jump\t// out\n        /* \"#utility.yul\":1798:2044   */\n    tag_272:\n        /* \"#utility.yul\":1879:1880   */\n      0x00\n        /* \"#utility.yul\":1889:2002   */\n    tag_339:\n        /* \"#utility.yul\":1903:1909   */\n      dup4\n        /* \"#utility.yul\":1900:1901   */\n      dup2\n        /* \"#utility.yul\":1897:1910   */\n      lt\n        /* \"#utility.yul\":1889:2002   */\n      iszero\n      tag_341\n      jumpi\n        /* \"#utility.yul\":1988:1989   */\n      dup1\n        /* \"#utility.yul\":1983:1986   */\n      dup3\n        /* \"#utility.yul\":1979:1990   */\n      add\n        /* \"#utility.yul\":1973:1991   */\n      mload\n        /* \"#utility.yul\":1969:1970   */\n      dup2\n        /* \"#utility.yul\":1964:1967   */\n      dup5\n        /* \"#utility.yul\":1960:1971   */\n      add\n        /* \"#utility.yul\":1953:1992   */\n      mstore\n        /* \"#utility.yul\":1925:1927   */\n      0x20\n        /* \"#utility.yul\":1922:1923   */\n      dup2\n        /* \"#utility.yul\":1918:1928   */\n      add\n        /* \"#utility.yul\":1913:1928   */\n      swap1\n      pop\n        /* \"#utility.yul\":1889:2002   */\n      jump(tag_339)\n    tag_341:\n        /* \"#utility.yul\":2036:2037   */\n      0x00\n        /* \"#utility.yul\":2027:2033   */\n      dup5\n        /* \"#utility.yul\":2022:2025   */\n      dup5\n        /* \"#utility.yul\":2018:2034   */\n      add\n        /* \"#utility.yul\":2011:2038   */\n      mstore\n        /* \"#utility.yul\":1860:2044   */\n      pop\n        /* \"#utility.yul\":1798:2044   */\n      pop\n      pop\n      pop\n      jump\t// out\n        /* \"#utility.yul\":2050:2152   */\n    tag_273:\n        /* \"#utility.yul\":2091:2097   */\n      0x00\n        /* \"#utility.yul\":2142:2144   */\n      0x1f\n        /* \"#utility.yul\":2138:2145   */\n      not\n        /* \"#utility.yul\":2133:2135   */\n      0x1f\n        /* \"#utility.yul\":2126:2131   */\n      dup4\n        /* \"#utility.yul\":2122:2136   */\n      add\n        /* \"#utility.yul\":2118:2146   */\n      and\n        /* \"#utility.yul\":2108:2146   */\n      swap1\n      pop\n        /* \"#utility.yul\":2050:2152   */\n      swap2\n      swap1\n      pop\n      jump\t// out\n        /* \"#utility.yul\":2158:2535   */\n    tag_274:\n        /* \"#utility.yul\":2246:2249   */\n      0x00\n        /* \"#utility.yul\":2274:2313   */\n      tag_344\n        /* \"#utility.yul\":2307:2312   */\n      dup3\n        /* \"#utility.yul\":2274:2313   */\n      tag_270\n      jump\t// in\n    tag_344:\n        /* \"#utility.yul\":2329:2400   */\n      tag_345\n        /* \"#utility.yul\":2393:2399   */\n      dup2\n        /* \"#utility.yul\":2388:2391   */\n      dup6\n        /* \"#utility.yul\":2329:2400   */\n      tag_271\n      jump\t// in\n    tag_345:\n        /* \"#utility.yul\":2322:2400   */\n      swap4\n      pop\n        /* \"#utility.yul\":2409:2474   */\n      tag_346\n        /* \"#utility.yul\":2467:2473   */\n      dup2\n        /* \"#utility.yul\":2462:2465   */\n      dup6\n        /* \"#utility.yul\":2455:2459   */\n      0x20\n        /* \"#utility.yul\":2448:2453   */\n      dup7\n        /* \"#utility.yul\":2444:2460   */\n      add\n        /* \"#utility.yul\":2409:2474   */\n      tag_272\n      jump\t// in\n    tag_346:\n        /* \"#utility.yul\":2499:2528   */\n      tag_347\n        /* \"#utility.yul\":2521:2527   */\n      dup2\n        /* \"#utility.yul\":2499:2528   */\n      tag_273\n      jump\t// in\n    tag_347:\n        /* \"#utility.yul\":2494:2497   */\n      dup5\n        /* \"#utility.yul\":2490:2529   */\n      add\n        /* \"#utility.yul\":2483:2529   */\n      swap2\n      pop\n        /* \"#utility.yul\":2250:2535   */\n      pop\n        /* \"#utility.yul\":2158:2535   */\n      swap3\n      swap2\n      pop\n      pop\n      jump\t// out\n        /* \"#utility.yul\":2541:2854   */\n    tag_30:\n        /* \"#utility.yul\":2654:2658   */\n      0x00\n        /* \"#utility.yul\":2692:2694   */\n      0x20\n        /* \"#utility.yul\":2681:2690   */\n      dup3\n        /* \"#utility.yul\":2677:2695   */\n      add\n        /* \"#utility.yul\":2669:2695   */\n      swap1\n      pop\n        /* \"#utility.yul\":2741:2750   */\n      dup2\n        /* \"#utility.yul\":2735:2739   */\n      dup2\n        /* \"#utility.yul\":2731:2751   */\n      sub\n        /* \"#utility.yul\":2727:2728   */\n      0x00\n        /* \"#utility.yul\":2716:2725   */\n      dup4\n        /* \"#utility.yul\":2712:2729   */\n      add\n        /* \"#utility.yul\":2705:2752   */\n      mstore\n        /* \"#utility.yul\":2769:2847   */\n      tag_349\n        /* \"#utility.yul\":2842:2846   */\n      dup2\n        /* \"#utility.yul\":2833:2839   */\n      dup5\n        /* \"#utility.yul\":2769:2847   */\n      tag_274\n      jump\t// in\n    tag_349:\n        /* \"#utility.yul\":2761:2847   */\n      swap1\n      pop\n        /* \"#utility.yul\":2541:2854   */\n      swap3\n      swap2\n      pop\n      pop\n      jump\t// out\n        /* \"#utility.yul\":2860:2937   */\n    tag_275:\n        /* \"#utility.yul\":2897:2904   */\n      0x00\n        /* \"#utility.yul\":2926:2931   */\n      dup2\n        /* \"#utility.yul\":2915:2931   */\n      swap1\n      pop\n        /* \"#utility.yul\":2860:2937   */\n      swap2\n      swap1\n      pop\n      jump\t// out\n        /* \"#utility.yul\":2943:3065   */\n    tag_276:\n        /* \"#utility.yul\":3016:3040   */\n      tag_352\n        /* \"#utility.yul\":3034:3039   */\n      dup2\n        /* \"#utility.yul\":3016:3040   */\n      tag_275\n      jump\t// in\n    tag_352:\n        /* \"#utility.yul\":3009:3014   */\n      dup2\n        /* \"#utility.yul\":3006:3041   */\n      eq\n        /* \"#utility.yul\":2996:3059   */\n      tag_353\n      jumpi\n        /* \"#utility.yul\":3055:3056   */\n      0x00\n        /* \"#utility.yul\":3052:3053   */\n      dup1\n        /* \"#utility.yul\":3045:3057   */\n      revert\n        /* \"#utility.yul\":2996:3059   */\n    tag_353:\n        /* \"#utility.yul\":2943:3065   */\n      pop\n      jump\t// out\n        /* \"#utility.yul\":3071:3210   */\n    tag_277:\n        /* \"#utility.yul\":3117:3122   */\n      0x00\n        /* \"#utility.yul\":3155:3161   */\n      dup2\n        /* \"#utility.yul\":3142:3162   */\n      calldataload\n        /* \"#utility.yul\":3133:3162   */\n      swap1\n      pop\n        /* \"#utility.yul\":3171:3204   */\n      tag_355\n        /* \"#utility.yul\":3198:3203   */\n      dup2\n        /* \"#utility.yul\":3171:3204   */\n      tag_276\n      jump\t// in\n    tag_355:\n        /* \"#utility.yul\":3071:3210   */\n      swap3\n      swap2\n      pop\n      pop\n      jump\t// out\n        /* \"#utility.yul\":3216:3545   */\n    tag_33:\n        /* \"#utility.yul\":3275:3281   */\n      0x00\n        /* \"#utility.yul\":3324:3326   */\n      0x20\n        /* \"#utility.yul\":3312:3321   */\n      dup3\n        /* \"#utility.yul\":3303:3310   */\n      dup5\n        /* \"#utility.yul\":3299:3322   */\n      sub\n        /* \"#utility.yul\":3295:3327   */\n      slt\n        /* \"#utility.yul\":3292:3411   */\n      iszero\n      tag_357\n      jumpi\n        /* \"#utility.yul\":3330:3409   */\n      tag_358\n      tag_263\n      jump\t// in\n    tag_358:\n        /* \"#utility.yul\":3292:3411   */\n    tag_357:\n        /* \"#utility.yul\":3450:3451   */\n      0x00\n        /* \"#utility.yul\":3475:3528   */\n      tag_359\n        /* \"#utility.yul\":3520:3527   */\n      dup5\n        /* \"#utility.yul\":3511:3517   */\n      dup3\n        /* \"#utility.yul\":3500:3509   */\n      dup6\n        /* \"#utility.yul\":3496:3518   */\n      add\n        /* \"#utility.yul\":3475:3528   */\n      tag_277\n      jump\t// in\n    tag_359:\n        /* \"#utility.yul\":3465:3528   */\n      swap2\n      pop\n        /* \"#utility.yul\":3421:3538   */\n      pop\n        /* \"#utility.yul\":3216:3545   */\n      swap3\n      swap2\n      pop\n      pop\n      jump\t// out\n        /* \"#utility.yul\":3551:3677   */\n    tag_278:\n        /* \"#utility.yul\":3588:3595   */\n      0x00\n        /* \"#utility.yul\":3628:3670   */\n      0xffffffffffffffffffffffffffffffffffffffff\n        /* \"#utility.yul\":3621:3626   */\n      dup3\n        /* \"#utility.yul\":3617:3671   */\n      and\n        /* \"#utility.yul\":3606:3671   */\n      swap1\n      pop\n        /* \"#utility.yul\":3551:3677   */\n      swap2\n      swap1\n      pop\n      jump\t// out\n        /* \"#utility.yul\":3683:3779   */\n    tag_279:\n        /* \"#utility.yul\":3720:3727   */\n      0x00\n        /* \"#utility.yul\":3749:3773   */\n      tag_362\n        /* \"#utility.yul\":3767:3772   */\n      dup3\n        /* \"#utility.yul\":3749:3773   */\n      tag_278\n      jump\t// in\n    tag_362:\n        /* \"#utility.yul\":3738:3773   */\n      swap1\n      pop\n        /* \"#utility.yul\":3683:3779   */\n      swap2\n      swap1\n      pop\n      jump\t// out\n        /* \"#utility.yul\":3785:3903   */\n    tag_280:\n        /* \"#utility.yul\":3872:3896   */\n      tag_364\n        /* \"#utility.yul\":3890:3895   */\n      dup2\n        /* \"#utility.yul\":3872:3896   */\n      tag_279\n      jump\t// in\n    tag_364:\n        /* \"#utility.yul\":3867:3870   */\n      dup3\n        /* \"#utility.yul\":3860:3897   */\n      mstore\n        /* \"#utility.yul\":3785:3903   */\n      pop\n      pop\n      jump\t// out\n        /* \"#utility.yul\":3909:4131   */\n    tag_36:\n        /* \"#utility.yul\":4002:4006   */\n      0x00\n        /* \"#utility.yul\":4040:4042   */\n      0x20\n        /* \"#utility.yul\":4029:4038   */\n      dup3\n        /* \"#utility.yul\":4025:4043   */\n      add\n        /* \"#utility.yul\":4017:4043   */\n      swap1\n      pop\n        /* \"#utility.yul\":4053:4124   */\n      tag_366\n        /* \"#utility.yul\":4121:4122   */\n      0x00\n        /* \"#utility.yul\":4110:4119   */\n      dup4\n        /* \"#utility.yul\":4106:4123   */\n      add\n        /* \"#utility.yul\":4097:4103   */\n      dup5\n        /* \"#utility.yul\":4053:4124   */\n      tag_280\n      jump\t// in\n    tag_366:\n        /* \"#utility.yul\":3909:4131   */\n      swap3\n      swap2\n      pop\n      pop\n      jump\t// out\n        /* \"#utility.yul\":4137:4259   */\n    tag_281:\n        /* \"#utility.yul\":4210:4234   */\n      tag_368\n        /* \"#utility.yul\":4228:4233   */\n      dup2\n        /* \"#utility.yul\":4210:4234   */\n      tag_279\n      jump\t// in\n    tag_368:\n        /* \"#utility.yul\":4203:4208   */\n      dup2\n        /* \"#utility.yul\":4200:4235   */\n      eq\n        /* \"#utility.yul\":4190:4253   */\n      tag_369\n      jumpi\n        /* \"#utility.yul\":4249:4250   */\n      0x00\n        /* \"#utility.yul\":4246:4247   */\n      dup1\n        /* \"#utility.yul\":4239:4251   */\n      revert\n        /* \"#utility.yul\":4190:4253   */\n    tag_369:\n        /* \"#utility.yul\":4137:4259   */\n      pop\n      jump\t// out\n        /* \"#utility.yul\":4265:4404   */\n    tag_282:\n        /* \"#utility.yul\":4311:4316   */\n      0x00\n        /* \"#utility.yul\":4349:4355   */\n      dup2\n        /* \"#utility.yul\":4336:4356   */\n      calldataload\n        /* \"#utility.yul\":4327:4356   */\n      swap1\n      pop\n        /* \"#utility.yul\":4365:4398   */\n      tag_371\n        /* \"#utility.yul\":4392:4397   */\n      dup2\n        /* \"#utility.yul\":4365:4398   */\n      tag_281\n      jump\t// in\n    tag_371:\n        /* \"#utility.yul\":4265:4404   */\n      swap3\n      swap2\n      pop\n      pop\n      jump\t// out\n        /* \"#utility.yul\":4410:4884   */\n    tag_39:\n        /* \"#utility.yul\":4478:4484   */\n      0x00\n        /* \"#utility.yul\":4486:4492   */\n      dup1\n        /* \"#utility.yul\":4535:4537   */\n      0x40\n        /* \"#utility.yul\":4523:4532   */\n      dup4\n        /* \"#utility.yul\":4514:4521   */\n      dup6\n        /* \"#utility.yul\":4510:4533   */\n      sub\n        /* \"#utility.yul\":4506:4538   */\n      slt\n        /* \"#utility.yul\":4503:4622   */\n      iszero\n      tag_373\n      jumpi\n        /* \"#utility.yul\":4541:4620   */\n      tag_374\n      tag_263\n      jump\t// in\n    tag_374:\n        /* \"#utility.yul\":4503:4622   */\n    tag_373:\n        /* \"#utility.yul\":4661:4662   */\n      0x00\n        /* \"#utility.yul\":4686:4739   */\n      tag_375\n        /* \"#utility.yul\":4731:4738   */\n      dup6\n        /* \"#utility.yul\":4722:4728   */\n      dup3\n        /* \"#utility.yul\":4711:4720   */\n      dup7\n        /* \"#utility.yul\":4707:4729   */\n      add\n        /* \"#utility.yul\":4686:4739   */\n      tag_282\n      jump\t// in\n    tag_375:\n        /* \"#utility.yul\":4676:4739   */\n      swap3\n      pop\n        /* \"#utility.yul\":4632:4749   */\n      pop\n        /* \"#utility.yul\":4788:4790   */\n      0x20\n        /* \"#utility.yul\":4814:4867   */\n      tag_376\n        /* \"#utility.yul\":4859:4866   */\n      dup6\n        /* \"#utility.yul\":4850:4856   */\n      dup3\n        /* \"#utility.yul\":4839:4848   */\n      dup7\n        /* \"#utility.yul\":4835:4857   */\n      add\n        /* \"#utility.yul\":4814:4867   */\n      tag_277\n      jump\t// in\n    tag_376:\n        /* \"#utility.yul\":4804:4867   */\n      swap2\n      pop\n        /* \"#utility.yul\":4759:4877   */\n      pop\n        /* \"#utility.yul\":4410:4884   */\n      swap3\n      pop\n      swap3\n      swap1\n      pop\n      jump\t// out\n        /* \"#utility.yul\":4890:5509   */\n    tag_43:\n        /* \"#utility.yul\":4967:4973   */\n      0x00\n        /* \"#utility.yul\":4975:4981   */\n      dup1\n        /* \"#utility.yul\":4983:4989   */\n      0x00\n        /* \"#utility.yul\":5032:5034   */\n      0x60\n        /* \"#utility.yul\":5020:5029   */\n      dup5\n        /* \"#utility.yul\":5011:5018   */\n      dup7\n        /* \"#utility.yul\":5007:5030   */\n      sub\n        /* \"#utility.yul\":5003:5035   */\n      slt\n        /* \"#utility.yul\":5000:5119   */\n      iszero\n      tag_378\n      jumpi\n        /* \"#utility.yul\":5038:5117   */\n      tag_379\n      tag_263\n      jump\t// in\n    tag_379:\n        /* \"#utility.yul\":5000:5119   */\n    tag_378:\n        /* \"#utility.yul\":5158:5159   */\n      0x00\n        /* \"#utility.yul\":5183:5236   */\n      tag_380\n        /* \"#utility.yul\":5228:5235   */\n      dup7\n        /* \"#utility.yul\":5219:5225   */\n      dup3\n        /* \"#utility.yul\":5208:5217   */\n      dup8\n        /* \"#utility.yul\":5204:5226   */\n      add\n        /* \"#utility.yul\":5183:5236   */\n      tag_282\n      jump\t// in\n    tag_380:\n        /* \"#utility.yul\":5173:5236   */\n      swap4\n      pop\n        /* \"#utility.yul\":5129:5246   */\n      pop\n        /* \"#utility.yul\":5285:5287   */\n      0x20\n        /* \"#utility.yul\":5311:5364   */\n      tag_381\n        /* \"#utility.yul\":5356:5363   */\n      dup7\n        /* \"#utility.yul\":5347:5353   */\n      dup3\n        /* \"#utility.yul\":5336:5345   */\n      dup8\n        /* \"#utility.yul\":5332:5354   */\n      add\n        /* \"#utility.yul\":5311:5364   */\n      tag_282\n      jump\t// in\n    tag_381:\n        /* \"#utility.yul\":5301:5364   */\n      swap3\n      pop\n        /* \"#utility.yul\":5256:5374   */\n      pop\n        /* \"#utility.yul\":5413:5415   */\n      0x40\n        /* \"#utility.yul\":5439:5492   */\n      tag_382\n        /* \"#utility.yul\":5484:5491   */\n      dup7\n        /* \"#utility.yul\":5475:5481   */\n      dup3\n        /* \"#utility.yul\":5464:5473   */\n      dup8\n        /* \"#utility.yul\":5460:5482   */\n      add\n        /* \"#utility.yul\":5439:5492   */\n      tag_277\n      jump\t// in\n    tag_382:\n        /* \"#utility.yul\":5429:5492   */\n      swap2\n      pop\n        /* \"#utility.yul\":5384:5502   */\n      pop\n        /* \"#utility.yul\":4890:5509   */\n      swap3\n      pop\n      swap3\n      pop\n      swap3\n      jump\t// out\n        /* \"#utility.yul\":5515:5844   */\n    tag_57:\n        /* \"#utility.yul\":5574:5580   */\n      0x00\n        /* \"#utility.yul\":5623:5625   */\n      0x20\n        /* \"#utility.yul\":5611:5620   */\n      dup3\n        /* \"#utility.yul\":5602:5609   */\n      dup5\n        /* \"#utility.yul\":5598:5621   */\n      sub\n        /* \"#utility.yul\":5594:5626   */\n      slt\n        /* \"#utility.yul\":5591:5710   */\n      iszero\n      tag_384\n      jumpi\n        /* \"#utility.yul\":5629:5708   */\n      tag_385\n      tag_263\n      jump\t// in\n    tag_385:\n        /* \"#utility.yul\":5591:5710   */\n    tag_384:\n        /* \"#utility.yul\":5749:5750   */\n      0x00\n        /* \"#utility.yul\":5774:5827   */\n      tag_386\n        /* \"#utility.yul\":5819:5826   */\n      dup5\n        /* \"#utility.yul\":5810:5816   */\n      dup3\n        /* \"#utility.yul\":5799:5808   */\n      dup6\n        /* \"#utility.yul\":5795:5817   */\n      add\n        /* \"#utility.yul\":5774:5827   */\n      tag_282\n      jump\t// in\n    tag_386:\n        /* \"#utility.yul\":5764:5827   */\n      swap2\n      pop\n        /* \"#utility.yul\":5720:5837   */\n      pop\n        /* \"#utility.yul\":5515:5844   */\n      swap3\n      swap2\n      pop\n      pop\n      jump\t// out\n        /* \"#utility.yul\":5850:5968   */\n    tag_283:\n        /* \"#utility.yul\":5937:5961   */\n      tag_388\n        /* \"#utility.yul\":5955:5960   */\n      dup2\n        /* \"#utility.yul\":5937:5961   */\n      tag_275\n      jump\t// in\n    tag_388:\n        /* \"#utility.yul\":5932:5935   */\n      dup3\n        /* \"#utility.yul\":5925:5962   */\n      mstore\n        /* \"#utility.yul\":5850:5968   */\n      pop\n      pop\n      jump\t// out\n        /* \"#utility.yul\":5974:6196   */\n    tag_60:\n        /* \"#utility.yul\":6067:6071   */\n      0x00\n        /* \"#utility.yul\":6105:6107   */\n      0x20\n        /* \"#utility.yul\":6094:6103   */\n      dup3\n        /* \"#utility.yul\":6090:6108   */\n      add\n        /* \"#utility.yul\":6082:6108   */\n      swap1\n      pop\n        /* \"#utility.yul\":6118:6189   */\n      tag_390\n        /* \"#utility.yul\":6186:6187   */\n      0x00\n        /* \"#utility.yul\":6175:6184   */\n      dup4\n        /* \"#utility.yul\":6171:6188   */\n      add\n        /* \"#utility.yul\":6162:6168   */\n      dup5\n        /* \"#utility.yul\":6118:6189   */\n      tag_283\n      jump\t// in\n    tag_390:\n        /* \"#utility.yul\":5974:6196   */\n      swap3\n      swap2\n      pop\n      pop\n      jump\t// out\n        /* \"#utility.yul\":6202:6318   */\n    tag_284:\n        /* \"#utility.yul\":6272:6293   */\n      tag_392\n        /* \"#utility.yul\":6287:6292   */\n      dup2\n        /* \"#utility.yul\":6272:6293   */\n      tag_268\n      jump\t// in\n    tag_392:\n        /* \"#utility.yul\":6265:6270   */\n      dup2\n        /* \"#utility.yul\":6262:6294   */\n      eq\n        /* \"#utility.yul\":6252:6312   */\n      tag_393\n      jumpi\n        /* \"#utility.yul\":6308:6309   */\n      0x00\n        /* \"#utility.yul\":6305:6306   */\n      dup1\n        /* \"#utility.yul\":6298:6310   */\n      revert\n        /* \"#utility.yul\":6252:6312   */\n    tag_393:\n        /* \"#utility.yul\":6202:6318   */\n      pop\n      jump\t// out\n        /* \"#utility.yul\":6324:6457   */\n    tag_285:\n        /* \"#utility.yul\":6367:6372   */\n      0x00\n        /* \"#utility.yul\":6405:6411   */\n      dup2\n        /* \"#utility.yul\":6392:6412   */\n      calldataload\n        /* \"#utility.yul\":6383:6412   */\n      swap1\n      pop\n        /* \"#utility.yul\":6421:6451   */\n      tag_395\n        /* \"#utility.yul\":6445:6450   */\n      dup2\n        /* \"#utility.yul\":6421:6451   */\n      tag_284\n      jump\t// in\n    tag_395:\n        /* \"#utility.yul\":6324:6457   */\n      swap3\n      swap2\n      pop\n      pop\n      jump\t// out\n        /* \"#utility.yul\":6463:6931   */\n    tag_66:\n        /* \"#utility.yul\":6528:6534   */\n      0x00\n        /* \"#utility.yul\":6536:6542   */\n      dup1\n        /* \"#utility.yul\":6585:6587   */\n      0x40\n        /* \"#utility.yul\":6573:6582   */\n      dup4\n        /* \"#utility.yul\":6564:6571   */\n      dup6\n        /* \"#utility.yul\":6560:6583   */\n      sub\n        /* \"#utility.yul\":6556:6588   */\n      slt\n        /* \"#utility.yul\":6553:6672   */\n      iszero\n      tag_397\n      jumpi\n        /* \"#utility.yul\":6591:6670   */\n      tag_398\n      tag_263\n      jump\t// in\n    tag_398:\n        /* \"#utility.yul\":6553:6672   */\n    tag_397:\n        /* \"#utility.yul\":6711:6712   */\n      0x00\n        /* \"#utility.yul\":6736:6789   */\n      tag_399\n        /* \"#utility.yul\":6781:6788   */\n      dup6\n        /* \"#utility.yul\":6772:6778   */\n      dup3\n        /* \"#utility.yul\":6761:6770   */\n      dup7\n        /* \"#utility.yul\":6757:6779   */\n      add\n        /* \"#utility.yul\":6736:6789   */\n      tag_282\n      jump\t// in\n    tag_399:\n        /* \"#utility.yul\":6726:6789   */\n      swap3\n      pop\n        /* \"#utility.yul\":6682:6799   */\n      pop\n        /* \"#utility.yul\":6838:6840   */\n      0x20\n        /* \"#utility.yul\":6864:6914   */\n      tag_400\n        /* \"#utility.yul\":6906:6913   */\n      dup6\n        /* \"#utility.yul\":6897:6903   */\n      dup3\n        /* \"#utility.yul\":6886:6895   */\n      dup7\n        /* \"#utility.yul\":6882:6904   */\n      add\n        /* \"#utility.yul\":6864:6914   */\n      tag_285\n      jump\t// in\n    tag_400:\n        /* \"#utility.yul\":6854:6914   */\n      swap2\n      pop\n        /* \"#utility.yul\":6809:6924   */\n      pop\n        /* \"#utility.yul\":6463:6931   */\n      swap3\n      pop\n      swap3\n      swap1\n      pop\n      jump\t// out\n        /* \"#utility.yul\":6937:7054   */\n    tag_286:\n        /* \"#utility.yul\":7046:7047   */\n      0x00\n        /* \"#utility.yul\":7043:7044   */\n      dup1\n        /* \"#utility.yul\":7036:7048   */\n      revert\n        /* \"#utility.yul\":7060:7177   */\n    tag_287:\n        /* \"#utility.yul\":7169:7170   */\n      0x00\n        /* \"#utility.yul\":7166:7167   */\n      dup1\n        /* \"#utility.yul\":7159:7171   */\n      revert\n        /* \"#utility.yul\":7183:7363   */\n    tag_210:\n        /* \"#utility.yul\":7231:7308   */\n      0x4e487b7100000000000000000000000000000000000000000000000000000000\n        /* \"#utility.yul\":7228:7229   */\n      0x00\n        /* \"#utility.yul\":7221:7309   */\n      mstore\n        /* \"#utility.yul\":7328:7332   */\n      0x41\n        /* \"#utility.yul\":7325:7326   */\n      0x04\n        /* \"#utility.yul\":7318:7333   */\n      mstore\n        /* \"#utility.yul\":7352:7356   */\n      0x24\n        /* \"#utility.yul\":7349:7350   */\n      0x00\n        /* \"#utility.yul\":7342:7357   */\n      revert\n        /* \"#utility.yul\":7369:7650   */\n    tag_288:\n        /* \"#utility.yul\":7452:7479   */\n      tag_405\n        /* \"#utility.yul\":7474:7478   */\n      dup3\n        /* \"#utility.yul\":7452:7479   */\n      tag_273\n      jump\t// in\n    tag_405:\n        /* \"#utility.yul\":7444:7450   */\n      dup2\n        /* \"#utility.yul\":7440:7480   */\n      add\n        /* \"#utility.yul\":7582:7588   */\n      dup2\n        /* \"#utility.yul\":7570:7580   */\n      dup2\n        /* \"#utility.yul\":7567:7589   */\n      lt\n        /* \"#utility.yul\":7546:7564   */\n      0xffffffffffffffff\n        /* \"#utility.yul\":7534:7544   */\n      dup3\n        /* \"#utility.yul\":7531:7565   */\n      gt\n        /* \"#utility.yul\":7528:7590   */\n      or\n        /* \"#utility.yul\":7525:7613   */\n      iszero\n      tag_406\n      jumpi\n        /* \"#utility.yul\":7593:7611   */\n      tag_407\n      tag_210\n      jump\t// in\n    tag_407:\n        /* \"#utility.yul\":7525:7613   */\n    tag_406:\n        /* \"#utility.yul\":7633:7643   */\n      dup1\n        /* \"#utility.yul\":7629:7631   */\n      0x40\n        /* \"#utility.yul\":7622:7644   */\n      mstore\n        /* \"#utility.yul\":7412:7650   */\n      pop\n        /* \"#utility.yul\":7369:7650   */\n      pop\n      pop\n      jump\t// out\n        /* \"#utility.yul\":7656:7785   */\n    tag_289:\n        /* \"#utility.yul\":7690:7696   */\n      0x00\n        /* \"#utility.yul\":7717:7737   */\n      tag_409\n      tag_262\n      jump\t// in\n    tag_409:\n        /* \"#utility.yul\":7707:7737   */\n      swap1\n      pop\n        /* \"#utility.yul\":7746:7779   */\n      tag_410\n        /* \"#utility.yul\":7774:7778   */\n      dup3\n        /* \"#utility.yul\":7766:7772   */\n      dup3\n        /* \"#utility.yul\":7746:7779   */\n      tag_288\n      jump\t// in\n    tag_410:\n        /* \"#utility.yul\":7656:7785   */\n      swap2\n      swap1\n      pop\n      jump\t// out\n        /* \"#utility.yul\":7791:8098   */\n    tag_290:\n        /* \"#utility.yul\":7852:7856   */\n      0x00\n        /* \"#utility.yul\":7942:7960   */\n      0xffffffffffffffff\n        /* \"#utility.yul\":7934:7940   */\n      dup3\n        /* \"#utility.yul\":7931:7961   */\n      gt\n        /* \"#utility.yul\":7928:7984   */\n      iszero\n      tag_412\n      jumpi\n        /* \"#utility.yul\":7964:7982   */\n      tag_413\n      tag_210\n      jump\t// in\n    tag_413:\n        /* \"#utility.yul\":7928:7984   */\n    tag_412:\n        /* \"#utility.yul\":8002:8031   */\n      tag_414\n        /* \"#utility.yul\":8024:8030   */\n      dup3\n        /* \"#utility.yul\":8002:8031   */\n      tag_273\n      jump\t// in\n    tag_414:\n        /* \"#utility.yul\":7994:8031   */\n      swap1\n      pop\n        /* \"#utility.yul\":8086:8090   */\n      0x20\n        /* \"#utility.yul\":8080:8084   */\n      dup2\n        /* \"#utility.yul\":8076:8091   */\n      add\n        /* \"#utility.yul\":8068:8091   */\n      swap1\n      pop\n        /* \"#utility.yul\":7791:8098   */\n      swap2\n      swap1\n      pop\n      jump\t// out\n        /* \"#utility.yul\":8104:8250   */\n    tag_291:\n        /* \"#utility.yul\":8201:8207   */\n      dup3\n        /* \"#utility.yul\":8196:8199   */\n      dup2\n        /* \"#utility.yul\":8191:8194   */\n      dup4\n        /* \"#utility.yul\":8178:8208   */\n      calldatacopy\n        /* \"#utility.yul\":8242:8243   */\n      0x00\n        /* \"#utility.yul\":8233:8239   */\n      dup4\n        /* \"#utility.yul\":8228:8231   */\n      dup4\n        /* \"#utility.yul\":8224:8240   */\n      add\n        /* \"#utility.yul\":8217:8244   */\n      mstore\n        /* \"#utility.yul\":8104:8250   */\n      pop\n      pop\n      pop\n      jump\t// out\n        /* \"#utility.yul\":8256:8679   */\n    tag_292:\n        /* \"#utility.yul\":8333:8338   */\n      0x00\n        /* \"#utility.yul\":8358:8423   */\n      tag_417\n        /* \"#utility.yul\":8374:8422   */\n      tag_418\n        /* \"#utility.yul\":8415:8421   */\n      dup5\n        /* \"#utility.yul\":8374:8422   */\n      tag_290\n      jump\t// in\n    tag_418:\n        /* \"#utility.yul\":8358:8423   */\n      tag_289\n      jump\t// in\n    tag_417:\n        /* \"#utility.yul\":8349:8423   */\n      swap1\n      pop\n        /* \"#utility.yul\":8446:8452   */\n      dup3\n        /* \"#utility.yul\":8439:8444   */\n      dup2\n        /* \"#utility.yul\":8432:8453   */\n      mstore\n        /* \"#utility.yul\":8484:8488   */\n      0x20\n        /* \"#utility.yul\":8477:8482   */\n      dup2\n        /* \"#utility.yul\":8473:8489   */\n      add\n        /* \"#utility.yul\":8522:8525   */\n      dup5\n        /* \"#utility.yul\":8513:8519   */\n      dup5\n        /* \"#utility.yul\":8508:8511   */\n      dup5\n        /* \"#utility.yul\":8504:8520   */\n      add\n        /* \"#utility.yul\":8501:8526   */\n      gt\n        /* \"#utility.yul\":8498:8610   */\n      iszero\n      tag_419\n      jumpi\n        /* \"#utility.yul\":8529:8608   */\n      tag_420\n      tag_287\n      jump\t// in\n    tag_420:\n        /* \"#utility.yul\":8498:8610   */\n    tag_419:\n        /* \"#utility.yul\":8619:8673   */\n      tag_421\n        /* \"#utility.yul\":8666:8672   */\n      dup5\n        /* \"#utility.yul\":8661:8664   */\n      dup3\n        /* \"#utility.yul\":8656:8659   */\n      dup6\n        /* \"#utility.yul\":8619:8673   */\n      tag_291\n      jump\t// in\n    tag_421:\n        /* \"#utility.yul\":8339:8679   */\n      pop\n        /* \"#utility.yul\":8256:8679   */\n      swap4\n      swap3\n      pop\n      pop\n      pop\n      jump\t// out\n        /* \"#utility.yul\":8698:9036   */\n    tag_293:\n        /* \"#utility.yul\":8753:8758   */\n      0x00\n        /* \"#utility.yul\":8802:8805   */\n      dup3\n        /* \"#utility.yul\":8795:8799   */\n      0x1f\n        /* \"#utility.yul\":8787:8793   */\n      dup4\n        /* \"#utility.yul\":8783:8800   */\n      add\n        /* \"#utility.yul\":8779:8806   */\n      slt\n        /* \"#utility.yul\":8769:8891   */\n      tag_423\n      jumpi\n        /* \"#utility.yul\":8810:8889   */\n      tag_424\n      tag_286\n      jump\t// in\n    tag_424:\n        /* \"#utility.yul\":8769:8891   */\n    tag_423:\n        /* \"#utility.yul\":8927:8933   */\n      dup2\n        /* \"#utility.yul\":8914:8934   */\n      calldataload\n        /* \"#utility.yul\":8952:9030   */\n      tag_425\n        /* \"#utility.yul\":9026:9029   */\n      dup5\n        /* \"#utility.yul\":9018:9024   */\n      dup3\n        /* \"#utility.yul\":9011:9015   */\n      0x20\n        /* \"#utility.yul\":9003:9009   */\n      dup7\n        /* \"#utility.yul\":8999:9016   */\n      add\n        /* \"#utility.yul\":8952:9030   */\n      tag_292\n      jump\t// in\n    tag_425:\n        /* \"#utility.yul\":8943:9030   */\n      swap2\n      pop\n        /* \"#utility.yul\":8759:9036   */\n      pop\n        /* \"#utility.yul\":8698:9036   */\n      swap3\n      swap2\n      pop\n      pop\n      jump\t// out\n        /* \"#utility.yul\":9042:9985   */\n    tag_73:\n        /* \"#utility.yul\":9137:9143   */\n      0x00\n        /* \"#utility.yul\":9145:9151   */\n      dup1\n        /* \"#utility.yul\":9153:9159   */\n      0x00\n        /* \"#utility.yul\":9161:9167   */\n      dup1\n        /* \"#utility.yul\":9210:9213   */\n      0x80\n        /* \"#utility.yul\":9198:9207   */\n      dup6\n        /* \"#utility.yul\":9189:9196   */\n      dup8\n        /* \"#utility.yul\":9185:9208   */\n      sub\n        /* \"#utility.yul\":9181:9214   */\n      slt\n        /* \"#utility.yul\":9178:9298   */\n      iszero\n      tag_427\n      jumpi\n        /* \"#utility.yul\":9217:9296   */\n      tag_428\n      tag_263\n      jump\t// in\n    tag_428:\n        /* \"#utility.yul\":9178:9298   */\n    tag_427:\n        /* \"#utility.yul\":9337:9338   */\n      0x00\n        /* \"#utility.yul\":9362:9415   */\n      tag_429\n        /* \"#utility.yul\":9407:9414   */\n      dup8\n        /* \"#utility.yul\":9398:9404   */\n      dup3\n        /* \"#utility.yul\":9387:9396   */\n      dup9\n        /* \"#utility.yul\":9383:9405   */\n      add\n        /* \"#utility.yul\":9362:9415   */\n      tag_282\n      jump\t// in\n    tag_429:\n        /* \"#utility.yul\":9352:9415   */\n      swap5\n      pop\n        /* \"#utility.yul\":9308:9425   */\n      pop\n        /* \"#utility.yul\":9464:9466   */\n      0x20\n        /* \"#utility.yul\":9490:9543   */\n      tag_430\n        /* \"#utility.yul\":9535:9542   */\n      dup8\n        /* \"#utility.yul\":9526:9532   */\n      dup3\n        /* \"#utility.yul\":9515:9524   */\n      dup9\n        /* \"#utility.yul\":9511:9533   */\n      add\n        /* \"#utility.yul\":9490:9543   */\n      tag_282\n      jump\t// in\n    tag_430:\n        /* \"#utility.yul\":9480:9543   */\n      swap4\n      pop\n        /* \"#utility.yul\":9435:9553   */\n      pop\n        /* \"#utility.yul\":9592:9594   */\n      0x40\n        /* \"#utility.yul\":9618:9671   */\n      tag_431\n        /* \"#utility.yul\":9663:9670   */\n      dup8\n        /* \"#utility.yul\":9654:9660   */\n      dup3\n        /* \"#utility.yul\":9643:9652   */\n      dup9\n        /* \"#utility.yul\":9639:9661   */\n      add\n        /* \"#utility.yul\":9618:9671   */\n      tag_277\n      jump\t// in\n    tag_431:\n        /* \"#utility.yul\":9608:9671   */\n      swap3\n      pop\n        /* \"#utility.yul\":9563:9681   */\n      pop\n        /* \"#utility.yul\":9748:9750   */\n      0x60\n        /* \"#utility.yul\":9737:9746   */\n      dup6\n        /* \"#utility.yul\":9733:9751   */\n      add\n        /* \"#utility.yul\":9720:9752   */\n      calldataload\n        /* \"#utility.yul\":9779:9797   */\n      0xffffffffffffffff\n        /* \"#utility.yul\":9771:9777   */\n      dup2\n        /* \"#utility.yul\":9768:9798   */\n      gt\n        /* \"#utility.yul\":9765:9882   */\n      iszero\n      tag_432\n      jumpi\n        /* \"#utility.yul\":9801:9880   */\n      tag_433\n      tag_264\n      jump\t// in\n    tag_433:\n        /* \"#utility.yul\":9765:9882   */\n    tag_432:\n        /* \"#utility.yul\":9906:9968   */\n      tag_434\n        /* \"#utility.yul\":9960:9967   */\n      dup8\n        /* \"#utility.yul\":9951:9957   */\n      dup3\n        /* \"#utility.yul\":9940:9949   */\n      dup9\n        /* \"#utility.yul\":9936:9958   */\n      add\n        /* \"#utility.yul\":9906:9968   */\n      tag_293\n      jump\t// in\n    tag_434:\n        /* \"#utility.yul\":9896:9968   */\n      swap2\n      pop\n        /* \"#utility.yul\":9691:9978   */\n      pop\n        /* \"#utility.yul\":9042:9985   */\n      swap3\n      swap6\n      swap2\n      swap5\n      pop\n      swap3\n      pop\n      jump\t// out\n        /* \"#utility.yul\":9991:10465   */\n    tag_81:\n        /* \"#utility.yul\":10059:10065   */\n      0x00\n        /* \"#utility.yul\":10067:10073   */\n      dup1\n        /* \"#utility.yul\":10116:10118   */\n      0x40\n        /* \"#utility.yul\":10104:10113   */\n      dup4\n        /* \"#utility.yul\":10095:10102   */\n      dup6\n        /* \"#utility.yul\":10091:10114   */\n      sub\n        /* \"#utility.yul\":10087:10119   */\n      slt\n        /* \"#utility.yul\":10084:10203   */\n      iszero\n      tag_436\n      jumpi\n        /* \"#utility.yul\":10122:10201   */\n      tag_437\n      tag_263\n      jump\t// in\n    tag_437:\n        /* \"#utility.yul\":10084:10203   */\n    tag_436:\n        /* \"#utility.yul\":10242:10243   */\n      0x00\n        /* \"#utility.yul\":10267:10320   */\n      tag_438\n        /* \"#utility.yul\":10312:10319   */\n      dup6\n        /* \"#utility.yul\":10303:10309   */\n      dup3\n        /* \"#utility.yul\":10292:10301   */\n      dup7\n        /* \"#utility.yul\":10288:10310   */\n      add\n        /* \"#utility.yul\":10267:10320   */\n      tag_282\n      jump\t// in\n    tag_438:\n        /* \"#utility.yul\":10257:10320   */\n      swap3\n      pop\n        /* \"#utility.yul\":10213:10330   */\n      pop\n        /* \"#utility.yul\":10369:10371   */\n      0x20\n        /* \"#utility.yul\":10395:10448   */\n      tag_439\n        /* \"#utility.yul\":10440:10447   */\n      dup6\n        /* \"#utility.yul\":10431:10437   */\n      dup3\n        /* \"#utility.yul\":10420:10429   */\n      dup7\n        /* \"#utility.yul\":10416:10438   */\n      add\n        /* \"#utility.yul\":10395:10448   */\n      tag_282\n      jump\t// in\n    tag_439:\n        /* \"#utility.yul\":10385:10448   */\n      swap2\n      pop\n        /* \"#utility.yul\":10340:10458   */\n      pop\n        /* \"#utility.yul\":9991:10465   */\n      swap3\n      pop\n      swap3\n      swap1\n      pop\n      jump\t// out\n        /* \"#utility.yul\":10471:10651   */\n    tag_294:\n        /* \"#utility.yul\":10519:10596   */\n      0x4e487b7100000000000000000000000000000000000000000000000000000000\n        /* \"#utility.yul\":10516:10517   */\n      0x00\n        /* \"#utility.yul\":10509:10597   */\n      mstore\n        /* \"#utility.yul\":10616:10620   */\n      0x22\n        /* \"#utility.yul\":10613:10614   */\n      0x04\n        /* \"#utility.yul\":10606:10621   */\n      mstore\n        /* \"#utility.yul\":10640:10644   */\n      0x24\n        /* \"#utility.yul\":10637:10638   */\n      0x00\n        /* \"#utility.yul\":10630:10645   */\n      revert\n        /* \"#utility.yul\":10657:10977   */\n    tag_91:\n        /* \"#utility.yul\":10701:10707   */\n      0x00\n        /* \"#utility.yul\":10738:10739   */\n      0x02\n        /* \"#utility.yul\":10732:10736   */\n      dup3\n        /* \"#utility.yul\":10728:10740   */\n      div\n        /* \"#utility.yul\":10718:10740   */\n      swap1\n      pop\n        /* \"#utility.yul\":10785:10786   */\n      0x01\n        /* \"#utility.yul\":10779:10783   */\n      dup3\n        /* \"#utility.yul\":10775:10787   */\n      and\n        /* \"#utility.yul\":10806:10824   */\n      dup1\n        /* \"#utility.yul\":10796:10877   */\n      tag_442\n      jumpi\n        /* \"#utility.yul\":10862:10866   */\n      0x7f\n        /* \"#utility.yul\":10854:10860   */\n      dup3\n        /* \"#utility.yul\":10850:10867   */\n      and\n        /* \"#utility.yul\":10840:10867   */\n      swap2\n      pop\n        /* \"#utility.yul\":10796:10877   */\n    tag_442:\n        /* \"#utility.yul\":10924:10926   */\n      0x20\n        /* \"#utility.yul\":10916:10922   */\n      dup3\n        /* \"#utility.yul\":10913:10927   */\n      lt\n        /* \"#utility.yul\":10893:10911   */\n      dup2\n        /* \"#utility.yul\":10890:10928   */\n      sub\n        /* \"#utility.yul\":10887:10971   */\n      tag_443\n      jumpi\n        /* \"#utility.yul\":10943:10961   */\n      tag_444\n      tag_294\n      jump\t// in\n    tag_444:\n        /* \"#utility.yul\":10887:10971   */\n    tag_443:\n        /* \"#utility.yul\":10708:10977   */\n      pop\n        /* \"#utility.yul\":10657:10977   */\n      swap2\n      swap1\n      pop\n      jump\t// out\n        /* \"#utility.yul\":10983:11203   */\n    tag_295:\n        /* \"#utility.yul\":11123:11157   */\n      0x4552433732313a20617070726f76616c20746f2063757272656e74206f776e65\n        /* \"#utility.yul\":11119:11120   */\n      0x00\n        /* \"#utility.yul\":11111:11117   */\n      dup3\n        /* \"#utility.yul\":11107:11121   */\n      add\n        /* \"#utility.yul\":11100:11158   */\n      mstore\n        /* \"#utility.yul\":11192:11195   */\n      0x7200000000000000000000000000000000000000000000000000000000000000\n        /* \"#utility.yul\":11187:11189   */\n      0x20\n        /* \"#utility.yul\":11179:11185   */\n      dup3\n        /* \"#utility.yul\":11175:11190   */\n      add\n        /* \"#utility.yul\":11168:11196   */\n      mstore\n        /* \"#utility.yul\":10983:11203   */\n      pop\n      jump\t// out\n        /* \"#utility.yul\":11209:11575   */\n    tag_296:\n        /* \"#utility.yul\":11351:11354   */\n      0x00\n        /* \"#utility.yul\":11372:11439   */\n      tag_447\n        /* \"#utility.yul\":11436:11438   */\n      0x21\n        /* \"#utility.yul\":11431:11434   */\n      dup4\n        /* \"#utility.yul\":11372:11439   */\n      tag_271\n      jump\t// in\n    tag_447:\n        /* \"#utility.yul\":11365:11439   */\n      swap2\n      pop\n        /* \"#utility.yul\":11448:11541   */\n      tag_448\n        /* \"#utility.yul\":11537:11540   */\n      dup3\n        /* \"#utility.yul\":11448:11541   */\n      tag_295\n      jump\t// in\n    tag_448:\n        /* \"#utility.yul\":11566:11568   */\n      0x40\n        /* \"#utility.yul\":11561:11564   */\n      dup3\n        /* \"#utility.yul\":11557:11569   */\n      add\n        /* \"#utility.yul\":11550:11569   */\n      swap1\n      pop\n        /* \"#utility.yul\":11209:11575   */\n      swap2\n      swap1\n      pop\n      jump\t// out\n        /* \"#utility.yul\":11581:12000   */\n    tag_103:\n        /* \"#utility.yul\":11747:11751   */\n      0x00\n        /* \"#utility.yul\":11785:11787   */\n      0x20\n        /* \"#utility.yul\":11774:11783   */\n      dup3\n        /* \"#utility.yul\":11770:11788   */\n      add\n        /* \"#utility.yul\":11762:11788   */\n      swap1\n      pop\n        /* \"#utility.yul\":11834:11843   */\n      dup2\n        /* \"#utility.yul\":11828:11832   */\n      dup2\n        /* \"#utility.yul\":11824:11844   */\n      sub\n        /* \"#utility.yul\":11820:11821   */\n      0x00\n        /* \"#utility.yul\":11809:11818   */\n      dup4\n        /* \"#utility.yul\":11805:11822   */\n      add\n        /* \"#utility.yul\":11798:11845   */\n      mstore\n        /* \"#utility.yul\":11862:11993   */\n      tag_450\n        /* \"#utility.yul\":11988:11992   */\n      dup2\n        /* \"#utility.yul\":11862:11993   */\n      tag_296\n      jump\t// in\n    tag_450:\n        /* \"#utility.yul\":11854:11993   */\n      swap1\n      pop\n        /* \"#utility.yul\":11581:12000   */\n      swap2\n      swap1\n      pop\n      jump\t// out\n        /* \"#utility.yul\":12006:12254   */\n    tag_297:\n        /* \"#utility.yul\":12146:12180   */\n      0x4552433732313a20617070726f76652063616c6c6572206973206e6f7420746f\n        /* \"#utility.yul\":12142:12143   */\n      0x00\n        /* \"#utility.yul\":12134:12140   */\n      dup3\n        /* \"#utility.yul\":12130:12144   */\n      add\n        /* \"#utility.yul\":12123:12181   */\n      mstore\n        /* \"#utility.yul\":12215:12246   */\n      0x6b656e206f776e6572206f7220617070726f76656420666f7220616c6c000000\n        /* \"#utility.yul\":12210:12212   */\n      0x20\n        /* \"#utility.yul\":12202:12208   */\n      dup3\n        /* \"#utility.yul\":12198:12213   */\n      add\n        /* \"#utility.yul\":12191:12247   */\n      mstore\n        /* \"#utility.yul\":12006:12254   */\n      pop\n      jump\t// out\n        /* \"#utility.yul\":12260:12626   */\n    tag_298:\n        /* \"#utility.yul\":12402:12405   */\n      0x00\n        /* \"#utility.yul\":12423:12490   */\n      tag_453\n        /* \"#utility.yul\":12487:12489   */\n      0x3d\n        /* \"#utility.yul\":12482:12485   */\n      dup4\n        /* \"#utility.yul\":12423:12490   */\n      tag_271\n      jump\t// in\n    tag_453:\n        /* \"#utility.yul\":12416:12490   */\n      swap2\n      pop\n        /* \"#utility.yul\":12499:12592   */\n      tag_454\n        /* \"#utility.yul\":12588:12591   */\n      dup3\n        /* \"#utility.yul\":12499:12592   */\n      tag_297\n      jump\t// in\n    tag_454:\n        /* \"#utility.yul\":12617:12619   */\n      0x40\n        /* \"#utility.yul\":12612:12615   */\n      dup3\n        /* \"#utility.yul\":12608:12620   */\n      add\n        /* \"#utility.yul\":12601:12620   */\n      swap1\n      pop\n        /* \"#utility.yul\":12260:12626   */\n      swap2\n      swap1\n      pop\n      jump\t// out\n        /* \"#utility.yul\":12632:13051   */\n    tag_111:\n        /* \"#utility.yul\":12798:12802   */\n      0x00\n        /* \"#utility.yul\":12836:12838   */\n      0x20\n        /* \"#utility.yul\":12825:12834   */\n      dup3\n        /* \"#utility.yul\":12821:12839   */\n      add\n        /* \"#utility.yul\":12813:12839   */\n      swap1\n      pop\n        /* \"#utility.yul\":12885:12894   */\n      dup2\n        /* \"#utility.yul\":12879:12883   */\n      dup2\n        /* \"#utility.yul\":12875:12895   */\n      sub\n        /* \"#utility.yul\":12871:12872   */\n      0x00\n        /* \"#utility.yul\":12860:12869   */\n      dup4\n        /* \"#utility.yul\":12856:12873   */\n      add\n        /* \"#utility.yul\":12849:12896   */\n      mstore\n        /* \"#utility.yul\":12913:13044   */\n      tag_456\n        /* \"#utility.yul\":13039:13043   */\n      dup2\n        /* \"#utility.yul\":12913:13044   */\n      tag_298\n      jump\t// in\n    tag_456:\n        /* \"#utility.yul\":12905:13044   */\n      swap1\n      pop\n        /* \"#utility.yul\":12632:13051   */\n      swap2\n      swap1\n      pop\n      jump\t// out\n        /* \"#utility.yul\":13057:13289   */\n    tag_299:\n        /* \"#utility.yul\":13197:13231   */\n      0x4552433732313a2063616c6c6572206973206e6f7420746f6b656e206f776e65\n        /* \"#utility.yul\":13193:13194   */\n      0x00\n        /* \"#utility.yul\":13185:13191   */\n      dup3\n        /* \"#utility.yul\":13181:13195   */\n      add\n        /* \"#utility.yul\":13174:13232   */\n      mstore\n        /* \"#utility.yul\":13266:13281   */\n      0x72206f7220617070726f76656400000000000000000000000000000000000000\n        /* \"#utility.yul\":13261:13263   */\n      0x20\n        /* \"#utility.yul\":13253:13259   */\n      dup3\n        /* \"#utility.yul\":13249:13264   */\n      add\n        /* \"#utility.yul\":13242:13282   */\n      mstore\n        /* \"#utility.yul\":13057:13289   */\n      pop\n      jump\t// out\n        /* \"#utility.yul\":13295:13661   */\n    tag_300:\n        /* \"#utility.yul\":13437:13440   */\n      0x00\n        /* \"#utility.yul\":13458:13525   */\n      tag_459\n        /* \"#utility.yul\":13522:13524   */\n      0x2d\n        /* \"#utility.yul\":13517:13520   */\n      dup4\n        /* \"#utility.yul\":13458:13525   */\n      tag_271\n      jump\t// in\n    tag_459:\n        /* \"#utility.yul\":13451:13525   */\n      swap2\n      pop\n        /* \"#utility.yul\":13534:13627   */\n      tag_460\n        /* \"#utility.yul\":13623:13626   */\n      dup3\n        /* \"#utility.yul\":13534:13627   */\n      tag_299\n      jump\t// in\n    tag_460:\n        /* \"#utility.yul\":13652:13654   */\n      0x40\n        /* \"#utility.yul\":13647:13650   */\n      dup3\n        /* \"#utility.yul\":13643:13655   */\n      add\n        /* \"#utility.yul\":13636:13655   */\n      swap1\n      pop\n        /* \"#utility.yul\":13295:13661   */\n      swap2\n      swap1\n      pop\n      jump\t// out\n        /* \"#utility.yul\":13667:14086   */\n    tag_120:\n        /* \"#utility.yul\":13833:13837   */\n      0x00\n        /* \"#utility.yul\":13871:13873   */\n      0x20\n        /* \"#utility.yul\":13860:13869   */\n      dup3\n        /* \"#utility.yul\":13856:13874   */\n      add\n        /* \"#utility.yul\":13848:13874   */\n      swap1\n      pop\n        /* \"#utility.yul\":13920:13929   */\n      dup2\n        /* \"#utility.yul\":13914:13918   */\n      dup2\n        /* \"#utility.yul\":13910:13930   */\n      sub\n        /* \"#utility.yul\":13906:13907   */\n      0x00\n        /* \"#utility.yul\":13895:13904   */\n      dup4\n        /* \"#utility.yul\":13891:13908   */\n      add\n        /* \"#utility.yul\":13884:13931   */\n      mstore\n        /* \"#utility.yul\":13948:14079   */\n      tag_462\n        /* \"#utility.yul\":14074:14078   */\n      dup2\n        /* \"#utility.yul\":13948:14079   */\n      tag_300\n      jump\t// in\n    tag_462:\n        /* \"#utility.yul\":13940:14079   */\n      swap1\n      pop\n        /* \"#utility.yul\":13667:14086   */\n      swap2\n      swap1\n      pop\n      jump\t// out\n        /* \"#utility.yul\":14092:14316   */\n    tag_301:\n        /* \"#utility.yul\":14232:14266   */\n      0x4552433732313a207472616e736665722066726f6d20696e636f727265637420\n        /* \"#utility.yul\":14228:14229   */\n      0x00\n        /* \"#utility.yul\":14220:14226   */\n      dup3\n        /* \"#utility.yul\":14216:14230   */\n      add\n        /* \"#utility.yul\":14209:14267   */\n      mstore\n        /* \"#utility.yul\":14301:14308   */\n      0x6f776e6572000000000000000000000000000000000000000000000000000000\n        /* \"#utility.yul\":14296:14298   */\n      0x20\n        /* \"#utility.yul\":14288:14294   */\n      dup3\n        /* \"#utility.yul\":14284:14299   */\n      add\n        /* \"#utility.yul\":14277:14309   */\n      mstore\n        /* \"#utility.yul\":14092:14316   */\n      pop\n      jump\t// out\n        /* \"#utility.yul\":14322:14688   */\n    tag_302:\n        /* \"#utility.yul\":14464:14467   */\n      0x00\n        /* \"#utility.yul\":14485:14552   */\n      tag_465\n        /* \"#utility.yul\":14549:14551   */\n      0x25\n        /* \"#utility.yul\":14544:14547   */\n      dup4\n        /* \"#utility.yul\":14485:14552   */\n      tag_271\n      jump\t// in\n    tag_465:\n        /* \"#utility.yul\":14478:14552   */\n      swap2\n      pop\n        /* \"#utility.yul\":14561:14654   */\n      tag_466\n        /* \"#utility.yul\":14650:14653   */\n      dup3\n        /* \"#utility.yul\":14561:14654   */\n      tag_301\n      jump\t// in\n    tag_466:\n        /* \"#utility.yul\":14679:14681   */\n      0x40\n        /* \"#utility.yul\":14674:14677   */\n      dup3\n        /* \"#utility.yul\":14670:14682   */\n      add\n        /* \"#utility.yul\":14663:14682   */\n      swap1\n      pop\n        /* \"#utility.yul\":14322:14688   */\n      swap2\n      swap1\n      pop\n      jump\t// out\n        /* \"#utility.yul\":14694:15113   */\n    tag_126:\n        /* \"#utility.yul\":14860:14864   */\n      0x00\n        /* \"#utility.yul\":14898:14900   */\n      0x20\n        /* \"#utility.yul\":14887:14896   */\n      dup3\n        /* \"#utility.yul\":14883:14901   */\n      add\n        /* \"#utility.yul\":14875:14901   */\n      swap1\n      pop\n        /* \"#utility.yul\":14947:14956   */\n      dup2\n        /* \"#utility.yul\":14941:14945   */\n      dup2\n        /* \"#utility.yul\":14937:14957   */\n      sub\n        /* \"#utility.yul\":14933:14934   */\n      0x00\n        /* \"#utility.yul\":14922:14931   */\n      dup4\n        /* \"#utility.yul\":14918:14935   */\n      add\n        /* \"#utility.yul\":14911:14958   */\n      mstore\n        /* \"#utility.yul\":14975:15106   */\n      tag_468\n        /* \"#utility.yul\":15101:15105   */\n      dup2\n        /* \"#utility.yul\":14975:15106   */\n      tag_302\n      jump\t// in\n    tag_468:\n        /* \"#utility.yul\":14967:15106   */\n      swap1\n      pop\n        /* \"#utility.yul\":14694:15113   */\n      swap2\n      swap1\n      pop\n      jump\t// out\n        /* \"#utility.yul\":15119:15293   */\n    tag_303:\n        /* \"#utility.yul\":15259:15285   */\n      0x4552433732313a20696e76616c696420746f6b656e2049440000000000000000\n        /* \"#utility.yul\":15255:15256   */\n      0x00\n        /* \"#utility.yul\":15247:15253   */\n      dup3\n        /* \"#utility.yul\":15243:15257   */\n      add\n        /* \"#utility.yul\":15236:15286   */\n      mstore\n        /* \"#utility.yul\":15119:15293   */\n      pop\n      jump\t// out\n        /* \"#utility.yul\":15299:15665   */\n    tag_304:\n        /* \"#utility.yul\":15441:15444   */\n      0x00\n        /* \"#utility.yul\":15462:15529   */\n      tag_471\n        /* \"#utility.yul\":15526:15528   */\n      0x18\n        /* \"#utility.yul\":15521:15524   */\n      dup4\n        /* \"#utility.yul\":15462:15529   */\n      tag_271\n      jump\t// in\n    tag_471:\n        /* \"#utility.yul\":15455:15529   */\n      swap2\n      pop\n        /* \"#utility.yul\":15538:15631   */\n      tag_472\n        /* \"#utility.yul\":15627:15630   */\n      dup3\n        /* \"#utility.yul\":15538:15631   */\n      tag_303\n      jump\t// in\n    tag_472:\n        /* \"#utility.yul\":15656:15658   */\n      0x20\n        /* \"#utility.yul\":15651:15654   */\n      dup3\n        /* \"#utility.yul\":15647:15659   */\n      add\n        /* \"#utility.yul\":15640:15659   */\n      swap1\n      pop\n        /* \"#utility.yul\":15299:15665   */\n      swap2\n      swap1\n      pop\n      jump\t// out\n        /* \"#utility.yul\":15671:16090   */\n    tag_141:\n        /* \"#utility.yul\":15837:15841   */\n      0x00\n        /* \"#utility.yul\":15875:15877   */\n      0x20\n        /* \"#utility.yul\":15864:15873   */\n      dup3\n        /* \"#utility.yul\":15860:15878   */\n      add\n        /* \"#utility.yul\":15852:15878   */\n      swap1\n      pop\n        /* \"#utility.yul\":15924:15933   */\n      dup2\n        /* \"#utility.yul\":15918:15922   */\n      dup2\n        /* \"#utility.yul\":15914:15934   */\n      sub\n        /* \"#utility.yul\":15910:15911   */\n      0x00\n        /* \"#utility.yul\":15899:15908   */\n      dup4\n        /* \"#utility.yul\":15895:15912   */\n      add\n        /* \"#utility.yul\":15888:15935   */\n      mstore\n        /* \"#utility.yul\":15952:16083   */\n      tag_474\n        /* \"#utility.yul\":16078:16082   */\n      dup2\n        /* \"#utility.yul\":15952:16083   */\n      tag_304\n      jump\t// in\n    tag_474:\n        /* \"#utility.yul\":15944:16083   */\n      swap1\n      pop\n        /* \"#utility.yul\":15671:16090   */\n      swap2\n      swap1\n      pop\n      jump\t// out\n        /* \"#utility.yul\":16096:16324   */\n    tag_305:\n        /* \"#utility.yul\":16236:16270   */\n      0x4552433732313a2061646472657373207a65726f206973206e6f742061207661\n        /* \"#utility.yul\":16232:16233   */\n      0x00\n        /* \"#utility.yul\":16224:16230   */\n      dup3\n        /* \"#utility.yul\":16220:16234   */\n      add\n        /* \"#utility.yul\":16213:16271   */\n      mstore\n        /* \"#utility.yul\":16305:16316   */\n      0x6c6964206f776e65720000000000000000000000000000000000000000000000\n        /* \"#utility.yul\":16300:16302   */\n      0x20\n        /* \"#utility.yul\":16292:16298   */\n      dup3\n        /* \"#utility.yul\":16288:16303   */\n      add\n        /* \"#utility.yul\":16281:16317   */\n      mstore\n        /* \"#utility.yul\":16096:16324   */\n      pop\n      jump\t// out\n        /* \"#utility.yul\":16330:16696   */\n    tag_306:\n        /* \"#utility.yul\":16472:16475   */\n      0x00\n        /* \"#utility.yul\":16493:16560   */\n      tag_477\n        /* \"#utility.yul\":16557:16559   */\n      0x29\n        /* \"#utility.yul\":16552:16555   */\n      dup4\n        /* \"#utility.yul\":16493:16560   */\n      tag_271\n      jump\t// in\n    tag_477:\n        /* \"#utility.yul\":16486:16560   */\n      swap2\n      pop\n        /* \"#utility.yul\":16569:16662   */\n      tag_478\n        /* \"#utility.yul\":16658:16661   */\n      dup3\n        /* \"#utility.yul\":16569:16662   */\n      tag_305\n      jump\t// in\n    tag_478:\n        /* \"#utility.yul\":16687:16689   */\n      0x40\n        /* \"#utility.yul\":16682:16685   */\n      dup3\n        /* \"#utility.yul\":16678:16690   */\n      add\n        /* \"#utility.yul\":16671:16690   */\n      swap1\n      pop\n        /* \"#utility.yul\":16330:16696   */\n      swap2\n      swap1\n      pop\n      jump\t// out\n        /* \"#utility.yul\":16702:17121   */\n    tag_145:\n        /* \"#utility.yul\":16868:16872   */\n      0x00\n        /* \"#utility.yul\":16906:16908   */\n      0x20\n        /* \"#utility.yul\":16895:16904   */\n      dup3\n        /* \"#utility.yul\":16891:16909   */\n      add\n        /* \"#utility.yul\":16883:16909   */\n      swap1\n      pop\n        /* \"#utility.yul\":16955:16964   */\n      dup2\n        /* \"#utility.yul\":16949:16953   */\n      dup2\n        /* \"#utility.yul\":16945:16965   */\n      sub\n        /* \"#utility.yul\":16941:16942   */\n      0x00\n        /* \"#utility.yul\":16930:16939   */\n      dup4\n        /* \"#utility.yul\":16926:16943   */\n      add\n        /* \"#utility.yul\":16919:16966   */\n      mstore\n        /* \"#utility.yul\":16983:17114   */\n      tag_480\n        /* \"#utility.yul\":17109:17113   */\n      dup2\n        /* \"#utility.yul\":16983:17114   */\n      tag_306\n      jump\t// in\n    tag_480:\n        /* \"#utility.yul\":16975:17114   */\n      swap1\n      pop\n        /* \"#utility.yul\":16702:17121   */\n      swap2\n      swap1\n      pop\n      jump\t// out\n        /* \"#utility.yul\":17127:17275   */\n    tag_307:\n        /* \"#utility.yul\":17229:17240   */\n      0x00\n        /* \"#utility.yul\":17266:17269   */\n      dup2\n        /* \"#utility.yul\":17251:17269   */\n      swap1\n      pop\n        /* \"#utility.yul\":17127:17275   */\n      swap3\n      swap2\n      pop\n      pop\n      jump\t// out\n        /* \"#utility.yul\":17281:17671   */\n    tag_308:\n        /* \"#utility.yul\":17387:17390   */\n      0x00\n        /* \"#utility.yul\":17415:17454   */\n      tag_483\n        /* \"#utility.yul\":17448:17453   */\n      dup3\n        /* \"#utility.yul\":17415:17454   */\n      tag_270\n      jump\t// in\n    tag_483:\n        /* \"#utility.yul\":17470:17559   */\n      tag_484\n        /* \"#utility.yul\":17552:17558   */\n      dup2\n        /* \"#utility.yul\":17547:17550   */\n      dup6\n        /* \"#utility.yul\":17470:17559   */\n      tag_307\n      jump\t// in\n    tag_484:\n        /* \"#utility.yul\":17463:17559   */\n      swap4\n      pop\n        /* \"#utility.yul\":17568:17633   */\n      tag_485\n        /* \"#utility.yul\":17626:17632   */\n      dup2\n        /* \"#utility.yul\":17621:17624   */\n      dup6\n        /* \"#utility.yul\":17614:17618   */\n      0x20\n        /* \"#utility.yul\":17607:17612   */\n      dup7\n        /* \"#utility.yul\":17603:17619   */\n      add\n        /* \"#utility.yul\":17568:17633   */\n      tag_272\n      jump\t// in\n    tag_485:\n        /* \"#utility.yul\":17658:17664   */\n      dup1\n        /* \"#utility.yul\":17653:17656   */\n      dup5\n        /* \"#utility.yul\":17649:17665   */\n      add\n        /* \"#utility.yul\":17642:17665   */\n      swap2\n      pop\n        /* \"#utility.yul\":17391:17671   */\n      pop\n        /* \"#utility.yul\":17281:17671   */\n      swap3\n      swap2\n      pop\n      pop\n      jump\t// out\n        /* \"#utility.yul\":17677:18112   */\n    tag_172:\n        /* \"#utility.yul\":17857:17860   */\n      0x00\n        /* \"#utility.yul\":17879:17974   */\n      tag_487\n        /* \"#utility.yul\":17970:17973   */\n      dup3\n        /* \"#utility.yul\":17961:17967   */\n      dup6\n        /* \"#utility.yul\":17879:17974   */\n      tag_308\n      jump\t// in\n    tag_487:\n        /* \"#utility.yul\":17872:17974   */\n      swap2\n      pop\n        /* \"#utility.yul\":17991:18086   */\n      tag_488\n        /* \"#utility.yul\":18082:18085   */\n      dup3\n        /* \"#utility.yul\":18073:18079   */\n      dup5\n        /* \"#utility.yul\":17991:18086   */\n      tag_308\n      jump\t// in\n    tag_488:\n        /* \"#utility.yul\":17984:18086   */\n      swap2\n      pop\n        /* \"#utility.yul\":18103:18106   */\n      dup2\n        /* \"#utility.yul\":18096:18106   */\n      swap1\n      pop\n        /* \"#utility.yul\":17677:18112   */\n      swap4\n      swap3\n      pop\n      pop\n      pop\n      jump\t// out\n        /* \"#utility.yul\":18118:18293   */\n    tag_309:\n        /* \"#utility.yul\":18258:18285   */\n      0x4552433732313a20617070726f766520746f2063616c6c657200000000000000\n        /* \"#utility.yul\":18254:18255   */\n      0x00\n        /* \"#utility.yul\":18246:18252   */\n      dup3\n        /* \"#utility.yul\":18242:18256   */\n      add\n        /* \"#utility.yul\":18235:18286   */\n      mstore\n        /* \"#utility.yul\":18118:18293   */\n      pop\n      jump\t// out\n        /* \"#utility.yul\":18299:18665   */\n    tag_310:\n        /* \"#utility.yul\":18441:18444   */\n      0x00\n        /* \"#utility.yul\":18462:18529   */\n      tag_491\n        /* \"#utility.yul\":18526:18528   */\n      0x19\n        /* \"#utility.yul\":18521:18524   */\n      dup4\n        /* \"#utility.yul\":18462:18529   */\n      tag_271\n      jump\t// in\n    tag_491:\n        /* \"#utility.yul\":18455:18529   */\n      swap2\n      pop\n        /* \"#utility.yul\":18538:18631   */\n      tag_492\n        /* \"#utility.yul\":18627:18630   */\n      dup3\n        /* \"#utility.yul\":18538:18631   */\n      tag_309\n      jump\t// in\n    tag_492:\n        /* \"#utility.yul\":18656:18658   */\n      0x20\n        /* \"#utility.yul\":18651:18654   */\n      dup3\n        /* \"#utility.yul\":18647:18659   */\n      add\n        /* \"#utility.yul\":18640:18659   */\n      swap1\n      pop\n        /* \"#utility.yul\":18299:18665   */\n      swap2\n      swap1\n      pop\n      jump\t// out\n        /* \"#utility.yul\":18671:19090   */\n    tag_195:\n        /* \"#utility.yul\":18837:18841   */\n      0x00\n        /* \"#utility.yul\":18875:18877   */\n      0x20\n        /* \"#utility.yul\":18864:18873   */\n      dup3\n        /* \"#utility.yul\":18860:18878   */\n      add\n        /* \"#utility.yul\":18852:18878   */\n      swap1\n      pop\n        /* \"#utility.yul\":18924:18933   */\n      dup2\n        /* \"#utility.yul\":18918:18922   */\n      dup2\n        /* \"#utility.yul\":18914:18934   */\n      sub\n        /* \"#utility.yul\":18910:18911   */\n      0x00\n        /* \"#utility.yul\":18899:18908   */\n      dup4\n        /* \"#utility.yul\":18895:18912   */\n      add\n        /* \"#utility.yul\":18888:18935   */\n      mstore\n        /* \"#utility.yul\":18952:19083   */\n      tag_494\n        /* \"#utility.yul\":19078:19082   */\n      dup2\n        /* \"#utility.yul\":18952:19083   */\n      tag_310\n      jump\t// in\n    tag_494:\n        /* \"#utility.yul\":18944:19083   */\n      swap1\n      pop\n        /* \"#utility.yul\":18671:19090   */\n      swap2\n      swap1\n      pop\n      jump\t// out\n        /* \"#utility.yul\":19096:19333   */\n    tag_311:\n        /* \"#utility.yul\":19236:19270   */\n      0x4552433732313a207472616e7366657220746f206e6f6e204552433732315265\n        /* \"#utility.yul\":19232:19233   */\n      0x00\n        /* \"#utility.yul\":19224:19230   */\n      dup3\n        /* \"#utility.yul\":19220:19234   */\n      add\n        /* \"#utility.yul\":19213:19271   */\n      mstore\n        /* \"#utility.yul\":19305:19325   */\n      0x63656976657220696d706c656d656e7465720000000000000000000000000000\n        /* \"#utility.yul\":19300:19302   */\n      0x20\n        /* \"#utility.yul\":19292:19298   */\n      dup3\n        /* \"#utility.yul\":19288:19303   */\n      add\n        /* \"#utility.yul\":19281:19326   */\n      mstore\n        /* \"#utility.yul\":19096:19333   */\n      pop\n      jump\t// out\n        /* \"#utility.yul\":19339:19705   */\n    tag_312:\n        /* \"#utility.yul\":19481:19484   */\n      0x00\n        /* \"#utility.yul\":19502:19569   */\n      tag_497\n        /* \"#utility.yul\":19566:19568   */\n      0x32\n        /* \"#utility.yul\":19561:19564   */\n      dup4\n        /* \"#utility.yul\":19502:19569   */\n      tag_271\n      jump\t// in\n    tag_497:\n        /* \"#utility.yul\":19495:19569   */\n      swap2\n      pop\n        /* \"#utility.yul\":19578:19671   */\n      tag_498\n        /* \"#utility.yul\":19667:19670   */\n      dup3\n        /* \"#utility.yul\":19578:19671   */\n      tag_311\n      jump\t// in\n    tag_498:\n        /* \"#utility.yul\":19696:19698   */\n      0x40\n        /* \"#utility.yul\":19691:19694   */\n      dup3\n        /* \"#utility.yul\":19687:19699   */\n      add\n        /* \"#utility.yul\":19680:19699   */\n      swap1\n      pop\n        /* \"#utility.yul\":19339:19705   */\n      swap2\n      swap1\n      pop\n      jump\t// out\n        /* \"#utility.yul\":19711:20130   */\n    tag_203:\n        /* \"#utility.yul\":19877:19881   */\n      0x00\n        /* \"#utility.yul\":19915:19917   */\n      0x20\n        /* \"#utility.yul\":19904:19913   */\n      dup3\n        /* \"#utility.yul\":19900:19918   */\n      add\n        /* \"#utility.yul\":19892:19918   */\n      swap1\n      pop\n        /* \"#utility.yul\":19964:19973   */\n      dup2\n        /* \"#utility.yul\":19958:19962   */\n      dup2\n        /* \"#utility.yul\":19954:19974   */\n      sub\n        /* \"#utility.yul\":19950:19951   */\n      0x00\n        /* \"#utility.yul\":19939:19948   */\n      dup4\n        /* \"#utility.yul\":19935:19952   */\n      add\n        /* \"#utility.yul\":19928:19975   */\n      mstore\n        /* \"#utility.yul\":19992:20123   */\n      tag_500\n        /* \"#utility.yul\":20118:20122   */\n      dup2\n        /* \"#utility.yul\":19992:20123   */\n      tag_312\n      jump\t// in\n    tag_500:\n        /* \"#utility.yul\":19984:20123   */\n      swap1\n      pop\n        /* \"#utility.yul\":19711:20130   */\n      swap2\n      swap1\n      pop\n      jump\t// out\n        /* \"#utility.yul\":20136:20316   */\n    tag_216:\n        /* \"#utility.yul\":20184:20261   */\n      0x4e487b7100000000000000000000000000000000000000000000000000000000\n        /* \"#utility.yul\":20181:20182   */\n      0x00\n        /* \"#utility.yul\":20174:20262   */\n      mstore\n        /* \"#utility.yul\":20281:20285   */\n      0x12\n        /* \"#utility.yul\":20278:20279   */\n      0x04\n        /* \"#utility.yul\":20271:20286   */\n      mstore\n        /* \"#utility.yul\":20305:20309   */\n      0x24\n        /* \"#utility.yul\":20302:20303   */\n      0x00\n        /* \"#utility.yul\":20295:20310   */\n      revert\n        /* \"#utility.yul\":20322:20420   */\n    tag_313:\n        /* \"#utility.yul\":20373:20379   */\n      0x00\n        /* \"#utility.yul\":20407:20412   */\n      dup2\n        /* \"#utility.yul\":20401:20413   */\n      mload\n        /* \"#utility.yul\":20391:20413   */\n      swap1\n      pop\n        /* \"#utility.yul\":20322:20420   */\n      swap2\n      swap1\n      pop\n      jump\t// out\n        /* \"#utility.yul\":20426:20594   */\n    tag_314:\n        /* \"#utility.yul\":20509:20520   */\n      0x00\n        /* \"#utility.yul\":20543:20549   */\n      dup3\n        /* \"#utility.yul\":20538:20541   */\n      dup3\n        /* \"#utility.yul\":20531:20550   */\n      mstore\n        /* \"#utility.yul\":20583:20587   */\n      0x20\n        /* \"#utility.yul\":20578:20581   */\n      dup3\n        /* \"#utility.yul\":20574:20588   */\n      add\n        /* \"#utility.yul\":20559:20588   */\n      swap1\n      pop\n        /* \"#utility.yul\":20426:20594   */\n      swap3\n      swap2\n      pop\n      pop\n      jump\t// out\n        /* \"#utility.yul\":20600:20973   */\n    tag_315:\n        /* \"#utility.yul\":20686:20689   */\n      0x00\n        /* \"#utility.yul\":20714:20752   */\n      tag_505\n        /* \"#utility.yul\":20746:20751   */\n      dup3\n        /* \"#utility.yul\":20714:20752   */\n      tag_313\n      jump\t// in\n    tag_505:\n        /* \"#utility.yul\":20768:20838   */\n      tag_506\n        /* \"#utility.yul\":20831:20837   */\n      dup2\n        /* \"#utility.yul\":20826:20829   */\n      dup6\n        /* \"#utility.yul\":20768:20838   */\n      tag_314\n      jump\t// in\n    tag_506:\n        /* \"#utility.yul\":20761:20838   */\n      swap4\n      pop\n        /* \"#utility.yul\":20847:20912   */\n      tag_507\n        /* \"#utility.yul\":20905:20911   */\n      dup2\n        /* \"#utility.yul\":20900:20903   */\n      dup6\n        /* \"#utility.yul\":20893:20897   */\n      0x20\n        /* \"#utility.yul\":20886:20891   */\n      dup7\n        /* \"#utility.yul\":20882:20898   */\n      add\n        /* \"#utility.yul\":20847:20912   */\n      tag_272\n      jump\t// in\n    tag_507:\n        /* \"#utility.yul\":20937:20966   */\n      tag_508\n        /* \"#utility.yul\":20959:20965   */\n      dup2\n        /* \"#utility.yul\":20937:20966   */\n      tag_273\n      jump\t// in\n    tag_508:\n        /* \"#utility.yul\":20932:20935   */\n      dup5\n        /* \"#utility.yul\":20928:20967   */\n      add\n        /* \"#utility.yul\":20921:20967   */\n      swap2\n      pop\n        /* \"#utility.yul\":20690:20973   */\n      pop\n        /* \"#utility.yul\":20600:20973   */\n      swap3\n      swap2\n      pop\n      pop\n      jump\t// out\n        /* \"#utility.yul\":20979:21619   */\n    tag_226:\n        /* \"#utility.yul\":21174:21178   */\n      0x00\n        /* \"#utility.yul\":21212:21215   */\n      0x80\n        /* \"#utility.yul\":21201:21210   */\n      dup3\n        /* \"#utility.yul\":21197:21216   */\n      add\n        /* \"#utility.yul\":21189:21216   */\n      swap1\n      pop\n        /* \"#utility.yul\":21226:21297   */\n      tag_510\n        /* \"#utility.yul\":21294:21295   */\n      0x00\n        /* \"#utility.yul\":21283:21292   */\n      dup4\n        /* \"#utility.yul\":21279:21296   */\n      add\n        /* \"#utility.yul\":21270:21276   */\n      dup8\n        /* \"#utility.yul\":21226:21297   */\n      tag_280\n      jump\t// in\n    tag_510:\n        /* \"#utility.yul\":21307:21379   */\n      tag_511\n        /* \"#utility.yul\":21375:21377   */\n      0x20\n        /* \"#utility.yul\":21364:21373   */\n      dup4\n        /* \"#utility.yul\":21360:21378   */\n      add\n        /* \"#utility.yul\":21351:21357   */\n      dup7\n        /* \"#utility.yul\":21307:21379   */\n      tag_280\n      jump\t// in\n    tag_511:\n        /* \"#utility.yul\":21389:21461   */\n      tag_512\n        /* \"#utility.yul\":21457:21459   */\n      0x40\n        /* \"#utility.yul\":21446:21455   */\n      dup4\n        /* \"#utility.yul\":21442:21460   */\n      add\n        /* \"#utility.yul\":21433:21439   */\n      dup6\n        /* \"#utility.yul\":21389:21461   */\n      tag_283\n      jump\t// in\n    tag_512:\n        /* \"#utility.yul\":21508:21517   */\n      dup2\n        /* \"#utility.yul\":21502:21506   */\n      dup2\n        /* \"#utility.yul\":21498:21518   */\n      sub\n        /* \"#utility.yul\":21493:21495   */\n      0x60\n        /* \"#utility.yul\":21482:21491   */\n      dup4\n        /* \"#utility.yul\":21478:21496   */\n      add\n        /* \"#utility.yul\":21471:21519   */\n      mstore\n        /* \"#utility.yul\":21536:21612   */\n      tag_513\n        /* \"#utility.yul\":21607:21611   */\n      dup2\n        /* \"#utility.yul\":21598:21604   */\n      dup5\n        /* \"#utility.yul\":21536:21612   */\n      tag_315\n      jump\t// in\n    tag_513:\n        /* \"#utility.yul\":21528:21612   */\n      swap1\n      pop\n        /* \"#utility.yul\":20979:21619   */\n      swap6\n      swap5\n      pop\n      pop\n      pop\n      pop\n      pop\n      jump\t// out\n        /* \"#utility.yul\":21625:21766   */\n    tag_316:\n        /* \"#utility.yul\":21681:21686   */\n      0x00\n        /* \"#utility.yul\":21712:21718   */\n      dup2\n        /* \"#utility.yul\":21706:21719   */\n      mload\n        /* \"#utility.yul\":21697:21719   */\n      swap1\n      pop\n        /* \"#utility.yul\":21728:21760   */\n      tag_515\n        /* \"#utility.yul\":21754:21759   */\n      dup2\n        /* \"#utility.yul\":21728:21760   */\n      tag_266\n      jump\t// in\n    tag_515:\n        /* \"#utility.yul\":21625:21766   */\n      swap3\n      swap2\n      pop\n      pop\n      jump\t// out\n        /* \"#utility.yul\":21772:22121   */\n    tag_229:\n        /* \"#utility.yul\":21841:21847   */\n      0x00\n        /* \"#utility.yul\":21890:21892   */\n      0x20\n        /* \"#utility.yul\":21878:21887   */\n      dup3\n        /* \"#utility.yul\":21869:21876   */\n      dup5\n        /* \"#utility.yul\":21865:21888   */\n      sub\n        /* \"#utility.yul\":21861:21893   */\n      slt\n        /* \"#utility.yul\":21858:21977   */\n      iszero\n      tag_517\n      jumpi\n        /* \"#utility.yul\":21896:21975   */\n      tag_518\n      tag_263\n      jump\t// in\n    tag_518:\n        /* \"#utility.yul\":21858:21977   */\n    tag_517:\n        /* \"#utility.yul\":22016:22017   */\n      0x00\n        /* \"#utility.yul\":22041:22104   */\n      tag_519\n        /* \"#utility.yul\":22096:22103   */\n      dup5\n        /* \"#utility.yul\":22087:22093   */\n      dup3\n        /* \"#utility.yul\":22076:22085   */\n      dup6\n        /* \"#utility.yul\":22072:22094   */\n      add\n        /* \"#utility.yul\":22041:22104   */\n      tag_316\n      jump\t// in\n    tag_519:\n        /* \"#utility.yul\":22031:22104   */\n      swap2\n      pop\n        /* \"#utility.yul\":21987:22114   */\n      pop\n        /* \"#utility.yul\":21772:22121   */\n      swap3\n      swap2\n      pop\n      pop\n      jump\t// out\n\n    auxdata: 0xa2646970667358221220fa4d41d2e9e8e3a0392ae37cba06c39f5f090e06c232b82c5f4df0064d4f86fc64736f6c63430008150033\n}\n",
				"bytecode": {
					"linkReferences": {},
					"object": "60806040523480156200001157600080fd5b506040516200271b3803806200271b83398181016040528101906200003791906200029c565b826001908162000048919062000581565b5081600290816200005a919062000581565b50806000806101000a81548173ffffffffffffffffffffffffffffffffffffffff021916908373ffffffffffffffffffffffffffffffffffffffff16021790555050505062000668565b6000604051905090565b600080fd5b600080fd5b600080fd5b600080fd5b6000601f19601f8301169050919050565b7f4e487b7100000000000000000000000000000000000000000000000000000000600052604160045260246000fd5b6200010d82620000c2565b810181811067ffffffffffffffff821117156200012f576200012e620000d3565b5b80604052505050565b600062000144620000a4565b905062000152828262000102565b919050565b600067ffffffffffffffff821115620001755762000174620000d3565b5b6200018082620000c2565b9050602081019050919050565b60005b83811015620001ad57808201518184015260208101905062000190565b60008484015250505050565b6000620001d0620001ca8462000157565b62000138565b905082815260208101848484011115620001ef57620001ee620000bd565b5b620001fc8482856200018d565b509392505050565b600082601f8301126200021c576200021b620000b8565b5b81516200022e848260208601620001b9565b91505092915050565b600073ffffffffffffffffffffffffffffffffffffffff82169050919050565b6000620002648262000237565b9050919050565b620002768162000257565b81146200028257600080fd5b50565b60008151905062000296816200026b565b92915050565b600080600060608486031215620002b857620002b7620000ae565b5b600084015167ffffffffffffffff811115620002d957620002d8620000b3565b5b620002e78682870162000204565b935050602084015167ffffffffffffffff8111156200030b576200030a620000b3565b5b620003198682870162000204565b92505060406200032c8682870162000285565b9150509250925092565b600081519050919050565b7f4e487b7100000000000000000000000000000000000000000000000000000000600052602260045260246000fd5b600060028204905060018216806200038957607f821691505b6020821081036200039f576200039e62000341565b5b50919050565b60008190508160005260206000209050919050565b60006020601f8301049050919050565b600082821b905092915050565b600060088302620004097fffffffffffffffffffffffffffffffffffffffffffffffffffffffffffffffff82620003ca565b620004158683620003ca565b95508019841693508086168417925050509392505050565b6000819050919050565b6000819050919050565b6000620004626200045c62000456846200042d565b62000437565b6200042d565b9050919050565b6000819050919050565b6200047e8362000441565b620004966200048d8262000469565b848454620003d7565b825550505050565b600090565b620004ad6200049e565b620004ba81848462000473565b505050565b5b81811015620004e257620004d6600082620004a3565b600181019050620004c0565b5050565b601f8211156200053157620004fb81620003a5565b6200050684620003ba565b8101602085101562000516578190505b6200052e6200052585620003ba565b830182620004bf565b50505b505050565b600082821c905092915050565b6000620005566000198460080262000536565b1980831691505092915050565b600062000571838362000543565b9150826002028217905092915050565b6200058c8262000336565b67ffffffffffffffff811115620005a857620005a7620000d3565b5b620005b4825462000370565b620005c1828285620004e6565b600060209050601f831160018114620005f95760008415620005e4578287015190505b620005f0858262000563565b86555062000660565b601f1984166200060986620003a5565b60005b8281101562000633578489015182556001820191506020850194506020810190506200060c565b868310156200065357848901516200064f601f89168262000543565b8355505b6001600288020188555050505b505050505050565b6120a380620006786000396000f3fe608060405234801561001057600080fd5b50600436106100f55760003560e01c80636352211e11610097578063b2bdfa7b11610066578063b2bdfa7b14610282578063b88d4fde146102a0578063c87b56dd146102bc578063e985e9c5146102ec576100f5565b80636352211e146101e857806370a082311461021857806395d89b4114610248578063a22cb46514610266576100f5565b8063095ea7b3116100d3578063095ea7b31461017857806323b872dd1461019457806330e0789e146101b057806342842e0e146101cc576100f5565b806301ffc9a7146100fa57806306fdde031461012a578063081812fc14610148575b600080fd5b610114600480360381019061010f9190611509565b61031c565b6040516101219190611551565b60405180910390f35b6101326103fe565b60405161013f91906115fc565b60405180910390f35b610162600480360381019061015d9190611654565b610490565b60405161016f91906116c2565b60405180910390f35b610192600480360381019061018d9190611709565b6104d6565b005b6101ae60048036038101906101a99190611749565b6105ed565b005b6101ca60048036038101906101c59190611749565b61064d565b005b6101e660048036038101906101e19190611749565b6108d7565b005b61020260048036038101906101fd9190611654565b6108f7565b60405161020f91906116c2565b60405180910390f35b610232600480360381019061022d919061179c565b61097d565b60405161023f91906117d8565b60405180910390f35b610250610a34565b60405161025d91906115fc565b60405180910390f35b610280600480360381019061027b919061181f565b610ac6565b005b61028a610adc565b60405161029791906116c2565b60405180910390f35b6102ba60048036038101906102b59190611994565b610b00565b005b6102d660048036038101906102d19190611654565b610b62565b6040516102e391906115fc565b60405180910390f35b61030660048036038101906103019190611a17565b610bca565b6040516103139190611551565b60405180910390f35b60007f80ac58cd000000000000000000000000000000000000000000000000000000007bffffffffffffffffffffffffffffffffffffffffffffffffffffffff1916827bffffffffffffffffffffffffffffffffffffffffffffffffffffffff191614806103e757507f5b5e139f000000000000000000000000000000000000000000000000000000007bffffffffffffffffffffffffffffffffffffffffffffffffffffffff1916827bffffffffffffffffffffffffffffffffffffffffffffffffffffffff1916145b806103f757506103f682610c5e565b5b9050919050565b60606001805461040d90611a86565b80601f016020809104026020016040519081016040528092919081815260200182805461043990611a86565b80156104865780601f1061045b57610100808354040283529160200191610486565b820191906000526020600020905b81548152906001019060200180831161046957829003601f168201915b5050505050905090565b600061049b82610cc8565b6005600083815260200190815260200160002060009054906101000a900473ffffffffffffffffffffffffffffffffffffffff169050919050565b60006104e1826108f7565b90508073ffffffffffffffffffffffffffffffffffffffff168373ffffffffffffffffffffffffffffffffffffffff1603610551576040517f08c379a000000000000000000000000000000000000000000000000000000000815260040161054890611b29565b60405180910390fd5b8073ffffffffffffffffffffffffffffffffffffffff16610570610d13565b73ffffffffffffffffffffffffffffffffffffffff16148061059f575061059e81610599610d13565b610bca565b5b6105de576040517f08c379a00000000000000000000000000000000000000000000000000000000081526004016105d590611bbb565b60405180910390fd5b6105e88383610d1b565b505050565b6105fe6105f8610d13565b82610dd4565b61063d576040517f08c379a000000000000000000000000000000000000000000000000000000000815260040161063490611c4d565b60405180910390fd5b61064883838361064d565b505050565b8273ffffffffffffffffffffffffffffffffffffffff1661066d826108f7565b73ffffffffffffffffffffffffffffffffffffffff16146106c3576040517f08c379a00000000000000000000000000000000000000000000000000000000081526004016106ba90611cdf565b60405180910390fd5b6106d08383836001610e69565b8273ffffffffffffffffffffffffffffffffffffffff166106f0826108f7565b73ffffffffffffffffffffffffffffffffffffffff1614610746576040517f08c379a000000000000000000000000000000000000000000000000000000000815260040161073d90611cdf565b60405180910390fd5b6005600082815260200190815260200160002060006101000a81549073ffffffffffffffffffffffffffffffffffffffff02191690556001600460008573ffffffffffffffffffffffffffffffffffffffff1673ffffffffffffffffffffffffffffffffffffffff168152602001908152602001600020600082825403925050819055506001600460008473ffffffffffffffffffffffffffffffffffffffff1673ffffffffffffffffffffffffffffffffffffffff16815260200190815260200160002060008282540192505081905550816003600083815260200190815260200160002060006101000a81548173ffffffffffffffffffffffffffffffffffffffff021916908373ffffffffffffffffffffffffffffffffffffffff160217905550808273ffffffffffffffffffffffffffffffffffffffff168473ffffffffffffffffffffffffffffffffffffffff167fddf252ad1be2c89b69c2b068fc378daa952ba7f163c4a11628f55a4df523b3ef60405160405180910390a46108d28383836001610e6f565b505050565b6108f283838360405180602001604052806000815250610b00565b505050565b60008061090383610e75565b9050600073ffffffffffffffffffffffffffffffffffffffff168173ffffffffffffffffffffffffffffffffffffffff1603610974576040517f08c379a000000000000000000000000000000000000000000000000000000000815260040161096b90611d4b565b60405180910390fd5b80915050919050565b60008073ffffffffffffffffffffffffffffffffffffffff168273ffffffffffffffffffffffffffffffffffffffff16036109ed576040517f08c379a00000000000000000000000000000000000000000000000000000000081526004016109e490611ddd565b60405180910390fd5b600460008373ffffffffffffffffffffffffffffffffffffffff1673ffffffffffffffffffffffffffffffffffffffff168152602001908152602001600020549050919050565b606060028054610a4390611a86565b80601f0160208091040260200160405190810160405280929190818152602001828054610a6f90611a86565b8015610abc5780601f10610a9157610100808354040283529160200191610abc565b820191906000526020600020905b815481529060010190602001808311610a9f57829003601f168201915b5050505050905090565b610ad8610ad1610d13565b8383610eb2565b5050565b60008054906101000a900473ffffffffffffffffffffffffffffffffffffffff1681565b610b11610b0b610d13565b83610dd4565b610b50576040517f08c379a0000000000000000000000000000000000000000000000000000000008152600401610b4790611c4d565b60405180910390fd5b610b5c8484848461101e565b50505050565b6060610b6d82610cc8565b6000610b7761107a565b90506000815111610b975760405180602001604052806000815250610bc2565b80610ba184611091565b604051602001610bb2929190611e39565b6040516020818303038152906040525b915050919050565b6000600660008473ffffffffffffffffffffffffffffffffffffffff1673ffffffffffffffffffffffffffffffffffffffff16815260200190815260200160002060008373ffffffffffffffffffffffffffffffffffffffff1673ffffffffffffffffffffffffffffffffffffffff16815260200190815260200160002060009054906101000a900460ff16905092915050565b60007f01ffc9a7000000000000000000000000000000000000000000000000000000007bffffffffffffffffffffffffffffffffffffffffffffffffffffffff1916827bffffffffffffffffffffffffffffffffffffffffffffffffffffffff1916149050919050565b610cd18161115f565b610d10576040517f08c379a0000000000000000000000000000000000000000000000000000000008152600401610d0790611d4b565b60405180910390fd5b50565b600033905090565b816005600083815260200190815260200160002060006101000a81548173ffffffffffffffffffffffffffffffffffffffff021916908373ffffffffffffffffffffffffffffffffffffffff160217905550808273ffffffffffffffffffffffffffffffffffffffff16610d8e836108f7565b73ffffffffffffffffffffffffffffffffffffffff167f8c5be1e5ebec7d5bd14f71427d1e84f3dd0314c0f7b2291e5b200ac8c7c3b92560405160405180910390a45050565b600080610de0836108f7565b90508073ffffffffffffffffffffffffffffffffffffffff168473ffffffffffffffffffffffffffffffffffffffff161480610e225750610e218185610bca565b5b80610e6057508373ffffffffffffffffffffffffffffffffffffffff16610e4884610490565b73ffffffffffffffffffffffffffffffffffffffff16145b91505092915050565b50505050565b50505050565b60006003600083815260200190815260200160002060009054906101000a900473ffffffffffffffffffffffffffffffffffffffff169050919050565b8173ffffffffffffffffffffffffffffffffffffffff168373ffffffffffffffffffffffffffffffffffffffff1603610f20576040517f08c379a0000000000000000000000000000000000000000000000000000000008152600401610f1790611ea9565b60405180910390fd5b80600660008573ffffffffffffffffffffffffffffffffffffffff1673ffffffffffffffffffffffffffffffffffffffff16815260200190815260200160002060008473ffffffffffffffffffffffffffffffffffffffff1673ffffffffffffffffffffffffffffffffffffffff16815260200190815260200160002060006101000a81548160ff0219169083151502179055508173ffffffffffffffffffffffffffffffffffffffff168373ffffffffffffffffffffffffffffffffffffffff167f17307eab39ab6107e8899845ad3d59bd9653f200f220920489ca2b5937696c31836040516110119190611551565b60405180910390a3505050565b61102984848461064d565b611035848484846111a0565b611074576040517f08c379a000000000000000000000000000000000000000000000000000000000815260040161106b90611f3b565b60405180910390fd5b50505050565b606060405180602001604052806000815250905090565b6060600060016110a084611327565b01905060008167ffffffffffffffff8111156110bf576110be611869565b5b6040519080825280601f01601f1916602001820160405280156110f15781602001600182028036833780820191505090505b509050600082602001820190505b600115611154578080600190039150507f3031323334353637383961626364656600000000000000000000000000000000600a86061a8153600a858161114857611147611f5b565b5b049450600085036110ff575b819350505050919050565b60008073ffffffffffffffffffffffffffffffffffffffff1661118183610e75565b73ffffffffffffffffffffffffffffffffffffffff1614159050919050565b60006111c18473ffffffffffffffffffffffffffffffffffffffff1661147a565b1561131a578373ffffffffffffffffffffffffffffffffffffffff1663150b7a026111ea610d13565b8786866040518563ffffffff1660e01b815260040161120c9493929190611fdf565b6020604051808303816000875af192505050801561124857506040513d601f19601f820116820180604052508101906112459190612040565b60015b6112ca573d8060008114611278576040519150601f19603f3d011682016040523d82523d6000602084013e61127d565b606091505b5060008151036112c2576040517f08c379a00000000000000000000000000000000000000000000000000000000081526004016112b990611f3b565b60405180910390fd5b805181602001fd5b63150b7a0260e01b7bffffffffffffffffffffffffffffffffffffffffffffffffffffffff1916817bffffffffffffffffffffffffffffffffffffffffffffffffffffffff19161491505061131f565b600190505b949350505050565b600080600090507a184f03e93ff9f4daa797ed6e38ed64bf6a1f0100000000000000008310611385577a184f03e93ff9f4daa797ed6e38ed64bf6a1f010000000000000000838161137b5761137a611f5b565b5b0492506040810190505b6d04ee2d6d415b85acef810000000083106113c2576d04ee2d6d415b85acef810000000083816113b8576113b7611f5b565b5b0492506020810190505b662386f26fc1000083106113f157662386f26fc1000083816113e7576113e6611f5b565b5b0492506010810190505b6305f5e100831061141a576305f5e10083816114105761140f611f5b565b5b0492506008810190505b612710831061143f57612710838161143557611434611f5b565b5b0492506004810190505b60648310611462576064838161145857611457611f5b565b5b0492506002810190505b600a8310611471576001810190505b80915050919050565b6000808273ffffffffffffffffffffffffffffffffffffffff163b119050919050565b6000604051905090565b600080fd5b600080fd5b60007fffffffff0000000000000000000000000000000000000000000000000000000082169050919050565b6114e6816114b1565b81146114f157600080fd5b50565b600081359050611503816114dd565b92915050565b60006020828403121561151f5761151e6114a7565b5b600061152d848285016114f4565b91505092915050565b60008115159050919050565b61154b81611536565b82525050565b60006020820190506115666000830184611542565b92915050565b600081519050919050565b600082825260208201905092915050565b60005b838110156115a657808201518184015260208101905061158b565b60008484015250505050565b6000601f19601f8301169050919050565b60006115ce8261156c565b6115d88185611577565b93506115e8818560208601611588565b6115f1816115b2565b840191505092915050565b6000602082019050818103600083015261161681846115c3565b905092915050565b6000819050919050565b6116318161161e565b811461163c57600080fd5b50565b60008135905061164e81611628565b92915050565b60006020828403121561166a576116696114a7565b5b60006116788482850161163f565b91505092915050565b600073ffffffffffffffffffffffffffffffffffffffff82169050919050565b60006116ac82611681565b9050919050565b6116bc816116a1565b82525050565b60006020820190506116d760008301846116b3565b92915050565b6116e6816116a1565b81146116f157600080fd5b50565b600081359050611703816116dd565b92915050565b600080604083850312156117205761171f6114a7565b5b600061172e858286016116f4565b925050602061173f8582860161163f565b9150509250929050565b600080600060608486031215611762576117616114a7565b5b6000611770868287016116f4565b9350506020611781868287016116f4565b92505060406117928682870161163f565b9150509250925092565b6000602082840312156117b2576117b16114a7565b5b60006117c0848285016116f4565b91505092915050565b6117d28161161e565b82525050565b60006020820190506117ed60008301846117c9565b92915050565b6117fc81611536565b811461180757600080fd5b50565b600081359050611819816117f3565b92915050565b60008060408385031215611836576118356114a7565b5b6000611844858286016116f4565b92505060206118558582860161180a565b9150509250929050565b600080fd5b600080fd5b7f4e487b7100000000000000000000000000000000000000000000000000000000600052604160045260246000fd5b6118a1826115b2565b810181811067ffffffffffffffff821117156118c0576118bf611869565b5b80604052505050565b60006118d361149d565b90506118df8282611898565b919050565b600067ffffffffffffffff8211156118ff576118fe611869565b5b611908826115b2565b9050602081019050919050565b82818337600083830152505050565b6000611937611932846118e4565b6118c9565b90508281526020810184848401111561195357611952611864565b5b61195e848285611915565b509392505050565b600082601f83011261197b5761197a61185f565b5b813561198b848260208601611924565b91505092915050565b600080600080608085870312156119ae576119ad6114a7565b5b60006119bc878288016116f4565b94505060206119cd878288016116f4565b93505060406119de8782880161163f565b925050606085013567ffffffffffffffff8111156119ff576119fe6114ac565b5b611a0b87828801611966565b91505092959194509250565b60008060408385031215611a2e57611a2d6114a7565b5b6000611a3c858286016116f4565b9250506020611a4d858286016116f4565b9150509250929050565b7f4e487b7100000000000000000000000000000000000000000000000000000000600052602260045260246000fd5b60006002820490506001821680611a9e57607f821691505b602082108103611ab157611ab0611a57565b5b50919050565b7f4552433732313a20617070726f76616c20746f2063757272656e74206f776e6560008201527f7200000000000000000000000000000000000000000000000000000000000000602082015250565b6000611b13602183611577565b9150611b1e82611ab7565b604082019050919050565b60006020820190508181036000830152611b4281611b06565b9050919050565b7f4552433732313a20617070726f76652063616c6c6572206973206e6f7420746f60008201527f6b656e206f776e6572206f7220617070726f76656420666f7220616c6c000000602082015250565b6000611ba5603d83611577565b9150611bb082611b49565b604082019050919050565b60006020820190508181036000830152611bd481611b98565b9050919050565b7f4552433732313a2063616c6c6572206973206e6f7420746f6b656e206f776e6560008201527f72206f7220617070726f76656400000000000000000000000000000000000000602082015250565b6000611c37602d83611577565b9150611c4282611bdb565b604082019050919050565b60006020820190508181036000830152611c6681611c2a565b9050919050565b7f4552433732313a207472616e736665722066726f6d20696e636f72726563742060008201527f6f776e6572000000000000000000000000000000000000000000000000000000602082015250565b6000611cc9602583611577565b9150611cd482611c6d565b604082019050919050565b60006020820190508181036000830152611cf881611cbc565b9050919050565b7f4552433732313a20696e76616c696420746f6b656e2049440000000000000000600082015250565b6000611d35601883611577565b9150611d4082611cff565b602082019050919050565b60006020820190508181036000830152611d6481611d28565b9050919050565b7f4552433732313a2061646472657373207a65726f206973206e6f74206120766160008201527f6c6964206f776e65720000000000000000000000000000000000000000000000602082015250565b6000611dc7602983611577565b9150611dd282611d6b565b604082019050919050565b60006020820190508181036000830152611df681611dba565b9050919050565b600081905092915050565b6000611e138261156c565b611e1d8185611dfd565b9350611e2d818560208601611588565b80840191505092915050565b6000611e458285611e08565b9150611e518284611e08565b91508190509392505050565b7f4552433732313a20617070726f766520746f2063616c6c657200000000000000600082015250565b6000611e93601983611577565b9150611e9e82611e5d565b602082019050919050565b60006020820190508181036000830152611ec281611e86565b9050919050565b7f4552433732313a207472616e7366657220746f206e6f6e20455243373231526560008201527f63656976657220696d706c656d656e7465720000000000000000000000000000602082015250565b6000611f25603283611577565b9150611f3082611ec9565b604082019050919050565b60006020820190508181036000830152611f5481611f18565b9050919050565b7f4e487b7100000000000000000000000000000000000000000000000000000000600052601260045260246000fd5b600081519050919050565b600082825260208201905092915050565b6000611fb182611f8a565b611fbb8185611f95565b9350611fcb818560208601611588565b611fd4816115b2565b840191505092915050565b6000608082019050611ff460008301876116b3565b61200160208301866116b3565b61200e60408301856117c9565b81810360608301526120208184611fa6565b905095945050505050565b60008151905061203a816114dd565b92915050565b600060208284031215612056576120556114a7565b5b60006120648482850161202b565b9150509291505056fea2646970667358221220fa4d41d2e9e8e3a0392ae37cba06c39f5f090e06c232b82c5f4df0064d4f86fc64736f6c63430008150033",
					"opcodes": "PUSH1 0x80 PUSH1 0x40 MSTORE CALLVALUE DUP1 ISZERO PUSH3 0x11 JUMPI PUSH1 0x0 DUP1 REVERT JUMPDEST POP PUSH1 0x40 MLOAD PUSH3 0x271B CODESIZE SUB DUP1 PUSH3 0x271B DUP4 CODECOPY DUP2 DUP2 ADD PUSH1 0x40 MSTORE DUP2 ADD SWAP1 PUSH3 0x37 SWAP2 SWAP1 PUSH3 0x29C JUMP JUMPDEST DUP3 PUSH1 0x1 SWAP1 DUP2 PUSH3 0x48 SWAP2 SWAP1 PUSH3 0x581 JUMP JUMPDEST POP DUP2 PUSH1 0x2 SWAP1 DUP2 PUSH3 0x5A SWAP2 SWAP1 PUSH3 0x581 JUMP JUMPDEST POP DUP1 PUSH1 0x0 DUP1 PUSH2 0x100 EXP DUP2 SLOAD DUP2 PUSH20 0xFFFFFFFFFFFFFFFFFFFFFFFFFFFFFFFFFFFFFFFF MUL NOT AND SWAP1 DUP4 PUSH20 0xFFFFFFFFFFFFFFFFFFFFFFFFFFFFFFFFFFFFFFFF AND MUL OR SWAP1 SSTORE POP POP POP POP PUSH3 0x668 JUMP JUMPDEST PUSH1 0x0 PUSH1 0x40 MLOAD SWAP1 POP SWAP1 JUMP JUMPDEST PUSH1 0x0 DUP1 REVERT JUMPDEST PUSH1 0x0 DUP1 REVERT JUMPDEST PUSH1 0x0 DUP1 REVERT JUMPDEST PUSH1 0x0 DUP1 REVERT JUMPDEST PUSH1 0x0 PUSH1 0x1F NOT PUSH1 0x1F DUP4 ADD AND SWAP1 POP SWAP2 SWAP1 POP JUMP JUMPDEST PUSH32 0x4E487B7100000000000000000000000000000000000000000000000000000000 PUSH1 0x0 MSTORE PUSH1 0x41 PUSH1 0x4 MSTORE PUSH1 0x24 PUSH1 0x0 REVERT JUMPDEST PUSH3 0x10D DUP3 PUSH3 0xC2 JUMP JUMPDEST DUP2 ADD DUP2 DUP2 LT PUSH8 0xFFFFFFFFFFFFFFFF DUP3 GT OR ISZERO PUSH3 0x12F JUMPI PUSH3 0x12E PUSH3 0xD3 JUMP JUMPDEST JUMPDEST DUP1 PUSH1 0x40 MSTORE POP POP POP JUMP JUMPDEST PUSH1 0x0 PUSH3 0x144 PUSH3 0xA4 JUMP JUMPDEST SWAP1 POP PUSH3 0x152 DUP3 DUP3 PUSH3 0x102 JUMP JUMPDEST SWAP2 SWAP1 POP JUMP JUMPDEST PUSH1 0x0 PUSH8 0xFFFFFFFFFFFFFFFF DUP3 GT ISZERO PUSH3 0x175 JUMPI PUSH3 0x174 PUSH3 0xD3 JUMP JUMPDEST JUMPDEST PUSH3 0x180 DUP3 PUSH3 0xC2 JUMP JUMPDEST SWAP1 POP PUSH1 0x20 DUP2 ADD SWAP1 POP SWAP2 SWAP1 POP JUMP JUMPDEST PUSH1 0x0 JUMPDEST DUP4 DUP2 LT ISZERO PUSH3 0x1AD JUMPI DUP1 DUP3 ADD MLOAD DUP2 DUP5 ADD MSTORE PUSH1 0x20 DUP2 ADD SWAP1 POP PUSH3 0x190 JUMP JUMPDEST PUSH1 0x0 DUP5 DUP5 ADD MSTORE POP POP POP POP JUMP JUMPDEST PUSH1 0x0 PUSH3 0x1D0 PUSH3 0x1CA DUP5 PUSH3 0x157 JUMP JUMPDEST PUSH3 0x138 JUMP JUMPDEST SWAP1 POP DUP3 DUP2 MSTORE PUSH1 0x20 DUP2 ADD DUP5 DUP5 DUP5 ADD GT ISZERO PUSH3 0x1EF JUMPI PUSH3 0x1EE PUSH3 0xBD JUMP JUMPDEST JUMPDEST PUSH3 0x1FC DUP5 DUP3 DUP6 PUSH3 0x18D JUMP JUMPDEST POP SWAP4 SWAP3 POP POP POP JUMP JUMPDEST PUSH1 0x0 DUP3 PUSH1 0x1F DUP4 ADD SLT PUSH3 0x21C JUMPI PUSH3 0x21B PUSH3 0xB8 JUMP JUMPDEST JUMPDEST DUP2 MLOAD PUSH3 0x22E DUP5 DUP3 PUSH1 0x20 DUP7 ADD PUSH3 0x1B9 JUMP JUMPDEST SWAP2 POP POP SWAP3 SWAP2 POP POP JUMP JUMPDEST PUSH1 0x0 PUSH20 0xFFFFFFFFFFFFFFFFFFFFFFFFFFFFFFFFFFFFFFFF DUP3 AND SWAP1 POP SWAP2 SWAP1 POP JUMP JUMPDEST PUSH1 0x0 PUSH3 0x264 DUP3 PUSH3 0x237 JUMP JUMPDEST SWAP1 POP SWAP2 SWAP1 POP JUMP JUMPDEST PUSH3 0x276 DUP2 PUSH3 0x257 JUMP JUMPDEST DUP2 EQ PUSH3 0x282 JUMPI PUSH1 0x0 DUP1 REVERT JUMPDEST POP JUMP JUMPDEST PUSH1 0x0 DUP2 MLOAD SWAP1 POP PUSH3 0x296 DUP2 PUSH3 0x26B JUMP JUMPDEST SWAP3 SWAP2 POP POP JUMP JUMPDEST PUSH1 0x0 DUP1 PUSH1 0x0 PUSH1 0x60 DUP5 DUP7 SUB SLT ISZERO PUSH3 0x2B8 JUMPI PUSH3 0x2B7 PUSH3 0xAE JUMP JUMPDEST JUMPDEST PUSH1 0x0 DUP5 ADD MLOAD PUSH8 0xFFFFFFFFFFFFFFFF DUP2 GT ISZERO PUSH3 0x2D9 JUMPI PUSH3 0x2D8 PUSH3 0xB3 JUMP JUMPDEST JUMPDEST PUSH3 0x2E7 DUP7 DUP3 DUP8 ADD PUSH3 0x204 JUMP JUMPDEST SWAP4 POP POP PUSH1 0x20 DUP5 ADD MLOAD PUSH8 0xFFFFFFFFFFFFFFFF DUP2 GT ISZERO PUSH3 0x30B JUMPI PUSH3 0x30A PUSH3 0xB3 JUMP JUMPDEST JUMPDEST PUSH3 0x319 DUP7 DUP3 DUP8 ADD PUSH3 0x204 JUMP JUMPDEST SWAP3 POP POP PUSH1 0x40 PUSH3 0x32C DUP7 DUP3 DUP8 ADD PUSH3 0x285 JUMP JUMPDEST SWAP2 POP POP SWAP3 POP SWAP3 POP SWAP3 JUMP JUMPDEST PUSH1 0x0 DUP2 MLOAD SWAP1 POP SWAP2 SWAP1 POP JUMP JUMPDEST PUSH32 0x4E487B7100000000000000000000000000000000000000000000000000000000 PUSH1 0x0 MSTORE PUSH1 0x22 PUSH1 0x4 MSTORE PUSH1 0x24 PUSH1 0x0 REVERT JUMPDEST PUSH1 0x0 PUSH1 0x2 DUP3 DIV SWAP1 POP PUSH1 0x1 DUP3 AND DUP1 PUSH3 0x389 JUMPI PUSH1 0x7F DUP3 AND SWAP2 POP JUMPDEST PUSH1 0x20 DUP3 LT DUP2 SUB PUSH3 0x39F JUMPI PUSH3 0x39E PUSH3 0x341 JUMP JUMPDEST JUMPDEST POP SWAP2 SWAP1 POP JUMP JUMPDEST PUSH1 0x0 DUP2 SWAP1 POP DUP2 PUSH1 0x0 MSTORE PUSH1 0x20 PUSH1 0x0 KECCAK256 SWAP1 POP SWAP2 SWAP1 POP JUMP JUMPDEST PUSH1 0x0 PUSH1 0x20 PUSH1 0x1F DUP4 ADD DIV SWAP1 POP SWAP2 SWAP1 POP JUMP JUMPDEST PUSH1 0x0 DUP3 DUP3 SHL SWAP1 POP SWAP3 SWAP2 POP POP JUMP JUMPDEST PUSH1 0x0 PUSH1 0x8 DUP4 MUL PUSH3 0x409 PUSH32 0xFFFFFFFFFFFFFFFFFFFFFFFFFFFFFFFFFFFFFFFFFFFFFFFFFFFFFFFFFFFFFFFF DUP3 PUSH3 0x3CA JUMP JUMPDEST PUSH3 0x415 DUP7 DUP4 PUSH3 0x3CA JUMP JUMPDEST SWAP6 POP DUP1 NOT DUP5 AND SWAP4 POP DUP1 DUP7 AND DUP5 OR SWAP3 POP POP POP SWAP4 SWAP3 POP POP POP JUMP JUMPDEST PUSH1 0x0 DUP2 SWAP1 POP SWAP2 SWAP1 POP JUMP JUMPDEST PUSH1 0x0 DUP2 SWAP1 POP SWAP2 SWAP1 POP JUMP JUMPDEST PUSH1 0x0 PUSH3 0x462 PUSH3 0x45C PUSH3 0x456 DUP5 PUSH3 0x42D JUMP JUMPDEST PUSH3 0x437 JUMP JUMPDEST PUSH3 0x42D JUMP JUMPDEST SWAP1 POP SWAP2 SWAP1 POP JUMP JUMPDEST PUSH1 0x0 DUP2 SWAP1 POP SWAP2 SWAP1 POP JUMP JUMPDEST PUSH3 0x47E DUP4 PUSH3 0x441 JUMP JUMPDEST PUSH3 0x496 PUSH3 0x48D DUP3 PUSH3 0x469 JUMP JUMPDEST DUP5 DUP5 SLOAD PUSH3 0x3D7 JUMP JUMPDEST DUP3 SSTORE POP POP POP POP JUMP JUMPDEST PUSH1 0x0 SWAP1 JUMP JUMPDEST PUSH3 0x4AD PUSH3 0x49E JUMP JUMPDEST PUSH3 0x4BA DUP2 DUP5 DUP5 PUSH3 0x473 JUMP JUMPDEST POP POP POP JUMP JUMPDEST JUMPDEST DUP2 DUP2 LT ISZERO PUSH3 0x4E2 JUMPI PUSH3 0x4D6 PUSH1 0x0 DUP3 PUSH3 0x4A3 JUMP JUMPDEST PUSH1 0x1 DUP2 ADD SWAP1 POP PUSH3 0x4C0 JUMP JUMPDEST POP POP JUMP JUMPDEST PUSH1 0x1F DUP3 GT ISZERO PUSH3 0x531 JUMPI PUSH3 0x4FB DUP2 PUSH3 0x3A5 JUMP JUMPDEST PUSH3 0x506 DUP5 PUSH3 0x3BA JUMP JUMPDEST DUP2 ADD PUSH1 0x20 DUP6 LT ISZERO PUSH3 0x516 JUMPI DUP2 SWAP1 POP JUMPDEST PUSH3 0x52E PUSH3 0x525 DUP6 PUSH3 0x3BA JUMP JUMPDEST DUP4 ADD DUP3 PUSH3 0x4BF JUMP JUMPDEST POP POP JUMPDEST POP POP POP JUMP JUMPDEST PUSH1 0x0 DUP3 DUP3 SHR SWAP1 POP SWAP3 SWAP2 POP POP JUMP JUMPDEST PUSH1 0x0 PUSH3 0x556 PUSH1 0x0 NOT DUP5 PUSH1 0x8 MUL PUSH3 0x536 JUMP JUMPDEST NOT DUP1 DUP4 AND SWAP2 POP POP SWAP3 SWAP2 POP POP JUMP JUMPDEST PUSH1 0x0 PUSH3 0x571 DUP4 DUP4 PUSH3 0x543 JUMP JUMPDEST SWAP2 POP DUP3 PUSH1 0x2 MUL DUP3 OR SWAP1 POP SWAP3 SWAP2 POP POP JUMP JUMPDEST PUSH3 0x58C DUP3 PUSH3 0x336 JUMP JUMPDEST PUSH8 0xFFFFFFFFFFFFFFFF DUP2 GT ISZERO PUSH3 0x5A8 JUMPI PUSH3 0x5A7 PUSH3 0xD3 JUMP JUMPDEST JUMPDEST PUSH3 0x5B4 DUP3 SLOAD PUSH3 0x370 JUMP JUMPDEST PUSH3 0x5C1 DUP3 DUP3 DUP6 PUSH3 0x4E6 JUMP JUMPDEST PUSH1 0x0 PUSH1 0x20 SWAP1 POP PUSH1 0x1F DUP4 GT PUSH1 0x1 DUP2 EQ PUSH3 0x5F9 JUMPI PUSH1 0x0 DUP5 ISZERO PUSH3 0x5E4 JUMPI DUP3 DUP8 ADD MLOAD SWAP1 POP JUMPDEST PUSH3 0x5F0 DUP6 DUP3 PUSH3 0x563 JUMP JUMPDEST DUP7 SSTORE POP PUSH3 0x660 JUMP JUMPDEST PUSH1 0x1F NOT DUP5 AND PUSH3 0x609 DUP7 PUSH3 0x3A5 JUMP JUMPDEST PUSH1 0x0 JUMPDEST DUP3 DUP2 LT ISZERO PUSH3 0x633 JUMPI DUP5 DUP10 ADD MLOAD DUP3 SSTORE PUSH1 0x1 DUP3 ADD SWAP2 POP PUSH1 0x20 DUP6 ADD SWAP5 POP PUSH1 0x20 DUP2 ADD SWAP1 POP PUSH3 0x60C JUMP JUMPDEST DUP7 DUP4 LT ISZERO PUSH3 0x653 JUMPI DUP5 DUP10 ADD MLOAD PUSH3 0x64F PUSH1 0x1F DUP10 AND DUP3 PUSH3 0x543 JUMP JUMPDEST DUP4 SSTORE POP JUMPDEST PUSH1 0x1 PUSH1 0x2 DUP9 MUL ADD DUP9 SSTORE POP POP POP JUMPDEST POP POP POP POP POP POP JUMP JUMPDEST PUSH2 0x20A3 DUP1 PUSH3 0x678 PUSH1 0x0 CODECOPY PUSH1 0x0 RETURN INVALID PUSH1 0x80 PUSH1 0x40 MSTORE CALLVALUE DUP1 ISZERO PUSH2 0x10 JUMPI PUSH1 0x0 DUP1 REVERT JUMPDEST POP PUSH1 0x4 CALLDATASIZE LT PUSH2 0xF5 JUMPI PUSH1 0x0 CALLDATALOAD PUSH1 0xE0 SHR DUP1 PUSH4 0x6352211E GT PUSH2 0x97 JUMPI DUP1 PUSH4 0xB2BDFA7B GT PUSH2 0x66 JUMPI DUP1 PUSH4 0xB2BDFA7B EQ PUSH2 0x282 JUMPI DUP1 PUSH4 0xB88D4FDE EQ PUSH2 0x2A0 JUMPI DUP1 PUSH4 0xC87B56DD EQ PUSH2 0x2BC JUMPI DUP1 PUSH4 0xE985E9C5 EQ PUSH2 0x2EC JUMPI PUSH2 0xF5 JUMP JUMPDEST DUP1 PUSH4 0x6352211E EQ PUSH2 0x1E8 JUMPI DUP1 PUSH4 0x70A08231 EQ PUSH2 0x218 JUMPI DUP1 PUSH4 0x95D89B41 EQ PUSH2 0x248 JUMPI DUP1 PUSH4 0xA22CB465 EQ PUSH2 0x266 JUMPI PUSH2 0xF5 JUMP JUMPDEST DUP1 PUSH4 0x95EA7B3 GT PUSH2 0xD3 JUMPI DUP1 PUSH4 0x95EA7B3 EQ PUSH2 0x178 JUMPI DUP1 PUSH4 0x23B872DD EQ PUSH2 0x194 JUMPI DUP1 PUSH4 0x30E0789E EQ PUSH2 0x1B0 JUMPI DUP1 PUSH4 0x42842E0E EQ PUSH2 0x1CC JUMPI PUSH2 0xF5 JUMP JUMPDEST DUP1 PUSH4 0x1FFC9A7 EQ PUSH2 0xFA JUMPI DUP1 PUSH4 0x6FDDE03 EQ PUSH2 0x12A JUMPI DUP1 PUSH4 0x81812FC EQ PUSH2 0x148 JUMPI JUMPDEST PUSH1 0x0 DUP1 REVERT JUMPDEST PUSH2 0x114 PUSH1 0x4 DUP1 CALLDATASIZE SUB DUP2 ADD SWAP1 PUSH2 0x10F SWAP2 SWAP1 PUSH2 0x1509 JUMP JUMPDEST PUSH2 0x31C JUMP JUMPDEST PUSH1 0x40 MLOAD PUSH2 0x121 SWAP2 SWAP1 PUSH2 0x1551 JUMP JUMPDEST PUSH1 0x40 MLOAD DUP1 SWAP2 SUB SWAP1 RETURN JUMPDEST PUSH2 0x132 PUSH2 0x3FE JUMP JUMPDEST PUSH1 0x40 MLOAD PUSH2 0x13F SWAP2 SWAP1 PUSH2 0x15FC JUMP JUMPDEST PUSH1 0x40 MLOAD DUP1 SWAP2 SUB SWAP1 RETURN JUMPDEST PUSH2 0x162 PUSH1 0x4 DUP1 CALLDATASIZE SUB DUP2 ADD SWAP1 PUSH2 0x15D SWAP2 SWAP1 PUSH2 0x1654 JUMP JUMPDEST PUSH2 0x490 JUMP JUMPDEST PUSH1 0x40 MLOAD PUSH2 0x16F SWAP2 SWAP1 PUSH2 0x16C2 JUMP JUMPDEST PUSH1 0x40 MLOAD DUP1 SWAP2 SUB SWAP1 RETURN JUMPDEST PUSH2 0x192 PUSH1 0x4 DUP1 CALLDATASIZE SUB DUP2 ADD SWAP1 PUSH2 0x18D SWAP2 SWAP1 PUSH2 0x1709 JUMP JUMPDEST PUSH2 0x4D6 JUMP JUMPDEST STOP JUMPDEST PUSH2 0x1AE PUSH1 0x4 DUP1 CALLDATASIZE SUB DUP2 ADD SWAP1 PUSH2 0x1A9 SWAP2 SWAP1 PUSH2 0x1749 JUMP JUMPDEST PUSH2 0x5ED JUMP JUMPDEST STOP JUMPDEST PUSH2 0x1CA PUSH1 0x4 DUP1 CALLDATASIZE SUB DUP2 ADD SWAP1 PUSH2 0x1C5 SWAP2 SWAP1 PUSH2 0x1749 JUMP JUMPDEST PUSH2 0x64D JUMP JUMPDEST STOP JUMPDEST PUSH2 0x1E6 PUSH1 0x4 DUP1 CALLDATASIZE SUB DUP2 ADD SWAP1 PUSH2 0x1E1 SWAP2 SWAP1 PUSH2 0x1749 JUMP JUMPDEST PUSH2 0x8D7 JUMP JUMPDEST STOP JUMPDEST PUSH2 0x202 PUSH1 0x4 DUP1 CALLDATASIZE SUB DUP2 ADD SWAP1 PUSH2 0x1FD SWAP2 SWAP1 PUSH2 0x1654 JUMP JUMPDEST PUSH2 0x8F7 JUMP JUMPDEST PUSH1 0x40 MLOAD PUSH2 0x20F SWAP2 SWAP1 PUSH2 0x16C2 JUMP JUMPDEST PUSH1 0x40 MLOAD DUP1 SWAP2 SUB SWAP1 RETURN JUMPDEST PUSH2 0x232 PUSH1 0x4 DUP1 CALLDATASIZE SUB DUP2 ADD SWAP1 PUSH2 0x22D SWAP2 SWAP1 PUSH2 0x179C JUMP JUMPDEST PUSH2 0x97D JUMP JUMPDEST PUSH1 0x40 MLOAD PUSH2 0x23F SWAP2 SWAP1 PUSH2 0x17D8 JUMP JUMPDEST PUSH1 0x40 MLOAD DUP1 SWAP2 SUB SWAP1 RETURN JUMPDEST PUSH2 0x250 PUSH2 0xA34 JUMP JUMPDEST PUSH1 0x40 MLOAD PUSH2 0x25D SWAP2 SWAP1 PUSH2 0x15FC JUMP JUMPDEST PUSH1 0x40 MLOAD DUP1 SWAP2 SUB SWAP1 RETURN JUMPDEST PUSH2 0x280 PUSH1 0x4 DUP1 CALLDATASIZE SUB DUP2 ADD SWAP1 PUSH2 0x27B SWAP2 SWAP1 PUSH2 0x181F JUMP JUMPDEST PUSH2 0xAC6 JUMP JUMPDEST STOP JUMPDEST PUSH2 0x28A PUSH2 0xADC JUMP JUMPDEST PUSH1 0x40 MLOAD PUSH2 0x297 SWAP2 SWAP1 PUSH2 0x16C2 JUMP JUMPDEST PUSH1 0x40 MLOAD DUP1 SWAP2 SUB SWAP1 RETURN JUMPDEST PUSH2 0x2BA PUSH1 0x4 DUP1 CALLDATASIZE SUB DUP2 ADD SWAP1 PUSH2 0x2B5 SWAP2 SWAP1 PUSH2 0x1994 JUMP JUMPDEST PUSH2 0xB00 JUMP JUMPDEST STOP JUMPDEST PUSH2 0x2D6 PUSH1 0x4 DUP1 CALLDATASIZE SUB DUP2 ADD SWAP1 PUSH2 0x2D1 SWAP2 SWAP1 PUSH2 0x1654 JUMP JUMPDEST PUSH2 0xB62 JUMP JUMPDEST PUSH1 0x40 MLOAD PUSH2 0x2E3 SWAP2 SWAP1 PUSH2 0x15FC JUMP JUMPDEST PUSH1 0x40 MLOAD DUP1 SWAP2 SUB SWAP1 RETURN JUMPDEST PUSH2 0x306 PUSH1 0x4 DUP1 CALLDATASIZE SUB DUP2 ADD SWAP1 PUSH2 0x301 SWAP2 SWAP1 PUSH2 0x1A17 JUMP JUMPDEST PUSH2 0xBCA JUMP JUMPDEST PUSH1 0x40 MLOAD PUSH2 0x313 SWAP2 SWAP1 PUSH2 0x1551 JUMP JUMPDEST PUSH1 0x40 MLOAD DUP1 SWAP2 SUB SWAP1 RETURN JUMPDEST PUSH1 0x0 PUSH32 0x80AC58CD00000000000000000000000000000000000000000000000000000000 PUSH28 0xFFFFFFFFFFFFFFFFFFFFFFFFFFFFFFFFFFFFFFFFFFFFFFFFFFFFFFFF NOT AND DUP3 PUSH28 0xFFFFFFFFFFFFFFFFFFFFFFFFFFFFFFFFFFFFFFFFFFFFFFFFFFFFFFFF NOT AND EQ DUP1 PUSH2 0x3E7 JUMPI POP PUSH32 0x5B5E139F00000000000000000000000000000000000000000000000000000000 PUSH28 0xFFFFFFFFFFFFFFFFFFFFFFFFFFFFFFFFFFFFFFFFFFFFFFFFFFFFFFFF NOT AND DUP3 PUSH28 0xFFFFFFFFFFFFFFFFFFFFFFFFFFFFFFFFFFFFFFFFFFFFFFFFFFFFFFFF NOT AND EQ JUMPDEST DUP1 PUSH2 0x3F7 JUMPI POP PUSH2 0x3F6 DUP3 PUSH2 0xC5E JUMP JUMPDEST JUMPDEST SWAP1 POP SWAP2 SWAP1 POP JUMP JUMPDEST PUSH1 0x60 PUSH1 0x1 DUP1 SLOAD PUSH2 0x40D SWAP1 PUSH2 0x1A86 JUMP JUMPDEST DUP1 PUSH1 0x1F ADD PUSH1 0x20 DUP1 SWAP2 DIV MUL PUSH1 0x20 ADD PUSH1 0x40 MLOAD SWAP1 DUP2 ADD PUSH1 0x40 MSTORE DUP1 SWAP3 SWAP2 SWAP1 DUP2 DUP2 MSTORE PUSH1 0x20 ADD DUP3 DUP1 SLOAD PUSH2 0x439 SWAP1 PUSH2 0x1A86 JUMP JUMPDEST DUP1 ISZERO PUSH2 0x486 JUMPI DUP1 PUSH1 0x1F LT PUSH2 0x45B JUMPI PUSH2 0x100 DUP1 DUP4 SLOAD DIV MUL DUP4 MSTORE SWAP2 PUSH1 0x20 ADD SWAP2 PUSH2 0x486 JUMP JUMPDEST DUP3 ADD SWAP2 SWAP1 PUSH1 0x0 MSTORE PUSH1 0x20 PUSH1 0x0 KECCAK256 SWAP1 JUMPDEST DUP2 SLOAD DUP2 MSTORE SWAP1 PUSH1 0x1 ADD SWAP1 PUSH1 0x20 ADD DUP1 DUP4 GT PUSH2 0x469 JUMPI DUP3 SWAP1 SUB PUSH1 0x1F AND DUP3 ADD SWAP2 JUMPDEST POP POP POP POP POP SWAP1 POP SWAP1 JUMP JUMPDEST PUSH1 0x0 PUSH2 0x49B DUP3 PUSH2 0xCC8 JUMP JUMPDEST PUSH1 0x5 PUSH1 0x0 DUP4 DUP2 MSTORE PUSH1 0x20 ADD SWAP1 DUP2 MSTORE PUSH1 0x20 ADD PUSH1 0x0 KECCAK256 PUSH1 0x0 SWAP1 SLOAD SWAP1 PUSH2 0x100 EXP SWAP1 DIV PUSH20 0xFFFFFFFFFFFFFFFFFFFFFFFFFFFFFFFFFFFFFFFF AND SWAP1 POP SWAP2 SWAP1 POP JUMP JUMPDEST PUSH1 0x0 PUSH2 0x4E1 DUP3 PUSH2 0x8F7 JUMP JUMPDEST SWAP1 POP DUP1 PUSH20 0xFFFFFFFFFFFFFFFFFFFFFFFFFFFFFFFFFFFFFFFF AND DUP4 PUSH20 0xFFFFFFFFFFFFFFFFFFFFFFFFFFFFFFFFFFFFFFFF AND SUB PUSH2 0x551 JUMPI PUSH1 0x40 MLOAD PUSH32 0x8C379A000000000000000000000000000000000000000000000000000000000 DUP2 MSTORE PUSH1 0x4 ADD PUSH2 0x548 SWAP1 PUSH2 0x1B29 JUMP JUMPDEST PUSH1 0x40 MLOAD DUP1 SWAP2 SUB SWAP1 REVERT JUMPDEST DUP1 PUSH20 0xFFFFFFFFFFFFFFFFFFFFFFFFFFFFFFFFFFFFFFFF AND PUSH2 0x570 PUSH2 0xD13 JUMP JUMPDEST PUSH20 0xFFFFFFFFFFFFFFFFFFFFFFFFFFFFFFFFFFFFFFFF AND EQ DUP1 PUSH2 0x59F JUMPI POP PUSH2 0x59E DUP2 PUSH2 0x599 PUSH2 0xD13 JUMP JUMPDEST PUSH2 0xBCA JUMP JUMPDEST JUMPDEST PUSH2 0x5DE JUMPI PUSH1 0x40 MLOAD PUSH32 0x8C379A000000000000000000000000000000000000000000000000000000000 DUP2 MSTORE PUSH1 0x4 ADD PUSH2 0x5D5 SWAP1 PUSH2 0x1BBB JUMP JUMPDEST PUSH1 0x40 MLOAD DUP1 SWAP2 SUB SWAP1 REVERT JUMPDEST PUSH2 0x5E8 DUP4 DUP4 PUSH2 0xD1B JUMP JUMPDEST POP POP POP JUMP JUMPDEST PUSH2 0x5FE PUSH2 0x5F8 PUSH2 0xD13 JUMP JUMPDEST DUP3 PUSH2 0xDD4 JUMP JUMPDEST PUSH2 0x63D JUMPI PUSH1 0x40 MLOAD PUSH32 0x8C379A000000000000000000000000000000000000000000000000000000000 DUP2 MSTORE PUSH1 0x4 ADD PUSH2 0x634 SWAP1 PUSH2 0x1C4D JUMP JUMPDEST PUSH1 0x40 MLOAD DUP1 SWAP2 SUB SWAP1 REVERT JUMPDEST PUSH2 0x648 DUP4 DUP4 DUP4 PUSH2 0x64D JUMP JUMPDEST POP POP POP JUMP JUMPDEST DUP3 PUSH20 0xFFFFFFFFFFFFFFFFFFFFFFFFFFFFFFFFFFFFFFFF AND PUSH2 0x66D DUP3 PUSH2 0x8F7 JUMP JUMPDEST PUSH20 0xFFFFFFFFFFFFFFFFFFFFFFFFFFFFFFFFFFFFFFFF AND EQ PUSH2 0x6C3 JUMPI PUSH1 0x40 MLOAD PUSH32 0x8C379A000000000000000000000000000000000000000000000000000000000 DUP2 MSTORE PUSH1 0x4 ADD PUSH2 0x6BA SWAP1 PUSH2 0x1CDF JUMP JUMPDEST PUSH1 0x40 MLOAD DUP1 SWAP2 SUB SWAP1 REVERT JUMPDEST PUSH2 0x6D0 DUP4 DUP4 DUP4 PUSH1 0x1 PUSH2 0xE69 JUMP JUMPDEST DUP3 PUSH20 0xFFFFFFFFFFFFFFFFFFFFFFFFFFFFFFFFFFFFFFFF AND PUSH2 0x6F0 DUP3 PUSH2 0x8F7 JUMP JUMPDEST PUSH20 0xFFFFFFFFFFFFFFFFFFFFFFFFFFFFFFFFFFFFFFFF AND EQ PUSH2 0x746 JUMPI PUSH1 0x40 MLOAD PUSH32 0x8C379A000000000000000000000000000000000000000000000000000000000 DUP2 MSTORE PUSH1 0x4 ADD PUSH2 0x73D SWAP1 PUSH2 0x1CDF JUMP JUMPDEST PUSH1 0x40 MLOAD DUP1 SWAP2 SUB SWAP1 REVERT JUMPDEST PUSH1 0x5 PUSH1 0x0 DUP3 DUP2 MSTORE PUSH1 0x20 ADD SWAP1 DUP2 MSTORE PUSH1 0x20 ADD PUSH1 0x0 KECCAK256 PUSH1 0x0 PUSH2 0x100 EXP DUP2 SLOAD SWAP1 PUSH20 0xFFFFFFFFFFFFFFFFFFFFFFFFFFFFFFFFFFFFFFFF MUL NOT AND SWAP1 SSTORE PUSH1 0x1 PUSH1 0x4 PUSH1 0x0 DUP6 PUSH20 0xFFFFFFFFFFFFFFFFFFFFFFFFFFFFFFFFFFFFFFFF AND PUSH20 0xFFFFFFFFFFFFFFFFFFFFFFFFFFFFFFFFFFFFFFFF AND DUP2 MSTORE PUSH1 0x20 ADD SWAP1 DUP2 MSTORE PUSH1 0x20 ADD PUSH1 0x0 KECCAK256 PUSH1 0x0 DUP3 DUP3 SLOAD SUB SWAP3 POP POP DUP2 SWAP1 SSTORE POP PUSH1 0x1 PUSH1 0x4 PUSH1 0x0 DUP5 PUSH20 0xFFFFFFFFFFFFFFFFFFFFFFFFFFFFFFFFFFFFFFFF AND PUSH20 0xFFFFFFFFFFFFFFFFFFFFFFFFFFFFFFFFFFFFFFFF AND DUP2 MSTORE PUSH1 0x20 ADD SWAP1 DUP2 MSTORE PUSH1 0x20 ADD PUSH1 0x0 KECCAK256 PUSH1 0x0 DUP3 DUP3 SLOAD ADD SWAP3 POP POP DUP2 SWAP1 SSTORE POP DUP2 PUSH1 0x3 PUSH1 0x0 DUP4 DUP2 MSTORE PUSH1 0x20 ADD SWAP1 DUP2 MSTORE PUSH1 0x20 ADD PUSH1 0x0 KECCAK256 PUSH1 0x0 PUSH2 0x100 EXP DUP2 SLOAD DUP2 PUSH20 0xFFFFFFFFFFFFFFFFFFFFFFFFFFFFFFFFFFFFFFFF MUL NOT AND SWAP1 DUP4 PUSH20 0xFFFFFFFFFFFFFFFFFFFFFFFFFFFFFFFFFFFFFFFF AND MUL OR SWAP1 SSTORE POP DUP1 DUP3 PUSH20 0xFFFFFFFFFFFFFFFFFFFFFFFFFFFFFFFFFFFFFFFF AND DUP5 PUSH20 0xFFFFFFFFFFFFFFFFFFFFFFFFFFFFFFFFFFFFFFFF AND PUSH32 0xDDF252AD1BE2C89B69C2B068FC378DAA952BA7F163C4A11628F55A4DF523B3EF PUSH1 0x40 MLOAD PUSH1 0x40 MLOAD DUP1 SWAP2 SUB SWAP1 LOG4 PUSH2 0x8D2 DUP4 DUP4 DUP4 PUSH1 0x1 PUSH2 0xE6F JUMP JUMPDEST POP POP POP JUMP JUMPDEST PUSH2 0x8F2 DUP4 DUP4 DUP4 PUSH1 0x40 MLOAD DUP1 PUSH1 0x20 ADD PUSH1 0x40 MSTORE DUP1 PUSH1 0x0 DUP2 MSTORE POP PUSH2 0xB00 JUMP JUMPDEST POP POP POP JUMP JUMPDEST PUSH1 0x0 DUP1 PUSH2 0x903 DUP4 PUSH2 0xE75 JUMP JUMPDEST SWAP1 POP PUSH1 0x0 PUSH20 0xFFFFFFFFFFFFFFFFFFFFFFFFFFFFFFFFFFFFFFFF AND DUP2 PUSH20 0xFFFFFFFFFFFFFFFFFFFFFFFFFFFFFFFFFFFFFFFF AND SUB PUSH2 0x974 JUMPI PUSH1 0x40 MLOAD PUSH32 0x8C379A000000000000000000000000000000000000000000000000000000000 DUP2 MSTORE PUSH1 0x4 ADD PUSH2 0x96B SWAP1 PUSH2 0x1D4B JUMP JUMPDEST PUSH1 0x40 MLOAD DUP1 SWAP2 SUB SWAP1 REVERT JUMPDEST DUP1 SWAP2 POP POP SWAP2 SWAP1 POP JUMP JUMPDEST PUSH1 0x0 DUP1 PUSH20 0xFFFFFFFFFFFFFFFFFFFFFFFFFFFFFFFFFFFFFFFF AND DUP3 PUSH20 0xFFFFFFFFFFFFFFFFFFFFFFFFFFFFFFFFFFFFFFFF AND SUB PUSH2 0x9ED JUMPI PUSH1 0x40 MLOAD PUSH32 0x8C379A000000000000000000000000000000000000000000000000000000000 DUP2 MSTORE PUSH1 0x4 ADD PUSH2 0x9E4 SWAP1 PUSH2 0x1DDD JUMP JUMPDEST PUSH1 0x40 MLOAD DUP1 SWAP2 SUB SWAP1 REVERT JUMPDEST PUSH1 0x4 PUSH1 0x0 DUP4 PUSH20 0xFFFFFFFFFFFFFFFFFFFFFFFFFFFFFFFFFFFFFFFF AND PUSH20 0xFFFFFFFFFFFFFFFFFFFFFFFFFFFFFFFFFFFFFFFF AND DUP2 MSTORE PUSH1 0x20 ADD SWAP1 DUP2 MSTORE PUSH1 0x20 ADD PUSH1 0x0 KECCAK256 SLOAD SWAP1 POP SWAP2 SWAP1 POP JUMP JUMPDEST PUSH1 0x60 PUSH1 0x2 DUP1 SLOAD PUSH2 0xA43 SWAP1 PUSH2 0x1A86 JUMP JUMPDEST DUP1 PUSH1 0x1F ADD PUSH1 0x20 DUP1 SWAP2 DIV MUL PUSH1 0x20 ADD PUSH1 0x40 MLOAD SWAP1 DUP2 ADD PUSH1 0x40 MSTORE DUP1 SWAP3 SWAP2 SWAP1 DUP2 DUP2 MSTORE PUSH1 0x20 ADD DUP3 DUP1 SLOAD PUSH2 0xA6F SWAP1 PUSH2 0x1A86 JUMP JUMPDEST DUP1 ISZERO PUSH2 0xABC JUMPI DUP1 PUSH1 0x1F LT PUSH2 0xA91 JUMPI PUSH2 0x100 DUP1 DUP4 SLOAD DIV MUL DUP4 MSTORE SWAP2 PUSH1 0x20 ADD SWAP2 PUSH2 0xABC JUMP JUMPDEST DUP3 ADD SWAP2 SWAP1 PUSH1 0x0 MSTORE PUSH1 0x20 PUSH1 0x0 KECCAK256 SWAP1 JUMPDEST DUP2 SLOAD DUP2 MSTORE SWAP1 PUSH1 0x1 ADD SWAP1 PUSH1 0x20 ADD DUP1 DUP4 GT PUSH2 0xA9F JUMPI DUP3 SWAP1 SUB PUSH1 0x1F AND DUP3 ADD SWAP2 JUMPDEST POP POP POP POP POP SWAP1 POP SWAP1 JUMP JUMPDEST PUSH2 0xAD8 PUSH2 0xAD1 PUSH2 0xD13 JUMP JUMPDEST DUP4 DUP4 PUSH2 0xEB2 JUMP JUMPDEST POP POP JUMP JUMPDEST PUSH1 0x0 DUP1 SLOAD SWAP1 PUSH2 0x100 EXP SWAP1 DIV PUSH20 0xFFFFFFFFFFFFFFFFFFFFFFFFFFFFFFFFFFFFFFFF AND DUP2 JUMP JUMPDEST PUSH2 0xB11 PUSH2 0xB0B PUSH2 0xD13 JUMP JUMPDEST DUP4 PUSH2 0xDD4 JUMP JUMPDEST PUSH2 0xB50 JUMPI PUSH1 0x40 MLOAD PUSH32 0x8C379A000000000000000000000000000000000000000000000000000000000 DUP2 MSTORE PUSH1 0x4 ADD PUSH2 0xB47 SWAP1 PUSH2 0x1C4D JUMP JUMPDEST PUSH1 0x40 MLOAD DUP1 SWAP2 SUB SWAP1 REVERT JUMPDEST PUSH2 0xB5C DUP5 DUP5 DUP5 DUP5 PUSH2 0x101E JUMP JUMPDEST POP POP POP POP JUMP JUMPDEST PUSH1 0x60 PUSH2 0xB6D DUP3 PUSH2 0xCC8 JUMP JUMPDEST PUSH1 0x0 PUSH2 0xB77 PUSH2 0x107A JUMP JUMPDEST SWAP1 POP PUSH1 0x0 DUP2 MLOAD GT PUSH2 0xB97 JUMPI PUSH1 0x40 MLOAD DUP1 PUSH1 0x20 ADD PUSH1 0x40 MSTORE DUP1 PUSH1 0x0 DUP2 MSTORE POP PUSH2 0xBC2 JUMP JUMPDEST DUP1 PUSH2 0xBA1 DUP5 PUSH2 0x1091 JUMP JUMPDEST PUSH1 0x40 MLOAD PUSH1 0x20 ADD PUSH2 0xBB2 SWAP3 SWAP2 SWAP1 PUSH2 0x1E39 JUMP JUMPDEST PUSH1 0x40 MLOAD PUSH1 0x20 DUP2 DUP4 SUB SUB DUP2 MSTORE SWAP1 PUSH1 0x40 MSTORE JUMPDEST SWAP2 POP POP SWAP2 SWAP1 POP JUMP JUMPDEST PUSH1 0x0 PUSH1 0x6 PUSH1 0x0 DUP5 PUSH20 0xFFFFFFFFFFFFFFFFFFFFFFFFFFFFFFFFFFFFFFFF AND PUSH20 0xFFFFFFFFFFFFFFFFFFFFFFFFFFFFFFFFFFFFFFFF AND DUP2 MSTORE PUSH1 0x20 ADD SWAP1 DUP2 MSTORE PUSH1 0x20 ADD PUSH1 0x0 KECCAK256 PUSH1 0x0 DUP4 PUSH20 0xFFFFFFFFFFFFFFFFFFFFFFFFFFFFFFFFFFFFFFFF AND PUSH20 0xFFFFFFFFFFFFFFFFFFFFFFFFFFFFFFFFFFFFFFFF AND DUP2 MSTORE PUSH1 0x20 ADD SWAP1 DUP2 MSTORE PUSH1 0x20 ADD PUSH1 0x0 KECCAK256 PUSH1 0x0 SWAP1 SLOAD SWAP1 PUSH2 0x100 EXP SWAP1 DIV PUSH1 0xFF AND SWAP1 POP SWAP3 SWAP2 POP POP JUMP JUMPDEST PUSH1 0x0 PUSH32 0x1FFC9A700000000000000000000000000000000000000000000000000000000 PUSH28 0xFFFFFFFFFFFFFFFFFFFFFFFFFFFFFFFFFFFFFFFFFFFFFFFFFFFFFFFF NOT AND DUP3 PUSH28 0xFFFFFFFFFFFFFFFFFFFFFFFFFFFFFFFFFFFFFFFFFFFFFFFFFFFFFFFF NOT AND EQ SWAP1 POP SWAP2 SWAP1 POP JUMP JUMPDEST PUSH2 0xCD1 DUP2 PUSH2 0x115F JUMP JUMPDEST PUSH2 0xD10 JUMPI PUSH1 0x40 MLOAD PUSH32 0x8C379A000000000000000000000000000000000000000000000000000000000 DUP2 MSTORE PUSH1 0x4 ADD PUSH2 0xD07 SWAP1 PUSH2 0x1D4B JUMP JUMPDEST PUSH1 0x40 MLOAD DUP1 SWAP2 SUB SWAP1 REVERT JUMPDEST POP JUMP JUMPDEST PUSH1 0x0 CALLER SWAP1 POP SWAP1 JUMP JUMPDEST DUP2 PUSH1 0x5 PUSH1 0x0 DUP4 DUP2 MSTORE PUSH1 0x20 ADD SWAP1 DUP2 MSTORE PUSH1 0x20 ADD PUSH1 0x0 KECCAK256 PUSH1 0x0 PUSH2 0x100 EXP DUP2 SLOAD DUP2 PUSH20 0xFFFFFFFFFFFFFFFFFFFFFFFFFFFFFFFFFFFFFFFF MUL NOT AND SWAP1 DUP4 PUSH20 0xFFFFFFFFFFFFFFFFFFFFFFFFFFFFFFFFFFFFFFFF AND MUL OR SWAP1 SSTORE POP DUP1 DUP3 PUSH20 0xFFFFFFFFFFFFFFFFFFFFFFFFFFFFFFFFFFFFFFFF AND PUSH2 0xD8E DUP4 PUSH2 0x8F7 JUMP JUMPDEST PUSH20 0xFFFFFFFFFFFFFFFFFFFFFFFFFFFFFFFFFFFFFFFF AND PUSH32 0x8C5BE1E5EBEC7D5BD14F71427D1E84F3DD0314C0F7B2291E5B200AC8C7C3B925 PUSH1 0x40 MLOAD PUSH1 0x40 MLOAD DUP1 SWAP2 SUB SWAP1 LOG4 POP POP JUMP JUMPDEST PUSH1 0x0 DUP1 PUSH2 0xDE0 DUP4 PUSH2 0x8F7 JUMP JUMPDEST SWAP1 POP DUP1 PUSH20 0xFFFFFFFFFFFFFFFFFFFFFFFFFFFFFFFFFFFFFFFF AND DUP5 PUSH20 0xFFFFFFFFFFFFFFFFFFFFFFFFFFFFFFFFFFFFFFFF AND EQ DUP1 PUSH2 0xE22 JUMPI POP PUSH2 0xE21 DUP2 DUP6 PUSH2 0xBCA JUMP JUMPDEST JUMPDEST DUP1 PUSH2 0xE60 JUMPI POP DUP4 PUSH20 0xFFFFFFFFFFFFFFFFFFFFFFFFFFFFFFFFFFFFFFFF AND PUSH2 0xE48 DUP5 PUSH2 0x490 JUMP JUMPDEST PUSH20 0xFFFFFFFFFFFFFFFFFFFFFFFFFFFFFFFFFFFFFFFF AND EQ JUMPDEST SWAP2 POP POP SWAP3 SWAP2 POP POP JUMP JUMPDEST POP POP POP POP JUMP JUMPDEST POP POP POP POP JUMP JUMPDEST PUSH1 0x0 PUSH1 0x3 PUSH1 0x0 DUP4 DUP2 MSTORE PUSH1 0x20 ADD SWAP1 DUP2 MSTORE PUSH1 0x20 ADD PUSH1 0x0 KECCAK256 PUSH1 0x0 SWAP1 SLOAD SWAP1 PUSH2 0x100 EXP SWAP1 DIV PUSH20 0xFFFFFFFFFFFFFFFFFFFFFFFFFFFFFFFFFFFFFFFF AND SWAP1 POP SWAP2 SWAP1 POP JUMP JUMPDEST DUP2 PUSH20 0xFFFFFFFFFFFFFFFFFFFFFFFFFFFFFFFFFFFFFFFF AND DUP4 PUSH20 0xFFFFFFFFFFFFFFFFFFFFFFFFFFFFFFFFFFFFFFFF AND SUB PUSH2 0xF20 JUMPI PUSH1 0x40 MLOAD PUSH32 0x8C379A000000000000000000000000000000000000000000000000000000000 DUP2 MSTORE PUSH1 0x4 ADD PUSH2 0xF17 SWAP1 PUSH2 0x1EA9 JUMP JUMPDEST PUSH1 0x40 MLOAD DUP1 SWAP2 SUB SWAP1 REVERT JUMPDEST DUP1 PUSH1 0x6 PUSH1 0x0 DUP6 PUSH20 0xFFFFFFFFFFFFFFFFFFFFFFFFFFFFFFFFFFFFFFFF AND PUSH20 0xFFFFFFFFFFFFFFFFFFFFFFFFFFFFFFFFFFFFFFFF AND DUP2 MSTORE PUSH1 0x20 ADD SWAP1 DUP2 MSTORE PUSH1 0x20 ADD PUSH1 0x0 KECCAK256 PUSH1 0x0 DUP5 PUSH20 0xFFFFFFFFFFFFFFFFFFFFFFFFFFFFFFFFFFFFFFFF AND PUSH20 0xFFFFFFFFFFFFFFFFFFFFFFFFFFFFFFFFFFFFFFFF AND DUP2 MSTORE PUSH1 0x20 ADD SWAP1 DUP2 MSTORE PUSH1 0x20 ADD PUSH1 0x0 KECCAK256 PUSH1 0x0 PUSH2 0x100 EXP DUP2 SLOAD DUP2 PUSH1 0xFF MUL NOT AND SWAP1 DUP4 ISZERO ISZERO MUL OR SWAP1 SSTORE POP DUP2 PUSH20 0xFFFFFFFFFFFFFFFFFFFFFFFFFFFFFFFFFFFFFFFF AND DUP4 PUSH20 0xFFFFFFFFFFFFFFFFFFFFFFFFFFFFFFFFFFFFFFFF AND PUSH32 0x17307EAB39AB6107E8899845AD3D59BD9653F200F220920489CA2B5937696C31 DUP4 PUSH1 0x40 MLOAD PUSH2 0x1011 SWAP2 SWAP1 PUSH2 0x1551 JUMP JUMPDEST PUSH1 0x40 MLOAD DUP1 SWAP2 SUB SWAP1 LOG3 POP POP POP JUMP JUMPDEST PUSH2 0x1029 DUP5 DUP5 DUP5 PUSH2 0x64D JUMP JUMPDEST PUSH2 0x1035 DUP5 DUP5 DUP5 DUP5 PUSH2 0x11A0 JUMP JUMPDEST PUSH2 0x1074 JUMPI PUSH1 0x40 MLOAD PUSH32 0x8C379A000000000000000000000000000000000000000000000000000000000 DUP2 MSTORE PUSH1 0x4 ADD PUSH2 0x106B SWAP1 PUSH2 0x1F3B JUMP JUMPDEST PUSH1 0x40 MLOAD DUP1 SWAP2 SUB SWAP1 REVERT JUMPDEST POP POP POP POP JUMP JUMPDEST PUSH1 0x60 PUSH1 0x40 MLOAD DUP1 PUSH1 0x20 ADD PUSH1 0x40 MSTORE DUP1 PUSH1 0x0 DUP2 MSTORE POP SWAP1 POP SWAP1 JUMP JUMPDEST PUSH1 0x60 PUSH1 0x0 PUSH1 0x1 PUSH2 0x10A0 DUP5 PUSH2 0x1327 JUMP JUMPDEST ADD SWAP1 POP PUSH1 0x0 DUP2 PUSH8 0xFFFFFFFFFFFFFFFF DUP2 GT ISZERO PUSH2 0x10BF JUMPI PUSH2 0x10BE PUSH2 0x1869 JUMP JUMPDEST JUMPDEST PUSH1 0x40 MLOAD SWAP1 DUP1 DUP3 MSTORE DUP1 PUSH1 0x1F ADD PUSH1 0x1F NOT AND PUSH1 0x20 ADD DUP3 ADD PUSH1 0x40 MSTORE DUP1 ISZERO PUSH2 0x10F1 JUMPI DUP2 PUSH1 0x20 ADD PUSH1 0x1 DUP3 MUL DUP1 CALLDATASIZE DUP4 CALLDATACOPY DUP1 DUP3 ADD SWAP2 POP POP SWAP1 POP JUMPDEST POP SWAP1 POP PUSH1 0x0 DUP3 PUSH1 0x20 ADD DUP3 ADD SWAP1 POP JUMPDEST PUSH1 0x1 ISZERO PUSH2 0x1154 JUMPI DUP1 DUP1 PUSH1 0x1 SWAP1 SUB SWAP2 POP POP PUSH32 0x3031323334353637383961626364656600000000000000000000000000000000 PUSH1 0xA DUP7 MOD BYTE DUP2 MSTORE8 PUSH1 0xA DUP6 DUP2 PUSH2 0x1148 JUMPI PUSH2 0x1147 PUSH2 0x1F5B JUMP JUMPDEST JUMPDEST DIV SWAP5 POP PUSH1 0x0 DUP6 SUB PUSH2 0x10FF JUMPI JUMPDEST DUP2 SWAP4 POP POP POP POP SWAP2 SWAP1 POP JUMP JUMPDEST PUSH1 0x0 DUP1 PUSH20 0xFFFFFFFFFFFFFFFFFFFFFFFFFFFFFFFFFFFFFFFF AND PUSH2 0x1181 DUP4 PUSH2 0xE75 JUMP JUMPDEST PUSH20 0xFFFFFFFFFFFFFFFFFFFFFFFFFFFFFFFFFFFFFFFF AND EQ ISZERO SWAP1 POP SWAP2 SWAP1 POP JUMP JUMPDEST PUSH1 0x0 PUSH2 0x11C1 DUP5 PUSH20 0xFFFFFFFFFFFFFFFFFFFFFFFFFFFFFFFFFFFFFFFF AND PUSH2 0x147A JUMP JUMPDEST ISZERO PUSH2 0x131A JUMPI DUP4 PUSH20 0xFFFFFFFFFFFFFFFFFFFFFFFFFFFFFFFFFFFFFFFF AND PUSH4 0x150B7A02 PUSH2 0x11EA PUSH2 0xD13 JUMP JUMPDEST DUP8 DUP7 DUP7 PUSH1 0x40 MLOAD DUP6 PUSH4 0xFFFFFFFF AND PUSH1 0xE0 SHL DUP2 MSTORE PUSH1 0x4 ADD PUSH2 0x120C SWAP5 SWAP4 SWAP3 SWAP2 SWAP1 PUSH2 0x1FDF JUMP JUMPDEST PUSH1 0x20 PUSH1 0x40 MLOAD DUP1 DUP4 SUB DUP2 PUSH1 0x0 DUP8 GAS CALL SWAP3 POP POP POP DUP1 ISZERO PUSH2 0x1248 JUMPI POP PUSH1 0x40 MLOAD RETURNDATASIZE PUSH1 0x1F NOT PUSH1 0x1F DUP3 ADD AND DUP3 ADD DUP1 PUSH1 0x40 MSTORE POP DUP2 ADD SWAP1 PUSH2 0x1245 SWAP2 SWAP1 PUSH2 0x2040 JUMP JUMPDEST PUSH1 0x1 JUMPDEST PUSH2 0x12CA JUMPI RETURNDATASIZE DUP1 PUSH1 0x0 DUP2 EQ PUSH2 0x1278 JUMPI PUSH1 0x40 MLOAD SWAP2 POP PUSH1 0x1F NOT PUSH1 0x3F RETURNDATASIZE ADD AND DUP3 ADD PUSH1 0x40 MSTORE RETURNDATASIZE DUP3 MSTORE RETURNDATASIZE PUSH1 0x0 PUSH1 0x20 DUP5 ADD RETURNDATACOPY PUSH2 0x127D JUMP JUMPDEST PUSH1 0x60 SWAP2 POP JUMPDEST POP PUSH1 0x0 DUP2 MLOAD SUB PUSH2 0x12C2 JUMPI PUSH1 0x40 MLOAD PUSH32 0x8C379A000000000000000000000000000000000000000000000000000000000 DUP2 MSTORE PUSH1 0x4 ADD PUSH2 0x12B9 SWAP1 PUSH2 0x1F3B JUMP JUMPDEST PUSH1 0x40 MLOAD DUP1 SWAP2 SUB SWAP1 REVERT JUMPDEST DUP1 MLOAD DUP2 PUSH1 0x20 ADD REVERT JUMPDEST PUSH4 0x150B7A02 PUSH1 0xE0 SHL PUSH28 0xFFFFFFFFFFFFFFFFFFFFFFFFFFFFFFFFFFFFFFFFFFFFFFFFFFFFFFFF NOT AND DUP2 PUSH28 0xFFFFFFFFFFFFFFFFFFFFFFFFFFFFFFFFFFFFFFFFFFFFFFFFFFFFFFFF NOT AND EQ SWAP2 POP POP PUSH2 0x131F JUMP JUMPDEST PUSH1 0x1 SWAP1 POP JUMPDEST SWAP5 SWAP4 POP POP POP POP JUMP JUMPDEST PUSH1 0x0 DUP1 PUSH1 0x0 SWAP1 POP PUSH27 0x184F03E93FF9F4DAA797ED6E38ED64BF6A1F010000000000000000 DUP4 LT PUSH2 0x1385 JUMPI PUSH27 0x184F03E93FF9F4DAA797ED6E38ED64BF6A1F010000000000000000 DUP4 DUP2 PUSH2 0x137B JUMPI PUSH2 0x137A PUSH2 0x1F5B JUMP JUMPDEST JUMPDEST DIV SWAP3 POP PUSH1 0x40 DUP2 ADD SWAP1 POP JUMPDEST PUSH14 0x4EE2D6D415B85ACEF8100000000 DUP4 LT PUSH2 0x13C2 JUMPI PUSH14 0x4EE2D6D415B85ACEF8100000000 DUP4 DUP2 PUSH2 0x13B8 JUMPI PUSH2 0x13B7 PUSH2 0x1F5B JUMP JUMPDEST JUMPDEST DIV SWAP3 POP PUSH1 0x20 DUP2 ADD SWAP1 POP JUMPDEST PUSH7 0x2386F26FC10000 DUP4 LT PUSH2 0x13F1 JUMPI PUSH7 0x2386F26FC10000 DUP4 DUP2 PUSH2 0x13E7 JUMPI PUSH2 0x13E6 PUSH2 0x1F5B JUMP JUMPDEST JUMPDEST DIV SWAP3 POP PUSH1 0x10 DUP2 ADD SWAP1 POP JUMPDEST PUSH4 0x5F5E100 DUP4 LT PUSH2 0x141A JUMPI PUSH4 0x5F5E100 DUP4 DUP2 PUSH2 0x1410 JUMPI PUSH2 0x140F PUSH2 0x1F5B JUMP JUMPDEST JUMPDEST DIV SWAP3 POP PUSH1 0x8 DUP2 ADD SWAP1 POP JUMPDEST PUSH2 0x2710 DUP4 LT PUSH2 0x143F JUMPI PUSH2 0x2710 DUP4 DUP2 PUSH2 0x1435 JUMPI PUSH2 0x1434 PUSH2 0x1F5B JUMP JUMPDEST JUMPDEST DIV SWAP3 POP PUSH1 0x4 DUP2 ADD SWAP1 POP JUMPDEST PUSH1 0x64 DUP4 LT PUSH2 0x1462 JUMPI PUSH1 0x64 DUP4 DUP2 PUSH2 0x1458 JUMPI PUSH2 0x1457 PUSH2 0x1F5B JUMP JUMPDEST JUMPDEST DIV SWAP3 POP PUSH1 0x2 DUP2 ADD SWAP1 POP JUMPDEST PUSH1 0xA DUP4 LT PUSH2 0x1471 JUMPI PUSH1 0x1 DUP2 ADD SWAP1 POP JUMPDEST DUP1 SWAP2 POP POP SWAP2 SWAP1 POP JUMP JUMPDEST PUSH1 0x0 DUP1 DUP3 PUSH20 0xFFFFFFFFFFFFFFFFFFFFFFFFFFFFFFFFFFFFFFFF AND EXTCODESIZE GT SWAP1 POP SWAP2 SWAP1 POP JUMP JUMPDEST PUSH1 0x0 PUSH1 0x40 MLOAD SWAP1 POP SWAP1 JUMP JUMPDEST PUSH1 0x0 DUP1 REVERT JUMPDEST PUSH1 0x0 DUP1 REVERT JUMPDEST PUSH1 0x0 PUSH32 0xFFFFFFFF00000000000000000000000000000000000000000000000000000000 DUP3 AND SWAP1 POP SWAP2 SWAP1 POP JUMP JUMPDEST PUSH2 0x14E6 DUP2 PUSH2 0x14B1 JUMP JUMPDEST DUP2 EQ PUSH2 0x14F1 JUMPI PUSH1 0x0 DUP1 REVERT JUMPDEST POP JUMP JUMPDEST PUSH1 0x0 DUP2 CALLDATALOAD SWAP1 POP PUSH2 0x1503 DUP2 PUSH2 0x14DD JUMP JUMPDEST SWAP3 SWAP2 POP POP JUMP JUMPDEST PUSH1 0x0 PUSH1 0x20 DUP3 DUP5 SUB SLT ISZERO PUSH2 0x151F JUMPI PUSH2 0x151E PUSH2 0x14A7 JUMP JUMPDEST JUMPDEST PUSH1 0x0 PUSH2 0x152D DUP5 DUP3 DUP6 ADD PUSH2 0x14F4 JUMP JUMPDEST SWAP2 POP POP SWAP3 SWAP2 POP POP JUMP JUMPDEST PUSH1 0x0 DUP2 ISZERO ISZERO SWAP1 POP SWAP2 SWAP1 POP JUMP JUMPDEST PUSH2 0x154B DUP2 PUSH2 0x1536 JUMP JUMPDEST DUP3 MSTORE POP POP JUMP JUMPDEST PUSH1 0x0 PUSH1 0x20 DUP3 ADD SWAP1 POP PUSH2 0x1566 PUSH1 0x0 DUP4 ADD DUP5 PUSH2 0x1542 JUMP JUMPDEST SWAP3 SWAP2 POP POP JUMP JUMPDEST PUSH1 0x0 DUP2 MLOAD SWAP1 POP SWAP2 SWAP1 POP JUMP JUMPDEST PUSH1 0x0 DUP3 DUP3 MSTORE PUSH1 0x20 DUP3 ADD SWAP1 POP SWAP3 SWAP2 POP POP JUMP JUMPDEST PUSH1 0x0 JUMPDEST DUP4 DUP2 LT ISZERO PUSH2 0x15A6 JUMPI DUP1 DUP3 ADD MLOAD DUP2 DUP5 ADD MSTORE PUSH1 0x20 DUP2 ADD SWAP1 POP PUSH2 0x158B JUMP JUMPDEST PUSH1 0x0 DUP5 DUP5 ADD MSTORE POP POP POP POP JUMP JUMPDEST PUSH1 0x0 PUSH1 0x1F NOT PUSH1 0x1F DUP4 ADD AND SWAP1 POP SWAP2 SWAP1 POP JUMP JUMPDEST PUSH1 0x0 PUSH2 0x15CE DUP3 PUSH2 0x156C JUMP JUMPDEST PUSH2 0x15D8 DUP2 DUP6 PUSH2 0x1577 JUMP JUMPDEST SWAP4 POP PUSH2 0x15E8 DUP2 DUP6 PUSH1 0x20 DUP7 ADD PUSH2 0x1588 JUMP JUMPDEST PUSH2 0x15F1 DUP2 PUSH2 0x15B2 JUMP JUMPDEST DUP5 ADD SWAP2 POP POP SWAP3 SWAP2 POP POP JUMP JUMPDEST PUSH1 0x0 PUSH1 0x20 DUP3 ADD SWAP1 POP DUP2 DUP2 SUB PUSH1 0x0 DUP4 ADD MSTORE PUSH2 0x1616 DUP2 DUP5 PUSH2 0x15C3 JUMP JUMPDEST SWAP1 POP SWAP3 SWAP2 POP POP JUMP JUMPDEST PUSH1 0x0 DUP2 SWAP1 POP SWAP2 SWAP1 POP JUMP JUMPDEST PUSH2 0x1631 DUP2 PUSH2 0x161E JUMP JUMPDEST DUP2 EQ PUSH2 0x163C JUMPI PUSH1 0x0 DUP1 REVERT JUMPDEST POP JUMP JUMPDEST PUSH1 0x0 DUP2 CALLDATALOAD SWAP1 POP PUSH2 0x164E DUP2 PUSH2 0x1628 JUMP JUMPDEST SWAP3 SWAP2 POP POP JUMP JUMPDEST PUSH1 0x0 PUSH1 0x20 DUP3 DUP5 SUB SLT ISZERO PUSH2 0x166A JUMPI PUSH2 0x1669 PUSH2 0x14A7 JUMP JUMPDEST JUMPDEST PUSH1 0x0 PUSH2 0x1678 DUP5 DUP3 DUP6 ADD PUSH2 0x163F JUMP JUMPDEST SWAP2 POP POP SWAP3 SWAP2 POP POP JUMP JUMPDEST PUSH1 0x0 PUSH20 0xFFFFFFFFFFFFFFFFFFFFFFFFFFFFFFFFFFFFFFFF DUP3 AND SWAP1 POP SWAP2 SWAP1 POP JUMP JUMPDEST PUSH1 0x0 PUSH2 0x16AC DUP3 PUSH2 0x1681 JUMP JUMPDEST SWAP1 POP SWAP2 SWAP1 POP JUMP JUMPDEST PUSH2 0x16BC DUP2 PUSH2 0x16A1 JUMP JUMPDEST DUP3 MSTORE POP POP JUMP JUMPDEST PUSH1 0x0 PUSH1 0x20 DUP3 ADD SWAP1 POP PUSH2 0x16D7 PUSH1 0x0 DUP4 ADD DUP5 PUSH2 0x16B3 JUMP JUMPDEST SWAP3 SWAP2 POP POP JUMP JUMPDEST PUSH2 0x16E6 DUP2 PUSH2 0x16A1 JUMP JUMPDEST DUP2 EQ PUSH2 0x16F1 JUMPI PUSH1 0x0 DUP1 REVERT JUMPDEST POP JUMP JUMPDEST PUSH1 0x0 DUP2 CALLDATALOAD SWAP1 POP PUSH2 0x1703 DUP2 PUSH2 0x16DD JUMP JUMPDEST SWAP3 SWAP2 POP POP JUMP JUMPDEST PUSH1 0x0 DUP1 PUSH1 0x40 DUP4 DUP6 SUB SLT ISZERO PUSH2 0x1720 JUMPI PUSH2 0x171F PUSH2 0x14A7 JUMP JUMPDEST JUMPDEST PUSH1 0x0 PUSH2 0x172E DUP6 DUP3 DUP7 ADD PUSH2 0x16F4 JUMP JUMPDEST SWAP3 POP POP PUSH1 0x20 PUSH2 0x173F DUP6 DUP3 DUP7 ADD PUSH2 0x163F JUMP JUMPDEST SWAP2 POP POP SWAP3 POP SWAP3 SWAP1 POP JUMP JUMPDEST PUSH1 0x0 DUP1 PUSH1 0x0 PUSH1 0x60 DUP5 DUP7 SUB SLT ISZERO PUSH2 0x1762 JUMPI PUSH2 0x1761 PUSH2 0x14A7 JUMP JUMPDEST JUMPDEST PUSH1 0x0 PUSH2 0x1770 DUP7 DUP3 DUP8 ADD PUSH2 0x16F4 JUMP JUMPDEST SWAP4 POP POP PUSH1 0x20 PUSH2 0x1781 DUP7 DUP3 DUP8 ADD PUSH2 0x16F4 JUMP JUMPDEST SWAP3 POP POP PUSH1 0x40 PUSH2 0x1792 DUP7 DUP3 DUP8 ADD PUSH2 0x163F JUMP JUMPDEST SWAP2 POP POP SWAP3 POP SWAP3 POP SWAP3 JUMP JUMPDEST PUSH1 0x0 PUSH1 0x20 DUP3 DUP5 SUB SLT ISZERO PUSH2 0x17B2 JUMPI PUSH2 0x17B1 PUSH2 0x14A7 JUMP JUMPDEST JUMPDEST PUSH1 0x0 PUSH2 0x17C0 DUP5 DUP3 DUP6 ADD PUSH2 0x16F4 JUMP JUMPDEST SWAP2 POP POP SWAP3 SWAP2 POP POP JUMP JUMPDEST PUSH2 0x17D2 DUP2 PUSH2 0x161E JUMP JUMPDEST DUP3 MSTORE POP POP JUMP JUMPDEST PUSH1 0x0 PUSH1 0x20 DUP3 ADD SWAP1 POP PUSH2 0x17ED PUSH1 0x0 DUP4 ADD DUP5 PUSH2 0x17C9 JUMP JUMPDEST SWAP3 SWAP2 POP POP JUMP JUMPDEST PUSH2 0x17FC DUP2 PUSH2 0x1536 JUMP JUMPDEST DUP2 EQ PUSH2 0x1807 JUMPI PUSH1 0x0 DUP1 REVERT JUMPDEST POP JUMP JUMPDEST PUSH1 0x0 DUP2 CALLDATALOAD SWAP1 POP PUSH2 0x1819 DUP2 PUSH2 0x17F3 JUMP JUMPDEST SWAP3 SWAP2 POP POP JUMP JUMPDEST PUSH1 0x0 DUP1 PUSH1 0x40 DUP4 DUP6 SUB SLT ISZERO PUSH2 0x1836 JUMPI PUSH2 0x1835 PUSH2 0x14A7 JUMP JUMPDEST JUMPDEST PUSH1 0x0 PUSH2 0x1844 DUP6 DUP3 DUP7 ADD PUSH2 0x16F4 JUMP JUMPDEST SWAP3 POP POP PUSH1 0x20 PUSH2 0x1855 DUP6 DUP3 DUP7 ADD PUSH2 0x180A JUMP JUMPDEST SWAP2 POP POP SWAP3 POP SWAP3 SWAP1 POP JUMP JUMPDEST PUSH1 0x0 DUP1 REVERT JUMPDEST PUSH1 0x0 DUP1 REVERT JUMPDEST PUSH32 0x4E487B7100000000000000000000000000000000000000000000000000000000 PUSH1 0x0 MSTORE PUSH1 0x41 PUSH1 0x4 MSTORE PUSH1 0x24 PUSH1 0x0 REVERT JUMPDEST PUSH2 0x18A1 DUP3 PUSH2 0x15B2 JUMP JUMPDEST DUP2 ADD DUP2 DUP2 LT PUSH8 0xFFFFFFFFFFFFFFFF DUP3 GT OR ISZERO PUSH2 0x18C0 JUMPI PUSH2 0x18BF PUSH2 0x1869 JUMP JUMPDEST JUMPDEST DUP1 PUSH1 0x40 MSTORE POP POP POP JUMP JUMPDEST PUSH1 0x0 PUSH2 0x18D3 PUSH2 0x149D JUMP JUMPDEST SWAP1 POP PUSH2 0x18DF DUP3 DUP3 PUSH2 0x1898 JUMP JUMPDEST SWAP2 SWAP1 POP JUMP JUMPDEST PUSH1 0x0 PUSH8 0xFFFFFFFFFFFFFFFF DUP3 GT ISZERO PUSH2 0x18FF JUMPI PUSH2 0x18FE PUSH2 0x1869 JUMP JUMPDEST JUMPDEST PUSH2 0x1908 DUP3 PUSH2 0x15B2 JUMP JUMPDEST SWAP1 POP PUSH1 0x20 DUP2 ADD SWAP1 POP SWAP2 SWAP1 POP JUMP JUMPDEST DUP3 DUP2 DUP4 CALLDATACOPY PUSH1 0x0 DUP4 DUP4 ADD MSTORE POP POP POP JUMP JUMPDEST PUSH1 0x0 PUSH2 0x1937 PUSH2 0x1932 DUP5 PUSH2 0x18E4 JUMP JUMPDEST PUSH2 0x18C9 JUMP JUMPDEST SWAP1 POP DUP3 DUP2 MSTORE PUSH1 0x20 DUP2 ADD DUP5 DUP5 DUP5 ADD GT ISZERO PUSH2 0x1953 JUMPI PUSH2 0x1952 PUSH2 0x1864 JUMP JUMPDEST JUMPDEST PUSH2 0x195E DUP5 DUP3 DUP6 PUSH2 0x1915 JUMP JUMPDEST POP SWAP4 SWAP3 POP POP POP JUMP JUMPDEST PUSH1 0x0 DUP3 PUSH1 0x1F DUP4 ADD SLT PUSH2 0x197B JUMPI PUSH2 0x197A PUSH2 0x185F JUMP JUMPDEST JUMPDEST DUP2 CALLDATALOAD PUSH2 0x198B DUP5 DUP3 PUSH1 0x20 DUP7 ADD PUSH2 0x1924 JUMP JUMPDEST SWAP2 POP POP SWAP3 SWAP2 POP POP JUMP JUMPDEST PUSH1 0x0 DUP1 PUSH1 0x0 DUP1 PUSH1 0x80 DUP6 DUP8 SUB SLT ISZERO PUSH2 0x19AE JUMPI PUSH2 0x19AD PUSH2 0x14A7 JUMP JUMPDEST JUMPDEST PUSH1 0x0 PUSH2 0x19BC DUP8 DUP3 DUP9 ADD PUSH2 0x16F4 JUMP JUMPDEST SWAP5 POP POP PUSH1 0x20 PUSH2 0x19CD DUP8 DUP3 DUP9 ADD PUSH2 0x16F4 JUMP JUMPDEST SWAP4 POP POP PUSH1 0x40 PUSH2 0x19DE DUP8 DUP3 DUP9 ADD PUSH2 0x163F JUMP JUMPDEST SWAP3 POP POP PUSH1 0x60 DUP6 ADD CALLDATALOAD PUSH8 0xFFFFFFFFFFFFFFFF DUP2 GT ISZERO PUSH2 0x19FF JUMPI PUSH2 0x19FE PUSH2 0x14AC JUMP JUMPDEST JUMPDEST PUSH2 0x1A0B DUP8 DUP3 DUP9 ADD PUSH2 0x1966 JUMP JUMPDEST SWAP2 POP POP SWAP3 SWAP6 SWAP2 SWAP5 POP SWAP3 POP JUMP JUMPDEST PUSH1 0x0 DUP1 PUSH1 0x40 DUP4 DUP6 SUB SLT ISZERO PUSH2 0x1A2E JUMPI PUSH2 0x1A2D PUSH2 0x14A7 JUMP JUMPDEST JUMPDEST PUSH1 0x0 PUSH2 0x1A3C DUP6 DUP3 DUP7 ADD PUSH2 0x16F4 JUMP JUMPDEST SWAP3 POP POP PUSH1 0x20 PUSH2 0x1A4D DUP6 DUP3 DUP7 ADD PUSH2 0x16F4 JUMP JUMPDEST SWAP2 POP POP SWAP3 POP SWAP3 SWAP1 POP JUMP JUMPDEST PUSH32 0x4E487B7100000000000000000000000000000000000000000000000000000000 PUSH1 0x0 MSTORE PUSH1 0x22 PUSH1 0x4 MSTORE PUSH1 0x24 PUSH1 0x0 REVERT JUMPDEST PUSH1 0x0 PUSH1 0x2 DUP3 DIV SWAP1 POP PUSH1 0x1 DUP3 AND DUP1 PUSH2 0x1A9E JUMPI PUSH1 0x7F DUP3 AND SWAP2 POP JUMPDEST PUSH1 0x20 DUP3 LT DUP2 SUB PUSH2 0x1AB1 JUMPI PUSH2 0x1AB0 PUSH2 0x1A57 JUMP JUMPDEST JUMPDEST POP SWAP2 SWAP1 POP JUMP JUMPDEST PUSH32 0x4552433732313A20617070726F76616C20746F2063757272656E74206F776E65 PUSH1 0x0 DUP3 ADD MSTORE PUSH32 0x7200000000000000000000000000000000000000000000000000000000000000 PUSH1 0x20 DUP3 ADD MSTORE POP JUMP JUMPDEST PUSH1 0x0 PUSH2 0x1B13 PUSH1 0x21 DUP4 PUSH2 0x1577 JUMP JUMPDEST SWAP2 POP PUSH2 0x1B1E DUP3 PUSH2 0x1AB7 JUMP JUMPDEST PUSH1 0x40 DUP3 ADD SWAP1 POP SWAP2 SWAP1 POP JUMP JUMPDEST PUSH1 0x0 PUSH1 0x20 DUP3 ADD SWAP1 POP DUP2 DUP2 SUB PUSH1 0x0 DUP4 ADD MSTORE PUSH2 0x1B42 DUP2 PUSH2 0x1B06 JUMP JUMPDEST SWAP1 POP SWAP2 SWAP1 POP JUMP JUMPDEST PUSH32 0x4552433732313A20617070726F76652063616C6C6572206973206E6F7420746F PUSH1 0x0 DUP3 ADD MSTORE PUSH32 0x6B656E206F776E6572206F7220617070726F76656420666F7220616C6C000000 PUSH1 0x20 DUP3 ADD MSTORE POP JUMP JUMPDEST PUSH1 0x0 PUSH2 0x1BA5 PUSH1 0x3D DUP4 PUSH2 0x1577 JUMP JUMPDEST SWAP2 POP PUSH2 0x1BB0 DUP3 PUSH2 0x1B49 JUMP JUMPDEST PUSH1 0x40 DUP3 ADD SWAP1 POP SWAP2 SWAP1 POP JUMP JUMPDEST PUSH1 0x0 PUSH1 0x20 DUP3 ADD SWAP1 POP DUP2 DUP2 SUB PUSH1 0x0 DUP4 ADD MSTORE PUSH2 0x1BD4 DUP2 PUSH2 0x1B98 JUMP JUMPDEST SWAP1 POP SWAP2 SWAP1 POP JUMP JUMPDEST PUSH32 0x4552433732313A2063616C6C6572206973206E6F7420746F6B656E206F776E65 PUSH1 0x0 DUP3 ADD MSTORE PUSH32 0x72206F7220617070726F76656400000000000000000000000000000000000000 PUSH1 0x20 DUP3 ADD MSTORE POP JUMP JUMPDEST PUSH1 0x0 PUSH2 0x1C37 PUSH1 0x2D DUP4 PUSH2 0x1577 JUMP JUMPDEST SWAP2 POP PUSH2 0x1C42 DUP3 PUSH2 0x1BDB JUMP JUMPDEST PUSH1 0x40 DUP3 ADD SWAP1 POP SWAP2 SWAP1 POP JUMP JUMPDEST PUSH1 0x0 PUSH1 0x20 DUP3 ADD SWAP1 POP DUP2 DUP2 SUB PUSH1 0x0 DUP4 ADD MSTORE PUSH2 0x1C66 DUP2 PUSH2 0x1C2A JUMP JUMPDEST SWAP1 POP SWAP2 SWAP1 POP JUMP JUMPDEST PUSH32 0x4552433732313A207472616E736665722066726F6D20696E636F727265637420 PUSH1 0x0 DUP3 ADD MSTORE PUSH32 0x6F776E6572000000000000000000000000000000000000000000000000000000 PUSH1 0x20 DUP3 ADD MSTORE POP JUMP JUMPDEST PUSH1 0x0 PUSH2 0x1CC9 PUSH1 0x25 DUP4 PUSH2 0x1577 JUMP JUMPDEST SWAP2 POP PUSH2 0x1CD4 DUP3 PUSH2 0x1C6D JUMP JUMPDEST PUSH1 0x40 DUP3 ADD SWAP1 POP SWAP2 SWAP1 POP JUMP JUMPDEST PUSH1 0x0 PUSH1 0x20 DUP3 ADD SWAP1 POP DUP2 DUP2 SUB PUSH1 0x0 DUP4 ADD MSTORE PUSH2 0x1CF8 DUP2 PUSH2 0x1CBC JUMP JUMPDEST SWAP1 POP SWAP2 SWAP1 POP JUMP JUMPDEST PUSH32 0x4552433732313A20696E76616C696420746F6B656E2049440000000000000000 PUSH1 0x0 DUP3 ADD MSTORE POP JUMP JUMPDEST PUSH1 0x0 PUSH2 0x1D35 PUSH1 0x18 DUP4 PUSH2 0x1577 JUMP JUMPDEST SWAP2 POP PUSH2 0x1D40 DUP3 PUSH2 0x1CFF JUMP JUMPDEST PUSH1 0x20 DUP3 ADD SWAP1 POP SWAP2 SWAP1 POP JUMP JUMPDEST PUSH1 0x0 PUSH1 0x20 DUP3 ADD SWAP1 POP DUP2 DUP2 SUB PUSH1 0x0 DUP4 ADD MSTORE PUSH2 0x1D64 DUP2 PUSH2 0x1D28 JUMP JUMPDEST SWAP1 POP SWAP2 SWAP1 POP JUMP JUMPDEST PUSH32 0x4552433732313A2061646472657373207A65726F206973206E6F742061207661 PUSH1 0x0 DUP3 ADD MSTORE PUSH32 0x6C6964206F776E65720000000000000000000000000000000000000000000000 PUSH1 0x20 DUP3 ADD MSTORE POP JUMP JUMPDEST PUSH1 0x0 PUSH2 0x1DC7 PUSH1 0x29 DUP4 PUSH2 0x1577 JUMP JUMPDEST SWAP2 POP PUSH2 0x1DD2 DUP3 PUSH2 0x1D6B JUMP JUMPDEST PUSH1 0x40 DUP3 ADD SWAP1 POP SWAP2 SWAP1 POP JUMP JUMPDEST PUSH1 0x0 PUSH1 0x20 DUP3 ADD SWAP1 POP DUP2 DUP2 SUB PUSH1 0x0 DUP4 ADD MSTORE PUSH2 0x1DF6 DUP2 PUSH2 0x1DBA JUMP JUMPDEST SWAP1 POP SWAP2 SWAP1 POP JUMP JUMPDEST PUSH1 0x0 DUP2 SWAP1 POP SWAP3 SWAP2 POP POP JUMP JUMPDEST PUSH1 0x0 PUSH2 0x1E13 DUP3 PUSH2 0x156C JUMP JUMPDEST PUSH2 0x1E1D DUP2 DUP6 PUSH2 0x1DFD JUMP JUMPDEST SWAP4 POP PUSH2 0x1E2D DUP2 DUP6 PUSH1 0x20 DUP7 ADD PUSH2 0x1588 JUMP JUMPDEST DUP1 DUP5 ADD SWAP2 POP POP SWAP3 SWAP2 POP POP JUMP JUMPDEST PUSH1 0x0 PUSH2 0x1E45 DUP3 DUP6 PUSH2 0x1E08 JUMP JUMPDEST SWAP2 POP PUSH2 0x1E51 DUP3 DUP5 PUSH2 0x1E08 JUMP JUMPDEST SWAP2 POP DUP2 SWAP1 POP SWAP4 SWAP3 POP POP POP JUMP JUMPDEST PUSH32 0x4552433732313A20617070726F766520746F2063616C6C657200000000000000 PUSH1 0x0 DUP3 ADD MSTORE POP JUMP JUMPDEST PUSH1 0x0 PUSH2 0x1E93 PUSH1 0x19 DUP4 PUSH2 0x1577 JUMP JUMPDEST SWAP2 POP PUSH2 0x1E9E DUP3 PUSH2 0x1E5D JUMP JUMPDEST PUSH1 0x20 DUP3 ADD SWAP1 POP SWAP2 SWAP1 POP JUMP JUMPDEST PUSH1 0x0 PUSH1 0x20 DUP3 ADD SWAP1 POP DUP2 DUP2 SUB PUSH1 0x0 DUP4 ADD MSTORE PUSH2 0x1EC2 DUP2 PUSH2 0x1E86 JUMP JUMPDEST SWAP1 POP SWAP2 SWAP1 POP JUMP JUMPDEST PUSH32 0x4552433732313A207472616E7366657220746F206E6F6E204552433732315265 PUSH1 0x0 DUP3 ADD MSTORE PUSH32 0x63656976657220696D706C656D656E7465720000000000000000000000000000 PUSH1 0x20 DUP3 ADD MSTORE POP JUMP JUMPDEST PUSH1 0x0 PUSH2 0x1F25 PUSH1 0x32 DUP4 PUSH2 0x1577 JUMP JUMPDEST SWAP2 POP PUSH2 0x1F30 DUP3 PUSH2 0x1EC9 JUMP JUMPDEST PUSH1 0x40 DUP3 ADD SWAP1 POP SWAP2 SWAP1 POP JUMP JUMPDEST PUSH1 0x0 PUSH1 0x20 DUP3 ADD SWAP1 POP DUP2 DUP2 SUB PUSH1 0x0 DUP4 ADD MSTORE PUSH2 0x1F54 DUP2 PUSH2 0x1F18 JUMP JUMPDEST SWAP1 POP SWAP2 SWAP1 POP JUMP JUMPDEST PUSH32 0x4E487B7100000000000000000000000000000000000000000000000000000000 PUSH1 0x0 MSTORE PUSH1 0x12 PUSH1 0x4 MSTORE PUSH1 0x24 PUSH1 0x0 REVERT JUMPDEST PUSH1 0x0 DUP2 MLOAD SWAP1 POP SWAP2 SWAP1 POP JUMP JUMPDEST PUSH1 0x0 DUP3 DUP3 MSTORE PUSH1 0x20 DUP3 ADD SWAP1 POP SWAP3 SWAP2 POP POP JUMP JUMPDEST PUSH1 0x0 PUSH2 0x1FB1 DUP3 PUSH2 0x1F8A JUMP JUMPDEST PUSH2 0x1FBB DUP2 DUP6 PUSH2 0x1F95 JUMP JUMPDEST SWAP4 POP PUSH2 0x1FCB DUP2 DUP6 PUSH1 0x20 DUP7 ADD PUSH2 0x1588 JUMP JUMPDEST PUSH2 0x1FD4 DUP2 PUSH2 0x15B2 JUMP JUMPDEST DUP5 ADD SWAP2 POP POP SWAP3 SWAP2 POP POP JUMP JUMPDEST PUSH1 0x0 PUSH1 0x80 DUP3 ADD SWAP1 POP PUSH2 0x1FF4 PUSH1 0x0 DUP4 ADD DUP8 PUSH2 0x16B3 JUMP JUMPDEST PUSH2 0x2001 PUSH1 0x20 DUP4 ADD DUP7 PUSH2 0x16B3 JUMP JUMPDEST PUSH2 0x200E PUSH1 0x40 DUP4 ADD DUP6 PUSH2 0x17C9 JUMP JUMPDEST DUP2 DUP2 SUB PUSH1 0x60 DUP4 ADD MSTORE PUSH2 0x2020 DUP2 DUP5 PUSH2 0x1FA6 JUMP JUMPDEST SWAP1 POP SWAP6 SWAP5 POP POP POP POP POP JUMP JUMPDEST PUSH1 0x0 DUP2 MLOAD SWAP1 POP PUSH2 0x203A DUP2 PUSH2 0x14DD JUMP JUMPDEST SWAP3 SWAP2 POP POP JUMP JUMPDEST PUSH1 0x0 PUSH1 0x20 DUP3 DUP5 SUB SLT ISZERO PUSH2 0x2056 JUMPI PUSH2 0x2055 PUSH2 0x14A7 JUMP JUMPDEST JUMPDEST PUSH1 0x0 PUSH2 0x2064 DUP5 DUP3 DUP6 ADD PUSH2 0x202B JUMP JUMPDEST SWAP2 POP POP SWAP3 SWAP2 POP POP JUMP INVALID LOG2 PUSH5 0x6970667358 0x22 SLT KECCAK256 STATICCALL 0x4D COINBASE 0xD2 0xE9 0xE8 0xE3 LOG0 CODECOPY 0x2A 0xE3 PUSH29 0xBA06C39F5F090E06C232B82C5F4DF0064D4F86FC64736F6C6343000815 STOP CALLER "
				},
				"gasEstimates": {
					"creation": {
						"codeDepositCost": "1671000",
						"executionCost": "infinite",
						"totalCost": "infinite"
					},
					"external": {
						"_owner()": "2533",
						"_transfer(address,address,uint256)": "infinite",
						"approve(address,uint256)": "infinite",
						"balanceOf(address)": "2921",
						"getApproved(uint256)": "5300",
						"isApprovedForAll(address,address)": "infinite",
						"name()": "infinite",
						"ownerOf(uint256)": "3022",
						"safeTransferFrom(address,address,uint256)": "infinite",
						"safeTransferFrom(address,address,uint256,bytes)": "infinite",
						"setApprovalForAll(address,bool)": "infinite",
						"supportsInterface(bytes4)": "797",
						"symbol()": "infinite",
						"tokenURI(uint256)": "3459",
						"transferFrom(address,address,uint256)": "infinite"
					},
					"internal": {
						"__unsafe_increaseBalance(address,uint256)": "infinite",
						"_afterTokenTransfer(address,address,uint256,uint256)": "17",
						"_approve(address,uint256)": "infinite",
						"_baseURI()": "infinite",
						"_beforeTokenTransfer(address,address,uint256,uint256)": "17",
						"_burn(uint256)": "infinite",
						"_checkOnERC721Received(address,address,uint256,bytes memory)": "infinite",
						"_exists(uint256)": "2312",
						"_isApprovedOrOwner(address,uint256)": "infinite",
						"_mint(address,uint256)": "infinite",
						"_ownerOf(uint256)": "2248",
						"_requireMinted(uint256)": "infinite",
						"_safeMint(address,uint256)": "infinite",
						"_safeMint(address,uint256,bytes memory)": "infinite",
						"_safeTransfer(address,address,uint256,bytes memory)": "infinite",
						"_setApprovalForAll(address,address,bool)": "infinite"
					}
				},
				"methodIdentifiers": {
					"_owner()": "b2bdfa7b",
					"_transfer(address,address,uint256)": "30e0789e",
					"approve(address,uint256)": "095ea7b3",
					"balanceOf(address)": "70a08231",
					"getApproved(uint256)": "081812fc",
					"isApprovedForAll(address,address)": "e985e9c5",
					"name()": "06fdde03",
					"ownerOf(uint256)": "6352211e",
					"safeTransferFrom(address,address,uint256)": "42842e0e",
					"safeTransferFrom(address,address,uint256,bytes)": "b88d4fde",
					"setApprovalForAll(address,bool)": "a22cb465",
					"supportsInterface(bytes4)": "01ffc9a7",
					"symbol()": "95d89b41",
					"tokenURI(uint256)": "c87b56dd",
					"transferFrom(address,address,uint256)": "23b872dd"
				}
			},
			"storageLayout": {
				"storage": [
					{
						"astId": 25,
						"contract": ".deps/npm/@openzeppelin/contracts/token/ERC721/ERC721.sol:ERC721",
						"label": "_owner",
						"offset": 0,
						"slot": "0",
						"type": "t_address"
					},
					{
						"astId": 27,
						"contract": ".deps/npm/@openzeppelin/contracts/token/ERC721/ERC721.sol:ERC721",
						"label": "_name",
						"offset": 0,
						"slot": "1",
						"type": "t_string_storage"
					},
					{
						"astId": 29,
						"contract": ".deps/npm/@openzeppelin/contracts/token/ERC721/ERC721.sol:ERC721",
						"label": "_symbol",
						"offset": 0,
						"slot": "2",
						"type": "t_string_storage"
					},
					{
						"astId": 33,
						"contract": ".deps/npm/@openzeppelin/contracts/token/ERC721/ERC721.sol:ERC721",
						"label": "_owners",
						"offset": 0,
						"slot": "3",
						"type": "t_mapping(t_uint256,t_address)"
					},
					{
						"astId": 37,
						"contract": ".deps/npm/@openzeppelin/contracts/token/ERC721/ERC721.sol:ERC721",
						"label": "_balances",
						"offset": 0,
						"slot": "4",
						"type": "t_mapping(t_address,t_uint256)"
					},
					{
						"astId": 41,
						"contract": ".deps/npm/@openzeppelin/contracts/token/ERC721/ERC721.sol:ERC721",
						"label": "_tokenApprovals",
						"offset": 0,
						"slot": "5",
						"type": "t_mapping(t_uint256,t_address)"
					},
					{
						"astId": 47,
						"contract": ".deps/npm/@openzeppelin/contracts/token/ERC721/ERC721.sol:ERC721",
						"label": "_operatorApprovals",
						"offset": 0,
						"slot": "6",
						"type": "t_mapping(t_address,t_mapping(t_address,t_bool))"
					}
				],
				"types": {
					"t_address": {
						"encoding": "inplace",
						"label": "address",
						"numberOfBytes": "20"
					},
					"t_bool": {
						"encoding": "inplace",
						"label": "bool",
						"numberOfBytes": "1"
					},
					"t_mapping(t_address,t_bool)": {
						"encoding": "mapping",
						"key": "t_address",
						"label": "mapping(address => bool)",
						"numberOfBytes": "32",
						"value": "t_bool"
					},
					"t_mapping(t_address,t_mapping(t_address,t_bool))": {
						"encoding": "mapping",
						"key": "t_address",
						"label": "mapping(address => mapping(address => bool))",
						"numberOfBytes": "32",
						"value": "t_mapping(t_address,t_bool)"
					},
					"t_mapping(t_address,t_uint256)": {
						"encoding": "mapping",
						"key": "t_address",
						"label": "mapping(address => uint256)",
						"numberOfBytes": "32",
						"value": "t_uint256"
					},
					"t_mapping(t_uint256,t_address)": {
						"encoding": "mapping",
						"key": "t_uint256",
						"label": "mapping(uint256 => address)",
						"numberOfBytes": "32",
						"value": "t_address"
					},
					"t_string_storage": {
						"encoding": "bytes",
						"label": "string",
						"numberOfBytes": "32"
					},
					"t_uint256": {
						"encoding": "inplace",
						"label": "uint256",
						"numberOfBytes": "32"
					}
				}
			},
			"userdoc": {
				"kind": "user",
				"methods": {},
				"version": 1
			}
		}
	}
}