{
	"Buy_ERupee.sol": {
		"buy_ERupee": {
			"abi": [
				{
					"inputs": [],
					"stateMutability": "nonpayable",
					"type": "constructor"
				},
				{
					"inputs": [],
					"name": "_10RupeeCount",
					"outputs": [
						{
							"internalType": "uint256",
							"name": "",
							"type": "uint256"
						}
					],
					"stateMutability": "view",
					"type": "function"
				},
				{
					"inputs": [],
					"name": "_20RupeeCount",
					"outputs": [
						{
							"internalType": "uint256",
							"name": "",
							"type": "uint256"
						}
					],
					"stateMutability": "view",
					"type": "function"
				},
				{
					"inputs": [],
					"name": "_5RupeeCount",
					"outputs": [
						{
							"internalType": "uint256",
							"name": "",
							"type": "uint256"
						}
					],
					"stateMutability": "view",
					"type": "function"
				},
				{
					"inputs": [],
					"name": "_num",
					"outputs": [
						{
							"internalType": "uint256",
							"name": "",
							"type": "uint256"
						}
					],
					"stateMutability": "view",
					"type": "function"
				},
				{
					"inputs": [
						{
							"internalType": "uint256",
							"name": "",
							"type": "uint256"
						}
					],
					"name": "_rupeeContractList",
					"outputs": [
						{
							"internalType": "address",
							"name": "",
							"type": "address"
						}
					],
					"stateMutability": "view",
					"type": "function"
				},
				{
					"inputs": [
						{
							"internalType": "address",
							"name": "_blackListAddr",
							"type": "address"
						}
					],
					"name": "blackList",
					"outputs": [],
					"stateMutability": "nonpayable",
					"type": "function"
				},
				{
					"inputs": [
						{
							"internalType": "uint256",
							"name": "_amount",
							"type": "uint256"
						}
					],
					"name": "buy_With_note_denominations",
					"outputs": [],
					"stateMutability": "nonpayable",
					"type": "function"
				},
				{
					"inputs": [],
					"name": "fifty_Rupee_contract",
					"outputs": [
						{
							"internalType": "address",
							"name": "",
							"type": "address"
						}
					],
					"stateMutability": "view",
					"type": "function"
				},
				{
					"inputs": [],
					"name": "five_Rupee_contract",
					"outputs": [
						{
							"internalType": "address",
							"name": "",
							"type": "address"
						}
					],
					"stateMutability": "view",
					"type": "function"
				},
				{
					"inputs": [],
					"name": "five_hundred_Rupee_contract",
					"outputs": [
						{
							"internalType": "address",
							"name": "",
							"type": "address"
						}
					],
					"stateMutability": "view",
					"type": "function"
				},
				{
					"inputs": [
						{
							"internalType": "address",
							"name": "_user",
							"type": "address"
						}
					],
					"name": "getUserFundAmt",
					"outputs": [
						{
							"internalType": "uint256",
							"name": "",
							"type": "uint256"
						}
					],
					"stateMutability": "view",
					"type": "function"
				},
				{
					"inputs": [
						{
							"internalType": "address",
							"name": "",
							"type": "address"
						}
					],
					"name": "isBlackListedMapping",
					"outputs": [
						{
							"internalType": "bool",
							"name": "",
							"type": "bool"
						}
					],
					"stateMutability": "view",
					"type": "function"
				},
				{
					"inputs": [
						{
							"internalType": "uint256",
							"name": "_num1",
							"type": "uint256"
						},
						{
							"internalType": "uint256",
							"name": "_division",
							"type": "uint256"
						}
					],
					"name": "noteCalculation",
					"outputs": [
						{
							"internalType": "uint256",
							"name": "",
							"type": "uint256"
						},
						{
							"internalType": "uint256",
							"name": "",
							"type": "uint256"
						}
					],
					"stateMutability": "nonpayable",
					"type": "function"
				},
				{
					"inputs": [],
					"name": "one_Rupee_contract",
					"outputs": [
						{
							"internalType": "address",
							"name": "",
							"type": "address"
						}
					],
					"stateMutability": "view",
					"type": "function"
				},
				{
					"inputs": [],
					"name": "one_hundred_Rupee_contract",
					"outputs": [
						{
							"internalType": "address",
							"name": "",
							"type": "address"
						}
					],
					"stateMutability": "view",
					"type": "function"
				},
				{
					"inputs": [],
					"name": "rupee_contract_ERC20",
					"outputs": [
						{
							"internalType": "address",
							"name": "",
							"type": "address"
						}
					],
					"stateMutability": "view",
					"type": "function"
				},
				{
					"inputs": [],
					"name": "setContracts",
					"outputs": [
						{
							"internalType": "bool",
							"name": "",
							"type": "bool"
						}
					],
					"stateMutability": "nonpayable",
					"type": "function"
				},
				{
					"inputs": [],
					"name": "ten_Rupee_contract",
					"outputs": [
						{
							"internalType": "address",
							"name": "",
							"type": "address"
						}
					],
					"stateMutability": "view",
					"type": "function"
				},
				{
					"inputs": [
						{
							"internalType": "uint256",
							"name": "_amount",
							"type": "uint256"
						},
						{
							"internalType": "address",
							"name": "_to",
							"type": "address"
						}
					],
					"name": "transferAmount",
					"outputs": [],
					"stateMutability": "nonpayable",
					"type": "function"
				},
				{
					"inputs": [],
					"name": "twenty_Rupee_contract",
					"outputs": [
						{
							"internalType": "address",
							"name": "",
							"type": "address"
						}
					],
					"stateMutability": "view",
					"type": "function"
				},
				{
					"inputs": [],
					"name": "two_Rupee_contract",
					"outputs": [
						{
							"internalType": "address",
							"name": "",
							"type": "address"
						}
					],
					"stateMutability": "view",
					"type": "function"
				},
				{
					"inputs": [],
					"name": "two_hundred_Rupee_contract",
					"outputs": [
						{
							"internalType": "address",
							"name": "",
							"type": "address"
						}
					],
					"stateMutability": "view",
					"type": "function"
				},
				{
					"inputs": [
						{
							"internalType": "address",
							"name": "",
							"type": "address"
						}
					],
					"name": "userFundsMapping",
					"outputs": [
						{
							"internalType": "uint256",
							"name": "",
							"type": "uint256"
						}
					],
					"stateMutability": "view",
					"type": "function"
				}
			],
			"devdoc": {
				"kind": "dev",
				"methods": {},
				"version": 1
			},
			"evm": {
				"assembly": "    /* \"Buy_ERupee.sol\":376:8898  contract buy_ERupee {... */\n  mstore(0x40, 0xa0)\n    /* \"Buy_ERupee.sol\":927:928  0 */\n  0x00\n    /* \"Buy_ERupee.sol\":897:928  uint256 public _5RupeeCount = 0 */\n  0x13\n  sstore\n    /* \"Buy_ERupee.sol\":1142:1206  uint256[] denominationArr = [500, 200, 100, 50, 20, 10, 5, 2, 1] */\n  mload(0x40)\n  dup1\n  0x0120\n  add\n  0x40\n  mstore\n  dup1\n    /* \"Buy_ERupee.sol\":1171:1174  500 */\n  0x01f4\n    /* \"Buy_ERupee.sol\":1142:1206  uint256[] denominationArr = [500, 200, 100, 50, 20, 10, 5, 2, 1] */\n  0xffff\n  and\n  dup2\n  mstore\n  0x20\n  add\n    /* \"Buy_ERupee.sol\":1176:1179  200 */\n  0xc8\n    /* \"Buy_ERupee.sol\":1142:1206  uint256[] denominationArr = [500, 200, 100, 50, 20, 10, 5, 2, 1] */\n  0xffff\n  and\n  dup2\n  mstore\n  0x20\n  add\n    /* \"Buy_ERupee.sol\":1181:1184  100 */\n  0x64\n    /* \"Buy_ERupee.sol\":1142:1206  uint256[] denominationArr = [500, 200, 100, 50, 20, 10, 5, 2, 1] */\n  0xffff\n  and\n  dup2\n  mstore\n  0x20\n  add\n    /* \"Buy_ERupee.sol\":1186:1188  50 */\n  0x32\n    /* \"Buy_ERupee.sol\":1142:1206  uint256[] denominationArr = [500, 200, 100, 50, 20, 10, 5, 2, 1] */\n  0xffff\n  and\n  dup2\n  mstore\n  0x20\n  add\n    /* \"Buy_ERupee.sol\":1190:1192  20 */\n  0x14\n    /* \"Buy_ERupee.sol\":1142:1206  uint256[] denominationArr = [500, 200, 100, 50, 20, 10, 5, 2, 1] */\n  0xffff\n  and\n  dup2\n  mstore\n  0x20\n  add\n    /* \"Buy_ERupee.sol\":1194:1196  10 */\n  0x0a\n    /* \"Buy_ERupee.sol\":1142:1206  uint256[] denominationArr = [500, 200, 100, 50, 20, 10, 5, 2, 1] */\n  0xffff\n  and\n  dup2\n  mstore\n  0x20\n  add\n    /* \"Buy_ERupee.sol\":1198:1199  5 */\n  0x05\n    /* \"Buy_ERupee.sol\":1142:1206  uint256[] denominationArr = [500, 200, 100, 50, 20, 10, 5, 2, 1] */\n  0xffff\n  and\n  dup2\n  mstore\n  0x20\n  add\n    /* \"Buy_ERupee.sol\":1201:1202  2 */\n  0x02\n    /* \"Buy_ERupee.sol\":1142:1206  uint256[] denominationArr = [500, 200, 100, 50, 20, 10, 5, 2, 1] */\n  0xffff\n  and\n  dup2\n  mstore\n  0x20\n  add\n    /* \"Buy_ERupee.sol\":1204:1205  1 */\n  0x01\n    /* \"Buy_ERupee.sol\":1142:1206  uint256[] denominationArr = [500, 200, 100, 50, 20, 10, 5, 2, 1] */\n  0xffff\n  and\n  dup2\n  mstore\n  pop\n  0x19\n  swap1\n  0x09\n  tag_1\n  swap3\n  swap2\n  swap1\n  tag_2\n  jump\t// in\ntag_1:\n  pop\n    /* \"Buy_ERupee.sol\":1213:1263  constructor() {... */\n  callvalue\n  dup1\n  iszero\n  tag_3\n  jumpi\n  0x00\n  dup1\n  revert\ntag_3:\n  pop\n    /* \"Buy_ERupee.sol\":1246:1256  msg.sender */\n  caller\n    /* \"Buy_ERupee.sol\":1237:1256  _owner = msg.sender */\n  0xffffffffffffffffffffffffffffffffffffffff\n  and\n  0x80\n  dup2\n  0xffffffffffffffffffffffffffffffffffffffff\n  and\n  dup2\n  mstore\n  pop\n  pop\n    /* \"Buy_ERupee.sol\":376:8898  contract buy_ERupee {... */\n  jump(tag_6)\ntag_2:\n  dup3\n  dup1\n  sload\n  dup3\n  dup3\n  sstore\n  swap1\n  0x00\n  mstore\n  keccak256(0x00, 0x20)\n  swap1\n  dup2\n  add\n  swap3\n  dup3\n  iszero\n  tag_7\n  jumpi\n  swap2\n  0x20\n  mul\n  dup3\n  add\ntag_8:\n  dup3\n  dup2\n  gt\n  iszero\n  tag_9\n  jumpi\n  dup3\n  mload\n  dup3\n  swap1\n  0xffff\n  and\n  swap1\n  sstore\n  swap2\n  0x20\n  add\n  swap2\n  swap1\n  0x01\n  add\n  swap1\n  jump(tag_8)\ntag_9:\ntag_7:\n  pop\n  swap1\n  pop\n  tag_10\n  swap2\n  swap1\n  tag_11\n  jump\t// in\ntag_10:\n  pop\n  swap1\n  jump\t// out\ntag_11:\ntag_12:\n  dup1\n  dup3\n  gt\n  iszero\n  tag_13\n  jumpi\n  0x00\n  dup2\n  0x00\n  swap1\n  sstore\n  pop\n  0x01\n  add\n  jump(tag_12)\ntag_13:\n  pop\n  swap1\n  jump\t// out\ntag_6:\n  mload(0x80)\n  codecopy(0x00, dataOffset(sub_0), dataSize(sub_0))\n  0x00\n  assignImmutable(\"0xe41a685dc3df81383d452481451b89eb3f69781b836c19936fa9714a13d1c9c2\")\n  return(0x00, dataSize(sub_0))\nstop\n\nsub_0: assembly {\n        /* \"Buy_ERupee.sol\":376:8898  contract buy_ERupee {... */\n      mstore(0x40, 0x80)\n      callvalue\n      dup1\n      iszero\n      tag_1\n      jumpi\n      0x00\n      dup1\n      revert\n    tag_1:\n      pop\n      jumpi(tag_2, lt(calldatasize, 0x04))\n      shr(0xe0, calldataload(0x00))\n      dup1\n      0xb150019a\n      gt\n      tag_26\n      jumpi\n      dup1\n      0xe84530fb\n      gt\n      tag_27\n      jumpi\n      dup1\n      0xe84530fb\n      eq\n      tag_20\n      jumpi\n      dup1\n      0xeb4f81f3\n      eq\n      tag_21\n      jumpi\n      dup1\n      0xf0483d73\n      eq\n      tag_22\n      jumpi\n      dup1\n      0xf5091598\n      eq\n      tag_23\n      jumpi\n      dup1\n      0xfa137b2a\n      eq\n      tag_24\n      jumpi\n      dup1\n      0xfc07dbb8\n      eq\n      tag_25\n      jumpi\n      jump(tag_2)\n    tag_27:\n      dup1\n      0xb150019a\n      eq\n      tag_14\n      jumpi\n      dup1\n      0xcca79636\n      eq\n      tag_15\n      jumpi\n      dup1\n      0xd26813d3\n      eq\n      tag_16\n      jumpi\n      dup1\n      0xd68cfc14\n      eq\n      tag_17\n      jumpi\n      dup1\n      0xdd188dc3\n      eq\n      tag_18\n      jumpi\n      dup1\n      0xe0d6d530\n      eq\n      tag_19\n      jumpi\n      jump(tag_2)\n    tag_26:\n      dup1\n      0x588a2c09\n      gt\n      tag_28\n      jumpi\n      dup1\n      0x588a2c09\n      eq\n      tag_8\n      jumpi\n      dup1\n      0x600fa18e\n      eq\n      tag_9\n      jumpi\n      dup1\n      0x6affb729\n      eq\n      tag_10\n      jumpi\n      dup1\n      0x70cd47df\n      eq\n      tag_11\n      jumpi\n      dup1\n      0x9a5b9d62\n      eq\n      tag_12\n      jumpi\n      dup1\n      0xa805588e\n      eq\n      tag_13\n      jumpi\n      jump(tag_2)\n    tag_28:\n      dup1\n      0x26541b4a\n      eq\n      tag_3\n      jumpi\n      dup1\n      0x3ef0116d\n      eq\n      tag_4\n      jumpi\n      dup1\n      0x43d6a6a2\n      eq\n      tag_5\n      jumpi\n      dup1\n      0x4838d165\n      eq\n      tag_6\n      jumpi\n      dup1\n      0x4ca9deb9\n      eq\n      tag_7\n      jumpi\n    tag_2:\n      0x00\n      dup1\n      revert\n        /* \"Buy_ERupee.sol\":1084:1136  mapping(address => bool) public isBlackListedMapping */\n    tag_3:\n      tag_29\n      0x04\n      dup1\n      calldatasize\n      sub\n      dup2\n      add\n      swap1\n      tag_30\n      swap2\n      swap1\n      tag_31\n      jump\t// in\n    tag_30:\n      tag_32\n      jump\t// in\n    tag_29:\n      mload(0x40)\n      tag_33\n      swap2\n      swap1\n      tag_34\n      jump\t// in\n    tag_33:\n      mload(0x40)\n      dup1\n      swap2\n      sub\n      swap1\n      return\n        /* \"Buy_ERupee.sol\":510:544  address public five_Rupee_contract */\n    tag_4:\n      tag_35\n      tag_36\n      jump\t// in\n    tag_35:\n      mload(0x40)\n      tag_37\n      swap2\n      swap1\n      tag_38\n      jump\t// in\n    tag_37:\n      mload(0x40)\n      dup1\n      swap2\n      sub\n      swap1\n      return\n        /* \"Buy_ERupee.sol\":3119:3235  function getUserFundAmt(address _user) public view returns (uint256) {... */\n    tag_5:\n      tag_39\n      0x04\n      dup1\n      calldatasize\n      sub\n      dup2\n      add\n      swap1\n      tag_40\n      swap2\n      swap1\n      tag_31\n      jump\t// in\n    tag_40:\n      tag_41\n      jump\t// in\n    tag_39:\n      mload(0x40)\n      tag_42\n      swap2\n      swap1\n      tag_43\n      jump\t// in\n    tag_42:\n      mload(0x40)\n      dup1\n      swap2\n      sub\n      swap1\n      return\n        /* \"Buy_ERupee.sol\":3241:3361  function blackList(address _blackListAddr) public onlyOwner {... */\n    tag_6:\n      tag_44\n      0x04\n      dup1\n      calldatasize\n      sub\n      dup2\n      add\n      swap1\n      tag_45\n      swap2\n      swap1\n      tag_31\n      jump\t// in\n    tag_45:\n      tag_46\n      jump\t// in\n    tag_44:\n      stop\n        /* \"Buy_ERupee.sol\":4788:7367  function transferAmount(uint256 _amount, address _to)... */\n    tag_7:\n      tag_47\n      0x04\n      dup1\n      calldatasize\n      sub\n      dup2\n      add\n      swap1\n      tag_48\n      swap2\n      swap1\n      tag_49\n      jump\t// in\n    tag_48:\n      tag_50\n      jump\t// in\n    tag_47:\n      stop\n        /* \"Buy_ERupee.sol\":631:666  address public fifty_Rupee_contract */\n    tag_8:\n      tag_51\n      tag_52\n      jump\t// in\n    tag_51:\n      mload(0x40)\n      tag_53\n      swap2\n      swap1\n      tag_38\n      jump\t// in\n    tag_53:\n      mload(0x40)\n      dup1\n      swap2\n      sub\n      swap1\n      return\n        /* \"Buy_ERupee.sol\":3367:3602  function noteCalculation(uint256 _num1, uint256 _division)... */\n    tag_9:\n      tag_54\n      0x04\n      dup1\n      calldatasize\n      sub\n      dup2\n      add\n      swap1\n      tag_55\n      swap2\n      swap1\n      tag_56\n      jump\t// in\n    tag_55:\n      tag_57\n      jump\t// in\n    tag_54:\n      mload(0x40)\n      tag_58\n      swap3\n      swap2\n      swap1\n      tag_59\n      jump\t// in\n    tag_58:\n      mload(0x40)\n      dup1\n      swap2\n      sub\n      swap1\n      return\n        /* \"Buy_ERupee.sol\":589:625  address public twenty_Rupee_contract */\n    tag_10:\n      tag_60\n      tag_61\n      jump\t// in\n    tag_60:\n      mload(0x40)\n      tag_62\n      swap2\n      swap1\n      tag_38\n      jump\t// in\n    tag_62:\n      mload(0x40)\n      dup1\n      swap2\n      sub\n      swap1\n      return\n        /* \"Buy_ERupee.sol\":471:504  address public two_Rupee_contract */\n    tag_11:\n      tag_63\n      tag_64\n      jump\t// in\n    tag_63:\n      mload(0x40)\n      tag_65\n      swap2\n      swap1\n      tag_38\n      jump\t// in\n    tag_65:\n      mload(0x40)\n      dup1\n      swap2\n      sub\n      swap1\n      return\n        /* \"Buy_ERupee.sol\":766:808  address public five_hundred_Rupee_contract */\n    tag_12:\n      tag_66\n      tag_67\n      jump\t// in\n    tag_66:\n      mload(0x40)\n      tag_68\n      swap2\n      swap1\n      tag_38\n      jump\t// in\n    tag_68:\n      mload(0x40)\n      dup1\n      swap2\n      sub\n      swap1\n      return\n        /* \"Buy_ERupee.sol\":897:928  uint256 public _5RupeeCount = 0 */\n    tag_13:\n      tag_69\n      tag_70\n      jump\t// in\n    tag_69:\n      mload(0x40)\n      tag_71\n      swap2\n      swap1\n      tag_43\n      jump\t// in\n    tag_71:\n      mload(0x40)\n      dup1\n      swap2\n      sub\n      swap1\n      return\n        /* \"Buy_ERupee.sol\":550:583  address public ten_Rupee_contract */\n    tag_14:\n      tag_72\n      tag_73\n      jump\t// in\n    tag_72:\n      mload(0x40)\n      tag_74\n      swap2\n      swap1\n      tag_38\n      jump\t// in\n    tag_74:\n      mload(0x40)\n      dup1\n      swap2\n      sub\n      swap1\n      return\n        /* \"Buy_ERupee.sol\":814:849  address public rupee_contract_ERC20 */\n    tag_15:\n      tag_75\n      tag_76\n      jump\t// in\n    tag_75:\n      mload(0x40)\n      tag_77\n      swap2\n      swap1\n      tag_38\n      jump\t// in\n    tag_77:\n      mload(0x40)\n      dup1\n      swap2\n      sub\n      swap1\n      return\n        /* \"Buy_ERupee.sol\":934:962  uint256 public _10RupeeCount */\n    tag_16:\n      tag_78\n      tag_79\n      jump\t// in\n    tag_78:\n      mload(0x40)\n      tag_80\n      swap2\n      swap1\n      tag_43\n      jump\t// in\n    tag_80:\n      mload(0x40)\n      dup1\n      swap2\n      sub\n      swap1\n      return\n        /* \"Buy_ERupee.sol\":1002:1021  uint256 public _num */\n    tag_17:\n      tag_81\n      tag_82\n      jump\t// in\n    tag_81:\n      mload(0x40)\n      tag_83\n      swap2\n      swap1\n      tag_43\n      jump\t// in\n    tag_83:\n      mload(0x40)\n      dup1\n      swap2\n      sub\n      swap1\n      return\n        /* \"Buy_ERupee.sol\":1027:1078  mapping(address => uint256) public userFundsMapping */\n    tag_18:\n      tag_84\n      0x04\n      dup1\n      calldatasize\n      sub\n      dup2\n      add\n      swap1\n      tag_85\n      swap2\n      swap1\n      tag_31\n      jump\t// in\n    tag_85:\n      tag_86\n      jump\t// in\n    tag_84:\n      mload(0x40)\n      tag_87\n      swap2\n      swap1\n      tag_43\n      jump\t// in\n    tag_87:\n      mload(0x40)\n      dup1\n      swap2\n      sub\n      swap1\n      return\n        /* \"Buy_ERupee.sol\":1571:3113  function setContracts() external onlyOwner returns (bool) {... */\n    tag_19:\n      tag_88\n      tag_89\n      jump\t// in\n    tag_88:\n      mload(0x40)\n      tag_90\n      swap2\n      swap1\n      tag_34\n      jump\t// in\n    tag_90:\n      mload(0x40)\n      dup1\n      swap2\n      sub\n      swap1\n      return\n        /* \"Buy_ERupee.sol\":968:996  uint256 public _20RupeeCount */\n    tag_20:\n      tag_91\n      tag_92\n      jump\t// in\n    tag_91:\n      mload(0x40)\n      tag_93\n      swap2\n      swap1\n      tag_43\n      jump\t// in\n    tag_93:\n      mload(0x40)\n      dup1\n      swap2\n      sub\n      swap1\n      return\n        /* \"Buy_ERupee.sol\":855:891  address[9] public _rupeeContractList */\n    tag_21:\n      tag_94\n      0x04\n      dup1\n      calldatasize\n      sub\n      dup2\n      add\n      swap1\n      tag_95\n      swap2\n      swap1\n      tag_96\n      jump\t// in\n    tag_95:\n      tag_97\n      jump\t// in\n    tag_94:\n      mload(0x40)\n      tag_98\n      swap2\n      swap1\n      tag_38\n      jump\t// in\n    tag_98:\n      mload(0x40)\n      dup1\n      swap2\n      sub\n      swap1\n      return\n        /* \"Buy_ERupee.sol\":672:713  address public one_hundred_Rupee_contract */\n    tag_22:\n      tag_99\n      tag_100\n      jump\t// in\n    tag_99:\n      mload(0x40)\n      tag_101\n      swap2\n      swap1\n      tag_38\n      jump\t// in\n    tag_101:\n      mload(0x40)\n      dup1\n      swap2\n      sub\n      swap1\n      return\n        /* \"Buy_ERupee.sol\":3608:4416  function buy_With_note_denominations(uint256 _amount) external {... */\n    tag_23:\n      tag_102\n      0x04\n      dup1\n      calldatasize\n      sub\n      dup2\n      add\n      swap1\n      tag_103\n      swap2\n      swap1\n      tag_96\n      jump\t// in\n    tag_103:\n      tag_104\n      jump\t// in\n    tag_102:\n      stop\n        /* \"Buy_ERupee.sol\":719:760  address public two_hundred_Rupee_contract */\n    tag_24:\n      tag_105\n      tag_106\n      jump\t// in\n    tag_105:\n      mload(0x40)\n      tag_107\n      swap2\n      swap1\n      tag_38\n      jump\t// in\n    tag_107:\n      mload(0x40)\n      dup1\n      swap2\n      sub\n      swap1\n      return\n        /* \"Buy_ERupee.sol\":432:465  address public one_Rupee_contract */\n    tag_25:\n      tag_108\n      tag_109\n      jump\t// in\n    tag_108:\n      mload(0x40)\n      tag_110\n      swap2\n      swap1\n      tag_38\n      jump\t// in\n    tag_110:\n      mload(0x40)\n      dup1\n      swap2\n      sub\n      swap1\n      return\n        /* \"Buy_ERupee.sol\":1084:1136  mapping(address => bool) public isBlackListedMapping */\n    tag_32:\n      mstore(0x20, 0x18)\n      dup1\n      0x00\n      mstore\n      keccak256(0x00, 0x40)\n      0x00\n      swap2\n      pop\n      sload\n      swap1\n      0x0100\n      exp\n      swap1\n      div\n      0xff\n      and\n      dup2\n      jump\t// out\n        /* \"Buy_ERupee.sol\":510:544  address public five_Rupee_contract */\n    tag_36:\n      0x02\n      0x00\n      swap1\n      sload\n      swap1\n      0x0100\n      exp\n      swap1\n      div\n      0xffffffffffffffffffffffffffffffffffffffff\n      and\n      dup2\n      jump\t// out\n        /* \"Buy_ERupee.sol\":3119:3235  function getUserFundAmt(address _user) public view returns (uint256) {... */\n    tag_41:\n        /* \"Buy_ERupee.sol\":3179:3186  uint256 */\n      0x00\n        /* \"Buy_ERupee.sol\":3205:3221  userFundsMapping */\n      0x17\n        /* \"Buy_ERupee.sol\":3205:3228  userFundsMapping[_user] */\n      0x00\n        /* \"Buy_ERupee.sol\":3222:3227  _user */\n      dup4\n        /* \"Buy_ERupee.sol\":3205:3228  userFundsMapping[_user] */\n      0xffffffffffffffffffffffffffffffffffffffff\n      and\n      0xffffffffffffffffffffffffffffffffffffffff\n      and\n      dup2\n      mstore\n      0x20\n      add\n      swap1\n      dup2\n      mstore\n      0x20\n      add\n      0x00\n      keccak256\n      sload\n        /* \"Buy_ERupee.sol\":3198:3228  return userFundsMapping[_user] */\n      swap1\n      pop\n        /* \"Buy_ERupee.sol\":3119:3235  function getUserFundAmt(address _user) public view returns (uint256) {... */\n      swap2\n      swap1\n      pop\n      jump\t// out\n        /* \"Buy_ERupee.sol\":3241:3361  function blackList(address _blackListAddr) public onlyOwner {... */\n    tag_46:\n        /* \"Buy_ERupee.sol\":1318:1328  msg.sender */\n      caller\n        /* \"Buy_ERupee.sol\":1308:1328  _owner == msg.sender */\n      0xffffffffffffffffffffffffffffffffffffffff\n      and\n        /* \"Buy_ERupee.sol\":1308:1314  _owner */\n      immutable(\"0xe41a685dc3df81383d452481451b89eb3f69781b836c19936fa9714a13d1c9c2\")\n        /* \"Buy_ERupee.sol\":1308:1328  _owner == msg.sender */\n      0xffffffffffffffffffffffffffffffffffffffff\n      and\n      eq\n        /* \"Buy_ERupee.sol\":1300:1360  require(_owner == msg.sender, \"can only be called by owner\") */\n      tag_113\n      jumpi\n      mload(0x40)\n      0x08c379a000000000000000000000000000000000000000000000000000000000\n      dup2\n      mstore\n      0x04\n      add\n      tag_114\n      swap1\n      tag_115\n      jump\t// in\n    tag_114:\n      mload(0x40)\n      dup1\n      swap2\n      sub\n      swap1\n      revert\n    tag_113:\n        /* \"Buy_ERupee.sol\":3350:3354  true */\n      0x01\n        /* \"Buy_ERupee.sol\":3311:3331  isBlackListedMapping */\n      0x18\n        /* \"Buy_ERupee.sol\":3311:3347  isBlackListedMapping[_blackListAddr] */\n      0x00\n        /* \"Buy_ERupee.sol\":3332:3346  _blackListAddr */\n      dup4\n        /* \"Buy_ERupee.sol\":3311:3347  isBlackListedMapping[_blackListAddr] */\n      0xffffffffffffffffffffffffffffffffffffffff\n      and\n      0xffffffffffffffffffffffffffffffffffffffff\n      and\n      dup2\n      mstore\n      0x20\n      add\n      swap1\n      dup2\n      mstore\n      0x20\n      add\n      0x00\n      keccak256\n      0x00\n        /* \"Buy_ERupee.sol\":3311:3354  isBlackListedMapping[_blackListAddr] = true */\n      0x0100\n      exp\n      dup2\n      sload\n      dup2\n      0xff\n      mul\n      not\n      and\n      swap1\n      dup4\n      iszero\n      iszero\n      mul\n      or\n      swap1\n      sstore\n      pop\n        /* \"Buy_ERupee.sol\":3241:3361  function blackList(address _blackListAddr) public onlyOwner {... */\n      pop\n      jump\t// out\n        /* \"Buy_ERupee.sol\":4788:7367  function transferAmount(uint256 _amount, address _to)... */\n    tag_50:\n        /* \"Buy_ERupee.sol\":4882:4885  _to */\n      dup1\n        /* \"Buy_ERupee.sol\":1483:1488  false */\n      0x00\n        /* \"Buy_ERupee.sol\":1454:1488  isBlackListedMapping[_to] == false */\n      iszero\n      iszero\n        /* \"Buy_ERupee.sol\":1454:1474  isBlackListedMapping */\n      0x18\n        /* \"Buy_ERupee.sol\":1454:1479  isBlackListedMapping[_to] */\n      0x00\n        /* \"Buy_ERupee.sol\":1475:1478  _to */\n      dup4\n        /* \"Buy_ERupee.sol\":1454:1479  isBlackListedMapping[_to] */\n      0xffffffffffffffffffffffffffffffffffffffff\n      and\n      0xffffffffffffffffffffffffffffffffffffffff\n      and\n      dup2\n      mstore\n      0x20\n      add\n      swap1\n      dup2\n      mstore\n      0x20\n      add\n      0x00\n      keccak256\n      0x00\n      swap1\n      sload\n      swap1\n      0x0100\n      exp\n      swap1\n      div\n      0xff\n      and\n        /* \"Buy_ERupee.sol\":1454:1488  isBlackListedMapping[_to] == false */\n      iszero\n      iszero\n      eq\n        /* \"Buy_ERupee.sol\":1433:1547  require(... */\n      tag_118\n      jumpi\n      mload(0x40)\n      0x08c379a000000000000000000000000000000000000000000000000000000000\n      dup2\n      mstore\n      0x04\n      add\n      tag_119\n      swap1\n      tag_120\n      jump\t// in\n    tag_119:\n      mload(0x40)\n      dup1\n      swap2\n      sub\n      swap1\n      revert\n    tag_118:\n        /* \"Buy_ERupee.sol\":5284:5291  _amount */\n      dup3\n        /* \"Buy_ERupee.sol\":5252:5268  userFundsMapping */\n      0x17\n        /* \"Buy_ERupee.sol\":5252:5280  userFundsMapping[msg.sender] */\n      0x00\n        /* \"Buy_ERupee.sol\":5269:5279  msg.sender */\n      caller\n        /* \"Buy_ERupee.sol\":5252:5280  userFundsMapping[msg.sender] */\n      0xffffffffffffffffffffffffffffffffffffffff\n      and\n      0xffffffffffffffffffffffffffffffffffffffff\n      and\n      dup2\n      mstore\n      0x20\n      add\n      swap1\n      dup2\n      mstore\n      0x20\n      add\n      0x00\n      keccak256\n      sload\n        /* \"Buy_ERupee.sol\":5252:5291  userFundsMapping[msg.sender] >= _amount */\n      lt\n      iszero\n        /* \"Buy_ERupee.sol\":5231:5346  require(... */\n      tag_122\n      jumpi\n      mload(0x40)\n      0x08c379a000000000000000000000000000000000000000000000000000000000\n      dup2\n      mstore\n      0x04\n      add\n      tag_123\n      swap1\n      tag_124\n      jump\t// in\n    tag_123:\n      mload(0x40)\n      dup1\n      swap2\n      sub\n      swap1\n      revert\n    tag_122:\n        /* \"Buy_ERupee.sol\":5356:5386  uint256[9] memory NoteAvailArr */\n      0x00\n        /* \"Buy_ERupee.sol\":5389:5415  fetchUserNotes(msg.sender) */\n      tag_125\n        /* \"Buy_ERupee.sol\":5404:5414  msg.sender */\n      caller\n        /* \"Buy_ERupee.sol\":5389:5403  fetchUserNotes */\n      tag_126\n        /* \"Buy_ERupee.sol\":5389:5415  fetchUserNotes(msg.sender) */\n      jump\t// in\n    tag_125:\n        /* \"Buy_ERupee.sol\":5356:5415  uint256[9] memory NoteAvailArr = fetchUserNotes(msg.sender) */\n      swap1\n      pop\n        /* \"Buy_ERupee.sol\":5447:5480  uint256[9] memory NoteNeededCount */\n      tag_127\n      tag_128\n      jump\t// in\n    tag_127:\n        /* \"Buy_ERupee.sol\":5526:5555  uint256[9] memory transferArr */\n      tag_129\n      tag_128\n      jump\t// in\n    tag_129:\n        /* \"Buy_ERupee.sol\":5625:5632  _amount */\n      dup6\n        /* \"Buy_ERupee.sol\":5593:5609  userFundsMapping */\n      0x17\n        /* \"Buy_ERupee.sol\":5593:5621  userFundsMapping[msg.sender] */\n      0x00\n        /* \"Buy_ERupee.sol\":5610:5620  msg.sender */\n      caller\n        /* \"Buy_ERupee.sol\":5593:5621  userFundsMapping[msg.sender] */\n      0xffffffffffffffffffffffffffffffffffffffff\n      and\n      0xffffffffffffffffffffffffffffffffffffffff\n      and\n      dup2\n      mstore\n      0x20\n      add\n      swap1\n      dup2\n      mstore\n      0x20\n      add\n      0x00\n      keccak256\n      0x00\n        /* \"Buy_ERupee.sol\":5593:5632  userFundsMapping[msg.sender] -= _amount */\n      dup3\n      dup3\n      sload\n      tag_130\n      swap2\n      swap1\n      tag_131\n      jump\t// in\n    tag_130:\n      swap3\n      pop\n      pop\n      dup2\n      swap1\n      sstore\n      pop\n        /* \"Buy_ERupee.sol\":5667:5674  _amount */\n      dup6\n        /* \"Buy_ERupee.sol\":5642:5658  userFundsMapping */\n      0x17\n        /* \"Buy_ERupee.sol\":5642:5663  userFundsMapping[_to] */\n      0x00\n        /* \"Buy_ERupee.sol\":5659:5662  _to */\n      dup8\n        /* \"Buy_ERupee.sol\":5642:5663  userFundsMapping[_to] */\n      0xffffffffffffffffffffffffffffffffffffffff\n      and\n      0xffffffffffffffffffffffffffffffffffffffff\n      and\n      dup2\n      mstore\n      0x20\n      add\n      swap1\n      dup2\n      mstore\n      0x20\n      add\n      0x00\n      keccak256\n      0x00\n        /* \"Buy_ERupee.sol\":5642:5674  userFundsMapping[_to] += _amount */\n      dup3\n      dup3\n      sload\n      tag_132\n      swap2\n      swap1\n      tag_133\n      jump\t// in\n    tag_132:\n      swap3\n      pop\n      pop\n      dup2\n      swap1\n      sstore\n      pop\n        /* \"Buy_ERupee.sol\":5684:5697  uint256 _num1 */\n      0x00\n        /* \"Buy_ERupee.sol\":5711:5717  10**18 */\n      0x0de0b6b3a7640000\n        /* \"Buy_ERupee.sol\":5700:5707  _amount */\n      dup8\n        /* \"Buy_ERupee.sol\":5700:5718  _amount / (10**18) */\n      tag_134\n      swap2\n      swap1\n      tag_135\n      jump\t// in\n    tag_134:\n        /* \"Buy_ERupee.sol\":5684:5718  uint256 _num1 = _amount / (10**18) */\n      swap1\n      pop\n        /* \"Buy_ERupee.sol\":5728:5744  uint256 rem_mint */\n      0x00\n        /* \"Buy_ERupee.sol\":5758:5776  uint256 rem_change */\n      dup1\n        /* \"Buy_ERupee.sol\":5790:5808  uint256 denom_burn */\n      0x00\n        /* \"Buy_ERupee.sol\":5824:5833  uint256 k */\n      dup1\n        /* \"Buy_ERupee.sol\":5836:5837  0 */\n      0x00\n        /* \"Buy_ERupee.sol\":5824:5837  uint256 k = 0 */\n      swap1\n      pop\n        /* \"Buy_ERupee.sol\":5819:6007  for (uint256 k = 0; k < 9; k++) {... */\n    tag_136:\n        /* \"Buy_ERupee.sol\":5843:5844  9 */\n      0x09\n        /* \"Buy_ERupee.sol\":5839:5840  k */\n      dup2\n        /* \"Buy_ERupee.sol\":5839:5844  k < 9 */\n      lt\n        /* \"Buy_ERupee.sol\":5819:6007  for (uint256 k = 0; k < 9; k++) {... */\n      iszero\n      tag_137\n      jumpi\n        /* \"Buy_ERupee.sol\":5865:5877  uint256 temp */\n      0x00\n        /* \"Buy_ERupee.sol\":5912:5954  noteCalculation(_num1, denominationArr[k]) */\n      tag_139\n        /* \"Buy_ERupee.sol\":5928:5933  _num1 */\n      dup7\n        /* \"Buy_ERupee.sol\":5935:5950  denominationArr */\n      0x19\n        /* \"Buy_ERupee.sol\":5951:5952  k */\n      dup5\n        /* \"Buy_ERupee.sol\":5935:5953  denominationArr[k] */\n      dup2\n      sload\n      dup2\n      lt\n      tag_140\n      jumpi\n      tag_141\n      tag_142\n      jump\t// in\n    tag_141:\n    tag_140:\n      swap1\n      0x00\n      mstore\n      keccak256(0x00, 0x20)\n      add\n      sload\n        /* \"Buy_ERupee.sol\":5912:5927  noteCalculation */\n      tag_57\n        /* \"Buy_ERupee.sol\":5912:5954  noteCalculation(_num1, denominationArr[k]) */\n      jump\t// in\n    tag_139:\n        /* \"Buy_ERupee.sol\":5895:5955  (temp, _num1) = (noteCalculation(_num1, denominationArr[k])) */\n      dup1\n      swap8\n      pop\n      dup2\n      swap3\n      pop\n      pop\n      pop\n        /* \"Buy_ERupee.sol\":5991:5995  temp */\n      dup1\n        /* \"Buy_ERupee.sol\":5969:5984  NoteNeededCount */\n      dup9\n        /* \"Buy_ERupee.sol\":5985:5986  k */\n      dup4\n        /* \"Buy_ERupee.sol\":5969:5987  NoteNeededCount[k] */\n      0x09\n      dup2\n      lt\n      tag_144\n      jumpi\n      tag_145\n      tag_142\n      jump\t// in\n    tag_145:\n    tag_144:\n      0x20\n      mul\n      add\n        /* \"Buy_ERupee.sol\":5969:5996  NoteNeededCount[k] = (temp) */\n      dup2\n      dup2\n      mstore\n      pop\n      pop\n        /* \"Buy_ERupee.sol\":5851:6007  {... */\n      pop\n        /* \"Buy_ERupee.sol\":5846:5849  k++ */\n      dup1\n      dup1\n      tag_146\n      swap1\n      tag_147\n      jump\t// in\n    tag_146:\n      swap2\n      pop\n      pop\n        /* \"Buy_ERupee.sol\":5819:6007  for (uint256 k = 0; k < 9; k++) {... */\n      jump(tag_136)\n    tag_137:\n      pop\n        /* \"Buy_ERupee.sol\":6016:6029  uint256 total */\n      0x00\n        /* \"Buy_ERupee.sol\":6049:6058  uint256 i */\n      dup1\n        /* \"Buy_ERupee.sol\":6044:7050  for (uint256 i = 0; i < 9; i++) {... */\n    tag_148:\n        /* \"Buy_ERupee.sol\":6068:6069  9 */\n      0x09\n        /* \"Buy_ERupee.sol\":6064:6065  i */\n      dup2\n        /* \"Buy_ERupee.sol\":6064:6069  i < 9 */\n      lt\n        /* \"Buy_ERupee.sol\":6044:7050  for (uint256 i = 0; i < 9; i++) {... */\n      iszero\n      tag_149\n      jumpi\n        /* \"Buy_ERupee.sol\":6113:6128  NoteNeededCount */\n      dup8\n        /* \"Buy_ERupee.sol\":6129:6130  i */\n      dup2\n        /* \"Buy_ERupee.sol\":6113:6131  NoteNeededCount[i] */\n      0x09\n      dup2\n      lt\n      tag_151\n      jumpi\n      tag_152\n      tag_142\n      jump\t// in\n    tag_152:\n    tag_151:\n      0x20\n      mul\n      add\n      mload\n        /* \"Buy_ERupee.sol\":6094:6106  NoteAvailArr */\n      dup10\n        /* \"Buy_ERupee.sol\":6107:6108  i */\n      dup3\n        /* \"Buy_ERupee.sol\":6094:6109  NoteAvailArr[i] */\n      0x09\n      dup2\n      lt\n      tag_153\n      jumpi\n      tag_154\n      tag_142\n      jump\t// in\n    tag_154:\n    tag_153:\n      0x20\n      mul\n      add\n      mload\n        /* \"Buy_ERupee.sol\":6094:6131  NoteAvailArr[i] >= NoteNeededCount[i] */\n      lt\n        /* \"Buy_ERupee.sol\":6090:7040  if (NoteAvailArr[i] >= NoteNeededCount[i]) {... */\n      tag_155\n      jumpi\n        /* \"Buy_ERupee.sol\":6181:6196  NoteNeededCount */\n      dup8\n        /* \"Buy_ERupee.sol\":6197:6198  i */\n      dup2\n        /* \"Buy_ERupee.sol\":6181:6199  NoteNeededCount[i] */\n      0x09\n      dup2\n      lt\n      tag_156\n      jumpi\n      tag_157\n      tag_142\n      jump\t// in\n    tag_157:\n    tag_156:\n      0x20\n      mul\n      add\n      mload\n        /* \"Buy_ERupee.sol\":6160:6175  denominationArr */\n      0x19\n        /* \"Buy_ERupee.sol\":6176:6177  i */\n      dup3\n        /* \"Buy_ERupee.sol\":6160:6178  denominationArr[i] */\n      dup2\n      sload\n      dup2\n      lt\n      tag_158\n      jumpi\n      tag_159\n      tag_142\n      jump\t// in\n    tag_159:\n    tag_158:\n      swap1\n      0x00\n      mstore\n      keccak256(0x00, 0x20)\n      add\n      sload\n        /* \"Buy_ERupee.sol\":6160:6199  denominationArr[i] * NoteNeededCount[i] */\n      tag_161\n      swap2\n      swap1\n      tag_162\n      jump\t// in\n    tag_161:\n        /* \"Buy_ERupee.sol\":6151:6199  total += denominationArr[i] * NoteNeededCount[i] */\n      dup3\n      tag_163\n      swap2\n      swap1\n      tag_133\n      jump\t// in\n    tag_163:\n      swap2\n      pop\n        /* \"Buy_ERupee.sol\":6234:6249  NoteNeededCount */\n      dup8\n        /* \"Buy_ERupee.sol\":6250:6251  i */\n      dup2\n        /* \"Buy_ERupee.sol\":6234:6252  NoteNeededCount[i] */\n      0x09\n      dup2\n      lt\n      tag_164\n      jumpi\n      tag_165\n      tag_142\n      jump\t// in\n    tag_165:\n    tag_164:\n      0x20\n      mul\n      add\n      mload\n        /* \"Buy_ERupee.sol\":6217:6228  transferArr */\n      dup8\n        /* \"Buy_ERupee.sol\":6229:6230  i */\n      dup3\n        /* \"Buy_ERupee.sol\":6217:6231  transferArr[i] */\n      0x09\n      dup2\n      lt\n      tag_166\n      jumpi\n      tag_167\n      tag_142\n      jump\t// in\n    tag_167:\n    tag_166:\n      0x20\n      mul\n      add\n        /* \"Buy_ERupee.sol\":6217:6252  transferArr[i] = NoteNeededCount[i] */\n      dup2\n      dup2\n      mstore\n      pop\n      pop\n        /* \"Buy_ERupee.sol\":6289:6304  NoteNeededCount */\n      dup8\n        /* \"Buy_ERupee.sol\":6305:6306  i */\n      dup2\n        /* \"Buy_ERupee.sol\":6289:6307  NoteNeededCount[i] */\n      0x09\n      dup2\n      lt\n      tag_168\n      jumpi\n      tag_169\n      tag_142\n      jump\t// in\n    tag_169:\n    tag_168:\n      0x20\n      mul\n      add\n      mload\n        /* \"Buy_ERupee.sol\":6270:6282  NoteAvailArr */\n      dup10\n        /* \"Buy_ERupee.sol\":6283:6284  i */\n      dup3\n        /* \"Buy_ERupee.sol\":6270:6285  NoteAvailArr[i] */\n      0x09\n      dup2\n      lt\n      tag_170\n      jumpi\n      tag_171\n      tag_142\n      jump\t// in\n    tag_171:\n    tag_170:\n      0x20\n      mul\n      add\n        /* \"Buy_ERupee.sol\":6270:6307  NoteAvailArr[i] -= NoteNeededCount[i] */\n      dup2\n      dup2\n      mload\n      tag_172\n      swap2\n      swap1\n      tag_131\n      jump\t// in\n    tag_172:\n      swap2\n      pop\n      dup2\n      dup2\n      mstore\n      pop\n      pop\n        /* \"Buy_ERupee.sol\":6090:7040  if (NoteAvailArr[i] >= NoteNeededCount[i]) {... */\n      jump(tag_173)\n    tag_155:\n        /* \"Buy_ERupee.sol\":6346:6360  uint256 change */\n      0x00\n        /* \"Buy_ERupee.sol\":6384:6389  total */\n      dup3\n        /* \"Buy_ERupee.sol\":6374:6380  10**18 */\n      0x0de0b6b3a7640000\n        /* \"Buy_ERupee.sol\":6363:6370  _amount */\n      dup15\n        /* \"Buy_ERupee.sol\":6363:6381  _amount / (10**18) */\n      tag_174\n      swap2\n      swap1\n      tag_135\n      jump\t// in\n    tag_174:\n        /* \"Buy_ERupee.sol\":6363:6389  _amount / (10**18) - total */\n      tag_175\n      swap2\n      swap1\n      tag_131\n      jump\t// in\n    tag_175:\n        /* \"Buy_ERupee.sol\":6346:6389  uint256 change = _amount / (10**18) - total */\n      swap1\n      pop\n        /* \"Buy_ERupee.sol\":6412:6421  uint256 j */\n      0x00\n        /* \"Buy_ERupee.sol\":6428:6429  1 */\n      0x01\n        /* \"Buy_ERupee.sol\":6424:6425  i */\n      dup4\n        /* \"Buy_ERupee.sol\":6424:6429  i - 1 */\n      tag_179\n      swap2\n      swap1\n      tag_131\n      jump\t// in\n    tag_179:\n        /* \"Buy_ERupee.sol\":6412:6429  uint256 j = i - 1 */\n      swap1\n      pop\n        /* \"Buy_ERupee.sol\":6407:7003  for (uint256 j = i - 1; j >= 0; j--) {... */\n    tag_176:\n        /* \"Buy_ERupee.sol\":6436:6437  0 */\n      0x00\n        /* \"Buy_ERupee.sol\":6431:6432  j */\n      dup2\n        /* \"Buy_ERupee.sol\":6431:6437  j >= 0 */\n      lt\n        /* \"Buy_ERupee.sol\":6407:7003  for (uint256 j = i - 1; j >= 0; j--) {... */\n      tag_177\n      jumpi\n        /* \"Buy_ERupee.sol\":6479:6494  denominationArr */\n      0x19\n        /* \"Buy_ERupee.sol\":6495:6496  j */\n      dup2\n        /* \"Buy_ERupee.sol\":6479:6497  denominationArr[j] */\n      dup2\n      sload\n      dup2\n      lt\n      tag_180\n      jumpi\n      tag_181\n      tag_142\n      jump\t// in\n    tag_181:\n    tag_180:\n      swap1\n      0x00\n      mstore\n      keccak256(0x00, 0x20)\n      add\n      sload\n        /* \"Buy_ERupee.sol\":6470:6476  change */\n      dup3\n        /* \"Buy_ERupee.sol\":6470:6497  change < denominationArr[j] */\n      lt\n        /* \"Buy_ERupee.sol\":6470:6520  change < denominationArr[j] && NoteAvailArr[j] > 0 */\n      dup1\n      iszero\n      tag_183\n      jumpi\n      pop\n        /* \"Buy_ERupee.sol\":6519:6520  0 */\n      0x00\n        /* \"Buy_ERupee.sol\":6501:6513  NoteAvailArr */\n      dup12\n        /* \"Buy_ERupee.sol\":6514:6515  j */\n      dup3\n        /* \"Buy_ERupee.sol\":6501:6516  NoteAvailArr[j] */\n      0x09\n      dup2\n      lt\n      tag_184\n      jumpi\n      tag_185\n      tag_142\n      jump\t// in\n    tag_185:\n    tag_184:\n      0x20\n      mul\n      add\n      mload\n        /* \"Buy_ERupee.sol\":6501:6520  NoteAvailArr[j] > 0 */\n      gt\n        /* \"Buy_ERupee.sol\":6470:6520  change < denominationArr[j] && NoteAvailArr[j] > 0 */\n    tag_183:\n        /* \"Buy_ERupee.sol\":6466:6985  if (change < denominationArr[j] && NoteAvailArr[j] > 0) {... */\n      iszero\n      tag_186\n      jumpi\n        /* \"Buy_ERupee.sol\":6580:6586  change */\n      dup2\n        /* \"Buy_ERupee.sol\":6559:6574  denominationArr */\n      0x19\n        /* \"Buy_ERupee.sol\":6575:6576  j */\n      dup3\n        /* \"Buy_ERupee.sol\":6559:6577  denominationArr[j] */\n      dup2\n      sload\n      dup2\n      lt\n      tag_187\n      jumpi\n      tag_188\n      tag_142\n      jump\t// in\n    tag_188:\n    tag_187:\n      swap1\n      0x00\n      mstore\n      keccak256(0x00, 0x20)\n      add\n      sload\n        /* \"Buy_ERupee.sol\":6559:6586  denominationArr[j] - change */\n      tag_190\n      swap2\n      swap1\n      tag_131\n      jump\t// in\n    tag_190:\n        /* \"Buy_ERupee.sol\":6548:6586  rem_mint = denominationArr[j] - change */\n      swap7\n      pop\n        /* \"Buy_ERupee.sol\":6646:6654  rem_mint */\n      dup7\n        /* \"Buy_ERupee.sol\":6625:6640  denominationArr */\n      0x19\n        /* \"Buy_ERupee.sol\":6641:6642  j */\n      dup3\n        /* \"Buy_ERupee.sol\":6625:6643  denominationArr[j] */\n      dup2\n      sload\n      dup2\n      lt\n      tag_191\n      jumpi\n      tag_192\n      tag_142\n      jump\t// in\n    tag_192:\n    tag_191:\n      swap1\n      0x00\n      mstore\n      keccak256(0x00, 0x20)\n      add\n      sload\n        /* \"Buy_ERupee.sol\":6625:6654  denominationArr[j] - rem_mint */\n      tag_194\n      swap2\n      swap1\n      tag_131\n      jump\t// in\n    tag_194:\n        /* \"Buy_ERupee.sol\":6612:6654  rem_change = denominationArr[j] - rem_mint */\n      swap6\n      pop\n        /* \"Buy_ERupee.sol\":6693:6708  denominationArr */\n      0x19\n        /* \"Buy_ERupee.sol\":6709:6710  j */\n      dup2\n        /* \"Buy_ERupee.sol\":6693:6711  denominationArr[j] */\n      dup2\n      sload\n      dup2\n      lt\n      tag_195\n      jumpi\n      tag_196\n      tag_142\n      jump\t// in\n    tag_196:\n    tag_195:\n      swap1\n      0x00\n      mstore\n      keccak256(0x00, 0x20)\n      add\n      sload\n        /* \"Buy_ERupee.sol\":6680:6711  denom_burn = denominationArr[j] */\n      swap5\n      pop\n        /* \"Buy_ERupee.sol\":6737:6762  IMyToken __Rupee_contract */\n      0x00\n        /* \"Buy_ERupee.sol\":6803:6821  _rupeeContractList */\n      0x0a\n        /* \"Buy_ERupee.sol\":6822:6823  j */\n      dup3\n        /* \"Buy_ERupee.sol\":6803:6824  _rupeeContractList[j] */\n      0x09\n      dup2\n      lt\n      tag_198\n      jumpi\n      tag_199\n      tag_142\n      jump\t// in\n    tag_199:\n    tag_198:\n      add\n      0x00\n      swap1\n      sload\n      swap1\n      0x0100\n      exp\n      swap1\n      div\n      0xffffffffffffffffffffffffffffffffffffffff\n      and\n        /* \"Buy_ERupee.sol\":6737:6850  IMyToken __Rupee_contract = IMyToken(... */\n      swap1\n      pop\n        /* \"Buy_ERupee.sol\":6876:6892  __Rupee_contract */\n      dup1\n        /* \"Buy_ERupee.sol\":6876:6907  __Rupee_contract.transfer_rupee */\n      0xffffffffffffffffffffffffffffffffffffffff\n      and\n      0x83c587df\n        /* \"Buy_ERupee.sol\":6908:6918  msg.sender */\n      caller\n        /* \"Buy_ERupee.sol\":6928:6929  0 */\n      0x00\n        /* \"Buy_ERupee.sol\":6876:6931  __Rupee_contract.transfer_rupee(msg.sender, address(0)) */\n      mload(0x40)\n      dup4\n      0xffffffff\n      and\n      0xe0\n      shl\n      dup2\n      mstore\n      0x04\n      add\n      tag_201\n      swap3\n      swap2\n      swap1\n      tag_202\n      jump\t// in\n    tag_201:\n      0x00\n      mload(0x40)\n      dup1\n      dup4\n      sub\n      dup2\n      0x00\n      dup8\n      dup1\n      extcodesize\n      iszero\n      dup1\n      iszero\n      tag_203\n      jumpi\n      0x00\n      dup1\n      revert\n    tag_203:\n      pop\n      gas\n      call\n      iszero\n      dup1\n      iszero\n      tag_205\n      jumpi\n      returndatasize\n      0x00\n      dup1\n      returndatacopy\n      revert(0x00, returndatasize)\n    tag_205:\n      pop\n      pop\n      pop\n      pop\n        /* \"Buy_ERupee.sol\":6957:6962  break */\n      pop\n      jump(tag_177)\n        /* \"Buy_ERupee.sol\":6466:6985  if (change < denominationArr[j] && NoteAvailArr[j] > 0) {... */\n    tag_186:\n        /* \"Buy_ERupee.sol\":6439:6442  j-- */\n      dup1\n      dup1\n      tag_206\n      swap1\n      tag_207\n      jump\t// in\n    tag_206:\n      swap2\n      pop\n      pop\n        /* \"Buy_ERupee.sol\":6407:7003  for (uint256 j = i - 1; j >= 0; j--) {... */\n      jump(tag_176)\n    tag_177:\n      pop\n        /* \"Buy_ERupee.sol\":7020:7025  break */\n      pop\n      jump(tag_149)\n        /* \"Buy_ERupee.sol\":6090:7040  if (NoteAvailArr[i] >= NoteNeededCount[i]) {... */\n    tag_173:\n        /* \"Buy_ERupee.sol\":6071:6074  i++ */\n      dup1\n      dup1\n      tag_208\n      swap1\n      tag_147\n      jump\t// in\n    tag_208:\n      swap2\n      pop\n      pop\n        /* \"Buy_ERupee.sol\":6044:7050  for (uint256 i = 0; i < 9; i++) {... */\n      jump(tag_148)\n    tag_149:\n      pop\n        /* \"Buy_ERupee.sol\":7313:7360  sendNFT(transferArr, _to, rem_mint, rem_change) */\n      tag_209\n        /* \"Buy_ERupee.sol\":7321:7332  transferArr */\n      dup7\n        /* \"Buy_ERupee.sol\":7334:7337  _to */\n      dup12\n        /* \"Buy_ERupee.sol\":7339:7347  rem_mint */\n      dup7\n        /* \"Buy_ERupee.sol\":7349:7359  rem_change */\n      dup7\n        /* \"Buy_ERupee.sol\":7313:7320  sendNFT */\n      tag_210\n        /* \"Buy_ERupee.sol\":7313:7360  sendNFT(transferArr, _to, rem_mint, rem_change) */\n      jump\t// in\n    tag_209:\n        /* \"Buy_ERupee.sol\":4891:7367  {... */\n      pop\n      pop\n      pop\n      pop\n      pop\n      pop\n      pop\n      pop\n        /* \"Buy_ERupee.sol\":4788:7367  function transferAmount(uint256 _amount, address _to)... */\n      pop\n      pop\n      pop\n      jump\t// out\n        /* \"Buy_ERupee.sol\":631:666  address public fifty_Rupee_contract */\n    tag_52:\n      0x05\n      0x00\n      swap1\n      sload\n      swap1\n      0x0100\n      exp\n      swap1\n      div\n      0xffffffffffffffffffffffffffffffffffffffff\n      and\n      dup2\n      jump\t// out\n        /* \"Buy_ERupee.sol\":3367:3602  function noteCalculation(uint256 _num1, uint256 _division)... */\n    tag_57:\n        /* \"Buy_ERupee.sol\":3458:3465  uint256 */\n      0x00\n        /* \"Buy_ERupee.sol\":3467:3474  uint256 */\n      dup1\n        /* \"Buy_ERupee.sol\":3490:3507  uint256 _RupeeNum */\n      0x00\n        /* \"Buy_ERupee.sol\":3518:3527  _division */\n      dup4\n        /* \"Buy_ERupee.sol\":3510:3515  _num1 */\n      dup6\n        /* \"Buy_ERupee.sol\":3510:3527  _num1 / _division */\n      tag_212\n      swap2\n      swap1\n      tag_135\n      jump\t// in\n    tag_212:\n        /* \"Buy_ERupee.sol\":3490:3527  uint256 _RupeeNum = _num1 / _division */\n      swap1\n      pop\n        /* \"Buy_ERupee.sol\":3552:3561  _division */\n      dup4\n        /* \"Buy_ERupee.sol\":3544:3549  _num1 */\n      dup6\n        /* \"Buy_ERupee.sol\":3544:3561  _num1 % _division */\n      tag_213\n      swap2\n      swap1\n      tag_214\n      jump\t// in\n    tag_213:\n        /* \"Buy_ERupee.sol\":3537:3541  _num */\n      0x16\n        /* \"Buy_ERupee.sol\":3537:3561  _num = _num1 % _division */\n      dup2\n      swap1\n      sstore\n      pop\n        /* \"Buy_ERupee.sol\":3579:3588  _RupeeNum */\n      dup1\n        /* \"Buy_ERupee.sol\":3590:3594  _num */\n      sload(0x16)\n        /* \"Buy_ERupee.sol\":3571:3595  return (_RupeeNum, _num) */\n      swap3\n      pop\n      swap3\n      pop\n      pop\n        /* \"Buy_ERupee.sol\":3367:3602  function noteCalculation(uint256 _num1, uint256 _division)... */\n      swap3\n      pop\n      swap3\n      swap1\n      pop\n      jump\t// out\n        /* \"Buy_ERupee.sol\":589:625  address public twenty_Rupee_contract */\n    tag_61:\n      0x04\n      0x00\n      swap1\n      sload\n      swap1\n      0x0100\n      exp\n      swap1\n      div\n      0xffffffffffffffffffffffffffffffffffffffff\n      and\n      dup2\n      jump\t// out\n        /* \"Buy_ERupee.sol\":471:504  address public two_Rupee_contract */\n    tag_64:\n      0x01\n      0x00\n      swap1\n      sload\n      swap1\n      0x0100\n      exp\n      swap1\n      div\n      0xffffffffffffffffffffffffffffffffffffffff\n      and\n      dup2\n      jump\t// out\n        /* \"Buy_ERupee.sol\":766:808  address public five_hundred_Rupee_contract */\n    tag_67:\n      0x08\n      0x00\n      swap1\n      sload\n      swap1\n      0x0100\n      exp\n      swap1\n      div\n      0xffffffffffffffffffffffffffffffffffffffff\n      and\n      dup2\n      jump\t// out\n        /* \"Buy_ERupee.sol\":897:928  uint256 public _5RupeeCount = 0 */\n    tag_70:\n      sload(0x13)\n      dup2\n      jump\t// out\n        /* \"Buy_ERupee.sol\":550:583  address public ten_Rupee_contract */\n    tag_73:\n      0x03\n      0x00\n      swap1\n      sload\n      swap1\n      0x0100\n      exp\n      swap1\n      div\n      0xffffffffffffffffffffffffffffffffffffffff\n      and\n      dup2\n      jump\t// out\n        /* \"Buy_ERupee.sol\":814:849  address public rupee_contract_ERC20 */\n    tag_76:\n      0x09\n      0x00\n      swap1\n      sload\n      swap1\n      0x0100\n      exp\n      swap1\n      div\n      0xffffffffffffffffffffffffffffffffffffffff\n      and\n      dup2\n      jump\t// out\n        /* \"Buy_ERupee.sol\":934:962  uint256 public _10RupeeCount */\n    tag_79:\n      sload(0x14)\n      dup2\n      jump\t// out\n        /* \"Buy_ERupee.sol\":1002:1021  uint256 public _num */\n    tag_82:\n      sload(0x16)\n      dup2\n      jump\t// out\n        /* \"Buy_ERupee.sol\":1027:1078  mapping(address => uint256) public userFundsMapping */\n    tag_86:\n      mstore(0x20, 0x17)\n      dup1\n      0x00\n      mstore\n      keccak256(0x00, 0x40)\n      0x00\n      swap2\n      pop\n      swap1\n      pop\n      sload\n      dup2\n      jump\t// out\n        /* \"Buy_ERupee.sol\":1571:3113  function setContracts() external onlyOwner returns (bool) {... */\n    tag_89:\n        /* \"Buy_ERupee.sol\":1623:1627  bool */\n      0x00\n        /* \"Buy_ERupee.sol\":1318:1328  msg.sender */\n      caller\n        /* \"Buy_ERupee.sol\":1308:1328  _owner == msg.sender */\n      0xffffffffffffffffffffffffffffffffffffffff\n      and\n        /* \"Buy_ERupee.sol\":1308:1314  _owner */\n      immutable(\"0xe41a685dc3df81383d452481451b89eb3f69781b836c19936fa9714a13d1c9c2\")\n        /* \"Buy_ERupee.sol\":1308:1328  _owner == msg.sender */\n      0xffffffffffffffffffffffffffffffffffffffff\n      and\n      eq\n        /* \"Buy_ERupee.sol\":1300:1360  require(_owner == msg.sender, \"can only be called by owner\") */\n      tag_216\n      jumpi\n      mload(0x40)\n      0x08c379a000000000000000000000000000000000000000000000000000000000\n      dup2\n      mstore\n      0x04\n      add\n      tag_217\n      swap1\n      tag_115\n      jump\t// in\n    tag_217:\n      mload(0x40)\n      dup1\n      swap2\n      sub\n      swap1\n      revert\n    tag_216:\n        /* \"Buy_ERupee.sol\":2081:2096  address _1Rupee */\n      0x00\n        /* \"Buy_ERupee.sol\":2099:2141  0x27f2db78389654B645D3015Cce02D0EF571b2b89 */\n      0x27f2db78389654b645d3015cce02d0ef571b2b89\n        /* \"Buy_ERupee.sol\":2081:2141  address _1Rupee = 0x27f2db78389654B645D3015Cce02D0EF571b2b89 */\n      swap1\n      pop\n        /* \"Buy_ERupee.sol\":2151:2166  address _2Rupee */\n      0x00\n        /* \"Buy_ERupee.sol\":2169:2211  0x15c15bB162D31cD58890Df3b4A38B59bD64d999c */\n      0x15c15bb162d31cd58890df3b4a38b59bd64d999c\n        /* \"Buy_ERupee.sol\":2151:2211  address _2Rupee = 0x15c15bB162D31cD58890Df3b4A38B59bD64d999c */\n      swap1\n      pop\n        /* \"Buy_ERupee.sol\":2221:2236  address _5Rupee */\n      0x00\n        /* \"Buy_ERupee.sol\":2239:2281  0x49309576194e07A8D38078346783125Aa2c38B38 */\n      0x49309576194e07a8d38078346783125aa2c38b38\n        /* \"Buy_ERupee.sol\":2221:2281  address _5Rupee = 0x49309576194e07A8D38078346783125Aa2c38B38 */\n      swap1\n      pop\n        /* \"Buy_ERupee.sol\":2291:2307  address _10Rupee */\n      0x00\n        /* \"Buy_ERupee.sol\":2310:2352  0xd9df6aCac6E676293f8C592DE2b5b6b9dB962ed9 */\n      0xd9df6acac6e676293f8c592de2b5b6b9db962ed9\n        /* \"Buy_ERupee.sol\":2291:2352  address _10Rupee = 0xd9df6aCac6E676293f8C592DE2b5b6b9dB962ed9 */\n      swap1\n      pop\n        /* \"Buy_ERupee.sol\":2362:2378  address _20Rupee */\n      0x00\n        /* \"Buy_ERupee.sol\":2381:2423  0x490E7110FFDFBdA02fB9144cb20D03303dF2f825 */\n      0x490e7110ffdfbda02fb9144cb20d03303df2f825\n        /* \"Buy_ERupee.sol\":2362:2423  address _20Rupee = 0x490E7110FFDFBdA02fB9144cb20D03303dF2f825 */\n      swap1\n      pop\n        /* \"Buy_ERupee.sol\":2433:2449  address _50Rupee */\n      0x00\n        /* \"Buy_ERupee.sol\":2452:2494  0xfc71D3049Cdc12dcb30292D2CB9c7d154A8f6940 */\n      0xfc71d3049cdc12dcb30292d2cb9c7d154a8f6940\n        /* \"Buy_ERupee.sol\":2433:2494  address _50Rupee = 0xfc71D3049Cdc12dcb30292D2CB9c7d154A8f6940 */\n      swap1\n      pop\n        /* \"Buy_ERupee.sol\":2504:2521  address _100Rupee */\n      0x00\n        /* \"Buy_ERupee.sol\":2524:2566  0xacC26DD287683Db3a4350d352F10105bB652E1dC */\n      0xacc26dd287683db3a4350d352f10105bb652e1dc\n        /* \"Buy_ERupee.sol\":2504:2566  address _100Rupee = 0xacC26DD287683Db3a4350d352F10105bB652E1dC */\n      swap1\n      pop\n        /* \"Buy_ERupee.sol\":2576:2593  address _200Rupee */\n      0x00\n        /* \"Buy_ERupee.sol\":2596:2638  0xd1e69de132D8A0b3a5Ab60cb196E365442f777b9 */\n      0xd1e69de132d8a0b3a5ab60cb196e365442f777b9\n        /* \"Buy_ERupee.sol\":2576:2638  address _200Rupee = 0xd1e69de132D8A0b3a5Ab60cb196E365442f777b9 */\n      swap1\n      pop\n        /* \"Buy_ERupee.sol\":2648:2665  address _500Rupee */\n      0x00\n        /* \"Buy_ERupee.sol\":2668:2710  0x98f0B2F27B5e4304b42d9b77f0E594Fc001F19BD */\n      0x98f0b2f27b5e4304b42d9b77f0e594fc001f19bd\n        /* \"Buy_ERupee.sol\":2648:2710  address _500Rupee = 0x98f0B2F27B5e4304b42d9b77f0E594Fc001F19BD */\n      swap1\n      pop\n        /* \"Buy_ERupee.sol\":2720:2748  address _rupeeContract_ERC20 */\n      0x00\n        /* \"Buy_ERupee.sol\":2751:2793  0xC348a698ffA8600b58d6F52C6b112B4A7823E8fc */\n      0xc348a698ffa8600b58d6f52c6b112b4a7823e8fc\n        /* \"Buy_ERupee.sol\":2720:2793  address _rupeeContract_ERC20 = 0xC348a698ffA8600b58d6F52C6b112B4A7823E8fc */\n      swap1\n      pop\n        /* \"Buy_ERupee.sol\":2826:2846  _rupeeContract_ERC20 */\n      dup1\n        /* \"Buy_ERupee.sol\":2803:2823  rupee_contract_ERC20 */\n      0x09\n      0x00\n        /* \"Buy_ERupee.sol\":2803:2846  rupee_contract_ERC20 = _rupeeContract_ERC20 */\n      0x0100\n      exp\n      dup2\n      sload\n      dup2\n      0xffffffffffffffffffffffffffffffffffffffff\n      mul\n      not\n      and\n      swap1\n      dup4\n      0xffffffffffffffffffffffffffffffffffffffff\n      and\n      mul\n      or\n      swap1\n      sstore\n      pop\n        /* \"Buy_ERupee.sol\":2856:3085  _rupeeContractList = [... */\n      mload(0x40)\n      dup1\n      0x0120\n      add\n      0x40\n      mstore\n      dup1\n        /* \"Buy_ERupee.sol\":2891:2900  _500Rupee */\n      dup4\n        /* \"Buy_ERupee.sol\":2856:3085  _rupeeContractList = [... */\n      0xffffffffffffffffffffffffffffffffffffffff\n      and\n      0xffffffffffffffffffffffffffffffffffffffff\n      and\n      dup2\n      mstore\n      0x20\n      add\n        /* \"Buy_ERupee.sol\":2914:2923  _200Rupee */\n      dup5\n        /* \"Buy_ERupee.sol\":2856:3085  _rupeeContractList = [... */\n      0xffffffffffffffffffffffffffffffffffffffff\n      and\n      0xffffffffffffffffffffffffffffffffffffffff\n      and\n      dup2\n      mstore\n      0x20\n      add\n        /* \"Buy_ERupee.sol\":2937:2946  _100Rupee */\n      dup6\n        /* \"Buy_ERupee.sol\":2856:3085  _rupeeContractList = [... */\n      0xffffffffffffffffffffffffffffffffffffffff\n      and\n      0xffffffffffffffffffffffffffffffffffffffff\n      and\n      dup2\n      mstore\n      0x20\n      add\n        /* \"Buy_ERupee.sol\":2960:2968  _50Rupee */\n      dup7\n        /* \"Buy_ERupee.sol\":2856:3085  _rupeeContractList = [... */\n      0xffffffffffffffffffffffffffffffffffffffff\n      and\n      0xffffffffffffffffffffffffffffffffffffffff\n      and\n      dup2\n      mstore\n      0x20\n      add\n        /* \"Buy_ERupee.sol\":2982:2990  _20Rupee */\n      dup8\n        /* \"Buy_ERupee.sol\":2856:3085  _rupeeContractList = [... */\n      0xffffffffffffffffffffffffffffffffffffffff\n      and\n      0xffffffffffffffffffffffffffffffffffffffff\n      and\n      dup2\n      mstore\n      0x20\n      add\n        /* \"Buy_ERupee.sol\":3004:3012  _10Rupee */\n      dup9\n        /* \"Buy_ERupee.sol\":2856:3085  _rupeeContractList = [... */\n      0xffffffffffffffffffffffffffffffffffffffff\n      and\n      0xffffffffffffffffffffffffffffffffffffffff\n      and\n      dup2\n      mstore\n      0x20\n      add\n        /* \"Buy_ERupee.sol\":3026:3033  _5Rupee */\n      dup10\n        /* \"Buy_ERupee.sol\":2856:3085  _rupeeContractList = [... */\n      0xffffffffffffffffffffffffffffffffffffffff\n      and\n      0xffffffffffffffffffffffffffffffffffffffff\n      and\n      dup2\n      mstore\n      0x20\n      add\n        /* \"Buy_ERupee.sol\":3047:3054  _2Rupee */\n      dup11\n        /* \"Buy_ERupee.sol\":2856:3085  _rupeeContractList = [... */\n      0xffffffffffffffffffffffffffffffffffffffff\n      and\n      0xffffffffffffffffffffffffffffffffffffffff\n      and\n      dup2\n      mstore\n      0x20\n      add\n        /* \"Buy_ERupee.sol\":3068:3075  _1Rupee */\n      dup12\n        /* \"Buy_ERupee.sol\":2856:3085  _rupeeContractList = [... */\n      0xffffffffffffffffffffffffffffffffffffffff\n      and\n      0xffffffffffffffffffffffffffffffffffffffff\n      and\n      dup2\n      mstore\n      pop\n        /* \"Buy_ERupee.sol\":2856:2874  _rupeeContractList */\n      0x0a\n        /* \"Buy_ERupee.sol\":2856:3085  _rupeeContractList = [... */\n      swap1\n      0x09\n      tag_219\n      swap3\n      swap2\n      swap1\n      tag_220\n      jump\t// in\n    tag_219:\n      pop\n        /* \"Buy_ERupee.sol\":3102:3106  true */\n      0x01\n        /* \"Buy_ERupee.sol\":3095:3106  return true */\n      swap11\n      pop\n      pop\n      pop\n      pop\n      pop\n      pop\n      pop\n      pop\n      pop\n      pop\n      pop\n        /* \"Buy_ERupee.sol\":1571:3113  function setContracts() external onlyOwner returns (bool) {... */\n      swap1\n      jump\t// out\n        /* \"Buy_ERupee.sol\":968:996  uint256 public _20RupeeCount */\n    tag_92:\n      sload(0x15)\n      dup2\n      jump\t// out\n        /* \"Buy_ERupee.sol\":855:891  address[9] public _rupeeContractList */\n    tag_97:\n      0x0a\n      dup2\n      0x09\n      dup2\n      lt\n      tag_221\n      jumpi\n      0x00\n      dup1\n      revert\n    tag_221:\n      add\n      0x00\n      swap2\n      pop\n      sload\n      swap1\n      0x0100\n      exp\n      swap1\n      div\n      0xffffffffffffffffffffffffffffffffffffffff\n      and\n      dup2\n      jump\t// out\n        /* \"Buy_ERupee.sol\":672:713  address public one_hundred_Rupee_contract */\n    tag_100:\n      0x06\n      0x00\n      swap1\n      sload\n      swap1\n      0x0100\n      exp\n      swap1\n      div\n      0xffffffffffffffffffffffffffffffffffffffff\n      and\n      dup2\n      jump\t// out\n        /* \"Buy_ERupee.sol\":3608:4416  function buy_With_note_denominations(uint256 _amount) external {... */\n    tag_104:\n        /* \"Buy_ERupee.sol\":3681:3712  uint256[9] memory userNoteCount */\n      tag_224\n      tag_128\n      jump\t// in\n    tag_224:\n        /* \"Buy_ERupee.sol\":3722:3743  IERC20 _rupeeContract */\n      0x00\n        /* \"Buy_ERupee.sol\":3753:3773  rupee_contract_ERC20 */\n      0x09\n      0x00\n      swap1\n      sload\n      swap1\n      0x0100\n      exp\n      swap1\n      div\n      0xffffffffffffffffffffffffffffffffffffffff\n      and\n        /* \"Buy_ERupee.sol\":3722:3774  IERC20 _rupeeContract = IERC20(rupee_contract_ERC20) */\n      swap1\n      pop\n        /* \"Buy_ERupee.sol\":3784:3798  _rupeeContract */\n      dup1\n        /* \"Buy_ERupee.sol\":3784:3811  _rupeeContract.transferFrom */\n      0xffffffffffffffffffffffffffffffffffffffff\n      and\n      0x23b872dd\n        /* \"Buy_ERupee.sol\":3812:3822  msg.sender */\n      caller\n        /* \"Buy_ERupee.sol\":3832:3836  this */\n      address\n        /* \"Buy_ERupee.sol\":3839:3846  _amount */\n      dup7\n        /* \"Buy_ERupee.sol\":3784:3847  _rupeeContract.transferFrom(msg.sender, address(this), _amount) */\n      mload(0x40)\n      dup5\n      0xffffffff\n      and\n      0xe0\n      shl\n      dup2\n      mstore\n      0x04\n      add\n      tag_225\n      swap4\n      swap3\n      swap2\n      swap1\n      tag_226\n      jump\t// in\n    tag_225:\n      0x20\n      mload(0x40)\n      dup1\n      dup4\n      sub\n      dup2\n      0x00\n      dup8\n      gas\n      call\n      iszero\n      dup1\n      iszero\n      tag_228\n      jumpi\n      returndatasize\n      0x00\n      dup1\n      returndatacopy\n      revert(0x00, returndatasize)\n    tag_228:\n      pop\n      pop\n      pop\n      pop\n      mload(0x40)\n      returndatasize\n      not(0x1f)\n      0x1f\n      dup3\n      add\n      and\n      dup3\n      add\n      dup1\n      0x40\n      mstore\n      pop\n      dup2\n      add\n      swap1\n      tag_229\n      swap2\n      swap1\n      tag_230\n      jump\t// in\n    tag_229:\n      pop\n        /* \"Buy_ERupee.sol\":3857:3870  uint256 _num1 */\n      0x00\n        /* \"Buy_ERupee.sol\":3884:3890  10**18 */\n      0x0de0b6b3a7640000\n        /* \"Buy_ERupee.sol\":3873:3880  _amount */\n      dup5\n        /* \"Buy_ERupee.sol\":3873:3891  _amount / (10**18) */\n      tag_231\n      swap2\n      swap1\n      tag_135\n      jump\t// in\n    tag_231:\n        /* \"Buy_ERupee.sol\":3857:3891  uint256 _num1 = _amount / (10**18) */\n      swap1\n      pop\n        /* \"Buy_ERupee.sol\":3907:3916  uint256 k */\n      0x00\n        /* \"Buy_ERupee.sol\":3902:4086  for (uint256 k = 0; k < 9; k++) {... */\n    tag_232:\n        /* \"Buy_ERupee.sol\":3926:3927  9 */\n      0x09\n        /* \"Buy_ERupee.sol\":3922:3923  k */\n      dup2\n        /* \"Buy_ERupee.sol\":3922:3927  k < 9 */\n      lt\n        /* \"Buy_ERupee.sol\":3902:4086  for (uint256 k = 0; k < 9; k++) {... */\n      iszero\n      tag_233\n      jumpi\n        /* \"Buy_ERupee.sol\":3948:3960  uint256 temp */\n      0x00\n        /* \"Buy_ERupee.sol\":3995:4037  noteCalculation(_num1, denominationArr[k]) */\n      tag_235\n        /* \"Buy_ERupee.sol\":4011:4016  _num1 */\n      dup4\n        /* \"Buy_ERupee.sol\":4018:4033  denominationArr */\n      0x19\n        /* \"Buy_ERupee.sol\":4034:4035  k */\n      dup5\n        /* \"Buy_ERupee.sol\":4018:4036  denominationArr[k] */\n      dup2\n      sload\n      dup2\n      lt\n      tag_236\n      jumpi\n      tag_237\n      tag_142\n      jump\t// in\n    tag_237:\n    tag_236:\n      swap1\n      0x00\n      mstore\n      keccak256(0x00, 0x20)\n      add\n      sload\n        /* \"Buy_ERupee.sol\":3995:4010  noteCalculation */\n      tag_57\n        /* \"Buy_ERupee.sol\":3995:4037  noteCalculation(_num1, denominationArr[k]) */\n      jump\t// in\n    tag_235:\n        /* \"Buy_ERupee.sol\":3978:4038  (temp, _num1) = (noteCalculation(_num1, denominationArr[k])) */\n      dup1\n      swap5\n      pop\n      dup2\n      swap3\n      pop\n      pop\n      pop\n        /* \"Buy_ERupee.sol\":4071:4075  temp */\n      dup1\n        /* \"Buy_ERupee.sol\":4052:4065  userNoteCount */\n      dup6\n        /* \"Buy_ERupee.sol\":4066:4067  k */\n      dup4\n        /* \"Buy_ERupee.sol\":4052:4068  userNoteCount[k] */\n      0x09\n      dup2\n      lt\n      tag_239\n      jumpi\n      tag_240\n      tag_142\n      jump\t// in\n    tag_240:\n    tag_239:\n      0x20\n      mul\n      add\n        /* \"Buy_ERupee.sol\":4052:4075  userNoteCount[k] = temp */\n      dup2\n      dup2\n      mstore\n      pop\n      pop\n        /* \"Buy_ERupee.sol\":3934:4086  {... */\n      pop\n        /* \"Buy_ERupee.sol\":3929:3932  k++ */\n      dup1\n      dup1\n      tag_241\n      swap1\n      tag_147\n      jump\t// in\n    tag_241:\n      swap2\n      pop\n      pop\n        /* \"Buy_ERupee.sol\":3902:4086  for (uint256 k = 0; k < 9; k++) {... */\n      jump(tag_232)\n    tag_233:\n      pop\n        /* \"Buy_ERupee.sol\":4096:4105  uint256 i */\n      0x00\n        /* \"Buy_ERupee.sol\":4119:4361  for (i = 0; i < 9; i++) {... */\n    tag_242:\n        /* \"Buy_ERupee.sol\":4135:4136  9 */\n      0x09\n        /* \"Buy_ERupee.sol\":4131:4132  i */\n      dup2\n        /* \"Buy_ERupee.sol\":4131:4136  i < 9 */\n      lt\n        /* \"Buy_ERupee.sol\":4119:4361  for (i = 0; i < 9; i++) {... */\n      iszero\n      tag_243\n      jumpi\n        /* \"Buy_ERupee.sol\":4162:4171  uint256 j */\n      0x00\n        /* \"Buy_ERupee.sol\":4157:4351  for (uint256 j = 0; j < userNoteCount[i]; j++) {... */\n    tag_245:\n        /* \"Buy_ERupee.sol\":4181:4194  userNoteCount */\n      dup5\n        /* \"Buy_ERupee.sol\":4195:4196  i */\n      dup3\n        /* \"Buy_ERupee.sol\":4181:4197  userNoteCount[i] */\n      0x09\n      dup2\n      lt\n      tag_248\n      jumpi\n      tag_249\n      tag_142\n      jump\t// in\n    tag_249:\n    tag_248:\n      0x20\n      mul\n      add\n      mload\n        /* \"Buy_ERupee.sol\":4177:4178  j */\n      dup2\n        /* \"Buy_ERupee.sol\":4177:4197  j < userNoteCount[i] */\n      lt\n        /* \"Buy_ERupee.sol\":4157:4351  for (uint256 j = 0; j < userNoteCount[i]; j++) {... */\n      iszero\n      tag_246\n      jumpi\n        /* \"Buy_ERupee.sol\":4222:4247  IMyToken __Rupee_contract */\n      0x00\n        /* \"Buy_ERupee.sol\":4259:4277  _rupeeContractList */\n      0x0a\n        /* \"Buy_ERupee.sol\":4278:4279  i */\n      dup4\n        /* \"Buy_ERupee.sol\":4259:4280  _rupeeContractList[i] */\n      0x09\n      dup2\n      lt\n      tag_250\n      jumpi\n      tag_251\n      tag_142\n      jump\t// in\n    tag_251:\n    tag_250:\n      add\n      0x00\n      swap1\n      sload\n      swap1\n      0x0100\n      exp\n      swap1\n      div\n      0xffffffffffffffffffffffffffffffffffffffff\n      and\n        /* \"Buy_ERupee.sol\":4222:4281  IMyToken __Rupee_contract = IMyToken(_rupeeContractList[i]) */\n      swap1\n      pop\n        /* \"Buy_ERupee.sol\":4299:4315  __Rupee_contract */\n      dup1\n        /* \"Buy_ERupee.sol\":4299:4324  __Rupee_contract.safeMint */\n      0xffffffffffffffffffffffffffffffffffffffff\n      and\n      0x40d097c3\n        /* \"Buy_ERupee.sol\":4325:4335  msg.sender */\n      caller\n        /* \"Buy_ERupee.sol\":4299:4336  __Rupee_contract.safeMint(msg.sender) */\n      mload(0x40)\n      dup3\n      0xffffffff\n      and\n      0xe0\n      shl\n      dup2\n      mstore\n      0x04\n      add\n      tag_253\n      swap2\n      swap1\n      tag_38\n      jump\t// in\n    tag_253:\n      0x00\n      mload(0x40)\n      dup1\n      dup4\n      sub\n      dup2\n      0x00\n      dup8\n      dup1\n      extcodesize\n      iszero\n      dup1\n      iszero\n      tag_254\n      jumpi\n      0x00\n      dup1\n      revert\n    tag_254:\n      pop\n      gas\n      call\n      iszero\n      dup1\n      iszero\n      tag_256\n      jumpi\n      returndatasize\n      0x00\n      dup1\n      returndatacopy\n      revert(0x00, returndatasize)\n    tag_256:\n      pop\n      pop\n      pop\n      pop\n        /* \"Buy_ERupee.sol\":4204:4351  {... */\n      pop\n        /* \"Buy_ERupee.sol\":4199:4202  j++ */\n      dup1\n      dup1\n      tag_257\n      swap1\n      tag_147\n      jump\t// in\n    tag_257:\n      swap2\n      pop\n      pop\n        /* \"Buy_ERupee.sol\":4157:4351  for (uint256 j = 0; j < userNoteCount[i]; j++) {... */\n      jump(tag_245)\n    tag_246:\n      pop\n        /* \"Buy_ERupee.sol\":4138:4141  i++ */\n      dup1\n      dup1\n      tag_258\n      swap1\n      tag_147\n      jump\t// in\n    tag_258:\n      swap2\n      pop\n      pop\n        /* \"Buy_ERupee.sol\":4119:4361  for (i = 0; i < 9; i++) {... */\n      jump(tag_242)\n    tag_243:\n        /* \"Buy_ERupee.sol\":4402:4409  _amount */\n      dup5\n        /* \"Buy_ERupee.sol\":4370:4386  userFundsMapping */\n      0x17\n        /* \"Buy_ERupee.sol\":4370:4398  userFundsMapping[msg.sender] */\n      0x00\n        /* \"Buy_ERupee.sol\":4387:4397  msg.sender */\n      caller\n        /* \"Buy_ERupee.sol\":4370:4398  userFundsMapping[msg.sender] */\n      0xffffffffffffffffffffffffffffffffffffffff\n      and\n      0xffffffffffffffffffffffffffffffffffffffff\n      and\n      dup2\n      mstore\n      0x20\n      add\n      swap1\n      dup2\n      mstore\n      0x20\n      add\n      0x00\n      keccak256\n      0x00\n        /* \"Buy_ERupee.sol\":4370:4409  userFundsMapping[msg.sender] += _amount */\n      dup3\n      dup3\n      sload\n      tag_259\n      swap2\n      swap1\n      tag_133\n      jump\t// in\n    tag_259:\n      swap3\n      pop\n      pop\n      dup2\n      swap1\n      sstore\n      pop\n        /* \"Buy_ERupee.sol\":3671:4416  {... */\n      pop\n      pop\n      pop\n      pop\n        /* \"Buy_ERupee.sol\":3608:4416  function buy_With_note_denominations(uint256 _amount) external {... */\n      pop\n      jump\t// out\n        /* \"Buy_ERupee.sol\":719:760  address public two_hundred_Rupee_contract */\n    tag_106:\n      0x07\n      0x00\n      swap1\n      sload\n      swap1\n      0x0100\n      exp\n      swap1\n      div\n      0xffffffffffffffffffffffffffffffffffffffff\n      and\n      dup2\n      jump\t// out\n        /* \"Buy_ERupee.sol\":432:465  address public one_Rupee_contract */\n    tag_109:\n      0x00\n      dup1\n      sload\n      swap1\n      0x0100\n      exp\n      swap1\n      div\n      0xffffffffffffffffffffffffffffffffffffffff\n      and\n      dup2\n      jump\t// out\n        /* \"Buy_ERupee.sol\":4422:4782  function fetchUserNotes(address _user)... */\n    tag_126:\n        /* \"Buy_ERupee.sol\":4495:4512  uint256[9] memory */\n      tag_260\n      tag_128\n      jump\t// in\n    tag_260:\n        /* \"Buy_ERupee.sol\":4528:4555  uint256[9] memory _availArr */\n      tag_262\n      tag_128\n      jump\t// in\n    tag_262:\n        /* \"Buy_ERupee.sol\":4570:4579  uint256 i */\n      0x00\n        /* \"Buy_ERupee.sol\":4565:4750  for (uint256 i = 0; i < 9; i++) {... */\n    tag_263:\n        /* \"Buy_ERupee.sol\":4589:4590  9 */\n      0x09\n        /* \"Buy_ERupee.sol\":4585:4586  i */\n      dup2\n        /* \"Buy_ERupee.sol\":4585:4590  i < 9 */\n      lt\n        /* \"Buy_ERupee.sol\":4565:4750  for (uint256 i = 0; i < 9; i++) {... */\n      iszero\n      tag_264\n      jumpi\n        /* \"Buy_ERupee.sol\":4611:4636  IMyToken __Rupee_contract */\n      0x00\n        /* \"Buy_ERupee.sol\":4648:4666  _rupeeContractList */\n      0x0a\n        /* \"Buy_ERupee.sol\":4667:4668  i */\n      dup3\n        /* \"Buy_ERupee.sol\":4648:4669  _rupeeContractList[i] */\n      0x09\n      dup2\n      lt\n      tag_266\n      jumpi\n      tag_267\n      tag_142\n      jump\t// in\n    tag_267:\n    tag_266:\n      add\n      0x00\n      swap1\n      sload\n      swap1\n      0x0100\n      exp\n      swap1\n      div\n      0xffffffffffffffffffffffffffffffffffffffff\n      and\n        /* \"Buy_ERupee.sol\":4611:4670  IMyToken __Rupee_contract = IMyToken(_rupeeContractList[i]) */\n      swap1\n      pop\n        /* \"Buy_ERupee.sol\":4699:4715  __Rupee_contract */\n      dup1\n        /* \"Buy_ERupee.sol\":4699:4732  __Rupee_contract.return_num_notes */\n      0xffffffffffffffffffffffffffffffffffffffff\n      and\n      0x83e38d3b\n        /* \"Buy_ERupee.sol\":4733:4738  _user */\n      dup7\n        /* \"Buy_ERupee.sol\":4699:4739  __Rupee_contract.return_num_notes(_user) */\n      mload(0x40)\n      dup3\n      0xffffffff\n      and\n      0xe0\n      shl\n      dup2\n      mstore\n      0x04\n      add\n      tag_269\n      swap2\n      swap1\n      tag_38\n      jump\t// in\n    tag_269:\n      0x20\n      mload(0x40)\n      dup1\n      dup4\n      sub\n      dup2\n      0x00\n      dup8\n      gas\n      call\n      iszero\n      dup1\n      iszero\n      tag_271\n      jumpi\n      returndatasize\n      0x00\n      dup1\n      returndatacopy\n      revert(0x00, returndatasize)\n    tag_271:\n      pop\n      pop\n      pop\n      pop\n      mload(0x40)\n      returndatasize\n      not(0x1f)\n      0x1f\n      dup3\n      add\n      and\n      dup3\n      add\n      dup1\n      0x40\n      mstore\n      pop\n      dup2\n      add\n      swap1\n      tag_272\n      swap2\n      swap1\n      tag_273\n      jump\t// in\n    tag_272:\n        /* \"Buy_ERupee.sol\":4684:4693  _availArr */\n      dup4\n        /* \"Buy_ERupee.sol\":4694:4695  i */\n      dup4\n        /* \"Buy_ERupee.sol\":4684:4696  _availArr[i] */\n      0x09\n      dup2\n      lt\n      tag_274\n      jumpi\n      tag_275\n      tag_142\n      jump\t// in\n    tag_275:\n    tag_274:\n      0x20\n      mul\n      add\n        /* \"Buy_ERupee.sol\":4684:4739  _availArr[i] = __Rupee_contract.return_num_notes(_user) */\n      dup2\n      dup2\n      mstore\n      pop\n      pop\n        /* \"Buy_ERupee.sol\":4597:4750  {... */\n      pop\n        /* \"Buy_ERupee.sol\":4592:4595  i++ */\n      dup1\n      dup1\n      tag_276\n      swap1\n      tag_147\n      jump\t// in\n    tag_276:\n      swap2\n      pop\n      pop\n        /* \"Buy_ERupee.sol\":4565:4750  for (uint256 i = 0; i < 9; i++) {... */\n      jump(tag_263)\n    tag_264:\n      pop\n        /* \"Buy_ERupee.sol\":4766:4775  _availArr */\n      dup1\n        /* \"Buy_ERupee.sol\":4759:4775  return _availArr */\n      swap2\n      pop\n      pop\n        /* \"Buy_ERupee.sol\":4422:4782  function fetchUserNotes(address _user)... */\n      swap2\n      swap1\n      pop\n      jump\t// out\n        /* \"Buy_ERupee.sol\":7373:8896  function sendNFT(... */\n    tag_210:\n        /* \"Buy_ERupee.sol\":7537:7546  uint256 i */\n      0x00\n        /* \"Buy_ERupee.sol\":7532:7792  for (uint256 i = 0; i < 9; i++) {... */\n    tag_278:\n        /* \"Buy_ERupee.sol\":7556:7557  9 */\n      0x09\n        /* \"Buy_ERupee.sol\":7552:7553  i */\n      dup2\n        /* \"Buy_ERupee.sol\":7552:7557  i < 9 */\n      lt\n        /* \"Buy_ERupee.sol\":7532:7792  for (uint256 i = 0; i < 9; i++) {... */\n      iszero\n      tag_279\n      jumpi\n        /* \"Buy_ERupee.sol\":7583:7592  uint256 j */\n      0x00\n        /* \"Buy_ERupee.sol\":7578:7782  for (uint256 j = 0; j < _transferArr[i]; j++) {... */\n    tag_281:\n        /* \"Buy_ERupee.sol\":7602:7614  _transferArr */\n      dup6\n        /* \"Buy_ERupee.sol\":7615:7616  i */\n      dup3\n        /* \"Buy_ERupee.sol\":7602:7617  _transferArr[i] */\n      0x09\n      dup2\n      lt\n      tag_284\n      jumpi\n      tag_285\n      tag_142\n      jump\t// in\n    tag_285:\n    tag_284:\n      0x20\n      mul\n      add\n      mload\n        /* \"Buy_ERupee.sol\":7598:7599  j */\n      dup2\n        /* \"Buy_ERupee.sol\":7598:7617  j < _transferArr[i] */\n      lt\n        /* \"Buy_ERupee.sol\":7578:7782  for (uint256 j = 0; j < _transferArr[i]; j++) {... */\n      iszero\n      tag_282\n      jumpi\n        /* \"Buy_ERupee.sol\":7642:7667  IMyToken __Rupee_contract */\n      0x00\n        /* \"Buy_ERupee.sol\":7679:7697  _rupeeContractList */\n      0x0a\n        /* \"Buy_ERupee.sol\":7698:7699  i */\n      dup4\n        /* \"Buy_ERupee.sol\":7679:7700  _rupeeContractList[i] */\n      0x09\n      dup2\n      lt\n      tag_286\n      jumpi\n      tag_287\n      tag_142\n      jump\t// in\n    tag_287:\n    tag_286:\n      add\n      0x00\n      swap1\n      sload\n      swap1\n      0x0100\n      exp\n      swap1\n      div\n      0xffffffffffffffffffffffffffffffffffffffff\n      and\n        /* \"Buy_ERupee.sol\":7642:7701  IMyToken __Rupee_contract = IMyToken(_rupeeContractList[i]) */\n      swap1\n      pop\n        /* \"Buy_ERupee.sol\":7719:7735  __Rupee_contract */\n      dup1\n        /* \"Buy_ERupee.sol\":7719:7750  __Rupee_contract.transfer_rupee */\n      0xffffffffffffffffffffffffffffffffffffffff\n      and\n      0x83c587df\n        /* \"Buy_ERupee.sol\":7751:7761  msg.sender */\n      caller\n        /* \"Buy_ERupee.sol\":7763:7766  _to */\n      dup9\n        /* \"Buy_ERupee.sol\":7719:7767  __Rupee_contract.transfer_rupee(msg.sender, _to) */\n      mload(0x40)\n      dup4\n      0xffffffff\n      and\n      0xe0\n      shl\n      dup2\n      mstore\n      0x04\n      add\n      tag_289\n      swap3\n      swap2\n      swap1\n      tag_202\n      jump\t// in\n    tag_289:\n      0x00\n      mload(0x40)\n      dup1\n      dup4\n      sub\n      dup2\n      0x00\n      dup8\n      dup1\n      extcodesize\n      iszero\n      dup1\n      iszero\n      tag_290\n      jumpi\n      0x00\n      dup1\n      revert\n    tag_290:\n      pop\n      gas\n      call\n      iszero\n      dup1\n      iszero\n      tag_292\n      jumpi\n      returndatasize\n      0x00\n      dup1\n      returndatacopy\n      revert(0x00, returndatasize)\n    tag_292:\n      pop\n      pop\n      pop\n      pop\n        /* \"Buy_ERupee.sol\":7624:7782  {... */\n      pop\n        /* \"Buy_ERupee.sol\":7619:7622  j++ */\n      dup1\n      dup1\n      tag_293\n      swap1\n      tag_147\n      jump\t// in\n    tag_293:\n      swap2\n      pop\n      pop\n        /* \"Buy_ERupee.sol\":7578:7782  for (uint256 j = 0; j < _transferArr[i]; j++) {... */\n      jump(tag_281)\n    tag_282:\n      pop\n        /* \"Buy_ERupee.sol\":7559:7562  i++ */\n      dup1\n      dup1\n      tag_294\n      swap1\n      tag_147\n      jump\t// in\n    tag_294:\n      swap2\n      pop\n      pop\n        /* \"Buy_ERupee.sol\":7532:7792  for (uint256 i = 0; i < 9; i++) {... */\n      jump(tag_278)\n    tag_279:\n      pop\n        /* \"Buy_ERupee.sol\":7802:7815  uint256 _num1 */\n      0x00\n        /* \"Buy_ERupee.sol\":7818:7827  _rem_mint */\n      dup3\n        /* \"Buy_ERupee.sol\":7802:7827  uint256 _num1 = _rem_mint */\n      swap1\n      pop\n        /* \"Buy_ERupee.sol\":7837:7850  uint256 _num2 */\n      0x00\n        /* \"Buy_ERupee.sol\":7853:7864  _rem_change */\n      dup3\n        /* \"Buy_ERupee.sol\":7837:7864  uint256 _num2 = _rem_change */\n      swap1\n      pop\n        /* \"Buy_ERupee.sol\":7874:7911  uint256[9] memory NoteNeeded_rem_mint */\n      tag_295\n      tag_128\n      jump\t// in\n    tag_295:\n        /* \"Buy_ERupee.sol\":7921:7960  uint256[9] memory NoteNeeded_rem_change */\n      tag_296\n      tag_128\n      jump\t// in\n    tag_296:\n        /* \"Buy_ERupee.sol\":7976:7985  uint256 k */\n      0x00\n        /* \"Buy_ERupee.sol\":7971:8161  for (uint256 k = 0; k < 9; k++) {... */\n    tag_297:\n        /* \"Buy_ERupee.sol\":7995:7996  9 */\n      0x09\n        /* \"Buy_ERupee.sol\":7991:7992  k */\n      dup2\n        /* \"Buy_ERupee.sol\":7991:7996  k < 9 */\n      lt\n        /* \"Buy_ERupee.sol\":7971:8161  for (uint256 k = 0; k < 9; k++) {... */\n      iszero\n      tag_298\n      jumpi\n        /* \"Buy_ERupee.sol\":8017:8029  uint256 temp */\n      0x00\n        /* \"Buy_ERupee.sol\":8064:8106  noteCalculation(_num1, denominationArr[k]) */\n      tag_300\n        /* \"Buy_ERupee.sol\":8080:8085  _num1 */\n      dup7\n        /* \"Buy_ERupee.sol\":8087:8102  denominationArr */\n      0x19\n        /* \"Buy_ERupee.sol\":8103:8104  k */\n      dup5\n        /* \"Buy_ERupee.sol\":8087:8105  denominationArr[k] */\n      dup2\n      sload\n      dup2\n      lt\n      tag_301\n      jumpi\n      tag_302\n      tag_142\n      jump\t// in\n    tag_302:\n    tag_301:\n      swap1\n      0x00\n      mstore\n      keccak256(0x00, 0x20)\n      add\n      sload\n        /* \"Buy_ERupee.sol\":8064:8079  noteCalculation */\n      tag_57\n        /* \"Buy_ERupee.sol\":8064:8106  noteCalculation(_num1, denominationArr[k]) */\n      jump\t// in\n    tag_300:\n        /* \"Buy_ERupee.sol\":8047:8107  (temp, _num1) = (noteCalculation(_num1, denominationArr[k])) */\n      dup1\n      swap8\n      pop\n      dup2\n      swap3\n      pop\n      pop\n      pop\n        /* \"Buy_ERupee.sol\":8146:8150  temp */\n      dup1\n        /* \"Buy_ERupee.sol\":8121:8140  NoteNeeded_rem_mint */\n      dup5\n        /* \"Buy_ERupee.sol\":8141:8142  k */\n      dup4\n        /* \"Buy_ERupee.sol\":8121:8143  NoteNeeded_rem_mint[k] */\n      0x09\n      dup2\n      lt\n      tag_304\n      jumpi\n      tag_305\n      tag_142\n      jump\t// in\n    tag_305:\n    tag_304:\n      0x20\n      mul\n      add\n        /* \"Buy_ERupee.sol\":8121:8150  NoteNeeded_rem_mint[k] = temp */\n      dup2\n      dup2\n      mstore\n      pop\n      pop\n        /* \"Buy_ERupee.sol\":8003:8161  {... */\n      pop\n        /* \"Buy_ERupee.sol\":7998:8001  k++ */\n      dup1\n      dup1\n      tag_306\n      swap1\n      tag_147\n      jump\t// in\n    tag_306:\n      swap2\n      pop\n      pop\n        /* \"Buy_ERupee.sol\":7971:8161  for (uint256 k = 0; k < 9; k++) {... */\n      jump(tag_297)\n    tag_298:\n      pop\n        /* \"Buy_ERupee.sol\":8176:8185  uint256 i */\n      0x00\n        /* \"Buy_ERupee.sol\":8171:8427  for (uint256 i = 0; i < 9; i++) {... */\n    tag_307:\n        /* \"Buy_ERupee.sol\":8195:8196  9 */\n      0x09\n        /* \"Buy_ERupee.sol\":8191:8192  i */\n      dup2\n        /* \"Buy_ERupee.sol\":8191:8196  i < 9 */\n      lt\n        /* \"Buy_ERupee.sol\":8171:8427  for (uint256 i = 0; i < 9; i++) {... */\n      iszero\n      tag_308\n      jumpi\n        /* \"Buy_ERupee.sol\":8222:8231  uint256 j */\n      0x00\n        /* \"Buy_ERupee.sol\":8217:8417  for (uint256 j = 0; j < NoteNeeded_rem_mint[i]; j++) {... */\n    tag_310:\n        /* \"Buy_ERupee.sol\":8241:8260  NoteNeeded_rem_mint */\n      dup4\n        /* \"Buy_ERupee.sol\":8261:8262  i */\n      dup3\n        /* \"Buy_ERupee.sol\":8241:8263  NoteNeeded_rem_mint[i] */\n      0x09\n      dup2\n      lt\n      tag_313\n      jumpi\n      tag_314\n      tag_142\n      jump\t// in\n    tag_314:\n    tag_313:\n      0x20\n      mul\n      add\n      mload\n        /* \"Buy_ERupee.sol\":8237:8238  j */\n      dup2\n        /* \"Buy_ERupee.sol\":8237:8263  j < NoteNeeded_rem_mint[i] */\n      lt\n        /* \"Buy_ERupee.sol\":8217:8417  for (uint256 j = 0; j < NoteNeeded_rem_mint[i]; j++) {... */\n      iszero\n      tag_311\n      jumpi\n        /* \"Buy_ERupee.sol\":8288:8313  IMyToken __Rupee_contract */\n      0x00\n        /* \"Buy_ERupee.sol\":8325:8343  _rupeeContractList */\n      0x0a\n        /* \"Buy_ERupee.sol\":8344:8345  i */\n      dup4\n        /* \"Buy_ERupee.sol\":8325:8346  _rupeeContractList[i] */\n      0x09\n      dup2\n      lt\n      tag_315\n      jumpi\n      tag_316\n      tag_142\n      jump\t// in\n    tag_316:\n    tag_315:\n      add\n      0x00\n      swap1\n      sload\n      swap1\n      0x0100\n      exp\n      swap1\n      div\n      0xffffffffffffffffffffffffffffffffffffffff\n      and\n        /* \"Buy_ERupee.sol\":8288:8347  IMyToken __Rupee_contract = IMyToken(_rupeeContractList[i]) */\n      swap1\n      pop\n        /* \"Buy_ERupee.sol\":8365:8381  __Rupee_contract */\n      dup1\n        /* \"Buy_ERupee.sol\":8365:8390  __Rupee_contract.safeMint */\n      0xffffffffffffffffffffffffffffffffffffffff\n      and\n      0x40d097c3\n        /* \"Buy_ERupee.sol\":8391:8401  msg.sender */\n      caller\n        /* \"Buy_ERupee.sol\":8365:8402  __Rupee_contract.safeMint(msg.sender) */\n      mload(0x40)\n      dup3\n      0xffffffff\n      and\n      0xe0\n      shl\n      dup2\n      mstore\n      0x04\n      add\n      tag_318\n      swap2\n      swap1\n      tag_38\n      jump\t// in\n    tag_318:\n      0x00\n      mload(0x40)\n      dup1\n      dup4\n      sub\n      dup2\n      0x00\n      dup8\n      dup1\n      extcodesize\n      iszero\n      dup1\n      iszero\n      tag_319\n      jumpi\n      0x00\n      dup1\n      revert\n    tag_319:\n      pop\n      gas\n      call\n      iszero\n      dup1\n      iszero\n      tag_321\n      jumpi\n      returndatasize\n      0x00\n      dup1\n      returndatacopy\n      revert(0x00, returndatasize)\n    tag_321:\n      pop\n      pop\n      pop\n      pop\n        /* \"Buy_ERupee.sol\":8270:8417  {... */\n      pop\n        /* \"Buy_ERupee.sol\":8265:8268  j++ */\n      dup1\n      dup1\n      tag_322\n      swap1\n      tag_147\n      jump\t// in\n    tag_322:\n      swap2\n      pop\n      pop\n        /* \"Buy_ERupee.sol\":8217:8417  for (uint256 j = 0; j < NoteNeeded_rem_mint[i]; j++) {... */\n      jump(tag_310)\n    tag_311:\n      pop\n        /* \"Buy_ERupee.sol\":8198:8201  i++ */\n      dup1\n      dup1\n      tag_323\n      swap1\n      tag_147\n      jump\t// in\n    tag_323:\n      swap2\n      pop\n      pop\n        /* \"Buy_ERupee.sol\":8171:8427  for (uint256 i = 0; i < 9; i++) {... */\n      jump(tag_307)\n    tag_308:\n      pop\n        /* \"Buy_ERupee.sol\":8442:8451  uint256 k */\n      0x00\n        /* \"Buy_ERupee.sol\":8437:8629  for (uint256 k = 0; k < 9; k++) {... */\n    tag_324:\n        /* \"Buy_ERupee.sol\":8461:8462  9 */\n      0x09\n        /* \"Buy_ERupee.sol\":8457:8458  k */\n      dup2\n        /* \"Buy_ERupee.sol\":8457:8462  k < 9 */\n      lt\n        /* \"Buy_ERupee.sol\":8437:8629  for (uint256 k = 0; k < 9; k++) {... */\n      iszero\n      tag_325\n      jumpi\n        /* \"Buy_ERupee.sol\":8483:8495  uint256 temp */\n      0x00\n        /* \"Buy_ERupee.sol\":8530:8572  noteCalculation(_num2, denominationArr[k]) */\n      tag_327\n        /* \"Buy_ERupee.sol\":8546:8551  _num2 */\n      dup6\n        /* \"Buy_ERupee.sol\":8553:8568  denominationArr */\n      0x19\n        /* \"Buy_ERupee.sol\":8569:8570  k */\n      dup5\n        /* \"Buy_ERupee.sol\":8553:8571  denominationArr[k] */\n      dup2\n      sload\n      dup2\n      lt\n      tag_328\n      jumpi\n      tag_329\n      tag_142\n      jump\t// in\n    tag_329:\n    tag_328:\n      swap1\n      0x00\n      mstore\n      keccak256(0x00, 0x20)\n      add\n      sload\n        /* \"Buy_ERupee.sol\":8530:8545  noteCalculation */\n      tag_57\n        /* \"Buy_ERupee.sol\":8530:8572  noteCalculation(_num2, denominationArr[k]) */\n      jump\t// in\n    tag_327:\n        /* \"Buy_ERupee.sol\":8513:8573  (temp, _num2) = (noteCalculation(_num2, denominationArr[k])) */\n      dup1\n      swap7\n      pop\n      dup2\n      swap3\n      pop\n      pop\n      pop\n        /* \"Buy_ERupee.sol\":8614:8618  temp */\n      dup1\n        /* \"Buy_ERupee.sol\":8587:8608  NoteNeeded_rem_change */\n      dup4\n        /* \"Buy_ERupee.sol\":8609:8610  k */\n      dup4\n        /* \"Buy_ERupee.sol\":8587:8611  NoteNeeded_rem_change[k] */\n      0x09\n      dup2\n      lt\n      tag_331\n      jumpi\n      tag_332\n      tag_142\n      jump\t// in\n    tag_332:\n    tag_331:\n      0x20\n      mul\n      add\n        /* \"Buy_ERupee.sol\":8587:8618  NoteNeeded_rem_change[k] = temp */\n      dup2\n      dup2\n      mstore\n      pop\n      pop\n        /* \"Buy_ERupee.sol\":8469:8629  {... */\n      pop\n        /* \"Buy_ERupee.sol\":8464:8467  k++ */\n      dup1\n      dup1\n      tag_333\n      swap1\n      tag_147\n      jump\t// in\n    tag_333:\n      swap2\n      pop\n      pop\n        /* \"Buy_ERupee.sol\":8437:8629  for (uint256 k = 0; k < 9; k++) {... */\n      jump(tag_324)\n    tag_325:\n      pop\n        /* \"Buy_ERupee.sol\":8644:8653  uint256 i */\n      0x00\n        /* \"Buy_ERupee.sol\":8639:8890  for (uint256 i = 0; i < 9; i++) {... */\n    tag_334:\n        /* \"Buy_ERupee.sol\":8663:8664  9 */\n      0x09\n        /* \"Buy_ERupee.sol\":8659:8660  i */\n      dup2\n        /* \"Buy_ERupee.sol\":8659:8664  i < 9 */\n      lt\n        /* \"Buy_ERupee.sol\":8639:8890  for (uint256 i = 0; i < 9; i++) {... */\n      iszero\n      tag_335\n      jumpi\n        /* \"Buy_ERupee.sol\":8690:8699  uint256 j */\n      0x00\n        /* \"Buy_ERupee.sol\":8685:8880  for (uint256 j = 0; j < NoteNeeded_rem_change[i]; j++) {... */\n    tag_337:\n        /* \"Buy_ERupee.sol\":8709:8730  NoteNeeded_rem_change */\n      dup3\n        /* \"Buy_ERupee.sol\":8731:8732  i */\n      dup3\n        /* \"Buy_ERupee.sol\":8709:8733  NoteNeeded_rem_change[i] */\n      0x09\n      dup2\n      lt\n      tag_340\n      jumpi\n      tag_341\n      tag_142\n      jump\t// in\n    tag_341:\n    tag_340:\n      0x20\n      mul\n      add\n      mload\n        /* \"Buy_ERupee.sol\":8705:8706  j */\n      dup2\n        /* \"Buy_ERupee.sol\":8705:8733  j < NoteNeeded_rem_change[i] */\n      lt\n        /* \"Buy_ERupee.sol\":8685:8880  for (uint256 j = 0; j < NoteNeeded_rem_change[i]; j++) {... */\n      iszero\n      tag_338\n      jumpi\n        /* \"Buy_ERupee.sol\":8758:8783  IMyToken __Rupee_contract */\n      0x00\n        /* \"Buy_ERupee.sol\":8795:8813  _rupeeContractList */\n      0x0a\n        /* \"Buy_ERupee.sol\":8814:8815  i */\n      dup4\n        /* \"Buy_ERupee.sol\":8795:8816  _rupeeContractList[i] */\n      0x09\n      dup2\n      lt\n      tag_342\n      jumpi\n      tag_343\n      tag_142\n      jump\t// in\n    tag_343:\n    tag_342:\n      add\n      0x00\n      swap1\n      sload\n      swap1\n      0x0100\n      exp\n      swap1\n      div\n      0xffffffffffffffffffffffffffffffffffffffff\n      and\n        /* \"Buy_ERupee.sol\":8758:8817  IMyToken __Rupee_contract = IMyToken(_rupeeContractList[i]) */\n      swap1\n      pop\n        /* \"Buy_ERupee.sol\":8835:8851  __Rupee_contract */\n      dup1\n        /* \"Buy_ERupee.sol\":8835:8860  __Rupee_contract.safeMint */\n      0xffffffffffffffffffffffffffffffffffffffff\n      and\n      0x40d097c3\n        /* \"Buy_ERupee.sol\":8861:8864  _to */\n      dup12\n        /* \"Buy_ERupee.sol\":8835:8865  __Rupee_contract.safeMint(_to) */\n      mload(0x40)\n      dup3\n      0xffffffff\n      and\n      0xe0\n      shl\n      dup2\n      mstore\n      0x04\n      add\n      tag_345\n      swap2\n      swap1\n      tag_38\n      jump\t// in\n    tag_345:\n      0x00\n      mload(0x40)\n      dup1\n      dup4\n      sub\n      dup2\n      0x00\n      dup8\n      dup1\n      extcodesize\n      iszero\n      dup1\n      iszero\n      tag_346\n      jumpi\n      0x00\n      dup1\n      revert\n    tag_346:\n      pop\n      gas\n      call\n      iszero\n      dup1\n      iszero\n      tag_348\n      jumpi\n      returndatasize\n      0x00\n      dup1\n      returndatacopy\n      revert(0x00, returndatasize)\n    tag_348:\n      pop\n      pop\n      pop\n      pop\n        /* \"Buy_ERupee.sol\":8740:8880  {... */\n      pop\n        /* \"Buy_ERupee.sol\":8735:8738  j++ */\n      dup1\n      dup1\n      tag_349\n      swap1\n      tag_147\n      jump\t// in\n    tag_349:\n      swap2\n      pop\n      pop\n        /* \"Buy_ERupee.sol\":8685:8880  for (uint256 j = 0; j < NoteNeeded_rem_change[i]; j++) {... */\n      jump(tag_337)\n    tag_338:\n      pop\n        /* \"Buy_ERupee.sol\":8666:8669  i++ */\n      dup1\n      dup1\n      tag_350\n      swap1\n      tag_147\n      jump\t// in\n    tag_350:\n      swap2\n      pop\n      pop\n        /* \"Buy_ERupee.sol\":8639:8890  for (uint256 i = 0; i < 9; i++) {... */\n      jump(tag_334)\n    tag_335:\n      pop\n        /* \"Buy_ERupee.sol\":7522:8896  {... */\n      pop\n      pop\n      pop\n      pop\n        /* \"Buy_ERupee.sol\":7373:8896  function sendNFT(... */\n      pop\n      pop\n      pop\n      pop\n      jump\t// out\n    tag_128:\n      mload(0x40)\n      dup1\n      0x0120\n      add\n      0x40\n      mstore\n      dup1\n      0x09\n      swap1\n      0x20\n      dup3\n      mul\n      dup1\n      calldatasize\n      dup4\n      calldatacopy\n      dup1\n      dup3\n      add\n      swap2\n      pop\n      pop\n      swap1\n      pop\n      pop\n      swap1\n      jump\t// out\n    tag_220:\n      dup3\n      0x09\n      dup2\n      add\n      swap3\n      dup3\n      iszero\n      tag_351\n      jumpi\n      swap2\n      0x20\n      mul\n      dup3\n      add\n    tag_352:\n      dup3\n      dup2\n      gt\n      iszero\n      tag_353\n      jumpi\n      dup3\n      mload\n      dup3\n      exp(0x0100, 0x00)\n      dup2\n      sload\n      dup2\n      0xffffffffffffffffffffffffffffffffffffffff\n      mul\n      not\n      and\n      swap1\n      dup4\n      0xffffffffffffffffffffffffffffffffffffffff\n      and\n      mul\n      or\n      swap1\n      sstore\n      pop\n      swap2\n      0x20\n      add\n      swap2\n      swap1\n      0x01\n      add\n      swap1\n      jump(tag_352)\n    tag_353:\n    tag_351:\n      pop\n      swap1\n      pop\n      tag_354\n      swap2\n      swap1\n      tag_355\n      jump\t// in\n    tag_354:\n      pop\n      swap1\n      jump\t// out\n    tag_355:\n    tag_356:\n      dup1\n      dup3\n      gt\n      iszero\n      tag_357\n      jumpi\n      0x00\n      dup2\n      0x00\n      swap1\n      sstore\n      pop\n      0x01\n      add\n      jump(tag_356)\n    tag_357:\n      pop\n      swap1\n      jump\t// out\n        /* \"#utility.yul\":88:205   */\n    tag_359:\n        /* \"#utility.yul\":197:198   */\n      0x00\n        /* \"#utility.yul\":194:195   */\n      dup1\n        /* \"#utility.yul\":187:199   */\n      revert\n        /* \"#utility.yul\":334:460   */\n    tag_361:\n        /* \"#utility.yul\":371:378   */\n      0x00\n        /* \"#utility.yul\":411:453   */\n      0xffffffffffffffffffffffffffffffffffffffff\n        /* \"#utility.yul\":404:409   */\n      dup3\n        /* \"#utility.yul\":400:454   */\n      and\n        /* \"#utility.yul\":389:454   */\n      swap1\n      pop\n        /* \"#utility.yul\":334:460   */\n      swap2\n      swap1\n      pop\n      jump\t// out\n        /* \"#utility.yul\":466:562   */\n    tag_362:\n        /* \"#utility.yul\":503:510   */\n      0x00\n        /* \"#utility.yul\":532:556   */\n      tag_390\n        /* \"#utility.yul\":550:555   */\n      dup3\n        /* \"#utility.yul\":532:556   */\n      tag_361\n      jump\t// in\n    tag_390:\n        /* \"#utility.yul\":521:556   */\n      swap1\n      pop\n        /* \"#utility.yul\":466:562   */\n      swap2\n      swap1\n      pop\n      jump\t// out\n        /* \"#utility.yul\":568:690   */\n    tag_363:\n        /* \"#utility.yul\":641:665   */\n      tag_392\n        /* \"#utility.yul\":659:664   */\n      dup2\n        /* \"#utility.yul\":641:665   */\n      tag_362\n      jump\t// in\n    tag_392:\n        /* \"#utility.yul\":634:639   */\n      dup2\n        /* \"#utility.yul\":631:666   */\n      eq\n        /* \"#utility.yul\":621:684   */\n      tag_393\n      jumpi\n        /* \"#utility.yul\":680:681   */\n      0x00\n        /* \"#utility.yul\":677:678   */\n      dup1\n        /* \"#utility.yul\":670:682   */\n      revert\n        /* \"#utility.yul\":621:684   */\n    tag_393:\n        /* \"#utility.yul\":568:690   */\n      pop\n      jump\t// out\n        /* \"#utility.yul\":696:835   */\n    tag_364:\n        /* \"#utility.yul\":742:747   */\n      0x00\n        /* \"#utility.yul\":780:786   */\n      dup2\n        /* \"#utility.yul\":767:787   */\n      calldataload\n        /* \"#utility.yul\":758:787   */\n      swap1\n      pop\n        /* \"#utility.yul\":796:829   */\n      tag_395\n        /* \"#utility.yul\":823:828   */\n      dup2\n        /* \"#utility.yul\":796:829   */\n      tag_363\n      jump\t// in\n    tag_395:\n        /* \"#utility.yul\":696:835   */\n      swap3\n      swap2\n      pop\n      pop\n      jump\t// out\n        /* \"#utility.yul\":841:1170   */\n    tag_31:\n        /* \"#utility.yul\":900:906   */\n      0x00\n        /* \"#utility.yul\":949:951   */\n      0x20\n        /* \"#utility.yul\":937:946   */\n      dup3\n        /* \"#utility.yul\":928:935   */\n      dup5\n        /* \"#utility.yul\":924:947   */\n      sub\n        /* \"#utility.yul\":920:952   */\n      slt\n        /* \"#utility.yul\":917:1036   */\n      iszero\n      tag_397\n      jumpi\n        /* \"#utility.yul\":955:1034   */\n      tag_398\n      tag_359\n      jump\t// in\n    tag_398:\n        /* \"#utility.yul\":917:1036   */\n    tag_397:\n        /* \"#utility.yul\":1075:1076   */\n      0x00\n        /* \"#utility.yul\":1100:1153   */\n      tag_399\n        /* \"#utility.yul\":1145:1152   */\n      dup5\n        /* \"#utility.yul\":1136:1142   */\n      dup3\n        /* \"#utility.yul\":1125:1134   */\n      dup6\n        /* \"#utility.yul\":1121:1143   */\n      add\n        /* \"#utility.yul\":1100:1153   */\n      tag_364\n      jump\t// in\n    tag_399:\n        /* \"#utility.yul\":1090:1153   */\n      swap2\n      pop\n        /* \"#utility.yul\":1046:1163   */\n      pop\n        /* \"#utility.yul\":841:1170   */\n      swap3\n      swap2\n      pop\n      pop\n      jump\t// out\n        /* \"#utility.yul\":1176:1266   */\n    tag_365:\n        /* \"#utility.yul\":1210:1217   */\n      0x00\n        /* \"#utility.yul\":1253:1258   */\n      dup2\n        /* \"#utility.yul\":1246:1259   */\n      iszero\n        /* \"#utility.yul\":1239:1260   */\n      iszero\n        /* \"#utility.yul\":1228:1260   */\n      swap1\n      pop\n        /* \"#utility.yul\":1176:1266   */\n      swap2\n      swap1\n      pop\n      jump\t// out\n        /* \"#utility.yul\":1272:1381   */\n    tag_366:\n        /* \"#utility.yul\":1353:1374   */\n      tag_402\n        /* \"#utility.yul\":1368:1373   */\n      dup2\n        /* \"#utility.yul\":1353:1374   */\n      tag_365\n      jump\t// in\n    tag_402:\n        /* \"#utility.yul\":1348:1351   */\n      dup3\n        /* \"#utility.yul\":1341:1375   */\n      mstore\n        /* \"#utility.yul\":1272:1381   */\n      pop\n      pop\n      jump\t// out\n        /* \"#utility.yul\":1387:1597   */\n    tag_34:\n        /* \"#utility.yul\":1474:1478   */\n      0x00\n        /* \"#utility.yul\":1512:1514   */\n      0x20\n        /* \"#utility.yul\":1501:1510   */\n      dup3\n        /* \"#utility.yul\":1497:1515   */\n      add\n        /* \"#utility.yul\":1489:1515   */\n      swap1\n      pop\n        /* \"#utility.yul\":1525:1590   */\n      tag_404\n        /* \"#utility.yul\":1587:1588   */\n      0x00\n        /* \"#utility.yul\":1576:1585   */\n      dup4\n        /* \"#utility.yul\":1572:1589   */\n      add\n        /* \"#utility.yul\":1563:1569   */\n      dup5\n        /* \"#utility.yul\":1525:1590   */\n      tag_366\n      jump\t// in\n    tag_404:\n        /* \"#utility.yul\":1387:1597   */\n      swap3\n      swap2\n      pop\n      pop\n      jump\t// out\n        /* \"#utility.yul\":1603:1721   */\n    tag_367:\n        /* \"#utility.yul\":1690:1714   */\n      tag_406\n        /* \"#utility.yul\":1708:1713   */\n      dup2\n        /* \"#utility.yul\":1690:1714   */\n      tag_362\n      jump\t// in\n    tag_406:\n        /* \"#utility.yul\":1685:1688   */\n      dup3\n        /* \"#utility.yul\":1678:1715   */\n      mstore\n        /* \"#utility.yul\":1603:1721   */\n      pop\n      pop\n      jump\t// out\n        /* \"#utility.yul\":1727:1949   */\n    tag_38:\n        /* \"#utility.yul\":1820:1824   */\n      0x00\n        /* \"#utility.yul\":1858:1860   */\n      0x20\n        /* \"#utility.yul\":1847:1856   */\n      dup3\n        /* \"#utility.yul\":1843:1861   */\n      add\n        /* \"#utility.yul\":1835:1861   */\n      swap1\n      pop\n        /* \"#utility.yul\":1871:1942   */\n      tag_408\n        /* \"#utility.yul\":1939:1940   */\n      0x00\n        /* \"#utility.yul\":1928:1937   */\n      dup4\n        /* \"#utility.yul\":1924:1941   */\n      add\n        /* \"#utility.yul\":1915:1921   */\n      dup5\n        /* \"#utility.yul\":1871:1942   */\n      tag_367\n      jump\t// in\n    tag_408:\n        /* \"#utility.yul\":1727:1949   */\n      swap3\n      swap2\n      pop\n      pop\n      jump\t// out\n        /* \"#utility.yul\":1955:2032   */\n    tag_368:\n        /* \"#utility.yul\":1992:1999   */\n      0x00\n        /* \"#utility.yul\":2021:2026   */\n      dup2\n        /* \"#utility.yul\":2010:2026   */\n      swap1\n      pop\n        /* \"#utility.yul\":1955:2032   */\n      swap2\n      swap1\n      pop\n      jump\t// out\n        /* \"#utility.yul\":2038:2156   */\n    tag_369:\n        /* \"#utility.yul\":2125:2149   */\n      tag_411\n        /* \"#utility.yul\":2143:2148   */\n      dup2\n        /* \"#utility.yul\":2125:2149   */\n      tag_368\n      jump\t// in\n    tag_411:\n        /* \"#utility.yul\":2120:2123   */\n      dup3\n        /* \"#utility.yul\":2113:2150   */\n      mstore\n        /* \"#utility.yul\":2038:2156   */\n      pop\n      pop\n      jump\t// out\n        /* \"#utility.yul\":2162:2384   */\n    tag_43:\n        /* \"#utility.yul\":2255:2259   */\n      0x00\n        /* \"#utility.yul\":2293:2295   */\n      0x20\n        /* \"#utility.yul\":2282:2291   */\n      dup3\n        /* \"#utility.yul\":2278:2296   */\n      add\n        /* \"#utility.yul\":2270:2296   */\n      swap1\n      pop\n        /* \"#utility.yul\":2306:2377   */\n      tag_413\n        /* \"#utility.yul\":2374:2375   */\n      0x00\n        /* \"#utility.yul\":2363:2372   */\n      dup4\n        /* \"#utility.yul\":2359:2376   */\n      add\n        /* \"#utility.yul\":2350:2356   */\n      dup5\n        /* \"#utility.yul\":2306:2377   */\n      tag_369\n      jump\t// in\n    tag_413:\n        /* \"#utility.yul\":2162:2384   */\n      swap3\n      swap2\n      pop\n      pop\n      jump\t// out\n        /* \"#utility.yul\":2390:2512   */\n    tag_370:\n        /* \"#utility.yul\":2463:2487   */\n      tag_415\n        /* \"#utility.yul\":2481:2486   */\n      dup2\n        /* \"#utility.yul\":2463:2487   */\n      tag_368\n      jump\t// in\n    tag_415:\n        /* \"#utility.yul\":2456:2461   */\n      dup2\n        /* \"#utility.yul\":2453:2488   */\n      eq\n        /* \"#utility.yul\":2443:2506   */\n      tag_416\n      jumpi\n        /* \"#utility.yul\":2502:2503   */\n      0x00\n        /* \"#utility.yul\":2499:2500   */\n      dup1\n        /* \"#utility.yul\":2492:2504   */\n      revert\n        /* \"#utility.yul\":2443:2506   */\n    tag_416:\n        /* \"#utility.yul\":2390:2512   */\n      pop\n      jump\t// out\n        /* \"#utility.yul\":2518:2657   */\n    tag_371:\n        /* \"#utility.yul\":2564:2569   */\n      0x00\n        /* \"#utility.yul\":2602:2608   */\n      dup2\n        /* \"#utility.yul\":2589:2609   */\n      calldataload\n        /* \"#utility.yul\":2580:2609   */\n      swap1\n      pop\n        /* \"#utility.yul\":2618:2651   */\n      tag_418\n        /* \"#utility.yul\":2645:2650   */\n      dup2\n        /* \"#utility.yul\":2618:2651   */\n      tag_370\n      jump\t// in\n    tag_418:\n        /* \"#utility.yul\":2518:2657   */\n      swap3\n      swap2\n      pop\n      pop\n      jump\t// out\n        /* \"#utility.yul\":2663:3137   */\n    tag_49:\n        /* \"#utility.yul\":2731:2737   */\n      0x00\n        /* \"#utility.yul\":2739:2745   */\n      dup1\n        /* \"#utility.yul\":2788:2790   */\n      0x40\n        /* \"#utility.yul\":2776:2785   */\n      dup4\n        /* \"#utility.yul\":2767:2774   */\n      dup6\n        /* \"#utility.yul\":2763:2786   */\n      sub\n        /* \"#utility.yul\":2759:2791   */\n      slt\n        /* \"#utility.yul\":2756:2875   */\n      iszero\n      tag_420\n      jumpi\n        /* \"#utility.yul\":2794:2873   */\n      tag_421\n      tag_359\n      jump\t// in\n    tag_421:\n        /* \"#utility.yul\":2756:2875   */\n    tag_420:\n        /* \"#utility.yul\":2914:2915   */\n      0x00\n        /* \"#utility.yul\":2939:2992   */\n      tag_422\n        /* \"#utility.yul\":2984:2991   */\n      dup6\n        /* \"#utility.yul\":2975:2981   */\n      dup3\n        /* \"#utility.yul\":2964:2973   */\n      dup7\n        /* \"#utility.yul\":2960:2982   */\n      add\n        /* \"#utility.yul\":2939:2992   */\n      tag_371\n      jump\t// in\n    tag_422:\n        /* \"#utility.yul\":2929:2992   */\n      swap3\n      pop\n        /* \"#utility.yul\":2885:3002   */\n      pop\n        /* \"#utility.yul\":3041:3043   */\n      0x20\n        /* \"#utility.yul\":3067:3120   */\n      tag_423\n        /* \"#utility.yul\":3112:3119   */\n      dup6\n        /* \"#utility.yul\":3103:3109   */\n      dup3\n        /* \"#utility.yul\":3092:3101   */\n      dup7\n        /* \"#utility.yul\":3088:3110   */\n      add\n        /* \"#utility.yul\":3067:3120   */\n      tag_364\n      jump\t// in\n    tag_423:\n        /* \"#utility.yul\":3057:3120   */\n      swap2\n      pop\n        /* \"#utility.yul\":3012:3130   */\n      pop\n        /* \"#utility.yul\":2663:3137   */\n      swap3\n      pop\n      swap3\n      swap1\n      pop\n      jump\t// out\n        /* \"#utility.yul\":3143:3617   */\n    tag_56:\n        /* \"#utility.yul\":3211:3217   */\n      0x00\n        /* \"#utility.yul\":3219:3225   */\n      dup1\n        /* \"#utility.yul\":3268:3270   */\n      0x40\n        /* \"#utility.yul\":3256:3265   */\n      dup4\n        /* \"#utility.yul\":3247:3254   */\n      dup6\n        /* \"#utility.yul\":3243:3266   */\n      sub\n        /* \"#utility.yul\":3239:3271   */\n      slt\n        /* \"#utility.yul\":3236:3355   */\n      iszero\n      tag_425\n      jumpi\n        /* \"#utility.yul\":3274:3353   */\n      tag_426\n      tag_359\n      jump\t// in\n    tag_426:\n        /* \"#utility.yul\":3236:3355   */\n    tag_425:\n        /* \"#utility.yul\":3394:3395   */\n      0x00\n        /* \"#utility.yul\":3419:3472   */\n      tag_427\n        /* \"#utility.yul\":3464:3471   */\n      dup6\n        /* \"#utility.yul\":3455:3461   */\n      dup3\n        /* \"#utility.yul\":3444:3453   */\n      dup7\n        /* \"#utility.yul\":3440:3462   */\n      add\n        /* \"#utility.yul\":3419:3472   */\n      tag_371\n      jump\t// in\n    tag_427:\n        /* \"#utility.yul\":3409:3472   */\n      swap3\n      pop\n        /* \"#utility.yul\":3365:3482   */\n      pop\n        /* \"#utility.yul\":3521:3523   */\n      0x20\n        /* \"#utility.yul\":3547:3600   */\n      tag_428\n        /* \"#utility.yul\":3592:3599   */\n      dup6\n        /* \"#utility.yul\":3583:3589   */\n      dup3\n        /* \"#utility.yul\":3572:3581   */\n      dup7\n        /* \"#utility.yul\":3568:3590   */\n      add\n        /* \"#utility.yul\":3547:3600   */\n      tag_371\n      jump\t// in\n    tag_428:\n        /* \"#utility.yul\":3537:3600   */\n      swap2\n      pop\n        /* \"#utility.yul\":3492:3610   */\n      pop\n        /* \"#utility.yul\":3143:3617   */\n      swap3\n      pop\n      swap3\n      swap1\n      pop\n      jump\t// out\n        /* \"#utility.yul\":3623:3955   */\n    tag_59:\n        /* \"#utility.yul\":3744:3748   */\n      0x00\n        /* \"#utility.yul\":3782:3784   */\n      0x40\n        /* \"#utility.yul\":3771:3780   */\n      dup3\n        /* \"#utility.yul\":3767:3785   */\n      add\n        /* \"#utility.yul\":3759:3785   */\n      swap1\n      pop\n        /* \"#utility.yul\":3795:3866   */\n      tag_430\n        /* \"#utility.yul\":3863:3864   */\n      0x00\n        /* \"#utility.yul\":3852:3861   */\n      dup4\n        /* \"#utility.yul\":3848:3865   */\n      add\n        /* \"#utility.yul\":3839:3845   */\n      dup6\n        /* \"#utility.yul\":3795:3866   */\n      tag_369\n      jump\t// in\n    tag_430:\n        /* \"#utility.yul\":3876:3948   */\n      tag_431\n        /* \"#utility.yul\":3944:3946   */\n      0x20\n        /* \"#utility.yul\":3933:3942   */\n      dup4\n        /* \"#utility.yul\":3929:3947   */\n      add\n        /* \"#utility.yul\":3920:3926   */\n      dup5\n        /* \"#utility.yul\":3876:3948   */\n      tag_369\n      jump\t// in\n    tag_431:\n        /* \"#utility.yul\":3623:3955   */\n      swap4\n      swap3\n      pop\n      pop\n      pop\n      jump\t// out\n        /* \"#utility.yul\":3961:4290   */\n    tag_96:\n        /* \"#utility.yul\":4020:4026   */\n      0x00\n        /* \"#utility.yul\":4069:4071   */\n      0x20\n        /* \"#utility.yul\":4057:4066   */\n      dup3\n        /* \"#utility.yul\":4048:4055   */\n      dup5\n        /* \"#utility.yul\":4044:4067   */\n      sub\n        /* \"#utility.yul\":4040:4072   */\n      slt\n        /* \"#utility.yul\":4037:4156   */\n      iszero\n      tag_433\n      jumpi\n        /* \"#utility.yul\":4075:4154   */\n      tag_434\n      tag_359\n      jump\t// in\n    tag_434:\n        /* \"#utility.yul\":4037:4156   */\n    tag_433:\n        /* \"#utility.yul\":4195:4196   */\n      0x00\n        /* \"#utility.yul\":4220:4273   */\n      tag_435\n        /* \"#utility.yul\":4265:4272   */\n      dup5\n        /* \"#utility.yul\":4256:4262   */\n      dup3\n        /* \"#utility.yul\":4245:4254   */\n      dup6\n        /* \"#utility.yul\":4241:4263   */\n      add\n        /* \"#utility.yul\":4220:4273   */\n      tag_371\n      jump\t// in\n    tag_435:\n        /* \"#utility.yul\":4210:4273   */\n      swap2\n      pop\n        /* \"#utility.yul\":4166:4283   */\n      pop\n        /* \"#utility.yul\":3961:4290   */\n      swap3\n      swap2\n      pop\n      pop\n      jump\t// out\n        /* \"#utility.yul\":4296:4465   */\n    tag_372:\n        /* \"#utility.yul\":4380:4391   */\n      0x00\n        /* \"#utility.yul\":4414:4420   */\n      dup3\n        /* \"#utility.yul\":4409:4412   */\n      dup3\n        /* \"#utility.yul\":4402:4421   */\n      mstore\n        /* \"#utility.yul\":4454:4458   */\n      0x20\n        /* \"#utility.yul\":4449:4452   */\n      dup3\n        /* \"#utility.yul\":4445:4459   */\n      add\n        /* \"#utility.yul\":4430:4459   */\n      swap1\n      pop\n        /* \"#utility.yul\":4296:4465   */\n      swap3\n      swap2\n      pop\n      pop\n      jump\t// out\n        /* \"#utility.yul\":4471:4648   */\n    tag_373:\n        /* \"#utility.yul\":4611:4640   */\n      0x63616e206f6e6c792062652063616c6c6564206279206f776e65720000000000\n        /* \"#utility.yul\":4607:4608   */\n      0x00\n        /* \"#utility.yul\":4599:4605   */\n      dup3\n        /* \"#utility.yul\":4595:4609   */\n      add\n        /* \"#utility.yul\":4588:4641   */\n      mstore\n        /* \"#utility.yul\":4471:4648   */\n      pop\n      jump\t// out\n        /* \"#utility.yul\":4654:5020   */\n    tag_374:\n        /* \"#utility.yul\":4796:4799   */\n      0x00\n        /* \"#utility.yul\":4817:4884   */\n      tag_439\n        /* \"#utility.yul\":4881:4883   */\n      0x1b\n        /* \"#utility.yul\":4876:4879   */\n      dup4\n        /* \"#utility.yul\":4817:4884   */\n      tag_372\n      jump\t// in\n    tag_439:\n        /* \"#utility.yul\":4810:4884   */\n      swap2\n      pop\n        /* \"#utility.yul\":4893:4986   */\n      tag_440\n        /* \"#utility.yul\":4982:4985   */\n      dup3\n        /* \"#utility.yul\":4893:4986   */\n      tag_373\n      jump\t// in\n    tag_440:\n        /* \"#utility.yul\":5011:5013   */\n      0x20\n        /* \"#utility.yul\":5006:5009   */\n      dup3\n        /* \"#utility.yul\":5002:5014   */\n      add\n        /* \"#utility.yul\":4995:5014   */\n      swap1\n      pop\n        /* \"#utility.yul\":4654:5020   */\n      swap2\n      swap1\n      pop\n      jump\t// out\n        /* \"#utility.yul\":5026:5445   */\n    tag_115:\n        /* \"#utility.yul\":5192:5196   */\n      0x00\n        /* \"#utility.yul\":5230:5232   */\n      0x20\n        /* \"#utility.yul\":5219:5228   */\n      dup3\n        /* \"#utility.yul\":5215:5233   */\n      add\n        /* \"#utility.yul\":5207:5233   */\n      swap1\n      pop\n        /* \"#utility.yul\":5279:5288   */\n      dup2\n        /* \"#utility.yul\":5273:5277   */\n      dup2\n        /* \"#utility.yul\":5269:5289   */\n      sub\n        /* \"#utility.yul\":5265:5266   */\n      0x00\n        /* \"#utility.yul\":5254:5263   */\n      dup4\n        /* \"#utility.yul\":5250:5267   */\n      add\n        /* \"#utility.yul\":5243:5290   */\n      mstore\n        /* \"#utility.yul\":5307:5438   */\n      tag_442\n        /* \"#utility.yul\":5433:5437   */\n      dup2\n        /* \"#utility.yul\":5307:5438   */\n      tag_374\n      jump\t// in\n    tag_442:\n        /* \"#utility.yul\":5299:5438   */\n      swap1\n      pop\n        /* \"#utility.yul\":5026:5445   */\n      swap2\n      swap1\n      pop\n      jump\t// out\n        /* \"#utility.yul\":5451:5671   */\n    tag_375:\n        /* \"#utility.yul\":5591:5625   */\n      0x72656369657665722773206164647265737320697320626c61636b6c69737465\n        /* \"#utility.yul\":5587:5588   */\n      0x00\n        /* \"#utility.yul\":5579:5585   */\n      dup3\n        /* \"#utility.yul\":5575:5589   */\n      add\n        /* \"#utility.yul\":5568:5626   */\n      mstore\n        /* \"#utility.yul\":5660:5663   */\n      0x6400000000000000000000000000000000000000000000000000000000000000\n        /* \"#utility.yul\":5655:5657   */\n      0x20\n        /* \"#utility.yul\":5647:5653   */\n      dup3\n        /* \"#utility.yul\":5643:5658   */\n      add\n        /* \"#utility.yul\":5636:5664   */\n      mstore\n        /* \"#utility.yul\":5451:5671   */\n      pop\n      jump\t// out\n        /* \"#utility.yul\":5677:6043   */\n    tag_376:\n        /* \"#utility.yul\":5819:5822   */\n      0x00\n        /* \"#utility.yul\":5840:5907   */\n      tag_445\n        /* \"#utility.yul\":5904:5906   */\n      0x21\n        /* \"#utility.yul\":5899:5902   */\n      dup4\n        /* \"#utility.yul\":5840:5907   */\n      tag_372\n      jump\t// in\n    tag_445:\n        /* \"#utility.yul\":5833:5907   */\n      swap2\n      pop\n        /* \"#utility.yul\":5916:6009   */\n      tag_446\n        /* \"#utility.yul\":6005:6008   */\n      dup3\n        /* \"#utility.yul\":5916:6009   */\n      tag_375\n      jump\t// in\n    tag_446:\n        /* \"#utility.yul\":6034:6036   */\n      0x40\n        /* \"#utility.yul\":6029:6032   */\n      dup3\n        /* \"#utility.yul\":6025:6037   */\n      add\n        /* \"#utility.yul\":6018:6037   */\n      swap1\n      pop\n        /* \"#utility.yul\":5677:6043   */\n      swap2\n      swap1\n      pop\n      jump\t// out\n        /* \"#utility.yul\":6049:6468   */\n    tag_120:\n        /* \"#utility.yul\":6215:6219   */\n      0x00\n        /* \"#utility.yul\":6253:6255   */\n      0x20\n        /* \"#utility.yul\":6242:6251   */\n      dup3\n        /* \"#utility.yul\":6238:6256   */\n      add\n        /* \"#utility.yul\":6230:6256   */\n      swap1\n      pop\n        /* \"#utility.yul\":6302:6311   */\n      dup2\n        /* \"#utility.yul\":6296:6300   */\n      dup2\n        /* \"#utility.yul\":6292:6312   */\n      sub\n        /* \"#utility.yul\":6288:6289   */\n      0x00\n        /* \"#utility.yul\":6277:6286   */\n      dup4\n        /* \"#utility.yul\":6273:6290   */\n      add\n        /* \"#utility.yul\":6266:6313   */\n      mstore\n        /* \"#utility.yul\":6330:6461   */\n      tag_448\n        /* \"#utility.yul\":6456:6460   */\n      dup2\n        /* \"#utility.yul\":6330:6461   */\n      tag_376\n      jump\t// in\n    tag_448:\n        /* \"#utility.yul\":6322:6461   */\n      swap1\n      pop\n        /* \"#utility.yul\":6049:6468   */\n      swap2\n      swap1\n      pop\n      jump\t// out\n        /* \"#utility.yul\":6474:6653   */\n    tag_377:\n        /* \"#utility.yul\":6614:6645   */\n      0x66756e647320617265206c657373207468616e20726571756573746564000000\n        /* \"#utility.yul\":6610:6611   */\n      0x00\n        /* \"#utility.yul\":6602:6608   */\n      dup3\n        /* \"#utility.yul\":6598:6612   */\n      add\n        /* \"#utility.yul\":6591:6646   */\n      mstore\n        /* \"#utility.yul\":6474:6653   */\n      pop\n      jump\t// out\n        /* \"#utility.yul\":6659:7025   */\n    tag_378:\n        /* \"#utility.yul\":6801:6804   */\n      0x00\n        /* \"#utility.yul\":6822:6889   */\n      tag_451\n        /* \"#utility.yul\":6886:6888   */\n      0x1d\n        /* \"#utility.yul\":6881:6884   */\n      dup4\n        /* \"#utility.yul\":6822:6889   */\n      tag_372\n      jump\t// in\n    tag_451:\n        /* \"#utility.yul\":6815:6889   */\n      swap2\n      pop\n        /* \"#utility.yul\":6898:6991   */\n      tag_452\n        /* \"#utility.yul\":6987:6990   */\n      dup3\n        /* \"#utility.yul\":6898:6991   */\n      tag_377\n      jump\t// in\n    tag_452:\n        /* \"#utility.yul\":7016:7018   */\n      0x20\n        /* \"#utility.yul\":7011:7014   */\n      dup3\n        /* \"#utility.yul\":7007:7019   */\n      add\n        /* \"#utility.yul\":7000:7019   */\n      swap1\n      pop\n        /* \"#utility.yul\":6659:7025   */\n      swap2\n      swap1\n      pop\n      jump\t// out\n        /* \"#utility.yul\":7031:7450   */\n    tag_124:\n        /* \"#utility.yul\":7197:7201   */\n      0x00\n        /* \"#utility.yul\":7235:7237   */\n      0x20\n        /* \"#utility.yul\":7224:7233   */\n      dup3\n        /* \"#utility.yul\":7220:7238   */\n      add\n        /* \"#utility.yul\":7212:7238   */\n      swap1\n      pop\n        /* \"#utility.yul\":7284:7293   */\n      dup2\n        /* \"#utility.yul\":7278:7282   */\n      dup2\n        /* \"#utility.yul\":7274:7294   */\n      sub\n        /* \"#utility.yul\":7270:7271   */\n      0x00\n        /* \"#utility.yul\":7259:7268   */\n      dup4\n        /* \"#utility.yul\":7255:7272   */\n      add\n        /* \"#utility.yul\":7248:7295   */\n      mstore\n        /* \"#utility.yul\":7312:7443   */\n      tag_454\n        /* \"#utility.yul\":7438:7442   */\n      dup2\n        /* \"#utility.yul\":7312:7443   */\n      tag_378\n      jump\t// in\n    tag_454:\n        /* \"#utility.yul\":7304:7443   */\n      swap1\n      pop\n        /* \"#utility.yul\":7031:7450   */\n      swap2\n      swap1\n      pop\n      jump\t// out\n        /* \"#utility.yul\":7456:7636   */\n    tag_379:\n        /* \"#utility.yul\":7504:7581   */\n      0x4e487b7100000000000000000000000000000000000000000000000000000000\n        /* \"#utility.yul\":7501:7502   */\n      0x00\n        /* \"#utility.yul\":7494:7582   */\n      mstore\n        /* \"#utility.yul\":7601:7605   */\n      0x11\n        /* \"#utility.yul\":7598:7599   */\n      0x04\n        /* \"#utility.yul\":7591:7606   */\n      mstore\n        /* \"#utility.yul\":7625:7629   */\n      0x24\n        /* \"#utility.yul\":7622:7623   */\n      0x00\n        /* \"#utility.yul\":7615:7630   */\n      revert\n        /* \"#utility.yul\":7642:7836   */\n    tag_131:\n        /* \"#utility.yul\":7682:7686   */\n      0x00\n        /* \"#utility.yul\":7702:7722   */\n      tag_457\n        /* \"#utility.yul\":7720:7721   */\n      dup3\n        /* \"#utility.yul\":7702:7722   */\n      tag_368\n      jump\t// in\n    tag_457:\n        /* \"#utility.yul\":7697:7722   */\n      swap2\n      pop\n        /* \"#utility.yul\":7736:7756   */\n      tag_458\n        /* \"#utility.yul\":7754:7755   */\n      dup4\n        /* \"#utility.yul\":7736:7756   */\n      tag_368\n      jump\t// in\n    tag_458:\n        /* \"#utility.yul\":7731:7756   */\n      swap3\n      pop\n        /* \"#utility.yul\":7780:7781   */\n      dup3\n        /* \"#utility.yul\":7777:7778   */\n      dup3\n        /* \"#utility.yul\":7773:7782   */\n      sub\n        /* \"#utility.yul\":7765:7782   */\n      swap1\n      pop\n        /* \"#utility.yul\":7804:7805   */\n      dup2\n        /* \"#utility.yul\":7798:7802   */\n      dup2\n        /* \"#utility.yul\":7795:7806   */\n      gt\n        /* \"#utility.yul\":7792:7829   */\n      iszero\n      tag_459\n      jumpi\n        /* \"#utility.yul\":7809:7827   */\n      tag_460\n      tag_379\n      jump\t// in\n    tag_460:\n        /* \"#utility.yul\":7792:7829   */\n    tag_459:\n        /* \"#utility.yul\":7642:7836   */\n      swap3\n      swap2\n      pop\n      pop\n      jump\t// out\n        /* \"#utility.yul\":7842:8033   */\n    tag_133:\n        /* \"#utility.yul\":7882:7885   */\n      0x00\n        /* \"#utility.yul\":7901:7921   */\n      tag_462\n        /* \"#utility.yul\":7919:7920   */\n      dup3\n        /* \"#utility.yul\":7901:7921   */\n      tag_368\n      jump\t// in\n    tag_462:\n        /* \"#utility.yul\":7896:7921   */\n      swap2\n      pop\n        /* \"#utility.yul\":7935:7955   */\n      tag_463\n        /* \"#utility.yul\":7953:7954   */\n      dup4\n        /* \"#utility.yul\":7935:7955   */\n      tag_368\n      jump\t// in\n    tag_463:\n        /* \"#utility.yul\":7930:7955   */\n      swap3\n      pop\n        /* \"#utility.yul\":7978:7979   */\n      dup3\n        /* \"#utility.yul\":7975:7976   */\n      dup3\n        /* \"#utility.yul\":7971:7980   */\n      add\n        /* \"#utility.yul\":7964:7980   */\n      swap1\n      pop\n        /* \"#utility.yul\":7999:8002   */\n      dup1\n        /* \"#utility.yul\":7996:7997   */\n      dup3\n        /* \"#utility.yul\":7993:8003   */\n      gt\n        /* \"#utility.yul\":7990:8026   */\n      iszero\n      tag_464\n      jumpi\n        /* \"#utility.yul\":8006:8024   */\n      tag_465\n      tag_379\n      jump\t// in\n    tag_465:\n        /* \"#utility.yul\":7990:8026   */\n    tag_464:\n        /* \"#utility.yul\":7842:8033   */\n      swap3\n      swap2\n      pop\n      pop\n      jump\t// out\n        /* \"#utility.yul\":8039:8219   */\n    tag_380:\n        /* \"#utility.yul\":8087:8164   */\n      0x4e487b7100000000000000000000000000000000000000000000000000000000\n        /* \"#utility.yul\":8084:8085   */\n      0x00\n        /* \"#utility.yul\":8077:8165   */\n      mstore\n        /* \"#utility.yul\":8184:8188   */\n      0x12\n        /* \"#utility.yul\":8181:8182   */\n      0x04\n        /* \"#utility.yul\":8174:8189   */\n      mstore\n        /* \"#utility.yul\":8208:8212   */\n      0x24\n        /* \"#utility.yul\":8205:8206   */\n      0x00\n        /* \"#utility.yul\":8198:8213   */\n      revert\n        /* \"#utility.yul\":8225:8410   */\n    tag_135:\n        /* \"#utility.yul\":8265:8266   */\n      0x00\n        /* \"#utility.yul\":8282:8302   */\n      tag_468\n        /* \"#utility.yul\":8300:8301   */\n      dup3\n        /* \"#utility.yul\":8282:8302   */\n      tag_368\n      jump\t// in\n    tag_468:\n        /* \"#utility.yul\":8277:8302   */\n      swap2\n      pop\n        /* \"#utility.yul\":8316:8336   */\n      tag_469\n        /* \"#utility.yul\":8334:8335   */\n      dup4\n        /* \"#utility.yul\":8316:8336   */\n      tag_368\n      jump\t// in\n    tag_469:\n        /* \"#utility.yul\":8311:8336   */\n      swap3\n      pop\n        /* \"#utility.yul\":8355:8356   */\n      dup3\n        /* \"#utility.yul\":8345:8380   */\n      tag_470\n      jumpi\n        /* \"#utility.yul\":8360:8378   */\n      tag_471\n      tag_380\n      jump\t// in\n    tag_471:\n        /* \"#utility.yul\":8345:8380   */\n    tag_470:\n        /* \"#utility.yul\":8402:8403   */\n      dup3\n        /* \"#utility.yul\":8399:8400   */\n      dup3\n        /* \"#utility.yul\":8395:8404   */\n      div\n        /* \"#utility.yul\":8390:8404   */\n      swap1\n      pop\n        /* \"#utility.yul\":8225:8410   */\n      swap3\n      swap2\n      pop\n      pop\n      jump\t// out\n        /* \"#utility.yul\":8416:8596   */\n    tag_142:\n        /* \"#utility.yul\":8464:8541   */\n      0x4e487b7100000000000000000000000000000000000000000000000000000000\n        /* \"#utility.yul\":8461:8462   */\n      0x00\n        /* \"#utility.yul\":8454:8542   */\n      mstore\n        /* \"#utility.yul\":8561:8565   */\n      0x32\n        /* \"#utility.yul\":8558:8559   */\n      0x04\n        /* \"#utility.yul\":8551:8566   */\n      mstore\n        /* \"#utility.yul\":8585:8589   */\n      0x24\n        /* \"#utility.yul\":8582:8583   */\n      0x00\n        /* \"#utility.yul\":8575:8590   */\n      revert\n        /* \"#utility.yul\":8602:8835   */\n    tag_147:\n        /* \"#utility.yul\":8641:8644   */\n      0x00\n        /* \"#utility.yul\":8664:8688   */\n      tag_474\n        /* \"#utility.yul\":8682:8687   */\n      dup3\n        /* \"#utility.yul\":8664:8688   */\n      tag_368\n      jump\t// in\n    tag_474:\n        /* \"#utility.yul\":8655:8688   */\n      swap2\n      pop\n        /* \"#utility.yul\":8710:8776   */\n      0xffffffffffffffffffffffffffffffffffffffffffffffffffffffffffffffff\n        /* \"#utility.yul\":8703:8708   */\n      dup3\n        /* \"#utility.yul\":8700:8777   */\n      sub\n        /* \"#utility.yul\":8697:8800   */\n      tag_475\n      jumpi\n        /* \"#utility.yul\":8780:8798   */\n      tag_476\n      tag_379\n      jump\t// in\n    tag_476:\n        /* \"#utility.yul\":8697:8800   */\n    tag_475:\n        /* \"#utility.yul\":8827:8828   */\n      0x01\n        /* \"#utility.yul\":8820:8825   */\n      dup3\n        /* \"#utility.yul\":8816:8829   */\n      add\n        /* \"#utility.yul\":8809:8829   */\n      swap1\n      pop\n        /* \"#utility.yul\":8602:8835   */\n      swap2\n      swap1\n      pop\n      jump\t// out\n        /* \"#utility.yul\":8841:9251   */\n    tag_162:\n        /* \"#utility.yul\":8881:8888   */\n      0x00\n        /* \"#utility.yul\":8904:8924   */\n      tag_478\n        /* \"#utility.yul\":8922:8923   */\n      dup3\n        /* \"#utility.yul\":8904:8924   */\n      tag_368\n      jump\t// in\n    tag_478:\n        /* \"#utility.yul\":8899:8924   */\n      swap2\n      pop\n        /* \"#utility.yul\":8938:8958   */\n      tag_479\n        /* \"#utility.yul\":8956:8957   */\n      dup4\n        /* \"#utility.yul\":8938:8958   */\n      tag_368\n      jump\t// in\n    tag_479:\n        /* \"#utility.yul\":8933:8958   */\n      swap3\n      pop\n        /* \"#utility.yul\":8993:8994   */\n      dup3\n        /* \"#utility.yul\":8990:8991   */\n      dup3\n        /* \"#utility.yul\":8986:8995   */\n      mul\n        /* \"#utility.yul\":9015:9045   */\n      tag_480\n        /* \"#utility.yul\":9033:9044   */\n      dup2\n        /* \"#utility.yul\":9015:9045   */\n      tag_368\n      jump\t// in\n    tag_480:\n        /* \"#utility.yul\":9004:9045   */\n      swap2\n      pop\n        /* \"#utility.yul\":9194:9195   */\n      dup3\n        /* \"#utility.yul\":9185:9192   */\n      dup3\n        /* \"#utility.yul\":9181:9196   */\n      div\n        /* \"#utility.yul\":9178:9179   */\n      dup5\n        /* \"#utility.yul\":9175:9197   */\n      eq\n        /* \"#utility.yul\":9155:9156   */\n      dup4\n        /* \"#utility.yul\":9148:9157   */\n      iszero\n        /* \"#utility.yul\":9128:9211   */\n      or\n        /* \"#utility.yul\":9105:9244   */\n      tag_481\n      jumpi\n        /* \"#utility.yul\":9224:9242   */\n      tag_482\n      tag_379\n      jump\t// in\n    tag_482:\n        /* \"#utility.yul\":9105:9244   */\n    tag_481:\n        /* \"#utility.yul\":8889:9251   */\n      pop\n        /* \"#utility.yul\":8841:9251   */\n      swap3\n      swap2\n      pop\n      pop\n      jump\t// out\n        /* \"#utility.yul\":9257:9589   */\n    tag_202:\n        /* \"#utility.yul\":9378:9382   */\n      0x00\n        /* \"#utility.yul\":9416:9418   */\n      0x40\n        /* \"#utility.yul\":9405:9414   */\n      dup3\n        /* \"#utility.yul\":9401:9419   */\n      add\n        /* \"#utility.yul\":9393:9419   */\n      swap1\n      pop\n        /* \"#utility.yul\":9429:9500   */\n      tag_484\n        /* \"#utility.yul\":9497:9498   */\n      0x00\n        /* \"#utility.yul\":9486:9495   */\n      dup4\n        /* \"#utility.yul\":9482:9499   */\n      add\n        /* \"#utility.yul\":9473:9479   */\n      dup6\n        /* \"#utility.yul\":9429:9500   */\n      tag_367\n      jump\t// in\n    tag_484:\n        /* \"#utility.yul\":9510:9582   */\n      tag_485\n        /* \"#utility.yul\":9578:9580   */\n      0x20\n        /* \"#utility.yul\":9567:9576   */\n      dup4\n        /* \"#utility.yul\":9563:9581   */\n      add\n        /* \"#utility.yul\":9554:9560   */\n      dup5\n        /* \"#utility.yul\":9510:9582   */\n      tag_367\n      jump\t// in\n    tag_485:\n        /* \"#utility.yul\":9257:9589   */\n      swap4\n      swap3\n      pop\n      pop\n      pop\n      jump\t// out\n        /* \"#utility.yul\":9595:9766   */\n    tag_207:\n        /* \"#utility.yul\":9634:9637   */\n      0x00\n        /* \"#utility.yul\":9657:9681   */\n      tag_487\n        /* \"#utility.yul\":9675:9680   */\n      dup3\n        /* \"#utility.yul\":9657:9681   */\n      tag_368\n      jump\t// in\n    tag_487:\n        /* \"#utility.yul\":9648:9681   */\n      swap2\n      pop\n        /* \"#utility.yul\":9703:9707   */\n      0x00\n        /* \"#utility.yul\":9696:9701   */\n      dup3\n        /* \"#utility.yul\":9693:9708   */\n      sub\n        /* \"#utility.yul\":9690:9731   */\n      tag_488\n      jumpi\n        /* \"#utility.yul\":9711:9729   */\n      tag_489\n      tag_379\n      jump\t// in\n    tag_489:\n        /* \"#utility.yul\":9690:9731   */\n    tag_488:\n        /* \"#utility.yul\":9758:9759   */\n      0x01\n        /* \"#utility.yul\":9751:9756   */\n      dup3\n        /* \"#utility.yul\":9747:9760   */\n      sub\n        /* \"#utility.yul\":9740:9760   */\n      swap1\n      pop\n        /* \"#utility.yul\":9595:9766   */\n      swap2\n      swap1\n      pop\n      jump\t// out\n        /* \"#utility.yul\":9772:9948   */\n    tag_214:\n        /* \"#utility.yul\":9804:9805   */\n      0x00\n        /* \"#utility.yul\":9821:9841   */\n      tag_491\n        /* \"#utility.yul\":9839:9840   */\n      dup3\n        /* \"#utility.yul\":9821:9841   */\n      tag_368\n      jump\t// in\n    tag_491:\n        /* \"#utility.yul\":9816:9841   */\n      swap2\n      pop\n        /* \"#utility.yul\":9855:9875   */\n      tag_492\n        /* \"#utility.yul\":9873:9874   */\n      dup4\n        /* \"#utility.yul\":9855:9875   */\n      tag_368\n      jump\t// in\n    tag_492:\n        /* \"#utility.yul\":9850:9875   */\n      swap3\n      pop\n        /* \"#utility.yul\":9894:9895   */\n      dup3\n        /* \"#utility.yul\":9884:9919   */\n      tag_493\n      jumpi\n        /* \"#utility.yul\":9899:9917   */\n      tag_494\n      tag_380\n      jump\t// in\n    tag_494:\n        /* \"#utility.yul\":9884:9919   */\n    tag_493:\n        /* \"#utility.yul\":9940:9941   */\n      dup3\n        /* \"#utility.yul\":9937:9938   */\n      dup3\n        /* \"#utility.yul\":9933:9942   */\n      mod\n        /* \"#utility.yul\":9928:9942   */\n      swap1\n      pop\n        /* \"#utility.yul\":9772:9948   */\n      swap3\n      swap2\n      pop\n      pop\n      jump\t// out\n        /* \"#utility.yul\":9954:10396   */\n    tag_226:\n        /* \"#utility.yul\":10103:10107   */\n      0x00\n        /* \"#utility.yul\":10141:10143   */\n      0x60\n        /* \"#utility.yul\":10130:10139   */\n      dup3\n        /* \"#utility.yul\":10126:10144   */\n      add\n        /* \"#utility.yul\":10118:10144   */\n      swap1\n      pop\n        /* \"#utility.yul\":10154:10225   */\n      tag_496\n        /* \"#utility.yul\":10222:10223   */\n      0x00\n        /* \"#utility.yul\":10211:10220   */\n      dup4\n        /* \"#utility.yul\":10207:10224   */\n      add\n        /* \"#utility.yul\":10198:10204   */\n      dup7\n        /* \"#utility.yul\":10154:10225   */\n      tag_367\n      jump\t// in\n    tag_496:\n        /* \"#utility.yul\":10235:10307   */\n      tag_497\n        /* \"#utility.yul\":10303:10305   */\n      0x20\n        /* \"#utility.yul\":10292:10301   */\n      dup4\n        /* \"#utility.yul\":10288:10306   */\n      add\n        /* \"#utility.yul\":10279:10285   */\n      dup6\n        /* \"#utility.yul\":10235:10307   */\n      tag_367\n      jump\t// in\n    tag_497:\n        /* \"#utility.yul\":10317:10389   */\n      tag_498\n        /* \"#utility.yul\":10385:10387   */\n      0x40\n        /* \"#utility.yul\":10374:10383   */\n      dup4\n        /* \"#utility.yul\":10370:10388   */\n      add\n        /* \"#utility.yul\":10361:10367   */\n      dup5\n        /* \"#utility.yul\":10317:10389   */\n      tag_369\n      jump\t// in\n    tag_498:\n        /* \"#utility.yul\":9954:10396   */\n      swap5\n      swap4\n      pop\n      pop\n      pop\n      pop\n      jump\t// out\n        /* \"#utility.yul\":10402:10518   */\n    tag_381:\n        /* \"#utility.yul\":10472:10493   */\n      tag_500\n        /* \"#utility.yul\":10487:10492   */\n      dup2\n        /* \"#utility.yul\":10472:10493   */\n      tag_365\n      jump\t// in\n    tag_500:\n        /* \"#utility.yul\":10465:10470   */\n      dup2\n        /* \"#utility.yul\":10462:10494   */\n      eq\n        /* \"#utility.yul\":10452:10512   */\n      tag_501\n      jumpi\n        /* \"#utility.yul\":10508:10509   */\n      0x00\n        /* \"#utility.yul\":10505:10506   */\n      dup1\n        /* \"#utility.yul\":10498:10510   */\n      revert\n        /* \"#utility.yul\":10452:10512   */\n    tag_501:\n        /* \"#utility.yul\":10402:10518   */\n      pop\n      jump\t// out\n        /* \"#utility.yul\":10524:10661   */\n    tag_382:\n        /* \"#utility.yul\":10578:10583   */\n      0x00\n        /* \"#utility.yul\":10609:10615   */\n      dup2\n        /* \"#utility.yul\":10603:10616   */\n      mload\n        /* \"#utility.yul\":10594:10616   */\n      swap1\n      pop\n        /* \"#utility.yul\":10625:10655   */\n      tag_503\n        /* \"#utility.yul\":10649:10654   */\n      dup2\n        /* \"#utility.yul\":10625:10655   */\n      tag_381\n      jump\t// in\n    tag_503:\n        /* \"#utility.yul\":10524:10661   */\n      swap3\n      swap2\n      pop\n      pop\n      jump\t// out\n        /* \"#utility.yul\":10667:11012   */\n    tag_230:\n        /* \"#utility.yul\":10734:10740   */\n      0x00\n        /* \"#utility.yul\":10783:10785   */\n      0x20\n        /* \"#utility.yul\":10771:10780   */\n      dup3\n        /* \"#utility.yul\":10762:10769   */\n      dup5\n        /* \"#utility.yul\":10758:10781   */\n      sub\n        /* \"#utility.yul\":10754:10786   */\n      slt\n        /* \"#utility.yul\":10751:10870   */\n      iszero\n      tag_505\n      jumpi\n        /* \"#utility.yul\":10789:10868   */\n      tag_506\n      tag_359\n      jump\t// in\n    tag_506:\n        /* \"#utility.yul\":10751:10870   */\n    tag_505:\n        /* \"#utility.yul\":10909:10910   */\n      0x00\n        /* \"#utility.yul\":10934:10995   */\n      tag_507\n        /* \"#utility.yul\":10987:10994   */\n      dup5\n        /* \"#utility.yul\":10978:10984   */\n      dup3\n        /* \"#utility.yul\":10967:10976   */\n      dup6\n        /* \"#utility.yul\":10963:10985   */\n      add\n        /* \"#utility.yul\":10934:10995   */\n      tag_382\n      jump\t// in\n    tag_507:\n        /* \"#utility.yul\":10924:10995   */\n      swap2\n      pop\n        /* \"#utility.yul\":10880:11005   */\n      pop\n        /* \"#utility.yul\":10667:11012   */\n      swap3\n      swap2\n      pop\n      pop\n      jump\t// out\n        /* \"#utility.yul\":11018:11161   */\n    tag_383:\n        /* \"#utility.yul\":11075:11080   */\n      0x00\n        /* \"#utility.yul\":11106:11112   */\n      dup2\n        /* \"#utility.yul\":11100:11113   */\n      mload\n        /* \"#utility.yul\":11091:11113   */\n      swap1\n      pop\n        /* \"#utility.yul\":11122:11155   */\n      tag_509\n        /* \"#utility.yul\":11149:11154   */\n      dup2\n        /* \"#utility.yul\":11122:11155   */\n      tag_370\n      jump\t// in\n    tag_509:\n        /* \"#utility.yul\":11018:11161   */\n      swap3\n      swap2\n      pop\n      pop\n      jump\t// out\n        /* \"#utility.yul\":11167:11518   */\n    tag_273:\n        /* \"#utility.yul\":11237:11243   */\n      0x00\n        /* \"#utility.yul\":11286:11288   */\n      0x20\n        /* \"#utility.yul\":11274:11283   */\n      dup3\n        /* \"#utility.yul\":11265:11272   */\n      dup5\n        /* \"#utility.yul\":11261:11284   */\n      sub\n        /* \"#utility.yul\":11257:11289   */\n      slt\n        /* \"#utility.yul\":11254:11373   */\n      iszero\n      tag_511\n      jumpi\n        /* \"#utility.yul\":11292:11371   */\n      tag_512\n      tag_359\n      jump\t// in\n    tag_512:\n        /* \"#utility.yul\":11254:11373   */\n    tag_511:\n        /* \"#utility.yul\":11412:11413   */\n      0x00\n        /* \"#utility.yul\":11437:11501   */\n      tag_513\n        /* \"#utility.yul\":11493:11500   */\n      dup5\n        /* \"#utility.yul\":11484:11490   */\n      dup3\n        /* \"#utility.yul\":11473:11482   */\n      dup6\n        /* \"#utility.yul\":11469:11491   */\n      add\n        /* \"#utility.yul\":11437:11501   */\n      tag_383\n      jump\t// in\n    tag_513:\n        /* \"#utility.yul\":11427:11501   */\n      swap2\n      pop\n        /* \"#utility.yul\":11383:11511   */\n      pop\n        /* \"#utility.yul\":11167:11518   */\n      swap3\n      swap2\n      pop\n      pop\n      jump\t// out\n\n    auxdata: 0xa2646970667358221220a762f54bddc74b2c3ae047228516ef8b1e31e1ae27073972c29f2e9156efe51a64736f6c63430008150033\n}\n",
				"bytecode": {
					"linkReferences": {},
					"object": "60a060405260006013556040518061012001604052806101f461ffff16815260200160c861ffff168152602001606461ffff168152602001603261ffff168152602001601461ffff168152602001600a61ffff168152602001600561ffff168152602001600261ffff168152602001600161ffff16815250601990600962000089929190620000d2565b503480156200009757600080fd5b503373ffffffffffffffffffffffffffffffffffffffff1660808173ffffffffffffffffffffffffffffffffffffffff168152505062000149565b82805482825590600052602060002090810192821562000117579160200282015b8281111562000116578251829061ffff16905591602001919060010190620000f3565b5b5090506200012691906200012a565b5090565b5b80821115620001455760008160009055506001016200012b565b5090565b6080516120176200016c600039600081816105010152610c9e01526120176000f3fe608060405234801561001057600080fd5b506004361061014d5760003560e01c8063b150019a116100c3578063e84530fb1161007c578063e84530fb14610395578063eb4f81f3146103b3578063f0483d73146103e3578063f509159814610401578063fa137b2a1461041d578063fc07dbb81461043b5761014d565b8063b150019a146102cf578063cca79636146102ed578063d26813d31461030b578063d68cfc1414610329578063dd188dc314610347578063e0d6d530146103775761014d565b8063588a2c0911610115578063588a2c0914610208578063600fa18e146102265780636affb7291461025757806370cd47df146102755780639a5b9d6214610293578063a805588e146102b15761014d565b806326541b4a146101525780633ef0116d1461018257806343d6a6a2146101a05780634838d165146101d05780634ca9deb9146101ec575b600080fd5b61016c6004803603810190610167919061199e565b610459565b60405161017991906119e6565b60405180910390f35b61018a610479565b6040516101979190611a10565b60405180910390f35b6101ba60048036038101906101b5919061199e565b61049f565b6040516101c79190611a44565b60405180910390f35b6101ea60048036038101906101e5919061199e565b6104e8565b005b61020660048036038101906102019190611a8b565b6105d1565b005b610210610b40565b60405161021d9190611a10565b60405180910390f35b610240600480360381019061023b9190611acb565b610b66565b60405161024e929190611b0b565b60405180910390f35b61025f610b9b565b60405161026c9190611a10565b60405180910390f35b61027d610bc1565b60405161028a9190611a10565b60405180910390f35b61029b610be7565b6040516102a89190611a10565b60405180910390f35b6102b9610c0d565b6040516102c69190611a44565b60405180910390f35b6102d7610c13565b6040516102e49190611a10565b60405180910390f35b6102f5610c39565b6040516103029190611a10565b60405180910390f35b610313610c5f565b6040516103209190611a44565b60405180910390f35b610331610c65565b60405161033e9190611a44565b60405180910390f35b610361600480360381019061035c919061199e565b610c6b565b60405161036e9190611a44565b60405180910390f35b61037f610c83565b60405161038c91906119e6565b60405180910390f35b61039d61103c565b6040516103aa9190611a44565b60405180910390f35b6103cd60048036038101906103c89190611b34565b611042565b6040516103da9190611a10565b60405180910390f35b6103eb611078565b6040516103f89190611a10565b60405180910390f35b61041b60048036038101906104169190611b34565b61109e565b005b61042561132e565b6040516104329190611a10565b60405180910390f35b610443611354565b6040516104509190611a10565b60405180910390f35b60186020528060005260406000206000915054906101000a900460ff1681565b600260009054906101000a900473ffffffffffffffffffffffffffffffffffffffff1681565b6000601760008373ffffffffffffffffffffffffffffffffffffffff1673ffffffffffffffffffffffffffffffffffffffff168152602001908152602001600020549050919050565b3373ffffffffffffffffffffffffffffffffffffffff167f000000000000000000000000000000000000000000000000000000000000000073ffffffffffffffffffffffffffffffffffffffff1614610576576040517f08c379a000000000000000000000000000000000000000000000000000000000815260040161056d90611bbe565b60405180910390fd5b6001601860008373ffffffffffffffffffffffffffffffffffffffff1673ffffffffffffffffffffffffffffffffffffffff16815260200190815260200160002060006101000a81548160ff02191690831515021790555050565b8060001515601860008373ffffffffffffffffffffffffffffffffffffffff1673ffffffffffffffffffffffffffffffffffffffff16815260200190815260200160002060009054906101000a900460ff16151514610665576040517f08c379a000000000000000000000000000000000000000000000000000000000815260040161065c90611c50565b60405180910390fd5b82601760003373ffffffffffffffffffffffffffffffffffffffff1673ffffffffffffffffffffffffffffffffffffffff1681526020019081526020016000205410156106e7576040517f08c379a00000000000000000000000000000000000000000000000000000000081526004016106de90611cbc565b60405180910390fd5b60006106f233611378565b90506106fc61187e565b61070461187e565b85601760003373ffffffffffffffffffffffffffffffffffffffff1673ffffffffffffffffffffffffffffffffffffffff16815260200190815260200160002060008282546107539190611d0b565b9250508190555085601760008773ffffffffffffffffffffffffffffffffffffffff1673ffffffffffffffffffffffffffffffffffffffff16815260200190815260200160002060008282546107a99190611d3f565b925050819055506000670de0b6b3a7640000876107c69190611da2565b9050600080600080600090505b600981101561083f57600061080686601984815481106107f6576107f5611dd3565b5b9060005260206000200154610b66565b80975081925050508088836009811061082257610821611dd3565b5b60200201818152505050808061083790611e02565b9150506107d3565b506000805b6009811015610b26578781600981106108605761085f611dd3565b5b602002015189826009811061087857610877611dd3565b5b60200201511061094c5787816009811061089557610894611dd3565b5b6020020151601982815481106108ae576108ad611dd3565b5b90600052602060002001546108c39190611e4a565b826108ce9190611d3f565b91508781600981106108e3576108e2611dd3565b5b60200201518782600981106108fb576108fa611dd3565b5b60200201818152505087816009811061091757610916611dd3565b5b602002015189826009811061092f5761092e611dd3565b5b602002018181516109409190611d0b565b91508181525050610b13565b600082670de0b6b3a76400008e6109639190611da2565b61096d9190611d0b565b9050600060018361097e9190611d0b565b90505b60008110610b0c576019818154811061099d5761099c611dd3565b5b9060005260206000200154821080156109cd575060008b82600981106109c6576109c5611dd3565b5b6020020151115b15610af95781601982815481106109e7576109e6611dd3565b5b90600052602060002001546109fc9190611d0b565b96508660198281548110610a1357610a12611dd3565b5b9060005260206000200154610a289190611d0b565b955060198181548110610a3e57610a3d611dd3565b5b906000526020600020015494506000600a8260098110610a6157610a60611dd3565b5b0160009054906101000a900473ffffffffffffffffffffffffffffffffffffffff1690508073ffffffffffffffffffffffffffffffffffffffff166383c587df3360006040518363ffffffff1660e01b8152600401610ac1929190611e8c565b600060405180830381600087803b158015610adb57600080fd5b505af1158015610aef573d6000803e3d6000fd5b5050505050610b0c565b8080610b0490611eb5565b915050610981565b5050610b26565b8080610b1e90611e02565b915050610844565b50610b33868b8686611484565b5050505050505050505050565b600560009054906101000a900473ffffffffffffffffffffffffffffffffffffffff1681565b60008060008385610b779190611da2565b90508385610b859190611ede565b6016819055508060165492509250509250929050565b600460009054906101000a900473ffffffffffffffffffffffffffffffffffffffff1681565b600160009054906101000a900473ffffffffffffffffffffffffffffffffffffffff1681565b600860009054906101000a900473ffffffffffffffffffffffffffffffffffffffff1681565b60135481565b600360009054906101000a900473ffffffffffffffffffffffffffffffffffffffff1681565b600960009054906101000a900473ffffffffffffffffffffffffffffffffffffffff1681565b60145481565b60165481565b60176020528060005260406000206000915090505481565b60003373ffffffffffffffffffffffffffffffffffffffff167f000000000000000000000000000000000000000000000000000000000000000073ffffffffffffffffffffffffffffffffffffffff1614610d13576040517f08c379a0000000000000000000000000000000000000000000000000000000008152600401610d0a90611bbe565b60405180910390fd5b60007327f2db78389654b645d3015cce02d0ef571b2b89905060007315c15bb162d31cd58890df3b4a38b59bd64d999c905060007349309576194e07a8d38078346783125aa2c38b389050600073d9df6acac6e676293f8c592de2b5b6b9db962ed99050600073490e7110ffdfbda02fb9144cb20d03303df2f8259050600073fc71d3049cdc12dcb30292d2cb9c7d154a8f69409050600073acc26dd287683db3a4350d352f10105bb652e1dc9050600073d1e69de132d8a0b3a5ab60cb196e365442f777b9905060007398f0b2f27b5e4304b42d9b77f0e594fc001f19bd9050600073c348a698ffa8600b58d6f52c6b112b4a7823e8fc905080600960006101000a81548173ffffffffffffffffffffffffffffffffffffffff021916908373ffffffffffffffffffffffffffffffffffffffff1602179055506040518061012001604052808373ffffffffffffffffffffffffffffffffffffffff1673ffffffffffffffffffffffffffffffffffffffff1681526020018473ffffffffffffffffffffffffffffffffffffffff1673ffffffffffffffffffffffffffffffffffffffff1681526020018573ffffffffffffffffffffffffffffffffffffffff1673ffffffffffffffffffffffffffffffffffffffff1681526020018673ffffffffffffffffffffffffffffffffffffffff1673ffffffffffffffffffffffffffffffffffffffff1681526020018773ffffffffffffffffffffffffffffffffffffffff1673ffffffffffffffffffffffffffffffffffffffff1681526020018873ffffffffffffffffffffffffffffffffffffffff1673ffffffffffffffffffffffffffffffffffffffff1681526020018973ffffffffffffffffffffffffffffffffffffffff1673ffffffffffffffffffffffffffffffffffffffff1681526020018a73ffffffffffffffffffffffffffffffffffffffff1673ffffffffffffffffffffffffffffffffffffffff1681526020018b73ffffffffffffffffffffffffffffffffffffffff1673ffffffffffffffffffffffffffffffffffffffff16815250600a90600961102a9291906118a1565b5060019a505050505050505050505090565b60155481565b600a816009811061105257600080fd5b016000915054906101000a900473ffffffffffffffffffffffffffffffffffffffff1681565b600660009054906101000a900473ffffffffffffffffffffffffffffffffffffffff1681565b6110a661187e565b6000600960009054906101000a900473ffffffffffffffffffffffffffffffffffffffff1690508073ffffffffffffffffffffffffffffffffffffffff166323b872dd3330866040518463ffffffff1660e01b815260040161110a93929190611f0f565b6020604051808303816000875af1158015611129573d6000803e3d6000fd5b505050506040513d601f19601f8201168201806040525081019061114d9190611f72565b506000670de0b6b3a7640000846111649190611da2565b905060005b60098110156111d557600061119c836019848154811061118c5761118b611dd3565b5b9060005260206000200154610b66565b8094508192505050808583600981106111b8576111b7611dd3565b5b6020020181815250505080806111cd90611e02565b915050611169565b5060005b60098110156112d15760005b8482600981106111f8576111f7611dd3565b5b60200201518110156112bd576000600a836009811061121a57611219611dd3565b5b0160009054906101000a900473ffffffffffffffffffffffffffffffffffffffff1690508073ffffffffffffffffffffffffffffffffffffffff166340d097c3336040518263ffffffff1660e01b81526004016112779190611a10565b600060405180830381600087803b15801561129157600080fd5b505af11580156112a5573d6000803e3d6000fd5b505050505080806112b590611e02565b9150506111e5565b5080806112c990611e02565b9150506111d9565b84601760003373ffffffffffffffffffffffffffffffffffffffff1673ffffffffffffffffffffffffffffffffffffffff16815260200190815260200160002060008282546113209190611d3f565b925050819055505050505050565b600760009054906101000a900473ffffffffffffffffffffffffffffffffffffffff1681565b60008054906101000a900473ffffffffffffffffffffffffffffffffffffffff1681565b61138061187e565b61138861187e565b60005b600981101561147a576000600a82600981106113aa576113a9611dd3565b5b0160009054906101000a900473ffffffffffffffffffffffffffffffffffffffff1690508073ffffffffffffffffffffffffffffffffffffffff166383e38d3b866040518263ffffffff1660e01b81526004016114079190611a10565b6020604051808303816000875af1158015611426573d6000803e3d6000fd5b505050506040513d601f19601f8201168201806040525081019061144a9190611fb4565b83836009811061145d5761145c611dd3565b5b60200201818152505050808061147290611e02565b91505061138b565b5080915050919050565b60005b60098110156115815760005b8582600981106114a6576114a5611dd3565b5b602002015181101561156d576000600a83600981106114c8576114c7611dd3565b5b0160009054906101000a900473ffffffffffffffffffffffffffffffffffffffff1690508073ffffffffffffffffffffffffffffffffffffffff166383c587df33886040518363ffffffff1660e01b8152600401611527929190611e8c565b600060405180830381600087803b15801561154157600080fd5b505af1158015611555573d6000803e3d6000fd5b5050505050808061156590611e02565b915050611493565b50808061157990611e02565b915050611487565b506000829050600082905061159461187e565b61159c61187e565b60005b600981101561160b5760006115d286601984815481106115c2576115c1611dd3565b5b9060005260206000200154610b66565b8097508192505050808483600981106115ee576115ed611dd3565b5b60200201818152505050808061160390611e02565b91505061159f565b5060005b60098110156117075760005b83826009811061162e5761162d611dd3565b5b60200201518110156116f3576000600a83600981106116505761164f611dd3565b5b0160009054906101000a900473ffffffffffffffffffffffffffffffffffffffff1690508073ffffffffffffffffffffffffffffffffffffffff166340d097c3336040518263ffffffff1660e01b81526004016116ad9190611a10565b600060405180830381600087803b1580156116c757600080fd5b505af11580156116db573d6000803e3d6000fd5b505050505080806116eb90611e02565b91505061161b565b5080806116ff90611e02565b91505061160f565b5060005b600981101561177757600061173e856019848154811061172e5761172d611dd3565b5b9060005260206000200154610b66565b80965081925050508083836009811061175a57611759611dd3565b5b60200201818152505050808061176f90611e02565b91505061170b565b5060005b60098110156118735760005b82826009811061179a57611799611dd3565b5b602002015181101561185f576000600a83600981106117bc576117bb611dd3565b5b0160009054906101000a900473ffffffffffffffffffffffffffffffffffffffff1690508073ffffffffffffffffffffffffffffffffffffffff166340d097c38b6040518263ffffffff1660e01b81526004016118199190611a10565b600060405180830381600087803b15801561183357600080fd5b505af1158015611847573d6000803e3d6000fd5b5050505050808061185790611e02565b915050611787565b50808061186b90611e02565b91505061177b565b505050505050505050565b604051806101200160405280600990602082028036833780820191505090505090565b826009810192821561190d579160200282015b8281111561190c5782518260006101000a81548173ffffffffffffffffffffffffffffffffffffffff021916908373ffffffffffffffffffffffffffffffffffffffff160217905550916020019190600101906118b4565b5b50905061191a919061191e565b5090565b5b8082111561193757600081600090555060010161191f565b5090565b600080fd5b600073ffffffffffffffffffffffffffffffffffffffff82169050919050565b600061196b82611940565b9050919050565b61197b81611960565b811461198657600080fd5b50565b60008135905061199881611972565b92915050565b6000602082840312156119b4576119b361193b565b5b60006119c284828501611989565b91505092915050565b60008115159050919050565b6119e0816119cb565b82525050565b60006020820190506119fb60008301846119d7565b92915050565b611a0a81611960565b82525050565b6000602082019050611a256000830184611a01565b92915050565b6000819050919050565b611a3e81611a2b565b82525050565b6000602082019050611a596000830184611a35565b92915050565b611a6881611a2b565b8114611a7357600080fd5b50565b600081359050611a8581611a5f565b92915050565b60008060408385031215611aa257611aa161193b565b5b6000611ab085828601611a76565b9250506020611ac185828601611989565b9150509250929050565b60008060408385031215611ae257611ae161193b565b5b6000611af085828601611a76565b9250506020611b0185828601611a76565b9150509250929050565b6000604082019050611b206000830185611a35565b611b2d6020830184611a35565b9392505050565b600060208284031215611b4a57611b4961193b565b5b6000611b5884828501611a76565b91505092915050565b600082825260208201905092915050565b7f63616e206f6e6c792062652063616c6c6564206279206f776e65720000000000600082015250565b6000611ba8601b83611b61565b9150611bb382611b72565b602082019050919050565b60006020820190508181036000830152611bd781611b9b565b9050919050565b7f72656369657665722773206164647265737320697320626c61636b6c6973746560008201527f6400000000000000000000000000000000000000000000000000000000000000602082015250565b6000611c3a602183611b61565b9150611c4582611bde565b604082019050919050565b60006020820190508181036000830152611c6981611c2d565b9050919050565b7f66756e647320617265206c657373207468616e20726571756573746564000000600082015250565b6000611ca6601d83611b61565b9150611cb182611c70565b602082019050919050565b60006020820190508181036000830152611cd581611c99565b9050919050565b7f4e487b7100000000000000000000000000000000000000000000000000000000600052601160045260246000fd5b6000611d1682611a2b565b9150611d2183611a2b565b9250828203905081811115611d3957611d38611cdc565b5b92915050565b6000611d4a82611a2b565b9150611d5583611a2b565b9250828201905080821115611d6d57611d6c611cdc565b5b92915050565b7f4e487b7100000000000000000000000000000000000000000000000000000000600052601260045260246000fd5b6000611dad82611a2b565b9150611db883611a2b565b925082611dc857611dc7611d73565b5b828204905092915050565b7f4e487b7100000000000000000000000000000000000000000000000000000000600052603260045260246000fd5b6000611e0d82611a2b565b91507fffffffffffffffffffffffffffffffffffffffffffffffffffffffffffffffff8203611e3f57611e3e611cdc565b5b600182019050919050565b6000611e5582611a2b565b9150611e6083611a2b565b9250828202611e6e81611a2b565b91508282048414831517611e8557611e84611cdc565b5b5092915050565b6000604082019050611ea16000830185611a01565b611eae6020830184611a01565b9392505050565b6000611ec082611a2b565b915060008203611ed357611ed2611cdc565b5b600182039050919050565b6000611ee982611a2b565b9150611ef483611a2b565b925082611f0457611f03611d73565b5b828206905092915050565b6000606082019050611f246000830186611a01565b611f316020830185611a01565b611f3e6040830184611a35565b949350505050565b611f4f816119cb565b8114611f5a57600080fd5b50565b600081519050611f6c81611f46565b92915050565b600060208284031215611f8857611f8761193b565b5b6000611f9684828501611f5d565b91505092915050565b600081519050611fae81611a5f565b92915050565b600060208284031215611fca57611fc961193b565b5b6000611fd884828501611f9f565b9150509291505056fea2646970667358221220a762f54bddc74b2c3ae047228516ef8b1e31e1ae27073972c29f2e9156efe51a64736f6c63430008150033",
					"opcodes": "PUSH1 0xA0 PUSH1 0x40 MSTORE PUSH1 0x0 PUSH1 0x13 SSTORE PUSH1 0x40 MLOAD DUP1 PUSH2 0x120 ADD PUSH1 0x40 MSTORE DUP1 PUSH2 0x1F4 PUSH2 0xFFFF AND DUP2 MSTORE PUSH1 0x20 ADD PUSH1 0xC8 PUSH2 0xFFFF AND DUP2 MSTORE PUSH1 0x20 ADD PUSH1 0x64 PUSH2 0xFFFF AND DUP2 MSTORE PUSH1 0x20 ADD PUSH1 0x32 PUSH2 0xFFFF AND DUP2 MSTORE PUSH1 0x20 ADD PUSH1 0x14 PUSH2 0xFFFF AND DUP2 MSTORE PUSH1 0x20 ADD PUSH1 0xA PUSH2 0xFFFF AND DUP2 MSTORE PUSH1 0x20 ADD PUSH1 0x5 PUSH2 0xFFFF AND DUP2 MSTORE PUSH1 0x20 ADD PUSH1 0x2 PUSH2 0xFFFF AND DUP2 MSTORE PUSH1 0x20 ADD PUSH1 0x1 PUSH2 0xFFFF AND DUP2 MSTORE POP PUSH1 0x19 SWAP1 PUSH1 0x9 PUSH3 0x89 SWAP3 SWAP2 SWAP1 PUSH3 0xD2 JUMP JUMPDEST POP CALLVALUE DUP1 ISZERO PUSH3 0x97 JUMPI PUSH1 0x0 DUP1 REVERT JUMPDEST POP CALLER PUSH20 0xFFFFFFFFFFFFFFFFFFFFFFFFFFFFFFFFFFFFFFFF AND PUSH1 0x80 DUP2 PUSH20 0xFFFFFFFFFFFFFFFFFFFFFFFFFFFFFFFFFFFFFFFF AND DUP2 MSTORE POP POP PUSH3 0x149 JUMP JUMPDEST DUP3 DUP1 SLOAD DUP3 DUP3 SSTORE SWAP1 PUSH1 0x0 MSTORE PUSH1 0x20 PUSH1 0x0 KECCAK256 SWAP1 DUP2 ADD SWAP3 DUP3 ISZERO PUSH3 0x117 JUMPI SWAP2 PUSH1 0x20 MUL DUP3 ADD JUMPDEST DUP3 DUP2 GT ISZERO PUSH3 0x116 JUMPI DUP3 MLOAD DUP3 SWAP1 PUSH2 0xFFFF AND SWAP1 SSTORE SWAP2 PUSH1 0x20 ADD SWAP2 SWAP1 PUSH1 0x1 ADD SWAP1 PUSH3 0xF3 JUMP JUMPDEST JUMPDEST POP SWAP1 POP PUSH3 0x126 SWAP2 SWAP1 PUSH3 0x12A JUMP JUMPDEST POP SWAP1 JUMP JUMPDEST JUMPDEST DUP1 DUP3 GT ISZERO PUSH3 0x145 JUMPI PUSH1 0x0 DUP2 PUSH1 0x0 SWAP1 SSTORE POP PUSH1 0x1 ADD PUSH3 0x12B JUMP JUMPDEST POP SWAP1 JUMP JUMPDEST PUSH1 0x80 MLOAD PUSH2 0x2017 PUSH3 0x16C PUSH1 0x0 CODECOPY PUSH1 0x0 DUP2 DUP2 PUSH2 0x501 ADD MSTORE PUSH2 0xC9E ADD MSTORE PUSH2 0x2017 PUSH1 0x0 RETURN INVALID PUSH1 0x80 PUSH1 0x40 MSTORE CALLVALUE DUP1 ISZERO PUSH2 0x10 JUMPI PUSH1 0x0 DUP1 REVERT JUMPDEST POP PUSH1 0x4 CALLDATASIZE LT PUSH2 0x14D JUMPI PUSH1 0x0 CALLDATALOAD PUSH1 0xE0 SHR DUP1 PUSH4 0xB150019A GT PUSH2 0xC3 JUMPI DUP1 PUSH4 0xE84530FB GT PUSH2 0x7C JUMPI DUP1 PUSH4 0xE84530FB EQ PUSH2 0x395 JUMPI DUP1 PUSH4 0xEB4F81F3 EQ PUSH2 0x3B3 JUMPI DUP1 PUSH4 0xF0483D73 EQ PUSH2 0x3E3 JUMPI DUP1 PUSH4 0xF5091598 EQ PUSH2 0x401 JUMPI DUP1 PUSH4 0xFA137B2A EQ PUSH2 0x41D JUMPI DUP1 PUSH4 0xFC07DBB8 EQ PUSH2 0x43B JUMPI PUSH2 0x14D JUMP JUMPDEST DUP1 PUSH4 0xB150019A EQ PUSH2 0x2CF JUMPI DUP1 PUSH4 0xCCA79636 EQ PUSH2 0x2ED JUMPI DUP1 PUSH4 0xD26813D3 EQ PUSH2 0x30B JUMPI DUP1 PUSH4 0xD68CFC14 EQ PUSH2 0x329 JUMPI DUP1 PUSH4 0xDD188DC3 EQ PUSH2 0x347 JUMPI DUP1 PUSH4 0xE0D6D530 EQ PUSH2 0x377 JUMPI PUSH2 0x14D JUMP JUMPDEST DUP1 PUSH4 0x588A2C09 GT PUSH2 0x115 JUMPI DUP1 PUSH4 0x588A2C09 EQ PUSH2 0x208 JUMPI DUP1 PUSH4 0x600FA18E EQ PUSH2 0x226 JUMPI DUP1 PUSH4 0x6AFFB729 EQ PUSH2 0x257 JUMPI DUP1 PUSH4 0x70CD47DF EQ PUSH2 0x275 JUMPI DUP1 PUSH4 0x9A5B9D62 EQ PUSH2 0x293 JUMPI DUP1 PUSH4 0xA805588E EQ PUSH2 0x2B1 JUMPI PUSH2 0x14D JUMP JUMPDEST DUP1 PUSH4 0x26541B4A EQ PUSH2 0x152 JUMPI DUP1 PUSH4 0x3EF0116D EQ PUSH2 0x182 JUMPI DUP1 PUSH4 0x43D6A6A2 EQ PUSH2 0x1A0 JUMPI DUP1 PUSH4 0x4838D165 EQ PUSH2 0x1D0 JUMPI DUP1 PUSH4 0x4CA9DEB9 EQ PUSH2 0x1EC JUMPI JUMPDEST PUSH1 0x0 DUP1 REVERT JUMPDEST PUSH2 0x16C PUSH1 0x4 DUP1 CALLDATASIZE SUB DUP2 ADD SWAP1 PUSH2 0x167 SWAP2 SWAP1 PUSH2 0x199E JUMP JUMPDEST PUSH2 0x459 JUMP JUMPDEST PUSH1 0x40 MLOAD PUSH2 0x179 SWAP2 SWAP1 PUSH2 0x19E6 JUMP JUMPDEST PUSH1 0x40 MLOAD DUP1 SWAP2 SUB SWAP1 RETURN JUMPDEST PUSH2 0x18A PUSH2 0x479 JUMP JUMPDEST PUSH1 0x40 MLOAD PUSH2 0x197 SWAP2 SWAP1 PUSH2 0x1A10 JUMP JUMPDEST PUSH1 0x40 MLOAD DUP1 SWAP2 SUB SWAP1 RETURN JUMPDEST PUSH2 0x1BA PUSH1 0x4 DUP1 CALLDATASIZE SUB DUP2 ADD SWAP1 PUSH2 0x1B5 SWAP2 SWAP1 PUSH2 0x199E JUMP JUMPDEST PUSH2 0x49F JUMP JUMPDEST PUSH1 0x40 MLOAD PUSH2 0x1C7 SWAP2 SWAP1 PUSH2 0x1A44 JUMP JUMPDEST PUSH1 0x40 MLOAD DUP1 SWAP2 SUB SWAP1 RETURN JUMPDEST PUSH2 0x1EA PUSH1 0x4 DUP1 CALLDATASIZE SUB DUP2 ADD SWAP1 PUSH2 0x1E5 SWAP2 SWAP1 PUSH2 0x199E JUMP JUMPDEST PUSH2 0x4E8 JUMP JUMPDEST STOP JUMPDEST PUSH2 0x206 PUSH1 0x4 DUP1 CALLDATASIZE SUB DUP2 ADD SWAP1 PUSH2 0x201 SWAP2 SWAP1 PUSH2 0x1A8B JUMP JUMPDEST PUSH2 0x5D1 JUMP JUMPDEST STOP JUMPDEST PUSH2 0x210 PUSH2 0xB40 JUMP JUMPDEST PUSH1 0x40 MLOAD PUSH2 0x21D SWAP2 SWAP1 PUSH2 0x1A10 JUMP JUMPDEST PUSH1 0x40 MLOAD DUP1 SWAP2 SUB SWAP1 RETURN JUMPDEST PUSH2 0x240 PUSH1 0x4 DUP1 CALLDATASIZE SUB DUP2 ADD SWAP1 PUSH2 0x23B SWAP2 SWAP1 PUSH2 0x1ACB JUMP JUMPDEST PUSH2 0xB66 JUMP JUMPDEST PUSH1 0x40 MLOAD PUSH2 0x24E SWAP3 SWAP2 SWAP1 PUSH2 0x1B0B JUMP JUMPDEST PUSH1 0x40 MLOAD DUP1 SWAP2 SUB SWAP1 RETURN JUMPDEST PUSH2 0x25F PUSH2 0xB9B JUMP JUMPDEST PUSH1 0x40 MLOAD PUSH2 0x26C SWAP2 SWAP1 PUSH2 0x1A10 JUMP JUMPDEST PUSH1 0x40 MLOAD DUP1 SWAP2 SUB SWAP1 RETURN JUMPDEST PUSH2 0x27D PUSH2 0xBC1 JUMP JUMPDEST PUSH1 0x40 MLOAD PUSH2 0x28A SWAP2 SWAP1 PUSH2 0x1A10 JUMP JUMPDEST PUSH1 0x40 MLOAD DUP1 SWAP2 SUB SWAP1 RETURN JUMPDEST PUSH2 0x29B PUSH2 0xBE7 JUMP JUMPDEST PUSH1 0x40 MLOAD PUSH2 0x2A8 SWAP2 SWAP1 PUSH2 0x1A10 JUMP JUMPDEST PUSH1 0x40 MLOAD DUP1 SWAP2 SUB SWAP1 RETURN JUMPDEST PUSH2 0x2B9 PUSH2 0xC0D JUMP JUMPDEST PUSH1 0x40 MLOAD PUSH2 0x2C6 SWAP2 SWAP1 PUSH2 0x1A44 JUMP JUMPDEST PUSH1 0x40 MLOAD DUP1 SWAP2 SUB SWAP1 RETURN JUMPDEST PUSH2 0x2D7 PUSH2 0xC13 JUMP JUMPDEST PUSH1 0x40 MLOAD PUSH2 0x2E4 SWAP2 SWAP1 PUSH2 0x1A10 JUMP JUMPDEST PUSH1 0x40 MLOAD DUP1 SWAP2 SUB SWAP1 RETURN JUMPDEST PUSH2 0x2F5 PUSH2 0xC39 JUMP JUMPDEST PUSH1 0x40 MLOAD PUSH2 0x302 SWAP2 SWAP1 PUSH2 0x1A10 JUMP JUMPDEST PUSH1 0x40 MLOAD DUP1 SWAP2 SUB SWAP1 RETURN JUMPDEST PUSH2 0x313 PUSH2 0xC5F JUMP JUMPDEST PUSH1 0x40 MLOAD PUSH2 0x320 SWAP2 SWAP1 PUSH2 0x1A44 JUMP JUMPDEST PUSH1 0x40 MLOAD DUP1 SWAP2 SUB SWAP1 RETURN JUMPDEST PUSH2 0x331 PUSH2 0xC65 JUMP JUMPDEST PUSH1 0x40 MLOAD PUSH2 0x33E SWAP2 SWAP1 PUSH2 0x1A44 JUMP JUMPDEST PUSH1 0x40 MLOAD DUP1 SWAP2 SUB SWAP1 RETURN JUMPDEST PUSH2 0x361 PUSH1 0x4 DUP1 CALLDATASIZE SUB DUP2 ADD SWAP1 PUSH2 0x35C SWAP2 SWAP1 PUSH2 0x199E JUMP JUMPDEST PUSH2 0xC6B JUMP JUMPDEST PUSH1 0x40 MLOAD PUSH2 0x36E SWAP2 SWAP1 PUSH2 0x1A44 JUMP JUMPDEST PUSH1 0x40 MLOAD DUP1 SWAP2 SUB SWAP1 RETURN JUMPDEST PUSH2 0x37F PUSH2 0xC83 JUMP JUMPDEST PUSH1 0x40 MLOAD PUSH2 0x38C SWAP2 SWAP1 PUSH2 0x19E6 JUMP JUMPDEST PUSH1 0x40 MLOAD DUP1 SWAP2 SUB SWAP1 RETURN JUMPDEST PUSH2 0x39D PUSH2 0x103C JUMP JUMPDEST PUSH1 0x40 MLOAD PUSH2 0x3AA SWAP2 SWAP1 PUSH2 0x1A44 JUMP JUMPDEST PUSH1 0x40 MLOAD DUP1 SWAP2 SUB SWAP1 RETURN JUMPDEST PUSH2 0x3CD PUSH1 0x4 DUP1 CALLDATASIZE SUB DUP2 ADD SWAP1 PUSH2 0x3C8 SWAP2 SWAP1 PUSH2 0x1B34 JUMP JUMPDEST PUSH2 0x1042 JUMP JUMPDEST PUSH1 0x40 MLOAD PUSH2 0x3DA SWAP2 SWAP1 PUSH2 0x1A10 JUMP JUMPDEST PUSH1 0x40 MLOAD DUP1 SWAP2 SUB SWAP1 RETURN JUMPDEST PUSH2 0x3EB PUSH2 0x1078 JUMP JUMPDEST PUSH1 0x40 MLOAD PUSH2 0x3F8 SWAP2 SWAP1 PUSH2 0x1A10 JUMP JUMPDEST PUSH1 0x40 MLOAD DUP1 SWAP2 SUB SWAP1 RETURN JUMPDEST PUSH2 0x41B PUSH1 0x4 DUP1 CALLDATASIZE SUB DUP2 ADD SWAP1 PUSH2 0x416 SWAP2 SWAP1 PUSH2 0x1B34 JUMP JUMPDEST PUSH2 0x109E JUMP JUMPDEST STOP JUMPDEST PUSH2 0x425 PUSH2 0x132E JUMP JUMPDEST PUSH1 0x40 MLOAD PUSH2 0x432 SWAP2 SWAP1 PUSH2 0x1A10 JUMP JUMPDEST PUSH1 0x40 MLOAD DUP1 SWAP2 SUB SWAP1 RETURN JUMPDEST PUSH2 0x443 PUSH2 0x1354 JUMP JUMPDEST PUSH1 0x40 MLOAD PUSH2 0x450 SWAP2 SWAP1 PUSH2 0x1A10 JUMP JUMPDEST PUSH1 0x40 MLOAD DUP1 SWAP2 SUB SWAP1 RETURN JUMPDEST PUSH1 0x18 PUSH1 0x20 MSTORE DUP1 PUSH1 0x0 MSTORE PUSH1 0x40 PUSH1 0x0 KECCAK256 PUSH1 0x0 SWAP2 POP SLOAD SWAP1 PUSH2 0x100 EXP SWAP1 DIV PUSH1 0xFF AND DUP2 JUMP JUMPDEST PUSH1 0x2 PUSH1 0x0 SWAP1 SLOAD SWAP1 PUSH2 0x100 EXP SWAP1 DIV PUSH20 0xFFFFFFFFFFFFFFFFFFFFFFFFFFFFFFFFFFFFFFFF AND DUP2 JUMP JUMPDEST PUSH1 0x0 PUSH1 0x17 PUSH1 0x0 DUP4 PUSH20 0xFFFFFFFFFFFFFFFFFFFFFFFFFFFFFFFFFFFFFFFF AND PUSH20 0xFFFFFFFFFFFFFFFFFFFFFFFFFFFFFFFFFFFFFFFF AND DUP2 MSTORE PUSH1 0x20 ADD SWAP1 DUP2 MSTORE PUSH1 0x20 ADD PUSH1 0x0 KECCAK256 SLOAD SWAP1 POP SWAP2 SWAP1 POP JUMP JUMPDEST CALLER PUSH20 0xFFFFFFFFFFFFFFFFFFFFFFFFFFFFFFFFFFFFFFFF AND PUSH32 0x0 PUSH20 0xFFFFFFFFFFFFFFFFFFFFFFFFFFFFFFFFFFFFFFFF AND EQ PUSH2 0x576 JUMPI PUSH1 0x40 MLOAD PUSH32 0x8C379A000000000000000000000000000000000000000000000000000000000 DUP2 MSTORE PUSH1 0x4 ADD PUSH2 0x56D SWAP1 PUSH2 0x1BBE JUMP JUMPDEST PUSH1 0x40 MLOAD DUP1 SWAP2 SUB SWAP1 REVERT JUMPDEST PUSH1 0x1 PUSH1 0x18 PUSH1 0x0 DUP4 PUSH20 0xFFFFFFFFFFFFFFFFFFFFFFFFFFFFFFFFFFFFFFFF AND PUSH20 0xFFFFFFFFFFFFFFFFFFFFFFFFFFFFFFFFFFFFFFFF AND DUP2 MSTORE PUSH1 0x20 ADD SWAP1 DUP2 MSTORE PUSH1 0x20 ADD PUSH1 0x0 KECCAK256 PUSH1 0x0 PUSH2 0x100 EXP DUP2 SLOAD DUP2 PUSH1 0xFF MUL NOT AND SWAP1 DUP4 ISZERO ISZERO MUL OR SWAP1 SSTORE POP POP JUMP JUMPDEST DUP1 PUSH1 0x0 ISZERO ISZERO PUSH1 0x18 PUSH1 0x0 DUP4 PUSH20 0xFFFFFFFFFFFFFFFFFFFFFFFFFFFFFFFFFFFFFFFF AND PUSH20 0xFFFFFFFFFFFFFFFFFFFFFFFFFFFFFFFFFFFFFFFF AND DUP2 MSTORE PUSH1 0x20 ADD SWAP1 DUP2 MSTORE PUSH1 0x20 ADD PUSH1 0x0 KECCAK256 PUSH1 0x0 SWAP1 SLOAD SWAP1 PUSH2 0x100 EXP SWAP1 DIV PUSH1 0xFF AND ISZERO ISZERO EQ PUSH2 0x665 JUMPI PUSH1 0x40 MLOAD PUSH32 0x8C379A000000000000000000000000000000000000000000000000000000000 DUP2 MSTORE PUSH1 0x4 ADD PUSH2 0x65C SWAP1 PUSH2 0x1C50 JUMP JUMPDEST PUSH1 0x40 MLOAD DUP1 SWAP2 SUB SWAP1 REVERT JUMPDEST DUP3 PUSH1 0x17 PUSH1 0x0 CALLER PUSH20 0xFFFFFFFFFFFFFFFFFFFFFFFFFFFFFFFFFFFFFFFF AND PUSH20 0xFFFFFFFFFFFFFFFFFFFFFFFFFFFFFFFFFFFFFFFF AND DUP2 MSTORE PUSH1 0x20 ADD SWAP1 DUP2 MSTORE PUSH1 0x20 ADD PUSH1 0x0 KECCAK256 SLOAD LT ISZERO PUSH2 0x6E7 JUMPI PUSH1 0x40 MLOAD PUSH32 0x8C379A000000000000000000000000000000000000000000000000000000000 DUP2 MSTORE PUSH1 0x4 ADD PUSH2 0x6DE SWAP1 PUSH2 0x1CBC JUMP JUMPDEST PUSH1 0x40 MLOAD DUP1 SWAP2 SUB SWAP1 REVERT JUMPDEST PUSH1 0x0 PUSH2 0x6F2 CALLER PUSH2 0x1378 JUMP JUMPDEST SWAP1 POP PUSH2 0x6FC PUSH2 0x187E JUMP JUMPDEST PUSH2 0x704 PUSH2 0x187E JUMP JUMPDEST DUP6 PUSH1 0x17 PUSH1 0x0 CALLER PUSH20 0xFFFFFFFFFFFFFFFFFFFFFFFFFFFFFFFFFFFFFFFF AND PUSH20 0xFFFFFFFFFFFFFFFFFFFFFFFFFFFFFFFFFFFFFFFF AND DUP2 MSTORE PUSH1 0x20 ADD SWAP1 DUP2 MSTORE PUSH1 0x20 ADD PUSH1 0x0 KECCAK256 PUSH1 0x0 DUP3 DUP3 SLOAD PUSH2 0x753 SWAP2 SWAP1 PUSH2 0x1D0B JUMP JUMPDEST SWAP3 POP POP DUP2 SWAP1 SSTORE POP DUP6 PUSH1 0x17 PUSH1 0x0 DUP8 PUSH20 0xFFFFFFFFFFFFFFFFFFFFFFFFFFFFFFFFFFFFFFFF AND PUSH20 0xFFFFFFFFFFFFFFFFFFFFFFFFFFFFFFFFFFFFFFFF AND DUP2 MSTORE PUSH1 0x20 ADD SWAP1 DUP2 MSTORE PUSH1 0x20 ADD PUSH1 0x0 KECCAK256 PUSH1 0x0 DUP3 DUP3 SLOAD PUSH2 0x7A9 SWAP2 SWAP1 PUSH2 0x1D3F JUMP JUMPDEST SWAP3 POP POP DUP2 SWAP1 SSTORE POP PUSH1 0x0 PUSH8 0xDE0B6B3A7640000 DUP8 PUSH2 0x7C6 SWAP2 SWAP1 PUSH2 0x1DA2 JUMP JUMPDEST SWAP1 POP PUSH1 0x0 DUP1 PUSH1 0x0 DUP1 PUSH1 0x0 SWAP1 POP JUMPDEST PUSH1 0x9 DUP2 LT ISZERO PUSH2 0x83F JUMPI PUSH1 0x0 PUSH2 0x806 DUP7 PUSH1 0x19 DUP5 DUP2 SLOAD DUP2 LT PUSH2 0x7F6 JUMPI PUSH2 0x7F5 PUSH2 0x1DD3 JUMP JUMPDEST JUMPDEST SWAP1 PUSH1 0x0 MSTORE PUSH1 0x20 PUSH1 0x0 KECCAK256 ADD SLOAD PUSH2 0xB66 JUMP JUMPDEST DUP1 SWAP8 POP DUP2 SWAP3 POP POP POP DUP1 DUP9 DUP4 PUSH1 0x9 DUP2 LT PUSH2 0x822 JUMPI PUSH2 0x821 PUSH2 0x1DD3 JUMP JUMPDEST JUMPDEST PUSH1 0x20 MUL ADD DUP2 DUP2 MSTORE POP POP POP DUP1 DUP1 PUSH2 0x837 SWAP1 PUSH2 0x1E02 JUMP JUMPDEST SWAP2 POP POP PUSH2 0x7D3 JUMP JUMPDEST POP PUSH1 0x0 DUP1 JUMPDEST PUSH1 0x9 DUP2 LT ISZERO PUSH2 0xB26 JUMPI DUP8 DUP2 PUSH1 0x9 DUP2 LT PUSH2 0x860 JUMPI PUSH2 0x85F PUSH2 0x1DD3 JUMP JUMPDEST JUMPDEST PUSH1 0x20 MUL ADD MLOAD DUP10 DUP3 PUSH1 0x9 DUP2 LT PUSH2 0x878 JUMPI PUSH2 0x877 PUSH2 0x1DD3 JUMP JUMPDEST JUMPDEST PUSH1 0x20 MUL ADD MLOAD LT PUSH2 0x94C JUMPI DUP8 DUP2 PUSH1 0x9 DUP2 LT PUSH2 0x895 JUMPI PUSH2 0x894 PUSH2 0x1DD3 JUMP JUMPDEST JUMPDEST PUSH1 0x20 MUL ADD MLOAD PUSH1 0x19 DUP3 DUP2 SLOAD DUP2 LT PUSH2 0x8AE JUMPI PUSH2 0x8AD PUSH2 0x1DD3 JUMP JUMPDEST JUMPDEST SWAP1 PUSH1 0x0 MSTORE PUSH1 0x20 PUSH1 0x0 KECCAK256 ADD SLOAD PUSH2 0x8C3 SWAP2 SWAP1 PUSH2 0x1E4A JUMP JUMPDEST DUP3 PUSH2 0x8CE SWAP2 SWAP1 PUSH2 0x1D3F JUMP JUMPDEST SWAP2 POP DUP8 DUP2 PUSH1 0x9 DUP2 LT PUSH2 0x8E3 JUMPI PUSH2 0x8E2 PUSH2 0x1DD3 JUMP JUMPDEST JUMPDEST PUSH1 0x20 MUL ADD MLOAD DUP8 DUP3 PUSH1 0x9 DUP2 LT PUSH2 0x8FB JUMPI PUSH2 0x8FA PUSH2 0x1DD3 JUMP JUMPDEST JUMPDEST PUSH1 0x20 MUL ADD DUP2 DUP2 MSTORE POP POP DUP8 DUP2 PUSH1 0x9 DUP2 LT PUSH2 0x917 JUMPI PUSH2 0x916 PUSH2 0x1DD3 JUMP JUMPDEST JUMPDEST PUSH1 0x20 MUL ADD MLOAD DUP10 DUP3 PUSH1 0x9 DUP2 LT PUSH2 0x92F JUMPI PUSH2 0x92E PUSH2 0x1DD3 JUMP JUMPDEST JUMPDEST PUSH1 0x20 MUL ADD DUP2 DUP2 MLOAD PUSH2 0x940 SWAP2 SWAP1 PUSH2 0x1D0B JUMP JUMPDEST SWAP2 POP DUP2 DUP2 MSTORE POP POP PUSH2 0xB13 JUMP JUMPDEST PUSH1 0x0 DUP3 PUSH8 0xDE0B6B3A7640000 DUP15 PUSH2 0x963 SWAP2 SWAP1 PUSH2 0x1DA2 JUMP JUMPDEST PUSH2 0x96D SWAP2 SWAP1 PUSH2 0x1D0B JUMP JUMPDEST SWAP1 POP PUSH1 0x0 PUSH1 0x1 DUP4 PUSH2 0x97E SWAP2 SWAP1 PUSH2 0x1D0B JUMP JUMPDEST SWAP1 POP JUMPDEST PUSH1 0x0 DUP2 LT PUSH2 0xB0C JUMPI PUSH1 0x19 DUP2 DUP2 SLOAD DUP2 LT PUSH2 0x99D JUMPI PUSH2 0x99C PUSH2 0x1DD3 JUMP JUMPDEST JUMPDEST SWAP1 PUSH1 0x0 MSTORE PUSH1 0x20 PUSH1 0x0 KECCAK256 ADD SLOAD DUP3 LT DUP1 ISZERO PUSH2 0x9CD JUMPI POP PUSH1 0x0 DUP12 DUP3 PUSH1 0x9 DUP2 LT PUSH2 0x9C6 JUMPI PUSH2 0x9C5 PUSH2 0x1DD3 JUMP JUMPDEST JUMPDEST PUSH1 0x20 MUL ADD MLOAD GT JUMPDEST ISZERO PUSH2 0xAF9 JUMPI DUP2 PUSH1 0x19 DUP3 DUP2 SLOAD DUP2 LT PUSH2 0x9E7 JUMPI PUSH2 0x9E6 PUSH2 0x1DD3 JUMP JUMPDEST JUMPDEST SWAP1 PUSH1 0x0 MSTORE PUSH1 0x20 PUSH1 0x0 KECCAK256 ADD SLOAD PUSH2 0x9FC SWAP2 SWAP1 PUSH2 0x1D0B JUMP JUMPDEST SWAP7 POP DUP7 PUSH1 0x19 DUP3 DUP2 SLOAD DUP2 LT PUSH2 0xA13 JUMPI PUSH2 0xA12 PUSH2 0x1DD3 JUMP JUMPDEST JUMPDEST SWAP1 PUSH1 0x0 MSTORE PUSH1 0x20 PUSH1 0x0 KECCAK256 ADD SLOAD PUSH2 0xA28 SWAP2 SWAP1 PUSH2 0x1D0B JUMP JUMPDEST SWAP6 POP PUSH1 0x19 DUP2 DUP2 SLOAD DUP2 LT PUSH2 0xA3E JUMPI PUSH2 0xA3D PUSH2 0x1DD3 JUMP JUMPDEST JUMPDEST SWAP1 PUSH1 0x0 MSTORE PUSH1 0x20 PUSH1 0x0 KECCAK256 ADD SLOAD SWAP5 POP PUSH1 0x0 PUSH1 0xA DUP3 PUSH1 0x9 DUP2 LT PUSH2 0xA61 JUMPI PUSH2 0xA60 PUSH2 0x1DD3 JUMP JUMPDEST JUMPDEST ADD PUSH1 0x0 SWAP1 SLOAD SWAP1 PUSH2 0x100 EXP SWAP1 DIV PUSH20 0xFFFFFFFFFFFFFFFFFFFFFFFFFFFFFFFFFFFFFFFF AND SWAP1 POP DUP1 PUSH20 0xFFFFFFFFFFFFFFFFFFFFFFFFFFFFFFFFFFFFFFFF AND PUSH4 0x83C587DF CALLER PUSH1 0x0 PUSH1 0x40 MLOAD DUP4 PUSH4 0xFFFFFFFF AND PUSH1 0xE0 SHL DUP2 MSTORE PUSH1 0x4 ADD PUSH2 0xAC1 SWAP3 SWAP2 SWAP1 PUSH2 0x1E8C JUMP JUMPDEST PUSH1 0x0 PUSH1 0x40 MLOAD DUP1 DUP4 SUB DUP2 PUSH1 0x0 DUP8 DUP1 EXTCODESIZE ISZERO DUP1 ISZERO PUSH2 0xADB JUMPI PUSH1 0x0 DUP1 REVERT JUMPDEST POP GAS CALL ISZERO DUP1 ISZERO PUSH2 0xAEF JUMPI RETURNDATASIZE PUSH1 0x0 DUP1 RETURNDATACOPY RETURNDATASIZE PUSH1 0x0 REVERT JUMPDEST POP POP POP POP POP PUSH2 0xB0C JUMP JUMPDEST DUP1 DUP1 PUSH2 0xB04 SWAP1 PUSH2 0x1EB5 JUMP JUMPDEST SWAP2 POP POP PUSH2 0x981 JUMP JUMPDEST POP POP PUSH2 0xB26 JUMP JUMPDEST DUP1 DUP1 PUSH2 0xB1E SWAP1 PUSH2 0x1E02 JUMP JUMPDEST SWAP2 POP POP PUSH2 0x844 JUMP JUMPDEST POP PUSH2 0xB33 DUP7 DUP12 DUP7 DUP7 PUSH2 0x1484 JUMP JUMPDEST POP POP POP POP POP POP POP POP POP POP POP JUMP JUMPDEST PUSH1 0x5 PUSH1 0x0 SWAP1 SLOAD SWAP1 PUSH2 0x100 EXP SWAP1 DIV PUSH20 0xFFFFFFFFFFFFFFFFFFFFFFFFFFFFFFFFFFFFFFFF AND DUP2 JUMP JUMPDEST PUSH1 0x0 DUP1 PUSH1 0x0 DUP4 DUP6 PUSH2 0xB77 SWAP2 SWAP1 PUSH2 0x1DA2 JUMP JUMPDEST SWAP1 POP DUP4 DUP6 PUSH2 0xB85 SWAP2 SWAP1 PUSH2 0x1EDE JUMP JUMPDEST PUSH1 0x16 DUP2 SWAP1 SSTORE POP DUP1 PUSH1 0x16 SLOAD SWAP3 POP SWAP3 POP POP SWAP3 POP SWAP3 SWAP1 POP JUMP JUMPDEST PUSH1 0x4 PUSH1 0x0 SWAP1 SLOAD SWAP1 PUSH2 0x100 EXP SWAP1 DIV PUSH20 0xFFFFFFFFFFFFFFFFFFFFFFFFFFFFFFFFFFFFFFFF AND DUP2 JUMP JUMPDEST PUSH1 0x1 PUSH1 0x0 SWAP1 SLOAD SWAP1 PUSH2 0x100 EXP SWAP1 DIV PUSH20 0xFFFFFFFFFFFFFFFFFFFFFFFFFFFFFFFFFFFFFFFF AND DUP2 JUMP JUMPDEST PUSH1 0x8 PUSH1 0x0 SWAP1 SLOAD SWAP1 PUSH2 0x100 EXP SWAP1 DIV PUSH20 0xFFFFFFFFFFFFFFFFFFFFFFFFFFFFFFFFFFFFFFFF AND DUP2 JUMP JUMPDEST PUSH1 0x13 SLOAD DUP2 JUMP JUMPDEST PUSH1 0x3 PUSH1 0x0 SWAP1 SLOAD SWAP1 PUSH2 0x100 EXP SWAP1 DIV PUSH20 0xFFFFFFFFFFFFFFFFFFFFFFFFFFFFFFFFFFFFFFFF AND DUP2 JUMP JUMPDEST PUSH1 0x9 PUSH1 0x0 SWAP1 SLOAD SWAP1 PUSH2 0x100 EXP SWAP1 DIV PUSH20 0xFFFFFFFFFFFFFFFFFFFFFFFFFFFFFFFFFFFFFFFF AND DUP2 JUMP JUMPDEST PUSH1 0x14 SLOAD DUP2 JUMP JUMPDEST PUSH1 0x16 SLOAD DUP2 JUMP JUMPDEST PUSH1 0x17 PUSH1 0x20 MSTORE DUP1 PUSH1 0x0 MSTORE PUSH1 0x40 PUSH1 0x0 KECCAK256 PUSH1 0x0 SWAP2 POP SWAP1 POP SLOAD DUP2 JUMP JUMPDEST PUSH1 0x0 CALLER PUSH20 0xFFFFFFFFFFFFFFFFFFFFFFFFFFFFFFFFFFFFFFFF AND PUSH32 0x0 PUSH20 0xFFFFFFFFFFFFFFFFFFFFFFFFFFFFFFFFFFFFFFFF AND EQ PUSH2 0xD13 JUMPI PUSH1 0x40 MLOAD PUSH32 0x8C379A000000000000000000000000000000000000000000000000000000000 DUP2 MSTORE PUSH1 0x4 ADD PUSH2 0xD0A SWAP1 PUSH2 0x1BBE JUMP JUMPDEST PUSH1 0x40 MLOAD DUP1 SWAP2 SUB SWAP1 REVERT JUMPDEST PUSH1 0x0 PUSH20 0x27F2DB78389654B645D3015CCE02D0EF571B2B89 SWAP1 POP PUSH1 0x0 PUSH20 0x15C15BB162D31CD58890DF3B4A38B59BD64D999C SWAP1 POP PUSH1 0x0 PUSH20 0x49309576194E07A8D38078346783125AA2C38B38 SWAP1 POP PUSH1 0x0 PUSH20 0xD9DF6ACAC6E676293F8C592DE2B5B6B9DB962ED9 SWAP1 POP PUSH1 0x0 PUSH20 0x490E7110FFDFBDA02FB9144CB20D03303DF2F825 SWAP1 POP PUSH1 0x0 PUSH20 0xFC71D3049CDC12DCB30292D2CB9C7D154A8F6940 SWAP1 POP PUSH1 0x0 PUSH20 0xACC26DD287683DB3A4350D352F10105BB652E1DC SWAP1 POP PUSH1 0x0 PUSH20 0xD1E69DE132D8A0B3A5AB60CB196E365442F777B9 SWAP1 POP PUSH1 0x0 PUSH20 0x98F0B2F27B5E4304B42D9B77F0E594FC001F19BD SWAP1 POP PUSH1 0x0 PUSH20 0xC348A698FFA8600B58D6F52C6B112B4A7823E8FC SWAP1 POP DUP1 PUSH1 0x9 PUSH1 0x0 PUSH2 0x100 EXP DUP2 SLOAD DUP2 PUSH20 0xFFFFFFFFFFFFFFFFFFFFFFFFFFFFFFFFFFFFFFFF MUL NOT AND SWAP1 DUP4 PUSH20 0xFFFFFFFFFFFFFFFFFFFFFFFFFFFFFFFFFFFFFFFF AND MUL OR SWAP1 SSTORE POP PUSH1 0x40 MLOAD DUP1 PUSH2 0x120 ADD PUSH1 0x40 MSTORE DUP1 DUP4 PUSH20 0xFFFFFFFFFFFFFFFFFFFFFFFFFFFFFFFFFFFFFFFF AND PUSH20 0xFFFFFFFFFFFFFFFFFFFFFFFFFFFFFFFFFFFFFFFF AND DUP2 MSTORE PUSH1 0x20 ADD DUP5 PUSH20 0xFFFFFFFFFFFFFFFFFFFFFFFFFFFFFFFFFFFFFFFF AND PUSH20 0xFFFFFFFFFFFFFFFFFFFFFFFFFFFFFFFFFFFFFFFF AND DUP2 MSTORE PUSH1 0x20 ADD DUP6 PUSH20 0xFFFFFFFFFFFFFFFFFFFFFFFFFFFFFFFFFFFFFFFF AND PUSH20 0xFFFFFFFFFFFFFFFFFFFFFFFFFFFFFFFFFFFFFFFF AND DUP2 MSTORE PUSH1 0x20 ADD DUP7 PUSH20 0xFFFFFFFFFFFFFFFFFFFFFFFFFFFFFFFFFFFFFFFF AND PUSH20 0xFFFFFFFFFFFFFFFFFFFFFFFFFFFFFFFFFFFFFFFF AND DUP2 MSTORE PUSH1 0x20 ADD DUP8 PUSH20 0xFFFFFFFFFFFFFFFFFFFFFFFFFFFFFFFFFFFFFFFF AND PUSH20 0xFFFFFFFFFFFFFFFFFFFFFFFFFFFFFFFFFFFFFFFF AND DUP2 MSTORE PUSH1 0x20 ADD DUP9 PUSH20 0xFFFFFFFFFFFFFFFFFFFFFFFFFFFFFFFFFFFFFFFF AND PUSH20 0xFFFFFFFFFFFFFFFFFFFFFFFFFFFFFFFFFFFFFFFF AND DUP2 MSTORE PUSH1 0x20 ADD DUP10 PUSH20 0xFFFFFFFFFFFFFFFFFFFFFFFFFFFFFFFFFFFFFFFF AND PUSH20 0xFFFFFFFFFFFFFFFFFFFFFFFFFFFFFFFFFFFFFFFF AND DUP2 MSTORE PUSH1 0x20 ADD DUP11 PUSH20 0xFFFFFFFFFFFFFFFFFFFFFFFFFFFFFFFFFFFFFFFF AND PUSH20 0xFFFFFFFFFFFFFFFFFFFFFFFFFFFFFFFFFFFFFFFF AND DUP2 MSTORE PUSH1 0x20 ADD DUP12 PUSH20 0xFFFFFFFFFFFFFFFFFFFFFFFFFFFFFFFFFFFFFFFF AND PUSH20 0xFFFFFFFFFFFFFFFFFFFFFFFFFFFFFFFFFFFFFFFF AND DUP2 MSTORE POP PUSH1 0xA SWAP1 PUSH1 0x9 PUSH2 0x102A SWAP3 SWAP2 SWAP1 PUSH2 0x18A1 JUMP JUMPDEST POP PUSH1 0x1 SWAP11 POP POP POP POP POP POP POP POP POP POP POP SWAP1 JUMP JUMPDEST PUSH1 0x15 SLOAD DUP2 JUMP JUMPDEST PUSH1 0xA DUP2 PUSH1 0x9 DUP2 LT PUSH2 0x1052 JUMPI PUSH1 0x0 DUP1 REVERT JUMPDEST ADD PUSH1 0x0 SWAP2 POP SLOAD SWAP1 PUSH2 0x100 EXP SWAP1 DIV PUSH20 0xFFFFFFFFFFFFFFFFFFFFFFFFFFFFFFFFFFFFFFFF AND DUP2 JUMP JUMPDEST PUSH1 0x6 PUSH1 0x0 SWAP1 SLOAD SWAP1 PUSH2 0x100 EXP SWAP1 DIV PUSH20 0xFFFFFFFFFFFFFFFFFFFFFFFFFFFFFFFFFFFFFFFF AND DUP2 JUMP JUMPDEST PUSH2 0x10A6 PUSH2 0x187E JUMP JUMPDEST PUSH1 0x0 PUSH1 0x9 PUSH1 0x0 SWAP1 SLOAD SWAP1 PUSH2 0x100 EXP SWAP1 DIV PUSH20 0xFFFFFFFFFFFFFFFFFFFFFFFFFFFFFFFFFFFFFFFF AND SWAP1 POP DUP1 PUSH20 0xFFFFFFFFFFFFFFFFFFFFFFFFFFFFFFFFFFFFFFFF AND PUSH4 0x23B872DD CALLER ADDRESS DUP7 PUSH1 0x40 MLOAD DUP5 PUSH4 0xFFFFFFFF AND PUSH1 0xE0 SHL DUP2 MSTORE PUSH1 0x4 ADD PUSH2 0x110A SWAP4 SWAP3 SWAP2 SWAP1 PUSH2 0x1F0F JUMP JUMPDEST PUSH1 0x20 PUSH1 0x40 MLOAD DUP1 DUP4 SUB DUP2 PUSH1 0x0 DUP8 GAS CALL ISZERO DUP1 ISZERO PUSH2 0x1129 JUMPI RETURNDATASIZE PUSH1 0x0 DUP1 RETURNDATACOPY RETURNDATASIZE PUSH1 0x0 REVERT JUMPDEST POP POP POP POP PUSH1 0x40 MLOAD RETURNDATASIZE PUSH1 0x1F NOT PUSH1 0x1F DUP3 ADD AND DUP3 ADD DUP1 PUSH1 0x40 MSTORE POP DUP2 ADD SWAP1 PUSH2 0x114D SWAP2 SWAP1 PUSH2 0x1F72 JUMP JUMPDEST POP PUSH1 0x0 PUSH8 0xDE0B6B3A7640000 DUP5 PUSH2 0x1164 SWAP2 SWAP1 PUSH2 0x1DA2 JUMP JUMPDEST SWAP1 POP PUSH1 0x0 JUMPDEST PUSH1 0x9 DUP2 LT ISZERO PUSH2 0x11D5 JUMPI PUSH1 0x0 PUSH2 0x119C DUP4 PUSH1 0x19 DUP5 DUP2 SLOAD DUP2 LT PUSH2 0x118C JUMPI PUSH2 0x118B PUSH2 0x1DD3 JUMP JUMPDEST JUMPDEST SWAP1 PUSH1 0x0 MSTORE PUSH1 0x20 PUSH1 0x0 KECCAK256 ADD SLOAD PUSH2 0xB66 JUMP JUMPDEST DUP1 SWAP5 POP DUP2 SWAP3 POP POP POP DUP1 DUP6 DUP4 PUSH1 0x9 DUP2 LT PUSH2 0x11B8 JUMPI PUSH2 0x11B7 PUSH2 0x1DD3 JUMP JUMPDEST JUMPDEST PUSH1 0x20 MUL ADD DUP2 DUP2 MSTORE POP POP POP DUP1 DUP1 PUSH2 0x11CD SWAP1 PUSH2 0x1E02 JUMP JUMPDEST SWAP2 POP POP PUSH2 0x1169 JUMP JUMPDEST POP PUSH1 0x0 JUMPDEST PUSH1 0x9 DUP2 LT ISZERO PUSH2 0x12D1 JUMPI PUSH1 0x0 JUMPDEST DUP5 DUP3 PUSH1 0x9 DUP2 LT PUSH2 0x11F8 JUMPI PUSH2 0x11F7 PUSH2 0x1DD3 JUMP JUMPDEST JUMPDEST PUSH1 0x20 MUL ADD MLOAD DUP2 LT ISZERO PUSH2 0x12BD JUMPI PUSH1 0x0 PUSH1 0xA DUP4 PUSH1 0x9 DUP2 LT PUSH2 0x121A JUMPI PUSH2 0x1219 PUSH2 0x1DD3 JUMP JUMPDEST JUMPDEST ADD PUSH1 0x0 SWAP1 SLOAD SWAP1 PUSH2 0x100 EXP SWAP1 DIV PUSH20 0xFFFFFFFFFFFFFFFFFFFFFFFFFFFFFFFFFFFFFFFF AND SWAP1 POP DUP1 PUSH20 0xFFFFFFFFFFFFFFFFFFFFFFFFFFFFFFFFFFFFFFFF AND PUSH4 0x40D097C3 CALLER PUSH1 0x40 MLOAD DUP3 PUSH4 0xFFFFFFFF AND PUSH1 0xE0 SHL DUP2 MSTORE PUSH1 0x4 ADD PUSH2 0x1277 SWAP2 SWAP1 PUSH2 0x1A10 JUMP JUMPDEST PUSH1 0x0 PUSH1 0x40 MLOAD DUP1 DUP4 SUB DUP2 PUSH1 0x0 DUP8 DUP1 EXTCODESIZE ISZERO DUP1 ISZERO PUSH2 0x1291 JUMPI PUSH1 0x0 DUP1 REVERT JUMPDEST POP GAS CALL ISZERO DUP1 ISZERO PUSH2 0x12A5 JUMPI RETURNDATASIZE PUSH1 0x0 DUP1 RETURNDATACOPY RETURNDATASIZE PUSH1 0x0 REVERT JUMPDEST POP POP POP POP POP DUP1 DUP1 PUSH2 0x12B5 SWAP1 PUSH2 0x1E02 JUMP JUMPDEST SWAP2 POP POP PUSH2 0x11E5 JUMP JUMPDEST POP DUP1 DUP1 PUSH2 0x12C9 SWAP1 PUSH2 0x1E02 JUMP JUMPDEST SWAP2 POP POP PUSH2 0x11D9 JUMP JUMPDEST DUP5 PUSH1 0x17 PUSH1 0x0 CALLER PUSH20 0xFFFFFFFFFFFFFFFFFFFFFFFFFFFFFFFFFFFFFFFF AND PUSH20 0xFFFFFFFFFFFFFFFFFFFFFFFFFFFFFFFFFFFFFFFF AND DUP2 MSTORE PUSH1 0x20 ADD SWAP1 DUP2 MSTORE PUSH1 0x20 ADD PUSH1 0x0 KECCAK256 PUSH1 0x0 DUP3 DUP3 SLOAD PUSH2 0x1320 SWAP2 SWAP1 PUSH2 0x1D3F JUMP JUMPDEST SWAP3 POP POP DUP2 SWAP1 SSTORE POP POP POP POP POP POP JUMP JUMPDEST PUSH1 0x7 PUSH1 0x0 SWAP1 SLOAD SWAP1 PUSH2 0x100 EXP SWAP1 DIV PUSH20 0xFFFFFFFFFFFFFFFFFFFFFFFFFFFFFFFFFFFFFFFF AND DUP2 JUMP JUMPDEST PUSH1 0x0 DUP1 SLOAD SWAP1 PUSH2 0x100 EXP SWAP1 DIV PUSH20 0xFFFFFFFFFFFFFFFFFFFFFFFFFFFFFFFFFFFFFFFF AND DUP2 JUMP JUMPDEST PUSH2 0x1380 PUSH2 0x187E JUMP JUMPDEST PUSH2 0x1388 PUSH2 0x187E JUMP JUMPDEST PUSH1 0x0 JUMPDEST PUSH1 0x9 DUP2 LT ISZERO PUSH2 0x147A JUMPI PUSH1 0x0 PUSH1 0xA DUP3 PUSH1 0x9 DUP2 LT PUSH2 0x13AA JUMPI PUSH2 0x13A9 PUSH2 0x1DD3 JUMP JUMPDEST JUMPDEST ADD PUSH1 0x0 SWAP1 SLOAD SWAP1 PUSH2 0x100 EXP SWAP1 DIV PUSH20 0xFFFFFFFFFFFFFFFFFFFFFFFFFFFFFFFFFFFFFFFF AND SWAP1 POP DUP1 PUSH20 0xFFFFFFFFFFFFFFFFFFFFFFFFFFFFFFFFFFFFFFFF AND PUSH4 0x83E38D3B DUP7 PUSH1 0x40 MLOAD DUP3 PUSH4 0xFFFFFFFF AND PUSH1 0xE0 SHL DUP2 MSTORE PUSH1 0x4 ADD PUSH2 0x1407 SWAP2 SWAP1 PUSH2 0x1A10 JUMP JUMPDEST PUSH1 0x20 PUSH1 0x40 MLOAD DUP1 DUP4 SUB DUP2 PUSH1 0x0 DUP8 GAS CALL ISZERO DUP1 ISZERO PUSH2 0x1426 JUMPI RETURNDATASIZE PUSH1 0x0 DUP1 RETURNDATACOPY RETURNDATASIZE PUSH1 0x0 REVERT JUMPDEST POP POP POP POP PUSH1 0x40 MLOAD RETURNDATASIZE PUSH1 0x1F NOT PUSH1 0x1F DUP3 ADD AND DUP3 ADD DUP1 PUSH1 0x40 MSTORE POP DUP2 ADD SWAP1 PUSH2 0x144A SWAP2 SWAP1 PUSH2 0x1FB4 JUMP JUMPDEST DUP4 DUP4 PUSH1 0x9 DUP2 LT PUSH2 0x145D JUMPI PUSH2 0x145C PUSH2 0x1DD3 JUMP JUMPDEST JUMPDEST PUSH1 0x20 MUL ADD DUP2 DUP2 MSTORE POP POP POP DUP1 DUP1 PUSH2 0x1472 SWAP1 PUSH2 0x1E02 JUMP JUMPDEST SWAP2 POP POP PUSH2 0x138B JUMP JUMPDEST POP DUP1 SWAP2 POP POP SWAP2 SWAP1 POP JUMP JUMPDEST PUSH1 0x0 JUMPDEST PUSH1 0x9 DUP2 LT ISZERO PUSH2 0x1581 JUMPI PUSH1 0x0 JUMPDEST DUP6 DUP3 PUSH1 0x9 DUP2 LT PUSH2 0x14A6 JUMPI PUSH2 0x14A5 PUSH2 0x1DD3 JUMP JUMPDEST JUMPDEST PUSH1 0x20 MUL ADD MLOAD DUP2 LT ISZERO PUSH2 0x156D JUMPI PUSH1 0x0 PUSH1 0xA DUP4 PUSH1 0x9 DUP2 LT PUSH2 0x14C8 JUMPI PUSH2 0x14C7 PUSH2 0x1DD3 JUMP JUMPDEST JUMPDEST ADD PUSH1 0x0 SWAP1 SLOAD SWAP1 PUSH2 0x100 EXP SWAP1 DIV PUSH20 0xFFFFFFFFFFFFFFFFFFFFFFFFFFFFFFFFFFFFFFFF AND SWAP1 POP DUP1 PUSH20 0xFFFFFFFFFFFFFFFFFFFFFFFFFFFFFFFFFFFFFFFF AND PUSH4 0x83C587DF CALLER DUP9 PUSH1 0x40 MLOAD DUP4 PUSH4 0xFFFFFFFF AND PUSH1 0xE0 SHL DUP2 MSTORE PUSH1 0x4 ADD PUSH2 0x1527 SWAP3 SWAP2 SWAP1 PUSH2 0x1E8C JUMP JUMPDEST PUSH1 0x0 PUSH1 0x40 MLOAD DUP1 DUP4 SUB DUP2 PUSH1 0x0 DUP8 DUP1 EXTCODESIZE ISZERO DUP1 ISZERO PUSH2 0x1541 JUMPI PUSH1 0x0 DUP1 REVERT JUMPDEST POP GAS CALL ISZERO DUP1 ISZERO PUSH2 0x1555 JUMPI RETURNDATASIZE PUSH1 0x0 DUP1 RETURNDATACOPY RETURNDATASIZE PUSH1 0x0 REVERT JUMPDEST POP POP POP POP POP DUP1 DUP1 PUSH2 0x1565 SWAP1 PUSH2 0x1E02 JUMP JUMPDEST SWAP2 POP POP PUSH2 0x1493 JUMP JUMPDEST POP DUP1 DUP1 PUSH2 0x1579 SWAP1 PUSH2 0x1E02 JUMP JUMPDEST SWAP2 POP POP PUSH2 0x1487 JUMP JUMPDEST POP PUSH1 0x0 DUP3 SWAP1 POP PUSH1 0x0 DUP3 SWAP1 POP PUSH2 0x1594 PUSH2 0x187E JUMP JUMPDEST PUSH2 0x159C PUSH2 0x187E JUMP JUMPDEST PUSH1 0x0 JUMPDEST PUSH1 0x9 DUP2 LT ISZERO PUSH2 0x160B JUMPI PUSH1 0x0 PUSH2 0x15D2 DUP7 PUSH1 0x19 DUP5 DUP2 SLOAD DUP2 LT PUSH2 0x15C2 JUMPI PUSH2 0x15C1 PUSH2 0x1DD3 JUMP JUMPDEST JUMPDEST SWAP1 PUSH1 0x0 MSTORE PUSH1 0x20 PUSH1 0x0 KECCAK256 ADD SLOAD PUSH2 0xB66 JUMP JUMPDEST DUP1 SWAP8 POP DUP2 SWAP3 POP POP POP DUP1 DUP5 DUP4 PUSH1 0x9 DUP2 LT PUSH2 0x15EE JUMPI PUSH2 0x15ED PUSH2 0x1DD3 JUMP JUMPDEST JUMPDEST PUSH1 0x20 MUL ADD DUP2 DUP2 MSTORE POP POP POP DUP1 DUP1 PUSH2 0x1603 SWAP1 PUSH2 0x1E02 JUMP JUMPDEST SWAP2 POP POP PUSH2 0x159F JUMP JUMPDEST POP PUSH1 0x0 JUMPDEST PUSH1 0x9 DUP2 LT ISZERO PUSH2 0x1707 JUMPI PUSH1 0x0 JUMPDEST DUP4 DUP3 PUSH1 0x9 DUP2 LT PUSH2 0x162E JUMPI PUSH2 0x162D PUSH2 0x1DD3 JUMP JUMPDEST JUMPDEST PUSH1 0x20 MUL ADD MLOAD DUP2 LT ISZERO PUSH2 0x16F3 JUMPI PUSH1 0x0 PUSH1 0xA DUP4 PUSH1 0x9 DUP2 LT PUSH2 0x1650 JUMPI PUSH2 0x164F PUSH2 0x1DD3 JUMP JUMPDEST JUMPDEST ADD PUSH1 0x0 SWAP1 SLOAD SWAP1 PUSH2 0x100 EXP SWAP1 DIV PUSH20 0xFFFFFFFFFFFFFFFFFFFFFFFFFFFFFFFFFFFFFFFF AND SWAP1 POP DUP1 PUSH20 0xFFFFFFFFFFFFFFFFFFFFFFFFFFFFFFFFFFFFFFFF AND PUSH4 0x40D097C3 CALLER PUSH1 0x40 MLOAD DUP3 PUSH4 0xFFFFFFFF AND PUSH1 0xE0 SHL DUP2 MSTORE PUSH1 0x4 ADD PUSH2 0x16AD SWAP2 SWAP1 PUSH2 0x1A10 JUMP JUMPDEST PUSH1 0x0 PUSH1 0x40 MLOAD DUP1 DUP4 SUB DUP2 PUSH1 0x0 DUP8 DUP1 EXTCODESIZE ISZERO DUP1 ISZERO PUSH2 0x16C7 JUMPI PUSH1 0x0 DUP1 REVERT JUMPDEST POP GAS CALL ISZERO DUP1 ISZERO PUSH2 0x16DB JUMPI RETURNDATASIZE PUSH1 0x0 DUP1 RETURNDATACOPY RETURNDATASIZE PUSH1 0x0 REVERT JUMPDEST POP POP POP POP POP DUP1 DUP1 PUSH2 0x16EB SWAP1 PUSH2 0x1E02 JUMP JUMPDEST SWAP2 POP POP PUSH2 0x161B JUMP JUMPDEST POP DUP1 DUP1 PUSH2 0x16FF SWAP1 PUSH2 0x1E02 JUMP JUMPDEST SWAP2 POP POP PUSH2 0x160F JUMP JUMPDEST POP PUSH1 0x0 JUMPDEST PUSH1 0x9 DUP2 LT ISZERO PUSH2 0x1777 JUMPI PUSH1 0x0 PUSH2 0x173E DUP6 PUSH1 0x19 DUP5 DUP2 SLOAD DUP2 LT PUSH2 0x172E JUMPI PUSH2 0x172D PUSH2 0x1DD3 JUMP JUMPDEST JUMPDEST SWAP1 PUSH1 0x0 MSTORE PUSH1 0x20 PUSH1 0x0 KECCAK256 ADD SLOAD PUSH2 0xB66 JUMP JUMPDEST DUP1 SWAP7 POP DUP2 SWAP3 POP POP POP DUP1 DUP4 DUP4 PUSH1 0x9 DUP2 LT PUSH2 0x175A JUMPI PUSH2 0x1759 PUSH2 0x1DD3 JUMP JUMPDEST JUMPDEST PUSH1 0x20 MUL ADD DUP2 DUP2 MSTORE POP POP POP DUP1 DUP1 PUSH2 0x176F SWAP1 PUSH2 0x1E02 JUMP JUMPDEST SWAP2 POP POP PUSH2 0x170B JUMP JUMPDEST POP PUSH1 0x0 JUMPDEST PUSH1 0x9 DUP2 LT ISZERO PUSH2 0x1873 JUMPI PUSH1 0x0 JUMPDEST DUP3 DUP3 PUSH1 0x9 DUP2 LT PUSH2 0x179A JUMPI PUSH2 0x1799 PUSH2 0x1DD3 JUMP JUMPDEST JUMPDEST PUSH1 0x20 MUL ADD MLOAD DUP2 LT ISZERO PUSH2 0x185F JUMPI PUSH1 0x0 PUSH1 0xA DUP4 PUSH1 0x9 DUP2 LT PUSH2 0x17BC JUMPI PUSH2 0x17BB PUSH2 0x1DD3 JUMP JUMPDEST JUMPDEST ADD PUSH1 0x0 SWAP1 SLOAD SWAP1 PUSH2 0x100 EXP SWAP1 DIV PUSH20 0xFFFFFFFFFFFFFFFFFFFFFFFFFFFFFFFFFFFFFFFF AND SWAP1 POP DUP1 PUSH20 0xFFFFFFFFFFFFFFFFFFFFFFFFFFFFFFFFFFFFFFFF AND PUSH4 0x40D097C3 DUP12 PUSH1 0x40 MLOAD DUP3 PUSH4 0xFFFFFFFF AND PUSH1 0xE0 SHL DUP2 MSTORE PUSH1 0x4 ADD PUSH2 0x1819 SWAP2 SWAP1 PUSH2 0x1A10 JUMP JUMPDEST PUSH1 0x0 PUSH1 0x40 MLOAD DUP1 DUP4 SUB DUP2 PUSH1 0x0 DUP8 DUP1 EXTCODESIZE ISZERO DUP1 ISZERO PUSH2 0x1833 JUMPI PUSH1 0x0 DUP1 REVERT JUMPDEST POP GAS CALL ISZERO DUP1 ISZERO PUSH2 0x1847 JUMPI RETURNDATASIZE PUSH1 0x0 DUP1 RETURNDATACOPY RETURNDATASIZE PUSH1 0x0 REVERT JUMPDEST POP POP POP POP POP DUP1 DUP1 PUSH2 0x1857 SWAP1 PUSH2 0x1E02 JUMP JUMPDEST SWAP2 POP POP PUSH2 0x1787 JUMP JUMPDEST POP DUP1 DUP1 PUSH2 0x186B SWAP1 PUSH2 0x1E02 JUMP JUMPDEST SWAP2 POP POP PUSH2 0x177B JUMP JUMPDEST POP POP POP POP POP POP POP POP POP JUMP JUMPDEST PUSH1 0x40 MLOAD DUP1 PUSH2 0x120 ADD PUSH1 0x40 MSTORE DUP1 PUSH1 0x9 SWAP1 PUSH1 0x20 DUP3 MUL DUP1 CALLDATASIZE DUP4 CALLDATACOPY DUP1 DUP3 ADD SWAP2 POP POP SWAP1 POP POP SWAP1 JUMP JUMPDEST DUP3 PUSH1 0x9 DUP2 ADD SWAP3 DUP3 ISZERO PUSH2 0x190D JUMPI SWAP2 PUSH1 0x20 MUL DUP3 ADD JUMPDEST DUP3 DUP2 GT ISZERO PUSH2 0x190C JUMPI DUP3 MLOAD DUP3 PUSH1 0x0 PUSH2 0x100 EXP DUP2 SLOAD DUP2 PUSH20 0xFFFFFFFFFFFFFFFFFFFFFFFFFFFFFFFFFFFFFFFF MUL NOT AND SWAP1 DUP4 PUSH20 0xFFFFFFFFFFFFFFFFFFFFFFFFFFFFFFFFFFFFFFFF AND MUL OR SWAP1 SSTORE POP SWAP2 PUSH1 0x20 ADD SWAP2 SWAP1 PUSH1 0x1 ADD SWAP1 PUSH2 0x18B4 JUMP JUMPDEST JUMPDEST POP SWAP1 POP PUSH2 0x191A SWAP2 SWAP1 PUSH2 0x191E JUMP JUMPDEST POP SWAP1 JUMP JUMPDEST JUMPDEST DUP1 DUP3 GT ISZERO PUSH2 0x1937 JUMPI PUSH1 0x0 DUP2 PUSH1 0x0 SWAP1 SSTORE POP PUSH1 0x1 ADD PUSH2 0x191F JUMP JUMPDEST POP SWAP1 JUMP JUMPDEST PUSH1 0x0 DUP1 REVERT JUMPDEST PUSH1 0x0 PUSH20 0xFFFFFFFFFFFFFFFFFFFFFFFFFFFFFFFFFFFFFFFF DUP3 AND SWAP1 POP SWAP2 SWAP1 POP JUMP JUMPDEST PUSH1 0x0 PUSH2 0x196B DUP3 PUSH2 0x1940 JUMP JUMPDEST SWAP1 POP SWAP2 SWAP1 POP JUMP JUMPDEST PUSH2 0x197B DUP2 PUSH2 0x1960 JUMP JUMPDEST DUP2 EQ PUSH2 0x1986 JUMPI PUSH1 0x0 DUP1 REVERT JUMPDEST POP JUMP JUMPDEST PUSH1 0x0 DUP2 CALLDATALOAD SWAP1 POP PUSH2 0x1998 DUP2 PUSH2 0x1972 JUMP JUMPDEST SWAP3 SWAP2 POP POP JUMP JUMPDEST PUSH1 0x0 PUSH1 0x20 DUP3 DUP5 SUB SLT ISZERO PUSH2 0x19B4 JUMPI PUSH2 0x19B3 PUSH2 0x193B JUMP JUMPDEST JUMPDEST PUSH1 0x0 PUSH2 0x19C2 DUP5 DUP3 DUP6 ADD PUSH2 0x1989 JUMP JUMPDEST SWAP2 POP POP SWAP3 SWAP2 POP POP JUMP JUMPDEST PUSH1 0x0 DUP2 ISZERO ISZERO SWAP1 POP SWAP2 SWAP1 POP JUMP JUMPDEST PUSH2 0x19E0 DUP2 PUSH2 0x19CB JUMP JUMPDEST DUP3 MSTORE POP POP JUMP JUMPDEST PUSH1 0x0 PUSH1 0x20 DUP3 ADD SWAP1 POP PUSH2 0x19FB PUSH1 0x0 DUP4 ADD DUP5 PUSH2 0x19D7 JUMP JUMPDEST SWAP3 SWAP2 POP POP JUMP JUMPDEST PUSH2 0x1A0A DUP2 PUSH2 0x1960 JUMP JUMPDEST DUP3 MSTORE POP POP JUMP JUMPDEST PUSH1 0x0 PUSH1 0x20 DUP3 ADD SWAP1 POP PUSH2 0x1A25 PUSH1 0x0 DUP4 ADD DUP5 PUSH2 0x1A01 JUMP JUMPDEST SWAP3 SWAP2 POP POP JUMP JUMPDEST PUSH1 0x0 DUP2 SWAP1 POP SWAP2 SWAP1 POP JUMP JUMPDEST PUSH2 0x1A3E DUP2 PUSH2 0x1A2B JUMP JUMPDEST DUP3 MSTORE POP POP JUMP JUMPDEST PUSH1 0x0 PUSH1 0x20 DUP3 ADD SWAP1 POP PUSH2 0x1A59 PUSH1 0x0 DUP4 ADD DUP5 PUSH2 0x1A35 JUMP JUMPDEST SWAP3 SWAP2 POP POP JUMP JUMPDEST PUSH2 0x1A68 DUP2 PUSH2 0x1A2B JUMP JUMPDEST DUP2 EQ PUSH2 0x1A73 JUMPI PUSH1 0x0 DUP1 REVERT JUMPDEST POP JUMP JUMPDEST PUSH1 0x0 DUP2 CALLDATALOAD SWAP1 POP PUSH2 0x1A85 DUP2 PUSH2 0x1A5F JUMP JUMPDEST SWAP3 SWAP2 POP POP JUMP JUMPDEST PUSH1 0x0 DUP1 PUSH1 0x40 DUP4 DUP6 SUB SLT ISZERO PUSH2 0x1AA2 JUMPI PUSH2 0x1AA1 PUSH2 0x193B JUMP JUMPDEST JUMPDEST PUSH1 0x0 PUSH2 0x1AB0 DUP6 DUP3 DUP7 ADD PUSH2 0x1A76 JUMP JUMPDEST SWAP3 POP POP PUSH1 0x20 PUSH2 0x1AC1 DUP6 DUP3 DUP7 ADD PUSH2 0x1989 JUMP JUMPDEST SWAP2 POP POP SWAP3 POP SWAP3 SWAP1 POP JUMP JUMPDEST PUSH1 0x0 DUP1 PUSH1 0x40 DUP4 DUP6 SUB SLT ISZERO PUSH2 0x1AE2 JUMPI PUSH2 0x1AE1 PUSH2 0x193B JUMP JUMPDEST JUMPDEST PUSH1 0x0 PUSH2 0x1AF0 DUP6 DUP3 DUP7 ADD PUSH2 0x1A76 JUMP JUMPDEST SWAP3 POP POP PUSH1 0x20 PUSH2 0x1B01 DUP6 DUP3 DUP7 ADD PUSH2 0x1A76 JUMP JUMPDEST SWAP2 POP POP SWAP3 POP SWAP3 SWAP1 POP JUMP JUMPDEST PUSH1 0x0 PUSH1 0x40 DUP3 ADD SWAP1 POP PUSH2 0x1B20 PUSH1 0x0 DUP4 ADD DUP6 PUSH2 0x1A35 JUMP JUMPDEST PUSH2 0x1B2D PUSH1 0x20 DUP4 ADD DUP5 PUSH2 0x1A35 JUMP JUMPDEST SWAP4 SWAP3 POP POP POP JUMP JUMPDEST PUSH1 0x0 PUSH1 0x20 DUP3 DUP5 SUB SLT ISZERO PUSH2 0x1B4A JUMPI PUSH2 0x1B49 PUSH2 0x193B JUMP JUMPDEST JUMPDEST PUSH1 0x0 PUSH2 0x1B58 DUP5 DUP3 DUP6 ADD PUSH2 0x1A76 JUMP JUMPDEST SWAP2 POP POP SWAP3 SWAP2 POP POP JUMP JUMPDEST PUSH1 0x0 DUP3 DUP3 MSTORE PUSH1 0x20 DUP3 ADD SWAP1 POP SWAP3 SWAP2 POP POP JUMP JUMPDEST PUSH32 0x63616E206F6E6C792062652063616C6C6564206279206F776E65720000000000 PUSH1 0x0 DUP3 ADD MSTORE POP JUMP JUMPDEST PUSH1 0x0 PUSH2 0x1BA8 PUSH1 0x1B DUP4 PUSH2 0x1B61 JUMP JUMPDEST SWAP2 POP PUSH2 0x1BB3 DUP3 PUSH2 0x1B72 JUMP JUMPDEST PUSH1 0x20 DUP3 ADD SWAP1 POP SWAP2 SWAP1 POP JUMP JUMPDEST PUSH1 0x0 PUSH1 0x20 DUP3 ADD SWAP1 POP DUP2 DUP2 SUB PUSH1 0x0 DUP4 ADD MSTORE PUSH2 0x1BD7 DUP2 PUSH2 0x1B9B JUMP JUMPDEST SWAP1 POP SWAP2 SWAP1 POP JUMP JUMPDEST PUSH32 0x72656369657665722773206164647265737320697320626C61636B6C69737465 PUSH1 0x0 DUP3 ADD MSTORE PUSH32 0x6400000000000000000000000000000000000000000000000000000000000000 PUSH1 0x20 DUP3 ADD MSTORE POP JUMP JUMPDEST PUSH1 0x0 PUSH2 0x1C3A PUSH1 0x21 DUP4 PUSH2 0x1B61 JUMP JUMPDEST SWAP2 POP PUSH2 0x1C45 DUP3 PUSH2 0x1BDE JUMP JUMPDEST PUSH1 0x40 DUP3 ADD SWAP1 POP SWAP2 SWAP1 POP JUMP JUMPDEST PUSH1 0x0 PUSH1 0x20 DUP3 ADD SWAP1 POP DUP2 DUP2 SUB PUSH1 0x0 DUP4 ADD MSTORE PUSH2 0x1C69 DUP2 PUSH2 0x1C2D JUMP JUMPDEST SWAP1 POP SWAP2 SWAP1 POP JUMP JUMPDEST PUSH32 0x66756E647320617265206C657373207468616E20726571756573746564000000 PUSH1 0x0 DUP3 ADD MSTORE POP JUMP JUMPDEST PUSH1 0x0 PUSH2 0x1CA6 PUSH1 0x1D DUP4 PUSH2 0x1B61 JUMP JUMPDEST SWAP2 POP PUSH2 0x1CB1 DUP3 PUSH2 0x1C70 JUMP JUMPDEST PUSH1 0x20 DUP3 ADD SWAP1 POP SWAP2 SWAP1 POP JUMP JUMPDEST PUSH1 0x0 PUSH1 0x20 DUP3 ADD SWAP1 POP DUP2 DUP2 SUB PUSH1 0x0 DUP4 ADD MSTORE PUSH2 0x1CD5 DUP2 PUSH2 0x1C99 JUMP JUMPDEST SWAP1 POP SWAP2 SWAP1 POP JUMP JUMPDEST PUSH32 0x4E487B7100000000000000000000000000000000000000000000000000000000 PUSH1 0x0 MSTORE PUSH1 0x11 PUSH1 0x4 MSTORE PUSH1 0x24 PUSH1 0x0 REVERT JUMPDEST PUSH1 0x0 PUSH2 0x1D16 DUP3 PUSH2 0x1A2B JUMP JUMPDEST SWAP2 POP PUSH2 0x1D21 DUP4 PUSH2 0x1A2B JUMP JUMPDEST SWAP3 POP DUP3 DUP3 SUB SWAP1 POP DUP2 DUP2 GT ISZERO PUSH2 0x1D39 JUMPI PUSH2 0x1D38 PUSH2 0x1CDC JUMP JUMPDEST JUMPDEST SWAP3 SWAP2 POP POP JUMP JUMPDEST PUSH1 0x0 PUSH2 0x1D4A DUP3 PUSH2 0x1A2B JUMP JUMPDEST SWAP2 POP PUSH2 0x1D55 DUP4 PUSH2 0x1A2B JUMP JUMPDEST SWAP3 POP DUP3 DUP3 ADD SWAP1 POP DUP1 DUP3 GT ISZERO PUSH2 0x1D6D JUMPI PUSH2 0x1D6C PUSH2 0x1CDC JUMP JUMPDEST JUMPDEST SWAP3 SWAP2 POP POP JUMP JUMPDEST PUSH32 0x4E487B7100000000000000000000000000000000000000000000000000000000 PUSH1 0x0 MSTORE PUSH1 0x12 PUSH1 0x4 MSTORE PUSH1 0x24 PUSH1 0x0 REVERT JUMPDEST PUSH1 0x0 PUSH2 0x1DAD DUP3 PUSH2 0x1A2B JUMP JUMPDEST SWAP2 POP PUSH2 0x1DB8 DUP4 PUSH2 0x1A2B JUMP JUMPDEST SWAP3 POP DUP3 PUSH2 0x1DC8 JUMPI PUSH2 0x1DC7 PUSH2 0x1D73 JUMP JUMPDEST JUMPDEST DUP3 DUP3 DIV SWAP1 POP SWAP3 SWAP2 POP POP JUMP JUMPDEST PUSH32 0x4E487B7100000000000000000000000000000000000000000000000000000000 PUSH1 0x0 MSTORE PUSH1 0x32 PUSH1 0x4 MSTORE PUSH1 0x24 PUSH1 0x0 REVERT JUMPDEST PUSH1 0x0 PUSH2 0x1E0D DUP3 PUSH2 0x1A2B JUMP JUMPDEST SWAP2 POP PUSH32 0xFFFFFFFFFFFFFFFFFFFFFFFFFFFFFFFFFFFFFFFFFFFFFFFFFFFFFFFFFFFFFFFF DUP3 SUB PUSH2 0x1E3F JUMPI PUSH2 0x1E3E PUSH2 0x1CDC JUMP JUMPDEST JUMPDEST PUSH1 0x1 DUP3 ADD SWAP1 POP SWAP2 SWAP1 POP JUMP JUMPDEST PUSH1 0x0 PUSH2 0x1E55 DUP3 PUSH2 0x1A2B JUMP JUMPDEST SWAP2 POP PUSH2 0x1E60 DUP4 PUSH2 0x1A2B JUMP JUMPDEST SWAP3 POP DUP3 DUP3 MUL PUSH2 0x1E6E DUP2 PUSH2 0x1A2B JUMP JUMPDEST SWAP2 POP DUP3 DUP3 DIV DUP5 EQ DUP4 ISZERO OR PUSH2 0x1E85 JUMPI PUSH2 0x1E84 PUSH2 0x1CDC JUMP JUMPDEST JUMPDEST POP SWAP3 SWAP2 POP POP JUMP JUMPDEST PUSH1 0x0 PUSH1 0x40 DUP3 ADD SWAP1 POP PUSH2 0x1EA1 PUSH1 0x0 DUP4 ADD DUP6 PUSH2 0x1A01 JUMP JUMPDEST PUSH2 0x1EAE PUSH1 0x20 DUP4 ADD DUP5 PUSH2 0x1A01 JUMP JUMPDEST SWAP4 SWAP3 POP POP POP JUMP JUMPDEST PUSH1 0x0 PUSH2 0x1EC0 DUP3 PUSH2 0x1A2B JUMP JUMPDEST SWAP2 POP PUSH1 0x0 DUP3 SUB PUSH2 0x1ED3 JUMPI PUSH2 0x1ED2 PUSH2 0x1CDC JUMP JUMPDEST JUMPDEST PUSH1 0x1 DUP3 SUB SWAP1 POP SWAP2 SWAP1 POP JUMP JUMPDEST PUSH1 0x0 PUSH2 0x1EE9 DUP3 PUSH2 0x1A2B JUMP JUMPDEST SWAP2 POP PUSH2 0x1EF4 DUP4 PUSH2 0x1A2B JUMP JUMPDEST SWAP3 POP DUP3 PUSH2 0x1F04 JUMPI PUSH2 0x1F03 PUSH2 0x1D73 JUMP JUMPDEST JUMPDEST DUP3 DUP3 MOD SWAP1 POP SWAP3 SWAP2 POP POP JUMP JUMPDEST PUSH1 0x0 PUSH1 0x60 DUP3 ADD SWAP1 POP PUSH2 0x1F24 PUSH1 0x0 DUP4 ADD DUP7 PUSH2 0x1A01 JUMP JUMPDEST PUSH2 0x1F31 PUSH1 0x20 DUP4 ADD DUP6 PUSH2 0x1A01 JUMP JUMPDEST PUSH2 0x1F3E PUSH1 0x40 DUP4 ADD DUP5 PUSH2 0x1A35 JUMP JUMPDEST SWAP5 SWAP4 POP POP POP POP JUMP JUMPDEST PUSH2 0x1F4F DUP2 PUSH2 0x19CB JUMP JUMPDEST DUP2 EQ PUSH2 0x1F5A JUMPI PUSH1 0x0 DUP1 REVERT JUMPDEST POP JUMP JUMPDEST PUSH1 0x0 DUP2 MLOAD SWAP1 POP PUSH2 0x1F6C DUP2 PUSH2 0x1F46 JUMP JUMPDEST SWAP3 SWAP2 POP POP JUMP JUMPDEST PUSH1 0x0 PUSH1 0x20 DUP3 DUP5 SUB SLT ISZERO PUSH2 0x1F88 JUMPI PUSH2 0x1F87 PUSH2 0x193B JUMP JUMPDEST JUMPDEST PUSH1 0x0 PUSH2 0x1F96 DUP5 DUP3 DUP6 ADD PUSH2 0x1F5D JUMP JUMPDEST SWAP2 POP POP SWAP3 SWAP2 POP POP JUMP JUMPDEST PUSH1 0x0 DUP2 MLOAD SWAP1 POP PUSH2 0x1FAE DUP2 PUSH2 0x1A5F JUMP JUMPDEST SWAP3 SWAP2 POP POP JUMP JUMPDEST PUSH1 0x0 PUSH1 0x20 DUP3 DUP5 SUB SLT ISZERO PUSH2 0x1FCA JUMPI PUSH2 0x1FC9 PUSH2 0x193B JUMP JUMPDEST JUMPDEST PUSH1 0x0 PUSH2 0x1FD8 DUP5 DUP3 DUP6 ADD PUSH2 0x1F9F JUMP JUMPDEST SWAP2 POP POP SWAP3 SWAP2 POP POP JUMP INVALID LOG2 PUSH5 0x6970667358 0x22 SLT KECCAK256 0xA7 PUSH3 0xF54BDD 0xC7 0x4B 0x2C GASPRICE 0xE0 SELFBALANCE 0x22 DUP6 AND 0xEF DUP12 0x1E BALANCE 0xE1 0xAE 0x27 SMOD CODECOPY PUSH19 0xC29F2E9156EFE51A64736F6C63430008150033 "
				},
				"gasEstimates": {
					"creation": {
						"codeDepositCost": "1643000",
						"executionCost": "infinite",
						"totalCost": "infinite"
					},
					"external": {
						"_10RupeeCount()": "2496",
						"_20RupeeCount()": "2451",
						"_5RupeeCount()": "2562",
						"_num()": "2518",
						"_rupeeContractList(uint256)": "2849",
						"blackList(address)": "infinite",
						"buy_With_note_denominations(uint256)": "infinite",
						"fifty_Rupee_contract()": "2537",
						"five_Rupee_contract()": "2560",
						"five_hundred_Rupee_contract()": "2625",
						"getUserFundAmt(address)": "2909",
						"isBlackListedMapping(address)": "2869",
						"noteCalculation(uint256,uint256)": "infinite",
						"one_Rupee_contract()": "2643",
						"one_hundred_Rupee_contract()": "2580",
						"rupee_contract_ERC20()": "2559",
						"setContracts()": "infinite",
						"ten_Rupee_contract()": "2537",
						"transferAmount(uint256,address)": "infinite",
						"twenty_Rupee_contract()": "2581",
						"two_Rupee_contract()": "2603",
						"two_hundred_Rupee_contract()": "2624",
						"userFundsMapping(address)": "2925"
					},
					"internal": {
						"fetchUserNotes(address)": "infinite",
						"sendNFT(uint256[9] memory,address,uint256,uint256)": "infinite"
					}
				},
				"methodIdentifiers": {
					"_10RupeeCount()": "d26813d3",
					"_20RupeeCount()": "e84530fb",
					"_5RupeeCount()": "a805588e",
					"_num()": "d68cfc14",
					"_rupeeContractList(uint256)": "eb4f81f3",
					"blackList(address)": "4838d165",
					"buy_With_note_denominations(uint256)": "f5091598",
					"fifty_Rupee_contract()": "588a2c09",
					"five_Rupee_contract()": "3ef0116d",
					"five_hundred_Rupee_contract()": "9a5b9d62",
					"getUserFundAmt(address)": "43d6a6a2",
					"isBlackListedMapping(address)": "26541b4a",
					"noteCalculation(uint256,uint256)": "600fa18e",
					"one_Rupee_contract()": "fc07dbb8",
					"one_hundred_Rupee_contract()": "f0483d73",
					"rupee_contract_ERC20()": "cca79636",
					"setContracts()": "e0d6d530",
					"ten_Rupee_contract()": "b150019a",
					"transferAmount(uint256,address)": "4ca9deb9",
					"twenty_Rupee_contract()": "6affb729",
					"two_Rupee_contract()": "70cd47df",
					"two_hundred_Rupee_contract()": "fa137b2a",
					"userFundsMapping(address)": "dd188dc3"
				}
			},
			"storageLayout": {
				"storage": [
					{
						"astId": 109,
						"contract": "Buy_ERupee.sol:buy_ERupee",
						"label": "one_Rupee_contract",
						"offset": 0,
						"slot": "0",
						"type": "t_address"
					},
					{
						"astId": 111,
						"contract": "Buy_ERupee.sol:buy_ERupee",
						"label": "two_Rupee_contract",
						"offset": 0,
						"slot": "1",
						"type": "t_address"
					},
					{
						"astId": 113,
						"contract": "Buy_ERupee.sol:buy_ERupee",
						"label": "five_Rupee_contract",
						"offset": 0,
						"slot": "2",
						"type": "t_address"
					},
					{
						"astId": 115,
						"contract": "Buy_ERupee.sol:buy_ERupee",
						"label": "ten_Rupee_contract",
						"offset": 0,
						"slot": "3",
						"type": "t_address"
					},
					{
						"astId": 117,
						"contract": "Buy_ERupee.sol:buy_ERupee",
						"label": "twenty_Rupee_contract",
						"offset": 0,
						"slot": "4",
						"type": "t_address"
					},
					{
						"astId": 119,
						"contract": "Buy_ERupee.sol:buy_ERupee",
						"label": "fifty_Rupee_contract",
						"offset": 0,
						"slot": "5",
						"type": "t_address"
					},
					{
						"astId": 121,
						"contract": "Buy_ERupee.sol:buy_ERupee",
						"label": "one_hundred_Rupee_contract",
						"offset": 0,
						"slot": "6",
						"type": "t_address"
					},
					{
						"astId": 123,
						"contract": "Buy_ERupee.sol:buy_ERupee",
						"label": "two_hundred_Rupee_contract",
						"offset": 0,
						"slot": "7",
						"type": "t_address"
					},
					{
						"astId": 125,
						"contract": "Buy_ERupee.sol:buy_ERupee",
						"label": "five_hundred_Rupee_contract",
						"offset": 0,
						"slot": "8",
						"type": "t_address"
					},
					{
						"astId": 127,
						"contract": "Buy_ERupee.sol:buy_ERupee",
						"label": "rupee_contract_ERC20",
						"offset": 0,
						"slot": "9",
						"type": "t_address"
					},
					{
						"astId": 131,
						"contract": "Buy_ERupee.sol:buy_ERupee",
						"label": "_rupeeContractList",
						"offset": 0,
						"slot": "10",
						"type": "t_array(t_address)9_storage"
					},
					{
						"astId": 134,
						"contract": "Buy_ERupee.sol:buy_ERupee",
						"label": "_5RupeeCount",
						"offset": 0,
						"slot": "19",
						"type": "t_uint256"
					},
					{
						"astId": 136,
						"contract": "Buy_ERupee.sol:buy_ERupee",
						"label": "_10RupeeCount",
						"offset": 0,
						"slot": "20",
						"type": "t_uint256"
					},
					{
						"astId": 138,
						"contract": "Buy_ERupee.sol:buy_ERupee",
						"label": "_20RupeeCount",
						"offset": 0,
						"slot": "21",
						"type": "t_uint256"
					},
					{
						"astId": 140,
						"contract": "Buy_ERupee.sol:buy_ERupee",
						"label": "_num",
						"offset": 0,
						"slot": "22",
						"type": "t_uint256"
					},
					{
						"astId": 144,
						"contract": "Buy_ERupee.sol:buy_ERupee",
						"label": "userFundsMapping",
						"offset": 0,
						"slot": "23",
						"type": "t_mapping(t_address,t_uint256)"
					},
					{
						"astId": 148,
						"contract": "Buy_ERupee.sol:buy_ERupee",
						"label": "isBlackListedMapping",
						"offset": 0,
						"slot": "24",
						"type": "t_mapping(t_address,t_bool)"
					},
					{
						"astId": 161,
						"contract": "Buy_ERupee.sol:buy_ERupee",
						"label": "denominationArr",
						"offset": 0,
						"slot": "25",
						"type": "t_array(t_uint256)dyn_storage"
					}
				],
				"types": {
					"t_address": {
						"encoding": "inplace",
						"label": "address",
						"numberOfBytes": "20"
					},
					"t_array(t_address)9_storage": {
						"base": "t_address",
						"encoding": "inplace",
						"label": "address[9]",
						"numberOfBytes": "288"
					},
					"t_array(t_uint256)dyn_storage": {
						"base": "t_uint256",
						"encoding": "dynamic_array",
						"label": "uint256[]",
						"numberOfBytes": "32"
					},
					"t_bool": {
						"encoding": "inplace",
						"label": "bool",
						"numberOfBytes": "1"
					},
					"t_mapping(t_address,t_bool)": {
						"encoding": "mapping",
						"key": "t_address",
						"label": "mapping(address => bool)",
						"numberOfBytes": "32",
						"value": "t_bool"
					},
					"t_mapping(t_address,t_uint256)": {
						"encoding": "mapping",
						"key": "t_address",
						"label": "mapping(address => uint256)",
						"numberOfBytes": "32",
						"value": "t_uint256"
					},
					"t_uint256": {
						"encoding": "inplace",
						"label": "uint256",
						"numberOfBytes": "32"
					}
				}
			},
			"userdoc": {
				"kind": "user",
				"methods": {},
				"version": 1
			}
		}
	}
}