{
	"contractGenerator.sol": {
		"MomContract": {
			"abi": [
				{
					"inputs": [
						{
							"internalType": "string",
							"name": "_momsName",
							"type": "string"
						},
						{
							"internalType": "uint256",
							"name": "_momsAge",
							"type": "uint256"
						},
						{
							"internalType": "string",
							"name": "_daughtersName",
							"type": "string"
						},
						{
							"internalType": "uint256",
							"name": "_daughtersAge",
							"type": "uint256"
						}
					],
					"stateMutability": "nonpayable",
					"type": "constructor"
				},
				{
					"inputs": [],
					"name": "age",
					"outputs": [
						{
							"internalType": "uint256",
							"name": "",
							"type": "uint256"
						}
					],
					"stateMutability": "view",
					"type": "function"
				},
				{
					"inputs": [],
					"name": "daughter",
					"outputs": [
						{
							"internalType": "contract DaughterContract",
							"name": "",
							"type": "address"
						}
					],
					"stateMutability": "view",
					"type": "function"
				},
				{
					"inputs": [],
					"name": "name",
					"outputs": [
						{
							"internalType": "string",
							"name": "",
							"type": "string"
						}
					],
					"stateMutability": "view",
					"type": "function"
				}
			],
			"devdoc": {
				"kind": "dev",
				"methods": {},
				"version": 1
			},
			"evm": {
				"assembly": "    /* \"contractGenerator.sol\":250:648  contract MomContract {... */\n  mstore(0x40, 0x80)\n    /* \"contractGenerator.sol\":364:646  constructor(... */\n  callvalue\n  dup1\n  iszero\n  tag_1\n  jumpi\n  0x00\n  dup1\n  revert\ntag_1:\n  pop\n  mload(0x40)\n  sub(codesize, bytecodeSize)\n  dup1\n  bytecodeSize\n  dup4\n  codecopy\n  dup2\n  dup2\n  add\n  0x40\n  mstore\n  dup2\n  add\n  swap1\n  tag_2\n  swap2\n  swap1\n  tag_3\n  jump\t// in\ntag_2:\n    /* \"contractGenerator.sol\":559:573  _daughtersName */\n  dup2\n    /* \"contractGenerator.sol\":575:588  _daughtersAge */\n  dup2\n    /* \"contractGenerator.sol\":538:589  new DaughterContract(_daughtersName, _daughtersAge) */\n  mload(0x40)\n  tag_6\n  swap1\n  tag_7\n  jump\t// in\ntag_6:\n  tag_8\n  swap3\n  swap2\n  swap1\n  tag_9\n  jump\t// in\ntag_8:\n  mload(0x40)\n  dup1\n  swap2\n  sub\n  swap1\n  0x00\n  create\n  dup1\n  iszero\n  dup1\n  iszero\n  tag_10\n  jumpi\n  returndatasize\n  0x00\n  dup1\n  returndatacopy\n  revert(0x00, returndatasize)\ntag_10:\n  pop\n    /* \"contractGenerator.sol\":527:535  daughter */\n  0x02\n  0x00\n    /* \"contractGenerator.sol\":527:589  daughter = new DaughterContract(_daughtersName, _daughtersAge) */\n  0x0100\n  exp\n  dup2\n  sload\n  dup2\n  0xffffffffffffffffffffffffffffffffffffffff\n  mul\n  not\n  and\n  swap1\n  dup4\n  0xffffffffffffffffffffffffffffffffffffffff\n  and\n  mul\n  or\n  swap1\n  sstore\n  pop\n    /* \"contractGenerator.sol\":606:615  _momsName */\n  dup4\n    /* \"contractGenerator.sol\":599:603  name */\n  0x00\n    /* \"contractGenerator.sol\":599:615  name = _momsName */\n  swap1\n  dup2\n  tag_11\n  swap2\n  swap1\n  tag_12\n  jump\t// in\ntag_11:\n  pop\n    /* \"contractGenerator.sol\":631:639  _momsAge */\n  dup3\n    /* \"contractGenerator.sol\":625:628  age */\n  0x01\n    /* \"contractGenerator.sol\":625:639  age = _momsAge */\n  dup2\n  swap1\n  sstore\n  pop\n    /* \"contractGenerator.sol\":364:646  constructor(... */\n  pop\n  pop\n  pop\n  pop\n    /* \"contractGenerator.sol\":250:648  contract MomContract {... */\n  jump(tag_13)\ntag_7:\n  dataSize(sub_1)\n  dup1\n  dataOffset(sub_1)\n  dup4\n  codecopy\n  add\n  swap1\n  jump\t// out\n    /* \"#utility.yul\":7:82   */\ntag_14:\n    /* \"#utility.yul\":40:46   */\n  0x00\n    /* \"#utility.yul\":73:75   */\n  0x40\n    /* \"#utility.yul\":67:76   */\n  mload\n    /* \"#utility.yul\":57:76   */\n  swap1\n  pop\n    /* \"#utility.yul\":7:82   */\n  swap1\n  jump\t// out\n    /* \"#utility.yul\":88:205   */\ntag_15:\n    /* \"#utility.yul\":197:198   */\n  0x00\n    /* \"#utility.yul\":194:195   */\n  dup1\n    /* \"#utility.yul\":187:199   */\n  revert\n    /* \"#utility.yul\":211:328   */\ntag_16:\n    /* \"#utility.yul\":320:321   */\n  0x00\n    /* \"#utility.yul\":317:318   */\n  dup1\n    /* \"#utility.yul\":310:322   */\n  revert\n    /* \"#utility.yul\":334:451   */\ntag_17:\n    /* \"#utility.yul\":443:444   */\n  0x00\n    /* \"#utility.yul\":440:441   */\n  dup1\n    /* \"#utility.yul\":433:445   */\n  revert\n    /* \"#utility.yul\":457:574   */\ntag_18:\n    /* \"#utility.yul\":566:567   */\n  0x00\n    /* \"#utility.yul\":563:564   */\n  dup1\n    /* \"#utility.yul\":556:568   */\n  revert\n    /* \"#utility.yul\":580:682   */\ntag_19:\n    /* \"#utility.yul\":621:627   */\n  0x00\n    /* \"#utility.yul\":672:674   */\n  0x1f\n    /* \"#utility.yul\":668:675   */\n  not\n    /* \"#utility.yul\":663:665   */\n  0x1f\n    /* \"#utility.yul\":656:661   */\n  dup4\n    /* \"#utility.yul\":652:666   */\n  add\n    /* \"#utility.yul\":648:676   */\n  and\n    /* \"#utility.yul\":638:676   */\n  swap1\n  pop\n    /* \"#utility.yul\":580:682   */\n  swap2\n  swap1\n  pop\n  jump\t// out\n    /* \"#utility.yul\":688:868   */\ntag_20:\n    /* \"#utility.yul\":736:813   */\n  0x4e487b7100000000000000000000000000000000000000000000000000000000\n    /* \"#utility.yul\":733:734   */\n  0x00\n    /* \"#utility.yul\":726:814   */\n  mstore\n    /* \"#utility.yul\":833:837   */\n  0x41\n    /* \"#utility.yul\":830:831   */\n  0x04\n    /* \"#utility.yul\":823:838   */\n  mstore\n    /* \"#utility.yul\":857:861   */\n  0x24\n    /* \"#utility.yul\":854:855   */\n  0x00\n    /* \"#utility.yul\":847:862   */\n  revert\n    /* \"#utility.yul\":874:1155   */\ntag_21:\n    /* \"#utility.yul\":957:984   */\n  tag_60\n    /* \"#utility.yul\":979:983   */\n  dup3\n    /* \"#utility.yul\":957:984   */\n  tag_19\n  jump\t// in\ntag_60:\n    /* \"#utility.yul\":949:955   */\n  dup2\n    /* \"#utility.yul\":945:985   */\n  add\n    /* \"#utility.yul\":1087:1093   */\n  dup2\n    /* \"#utility.yul\":1075:1085   */\n  dup2\n    /* \"#utility.yul\":1072:1094   */\n  lt\n    /* \"#utility.yul\":1051:1069   */\n  0xffffffffffffffff\n    /* \"#utility.yul\":1039:1049   */\n  dup3\n    /* \"#utility.yul\":1036:1070   */\n  gt\n    /* \"#utility.yul\":1033:1095   */\n  or\n    /* \"#utility.yul\":1030:1118   */\n  iszero\n  tag_61\n  jumpi\n    /* \"#utility.yul\":1098:1116   */\n  tag_62\n  tag_20\n  jump\t// in\ntag_62:\n    /* \"#utility.yul\":1030:1118   */\ntag_61:\n    /* \"#utility.yul\":1138:1148   */\n  dup1\n    /* \"#utility.yul\":1134:1136   */\n  0x40\n    /* \"#utility.yul\":1127:1149   */\n  mstore\n    /* \"#utility.yul\":917:1155   */\n  pop\n    /* \"#utility.yul\":874:1155   */\n  pop\n  pop\n  jump\t// out\n    /* \"#utility.yul\":1161:1290   */\ntag_22:\n    /* \"#utility.yul\":1195:1201   */\n  0x00\n    /* \"#utility.yul\":1222:1242   */\n  tag_64\n  tag_14\n  jump\t// in\ntag_64:\n    /* \"#utility.yul\":1212:1242   */\n  swap1\n  pop\n    /* \"#utility.yul\":1251:1284   */\n  tag_65\n    /* \"#utility.yul\":1279:1283   */\n  dup3\n    /* \"#utility.yul\":1271:1277   */\n  dup3\n    /* \"#utility.yul\":1251:1284   */\n  tag_21\n  jump\t// in\ntag_65:\n    /* \"#utility.yul\":1161:1290   */\n  swap2\n  swap1\n  pop\n  jump\t// out\n    /* \"#utility.yul\":1296:1604   */\ntag_23:\n    /* \"#utility.yul\":1358:1362   */\n  0x00\n    /* \"#utility.yul\":1448:1466   */\n  0xffffffffffffffff\n    /* \"#utility.yul\":1440:1446   */\n  dup3\n    /* \"#utility.yul\":1437:1467   */\n  gt\n    /* \"#utility.yul\":1434:1490   */\n  iszero\n  tag_67\n  jumpi\n    /* \"#utility.yul\":1470:1488   */\n  tag_68\n  tag_20\n  jump\t// in\ntag_68:\n    /* \"#utility.yul\":1434:1490   */\ntag_67:\n    /* \"#utility.yul\":1508:1537   */\n  tag_69\n    /* \"#utility.yul\":1530:1536   */\n  dup3\n    /* \"#utility.yul\":1508:1537   */\n  tag_19\n  jump\t// in\ntag_69:\n    /* \"#utility.yul\":1500:1537   */\n  swap1\n  pop\n    /* \"#utility.yul\":1592:1596   */\n  0x20\n    /* \"#utility.yul\":1586:1590   */\n  dup2\n    /* \"#utility.yul\":1582:1597   */\n  add\n    /* \"#utility.yul\":1574:1597   */\n  swap1\n  pop\n    /* \"#utility.yul\":1296:1604   */\n  swap2\n  swap1\n  pop\n  jump\t// out\n    /* \"#utility.yul\":1610:1856   */\ntag_24:\n    /* \"#utility.yul\":1691:1692   */\n  0x00\n    /* \"#utility.yul\":1701:1814   */\ntag_71:\n    /* \"#utility.yul\":1715:1721   */\n  dup4\n    /* \"#utility.yul\":1712:1713   */\n  dup2\n    /* \"#utility.yul\":1709:1722   */\n  lt\n    /* \"#utility.yul\":1701:1814   */\n  iszero\n  tag_73\n  jumpi\n    /* \"#utility.yul\":1800:1801   */\n  dup1\n    /* \"#utility.yul\":1795:1798   */\n  dup3\n    /* \"#utility.yul\":1791:1802   */\n  add\n    /* \"#utility.yul\":1785:1803   */\n  mload\n    /* \"#utility.yul\":1781:1782   */\n  dup2\n    /* \"#utility.yul\":1776:1779   */\n  dup5\n    /* \"#utility.yul\":1772:1783   */\n  add\n    /* \"#utility.yul\":1765:1804   */\n  mstore\n    /* \"#utility.yul\":1737:1739   */\n  0x20\n    /* \"#utility.yul\":1734:1735   */\n  dup2\n    /* \"#utility.yul\":1730:1740   */\n  add\n    /* \"#utility.yul\":1725:1740   */\n  swap1\n  pop\n    /* \"#utility.yul\":1701:1814   */\n  jump(tag_71)\ntag_73:\n    /* \"#utility.yul\":1848:1849   */\n  0x00\n    /* \"#utility.yul\":1839:1845   */\n  dup5\n    /* \"#utility.yul\":1834:1837   */\n  dup5\n    /* \"#utility.yul\":1830:1846   */\n  add\n    /* \"#utility.yul\":1823:1850   */\n  mstore\n    /* \"#utility.yul\":1672:1856   */\n  pop\n    /* \"#utility.yul\":1610:1856   */\n  pop\n  pop\n  pop\n  jump\t// out\n    /* \"#utility.yul\":1862:2296   */\ntag_25:\n    /* \"#utility.yul\":1951:1956   */\n  0x00\n    /* \"#utility.yul\":1976:2042   */\n  tag_75\n    /* \"#utility.yul\":1992:2041   */\n  tag_76\n    /* \"#utility.yul\":2034:2040   */\n  dup5\n    /* \"#utility.yul\":1992:2041   */\n  tag_23\n  jump\t// in\ntag_76:\n    /* \"#utility.yul\":1976:2042   */\n  tag_22\n  jump\t// in\ntag_75:\n    /* \"#utility.yul\":1967:2042   */\n  swap1\n  pop\n    /* \"#utility.yul\":2065:2071   */\n  dup3\n    /* \"#utility.yul\":2058:2063   */\n  dup2\n    /* \"#utility.yul\":2051:2072   */\n  mstore\n    /* \"#utility.yul\":2103:2107   */\n  0x20\n    /* \"#utility.yul\":2096:2101   */\n  dup2\n    /* \"#utility.yul\":2092:2108   */\n  add\n    /* \"#utility.yul\":2141:2144   */\n  dup5\n    /* \"#utility.yul\":2132:2138   */\n  dup5\n    /* \"#utility.yul\":2127:2130   */\n  dup5\n    /* \"#utility.yul\":2123:2139   */\n  add\n    /* \"#utility.yul\":2120:2145   */\n  gt\n    /* \"#utility.yul\":2117:2229   */\n  iszero\n  tag_77\n  jumpi\n    /* \"#utility.yul\":2148:2227   */\n  tag_78\n  tag_18\n  jump\t// in\ntag_78:\n    /* \"#utility.yul\":2117:2229   */\ntag_77:\n    /* \"#utility.yul\":2238:2290   */\n  tag_79\n    /* \"#utility.yul\":2283:2289   */\n  dup5\n    /* \"#utility.yul\":2278:2281   */\n  dup3\n    /* \"#utility.yul\":2273:2276   */\n  dup6\n    /* \"#utility.yul\":2238:2290   */\n  tag_24\n  jump\t// in\ntag_79:\n    /* \"#utility.yul\":1957:2296   */\n  pop\n    /* \"#utility.yul\":1862:2296   */\n  swap4\n  swap3\n  pop\n  pop\n  pop\n  jump\t// out\n    /* \"#utility.yul\":2316:2671   */\ntag_26:\n    /* \"#utility.yul\":2383:2388   */\n  0x00\n    /* \"#utility.yul\":2432:2435   */\n  dup3\n    /* \"#utility.yul\":2425:2429   */\n  0x1f\n    /* \"#utility.yul\":2417:2423   */\n  dup4\n    /* \"#utility.yul\":2413:2430   */\n  add\n    /* \"#utility.yul\":2409:2436   */\n  slt\n    /* \"#utility.yul\":2399:2521   */\n  tag_81\n  jumpi\n    /* \"#utility.yul\":2440:2519   */\n  tag_82\n  tag_17\n  jump\t// in\ntag_82:\n    /* \"#utility.yul\":2399:2521   */\ntag_81:\n    /* \"#utility.yul\":2550:2556   */\n  dup2\n    /* \"#utility.yul\":2544:2557   */\n  mload\n    /* \"#utility.yul\":2575:2665   */\n  tag_83\n    /* \"#utility.yul\":2661:2664   */\n  dup5\n    /* \"#utility.yul\":2653:2659   */\n  dup3\n    /* \"#utility.yul\":2646:2650   */\n  0x20\n    /* \"#utility.yul\":2638:2644   */\n  dup7\n    /* \"#utility.yul\":2634:2651   */\n  add\n    /* \"#utility.yul\":2575:2665   */\n  tag_25\n  jump\t// in\ntag_83:\n    /* \"#utility.yul\":2566:2665   */\n  swap2\n  pop\n    /* \"#utility.yul\":2389:2671   */\n  pop\n    /* \"#utility.yul\":2316:2671   */\n  swap3\n  swap2\n  pop\n  pop\n  jump\t// out\n    /* \"#utility.yul\":2677:2754   */\ntag_27:\n    /* \"#utility.yul\":2714:2721   */\n  0x00\n    /* \"#utility.yul\":2743:2748   */\n  dup2\n    /* \"#utility.yul\":2732:2748   */\n  swap1\n  pop\n    /* \"#utility.yul\":2677:2754   */\n  swap2\n  swap1\n  pop\n  jump\t// out\n    /* \"#utility.yul\":2760:2882   */\ntag_28:\n    /* \"#utility.yul\":2833:2857   */\n  tag_86\n    /* \"#utility.yul\":2851:2856   */\n  dup2\n    /* \"#utility.yul\":2833:2857   */\n  tag_27\n  jump\t// in\ntag_86:\n    /* \"#utility.yul\":2826:2831   */\n  dup2\n    /* \"#utility.yul\":2823:2858   */\n  eq\n    /* \"#utility.yul\":2813:2876   */\n  tag_87\n  jumpi\n    /* \"#utility.yul\":2872:2873   */\n  0x00\n    /* \"#utility.yul\":2869:2870   */\n  dup1\n    /* \"#utility.yul\":2862:2874   */\n  revert\n    /* \"#utility.yul\":2813:2876   */\ntag_87:\n    /* \"#utility.yul\":2760:2882   */\n  pop\n  jump\t// out\n    /* \"#utility.yul\":2888:3031   */\ntag_29:\n    /* \"#utility.yul\":2945:2950   */\n  0x00\n    /* \"#utility.yul\":2976:2982   */\n  dup2\n    /* \"#utility.yul\":2970:2983   */\n  mload\n    /* \"#utility.yul\":2961:2983   */\n  swap1\n  pop\n    /* \"#utility.yul\":2992:3025   */\n  tag_89\n    /* \"#utility.yul\":3019:3024   */\n  dup2\n    /* \"#utility.yul\":2992:3025   */\n  tag_28\n  jump\t// in\ntag_89:\n    /* \"#utility.yul\":2888:3031   */\n  swap3\n  swap2\n  pop\n  pop\n  jump\t// out\n    /* \"#utility.yul\":3037:4203   */\ntag_3:\n    /* \"#utility.yul\":3154:3160   */\n  0x00\n    /* \"#utility.yul\":3162:3168   */\n  dup1\n    /* \"#utility.yul\":3170:3176   */\n  0x00\n    /* \"#utility.yul\":3178:3184   */\n  dup1\n    /* \"#utility.yul\":3227:3230   */\n  0x80\n    /* \"#utility.yul\":3215:3224   */\n  dup6\n    /* \"#utility.yul\":3206:3213   */\n  dup8\n    /* \"#utility.yul\":3202:3225   */\n  sub\n    /* \"#utility.yul\":3198:3231   */\n  slt\n    /* \"#utility.yul\":3195:3315   */\n  iszero\n  tag_91\n  jumpi\n    /* \"#utility.yul\":3234:3313   */\n  tag_92\n  tag_15\n  jump\t// in\ntag_92:\n    /* \"#utility.yul\":3195:3315   */\ntag_91:\n    /* \"#utility.yul\":3375:3376   */\n  0x00\n    /* \"#utility.yul\":3364:3373   */\n  dup6\n    /* \"#utility.yul\":3360:3377   */\n  add\n    /* \"#utility.yul\":3354:3378   */\n  mload\n    /* \"#utility.yul\":3405:3423   */\n  0xffffffffffffffff\n    /* \"#utility.yul\":3397:3403   */\n  dup2\n    /* \"#utility.yul\":3394:3424   */\n  gt\n    /* \"#utility.yul\":3391:3508   */\n  iszero\n  tag_93\n  jumpi\n    /* \"#utility.yul\":3427:3506   */\n  tag_94\n  tag_16\n  jump\t// in\ntag_94:\n    /* \"#utility.yul\":3391:3508   */\ntag_93:\n    /* \"#utility.yul\":3532:3606   */\n  tag_95\n    /* \"#utility.yul\":3598:3605   */\n  dup8\n    /* \"#utility.yul\":3589:3595   */\n  dup3\n    /* \"#utility.yul\":3578:3587   */\n  dup9\n    /* \"#utility.yul\":3574:3596   */\n  add\n    /* \"#utility.yul\":3532:3606   */\n  tag_26\n  jump\t// in\ntag_95:\n    /* \"#utility.yul\":3522:3606   */\n  swap5\n  pop\n    /* \"#utility.yul\":3325:3616   */\n  pop\n    /* \"#utility.yul\":3655:3657   */\n  0x20\n    /* \"#utility.yul\":3681:3745   */\n  tag_96\n    /* \"#utility.yul\":3737:3744   */\n  dup8\n    /* \"#utility.yul\":3728:3734   */\n  dup3\n    /* \"#utility.yul\":3717:3726   */\n  dup9\n    /* \"#utility.yul\":3713:3735   */\n  add\n    /* \"#utility.yul\":3681:3745   */\n  tag_29\n  jump\t// in\ntag_96:\n    /* \"#utility.yul\":3671:3745   */\n  swap4\n  pop\n    /* \"#utility.yul\":3626:3755   */\n  pop\n    /* \"#utility.yul\":3815:3817   */\n  0x40\n    /* \"#utility.yul\":3804:3813   */\n  dup6\n    /* \"#utility.yul\":3800:3818   */\n  add\n    /* \"#utility.yul\":3794:3819   */\n  mload\n    /* \"#utility.yul\":3846:3864   */\n  0xffffffffffffffff\n    /* \"#utility.yul\":3838:3844   */\n  dup2\n    /* \"#utility.yul\":3835:3865   */\n  gt\n    /* \"#utility.yul\":3832:3949   */\n  iszero\n  tag_97\n  jumpi\n    /* \"#utility.yul\":3868:3947   */\n  tag_98\n  tag_16\n  jump\t// in\ntag_98:\n    /* \"#utility.yul\":3832:3949   */\ntag_97:\n    /* \"#utility.yul\":3973:4047   */\n  tag_99\n    /* \"#utility.yul\":4039:4046   */\n  dup8\n    /* \"#utility.yul\":4030:4036   */\n  dup3\n    /* \"#utility.yul\":4019:4028   */\n  dup9\n    /* \"#utility.yul\":4015:4037   */\n  add\n    /* \"#utility.yul\":3973:4047   */\n  tag_26\n  jump\t// in\ntag_99:\n    /* \"#utility.yul\":3963:4047   */\n  swap3\n  pop\n    /* \"#utility.yul\":3765:4057   */\n  pop\n    /* \"#utility.yul\":4096:4098   */\n  0x60\n    /* \"#utility.yul\":4122:4186   */\n  tag_100\n    /* \"#utility.yul\":4178:4185   */\n  dup8\n    /* \"#utility.yul\":4169:4175   */\n  dup3\n    /* \"#utility.yul\":4158:4167   */\n  dup9\n    /* \"#utility.yul\":4154:4176   */\n  add\n    /* \"#utility.yul\":4122:4186   */\n  tag_29\n  jump\t// in\ntag_100:\n    /* \"#utility.yul\":4112:4186   */\n  swap2\n  pop\n    /* \"#utility.yul\":4067:4196   */\n  pop\n    /* \"#utility.yul\":3037:4203   */\n  swap3\n  swap6\n  swap2\n  swap5\n  pop\n  swap3\n  pop\n  jump\t// out\n    /* \"#utility.yul\":4209:4308   */\ntag_30:\n    /* \"#utility.yul\":4261:4267   */\n  0x00\n    /* \"#utility.yul\":4295:4300   */\n  dup2\n    /* \"#utility.yul\":4289:4301   */\n  mload\n    /* \"#utility.yul\":4279:4301   */\n  swap1\n  pop\n    /* \"#utility.yul\":4209:4308   */\n  swap2\n  swap1\n  pop\n  jump\t// out\n    /* \"#utility.yul\":4314:4483   */\ntag_31:\n    /* \"#utility.yul\":4398:4409   */\n  0x00\n    /* \"#utility.yul\":4432:4438   */\n  dup3\n    /* \"#utility.yul\":4427:4430   */\n  dup3\n    /* \"#utility.yul\":4420:4439   */\n  mstore\n    /* \"#utility.yul\":4472:4476   */\n  0x20\n    /* \"#utility.yul\":4467:4470   */\n  dup3\n    /* \"#utility.yul\":4463:4477   */\n  add\n    /* \"#utility.yul\":4448:4477   */\n  swap1\n  pop\n    /* \"#utility.yul\":4314:4483   */\n  swap3\n  swap2\n  pop\n  pop\n  jump\t// out\n    /* \"#utility.yul\":4489:4866   */\ntag_32:\n    /* \"#utility.yul\":4577:4580   */\n  0x00\n    /* \"#utility.yul\":4605:4644   */\n  tag_104\n    /* \"#utility.yul\":4638:4643   */\n  dup3\n    /* \"#utility.yul\":4605:4644   */\n  tag_30\n  jump\t// in\ntag_104:\n    /* \"#utility.yul\":4660:4731   */\n  tag_105\n    /* \"#utility.yul\":4724:4730   */\n  dup2\n    /* \"#utility.yul\":4719:4722   */\n  dup6\n    /* \"#utility.yul\":4660:4731   */\n  tag_31\n  jump\t// in\ntag_105:\n    /* \"#utility.yul\":4653:4731   */\n  swap4\n  pop\n    /* \"#utility.yul\":4740:4805   */\n  tag_106\n    /* \"#utility.yul\":4798:4804   */\n  dup2\n    /* \"#utility.yul\":4793:4796   */\n  dup6\n    /* \"#utility.yul\":4786:4790   */\n  0x20\n    /* \"#utility.yul\":4779:4784   */\n  dup7\n    /* \"#utility.yul\":4775:4791   */\n  add\n    /* \"#utility.yul\":4740:4805   */\n  tag_24\n  jump\t// in\ntag_106:\n    /* \"#utility.yul\":4830:4859   */\n  tag_107\n    /* \"#utility.yul\":4852:4858   */\n  dup2\n    /* \"#utility.yul\":4830:4859   */\n  tag_19\n  jump\t// in\ntag_107:\n    /* \"#utility.yul\":4825:4828   */\n  dup5\n    /* \"#utility.yul\":4821:4860   */\n  add\n    /* \"#utility.yul\":4814:4860   */\n  swap2\n  pop\n    /* \"#utility.yul\":4581:4866   */\n  pop\n    /* \"#utility.yul\":4489:4866   */\n  swap3\n  swap2\n  pop\n  pop\n  jump\t// out\n    /* \"#utility.yul\":4872:4990   */\ntag_33:\n    /* \"#utility.yul\":4959:4983   */\n  tag_109\n    /* \"#utility.yul\":4977:4982   */\n  dup2\n    /* \"#utility.yul\":4959:4983   */\n  tag_27\n  jump\t// in\ntag_109:\n    /* \"#utility.yul\":4954:4957   */\n  dup3\n    /* \"#utility.yul\":4947:4984   */\n  mstore\n    /* \"#utility.yul\":4872:4990   */\n  pop\n  pop\n  jump\t// out\n    /* \"#utility.yul\":4996:5419   */\ntag_9:\n    /* \"#utility.yul\":5137:5141   */\n  0x00\n    /* \"#utility.yul\":5175:5177   */\n  0x40\n    /* \"#utility.yul\":5164:5173   */\n  dup3\n    /* \"#utility.yul\":5160:5178   */\n  add\n    /* \"#utility.yul\":5152:5178   */\n  swap1\n  pop\n    /* \"#utility.yul\":5224:5233   */\n  dup2\n    /* \"#utility.yul\":5218:5222   */\n  dup2\n    /* \"#utility.yul\":5214:5234   */\n  sub\n    /* \"#utility.yul\":5210:5211   */\n  0x00\n    /* \"#utility.yul\":5199:5208   */\n  dup4\n    /* \"#utility.yul\":5195:5212   */\n  add\n    /* \"#utility.yul\":5188:5235   */\n  mstore\n    /* \"#utility.yul\":5252:5330   */\n  tag_111\n    /* \"#utility.yul\":5325:5329   */\n  dup2\n    /* \"#utility.yul\":5316:5322   */\n  dup6\n    /* \"#utility.yul\":5252:5330   */\n  tag_32\n  jump\t// in\ntag_111:\n    /* \"#utility.yul\":5244:5330   */\n  swap1\n  pop\n    /* \"#utility.yul\":5340:5412   */\n  tag_112\n    /* \"#utility.yul\":5408:5410   */\n  0x20\n    /* \"#utility.yul\":5397:5406   */\n  dup4\n    /* \"#utility.yul\":5393:5411   */\n  add\n    /* \"#utility.yul\":5384:5390   */\n  dup5\n    /* \"#utility.yul\":5340:5412   */\n  tag_33\n  jump\t// in\ntag_112:\n    /* \"#utility.yul\":4996:5419   */\n  swap4\n  swap3\n  pop\n  pop\n  pop\n  jump\t// out\n    /* \"#utility.yul\":5425:5605   */\ntag_34:\n    /* \"#utility.yul\":5473:5550   */\n  0x4e487b7100000000000000000000000000000000000000000000000000000000\n    /* \"#utility.yul\":5470:5471   */\n  0x00\n    /* \"#utility.yul\":5463:5551   */\n  mstore\n    /* \"#utility.yul\":5570:5574   */\n  0x22\n    /* \"#utility.yul\":5567:5568   */\n  0x04\n    /* \"#utility.yul\":5560:5575   */\n  mstore\n    /* \"#utility.yul\":5594:5598   */\n  0x24\n    /* \"#utility.yul\":5591:5592   */\n  0x00\n    /* \"#utility.yul\":5584:5599   */\n  revert\n    /* \"#utility.yul\":5611:5931   */\ntag_35:\n    /* \"#utility.yul\":5655:5661   */\n  0x00\n    /* \"#utility.yul\":5692:5693   */\n  0x02\n    /* \"#utility.yul\":5686:5690   */\n  dup3\n    /* \"#utility.yul\":5682:5694   */\n  div\n    /* \"#utility.yul\":5672:5694   */\n  swap1\n  pop\n    /* \"#utility.yul\":5739:5740   */\n  0x01\n    /* \"#utility.yul\":5733:5737   */\n  dup3\n    /* \"#utility.yul\":5729:5741   */\n  and\n    /* \"#utility.yul\":5760:5778   */\n  dup1\n    /* \"#utility.yul\":5750:5831   */\n  tag_115\n  jumpi\n    /* \"#utility.yul\":5816:5820   */\n  0x7f\n    /* \"#utility.yul\":5808:5814   */\n  dup3\n    /* \"#utility.yul\":5804:5821   */\n  and\n    /* \"#utility.yul\":5794:5821   */\n  swap2\n  pop\n    /* \"#utility.yul\":5750:5831   */\ntag_115:\n    /* \"#utility.yul\":5878:5880   */\n  0x20\n    /* \"#utility.yul\":5870:5876   */\n  dup3\n    /* \"#utility.yul\":5867:5881   */\n  lt\n    /* \"#utility.yul\":5847:5865   */\n  dup2\n    /* \"#utility.yul\":5844:5882   */\n  sub\n    /* \"#utility.yul\":5841:5925   */\n  tag_116\n  jumpi\n    /* \"#utility.yul\":5897:5915   */\n  tag_117\n  tag_34\n  jump\t// in\ntag_117:\n    /* \"#utility.yul\":5841:5925   */\ntag_116:\n    /* \"#utility.yul\":5662:5931   */\n  pop\n    /* \"#utility.yul\":5611:5931   */\n  swap2\n  swap1\n  pop\n  jump\t// out\n    /* \"#utility.yul\":5937:6078   */\ntag_36:\n    /* \"#utility.yul\":5986:5990   */\n  0x00\n    /* \"#utility.yul\":6009:6012   */\n  dup2\n    /* \"#utility.yul\":6001:6012   */\n  swap1\n  pop\n    /* \"#utility.yul\":6032:6035   */\n  dup2\n    /* \"#utility.yul\":6029:6030   */\n  0x00\n    /* \"#utility.yul\":6022:6036   */\n  mstore\n    /* \"#utility.yul\":6066:6070   */\n  0x20\n    /* \"#utility.yul\":6063:6064   */\n  0x00\n    /* \"#utility.yul\":6053:6071   */\n  keccak256\n    /* \"#utility.yul\":6045:6071   */\n  swap1\n  pop\n    /* \"#utility.yul\":5937:6078   */\n  swap2\n  swap1\n  pop\n  jump\t// out\n    /* \"#utility.yul\":6084:6177   */\ntag_37:\n    /* \"#utility.yul\":6121:6127   */\n  0x00\n    /* \"#utility.yul\":6168:6170   */\n  0x20\n    /* \"#utility.yul\":6163:6165   */\n  0x1f\n    /* \"#utility.yul\":6156:6161   */\n  dup4\n    /* \"#utility.yul\":6152:6166   */\n  add\n    /* \"#utility.yul\":6148:6171   */\n  div\n    /* \"#utility.yul\":6138:6171   */\n  swap1\n  pop\n    /* \"#utility.yul\":6084:6177   */\n  swap2\n  swap1\n  pop\n  jump\t// out\n    /* \"#utility.yul\":6183:6290   */\ntag_38:\n    /* \"#utility.yul\":6227:6235   */\n  0x00\n    /* \"#utility.yul\":6277:6282   */\n  dup3\n    /* \"#utility.yul\":6271:6275   */\n  dup3\n    /* \"#utility.yul\":6267:6283   */\n  shl\n    /* \"#utility.yul\":6246:6283   */\n  swap1\n  pop\n    /* \"#utility.yul\":6183:6290   */\n  swap3\n  swap2\n  pop\n  pop\n  jump\t// out\n    /* \"#utility.yul\":6296:6689   */\ntag_39:\n    /* \"#utility.yul\":6365:6371   */\n  0x00\n    /* \"#utility.yul\":6415:6416   */\n  0x08\n    /* \"#utility.yul\":6403:6413   */\n  dup4\n    /* \"#utility.yul\":6399:6417   */\n  mul\n    /* \"#utility.yul\":6438:6535   */\n  tag_122\n    /* \"#utility.yul\":6468:6534   */\n  0xffffffffffffffffffffffffffffffffffffffffffffffffffffffffffffffff\n    /* \"#utility.yul\":6457:6466   */\n  dup3\n    /* \"#utility.yul\":6438:6535   */\n  tag_38\n  jump\t// in\ntag_122:\n    /* \"#utility.yul\":6556:6595   */\n  tag_123\n    /* \"#utility.yul\":6586:6594   */\n  dup7\n    /* \"#utility.yul\":6575:6584   */\n  dup4\n    /* \"#utility.yul\":6556:6595   */\n  tag_38\n  jump\t// in\ntag_123:\n    /* \"#utility.yul\":6544:6595   */\n  swap6\n  pop\n    /* \"#utility.yul\":6628:6632   */\n  dup1\n    /* \"#utility.yul\":6624:6633   */\n  not\n    /* \"#utility.yul\":6617:6622   */\n  dup5\n    /* \"#utility.yul\":6613:6634   */\n  and\n    /* \"#utility.yul\":6604:6634   */\n  swap4\n  pop\n    /* \"#utility.yul\":6677:6681   */\n  dup1\n    /* \"#utility.yul\":6667:6675   */\n  dup7\n    /* \"#utility.yul\":6663:6682   */\n  and\n    /* \"#utility.yul\":6656:6661   */\n  dup5\n    /* \"#utility.yul\":6653:6683   */\n  or\n    /* \"#utility.yul\":6643:6683   */\n  swap3\n  pop\n    /* \"#utility.yul\":6372:6689   */\n  pop\n  pop\n    /* \"#utility.yul\":6296:6689   */\n  swap4\n  swap3\n  pop\n  pop\n  pop\n  jump\t// out\n    /* \"#utility.yul\":6695:6755   */\ntag_40:\n    /* \"#utility.yul\":6723:6726   */\n  0x00\n    /* \"#utility.yul\":6744:6749   */\n  dup2\n    /* \"#utility.yul\":6737:6749   */\n  swap1\n  pop\n    /* \"#utility.yul\":6695:6755   */\n  swap2\n  swap1\n  pop\n  jump\t// out\n    /* \"#utility.yul\":6761:6903   */\ntag_41:\n    /* \"#utility.yul\":6811:6820   */\n  0x00\n    /* \"#utility.yul\":6844:6897   */\n  tag_126\n    /* \"#utility.yul\":6862:6896   */\n  tag_127\n    /* \"#utility.yul\":6871:6895   */\n  tag_128\n    /* \"#utility.yul\":6889:6894   */\n  dup5\n    /* \"#utility.yul\":6871:6895   */\n  tag_27\n  jump\t// in\ntag_128:\n    /* \"#utility.yul\":6862:6896   */\n  tag_40\n  jump\t// in\ntag_127:\n    /* \"#utility.yul\":6844:6897   */\n  tag_27\n  jump\t// in\ntag_126:\n    /* \"#utility.yul\":6831:6897   */\n  swap1\n  pop\n    /* \"#utility.yul\":6761:6903   */\n  swap2\n  swap1\n  pop\n  jump\t// out\n    /* \"#utility.yul\":6909:6984   */\ntag_42:\n    /* \"#utility.yul\":6952:6955   */\n  0x00\n    /* \"#utility.yul\":6973:6978   */\n  dup2\n    /* \"#utility.yul\":6966:6978   */\n  swap1\n  pop\n    /* \"#utility.yul\":6909:6984   */\n  swap2\n  swap1\n  pop\n  jump\t// out\n    /* \"#utility.yul\":6990:7259   */\ntag_43:\n    /* \"#utility.yul\":7100:7139   */\n  tag_131\n    /* \"#utility.yul\":7131:7138   */\n  dup4\n    /* \"#utility.yul\":7100:7139   */\n  tag_41\n  jump\t// in\ntag_131:\n    /* \"#utility.yul\":7161:7252   */\n  tag_132\n    /* \"#utility.yul\":7210:7251   */\n  tag_133\n    /* \"#utility.yul\":7234:7250   */\n  dup3\n    /* \"#utility.yul\":7210:7251   */\n  tag_42\n  jump\t// in\ntag_133:\n    /* \"#utility.yul\":7202:7208   */\n  dup5\n    /* \"#utility.yul\":7195:7199   */\n  dup5\n    /* \"#utility.yul\":7189:7200   */\n  sload\n    /* \"#utility.yul\":7161:7252   */\n  tag_39\n  jump\t// in\ntag_132:\n    /* \"#utility.yul\":7155:7159   */\n  dup3\n    /* \"#utility.yul\":7148:7253   */\n  sstore\n    /* \"#utility.yul\":7066:7259   */\n  pop\n    /* \"#utility.yul\":6990:7259   */\n  pop\n  pop\n  pop\n  jump\t// out\n    /* \"#utility.yul\":7265:7338   */\ntag_44:\n    /* \"#utility.yul\":7310:7313   */\n  0x00\n    /* \"#utility.yul\":7265:7338   */\n  swap1\n  jump\t// out\n    /* \"#utility.yul\":7344:7533   */\ntag_45:\n    /* \"#utility.yul\":7421:7453   */\n  tag_136\n  tag_44\n  jump\t// in\ntag_136:\n    /* \"#utility.yul\":7462:7527   */\n  tag_137\n    /* \"#utility.yul\":7520:7526   */\n  dup2\n    /* \"#utility.yul\":7512:7518   */\n  dup5\n    /* \"#utility.yul\":7506:7510   */\n  dup5\n    /* \"#utility.yul\":7462:7527   */\n  tag_43\n  jump\t// in\ntag_137:\n    /* \"#utility.yul\":7397:7533   */\n  pop\n    /* \"#utility.yul\":7344:7533   */\n  pop\n  pop\n  jump\t// out\n    /* \"#utility.yul\":7539:7725   */\ntag_46:\n    /* \"#utility.yul\":7599:7719   */\ntag_139:\n    /* \"#utility.yul\":7616:7619   */\n  dup2\n    /* \"#utility.yul\":7609:7614   */\n  dup2\n    /* \"#utility.yul\":7606:7620   */\n  lt\n    /* \"#utility.yul\":7599:7719   */\n  iszero\n  tag_141\n  jumpi\n    /* \"#utility.yul\":7670:7709   */\n  tag_142\n    /* \"#utility.yul\":7707:7708   */\n  0x00\n    /* \"#utility.yul\":7700:7705   */\n  dup3\n    /* \"#utility.yul\":7670:7709   */\n  tag_45\n  jump\t// in\ntag_142:\n    /* \"#utility.yul\":7643:7644   */\n  0x01\n    /* \"#utility.yul\":7636:7641   */\n  dup2\n    /* \"#utility.yul\":7632:7645   */\n  add\n    /* \"#utility.yul\":7623:7645   */\n  swap1\n  pop\n    /* \"#utility.yul\":7599:7719   */\n  jump(tag_139)\ntag_141:\n    /* \"#utility.yul\":7539:7725   */\n  pop\n  pop\n  jump\t// out\n    /* \"#utility.yul\":7731:8274   */\ntag_47:\n    /* \"#utility.yul\":7832:7834   */\n  0x1f\n    /* \"#utility.yul\":7827:7830   */\n  dup3\n    /* \"#utility.yul\":7824:7835   */\n  gt\n    /* \"#utility.yul\":7821:8267   */\n  iszero\n  tag_144\n  jumpi\n    /* \"#utility.yul\":7866:7904   */\n  tag_145\n    /* \"#utility.yul\":7898:7903   */\n  dup2\n    /* \"#utility.yul\":7866:7904   */\n  tag_36\n  jump\t// in\ntag_145:\n    /* \"#utility.yul\":7950:7979   */\n  tag_146\n    /* \"#utility.yul\":7968:7978   */\n  dup5\n    /* \"#utility.yul\":7950:7979   */\n  tag_37\n  jump\t// in\ntag_146:\n    /* \"#utility.yul\":7940:7948   */\n  dup2\n    /* \"#utility.yul\":7936:7980   */\n  add\n    /* \"#utility.yul\":8133:8135   */\n  0x20\n    /* \"#utility.yul\":8121:8131   */\n  dup6\n    /* \"#utility.yul\":8118:8136   */\n  lt\n    /* \"#utility.yul\":8115:8164   */\n  iszero\n  tag_147\n  jumpi\n    /* \"#utility.yul\":8154:8162   */\n  dup2\n    /* \"#utility.yul\":8139:8162   */\n  swap1\n  pop\n    /* \"#utility.yul\":8115:8164   */\ntag_147:\n    /* \"#utility.yul\":8177:8257   */\n  tag_148\n    /* \"#utility.yul\":8233:8255   */\n  tag_149\n    /* \"#utility.yul\":8251:8254   */\n  dup6\n    /* \"#utility.yul\":8233:8255   */\n  tag_37\n  jump\t// in\ntag_149:\n    /* \"#utility.yul\":8223:8231   */\n  dup4\n    /* \"#utility.yul\":8219:8256   */\n  add\n    /* \"#utility.yul\":8206:8217   */\n  dup3\n    /* \"#utility.yul\":8177:8257   */\n  tag_46\n  jump\t// in\ntag_148:\n    /* \"#utility.yul\":7836:8267   */\n  pop\n  pop\n    /* \"#utility.yul\":7821:8267   */\ntag_144:\n    /* \"#utility.yul\":7731:8274   */\n  pop\n  pop\n  pop\n  jump\t// out\n    /* \"#utility.yul\":8280:8397   */\ntag_48:\n    /* \"#utility.yul\":8334:8342   */\n  0x00\n    /* \"#utility.yul\":8384:8389   */\n  dup3\n    /* \"#utility.yul\":8378:8382   */\n  dup3\n    /* \"#utility.yul\":8374:8390   */\n  shr\n    /* \"#utility.yul\":8353:8390   */\n  swap1\n  pop\n    /* \"#utility.yul\":8280:8397   */\n  swap3\n  swap2\n  pop\n  pop\n  jump\t// out\n    /* \"#utility.yul\":8403:8572   */\ntag_49:\n    /* \"#utility.yul\":8447:8453   */\n  0x00\n    /* \"#utility.yul\":8480:8531   */\n  tag_152\n    /* \"#utility.yul\":8528:8529   */\n  0x00\n    /* \"#utility.yul\":8524:8530   */\n  not\n    /* \"#utility.yul\":8516:8521   */\n  dup5\n    /* \"#utility.yul\":8513:8514   */\n  0x08\n    /* \"#utility.yul\":8509:8522   */\n  mul\n    /* \"#utility.yul\":8480:8531   */\n  tag_48\n  jump\t// in\ntag_152:\n    /* \"#utility.yul\":8476:8532   */\n  not\n    /* \"#utility.yul\":8561:8565   */\n  dup1\n    /* \"#utility.yul\":8555:8559   */\n  dup4\n    /* \"#utility.yul\":8551:8566   */\n  and\n    /* \"#utility.yul\":8541:8566   */\n  swap2\n  pop\n    /* \"#utility.yul\":8454:8572   */\n  pop\n    /* \"#utility.yul\":8403:8572   */\n  swap3\n  swap2\n  pop\n  pop\n  jump\t// out\n    /* \"#utility.yul\":8577:8872   */\ntag_50:\n    /* \"#utility.yul\":8653:8657   */\n  0x00\n    /* \"#utility.yul\":8799:8828   */\n  tag_154\n    /* \"#utility.yul\":8824:8827   */\n  dup4\n    /* \"#utility.yul\":8818:8822   */\n  dup4\n    /* \"#utility.yul\":8799:8828   */\n  tag_49\n  jump\t// in\ntag_154:\n    /* \"#utility.yul\":8791:8828   */\n  swap2\n  pop\n    /* \"#utility.yul\":8861:8864   */\n  dup3\n    /* \"#utility.yul\":8858:8859   */\n  0x02\n    /* \"#utility.yul\":8854:8865   */\n  mul\n    /* \"#utility.yul\":8848:8852   */\n  dup3\n    /* \"#utility.yul\":8845:8866   */\n  or\n    /* \"#utility.yul\":8837:8866   */\n  swap1\n  pop\n    /* \"#utility.yul\":8577:8872   */\n  swap3\n  swap2\n  pop\n  pop\n  jump\t// out\n    /* \"#utility.yul\":8877:10272   */\ntag_12:\n    /* \"#utility.yul\":8994:9031   */\n  tag_156\n    /* \"#utility.yul\":9027:9030   */\n  dup3\n    /* \"#utility.yul\":8994:9031   */\n  tag_30\n  jump\t// in\ntag_156:\n    /* \"#utility.yul\":9096:9114   */\n  0xffffffffffffffff\n    /* \"#utility.yul\":9088:9094   */\n  dup2\n    /* \"#utility.yul\":9085:9115   */\n  gt\n    /* \"#utility.yul\":9082:9138   */\n  iszero\n  tag_157\n  jumpi\n    /* \"#utility.yul\":9118:9136   */\n  tag_158\n  tag_20\n  jump\t// in\ntag_158:\n    /* \"#utility.yul\":9082:9138   */\ntag_157:\n    /* \"#utility.yul\":9162:9200   */\n  tag_159\n    /* \"#utility.yul\":9194:9198   */\n  dup3\n    /* \"#utility.yul\":9188:9199   */\n  sload\n    /* \"#utility.yul\":9162:9200   */\n  tag_35\n  jump\t// in\ntag_159:\n    /* \"#utility.yul\":9247:9314   */\n  tag_160\n    /* \"#utility.yul\":9307:9313   */\n  dup3\n    /* \"#utility.yul\":9299:9305   */\n  dup3\n    /* \"#utility.yul\":9293:9297   */\n  dup6\n    /* \"#utility.yul\":9247:9314   */\n  tag_47\n  jump\t// in\ntag_160:\n    /* \"#utility.yul\":9341:9342   */\n  0x00\n    /* \"#utility.yul\":9365:9369   */\n  0x20\n    /* \"#utility.yul\":9352:9369   */\n  swap1\n  pop\n    /* \"#utility.yul\":9397:9399   */\n  0x1f\n    /* \"#utility.yul\":9389:9395   */\n  dup4\n    /* \"#utility.yul\":9386:9400   */\n  gt\n    /* \"#utility.yul\":9414:9415   */\n  0x01\n    /* \"#utility.yul\":9409:10027   */\n  dup2\n  eq\n  tag_162\n  jumpi\n    /* \"#utility.yul\":10071:10072   */\n  0x00\n    /* \"#utility.yul\":10088:10094   */\n  dup5\n    /* \"#utility.yul\":10085:10162   */\n  iszero\n  tag_163\n  jumpi\n    /* \"#utility.yul\":10137:10146   */\n  dup3\n    /* \"#utility.yul\":10132:10135   */\n  dup8\n    /* \"#utility.yul\":10128:10147   */\n  add\n    /* \"#utility.yul\":10122:10148   */\n  mload\n    /* \"#utility.yul\":10113:10148   */\n  swap1\n  pop\n    /* \"#utility.yul\":10085:10162   */\ntag_163:\n    /* \"#utility.yul\":10188:10255   */\n  tag_164\n    /* \"#utility.yul\":10248:10254   */\n  dup6\n    /* \"#utility.yul\":10241:10246   */\n  dup3\n    /* \"#utility.yul\":10188:10255   */\n  tag_50\n  jump\t// in\ntag_164:\n    /* \"#utility.yul\":10182:10186   */\n  dup7\n    /* \"#utility.yul\":10175:10256   */\n  sstore\n    /* \"#utility.yul\":10044:10266   */\n  pop\n    /* \"#utility.yul\":9379:10266   */\n  jump(tag_161)\n    /* \"#utility.yul\":9409:10027   */\ntag_162:\n    /* \"#utility.yul\":9461:9465   */\n  0x1f\n    /* \"#utility.yul\":9457:9466   */\n  not\n    /* \"#utility.yul\":9449:9455   */\n  dup5\n    /* \"#utility.yul\":9445:9467   */\n  and\n    /* \"#utility.yul\":9495:9532   */\n  tag_165\n    /* \"#utility.yul\":9527:9531   */\n  dup7\n    /* \"#utility.yul\":9495:9532   */\n  tag_36\n  jump\t// in\ntag_165:\n    /* \"#utility.yul\":9554:9555   */\n  0x00\n    /* \"#utility.yul\":9568:9776   */\ntag_166:\n    /* \"#utility.yul\":9582:9589   */\n  dup3\n    /* \"#utility.yul\":9579:9580   */\n  dup2\n    /* \"#utility.yul\":9576:9590   */\n  lt\n    /* \"#utility.yul\":9568:9776   */\n  iszero\n  tag_168\n  jumpi\n    /* \"#utility.yul\":9661:9670   */\n  dup5\n    /* \"#utility.yul\":9656:9659   */\n  dup10\n    /* \"#utility.yul\":9652:9671   */\n  add\n    /* \"#utility.yul\":9646:9672   */\n  mload\n    /* \"#utility.yul\":9638:9644   */\n  dup3\n    /* \"#utility.yul\":9631:9673   */\n  sstore\n    /* \"#utility.yul\":9712:9713   */\n  0x01\n    /* \"#utility.yul\":9704:9710   */\n  dup3\n    /* \"#utility.yul\":9700:9714   */\n  add\n    /* \"#utility.yul\":9690:9714   */\n  swap2\n  pop\n    /* \"#utility.yul\":9759:9761   */\n  0x20\n    /* \"#utility.yul\":9748:9757   */\n  dup6\n    /* \"#utility.yul\":9744:9762   */\n  add\n    /* \"#utility.yul\":9731:9762   */\n  swap5\n  pop\n    /* \"#utility.yul\":9605:9609   */\n  0x20\n    /* \"#utility.yul\":9602:9603   */\n  dup2\n    /* \"#utility.yul\":9598:9610   */\n  add\n    /* \"#utility.yul\":9593:9610   */\n  swap1\n  pop\n    /* \"#utility.yul\":9568:9776   */\n  jump(tag_166)\ntag_168:\n    /* \"#utility.yul\":9804:9810   */\n  dup7\n    /* \"#utility.yul\":9795:9802   */\n  dup4\n    /* \"#utility.yul\":9792:9811   */\n  lt\n    /* \"#utility.yul\":9789:9968   */\n  iszero\n  tag_169\n  jumpi\n    /* \"#utility.yul\":9862:9871   */\n  dup5\n    /* \"#utility.yul\":9857:9860   */\n  dup10\n    /* \"#utility.yul\":9853:9872   */\n  add\n    /* \"#utility.yul\":9847:9873   */\n  mload\n    /* \"#utility.yul\":9905:9953   */\n  tag_170\n    /* \"#utility.yul\":9947:9951   */\n  0x1f\n    /* \"#utility.yul\":9939:9945   */\n  dup10\n    /* \"#utility.yul\":9935:9952   */\n  and\n    /* \"#utility.yul\":9924:9933   */\n  dup3\n    /* \"#utility.yul\":9905:9953   */\n  tag_49\n  jump\t// in\ntag_170:\n    /* \"#utility.yul\":9897:9903   */\n  dup4\n    /* \"#utility.yul\":9890:9954   */\n  sstore\n    /* \"#utility.yul\":9812:9968   */\n  pop\n    /* \"#utility.yul\":9789:9968   */\ntag_169:\n    /* \"#utility.yul\":10014:10015   */\n  0x01\n    /* \"#utility.yul\":10010:10011   */\n  0x02\n    /* \"#utility.yul\":10002:10008   */\n  dup9\n    /* \"#utility.yul\":9998:10012   */\n  mul\n    /* \"#utility.yul\":9994:10016   */\n  add\n    /* \"#utility.yul\":9988:9992   */\n  dup9\n    /* \"#utility.yul\":9981:10017   */\n  sstore\n    /* \"#utility.yul\":9416:10027   */\n  pop\n  pop\n  pop\n    /* \"#utility.yul\":9379:10266   */\ntag_161:\n  pop\n    /* \"#utility.yul\":8969:10272   */\n  pop\n  pop\n  pop\n    /* \"#utility.yul\":8877:10272   */\n  pop\n  pop\n  jump\t// out\n    /* \"contractGenerator.sol\":250:648  contract MomContract {... */\ntag_13:\n  dataSize(sub_0)\n  dup1\n  dataOffset(sub_0)\n  0x00\n  codecopy\n  0x00\n  return\nstop\n\nsub_0: assembly {\n        /* \"contractGenerator.sol\":250:648  contract MomContract {... */\n      mstore(0x40, 0x80)\n      callvalue\n      dup1\n      iszero\n      tag_1\n      jumpi\n      0x00\n      dup1\n      revert\n    tag_1:\n      pop\n      jumpi(tag_2, lt(calldatasize, 0x04))\n      shr(0xe0, calldataload(0x00))\n      dup1\n      0x06fdde03\n      eq\n      tag_3\n      jumpi\n      dup1\n      0x262a9dff\n      eq\n      tag_4\n      jumpi\n      dup1\n      0xfcf5ed06\n      eq\n      tag_5\n      jumpi\n    tag_2:\n      0x00\n      dup1\n      revert\n        /* \"contractGenerator.sol\":277:295  string public name */\n    tag_3:\n      tag_6\n      tag_7\n      jump\t// in\n    tag_6:\n      mload(0x40)\n      tag_8\n      swap2\n      swap1\n      tag_9\n      jump\t// in\n    tag_8:\n      mload(0x40)\n      dup1\n      swap2\n      sub\n      swap1\n      return\n        /* \"contractGenerator.sol\":301:319  uint256 public age */\n    tag_4:\n      tag_10\n      tag_11\n      jump\t// in\n    tag_10:\n      mload(0x40)\n      tag_12\n      swap2\n      swap1\n      tag_13\n      jump\t// in\n    tag_12:\n      mload(0x40)\n      dup1\n      swap2\n      sub\n      swap1\n      return\n        /* \"contractGenerator.sol\":325:357  DaughterContract public daughter */\n    tag_5:\n      tag_14\n      tag_15\n      jump\t// in\n    tag_14:\n      mload(0x40)\n      tag_16\n      swap2\n      swap1\n      tag_17\n      jump\t// in\n    tag_16:\n      mload(0x40)\n      dup1\n      swap2\n      sub\n      swap1\n      return\n        /* \"contractGenerator.sol\":277:295  string public name */\n    tag_7:\n      0x00\n      dup1\n      sload\n      tag_18\n      swap1\n      tag_19\n      jump\t// in\n    tag_18:\n      dup1\n      0x1f\n      add\n      0x20\n      dup1\n      swap2\n      div\n      mul\n      0x20\n      add\n      mload(0x40)\n      swap1\n      dup2\n      add\n      0x40\n      mstore\n      dup1\n      swap3\n      swap2\n      swap1\n      dup2\n      dup2\n      mstore\n      0x20\n      add\n      dup3\n      dup1\n      sload\n      tag_20\n      swap1\n      tag_19\n      jump\t// in\n    tag_20:\n      dup1\n      iszero\n      tag_21\n      jumpi\n      dup1\n      0x1f\n      lt\n      tag_22\n      jumpi\n      0x0100\n      dup1\n      dup4\n      sload\n      div\n      mul\n      dup4\n      mstore\n      swap2\n      0x20\n      add\n      swap2\n      jump(tag_21)\n    tag_22:\n      dup3\n      add\n      swap2\n      swap1\n      0x00\n      mstore\n      keccak256(0x00, 0x20)\n      swap1\n    tag_23:\n      dup2\n      sload\n      dup2\n      mstore\n      swap1\n      0x01\n      add\n      swap1\n      0x20\n      add\n      dup1\n      dup4\n      gt\n      tag_23\n      jumpi\n      dup3\n      swap1\n      sub\n      0x1f\n      and\n      dup3\n      add\n      swap2\n    tag_21:\n      pop\n      pop\n      pop\n      pop\n      pop\n      dup2\n      jump\t// out\n        /* \"contractGenerator.sol\":301:319  uint256 public age */\n    tag_11:\n      sload(0x01)\n      dup2\n      jump\t// out\n        /* \"contractGenerator.sol\":325:357  DaughterContract public daughter */\n    tag_15:\n      0x02\n      0x00\n      swap1\n      sload\n      swap1\n      0x0100\n      exp\n      swap1\n      div\n      0xffffffffffffffffffffffffffffffffffffffff\n      and\n      dup2\n      jump\t// out\n        /* \"#utility.yul\":7:106   */\n    tag_24:\n        /* \"#utility.yul\":59:65   */\n      0x00\n        /* \"#utility.yul\":93:98   */\n      dup2\n        /* \"#utility.yul\":87:99   */\n      mload\n        /* \"#utility.yul\":77:99   */\n      swap1\n      pop\n        /* \"#utility.yul\":7:106   */\n      swap2\n      swap1\n      pop\n      jump\t// out\n        /* \"#utility.yul\":112:281   */\n    tag_25:\n        /* \"#utility.yul\":196:207   */\n      0x00\n        /* \"#utility.yul\":230:236   */\n      dup3\n        /* \"#utility.yul\":225:228   */\n      dup3\n        /* \"#utility.yul\":218:237   */\n      mstore\n        /* \"#utility.yul\":270:274   */\n      0x20\n        /* \"#utility.yul\":265:268   */\n      dup3\n        /* \"#utility.yul\":261:275   */\n      add\n        /* \"#utility.yul\":246:275   */\n      swap1\n      pop\n        /* \"#utility.yul\":112:281   */\n      swap3\n      swap2\n      pop\n      pop\n      jump\t// out\n        /* \"#utility.yul\":287:533   */\n    tag_26:\n        /* \"#utility.yul\":368:369   */\n      0x00\n        /* \"#utility.yul\":378:491   */\n    tag_42:\n        /* \"#utility.yul\":392:398   */\n      dup4\n        /* \"#utility.yul\":389:390   */\n      dup2\n        /* \"#utility.yul\":386:399   */\n      lt\n        /* \"#utility.yul\":378:491   */\n      iszero\n      tag_44\n      jumpi\n        /* \"#utility.yul\":477:478   */\n      dup1\n        /* \"#utility.yul\":472:475   */\n      dup3\n        /* \"#utility.yul\":468:479   */\n      add\n        /* \"#utility.yul\":462:480   */\n      mload\n        /* \"#utility.yul\":458:459   */\n      dup2\n        /* \"#utility.yul\":453:456   */\n      dup5\n        /* \"#utility.yul\":449:460   */\n      add\n        /* \"#utility.yul\":442:481   */\n      mstore\n        /* \"#utility.yul\":414:416   */\n      0x20\n        /* \"#utility.yul\":411:412   */\n      dup2\n        /* \"#utility.yul\":407:417   */\n      add\n        /* \"#utility.yul\":402:417   */\n      swap1\n      pop\n        /* \"#utility.yul\":378:491   */\n      jump(tag_42)\n    tag_44:\n        /* \"#utility.yul\":525:526   */\n      0x00\n        /* \"#utility.yul\":516:522   */\n      dup5\n        /* \"#utility.yul\":511:514   */\n      dup5\n        /* \"#utility.yul\":507:523   */\n      add\n        /* \"#utility.yul\":500:527   */\n      mstore\n        /* \"#utility.yul\":349:533   */\n      pop\n        /* \"#utility.yul\":287:533   */\n      pop\n      pop\n      pop\n      jump\t// out\n        /* \"#utility.yul\":539:641   */\n    tag_27:\n        /* \"#utility.yul\":580:586   */\n      0x00\n        /* \"#utility.yul\":631:633   */\n      0x1f\n        /* \"#utility.yul\":627:634   */\n      not\n        /* \"#utility.yul\":622:624   */\n      0x1f\n        /* \"#utility.yul\":615:620   */\n      dup4\n        /* \"#utility.yul\":611:625   */\n      add\n        /* \"#utility.yul\":607:635   */\n      and\n        /* \"#utility.yul\":597:635   */\n      swap1\n      pop\n        /* \"#utility.yul\":539:641   */\n      swap2\n      swap1\n      pop\n      jump\t// out\n        /* \"#utility.yul\":647:1024   */\n    tag_28:\n        /* \"#utility.yul\":735:738   */\n      0x00\n        /* \"#utility.yul\":763:802   */\n      tag_47\n        /* \"#utility.yul\":796:801   */\n      dup3\n        /* \"#utility.yul\":763:802   */\n      tag_24\n      jump\t// in\n    tag_47:\n        /* \"#utility.yul\":818:889   */\n      tag_48\n        /* \"#utility.yul\":882:888   */\n      dup2\n        /* \"#utility.yul\":877:880   */\n      dup6\n        /* \"#utility.yul\":818:889   */\n      tag_25\n      jump\t// in\n    tag_48:\n        /* \"#utility.yul\":811:889   */\n      swap4\n      pop\n        /* \"#utility.yul\":898:963   */\n      tag_49\n        /* \"#utility.yul\":956:962   */\n      dup2\n        /* \"#utility.yul\":951:954   */\n      dup6\n        /* \"#utility.yul\":944:948   */\n      0x20\n        /* \"#utility.yul\":937:942   */\n      dup7\n        /* \"#utility.yul\":933:949   */\n      add\n        /* \"#utility.yul\":898:963   */\n      tag_26\n      jump\t// in\n    tag_49:\n        /* \"#utility.yul\":988:1017   */\n      tag_50\n        /* \"#utility.yul\":1010:1016   */\n      dup2\n        /* \"#utility.yul\":988:1017   */\n      tag_27\n      jump\t// in\n    tag_50:\n        /* \"#utility.yul\":983:986   */\n      dup5\n        /* \"#utility.yul\":979:1018   */\n      add\n        /* \"#utility.yul\":972:1018   */\n      swap2\n      pop\n        /* \"#utility.yul\":739:1024   */\n      pop\n        /* \"#utility.yul\":647:1024   */\n      swap3\n      swap2\n      pop\n      pop\n      jump\t// out\n        /* \"#utility.yul\":1030:1343   */\n    tag_9:\n        /* \"#utility.yul\":1143:1147   */\n      0x00\n        /* \"#utility.yul\":1181:1183   */\n      0x20\n        /* \"#utility.yul\":1170:1179   */\n      dup3\n        /* \"#utility.yul\":1166:1184   */\n      add\n        /* \"#utility.yul\":1158:1184   */\n      swap1\n      pop\n        /* \"#utility.yul\":1230:1239   */\n      dup2\n        /* \"#utility.yul\":1224:1228   */\n      dup2\n        /* \"#utility.yul\":1220:1240   */\n      sub\n        /* \"#utility.yul\":1216:1217   */\n      0x00\n        /* \"#utility.yul\":1205:1214   */\n      dup4\n        /* \"#utility.yul\":1201:1218   */\n      add\n        /* \"#utility.yul\":1194:1241   */\n      mstore\n        /* \"#utility.yul\":1258:1336   */\n      tag_52\n        /* \"#utility.yul\":1331:1335   */\n      dup2\n        /* \"#utility.yul\":1322:1328   */\n      dup5\n        /* \"#utility.yul\":1258:1336   */\n      tag_28\n      jump\t// in\n    tag_52:\n        /* \"#utility.yul\":1250:1336   */\n      swap1\n      pop\n        /* \"#utility.yul\":1030:1343   */\n      swap3\n      swap2\n      pop\n      pop\n      jump\t// out\n        /* \"#utility.yul\":1349:1426   */\n    tag_29:\n        /* \"#utility.yul\":1386:1393   */\n      0x00\n        /* \"#utility.yul\":1415:1420   */\n      dup2\n        /* \"#utility.yul\":1404:1420   */\n      swap1\n      pop\n        /* \"#utility.yul\":1349:1426   */\n      swap2\n      swap1\n      pop\n      jump\t// out\n        /* \"#utility.yul\":1432:1550   */\n    tag_30:\n        /* \"#utility.yul\":1519:1543   */\n      tag_55\n        /* \"#utility.yul\":1537:1542   */\n      dup2\n        /* \"#utility.yul\":1519:1543   */\n      tag_29\n      jump\t// in\n    tag_55:\n        /* \"#utility.yul\":1514:1517   */\n      dup3\n        /* \"#utility.yul\":1507:1544   */\n      mstore\n        /* \"#utility.yul\":1432:1550   */\n      pop\n      pop\n      jump\t// out\n        /* \"#utility.yul\":1556:1778   */\n    tag_13:\n        /* \"#utility.yul\":1649:1653   */\n      0x00\n        /* \"#utility.yul\":1687:1689   */\n      0x20\n        /* \"#utility.yul\":1676:1685   */\n      dup3\n        /* \"#utility.yul\":1672:1690   */\n      add\n        /* \"#utility.yul\":1664:1690   */\n      swap1\n      pop\n        /* \"#utility.yul\":1700:1771   */\n      tag_57\n        /* \"#utility.yul\":1768:1769   */\n      0x00\n        /* \"#utility.yul\":1757:1766   */\n      dup4\n        /* \"#utility.yul\":1753:1770   */\n      add\n        /* \"#utility.yul\":1744:1750   */\n      dup5\n        /* \"#utility.yul\":1700:1771   */\n      tag_30\n      jump\t// in\n    tag_57:\n        /* \"#utility.yul\":1556:1778   */\n      swap3\n      swap2\n      pop\n      pop\n      jump\t// out\n        /* \"#utility.yul\":1784:1910   */\n    tag_31:\n        /* \"#utility.yul\":1821:1828   */\n      0x00\n        /* \"#utility.yul\":1861:1903   */\n      0xffffffffffffffffffffffffffffffffffffffff\n        /* \"#utility.yul\":1854:1859   */\n      dup3\n        /* \"#utility.yul\":1850:1904   */\n      and\n        /* \"#utility.yul\":1839:1904   */\n      swap1\n      pop\n        /* \"#utility.yul\":1784:1910   */\n      swap2\n      swap1\n      pop\n      jump\t// out\n        /* \"#utility.yul\":1916:1976   */\n    tag_32:\n        /* \"#utility.yul\":1944:1947   */\n      0x00\n        /* \"#utility.yul\":1965:1970   */\n      dup2\n        /* \"#utility.yul\":1958:1970   */\n      swap1\n      pop\n        /* \"#utility.yul\":1916:1976   */\n      swap2\n      swap1\n      pop\n      jump\t// out\n        /* \"#utility.yul\":1982:2124   */\n    tag_33:\n        /* \"#utility.yul\":2032:2041   */\n      0x00\n        /* \"#utility.yul\":2065:2118   */\n      tag_61\n        /* \"#utility.yul\":2083:2117   */\n      tag_62\n        /* \"#utility.yul\":2092:2116   */\n      tag_63\n        /* \"#utility.yul\":2110:2115   */\n      dup5\n        /* \"#utility.yul\":2092:2116   */\n      tag_31\n      jump\t// in\n    tag_63:\n        /* \"#utility.yul\":2083:2117   */\n      tag_32\n      jump\t// in\n    tag_62:\n        /* \"#utility.yul\":2065:2118   */\n      tag_31\n      jump\t// in\n    tag_61:\n        /* \"#utility.yul\":2052:2118   */\n      swap1\n      pop\n        /* \"#utility.yul\":1982:2124   */\n      swap2\n      swap1\n      pop\n      jump\t// out\n        /* \"#utility.yul\":2130:2256   */\n    tag_34:\n        /* \"#utility.yul\":2180:2189   */\n      0x00\n        /* \"#utility.yul\":2213:2250   */\n      tag_65\n        /* \"#utility.yul\":2244:2249   */\n      dup3\n        /* \"#utility.yul\":2213:2250   */\n      tag_33\n      jump\t// in\n    tag_65:\n        /* \"#utility.yul\":2200:2250   */\n      swap1\n      pop\n        /* \"#utility.yul\":2130:2256   */\n      swap2\n      swap1\n      pop\n      jump\t// out\n        /* \"#utility.yul\":2262:2411   */\n    tag_35:\n        /* \"#utility.yul\":2335:2344   */\n      0x00\n        /* \"#utility.yul\":2368:2405   */\n      tag_67\n        /* \"#utility.yul\":2399:2404   */\n      dup3\n        /* \"#utility.yul\":2368:2405   */\n      tag_34\n      jump\t// in\n    tag_67:\n        /* \"#utility.yul\":2355:2405   */\n      swap1\n      pop\n        /* \"#utility.yul\":2262:2411   */\n      swap2\n      swap1\n      pop\n      jump\t// out\n        /* \"#utility.yul\":2417:2594   */\n    tag_36:\n        /* \"#utility.yul\":2527:2587   */\n      tag_69\n        /* \"#utility.yul\":2581:2586   */\n      dup2\n        /* \"#utility.yul\":2527:2587   */\n      tag_35\n      jump\t// in\n    tag_69:\n        /* \"#utility.yul\":2522:2525   */\n      dup3\n        /* \"#utility.yul\":2515:2588   */\n      mstore\n        /* \"#utility.yul\":2417:2594   */\n      pop\n      pop\n      jump\t// out\n        /* \"#utility.yul\":2600:2868   */\n    tag_17:\n        /* \"#utility.yul\":2716:2720   */\n      0x00\n        /* \"#utility.yul\":2754:2756   */\n      0x20\n        /* \"#utility.yul\":2743:2752   */\n      dup3\n        /* \"#utility.yul\":2739:2757   */\n      add\n        /* \"#utility.yul\":2731:2757   */\n      swap1\n      pop\n        /* \"#utility.yul\":2767:2861   */\n      tag_71\n        /* \"#utility.yul\":2858:2859   */\n      0x00\n        /* \"#utility.yul\":2847:2856   */\n      dup4\n        /* \"#utility.yul\":2843:2860   */\n      add\n        /* \"#utility.yul\":2834:2840   */\n      dup5\n        /* \"#utility.yul\":2767:2861   */\n      tag_36\n      jump\t// in\n    tag_71:\n        /* \"#utility.yul\":2600:2868   */\n      swap3\n      swap2\n      pop\n      pop\n      jump\t// out\n        /* \"#utility.yul\":2874:3054   */\n    tag_37:\n        /* \"#utility.yul\":2922:2999   */\n      0x4e487b7100000000000000000000000000000000000000000000000000000000\n        /* \"#utility.yul\":2919:2920   */\n      0x00\n        /* \"#utility.yul\":2912:3000   */\n      mstore\n        /* \"#utility.yul\":3019:3023   */\n      0x22\n        /* \"#utility.yul\":3016:3017   */\n      0x04\n        /* \"#utility.yul\":3009:3024   */\n      mstore\n        /* \"#utility.yul\":3043:3047   */\n      0x24\n        /* \"#utility.yul\":3040:3041   */\n      0x00\n        /* \"#utility.yul\":3033:3048   */\n      revert\n        /* \"#utility.yul\":3060:3380   */\n    tag_19:\n        /* \"#utility.yul\":3104:3110   */\n      0x00\n        /* \"#utility.yul\":3141:3142   */\n      0x02\n        /* \"#utility.yul\":3135:3139   */\n      dup3\n        /* \"#utility.yul\":3131:3143   */\n      div\n        /* \"#utility.yul\":3121:3143   */\n      swap1\n      pop\n        /* \"#utility.yul\":3188:3189   */\n      0x01\n        /* \"#utility.yul\":3182:3186   */\n      dup3\n        /* \"#utility.yul\":3178:3190   */\n      and\n        /* \"#utility.yul\":3209:3227   */\n      dup1\n        /* \"#utility.yul\":3199:3280   */\n      tag_74\n      jumpi\n        /* \"#utility.yul\":3265:3269   */\n      0x7f\n        /* \"#utility.yul\":3257:3263   */\n      dup3\n        /* \"#utility.yul\":3253:3270   */\n      and\n        /* \"#utility.yul\":3243:3270   */\n      swap2\n      pop\n        /* \"#utility.yul\":3199:3280   */\n    tag_74:\n        /* \"#utility.yul\":3327:3329   */\n      0x20\n        /* \"#utility.yul\":3319:3325   */\n      dup3\n        /* \"#utility.yul\":3316:3330   */\n      lt\n        /* \"#utility.yul\":3296:3314   */\n      dup2\n        /* \"#utility.yul\":3293:3331   */\n      sub\n        /* \"#utility.yul\":3290:3374   */\n      tag_75\n      jumpi\n        /* \"#utility.yul\":3346:3364   */\n      tag_76\n      tag_37\n      jump\t// in\n    tag_76:\n        /* \"#utility.yul\":3290:3374   */\n    tag_75:\n        /* \"#utility.yul\":3111:3380   */\n      pop\n        /* \"#utility.yul\":3060:3380   */\n      swap2\n      swap1\n      pop\n      jump\t// out\n\n    auxdata: 0xa2646970667358221220c61ca908fde20d61ffbafd3f997aa4cc20e1860714e22ac26b6ff1648a928ca264736f6c63430008150033\n}\n\nsub_1: assembly {\n        /* \"contractGenerator.sol\":26:248  contract DaughterContract {... */\n      mstore(0x40, 0x80)\n        /* \"contractGenerator.sol\":107:246  constructor(string memory _daughtersName, uint256 _daughtersAge) public {... */\n      callvalue\n      dup1\n      iszero\n      tag_1\n      jumpi\n      0x00\n      dup1\n      revert\n    tag_1:\n      pop\n      mload(0x40)\n      sub(codesize, bytecodeSize)\n      dup1\n      bytecodeSize\n      dup4\n      codecopy\n      dup2\n      dup2\n      add\n      0x40\n      mstore\n      dup2\n      add\n      swap1\n      tag_2\n      swap2\n      swap1\n      tag_3\n      jump\t// in\n    tag_2:\n        /* \"contractGenerator.sol\":196:210  _daughtersName */\n      dup2\n        /* \"contractGenerator.sol\":189:193  name */\n      0x00\n        /* \"contractGenerator.sol\":189:210  name = _daughtersName */\n      swap1\n      dup2\n      tag_6\n      swap2\n      swap1\n      tag_7\n      jump\t// in\n    tag_6:\n      pop\n        /* \"contractGenerator.sol\":226:239  _daughtersAge */\n      dup1\n        /* \"contractGenerator.sol\":220:223  age */\n      0x01\n        /* \"contractGenerator.sol\":220:239  age = _daughtersAge */\n      dup2\n      swap1\n      sstore\n      pop\n        /* \"contractGenerator.sol\":107:246  constructor(string memory _daughtersName, uint256 _daughtersAge) public {... */\n      pop\n      pop\n        /* \"contractGenerator.sol\":26:248  contract DaughterContract {... */\n      jump(tag_8)\n        /* \"#utility.yul\":7:82   */\n    tag_9:\n        /* \"#utility.yul\":40:46   */\n      0x00\n        /* \"#utility.yul\":73:75   */\n      0x40\n        /* \"#utility.yul\":67:76   */\n      mload\n        /* \"#utility.yul\":57:76   */\n      swap1\n      pop\n        /* \"#utility.yul\":7:82   */\n      swap1\n      jump\t// out\n        /* \"#utility.yul\":88:205   */\n    tag_10:\n        /* \"#utility.yul\":197:198   */\n      0x00\n        /* \"#utility.yul\":194:195   */\n      dup1\n        /* \"#utility.yul\":187:199   */\n      revert\n        /* \"#utility.yul\":211:328   */\n    tag_11:\n        /* \"#utility.yul\":320:321   */\n      0x00\n        /* \"#utility.yul\":317:318   */\n      dup1\n        /* \"#utility.yul\":310:322   */\n      revert\n        /* \"#utility.yul\":334:451   */\n    tag_12:\n        /* \"#utility.yul\":443:444   */\n      0x00\n        /* \"#utility.yul\":440:441   */\n      dup1\n        /* \"#utility.yul\":433:445   */\n      revert\n        /* \"#utility.yul\":457:574   */\n    tag_13:\n        /* \"#utility.yul\":566:567   */\n      0x00\n        /* \"#utility.yul\":563:564   */\n      dup1\n        /* \"#utility.yul\":556:568   */\n      revert\n        /* \"#utility.yul\":580:682   */\n    tag_14:\n        /* \"#utility.yul\":621:627   */\n      0x00\n        /* \"#utility.yul\":672:674   */\n      0x1f\n        /* \"#utility.yul\":668:675   */\n      not\n        /* \"#utility.yul\":663:665   */\n      0x1f\n        /* \"#utility.yul\":656:661   */\n      dup4\n        /* \"#utility.yul\":652:666   */\n      add\n        /* \"#utility.yul\":648:676   */\n      and\n        /* \"#utility.yul\":638:676   */\n      swap1\n      pop\n        /* \"#utility.yul\":580:682   */\n      swap2\n      swap1\n      pop\n      jump\t// out\n        /* \"#utility.yul\":688:868   */\n    tag_15:\n        /* \"#utility.yul\":736:813   */\n      0x4e487b7100000000000000000000000000000000000000000000000000000000\n        /* \"#utility.yul\":733:734   */\n      0x00\n        /* \"#utility.yul\":726:814   */\n      mstore\n        /* \"#utility.yul\":833:837   */\n      0x41\n        /* \"#utility.yul\":830:831   */\n      0x04\n        /* \"#utility.yul\":823:838   */\n      mstore\n        /* \"#utility.yul\":857:861   */\n      0x24\n        /* \"#utility.yul\":854:855   */\n      0x00\n        /* \"#utility.yul\":847:862   */\n      revert\n        /* \"#utility.yul\":874:1155   */\n    tag_16:\n        /* \"#utility.yul\":957:984   */\n      tag_52\n        /* \"#utility.yul\":979:983   */\n      dup3\n        /* \"#utility.yul\":957:984   */\n      tag_14\n      jump\t// in\n    tag_52:\n        /* \"#utility.yul\":949:955   */\n      dup2\n        /* \"#utility.yul\":945:985   */\n      add\n        /* \"#utility.yul\":1087:1093   */\n      dup2\n        /* \"#utility.yul\":1075:1085   */\n      dup2\n        /* \"#utility.yul\":1072:1094   */\n      lt\n        /* \"#utility.yul\":1051:1069   */\n      0xffffffffffffffff\n        /* \"#utility.yul\":1039:1049   */\n      dup3\n        /* \"#utility.yul\":1036:1070   */\n      gt\n        /* \"#utility.yul\":1033:1095   */\n      or\n        /* \"#utility.yul\":1030:1118   */\n      iszero\n      tag_53\n      jumpi\n        /* \"#utility.yul\":1098:1116   */\n      tag_54\n      tag_15\n      jump\t// in\n    tag_54:\n        /* \"#utility.yul\":1030:1118   */\n    tag_53:\n        /* \"#utility.yul\":1138:1148   */\n      dup1\n        /* \"#utility.yul\":1134:1136   */\n      0x40\n        /* \"#utility.yul\":1127:1149   */\n      mstore\n        /* \"#utility.yul\":917:1155   */\n      pop\n        /* \"#utility.yul\":874:1155   */\n      pop\n      pop\n      jump\t// out\n        /* \"#utility.yul\":1161:1290   */\n    tag_17:\n        /* \"#utility.yul\":1195:1201   */\n      0x00\n        /* \"#utility.yul\":1222:1242   */\n      tag_56\n      tag_9\n      jump\t// in\n    tag_56:\n        /* \"#utility.yul\":1212:1242   */\n      swap1\n      pop\n        /* \"#utility.yul\":1251:1284   */\n      tag_57\n        /* \"#utility.yul\":1279:1283   */\n      dup3\n        /* \"#utility.yul\":1271:1277   */\n      dup3\n        /* \"#utility.yul\":1251:1284   */\n      tag_16\n      jump\t// in\n    tag_57:\n        /* \"#utility.yul\":1161:1290   */\n      swap2\n      swap1\n      pop\n      jump\t// out\n        /* \"#utility.yul\":1296:1604   */\n    tag_18:\n        /* \"#utility.yul\":1358:1362   */\n      0x00\n        /* \"#utility.yul\":1448:1466   */\n      0xffffffffffffffff\n        /* \"#utility.yul\":1440:1446   */\n      dup3\n        /* \"#utility.yul\":1437:1467   */\n      gt\n        /* \"#utility.yul\":1434:1490   */\n      iszero\n      tag_59\n      jumpi\n        /* \"#utility.yul\":1470:1488   */\n      tag_60\n      tag_15\n      jump\t// in\n    tag_60:\n        /* \"#utility.yul\":1434:1490   */\n    tag_59:\n        /* \"#utility.yul\":1508:1537   */\n      tag_61\n        /* \"#utility.yul\":1530:1536   */\n      dup3\n        /* \"#utility.yul\":1508:1537   */\n      tag_14\n      jump\t// in\n    tag_61:\n        /* \"#utility.yul\":1500:1537   */\n      swap1\n      pop\n        /* \"#utility.yul\":1592:1596   */\n      0x20\n        /* \"#utility.yul\":1586:1590   */\n      dup2\n        /* \"#utility.yul\":1582:1597   */\n      add\n        /* \"#utility.yul\":1574:1597   */\n      swap1\n      pop\n        /* \"#utility.yul\":1296:1604   */\n      swap2\n      swap1\n      pop\n      jump\t// out\n        /* \"#utility.yul\":1610:1856   */\n    tag_19:\n        /* \"#utility.yul\":1691:1692   */\n      0x00\n        /* \"#utility.yul\":1701:1814   */\n    tag_63:\n        /* \"#utility.yul\":1715:1721   */\n      dup4\n        /* \"#utility.yul\":1712:1713   */\n      dup2\n        /* \"#utility.yul\":1709:1722   */\n      lt\n        /* \"#utility.yul\":1701:1814   */\n      iszero\n      tag_65\n      jumpi\n        /* \"#utility.yul\":1800:1801   */\n      dup1\n        /* \"#utility.yul\":1795:1798   */\n      dup3\n        /* \"#utility.yul\":1791:1802   */\n      add\n        /* \"#utility.yul\":1785:1803   */\n      mload\n        /* \"#utility.yul\":1781:1782   */\n      dup2\n        /* \"#utility.yul\":1776:1779   */\n      dup5\n        /* \"#utility.yul\":1772:1783   */\n      add\n        /* \"#utility.yul\":1765:1804   */\n      mstore\n        /* \"#utility.yul\":1737:1739   */\n      0x20\n        /* \"#utility.yul\":1734:1735   */\n      dup2\n        /* \"#utility.yul\":1730:1740   */\n      add\n        /* \"#utility.yul\":1725:1740   */\n      swap1\n      pop\n        /* \"#utility.yul\":1701:1814   */\n      jump(tag_63)\n    tag_65:\n        /* \"#utility.yul\":1848:1849   */\n      0x00\n        /* \"#utility.yul\":1839:1845   */\n      dup5\n        /* \"#utility.yul\":1834:1837   */\n      dup5\n        /* \"#utility.yul\":1830:1846   */\n      add\n        /* \"#utility.yul\":1823:1850   */\n      mstore\n        /* \"#utility.yul\":1672:1856   */\n      pop\n        /* \"#utility.yul\":1610:1856   */\n      pop\n      pop\n      pop\n      jump\t// out\n        /* \"#utility.yul\":1862:2296   */\n    tag_20:\n        /* \"#utility.yul\":1951:1956   */\n      0x00\n        /* \"#utility.yul\":1976:2042   */\n      tag_67\n        /* \"#utility.yul\":1992:2041   */\n      tag_68\n        /* \"#utility.yul\":2034:2040   */\n      dup5\n        /* \"#utility.yul\":1992:2041   */\n      tag_18\n      jump\t// in\n    tag_68:\n        /* \"#utility.yul\":1976:2042   */\n      tag_17\n      jump\t// in\n    tag_67:\n        /* \"#utility.yul\":1967:2042   */\n      swap1\n      pop\n        /* \"#utility.yul\":2065:2071   */\n      dup3\n        /* \"#utility.yul\":2058:2063   */\n      dup2\n        /* \"#utility.yul\":2051:2072   */\n      mstore\n        /* \"#utility.yul\":2103:2107   */\n      0x20\n        /* \"#utility.yul\":2096:2101   */\n      dup2\n        /* \"#utility.yul\":2092:2108   */\n      add\n        /* \"#utility.yul\":2141:2144   */\n      dup5\n        /* \"#utility.yul\":2132:2138   */\n      dup5\n        /* \"#utility.yul\":2127:2130   */\n      dup5\n        /* \"#utility.yul\":2123:2139   */\n      add\n        /* \"#utility.yul\":2120:2145   */\n      gt\n        /* \"#utility.yul\":2117:2229   */\n      iszero\n      tag_69\n      jumpi\n        /* \"#utility.yul\":2148:2227   */\n      tag_70\n      tag_13\n      jump\t// in\n    tag_70:\n        /* \"#utility.yul\":2117:2229   */\n    tag_69:\n        /* \"#utility.yul\":2238:2290   */\n      tag_71\n        /* \"#utility.yul\":2283:2289   */\n      dup5\n        /* \"#utility.yul\":2278:2281   */\n      dup3\n        /* \"#utility.yul\":2273:2276   */\n      dup6\n        /* \"#utility.yul\":2238:2290   */\n      tag_19\n      jump\t// in\n    tag_71:\n        /* \"#utility.yul\":1957:2296   */\n      pop\n        /* \"#utility.yul\":1862:2296   */\n      swap4\n      swap3\n      pop\n      pop\n      pop\n      jump\t// out\n        /* \"#utility.yul\":2316:2671   */\n    tag_21:\n        /* \"#utility.yul\":2383:2388   */\n      0x00\n        /* \"#utility.yul\":2432:2435   */\n      dup3\n        /* \"#utility.yul\":2425:2429   */\n      0x1f\n        /* \"#utility.yul\":2417:2423   */\n      dup4\n        /* \"#utility.yul\":2413:2430   */\n      add\n        /* \"#utility.yul\":2409:2436   */\n      slt\n        /* \"#utility.yul\":2399:2521   */\n      tag_73\n      jumpi\n        /* \"#utility.yul\":2440:2519   */\n      tag_74\n      tag_12\n      jump\t// in\n    tag_74:\n        /* \"#utility.yul\":2399:2521   */\n    tag_73:\n        /* \"#utility.yul\":2550:2556   */\n      dup2\n        /* \"#utility.yul\":2544:2557   */\n      mload\n        /* \"#utility.yul\":2575:2665   */\n      tag_75\n        /* \"#utility.yul\":2661:2664   */\n      dup5\n        /* \"#utility.yul\":2653:2659   */\n      dup3\n        /* \"#utility.yul\":2646:2650   */\n      0x20\n        /* \"#utility.yul\":2638:2644   */\n      dup7\n        /* \"#utility.yul\":2634:2651   */\n      add\n        /* \"#utility.yul\":2575:2665   */\n      tag_20\n      jump\t// in\n    tag_75:\n        /* \"#utility.yul\":2566:2665   */\n      swap2\n      pop\n        /* \"#utility.yul\":2389:2671   */\n      pop\n        /* \"#utility.yul\":2316:2671   */\n      swap3\n      swap2\n      pop\n      pop\n      jump\t// out\n        /* \"#utility.yul\":2677:2754   */\n    tag_22:\n        /* \"#utility.yul\":2714:2721   */\n      0x00\n        /* \"#utility.yul\":2743:2748   */\n      dup2\n        /* \"#utility.yul\":2732:2748   */\n      swap1\n      pop\n        /* \"#utility.yul\":2677:2754   */\n      swap2\n      swap1\n      pop\n      jump\t// out\n        /* \"#utility.yul\":2760:2882   */\n    tag_23:\n        /* \"#utility.yul\":2833:2857   */\n      tag_78\n        /* \"#utility.yul\":2851:2856   */\n      dup2\n        /* \"#utility.yul\":2833:2857   */\n      tag_22\n      jump\t// in\n    tag_78:\n        /* \"#utility.yul\":2826:2831   */\n      dup2\n        /* \"#utility.yul\":2823:2858   */\n      eq\n        /* \"#utility.yul\":2813:2876   */\n      tag_79\n      jumpi\n        /* \"#utility.yul\":2872:2873   */\n      0x00\n        /* \"#utility.yul\":2869:2870   */\n      dup1\n        /* \"#utility.yul\":2862:2874   */\n      revert\n        /* \"#utility.yul\":2813:2876   */\n    tag_79:\n        /* \"#utility.yul\":2760:2882   */\n      pop\n      jump\t// out\n        /* \"#utility.yul\":2888:3031   */\n    tag_24:\n        /* \"#utility.yul\":2945:2950   */\n      0x00\n        /* \"#utility.yul\":2976:2982   */\n      dup2\n        /* \"#utility.yul\":2970:2983   */\n      mload\n        /* \"#utility.yul\":2961:2983   */\n      swap1\n      pop\n        /* \"#utility.yul\":2992:3025   */\n      tag_81\n        /* \"#utility.yul\":3019:3024   */\n      dup2\n        /* \"#utility.yul\":2992:3025   */\n      tag_23\n      jump\t// in\n    tag_81:\n        /* \"#utility.yul\":2888:3031   */\n      swap3\n      swap2\n      pop\n      pop\n      jump\t// out\n        /* \"#utility.yul\":3037:3717   */\n    tag_3:\n        /* \"#utility.yul\":3126:3132   */\n      0x00\n        /* \"#utility.yul\":3134:3140   */\n      dup1\n        /* \"#utility.yul\":3183:3185   */\n      0x40\n        /* \"#utility.yul\":3171:3180   */\n      dup4\n        /* \"#utility.yul\":3162:3169   */\n      dup6\n        /* \"#utility.yul\":3158:3181   */\n      sub\n        /* \"#utility.yul\":3154:3186   */\n      slt\n        /* \"#utility.yul\":3151:3270   */\n      iszero\n      tag_83\n      jumpi\n        /* \"#utility.yul\":3189:3268   */\n      tag_84\n      tag_10\n      jump\t// in\n    tag_84:\n        /* \"#utility.yul\":3151:3270   */\n    tag_83:\n        /* \"#utility.yul\":3330:3331   */\n      0x00\n        /* \"#utility.yul\":3319:3328   */\n      dup4\n        /* \"#utility.yul\":3315:3332   */\n      add\n        /* \"#utility.yul\":3309:3333   */\n      mload\n        /* \"#utility.yul\":3360:3378   */\n      0xffffffffffffffff\n        /* \"#utility.yul\":3352:3358   */\n      dup2\n        /* \"#utility.yul\":3349:3379   */\n      gt\n        /* \"#utility.yul\":3346:3463   */\n      iszero\n      tag_85\n      jumpi\n        /* \"#utility.yul\":3382:3461   */\n      tag_86\n      tag_11\n      jump\t// in\n    tag_86:\n        /* \"#utility.yul\":3346:3463   */\n    tag_85:\n        /* \"#utility.yul\":3487:3561   */\n      tag_87\n        /* \"#utility.yul\":3553:3560   */\n      dup6\n        /* \"#utility.yul\":3544:3550   */\n      dup3\n        /* \"#utility.yul\":3533:3542   */\n      dup7\n        /* \"#utility.yul\":3529:3551   */\n      add\n        /* \"#utility.yul\":3487:3561   */\n      tag_21\n      jump\t// in\n    tag_87:\n        /* \"#utility.yul\":3477:3561   */\n      swap3\n      pop\n        /* \"#utility.yul\":3280:3571   */\n      pop\n        /* \"#utility.yul\":3610:3612   */\n      0x20\n        /* \"#utility.yul\":3636:3700   */\n      tag_88\n        /* \"#utility.yul\":3692:3699   */\n      dup6\n        /* \"#utility.yul\":3683:3689   */\n      dup3\n        /* \"#utility.yul\":3672:3681   */\n      dup7\n        /* \"#utility.yul\":3668:3690   */\n      add\n        /* \"#utility.yul\":3636:3700   */\n      tag_24\n      jump\t// in\n    tag_88:\n        /* \"#utility.yul\":3626:3700   */\n      swap2\n      pop\n        /* \"#utility.yul\":3581:3710   */\n      pop\n        /* \"#utility.yul\":3037:3717   */\n      swap3\n      pop\n      swap3\n      swap1\n      pop\n      jump\t// out\n        /* \"#utility.yul\":3723:3822   */\n    tag_25:\n        /* \"#utility.yul\":3775:3781   */\n      0x00\n        /* \"#utility.yul\":3809:3814   */\n      dup2\n        /* \"#utility.yul\":3803:3815   */\n      mload\n        /* \"#utility.yul\":3793:3815   */\n      swap1\n      pop\n        /* \"#utility.yul\":3723:3822   */\n      swap2\n      swap1\n      pop\n      jump\t// out\n        /* \"#utility.yul\":3828:4008   */\n    tag_26:\n        /* \"#utility.yul\":3876:3953   */\n      0x4e487b7100000000000000000000000000000000000000000000000000000000\n        /* \"#utility.yul\":3873:3874   */\n      0x00\n        /* \"#utility.yul\":3866:3954   */\n      mstore\n        /* \"#utility.yul\":3973:3977   */\n      0x22\n        /* \"#utility.yul\":3970:3971   */\n      0x04\n        /* \"#utility.yul\":3963:3978   */\n      mstore\n        /* \"#utility.yul\":3997:4001   */\n      0x24\n        /* \"#utility.yul\":3994:3995   */\n      0x00\n        /* \"#utility.yul\":3987:4002   */\n      revert\n        /* \"#utility.yul\":4014:4334   */\n    tag_27:\n        /* \"#utility.yul\":4058:4064   */\n      0x00\n        /* \"#utility.yul\":4095:4096   */\n      0x02\n        /* \"#utility.yul\":4089:4093   */\n      dup3\n        /* \"#utility.yul\":4085:4097   */\n      div\n        /* \"#utility.yul\":4075:4097   */\n      swap1\n      pop\n        /* \"#utility.yul\":4142:4143   */\n      0x01\n        /* \"#utility.yul\":4136:4140   */\n      dup3\n        /* \"#utility.yul\":4132:4144   */\n      and\n        /* \"#utility.yul\":4163:4181   */\n      dup1\n        /* \"#utility.yul\":4153:4234   */\n      tag_92\n      jumpi\n        /* \"#utility.yul\":4219:4223   */\n      0x7f\n        /* \"#utility.yul\":4211:4217   */\n      dup3\n        /* \"#utility.yul\":4207:4224   */\n      and\n        /* \"#utility.yul\":4197:4224   */\n      swap2\n      pop\n        /* \"#utility.yul\":4153:4234   */\n    tag_92:\n        /* \"#utility.yul\":4281:4283   */\n      0x20\n        /* \"#utility.yul\":4273:4279   */\n      dup3\n        /* \"#utility.yul\":4270:4284   */\n      lt\n        /* \"#utility.yul\":4250:4268   */\n      dup2\n        /* \"#utility.yul\":4247:4285   */\n      sub\n        /* \"#utility.yul\":4244:4328   */\n      tag_93\n      jumpi\n        /* \"#utility.yul\":4300:4318   */\n      tag_94\n      tag_26\n      jump\t// in\n    tag_94:\n        /* \"#utility.yul\":4244:4328   */\n    tag_93:\n        /* \"#utility.yul\":4065:4334   */\n      pop\n        /* \"#utility.yul\":4014:4334   */\n      swap2\n      swap1\n      pop\n      jump\t// out\n        /* \"#utility.yul\":4340:4481   */\n    tag_28:\n        /* \"#utility.yul\":4389:4393   */\n      0x00\n        /* \"#utility.yul\":4412:4415   */\n      dup2\n        /* \"#utility.yul\":4404:4415   */\n      swap1\n      pop\n        /* \"#utility.yul\":4435:4438   */\n      dup2\n        /* \"#utility.yul\":4432:4433   */\n      0x00\n        /* \"#utility.yul\":4425:4439   */\n      mstore\n        /* \"#utility.yul\":4469:4473   */\n      0x20\n        /* \"#utility.yul\":4466:4467   */\n      0x00\n        /* \"#utility.yul\":4456:4474   */\n      keccak256\n        /* \"#utility.yul\":4448:4474   */\n      swap1\n      pop\n        /* \"#utility.yul\":4340:4481   */\n      swap2\n      swap1\n      pop\n      jump\t// out\n        /* \"#utility.yul\":4487:4580   */\n    tag_29:\n        /* \"#utility.yul\":4524:4530   */\n      0x00\n        /* \"#utility.yul\":4571:4573   */\n      0x20\n        /* \"#utility.yul\":4566:4568   */\n      0x1f\n        /* \"#utility.yul\":4559:4564   */\n      dup4\n        /* \"#utility.yul\":4555:4569   */\n      add\n        /* \"#utility.yul\":4551:4574   */\n      div\n        /* \"#utility.yul\":4541:4574   */\n      swap1\n      pop\n        /* \"#utility.yul\":4487:4580   */\n      swap2\n      swap1\n      pop\n      jump\t// out\n        /* \"#utility.yul\":4586:4693   */\n    tag_30:\n        /* \"#utility.yul\":4630:4638   */\n      0x00\n        /* \"#utility.yul\":4680:4685   */\n      dup3\n        /* \"#utility.yul\":4674:4678   */\n      dup3\n        /* \"#utility.yul\":4670:4686   */\n      shl\n        /* \"#utility.yul\":4649:4686   */\n      swap1\n      pop\n        /* \"#utility.yul\":4586:4693   */\n      swap3\n      swap2\n      pop\n      pop\n      jump\t// out\n        /* \"#utility.yul\":4699:5092   */\n    tag_31:\n        /* \"#utility.yul\":4768:4774   */\n      0x00\n        /* \"#utility.yul\":4818:4819   */\n      0x08\n        /* \"#utility.yul\":4806:4816   */\n      dup4\n        /* \"#utility.yul\":4802:4820   */\n      mul\n        /* \"#utility.yul\":4841:4938   */\n      tag_99\n        /* \"#utility.yul\":4871:4937   */\n      0xffffffffffffffffffffffffffffffffffffffffffffffffffffffffffffffff\n        /* \"#utility.yul\":4860:4869   */\n      dup3\n        /* \"#utility.yul\":4841:4938   */\n      tag_30\n      jump\t// in\n    tag_99:\n        /* \"#utility.yul\":4959:4998   */\n      tag_100\n        /* \"#utility.yul\":4989:4997   */\n      dup7\n        /* \"#utility.yul\":4978:4987   */\n      dup4\n        /* \"#utility.yul\":4959:4998   */\n      tag_30\n      jump\t// in\n    tag_100:\n        /* \"#utility.yul\":4947:4998   */\n      swap6\n      pop\n        /* \"#utility.yul\":5031:5035   */\n      dup1\n        /* \"#utility.yul\":5027:5036   */\n      not\n        /* \"#utility.yul\":5020:5025   */\n      dup5\n        /* \"#utility.yul\":5016:5037   */\n      and\n        /* \"#utility.yul\":5007:5037   */\n      swap4\n      pop\n        /* \"#utility.yul\":5080:5084   */\n      dup1\n        /* \"#utility.yul\":5070:5078   */\n      dup7\n        /* \"#utility.yul\":5066:5085   */\n      and\n        /* \"#utility.yul\":5059:5064   */\n      dup5\n        /* \"#utility.yul\":5056:5086   */\n      or\n        /* \"#utility.yul\":5046:5086   */\n      swap3\n      pop\n        /* \"#utility.yul\":4775:5092   */\n      pop\n      pop\n        /* \"#utility.yul\":4699:5092   */\n      swap4\n      swap3\n      pop\n      pop\n      pop\n      jump\t// out\n        /* \"#utility.yul\":5098:5158   */\n    tag_32:\n        /* \"#utility.yul\":5126:5129   */\n      0x00\n        /* \"#utility.yul\":5147:5152   */\n      dup2\n        /* \"#utility.yul\":5140:5152   */\n      swap1\n      pop\n        /* \"#utility.yul\":5098:5158   */\n      swap2\n      swap1\n      pop\n      jump\t// out\n        /* \"#utility.yul\":5164:5306   */\n    tag_33:\n        /* \"#utility.yul\":5214:5223   */\n      0x00\n        /* \"#utility.yul\":5247:5300   */\n      tag_103\n        /* \"#utility.yul\":5265:5299   */\n      tag_104\n        /* \"#utility.yul\":5274:5298   */\n      tag_105\n        /* \"#utility.yul\":5292:5297   */\n      dup5\n        /* \"#utility.yul\":5274:5298   */\n      tag_22\n      jump\t// in\n    tag_105:\n        /* \"#utility.yul\":5265:5299   */\n      tag_32\n      jump\t// in\n    tag_104:\n        /* \"#utility.yul\":5247:5300   */\n      tag_22\n      jump\t// in\n    tag_103:\n        /* \"#utility.yul\":5234:5300   */\n      swap1\n      pop\n        /* \"#utility.yul\":5164:5306   */\n      swap2\n      swap1\n      pop\n      jump\t// out\n        /* \"#utility.yul\":5312:5387   */\n    tag_34:\n        /* \"#utility.yul\":5355:5358   */\n      0x00\n        /* \"#utility.yul\":5376:5381   */\n      dup2\n        /* \"#utility.yul\":5369:5381   */\n      swap1\n      pop\n        /* \"#utility.yul\":5312:5387   */\n      swap2\n      swap1\n      pop\n      jump\t// out\n        /* \"#utility.yul\":5393:5662   */\n    tag_35:\n        /* \"#utility.yul\":5503:5542   */\n      tag_108\n        /* \"#utility.yul\":5534:5541   */\n      dup4\n        /* \"#utility.yul\":5503:5542   */\n      tag_33\n      jump\t// in\n    tag_108:\n        /* \"#utility.yul\":5564:5655   */\n      tag_109\n        /* \"#utility.yul\":5613:5654   */\n      tag_110\n        /* \"#utility.yul\":5637:5653   */\n      dup3\n        /* \"#utility.yul\":5613:5654   */\n      tag_34\n      jump\t// in\n    tag_110:\n        /* \"#utility.yul\":5605:5611   */\n      dup5\n        /* \"#utility.yul\":5598:5602   */\n      dup5\n        /* \"#utility.yul\":5592:5603   */\n      sload\n        /* \"#utility.yul\":5564:5655   */\n      tag_31\n      jump\t// in\n    tag_109:\n        /* \"#utility.yul\":5558:5562   */\n      dup3\n        /* \"#utility.yul\":5551:5656   */\n      sstore\n        /* \"#utility.yul\":5469:5662   */\n      pop\n        /* \"#utility.yul\":5393:5662   */\n      pop\n      pop\n      pop\n      jump\t// out\n        /* \"#utility.yul\":5668:5741   */\n    tag_36:\n        /* \"#utility.yul\":5713:5716   */\n      0x00\n        /* \"#utility.yul\":5668:5741   */\n      swap1\n      jump\t// out\n        /* \"#utility.yul\":5747:5936   */\n    tag_37:\n        /* \"#utility.yul\":5824:5856   */\n      tag_113\n      tag_36\n      jump\t// in\n    tag_113:\n        /* \"#utility.yul\":5865:5930   */\n      tag_114\n        /* \"#utility.yul\":5923:5929   */\n      dup2\n        /* \"#utility.yul\":5915:5921   */\n      dup5\n        /* \"#utility.yul\":5909:5913   */\n      dup5\n        /* \"#utility.yul\":5865:5930   */\n      tag_35\n      jump\t// in\n    tag_114:\n        /* \"#utility.yul\":5800:5936   */\n      pop\n        /* \"#utility.yul\":5747:5936   */\n      pop\n      pop\n      jump\t// out\n        /* \"#utility.yul\":5942:6128   */\n    tag_38:\n        /* \"#utility.yul\":6002:6122   */\n    tag_116:\n        /* \"#utility.yul\":6019:6022   */\n      dup2\n        /* \"#utility.yul\":6012:6017   */\n      dup2\n        /* \"#utility.yul\":6009:6023   */\n      lt\n        /* \"#utility.yul\":6002:6122   */\n      iszero\n      tag_118\n      jumpi\n        /* \"#utility.yul\":6073:6112   */\n      tag_119\n        /* \"#utility.yul\":6110:6111   */\n      0x00\n        /* \"#utility.yul\":6103:6108   */\n      dup3\n        /* \"#utility.yul\":6073:6112   */\n      tag_37\n      jump\t// in\n    tag_119:\n        /* \"#utility.yul\":6046:6047   */\n      0x01\n        /* \"#utility.yul\":6039:6044   */\n      dup2\n        /* \"#utility.yul\":6035:6048   */\n      add\n        /* \"#utility.yul\":6026:6048   */\n      swap1\n      pop\n        /* \"#utility.yul\":6002:6122   */\n      jump(tag_116)\n    tag_118:\n        /* \"#utility.yul\":5942:6128   */\n      pop\n      pop\n      jump\t// out\n        /* \"#utility.yul\":6134:6677   */\n    tag_39:\n        /* \"#utility.yul\":6235:6237   */\n      0x1f\n        /* \"#utility.yul\":6230:6233   */\n      dup3\n        /* \"#utility.yul\":6227:6238   */\n      gt\n        /* \"#utility.yul\":6224:6670   */\n      iszero\n      tag_121\n      jumpi\n        /* \"#utility.yul\":6269:6307   */\n      tag_122\n        /* \"#utility.yul\":6301:6306   */\n      dup2\n        /* \"#utility.yul\":6269:6307   */\n      tag_28\n      jump\t// in\n    tag_122:\n        /* \"#utility.yul\":6353:6382   */\n      tag_123\n        /* \"#utility.yul\":6371:6381   */\n      dup5\n        /* \"#utility.yul\":6353:6382   */\n      tag_29\n      jump\t// in\n    tag_123:\n        /* \"#utility.yul\":6343:6351   */\n      dup2\n        /* \"#utility.yul\":6339:6383   */\n      add\n        /* \"#utility.yul\":6536:6538   */\n      0x20\n        /* \"#utility.yul\":6524:6534   */\n      dup6\n        /* \"#utility.yul\":6521:6539   */\n      lt\n        /* \"#utility.yul\":6518:6567   */\n      iszero\n      tag_124\n      jumpi\n        /* \"#utility.yul\":6557:6565   */\n      dup2\n        /* \"#utility.yul\":6542:6565   */\n      swap1\n      pop\n        /* \"#utility.yul\":6518:6567   */\n    tag_124:\n        /* \"#utility.yul\":6580:6660   */\n      tag_125\n        /* \"#utility.yul\":6636:6658   */\n      tag_126\n        /* \"#utility.yul\":6654:6657   */\n      dup6\n        /* \"#utility.yul\":6636:6658   */\n      tag_29\n      jump\t// in\n    tag_126:\n        /* \"#utility.yul\":6626:6634   */\n      dup4\n        /* \"#utility.yul\":6622:6659   */\n      add\n        /* \"#utility.yul\":6609:6620   */\n      dup3\n        /* \"#utility.yul\":6580:6660   */\n      tag_38\n      jump\t// in\n    tag_125:\n        /* \"#utility.yul\":6239:6670   */\n      pop\n      pop\n        /* \"#utility.yul\":6224:6670   */\n    tag_121:\n        /* \"#utility.yul\":6134:6677   */\n      pop\n      pop\n      pop\n      jump\t// out\n        /* \"#utility.yul\":6683:6800   */\n    tag_40:\n        /* \"#utility.yul\":6737:6745   */\n      0x00\n        /* \"#utility.yul\":6787:6792   */\n      dup3\n        /* \"#utility.yul\":6781:6785   */\n      dup3\n        /* \"#utility.yul\":6777:6793   */\n      shr\n        /* \"#utility.yul\":6756:6793   */\n      swap1\n      pop\n        /* \"#utility.yul\":6683:6800   */\n      swap3\n      swap2\n      pop\n      pop\n      jump\t// out\n        /* \"#utility.yul\":6806:6975   */\n    tag_41:\n        /* \"#utility.yul\":6850:6856   */\n      0x00\n        /* \"#utility.yul\":6883:6934   */\n      tag_129\n        /* \"#utility.yul\":6931:6932   */\n      0x00\n        /* \"#utility.yul\":6927:6933   */\n      not\n        /* \"#utility.yul\":6919:6924   */\n      dup5\n        /* \"#utility.yul\":6916:6917   */\n      0x08\n        /* \"#utility.yul\":6912:6925   */\n      mul\n        /* \"#utility.yul\":6883:6934   */\n      tag_40\n      jump\t// in\n    tag_129:\n        /* \"#utility.yul\":6879:6935   */\n      not\n        /* \"#utility.yul\":6964:6968   */\n      dup1\n        /* \"#utility.yul\":6958:6962   */\n      dup4\n        /* \"#utility.yul\":6954:6969   */\n      and\n        /* \"#utility.yul\":6944:6969   */\n      swap2\n      pop\n        /* \"#utility.yul\":6857:6975   */\n      pop\n        /* \"#utility.yul\":6806:6975   */\n      swap3\n      swap2\n      pop\n      pop\n      jump\t// out\n        /* \"#utility.yul\":6980:7275   */\n    tag_42:\n        /* \"#utility.yul\":7056:7060   */\n      0x00\n        /* \"#utility.yul\":7202:7231   */\n      tag_131\n        /* \"#utility.yul\":7227:7230   */\n      dup4\n        /* \"#utility.yul\":7221:7225   */\n      dup4\n        /* \"#utility.yul\":7202:7231   */\n      tag_41\n      jump\t// in\n    tag_131:\n        /* \"#utility.yul\":7194:7231   */\n      swap2\n      pop\n        /* \"#utility.yul\":7264:7267   */\n      dup3\n        /* \"#utility.yul\":7261:7262   */\n      0x02\n        /* \"#utility.yul\":7257:7268   */\n      mul\n        /* \"#utility.yul\":7251:7255   */\n      dup3\n        /* \"#utility.yul\":7248:7269   */\n      or\n        /* \"#utility.yul\":7240:7269   */\n      swap1\n      pop\n        /* \"#utility.yul\":6980:7275   */\n      swap3\n      swap2\n      pop\n      pop\n      jump\t// out\n        /* \"#utility.yul\":7280:8675   */\n    tag_7:\n        /* \"#utility.yul\":7397:7434   */\n      tag_133\n        /* \"#utility.yul\":7430:7433   */\n      dup3\n        /* \"#utility.yul\":7397:7434   */\n      tag_25\n      jump\t// in\n    tag_133:\n        /* \"#utility.yul\":7499:7517   */\n      0xffffffffffffffff\n        /* \"#utility.yul\":7491:7497   */\n      dup2\n        /* \"#utility.yul\":7488:7518   */\n      gt\n        /* \"#utility.yul\":7485:7541   */\n      iszero\n      tag_134\n      jumpi\n        /* \"#utility.yul\":7521:7539   */\n      tag_135\n      tag_15\n      jump\t// in\n    tag_135:\n        /* \"#utility.yul\":7485:7541   */\n    tag_134:\n        /* \"#utility.yul\":7565:7603   */\n      tag_136\n        /* \"#utility.yul\":7597:7601   */\n      dup3\n        /* \"#utility.yul\":7591:7602   */\n      sload\n        /* \"#utility.yul\":7565:7603   */\n      tag_27\n      jump\t// in\n    tag_136:\n        /* \"#utility.yul\":7650:7717   */\n      tag_137\n        /* \"#utility.yul\":7710:7716   */\n      dup3\n        /* \"#utility.yul\":7702:7708   */\n      dup3\n        /* \"#utility.yul\":7696:7700   */\n      dup6\n        /* \"#utility.yul\":7650:7717   */\n      tag_39\n      jump\t// in\n    tag_137:\n        /* \"#utility.yul\":7744:7745   */\n      0x00\n        /* \"#utility.yul\":7768:7772   */\n      0x20\n        /* \"#utility.yul\":7755:7772   */\n      swap1\n      pop\n        /* \"#utility.yul\":7800:7802   */\n      0x1f\n        /* \"#utility.yul\":7792:7798   */\n      dup4\n        /* \"#utility.yul\":7789:7803   */\n      gt\n        /* \"#utility.yul\":7817:7818   */\n      0x01\n        /* \"#utility.yul\":7812:8430   */\n      dup2\n      eq\n      tag_139\n      jumpi\n        /* \"#utility.yul\":8474:8475   */\n      0x00\n        /* \"#utility.yul\":8491:8497   */\n      dup5\n        /* \"#utility.yul\":8488:8565   */\n      iszero\n      tag_140\n      jumpi\n        /* \"#utility.yul\":8540:8549   */\n      dup3\n        /* \"#utility.yul\":8535:8538   */\n      dup8\n        /* \"#utility.yul\":8531:8550   */\n      add\n        /* \"#utility.yul\":8525:8551   */\n      mload\n        /* \"#utility.yul\":8516:8551   */\n      swap1\n      pop\n        /* \"#utility.yul\":8488:8565   */\n    tag_140:\n        /* \"#utility.yul\":8591:8658   */\n      tag_141\n        /* \"#utility.yul\":8651:8657   */\n      dup6\n        /* \"#utility.yul\":8644:8649   */\n      dup3\n        /* \"#utility.yul\":8591:8658   */\n      tag_42\n      jump\t// in\n    tag_141:\n        /* \"#utility.yul\":8585:8589   */\n      dup7\n        /* \"#utility.yul\":8578:8659   */\n      sstore\n        /* \"#utility.yul\":8447:8669   */\n      pop\n        /* \"#utility.yul\":7782:8669   */\n      jump(tag_138)\n        /* \"#utility.yul\":7812:8430   */\n    tag_139:\n        /* \"#utility.yul\":7864:7868   */\n      0x1f\n        /* \"#utility.yul\":7860:7869   */\n      not\n        /* \"#utility.yul\":7852:7858   */\n      dup5\n        /* \"#utility.yul\":7848:7870   */\n      and\n        /* \"#utility.yul\":7898:7935   */\n      tag_142\n        /* \"#utility.yul\":7930:7934   */\n      dup7\n        /* \"#utility.yul\":7898:7935   */\n      tag_28\n      jump\t// in\n    tag_142:\n        /* \"#utility.yul\":7957:7958   */\n      0x00\n        /* \"#utility.yul\":7971:8179   */\n    tag_143:\n        /* \"#utility.yul\":7985:7992   */\n      dup3\n        /* \"#utility.yul\":7982:7983   */\n      dup2\n        /* \"#utility.yul\":7979:7993   */\n      lt\n        /* \"#utility.yul\":7971:8179   */\n      iszero\n      tag_145\n      jumpi\n        /* \"#utility.yul\":8064:8073   */\n      dup5\n        /* \"#utility.yul\":8059:8062   */\n      dup10\n        /* \"#utility.yul\":8055:8074   */\n      add\n        /* \"#utility.yul\":8049:8075   */\n      mload\n        /* \"#utility.yul\":8041:8047   */\n      dup3\n        /* \"#utility.yul\":8034:8076   */\n      sstore\n        /* \"#utility.yul\":8115:8116   */\n      0x01\n        /* \"#utility.yul\":8107:8113   */\n      dup3\n        /* \"#utility.yul\":8103:8117   */\n      add\n        /* \"#utility.yul\":8093:8117   */\n      swap2\n      pop\n        /* \"#utility.yul\":8162:8164   */\n      0x20\n        /* \"#utility.yul\":8151:8160   */\n      dup6\n        /* \"#utility.yul\":8147:8165   */\n      add\n        /* \"#utility.yul\":8134:8165   */\n      swap5\n      pop\n        /* \"#utility.yul\":8008:8012   */\n      0x20\n        /* \"#utility.yul\":8005:8006   */\n      dup2\n        /* \"#utility.yul\":8001:8013   */\n      add\n        /* \"#utility.yul\":7996:8013   */\n      swap1\n      pop\n        /* \"#utility.yul\":7971:8179   */\n      jump(tag_143)\n    tag_145:\n        /* \"#utility.yul\":8207:8213   */\n      dup7\n        /* \"#utility.yul\":8198:8205   */\n      dup4\n        /* \"#utility.yul\":8195:8214   */\n      lt\n        /* \"#utility.yul\":8192:8371   */\n      iszero\n      tag_146\n      jumpi\n        /* \"#utility.yul\":8265:8274   */\n      dup5\n        /* \"#utility.yul\":8260:8263   */\n      dup10\n        /* \"#utility.yul\":8256:8275   */\n      add\n        /* \"#utility.yul\":8250:8276   */\n      mload\n        /* \"#utility.yul\":8308:8356   */\n      tag_147\n        /* \"#utility.yul\":8350:8354   */\n      0x1f\n        /* \"#utility.yul\":8342:8348   */\n      dup10\n        /* \"#utility.yul\":8338:8355   */\n      and\n        /* \"#utility.yul\":8327:8336   */\n      dup3\n        /* \"#utility.yul\":8308:8356   */\n      tag_41\n      jump\t// in\n    tag_147:\n        /* \"#utility.yul\":8300:8306   */\n      dup4\n        /* \"#utility.yul\":8293:8357   */\n      sstore\n        /* \"#utility.yul\":8215:8371   */\n      pop\n        /* \"#utility.yul\":8192:8371   */\n    tag_146:\n        /* \"#utility.yul\":8417:8418   */\n      0x01\n        /* \"#utility.yul\":8413:8414   */\n      0x02\n        /* \"#utility.yul\":8405:8411   */\n      dup9\n        /* \"#utility.yul\":8401:8415   */\n      mul\n        /* \"#utility.yul\":8397:8419   */\n      add\n        /* \"#utility.yul\":8391:8395   */\n      dup9\n        /* \"#utility.yul\":8384:8420   */\n      sstore\n        /* \"#utility.yul\":7819:8430   */\n      pop\n      pop\n      pop\n        /* \"#utility.yul\":7782:8669   */\n    tag_138:\n      pop\n        /* \"#utility.yul\":7372:8675   */\n      pop\n      pop\n      pop\n        /* \"#utility.yul\":7280:8675   */\n      pop\n      pop\n      jump\t// out\n        /* \"contractGenerator.sol\":26:248  contract DaughterContract {... */\n    tag_8:\n      dataSize(sub_0)\n      dup1\n      dataOffset(sub_0)\n      0x00\n      codecopy\n      0x00\n      return\n    stop\n\n    sub_0: assembly {\n            /* \"contractGenerator.sol\":26:248  contract DaughterContract {... */\n          mstore(0x40, 0x80)\n          callvalue\n          dup1\n          iszero\n          tag_1\n          jumpi\n          0x00\n          dup1\n          revert\n        tag_1:\n          pop\n          jumpi(tag_2, lt(calldatasize, 0x04))\n          shr(0xe0, calldataload(0x00))\n          dup1\n          0x06fdde03\n          eq\n          tag_3\n          jumpi\n          dup1\n          0x262a9dff\n          eq\n          tag_4\n          jumpi\n        tag_2:\n          0x00\n          dup1\n          revert\n            /* \"contractGenerator.sol\":58:76  string public name */\n        tag_3:\n          tag_5\n          tag_6\n          jump\t// in\n        tag_5:\n          mload(0x40)\n          tag_7\n          swap2\n          swap1\n          tag_8\n          jump\t// in\n        tag_7:\n          mload(0x40)\n          dup1\n          swap2\n          sub\n          swap1\n          return\n            /* \"contractGenerator.sol\":82:100  uint256 public age */\n        tag_4:\n          tag_9\n          tag_10\n          jump\t// in\n        tag_9:\n          mload(0x40)\n          tag_11\n          swap2\n          swap1\n          tag_12\n          jump\t// in\n        tag_11:\n          mload(0x40)\n          dup1\n          swap2\n          sub\n          swap1\n          return\n            /* \"contractGenerator.sol\":58:76  string public name */\n        tag_6:\n          0x00\n          dup1\n          sload\n          tag_13\n          swap1\n          tag_14\n          jump\t// in\n        tag_13:\n          dup1\n          0x1f\n          add\n          0x20\n          dup1\n          swap2\n          div\n          mul\n          0x20\n          add\n          mload(0x40)\n          swap1\n          dup2\n          add\n          0x40\n          mstore\n          dup1\n          swap3\n          swap2\n          swap1\n          dup2\n          dup2\n          mstore\n          0x20\n          add\n          dup3\n          dup1\n          sload\n          tag_15\n          swap1\n          tag_14\n          jump\t// in\n        tag_15:\n          dup1\n          iszero\n          tag_16\n          jumpi\n          dup1\n          0x1f\n          lt\n          tag_17\n          jumpi\n          0x0100\n          dup1\n          dup4\n          sload\n          div\n          mul\n          dup4\n          mstore\n          swap2\n          0x20\n          add\n          swap2\n          jump(tag_16)\n        tag_17:\n          dup3\n          add\n          swap2\n          swap1\n          0x00\n          mstore\n          keccak256(0x00, 0x20)\n          swap1\n        tag_18:\n          dup2\n          sload\n          dup2\n          mstore\n          swap1\n          0x01\n          add\n          swap1\n          0x20\n          add\n          dup1\n          dup4\n          gt\n          tag_18\n          jumpi\n          dup3\n          swap1\n          sub\n          0x1f\n          and\n          dup3\n          add\n          swap2\n        tag_16:\n          pop\n          pop\n          pop\n          pop\n          pop\n          dup2\n          jump\t// out\n            /* \"contractGenerator.sol\":82:100  uint256 public age */\n        tag_10:\n          sload(0x01)\n          dup2\n          jump\t// out\n            /* \"#utility.yul\":7:106   */\n        tag_19:\n            /* \"#utility.yul\":59:65   */\n          0x00\n            /* \"#utility.yul\":93:98   */\n          dup2\n            /* \"#utility.yul\":87:99   */\n          mload\n            /* \"#utility.yul\":77:99   */\n          swap1\n          pop\n            /* \"#utility.yul\":7:106   */\n          swap2\n          swap1\n          pop\n          jump\t// out\n            /* \"#utility.yul\":112:281   */\n        tag_20:\n            /* \"#utility.yul\":196:207   */\n          0x00\n            /* \"#utility.yul\":230:236   */\n          dup3\n            /* \"#utility.yul\":225:228   */\n          dup3\n            /* \"#utility.yul\":218:237   */\n          mstore\n            /* \"#utility.yul\":270:274   */\n          0x20\n            /* \"#utility.yul\":265:268   */\n          dup3\n            /* \"#utility.yul\":261:275   */\n          add\n            /* \"#utility.yul\":246:275   */\n          swap1\n          pop\n            /* \"#utility.yul\":112:281   */\n          swap3\n          swap2\n          pop\n          pop\n          jump\t// out\n            /* \"#utility.yul\":287:533   */\n        tag_21:\n            /* \"#utility.yul\":368:369   */\n          0x00\n            /* \"#utility.yul\":378:491   */\n        tag_31:\n            /* \"#utility.yul\":392:398   */\n          dup4\n            /* \"#utility.yul\":389:390   */\n          dup2\n            /* \"#utility.yul\":386:399   */\n          lt\n            /* \"#utility.yul\":378:491   */\n          iszero\n          tag_33\n          jumpi\n            /* \"#utility.yul\":477:478   */\n          dup1\n            /* \"#utility.yul\":472:475   */\n          dup3\n            /* \"#utility.yul\":468:479   */\n          add\n            /* \"#utility.yul\":462:480   */\n          mload\n            /* \"#utility.yul\":458:459   */\n          dup2\n            /* \"#utility.yul\":453:456   */\n          dup5\n            /* \"#utility.yul\":449:460   */\n          add\n            /* \"#utility.yul\":442:481   */\n          mstore\n            /* \"#utility.yul\":414:416   */\n          0x20\n            /* \"#utility.yul\":411:412   */\n          dup2\n            /* \"#utility.yul\":407:417   */\n          add\n            /* \"#utility.yul\":402:417   */\n          swap1\n          pop\n            /* \"#utility.yul\":378:491   */\n          jump(tag_31)\n        tag_33:\n            /* \"#utility.yul\":525:526   */\n          0x00\n            /* \"#utility.yul\":516:522   */\n          dup5\n            /* \"#utility.yul\":511:514   */\n          dup5\n            /* \"#utility.yul\":507:523   */\n          add\n            /* \"#utility.yul\":500:527   */\n          mstore\n            /* \"#utility.yul\":349:533   */\n          pop\n            /* \"#utility.yul\":287:533   */\n          pop\n          pop\n          pop\n          jump\t// out\n            /* \"#utility.yul\":539:641   */\n        tag_22:\n            /* \"#utility.yul\":580:586   */\n          0x00\n            /* \"#utility.yul\":631:633   */\n          0x1f\n            /* \"#utility.yul\":627:634   */\n          not\n            /* \"#utility.yul\":622:624   */\n          0x1f\n            /* \"#utility.yul\":615:620   */\n          dup4\n            /* \"#utility.yul\":611:625   */\n          add\n            /* \"#utility.yul\":607:635   */\n          and\n            /* \"#utility.yul\":597:635   */\n          swap1\n          pop\n            /* \"#utility.yul\":539:641   */\n          swap2\n          swap1\n          pop\n          jump\t// out\n            /* \"#utility.yul\":647:1024   */\n        tag_23:\n            /* \"#utility.yul\":735:738   */\n          0x00\n            /* \"#utility.yul\":763:802   */\n          tag_36\n            /* \"#utility.yul\":796:801   */\n          dup3\n            /* \"#utility.yul\":763:802   */\n          tag_19\n          jump\t// in\n        tag_36:\n            /* \"#utility.yul\":818:889   */\n          tag_37\n            /* \"#utility.yul\":882:888   */\n          dup2\n            /* \"#utility.yul\":877:880   */\n          dup6\n            /* \"#utility.yul\":818:889   */\n          tag_20\n          jump\t// in\n        tag_37:\n            /* \"#utility.yul\":811:889   */\n          swap4\n          pop\n            /* \"#utility.yul\":898:963   */\n          tag_38\n            /* \"#utility.yul\":956:962   */\n          dup2\n            /* \"#utility.yul\":951:954   */\n          dup6\n            /* \"#utility.yul\":944:948   */\n          0x20\n            /* \"#utility.yul\":937:942   */\n          dup7\n            /* \"#utility.yul\":933:949   */\n          add\n            /* \"#utility.yul\":898:963   */\n          tag_21\n          jump\t// in\n        tag_38:\n            /* \"#utility.yul\":988:1017   */\n          tag_39\n            /* \"#utility.yul\":1010:1016   */\n          dup2\n            /* \"#utility.yul\":988:1017   */\n          tag_22\n          jump\t// in\n        tag_39:\n            /* \"#utility.yul\":983:986   */\n          dup5\n            /* \"#utility.yul\":979:1018   */\n          add\n            /* \"#utility.yul\":972:1018   */\n          swap2\n          pop\n            /* \"#utility.yul\":739:1024   */\n          pop\n            /* \"#utility.yul\":647:1024   */\n          swap3\n          swap2\n          pop\n          pop\n          jump\t// out\n            /* \"#utility.yul\":1030:1343   */\n        tag_8:\n            /* \"#utility.yul\":1143:1147   */\n          0x00\n            /* \"#utility.yul\":1181:1183   */\n          0x20\n            /* \"#utility.yul\":1170:1179   */\n          dup3\n            /* \"#utility.yul\":1166:1184   */\n          add\n            /* \"#utility.yul\":1158:1184   */\n          swap1\n          pop\n            /* \"#utility.yul\":1230:1239   */\n          dup2\n            /* \"#utility.yul\":1224:1228   */\n          dup2\n            /* \"#utility.yul\":1220:1240   */\n          sub\n            /* \"#utility.yul\":1216:1217   */\n          0x00\n            /* \"#utility.yul\":1205:1214   */\n          dup4\n            /* \"#utility.yul\":1201:1218   */\n          add\n            /* \"#utility.yul\":1194:1241   */\n          mstore\n            /* \"#utility.yul\":1258:1336   */\n          tag_41\n            /* \"#utility.yul\":1331:1335   */\n          dup2\n            /* \"#utility.yul\":1322:1328   */\n          dup5\n            /* \"#utility.yul\":1258:1336   */\n          tag_23\n          jump\t// in\n        tag_41:\n            /* \"#utility.yul\":1250:1336   */\n          swap1\n          pop\n            /* \"#utility.yul\":1030:1343   */\n          swap3\n          swap2\n          pop\n          pop\n          jump\t// out\n            /* \"#utility.yul\":1349:1426   */\n        tag_24:\n            /* \"#utility.yul\":1386:1393   */\n          0x00\n            /* \"#utility.yul\":1415:1420   */\n          dup2\n            /* \"#utility.yul\":1404:1420   */\n          swap1\n          pop\n            /* \"#utility.yul\":1349:1426   */\n          swap2\n          swap1\n          pop\n          jump\t// out\n            /* \"#utility.yul\":1432:1550   */\n        tag_25:\n            /* \"#utility.yul\":1519:1543   */\n          tag_44\n            /* \"#utility.yul\":1537:1542   */\n          dup2\n            /* \"#utility.yul\":1519:1543   */\n          tag_24\n          jump\t// in\n        tag_44:\n            /* \"#utility.yul\":1514:1517   */\n          dup3\n            /* \"#utility.yul\":1507:1544   */\n          mstore\n            /* \"#utility.yul\":1432:1550   */\n          pop\n          pop\n          jump\t// out\n            /* \"#utility.yul\":1556:1778   */\n        tag_12:\n            /* \"#utility.yul\":1649:1653   */\n          0x00\n            /* \"#utility.yul\":1687:1689   */\n          0x20\n            /* \"#utility.yul\":1676:1685   */\n          dup3\n            /* \"#utility.yul\":1672:1690   */\n          add\n            /* \"#utility.yul\":1664:1690   */\n          swap1\n          pop\n            /* \"#utility.yul\":1700:1771   */\n          tag_46\n            /* \"#utility.yul\":1768:1769   */\n          0x00\n            /* \"#utility.yul\":1757:1766   */\n          dup4\n            /* \"#utility.yul\":1753:1770   */\n          add\n            /* \"#utility.yul\":1744:1750   */\n          dup5\n            /* \"#utility.yul\":1700:1771   */\n          tag_25\n          jump\t// in\n        tag_46:\n            /* \"#utility.yul\":1556:1778   */\n          swap3\n          swap2\n          pop\n          pop\n          jump\t// out\n            /* \"#utility.yul\":1784:1964   */\n        tag_26:\n            /* \"#utility.yul\":1832:1909   */\n          0x4e487b7100000000000000000000000000000000000000000000000000000000\n            /* \"#utility.yul\":1829:1830   */\n          0x00\n            /* \"#utility.yul\":1822:1910   */\n          mstore\n            /* \"#utility.yul\":1929:1933   */\n          0x22\n            /* \"#utility.yul\":1926:1927   */\n          0x04\n            /* \"#utility.yul\":1919:1934   */\n          mstore\n            /* \"#utility.yul\":1953:1957   */\n          0x24\n            /* \"#utility.yul\":1950:1951   */\n          0x00\n            /* \"#utility.yul\":1943:1958   */\n          revert\n            /* \"#utility.yul\":1970:2290   */\n        tag_14:\n            /* \"#utility.yul\":2014:2020   */\n          0x00\n            /* \"#utility.yul\":2051:2052   */\n          0x02\n            /* \"#utility.yul\":2045:2049   */\n          dup3\n            /* \"#utility.yul\":2041:2053   */\n          div\n            /* \"#utility.yul\":2031:2053   */\n          swap1\n          pop\n            /* \"#utility.yul\":2098:2099   */\n          0x01\n            /* \"#utility.yul\":2092:2096   */\n          dup3\n            /* \"#utility.yul\":2088:2100   */\n          and\n            /* \"#utility.yul\":2119:2137   */\n          dup1\n            /* \"#utility.yul\":2109:2190   */\n          tag_49\n          jumpi\n            /* \"#utility.yul\":2175:2179   */\n          0x7f\n            /* \"#utility.yul\":2167:2173   */\n          dup3\n            /* \"#utility.yul\":2163:2180   */\n          and\n            /* \"#utility.yul\":2153:2180   */\n          swap2\n          pop\n            /* \"#utility.yul\":2109:2190   */\n        tag_49:\n            /* \"#utility.yul\":2237:2239   */\n          0x20\n            /* \"#utility.yul\":2229:2235   */\n          dup3\n            /* \"#utility.yul\":2226:2240   */\n          lt\n            /* \"#utility.yul\":2206:2224   */\n          dup2\n            /* \"#utility.yul\":2203:2241   */\n          sub\n            /* \"#utility.yul\":2200:2284   */\n          tag_50\n          jumpi\n            /* \"#utility.yul\":2256:2274   */\n          tag_51\n          tag_26\n          jump\t// in\n        tag_51:\n            /* \"#utility.yul\":2200:2284   */\n        tag_50:\n            /* \"#utility.yul\":2021:2290   */\n          pop\n            /* \"#utility.yul\":1970:2290   */\n          swap2\n          swap1\n          pop\n          jump\t// out\n\n        auxdata: 0xa2646970667358221220ba38215ed9882984c56d21ed86fc24636dd41adfd00c2bddf50c28e5759f7c2264736f6c63430008150033\n    }\n}\n",
				"bytecode": {
					"linkReferences": {},
					"object": "60806040523480156200001157600080fd5b50604051620012eb380380620012eb8339818101604052810190620000379190620002b1565b81816040516200004790620000d5565b62000054929190620003cf565b604051809103906000f08015801562000071573d6000803e3d6000fd5b50600260006101000a81548173ffffffffffffffffffffffffffffffffffffffff021916908373ffffffffffffffffffffffffffffffffffffffff1602179055508360009081620000c3919062000639565b50826001819055505050505062000720565b61084b8062000aa083390190565b6000604051905090565b600080fd5b600080fd5b600080fd5b600080fd5b6000601f19601f8301169050919050565b7f4e487b7100000000000000000000000000000000000000000000000000000000600052604160045260246000fd5b6200014c8262000101565b810181811067ffffffffffffffff821117156200016e576200016d62000112565b5b80604052505050565b600062000183620000e3565b905062000191828262000141565b919050565b600067ffffffffffffffff821115620001b457620001b362000112565b5b620001bf8262000101565b9050602081019050919050565b60005b83811015620001ec578082015181840152602081019050620001cf565b60008484015250505050565b60006200020f620002098462000196565b62000177565b9050828152602081018484840111156200022e576200022d620000fc565b5b6200023b848285620001cc565b509392505050565b600082601f8301126200025b576200025a620000f7565b5b81516200026d848260208601620001f8565b91505092915050565b6000819050919050565b6200028b8162000276565b81146200029757600080fd5b50565b600081519050620002ab8162000280565b92915050565b60008060008060808587031215620002ce57620002cd620000ed565b5b600085015167ffffffffffffffff811115620002ef57620002ee620000f2565b5b620002fd8782880162000243565b945050602062000310878288016200029a565b935050604085015167ffffffffffffffff811115620003345762000333620000f2565b5b620003428782880162000243565b925050606062000355878288016200029a565b91505092959194509250565b600081519050919050565b600082825260208201905092915050565b60006200038a8262000361565b6200039681856200036c565b9350620003a8818560208601620001cc565b620003b38162000101565b840191505092915050565b620003c98162000276565b82525050565b60006040820190508181036000830152620003eb81856200037d565b9050620003fc6020830184620003be565b9392505050565b7f4e487b7100000000000000000000000000000000000000000000000000000000600052602260045260246000fd5b600060028204905060018216806200044b57607f821691505b60208210810362000461576200046062000403565b5b50919050565b60008190508160005260206000209050919050565b60006020601f8301049050919050565b600082821b905092915050565b600060088302620004cb7fffffffffffffffffffffffffffffffffffffffffffffffffffffffffffffffff826200048c565b620004d786836200048c565b95508019841693508086168417925050509392505050565b6000819050919050565b60006200051a620005146200050e8462000276565b620004ef565b62000276565b9050919050565b6000819050919050565b6200053683620004f9565b6200054e620005458262000521565b84845462000499565b825550505050565b600090565b6200056562000556565b620005728184846200052b565b505050565b5b818110156200059a576200058e6000826200055b565b60018101905062000578565b5050565b601f821115620005e957620005b38162000467565b620005be846200047c565b81016020851015620005ce578190505b620005e6620005dd856200047c565b83018262000577565b50505b505050565b600082821c905092915050565b60006200060e60001984600802620005ee565b1980831691505092915050565b6000620006298383620005fb565b9150826002028217905092915050565b620006448262000361565b67ffffffffffffffff81111562000660576200065f62000112565b5b6200066c825462000432565b620006798282856200059e565b600060209050601f831160018114620006b157600084156200069c578287015190505b620006a885826200061b565b86555062000718565b601f198416620006c18662000467565b60005b82811015620006eb57848901518255600182019150602085019450602081019050620006c4565b868310156200070b578489015162000707601f891682620005fb565b8355505b6001600288020188555050505b505050505050565b61037080620007306000396000f3fe608060405234801561001057600080fd5b50600436106100415760003560e01c806306fdde0314610046578063262a9dff14610064578063fcf5ed0614610082575b600080fd5b61004e6100a0565b60405161005b91906101ea565b60405180910390f35b61006c61012e565b6040516100799190610225565b60405180910390f35b61008a610134565b60405161009791906102bf565b60405180910390f35b600080546100ad90610309565b80601f01602080910402602001604051908101604052809291908181526020018280546100d990610309565b80156101265780601f106100fb57610100808354040283529160200191610126565b820191906000526020600020905b81548152906001019060200180831161010957829003601f168201915b505050505081565b60015481565b600260009054906101000a900473ffffffffffffffffffffffffffffffffffffffff1681565b600081519050919050565b600082825260208201905092915050565b60005b83811015610194578082015181840152602081019050610179565b60008484015250505050565b6000601f19601f8301169050919050565b60006101bc8261015a565b6101c68185610165565b93506101d6818560208601610176565b6101df816101a0565b840191505092915050565b6000602082019050818103600083015261020481846101b1565b905092915050565b6000819050919050565b61021f8161020c565b82525050565b600060208201905061023a6000830184610216565b92915050565b600073ffffffffffffffffffffffffffffffffffffffff82169050919050565b6000819050919050565b600061028561028061027b84610240565b610260565b610240565b9050919050565b60006102978261026a565b9050919050565b60006102a98261028c565b9050919050565b6102b98161029e565b82525050565b60006020820190506102d460008301846102b0565b92915050565b7f4e487b7100000000000000000000000000000000000000000000000000000000600052602260045260246000fd5b6000600282049050600182168061032157607f821691505b602082108103610334576103336102da565b5b5091905056fea2646970667358221220c61ca908fde20d61ffbafd3f997aa4cc20e1860714e22ac26b6ff1648a928ca264736f6c6343000815003360806040523480156200001157600080fd5b506040516200084b3803806200084b833981810160405281019062000037919062000226565b8160009081620000489190620004cd565b50806001819055505050620005b4565b6000604051905090565b600080fd5b600080fd5b600080fd5b600080fd5b6000601f19601f8301169050919050565b7f4e487b7100000000000000000000000000000000000000000000000000000000600052604160045260246000fd5b620000c18262000076565b810181811067ffffffffffffffff82111715620000e357620000e262000087565b5b80604052505050565b6000620000f862000058565b9050620001068282620000b6565b919050565b600067ffffffffffffffff82111562000129576200012862000087565b5b620001348262000076565b9050602081019050919050565b60005b838110156200016157808201518184015260208101905062000144565b60008484015250505050565b6000620001846200017e846200010b565b620000ec565b905082815260208101848484011115620001a357620001a262000071565b5b620001b084828562000141565b509392505050565b600082601f830112620001d057620001cf6200006c565b5b8151620001e28482602086016200016d565b91505092915050565b6000819050919050565b6200020081620001eb565b81146200020c57600080fd5b50565b6000815190506200022081620001f5565b92915050565b6000806040838503121562000240576200023f62000062565b5b600083015167ffffffffffffffff81111562000261576200026062000067565b5b6200026f85828601620001b8565b925050602062000282858286016200020f565b9150509250929050565b600081519050919050565b7f4e487b7100000000000000000000000000000000000000000000000000000000600052602260045260246000fd5b60006002820490506001821680620002df57607f821691505b602082108103620002f557620002f462000297565b5b50919050565b60008190508160005260206000209050919050565b60006020601f8301049050919050565b600082821b905092915050565b6000600883026200035f7fffffffffffffffffffffffffffffffffffffffffffffffffffffffffffffffff8262000320565b6200036b868362000320565b95508019841693508086168417925050509392505050565b6000819050919050565b6000620003ae620003a8620003a284620001eb565b62000383565b620001eb565b9050919050565b6000819050919050565b620003ca836200038d565b620003e2620003d982620003b5565b8484546200032d565b825550505050565b600090565b620003f9620003ea565b62000406818484620003bf565b505050565b5b818110156200042e5762000422600082620003ef565b6001810190506200040c565b5050565b601f8211156200047d576200044781620002fb565b620004528462000310565b8101602085101562000462578190505b6200047a620004718562000310565b8301826200040b565b50505b505050565b600082821c905092915050565b6000620004a26000198460080262000482565b1980831691505092915050565b6000620004bd83836200048f565b9150826002028217905092915050565b620004d8826200028c565b67ffffffffffffffff811115620004f457620004f362000087565b5b620005008254620002c6565b6200050d82828562000432565b600060209050601f83116001811462000545576000841562000530578287015190505b6200053c8582620004af565b865550620005ac565b601f1984166200055586620002fb565b60005b828110156200057f5784890151825560018201915060208501945060208101905062000558565b868310156200059f57848901516200059b601f8916826200048f565b8355505b6001600288020188555050505b505050505050565b61028780620005c46000396000f3fe608060405234801561001057600080fd5b50600436106100365760003560e01c806306fdde031461003b578063262a9dff14610059575b600080fd5b610043610077565b604051610050919061019b565b60405180910390f35b610061610105565b60405161006e91906101d6565b60405180910390f35b6000805461008490610220565b80601f01602080910402602001604051908101604052809291908181526020018280546100b090610220565b80156100fd5780601f106100d2576101008083540402835291602001916100fd565b820191906000526020600020905b8154815290600101906020018083116100e057829003601f168201915b505050505081565b60015481565b600081519050919050565b600082825260208201905092915050565b60005b8381101561014557808201518184015260208101905061012a565b60008484015250505050565b6000601f19601f8301169050919050565b600061016d8261010b565b6101778185610116565b9350610187818560208601610127565b61019081610151565b840191505092915050565b600060208201905081810360008301526101b58184610162565b905092915050565b6000819050919050565b6101d0816101bd565b82525050565b60006020820190506101eb60008301846101c7565b92915050565b7f4e487b7100000000000000000000000000000000000000000000000000000000600052602260045260246000fd5b6000600282049050600182168061023857607f821691505b60208210810361024b5761024a6101f1565b5b5091905056fea2646970667358221220ba38215ed9882984c56d21ed86fc24636dd41adfd00c2bddf50c28e5759f7c2264736f6c63430008150033",
					"opcodes": "PUSH1 0x80 PUSH1 0x40 MSTORE CALLVALUE DUP1 ISZERO PUSH3 0x11 JUMPI PUSH1 0x0 DUP1 REVERT JUMPDEST POP PUSH1 0x40 MLOAD PUSH3 0x12EB CODESIZE SUB DUP1 PUSH3 0x12EB DUP4 CODECOPY DUP2 DUP2 ADD PUSH1 0x40 MSTORE DUP2 ADD SWAP1 PUSH3 0x37 SWAP2 SWAP1 PUSH3 0x2B1 JUMP JUMPDEST DUP2 DUP2 PUSH1 0x40 MLOAD PUSH3 0x47 SWAP1 PUSH3 0xD5 JUMP JUMPDEST PUSH3 0x54 SWAP3 SWAP2 SWAP1 PUSH3 0x3CF JUMP JUMPDEST PUSH1 0x40 MLOAD DUP1 SWAP2 SUB SWAP1 PUSH1 0x0 CREATE DUP1 ISZERO DUP1 ISZERO PUSH3 0x71 JUMPI RETURNDATASIZE PUSH1 0x0 DUP1 RETURNDATACOPY RETURNDATASIZE PUSH1 0x0 REVERT JUMPDEST POP PUSH1 0x2 PUSH1 0x0 PUSH2 0x100 EXP DUP2 SLOAD DUP2 PUSH20 0xFFFFFFFFFFFFFFFFFFFFFFFFFFFFFFFFFFFFFFFF MUL NOT AND SWAP1 DUP4 PUSH20 0xFFFFFFFFFFFFFFFFFFFFFFFFFFFFFFFFFFFFFFFF AND MUL OR SWAP1 SSTORE POP DUP4 PUSH1 0x0 SWAP1 DUP2 PUSH3 0xC3 SWAP2 SWAP1 PUSH3 0x639 JUMP JUMPDEST POP DUP3 PUSH1 0x1 DUP2 SWAP1 SSTORE POP POP POP POP POP PUSH3 0x720 JUMP JUMPDEST PUSH2 0x84B DUP1 PUSH3 0xAA0 DUP4 CODECOPY ADD SWAP1 JUMP JUMPDEST PUSH1 0x0 PUSH1 0x40 MLOAD SWAP1 POP SWAP1 JUMP JUMPDEST PUSH1 0x0 DUP1 REVERT JUMPDEST PUSH1 0x0 DUP1 REVERT JUMPDEST PUSH1 0x0 DUP1 REVERT JUMPDEST PUSH1 0x0 DUP1 REVERT JUMPDEST PUSH1 0x0 PUSH1 0x1F NOT PUSH1 0x1F DUP4 ADD AND SWAP1 POP SWAP2 SWAP1 POP JUMP JUMPDEST PUSH32 0x4E487B7100000000000000000000000000000000000000000000000000000000 PUSH1 0x0 MSTORE PUSH1 0x41 PUSH1 0x4 MSTORE PUSH1 0x24 PUSH1 0x0 REVERT JUMPDEST PUSH3 0x14C DUP3 PUSH3 0x101 JUMP JUMPDEST DUP2 ADD DUP2 DUP2 LT PUSH8 0xFFFFFFFFFFFFFFFF DUP3 GT OR ISZERO PUSH3 0x16E JUMPI PUSH3 0x16D PUSH3 0x112 JUMP JUMPDEST JUMPDEST DUP1 PUSH1 0x40 MSTORE POP POP POP JUMP JUMPDEST PUSH1 0x0 PUSH3 0x183 PUSH3 0xE3 JUMP JUMPDEST SWAP1 POP PUSH3 0x191 DUP3 DUP3 PUSH3 0x141 JUMP JUMPDEST SWAP2 SWAP1 POP JUMP JUMPDEST PUSH1 0x0 PUSH8 0xFFFFFFFFFFFFFFFF DUP3 GT ISZERO PUSH3 0x1B4 JUMPI PUSH3 0x1B3 PUSH3 0x112 JUMP JUMPDEST JUMPDEST PUSH3 0x1BF DUP3 PUSH3 0x101 JUMP JUMPDEST SWAP1 POP PUSH1 0x20 DUP2 ADD SWAP1 POP SWAP2 SWAP1 POP JUMP JUMPDEST PUSH1 0x0 JUMPDEST DUP4 DUP2 LT ISZERO PUSH3 0x1EC JUMPI DUP1 DUP3 ADD MLOAD DUP2 DUP5 ADD MSTORE PUSH1 0x20 DUP2 ADD SWAP1 POP PUSH3 0x1CF JUMP JUMPDEST PUSH1 0x0 DUP5 DUP5 ADD MSTORE POP POP POP POP JUMP JUMPDEST PUSH1 0x0 PUSH3 0x20F PUSH3 0x209 DUP5 PUSH3 0x196 JUMP JUMPDEST PUSH3 0x177 JUMP JUMPDEST SWAP1 POP DUP3 DUP2 MSTORE PUSH1 0x20 DUP2 ADD DUP5 DUP5 DUP5 ADD GT ISZERO PUSH3 0x22E JUMPI PUSH3 0x22D PUSH3 0xFC JUMP JUMPDEST JUMPDEST PUSH3 0x23B DUP5 DUP3 DUP6 PUSH3 0x1CC JUMP JUMPDEST POP SWAP4 SWAP3 POP POP POP JUMP JUMPDEST PUSH1 0x0 DUP3 PUSH1 0x1F DUP4 ADD SLT PUSH3 0x25B JUMPI PUSH3 0x25A PUSH3 0xF7 JUMP JUMPDEST JUMPDEST DUP2 MLOAD PUSH3 0x26D DUP5 DUP3 PUSH1 0x20 DUP7 ADD PUSH3 0x1F8 JUMP JUMPDEST SWAP2 POP POP SWAP3 SWAP2 POP POP JUMP JUMPDEST PUSH1 0x0 DUP2 SWAP1 POP SWAP2 SWAP1 POP JUMP JUMPDEST PUSH3 0x28B DUP2 PUSH3 0x276 JUMP JUMPDEST DUP2 EQ PUSH3 0x297 JUMPI PUSH1 0x0 DUP1 REVERT JUMPDEST POP JUMP JUMPDEST PUSH1 0x0 DUP2 MLOAD SWAP1 POP PUSH3 0x2AB DUP2 PUSH3 0x280 JUMP JUMPDEST SWAP3 SWAP2 POP POP JUMP JUMPDEST PUSH1 0x0 DUP1 PUSH1 0x0 DUP1 PUSH1 0x80 DUP6 DUP8 SUB SLT ISZERO PUSH3 0x2CE JUMPI PUSH3 0x2CD PUSH3 0xED JUMP JUMPDEST JUMPDEST PUSH1 0x0 DUP6 ADD MLOAD PUSH8 0xFFFFFFFFFFFFFFFF DUP2 GT ISZERO PUSH3 0x2EF JUMPI PUSH3 0x2EE PUSH3 0xF2 JUMP JUMPDEST JUMPDEST PUSH3 0x2FD DUP8 DUP3 DUP9 ADD PUSH3 0x243 JUMP JUMPDEST SWAP5 POP POP PUSH1 0x20 PUSH3 0x310 DUP8 DUP3 DUP9 ADD PUSH3 0x29A JUMP JUMPDEST SWAP4 POP POP PUSH1 0x40 DUP6 ADD MLOAD PUSH8 0xFFFFFFFFFFFFFFFF DUP2 GT ISZERO PUSH3 0x334 JUMPI PUSH3 0x333 PUSH3 0xF2 JUMP JUMPDEST JUMPDEST PUSH3 0x342 DUP8 DUP3 DUP9 ADD PUSH3 0x243 JUMP JUMPDEST SWAP3 POP POP PUSH1 0x60 PUSH3 0x355 DUP8 DUP3 DUP9 ADD PUSH3 0x29A JUMP JUMPDEST SWAP2 POP POP SWAP3 SWAP6 SWAP2 SWAP5 POP SWAP3 POP JUMP JUMPDEST PUSH1 0x0 DUP2 MLOAD SWAP1 POP SWAP2 SWAP1 POP JUMP JUMPDEST PUSH1 0x0 DUP3 DUP3 MSTORE PUSH1 0x20 DUP3 ADD SWAP1 POP SWAP3 SWAP2 POP POP JUMP JUMPDEST PUSH1 0x0 PUSH3 0x38A DUP3 PUSH3 0x361 JUMP JUMPDEST PUSH3 0x396 DUP2 DUP6 PUSH3 0x36C JUMP JUMPDEST SWAP4 POP PUSH3 0x3A8 DUP2 DUP6 PUSH1 0x20 DUP7 ADD PUSH3 0x1CC JUMP JUMPDEST PUSH3 0x3B3 DUP2 PUSH3 0x101 JUMP JUMPDEST DUP5 ADD SWAP2 POP POP SWAP3 SWAP2 POP POP JUMP JUMPDEST PUSH3 0x3C9 DUP2 PUSH3 0x276 JUMP JUMPDEST DUP3 MSTORE POP POP JUMP JUMPDEST PUSH1 0x0 PUSH1 0x40 DUP3 ADD SWAP1 POP DUP2 DUP2 SUB PUSH1 0x0 DUP4 ADD MSTORE PUSH3 0x3EB DUP2 DUP6 PUSH3 0x37D JUMP JUMPDEST SWAP1 POP PUSH3 0x3FC PUSH1 0x20 DUP4 ADD DUP5 PUSH3 0x3BE JUMP JUMPDEST SWAP4 SWAP3 POP POP POP JUMP JUMPDEST PUSH32 0x4E487B7100000000000000000000000000000000000000000000000000000000 PUSH1 0x0 MSTORE PUSH1 0x22 PUSH1 0x4 MSTORE PUSH1 0x24 PUSH1 0x0 REVERT JUMPDEST PUSH1 0x0 PUSH1 0x2 DUP3 DIV SWAP1 POP PUSH1 0x1 DUP3 AND DUP1 PUSH3 0x44B JUMPI PUSH1 0x7F DUP3 AND SWAP2 POP JUMPDEST PUSH1 0x20 DUP3 LT DUP2 SUB PUSH3 0x461 JUMPI PUSH3 0x460 PUSH3 0x403 JUMP JUMPDEST JUMPDEST POP SWAP2 SWAP1 POP JUMP JUMPDEST PUSH1 0x0 DUP2 SWAP1 POP DUP2 PUSH1 0x0 MSTORE PUSH1 0x20 PUSH1 0x0 KECCAK256 SWAP1 POP SWAP2 SWAP1 POP JUMP JUMPDEST PUSH1 0x0 PUSH1 0x20 PUSH1 0x1F DUP4 ADD DIV SWAP1 POP SWAP2 SWAP1 POP JUMP JUMPDEST PUSH1 0x0 DUP3 DUP3 SHL SWAP1 POP SWAP3 SWAP2 POP POP JUMP JUMPDEST PUSH1 0x0 PUSH1 0x8 DUP4 MUL PUSH3 0x4CB PUSH32 0xFFFFFFFFFFFFFFFFFFFFFFFFFFFFFFFFFFFFFFFFFFFFFFFFFFFFFFFFFFFFFFFF DUP3 PUSH3 0x48C JUMP JUMPDEST PUSH3 0x4D7 DUP7 DUP4 PUSH3 0x48C JUMP JUMPDEST SWAP6 POP DUP1 NOT DUP5 AND SWAP4 POP DUP1 DUP7 AND DUP5 OR SWAP3 POP POP POP SWAP4 SWAP3 POP POP POP JUMP JUMPDEST PUSH1 0x0 DUP2 SWAP1 POP SWAP2 SWAP1 POP JUMP JUMPDEST PUSH1 0x0 PUSH3 0x51A PUSH3 0x514 PUSH3 0x50E DUP5 PUSH3 0x276 JUMP JUMPDEST PUSH3 0x4EF JUMP JUMPDEST PUSH3 0x276 JUMP JUMPDEST SWAP1 POP SWAP2 SWAP1 POP JUMP JUMPDEST PUSH1 0x0 DUP2 SWAP1 POP SWAP2 SWAP1 POP JUMP JUMPDEST PUSH3 0x536 DUP4 PUSH3 0x4F9 JUMP JUMPDEST PUSH3 0x54E PUSH3 0x545 DUP3 PUSH3 0x521 JUMP JUMPDEST DUP5 DUP5 SLOAD PUSH3 0x499 JUMP JUMPDEST DUP3 SSTORE POP POP POP POP JUMP JUMPDEST PUSH1 0x0 SWAP1 JUMP JUMPDEST PUSH3 0x565 PUSH3 0x556 JUMP JUMPDEST PUSH3 0x572 DUP2 DUP5 DUP5 PUSH3 0x52B JUMP JUMPDEST POP POP POP JUMP JUMPDEST JUMPDEST DUP2 DUP2 LT ISZERO PUSH3 0x59A JUMPI PUSH3 0x58E PUSH1 0x0 DUP3 PUSH3 0x55B JUMP JUMPDEST PUSH1 0x1 DUP2 ADD SWAP1 POP PUSH3 0x578 JUMP JUMPDEST POP POP JUMP JUMPDEST PUSH1 0x1F DUP3 GT ISZERO PUSH3 0x5E9 JUMPI PUSH3 0x5B3 DUP2 PUSH3 0x467 JUMP JUMPDEST PUSH3 0x5BE DUP5 PUSH3 0x47C JUMP JUMPDEST DUP2 ADD PUSH1 0x20 DUP6 LT ISZERO PUSH3 0x5CE JUMPI DUP2 SWAP1 POP JUMPDEST PUSH3 0x5E6 PUSH3 0x5DD DUP6 PUSH3 0x47C JUMP JUMPDEST DUP4 ADD DUP3 PUSH3 0x577 JUMP JUMPDEST POP POP JUMPDEST POP POP POP JUMP JUMPDEST PUSH1 0x0 DUP3 DUP3 SHR SWAP1 POP SWAP3 SWAP2 POP POP JUMP JUMPDEST PUSH1 0x0 PUSH3 0x60E PUSH1 0x0 NOT DUP5 PUSH1 0x8 MUL PUSH3 0x5EE JUMP JUMPDEST NOT DUP1 DUP4 AND SWAP2 POP POP SWAP3 SWAP2 POP POP JUMP JUMPDEST PUSH1 0x0 PUSH3 0x629 DUP4 DUP4 PUSH3 0x5FB JUMP JUMPDEST SWAP2 POP DUP3 PUSH1 0x2 MUL DUP3 OR SWAP1 POP SWAP3 SWAP2 POP POP JUMP JUMPDEST PUSH3 0x644 DUP3 PUSH3 0x361 JUMP JUMPDEST PUSH8 0xFFFFFFFFFFFFFFFF DUP2 GT ISZERO PUSH3 0x660 JUMPI PUSH3 0x65F PUSH3 0x112 JUMP JUMPDEST JUMPDEST PUSH3 0x66C DUP3 SLOAD PUSH3 0x432 JUMP JUMPDEST PUSH3 0x679 DUP3 DUP3 DUP6 PUSH3 0x59E JUMP JUMPDEST PUSH1 0x0 PUSH1 0x20 SWAP1 POP PUSH1 0x1F DUP4 GT PUSH1 0x1 DUP2 EQ PUSH3 0x6B1 JUMPI PUSH1 0x0 DUP5 ISZERO PUSH3 0x69C JUMPI DUP3 DUP8 ADD MLOAD SWAP1 POP JUMPDEST PUSH3 0x6A8 DUP6 DUP3 PUSH3 0x61B JUMP JUMPDEST DUP7 SSTORE POP PUSH3 0x718 JUMP JUMPDEST PUSH1 0x1F NOT DUP5 AND PUSH3 0x6C1 DUP7 PUSH3 0x467 JUMP JUMPDEST PUSH1 0x0 JUMPDEST DUP3 DUP2 LT ISZERO PUSH3 0x6EB JUMPI DUP5 DUP10 ADD MLOAD DUP3 SSTORE PUSH1 0x1 DUP3 ADD SWAP2 POP PUSH1 0x20 DUP6 ADD SWAP5 POP PUSH1 0x20 DUP2 ADD SWAP1 POP PUSH3 0x6C4 JUMP JUMPDEST DUP7 DUP4 LT ISZERO PUSH3 0x70B JUMPI DUP5 DUP10 ADD MLOAD PUSH3 0x707 PUSH1 0x1F DUP10 AND DUP3 PUSH3 0x5FB JUMP JUMPDEST DUP4 SSTORE POP JUMPDEST PUSH1 0x1 PUSH1 0x2 DUP9 MUL ADD DUP9 SSTORE POP POP POP JUMPDEST POP POP POP POP POP POP JUMP JUMPDEST PUSH2 0x370 DUP1 PUSH3 0x730 PUSH1 0x0 CODECOPY PUSH1 0x0 RETURN INVALID PUSH1 0x80 PUSH1 0x40 MSTORE CALLVALUE DUP1 ISZERO PUSH2 0x10 JUMPI PUSH1 0x0 DUP1 REVERT JUMPDEST POP PUSH1 0x4 CALLDATASIZE LT PUSH2 0x41 JUMPI PUSH1 0x0 CALLDATALOAD PUSH1 0xE0 SHR DUP1 PUSH4 0x6FDDE03 EQ PUSH2 0x46 JUMPI DUP1 PUSH4 0x262A9DFF EQ PUSH2 0x64 JUMPI DUP1 PUSH4 0xFCF5ED06 EQ PUSH2 0x82 JUMPI JUMPDEST PUSH1 0x0 DUP1 REVERT JUMPDEST PUSH2 0x4E PUSH2 0xA0 JUMP JUMPDEST PUSH1 0x40 MLOAD PUSH2 0x5B SWAP2 SWAP1 PUSH2 0x1EA JUMP JUMPDEST PUSH1 0x40 MLOAD DUP1 SWAP2 SUB SWAP1 RETURN JUMPDEST PUSH2 0x6C PUSH2 0x12E JUMP JUMPDEST PUSH1 0x40 MLOAD PUSH2 0x79 SWAP2 SWAP1 PUSH2 0x225 JUMP JUMPDEST PUSH1 0x40 MLOAD DUP1 SWAP2 SUB SWAP1 RETURN JUMPDEST PUSH2 0x8A PUSH2 0x134 JUMP JUMPDEST PUSH1 0x40 MLOAD PUSH2 0x97 SWAP2 SWAP1 PUSH2 0x2BF JUMP JUMPDEST PUSH1 0x40 MLOAD DUP1 SWAP2 SUB SWAP1 RETURN JUMPDEST PUSH1 0x0 DUP1 SLOAD PUSH2 0xAD SWAP1 PUSH2 0x309 JUMP JUMPDEST DUP1 PUSH1 0x1F ADD PUSH1 0x20 DUP1 SWAP2 DIV MUL PUSH1 0x20 ADD PUSH1 0x40 MLOAD SWAP1 DUP2 ADD PUSH1 0x40 MSTORE DUP1 SWAP3 SWAP2 SWAP1 DUP2 DUP2 MSTORE PUSH1 0x20 ADD DUP3 DUP1 SLOAD PUSH2 0xD9 SWAP1 PUSH2 0x309 JUMP JUMPDEST DUP1 ISZERO PUSH2 0x126 JUMPI DUP1 PUSH1 0x1F LT PUSH2 0xFB JUMPI PUSH2 0x100 DUP1 DUP4 SLOAD DIV MUL DUP4 MSTORE SWAP2 PUSH1 0x20 ADD SWAP2 PUSH2 0x126 JUMP JUMPDEST DUP3 ADD SWAP2 SWAP1 PUSH1 0x0 MSTORE PUSH1 0x20 PUSH1 0x0 KECCAK256 SWAP1 JUMPDEST DUP2 SLOAD DUP2 MSTORE SWAP1 PUSH1 0x1 ADD SWAP1 PUSH1 0x20 ADD DUP1 DUP4 GT PUSH2 0x109 JUMPI DUP3 SWAP1 SUB PUSH1 0x1F AND DUP3 ADD SWAP2 JUMPDEST POP POP POP POP POP DUP2 JUMP JUMPDEST PUSH1 0x1 SLOAD DUP2 JUMP JUMPDEST PUSH1 0x2 PUSH1 0x0 SWAP1 SLOAD SWAP1 PUSH2 0x100 EXP SWAP1 DIV PUSH20 0xFFFFFFFFFFFFFFFFFFFFFFFFFFFFFFFFFFFFFFFF AND DUP2 JUMP JUMPDEST PUSH1 0x0 DUP2 MLOAD SWAP1 POP SWAP2 SWAP1 POP JUMP JUMPDEST PUSH1 0x0 DUP3 DUP3 MSTORE PUSH1 0x20 DUP3 ADD SWAP1 POP SWAP3 SWAP2 POP POP JUMP JUMPDEST PUSH1 0x0 JUMPDEST DUP4 DUP2 LT ISZERO PUSH2 0x194 JUMPI DUP1 DUP3 ADD MLOAD DUP2 DUP5 ADD MSTORE PUSH1 0x20 DUP2 ADD SWAP1 POP PUSH2 0x179 JUMP JUMPDEST PUSH1 0x0 DUP5 DUP5 ADD MSTORE POP POP POP POP JUMP JUMPDEST PUSH1 0x0 PUSH1 0x1F NOT PUSH1 0x1F DUP4 ADD AND SWAP1 POP SWAP2 SWAP1 POP JUMP JUMPDEST PUSH1 0x0 PUSH2 0x1BC DUP3 PUSH2 0x15A JUMP JUMPDEST PUSH2 0x1C6 DUP2 DUP6 PUSH2 0x165 JUMP JUMPDEST SWAP4 POP PUSH2 0x1D6 DUP2 DUP6 PUSH1 0x20 DUP7 ADD PUSH2 0x176 JUMP JUMPDEST PUSH2 0x1DF DUP2 PUSH2 0x1A0 JUMP JUMPDEST DUP5 ADD SWAP2 POP POP SWAP3 SWAP2 POP POP JUMP JUMPDEST PUSH1 0x0 PUSH1 0x20 DUP3 ADD SWAP1 POP DUP2 DUP2 SUB PUSH1 0x0 DUP4 ADD MSTORE PUSH2 0x204 DUP2 DUP5 PUSH2 0x1B1 JUMP JUMPDEST SWAP1 POP SWAP3 SWAP2 POP POP JUMP JUMPDEST PUSH1 0x0 DUP2 SWAP1 POP SWAP2 SWAP1 POP JUMP JUMPDEST PUSH2 0x21F DUP2 PUSH2 0x20C JUMP JUMPDEST DUP3 MSTORE POP POP JUMP JUMPDEST PUSH1 0x0 PUSH1 0x20 DUP3 ADD SWAP1 POP PUSH2 0x23A PUSH1 0x0 DUP4 ADD DUP5 PUSH2 0x216 JUMP JUMPDEST SWAP3 SWAP2 POP POP JUMP JUMPDEST PUSH1 0x0 PUSH20 0xFFFFFFFFFFFFFFFFFFFFFFFFFFFFFFFFFFFFFFFF DUP3 AND SWAP1 POP SWAP2 SWAP1 POP JUMP JUMPDEST PUSH1 0x0 DUP2 SWAP1 POP SWAP2 SWAP1 POP JUMP JUMPDEST PUSH1 0x0 PUSH2 0x285 PUSH2 0x280 PUSH2 0x27B DUP5 PUSH2 0x240 JUMP JUMPDEST PUSH2 0x260 JUMP JUMPDEST PUSH2 0x240 JUMP JUMPDEST SWAP1 POP SWAP2 SWAP1 POP JUMP JUMPDEST PUSH1 0x0 PUSH2 0x297 DUP3 PUSH2 0x26A JUMP JUMPDEST SWAP1 POP SWAP2 SWAP1 POP JUMP JUMPDEST PUSH1 0x0 PUSH2 0x2A9 DUP3 PUSH2 0x28C JUMP JUMPDEST SWAP1 POP SWAP2 SWAP1 POP JUMP JUMPDEST PUSH2 0x2B9 DUP2 PUSH2 0x29E JUMP JUMPDEST DUP3 MSTORE POP POP JUMP JUMPDEST PUSH1 0x0 PUSH1 0x20 DUP3 ADD SWAP1 POP PUSH2 0x2D4 PUSH1 0x0 DUP4 ADD DUP5 PUSH2 0x2B0 JUMP JUMPDEST SWAP3 SWAP2 POP POP JUMP JUMPDEST PUSH32 0x4E487B7100000000000000000000000000000000000000000000000000000000 PUSH1 0x0 MSTORE PUSH1 0x22 PUSH1 0x4 MSTORE PUSH1 0x24 PUSH1 0x0 REVERT JUMPDEST PUSH1 0x0 PUSH1 0x2 DUP3 DIV SWAP1 POP PUSH1 0x1 DUP3 AND DUP1 PUSH2 0x321 JUMPI PUSH1 0x7F DUP3 AND SWAP2 POP JUMPDEST PUSH1 0x20 DUP3 LT DUP2 SUB PUSH2 0x334 JUMPI PUSH2 0x333 PUSH2 0x2DA JUMP JUMPDEST JUMPDEST POP SWAP2 SWAP1 POP JUMP INVALID LOG2 PUSH5 0x6970667358 0x22 SLT KECCAK256 0xC6 SHR 0xA9 ADDMOD REVERT 0xE2 0xD PUSH2 0xFFBA REVERT EXTCODEHASH SWAP10 PUSH27 0xA4CC20E1860714E22AC26B6FF1648A928CA264736F6C6343000815 STOP CALLER PUSH1 0x80 PUSH1 0x40 MSTORE CALLVALUE DUP1 ISZERO PUSH3 0x11 JUMPI PUSH1 0x0 DUP1 REVERT JUMPDEST POP PUSH1 0x40 MLOAD PUSH3 0x84B CODESIZE SUB DUP1 PUSH3 0x84B DUP4 CODECOPY DUP2 DUP2 ADD PUSH1 0x40 MSTORE DUP2 ADD SWAP1 PUSH3 0x37 SWAP2 SWAP1 PUSH3 0x226 JUMP JUMPDEST DUP2 PUSH1 0x0 SWAP1 DUP2 PUSH3 0x48 SWAP2 SWAP1 PUSH3 0x4CD JUMP JUMPDEST POP DUP1 PUSH1 0x1 DUP2 SWAP1 SSTORE POP POP POP PUSH3 0x5B4 JUMP JUMPDEST PUSH1 0x0 PUSH1 0x40 MLOAD SWAP1 POP SWAP1 JUMP JUMPDEST PUSH1 0x0 DUP1 REVERT JUMPDEST PUSH1 0x0 DUP1 REVERT JUMPDEST PUSH1 0x0 DUP1 REVERT JUMPDEST PUSH1 0x0 DUP1 REVERT JUMPDEST PUSH1 0x0 PUSH1 0x1F NOT PUSH1 0x1F DUP4 ADD AND SWAP1 POP SWAP2 SWAP1 POP JUMP JUMPDEST PUSH32 0x4E487B7100000000000000000000000000000000000000000000000000000000 PUSH1 0x0 MSTORE PUSH1 0x41 PUSH1 0x4 MSTORE PUSH1 0x24 PUSH1 0x0 REVERT JUMPDEST PUSH3 0xC1 DUP3 PUSH3 0x76 JUMP JUMPDEST DUP2 ADD DUP2 DUP2 LT PUSH8 0xFFFFFFFFFFFFFFFF DUP3 GT OR ISZERO PUSH3 0xE3 JUMPI PUSH3 0xE2 PUSH3 0x87 JUMP JUMPDEST JUMPDEST DUP1 PUSH1 0x40 MSTORE POP POP POP JUMP JUMPDEST PUSH1 0x0 PUSH3 0xF8 PUSH3 0x58 JUMP JUMPDEST SWAP1 POP PUSH3 0x106 DUP3 DUP3 PUSH3 0xB6 JUMP JUMPDEST SWAP2 SWAP1 POP JUMP JUMPDEST PUSH1 0x0 PUSH8 0xFFFFFFFFFFFFFFFF DUP3 GT ISZERO PUSH3 0x129 JUMPI PUSH3 0x128 PUSH3 0x87 JUMP JUMPDEST JUMPDEST PUSH3 0x134 DUP3 PUSH3 0x76 JUMP JUMPDEST SWAP1 POP PUSH1 0x20 DUP2 ADD SWAP1 POP SWAP2 SWAP1 POP JUMP JUMPDEST PUSH1 0x0 JUMPDEST DUP4 DUP2 LT ISZERO PUSH3 0x161 JUMPI DUP1 DUP3 ADD MLOAD DUP2 DUP5 ADD MSTORE PUSH1 0x20 DUP2 ADD SWAP1 POP PUSH3 0x144 JUMP JUMPDEST PUSH1 0x0 DUP5 DUP5 ADD MSTORE POP POP POP POP JUMP JUMPDEST PUSH1 0x0 PUSH3 0x184 PUSH3 0x17E DUP5 PUSH3 0x10B JUMP JUMPDEST PUSH3 0xEC JUMP JUMPDEST SWAP1 POP DUP3 DUP2 MSTORE PUSH1 0x20 DUP2 ADD DUP5 DUP5 DUP5 ADD GT ISZERO PUSH3 0x1A3 JUMPI PUSH3 0x1A2 PUSH3 0x71 JUMP JUMPDEST JUMPDEST PUSH3 0x1B0 DUP5 DUP3 DUP6 PUSH3 0x141 JUMP JUMPDEST POP SWAP4 SWAP3 POP POP POP JUMP JUMPDEST PUSH1 0x0 DUP3 PUSH1 0x1F DUP4 ADD SLT PUSH3 0x1D0 JUMPI PUSH3 0x1CF PUSH3 0x6C JUMP JUMPDEST JUMPDEST DUP2 MLOAD PUSH3 0x1E2 DUP5 DUP3 PUSH1 0x20 DUP7 ADD PUSH3 0x16D JUMP JUMPDEST SWAP2 POP POP SWAP3 SWAP2 POP POP JUMP JUMPDEST PUSH1 0x0 DUP2 SWAP1 POP SWAP2 SWAP1 POP JUMP JUMPDEST PUSH3 0x200 DUP2 PUSH3 0x1EB JUMP JUMPDEST DUP2 EQ PUSH3 0x20C JUMPI PUSH1 0x0 DUP1 REVERT JUMPDEST POP JUMP JUMPDEST PUSH1 0x0 DUP2 MLOAD SWAP1 POP PUSH3 0x220 DUP2 PUSH3 0x1F5 JUMP JUMPDEST SWAP3 SWAP2 POP POP JUMP JUMPDEST PUSH1 0x0 DUP1 PUSH1 0x40 DUP4 DUP6 SUB SLT ISZERO PUSH3 0x240 JUMPI PUSH3 0x23F PUSH3 0x62 JUMP JUMPDEST JUMPDEST PUSH1 0x0 DUP4 ADD MLOAD PUSH8 0xFFFFFFFFFFFFFFFF DUP2 GT ISZERO PUSH3 0x261 JUMPI PUSH3 0x260 PUSH3 0x67 JUMP JUMPDEST JUMPDEST PUSH3 0x26F DUP6 DUP3 DUP7 ADD PUSH3 0x1B8 JUMP JUMPDEST SWAP3 POP POP PUSH1 0x20 PUSH3 0x282 DUP6 DUP3 DUP7 ADD PUSH3 0x20F JUMP JUMPDEST SWAP2 POP POP SWAP3 POP SWAP3 SWAP1 POP JUMP JUMPDEST PUSH1 0x0 DUP2 MLOAD SWAP1 POP SWAP2 SWAP1 POP JUMP JUMPDEST PUSH32 0x4E487B7100000000000000000000000000000000000000000000000000000000 PUSH1 0x0 MSTORE PUSH1 0x22 PUSH1 0x4 MSTORE PUSH1 0x24 PUSH1 0x0 REVERT JUMPDEST PUSH1 0x0 PUSH1 0x2 DUP3 DIV SWAP1 POP PUSH1 0x1 DUP3 AND DUP1 PUSH3 0x2DF JUMPI PUSH1 0x7F DUP3 AND SWAP2 POP JUMPDEST PUSH1 0x20 DUP3 LT DUP2 SUB PUSH3 0x2F5 JUMPI PUSH3 0x2F4 PUSH3 0x297 JUMP JUMPDEST JUMPDEST POP SWAP2 SWAP1 POP JUMP JUMPDEST PUSH1 0x0 DUP2 SWAP1 POP DUP2 PUSH1 0x0 MSTORE PUSH1 0x20 PUSH1 0x0 KECCAK256 SWAP1 POP SWAP2 SWAP1 POP JUMP JUMPDEST PUSH1 0x0 PUSH1 0x20 PUSH1 0x1F DUP4 ADD DIV SWAP1 POP SWAP2 SWAP1 POP JUMP JUMPDEST PUSH1 0x0 DUP3 DUP3 SHL SWAP1 POP SWAP3 SWAP2 POP POP JUMP JUMPDEST PUSH1 0x0 PUSH1 0x8 DUP4 MUL PUSH3 0x35F PUSH32 0xFFFFFFFFFFFFFFFFFFFFFFFFFFFFFFFFFFFFFFFFFFFFFFFFFFFFFFFFFFFFFFFF DUP3 PUSH3 0x320 JUMP JUMPDEST PUSH3 0x36B DUP7 DUP4 PUSH3 0x320 JUMP JUMPDEST SWAP6 POP DUP1 NOT DUP5 AND SWAP4 POP DUP1 DUP7 AND DUP5 OR SWAP3 POP POP POP SWAP4 SWAP3 POP POP POP JUMP JUMPDEST PUSH1 0x0 DUP2 SWAP1 POP SWAP2 SWAP1 POP JUMP JUMPDEST PUSH1 0x0 PUSH3 0x3AE PUSH3 0x3A8 PUSH3 0x3A2 DUP5 PUSH3 0x1EB JUMP JUMPDEST PUSH3 0x383 JUMP JUMPDEST PUSH3 0x1EB JUMP JUMPDEST SWAP1 POP SWAP2 SWAP1 POP JUMP JUMPDEST PUSH1 0x0 DUP2 SWAP1 POP SWAP2 SWAP1 POP JUMP JUMPDEST PUSH3 0x3CA DUP4 PUSH3 0x38D JUMP JUMPDEST PUSH3 0x3E2 PUSH3 0x3D9 DUP3 PUSH3 0x3B5 JUMP JUMPDEST DUP5 DUP5 SLOAD PUSH3 0x32D JUMP JUMPDEST DUP3 SSTORE POP POP POP POP JUMP JUMPDEST PUSH1 0x0 SWAP1 JUMP JUMPDEST PUSH3 0x3F9 PUSH3 0x3EA JUMP JUMPDEST PUSH3 0x406 DUP2 DUP5 DUP5 PUSH3 0x3BF JUMP JUMPDEST POP POP POP JUMP JUMPDEST JUMPDEST DUP2 DUP2 LT ISZERO PUSH3 0x42E JUMPI PUSH3 0x422 PUSH1 0x0 DUP3 PUSH3 0x3EF JUMP JUMPDEST PUSH1 0x1 DUP2 ADD SWAP1 POP PUSH3 0x40C JUMP JUMPDEST POP POP JUMP JUMPDEST PUSH1 0x1F DUP3 GT ISZERO PUSH3 0x47D JUMPI PUSH3 0x447 DUP2 PUSH3 0x2FB JUMP JUMPDEST PUSH3 0x452 DUP5 PUSH3 0x310 JUMP JUMPDEST DUP2 ADD PUSH1 0x20 DUP6 LT ISZERO PUSH3 0x462 JUMPI DUP2 SWAP1 POP JUMPDEST PUSH3 0x47A PUSH3 0x471 DUP6 PUSH3 0x310 JUMP JUMPDEST DUP4 ADD DUP3 PUSH3 0x40B JUMP JUMPDEST POP POP JUMPDEST POP POP POP JUMP JUMPDEST PUSH1 0x0 DUP3 DUP3 SHR SWAP1 POP SWAP3 SWAP2 POP POP JUMP JUMPDEST PUSH1 0x0 PUSH3 0x4A2 PUSH1 0x0 NOT DUP5 PUSH1 0x8 MUL PUSH3 0x482 JUMP JUMPDEST NOT DUP1 DUP4 AND SWAP2 POP POP SWAP3 SWAP2 POP POP JUMP JUMPDEST PUSH1 0x0 PUSH3 0x4BD DUP4 DUP4 PUSH3 0x48F JUMP JUMPDEST SWAP2 POP DUP3 PUSH1 0x2 MUL DUP3 OR SWAP1 POP SWAP3 SWAP2 POP POP JUMP JUMPDEST PUSH3 0x4D8 DUP3 PUSH3 0x28C JUMP JUMPDEST PUSH8 0xFFFFFFFFFFFFFFFF DUP2 GT ISZERO PUSH3 0x4F4 JUMPI PUSH3 0x4F3 PUSH3 0x87 JUMP JUMPDEST JUMPDEST PUSH3 0x500 DUP3 SLOAD PUSH3 0x2C6 JUMP JUMPDEST PUSH3 0x50D DUP3 DUP3 DUP6 PUSH3 0x432 JUMP JUMPDEST PUSH1 0x0 PUSH1 0x20 SWAP1 POP PUSH1 0x1F DUP4 GT PUSH1 0x1 DUP2 EQ PUSH3 0x545 JUMPI PUSH1 0x0 DUP5 ISZERO PUSH3 0x530 JUMPI DUP3 DUP8 ADD MLOAD SWAP1 POP JUMPDEST PUSH3 0x53C DUP6 DUP3 PUSH3 0x4AF JUMP JUMPDEST DUP7 SSTORE POP PUSH3 0x5AC JUMP JUMPDEST PUSH1 0x1F NOT DUP5 AND PUSH3 0x555 DUP7 PUSH3 0x2FB JUMP JUMPDEST PUSH1 0x0 JUMPDEST DUP3 DUP2 LT ISZERO PUSH3 0x57F JUMPI DUP5 DUP10 ADD MLOAD DUP3 SSTORE PUSH1 0x1 DUP3 ADD SWAP2 POP PUSH1 0x20 DUP6 ADD SWAP5 POP PUSH1 0x20 DUP2 ADD SWAP1 POP PUSH3 0x558 JUMP JUMPDEST DUP7 DUP4 LT ISZERO PUSH3 0x59F JUMPI DUP5 DUP10 ADD MLOAD PUSH3 0x59B PUSH1 0x1F DUP10 AND DUP3 PUSH3 0x48F JUMP JUMPDEST DUP4 SSTORE POP JUMPDEST PUSH1 0x1 PUSH1 0x2 DUP9 MUL ADD DUP9 SSTORE POP POP POP JUMPDEST POP POP POP POP POP POP JUMP JUMPDEST PUSH2 0x287 DUP1 PUSH3 0x5C4 PUSH1 0x0 CODECOPY PUSH1 0x0 RETURN INVALID PUSH1 0x80 PUSH1 0x40 MSTORE CALLVALUE DUP1 ISZERO PUSH2 0x10 JUMPI PUSH1 0x0 DUP1 REVERT JUMPDEST POP PUSH1 0x4 CALLDATASIZE LT PUSH2 0x36 JUMPI PUSH1 0x0 CALLDATALOAD PUSH1 0xE0 SHR DUP1 PUSH4 0x6FDDE03 EQ PUSH2 0x3B JUMPI DUP1 PUSH4 0x262A9DFF EQ PUSH2 0x59 JUMPI JUMPDEST PUSH1 0x0 DUP1 REVERT JUMPDEST PUSH2 0x43 PUSH2 0x77 JUMP JUMPDEST PUSH1 0x40 MLOAD PUSH2 0x50 SWAP2 SWAP1 PUSH2 0x19B JUMP JUMPDEST PUSH1 0x40 MLOAD DUP1 SWAP2 SUB SWAP1 RETURN JUMPDEST PUSH2 0x61 PUSH2 0x105 JUMP JUMPDEST PUSH1 0x40 MLOAD PUSH2 0x6E SWAP2 SWAP1 PUSH2 0x1D6 JUMP JUMPDEST PUSH1 0x40 MLOAD DUP1 SWAP2 SUB SWAP1 RETURN JUMPDEST PUSH1 0x0 DUP1 SLOAD PUSH2 0x84 SWAP1 PUSH2 0x220 JUMP JUMPDEST DUP1 PUSH1 0x1F ADD PUSH1 0x20 DUP1 SWAP2 DIV MUL PUSH1 0x20 ADD PUSH1 0x40 MLOAD SWAP1 DUP2 ADD PUSH1 0x40 MSTORE DUP1 SWAP3 SWAP2 SWAP1 DUP2 DUP2 MSTORE PUSH1 0x20 ADD DUP3 DUP1 SLOAD PUSH2 0xB0 SWAP1 PUSH2 0x220 JUMP JUMPDEST DUP1 ISZERO PUSH2 0xFD JUMPI DUP1 PUSH1 0x1F LT PUSH2 0xD2 JUMPI PUSH2 0x100 DUP1 DUP4 SLOAD DIV MUL DUP4 MSTORE SWAP2 PUSH1 0x20 ADD SWAP2 PUSH2 0xFD JUMP JUMPDEST DUP3 ADD SWAP2 SWAP1 PUSH1 0x0 MSTORE PUSH1 0x20 PUSH1 0x0 KECCAK256 SWAP1 JUMPDEST DUP2 SLOAD DUP2 MSTORE SWAP1 PUSH1 0x1 ADD SWAP1 PUSH1 0x20 ADD DUP1 DUP4 GT PUSH2 0xE0 JUMPI DUP3 SWAP1 SUB PUSH1 0x1F AND DUP3 ADD SWAP2 JUMPDEST POP POP POP POP POP DUP2 JUMP JUMPDEST PUSH1 0x1 SLOAD DUP2 JUMP JUMPDEST PUSH1 0x0 DUP2 MLOAD SWAP1 POP SWAP2 SWAP1 POP JUMP JUMPDEST PUSH1 0x0 DUP3 DUP3 MSTORE PUSH1 0x20 DUP3 ADD SWAP1 POP SWAP3 SWAP2 POP POP JUMP JUMPDEST PUSH1 0x0 JUMPDEST DUP4 DUP2 LT ISZERO PUSH2 0x145 JUMPI DUP1 DUP3 ADD MLOAD DUP2 DUP5 ADD MSTORE PUSH1 0x20 DUP2 ADD SWAP1 POP PUSH2 0x12A JUMP JUMPDEST PUSH1 0x0 DUP5 DUP5 ADD MSTORE POP POP POP POP JUMP JUMPDEST PUSH1 0x0 PUSH1 0x1F NOT PUSH1 0x1F DUP4 ADD AND SWAP1 POP SWAP2 SWAP1 POP JUMP JUMPDEST PUSH1 0x0 PUSH2 0x16D DUP3 PUSH2 0x10B JUMP JUMPDEST PUSH2 0x177 DUP2 DUP6 PUSH2 0x116 JUMP JUMPDEST SWAP4 POP PUSH2 0x187 DUP2 DUP6 PUSH1 0x20 DUP7 ADD PUSH2 0x127 JUMP JUMPDEST PUSH2 0x190 DUP2 PUSH2 0x151 JUMP JUMPDEST DUP5 ADD SWAP2 POP POP SWAP3 SWAP2 POP POP JUMP JUMPDEST PUSH1 0x0 PUSH1 0x20 DUP3 ADD SWAP1 POP DUP2 DUP2 SUB PUSH1 0x0 DUP4 ADD MSTORE PUSH2 0x1B5 DUP2 DUP5 PUSH2 0x162 JUMP JUMPDEST SWAP1 POP SWAP3 SWAP2 POP POP JUMP JUMPDEST PUSH1 0x0 DUP2 SWAP1 POP SWAP2 SWAP1 POP JUMP JUMPDEST PUSH2 0x1D0 DUP2 PUSH2 0x1BD JUMP JUMPDEST DUP3 MSTORE POP POP JUMP JUMPDEST PUSH1 0x0 PUSH1 0x20 DUP3 ADD SWAP1 POP PUSH2 0x1EB PUSH1 0x0 DUP4 ADD DUP5 PUSH2 0x1C7 JUMP JUMPDEST SWAP3 SWAP2 POP POP JUMP JUMPDEST PUSH32 0x4E487B7100000000000000000000000000000000000000000000000000000000 PUSH1 0x0 MSTORE PUSH1 0x22 PUSH1 0x4 MSTORE PUSH1 0x24 PUSH1 0x0 REVERT JUMPDEST PUSH1 0x0 PUSH1 0x2 DUP3 DIV SWAP1 POP PUSH1 0x1 DUP3 AND DUP1 PUSH2 0x238 JUMPI PUSH1 0x7F DUP3 AND SWAP2 POP JUMPDEST PUSH1 0x20 DUP3 LT DUP2 SUB PUSH2 0x24B JUMPI PUSH2 0x24A PUSH2 0x1F1 JUMP JUMPDEST JUMPDEST POP SWAP2 SWAP1 POP JUMP INVALID LOG2 PUSH5 0x6970667358 0x22 SLT KECCAK256 0xBA CODESIZE 0x21 0x5E 0xD9 DUP9 0x29 DUP5 0xC5 PUSH14 0x21ED86FC24636DD41ADFD00C2BDD CREATE2 0xC 0x28 0xE5 PUSH22 0x9F7C2264736F6C634300081500330000000000000000 "
				},
				"gasEstimates": {
					"creation": {
						"codeDepositCost": "176000",
						"executionCost": "infinite",
						"totalCost": "infinite"
					},
					"external": {
						"age()": "2429",
						"daughter()": "infinite",
						"name()": "infinite"
					}
				},
				"methodIdentifiers": {
					"age()": "262a9dff",
					"daughter()": "fcf5ed06",
					"name()": "06fdde03"
				}
			},
			"storageLayout": {
				"storage": [
					{
						"astId": 24,
						"contract": "contractGenerator.sol:MomContract",
						"label": "name",
						"offset": 0,
						"slot": "0",
						"type": "t_string_storage"
					},
					{
						"astId": 26,
						"contract": "contractGenerator.sol:MomContract",
						"label": "age",
						"offset": 0,
						"slot": "1",
						"type": "t_uint256"
					},
					{
						"astId": 29,
						"contract": "contractGenerator.sol:MomContract",
						"label": "daughter",
						"offset": 0,
						"slot": "2",
						"type": "t_contract(DaughterContract)22"
					}
				],
				"types": {
					"t_contract(DaughterContract)22": {
						"encoding": "inplace",
						"label": "contract DaughterContract",
						"numberOfBytes": "20"
					},
					"t_string_storage": {
						"encoding": "bytes",
						"label": "string",
						"numberOfBytes": "32"
					},
					"t_uint256": {
						"encoding": "inplace",
						"label": "uint256",
						"numberOfBytes": "32"
					}
				}
			},
			"userdoc": {
				"kind": "user",
				"methods": {},
				"version": 1
			}
		}
	}
}