{
	"data": {
		"bytecode": {
			"linkReferences": {},
			"object": "60a060405260006013556040518061012001604052806101f461ffff16815260200160c861ffff168152602001606461ffff168152602001603261ffff168152602001601461ffff168152602001600a61ffff168152602001600561ffff168152602001600261ffff168152602001600161ffff16815250601990600962000089929190620000d2565b503480156200009757600080fd5b503373ffffffffffffffffffffffffffffffffffffffff1660808173ffffffffffffffffffffffffffffffffffffffff168152505062000149565b82805482825590600052602060002090810192821562000117579160200282015b8281111562000116578251829061ffff16905591602001919060010190620000f3565b5b5090506200012691906200012a565b5090565b5b80821115620001455760008160009055506001016200012b565b5090565b6080516120176200016c600039600081816105010152610c9e01526120176000f3fe608060405234801561001057600080fd5b506004361061014d5760003560e01c8063b150019a116100c3578063e84530fb1161007c578063e84530fb14610395578063eb4f81f3146103b3578063f0483d73146103e3578063f509159814610401578063fa137b2a1461041d578063fc07dbb81461043b5761014d565b8063b150019a146102cf578063cca79636146102ed578063d26813d31461030b578063d68cfc1414610329578063dd188dc314610347578063e0d6d530146103775761014d565b8063588a2c0911610115578063588a2c0914610208578063600fa18e146102265780636affb7291461025757806370cd47df146102755780639a5b9d6214610293578063a805588e146102b15761014d565b806326541b4a146101525780633ef0116d1461018257806343d6a6a2146101a05780634838d165146101d05780634ca9deb9146101ec575b600080fd5b61016c6004803603810190610167919061199e565b610459565b60405161017991906119e6565b60405180910390f35b61018a610479565b6040516101979190611a10565b60405180910390f35b6101ba60048036038101906101b5919061199e565b61049f565b6040516101c79190611a44565b60405180910390f35b6101ea60048036038101906101e5919061199e565b6104e8565b005b61020660048036038101906102019190611a8b565b6105d1565b005b610210610b40565b60405161021d9190611a10565b60405180910390f35b610240600480360381019061023b9190611acb565b610b66565b60405161024e929190611b0b565b60405180910390f35b61025f610b9b565b60405161026c9190611a10565b60405180910390f35b61027d610bc1565b60405161028a9190611a10565b60405180910390f35b61029b610be7565b6040516102a89190611a10565b60405180910390f35b6102b9610c0d565b6040516102c69190611a44565b60405180910390f35b6102d7610c13565b6040516102e49190611a10565b60405180910390f35b6102f5610c39565b6040516103029190611a10565b60405180910390f35b610313610c5f565b6040516103209190611a44565b60405180910390f35b610331610c65565b60405161033e9190611a44565b60405180910390f35b610361600480360381019061035c919061199e565b610c6b565b60405161036e9190611a44565b60405180910390f35b61037f610c83565b60405161038c91906119e6565b60405180910390f35b61039d61103c565b6040516103aa9190611a44565b60405180910390f35b6103cd60048036038101906103c89190611b34565b611042565b6040516103da9190611a10565b60405180910390f35b6103eb611078565b6040516103f89190611a10565b60405180910390f35b61041b60048036038101906104169190611b34565b61109e565b005b61042561132e565b6040516104329190611a10565b60405180910390f35b610443611354565b6040516104509190611a10565b60405180910390f35b60186020528060005260406000206000915054906101000a900460ff1681565b600260009054906101000a900473ffffffffffffffffffffffffffffffffffffffff1681565b6000601760008373ffffffffffffffffffffffffffffffffffffffff1673ffffffffffffffffffffffffffffffffffffffff168152602001908152602001600020549050919050565b3373ffffffffffffffffffffffffffffffffffffffff167f000000000000000000000000000000000000000000000000000000000000000073ffffffffffffffffffffffffffffffffffffffff1614610576576040517f08c379a000000000000000000000000000000000000000000000000000000000815260040161056d90611bbe565b60405180910390fd5b6001601860008373ffffffffffffffffffffffffffffffffffffffff1673ffffffffffffffffffffffffffffffffffffffff16815260200190815260200160002060006101000a81548160ff02191690831515021790555050565b8060001515601860008373ffffffffffffffffffffffffffffffffffffffff1673ffffffffffffffffffffffffffffffffffffffff16815260200190815260200160002060009054906101000a900460ff16151514610665576040517f08c379a000000000000000000000000000000000000000000000000000000000815260040161065c90611c50565b60405180910390fd5b82601760003373ffffffffffffffffffffffffffffffffffffffff1673ffffffffffffffffffffffffffffffffffffffff1681526020019081526020016000205410156106e7576040517f08c379a00000000000000000000000000000000000000000000000000000000081526004016106de90611cbc565b60405180910390fd5b60006106f233611378565b90506106fc61187e565b61070461187e565b85601760003373ffffffffffffffffffffffffffffffffffffffff1673ffffffffffffffffffffffffffffffffffffffff16815260200190815260200160002060008282546107539190611d0b565b9250508190555085601760008773ffffffffffffffffffffffffffffffffffffffff1673ffffffffffffffffffffffffffffffffffffffff16815260200190815260200160002060008282546107a99190611d3f565b925050819055506000670de0b6b3a7640000876107c69190611da2565b9050600080600080600090505b600981101561083f57600061080686601984815481106107f6576107f5611dd3565b5b9060005260206000200154610b66565b80975081925050508088836009811061082257610821611dd3565b5b60200201818152505050808061083790611e02565b9150506107d3565b506000805b6009811015610b26578781600981106108605761085f611dd3565b5b602002015189826009811061087857610877611dd3565b5b60200201511061094c5787816009811061089557610894611dd3565b5b6020020151601982815481106108ae576108ad611dd3565b5b90600052602060002001546108c39190611e4a565b826108ce9190611d3f565b91508781600981106108e3576108e2611dd3565b5b60200201518782600981106108fb576108fa611dd3565b5b60200201818152505087816009811061091757610916611dd3565b5b602002015189826009811061092f5761092e611dd3565b5b602002018181516109409190611d0b565b91508181525050610b13565b600082670de0b6b3a76400008e6109639190611da2565b61096d9190611d0b565b9050600060018361097e9190611d0b565b90505b60008110610b0c576019818154811061099d5761099c611dd3565b5b9060005260206000200154821080156109cd575060008b82600981106109c6576109c5611dd3565b5b6020020151115b15610af95781601982815481106109e7576109e6611dd3565b5b90600052602060002001546109fc9190611d0b565b96508660198281548110610a1357610a12611dd3565b5b9060005260206000200154610a289190611d0b565b955060198181548110610a3e57610a3d611dd3565b5b906000526020600020015494506000600a8260098110610a6157610a60611dd3565b5b0160009054906101000a900473ffffffffffffffffffffffffffffffffffffffff1690508073ffffffffffffffffffffffffffffffffffffffff166383c587df3360006040518363ffffffff1660e01b8152600401610ac1929190611e8c565b600060405180830381600087803b158015610adb57600080fd5b505af1158015610aef573d6000803e3d6000fd5b5050505050610b0c565b8080610b0490611eb5565b915050610981565b5050610b26565b8080610b1e90611e02565b915050610844565b50610b33868b8686611484565b5050505050505050505050565b600560009054906101000a900473ffffffffffffffffffffffffffffffffffffffff1681565b60008060008385610b779190611da2565b90508385610b859190611ede565b6016819055508060165492509250509250929050565b600460009054906101000a900473ffffffffffffffffffffffffffffffffffffffff1681565b600160009054906101000a900473ffffffffffffffffffffffffffffffffffffffff1681565b600860009054906101000a900473ffffffffffffffffffffffffffffffffffffffff1681565b60135481565b600360009054906101000a900473ffffffffffffffffffffffffffffffffffffffff1681565b600960009054906101000a900473ffffffffffffffffffffffffffffffffffffffff1681565b60145481565b60165481565b60176020528060005260406000206000915090505481565b60003373ffffffffffffffffffffffffffffffffffffffff167f000000000000000000000000000000000000000000000000000000000000000073ffffffffffffffffffffffffffffffffffffffff1614610d13576040517f08c379a0000000000000000000000000000000000000000000000000000000008152600401610d0a90611bbe565b60405180910390fd5b60007327f2db78389654b645d3015cce02d0ef571b2b89905060007315c15bb162d31cd58890df3b4a38b59bd64d999c905060007349309576194e07a8d38078346783125aa2c38b389050600073d9df6acac6e676293f8c592de2b5b6b9db962ed99050600073490e7110ffdfbda02fb9144cb20d03303df2f8259050600073fc71d3049cdc12dcb30292d2cb9c7d154a8f69409050600073acc26dd287683db3a4350d352f10105bb652e1dc9050600073d1e69de132d8a0b3a5ab60cb196e365442f777b9905060007398f0b2f27b5e4304b42d9b77f0e594fc001f19bd9050600073c348a698ffa8600b58d6f52c6b112b4a7823e8fc905080600960006101000a81548173ffffffffffffffffffffffffffffffffffffffff021916908373ffffffffffffffffffffffffffffffffffffffff1602179055506040518061012001604052808373ffffffffffffffffffffffffffffffffffffffff1673ffffffffffffffffffffffffffffffffffffffff1681526020018473ffffffffffffffffffffffffffffffffffffffff1673ffffffffffffffffffffffffffffffffffffffff1681526020018573ffffffffffffffffffffffffffffffffffffffff1673ffffffffffffffffffffffffffffffffffffffff1681526020018673ffffffffffffffffffffffffffffffffffffffff1673ffffffffffffffffffffffffffffffffffffffff1681526020018773ffffffffffffffffffffffffffffffffffffffff1673ffffffffffffffffffffffffffffffffffffffff1681526020018873ffffffffffffffffffffffffffffffffffffffff1673ffffffffffffffffffffffffffffffffffffffff1681526020018973ffffffffffffffffffffffffffffffffffffffff1673ffffffffffffffffffffffffffffffffffffffff1681526020018a73ffffffffffffffffffffffffffffffffffffffff1673ffffffffffffffffffffffffffffffffffffffff1681526020018b73ffffffffffffffffffffffffffffffffffffffff1673ffffffffffffffffffffffffffffffffffffffff16815250600a90600961102a9291906118a1565b5060019a505050505050505050505090565b60155481565b600a816009811061105257600080fd5b016000915054906101000a900473ffffffffffffffffffffffffffffffffffffffff1681565b600660009054906101000a900473ffffffffffffffffffffffffffffffffffffffff1681565b6110a661187e565b6000600960009054906101000a900473ffffffffffffffffffffffffffffffffffffffff1690508073ffffffffffffffffffffffffffffffffffffffff166323b872dd3330866040518463ffffffff1660e01b815260040161110a93929190611f0f565b6020604051808303816000875af1158015611129573d6000803e3d6000fd5b505050506040513d601f19601f8201168201806040525081019061114d9190611f72565b506000670de0b6b3a7640000846111649190611da2565b905060005b60098110156111d557600061119c836019848154811061118c5761118b611dd3565b5b9060005260206000200154610b66565b8094508192505050808583600981106111b8576111b7611dd3565b5b6020020181815250505080806111cd90611e02565b915050611169565b5060005b60098110156112d15760005b8482600981106111f8576111f7611dd3565b5b60200201518110156112bd576000600a836009811061121a57611219611dd3565b5b0160009054906101000a900473ffffffffffffffffffffffffffffffffffffffff1690508073ffffffffffffffffffffffffffffffffffffffff166340d097c3336040518263ffffffff1660e01b81526004016112779190611a10565b600060405180830381600087803b15801561129157600080fd5b505af11580156112a5573d6000803e3d6000fd5b505050505080806112b590611e02565b9150506111e5565b5080806112c990611e02565b9150506111d9565b84601760003373ffffffffffffffffffffffffffffffffffffffff1673ffffffffffffffffffffffffffffffffffffffff16815260200190815260200160002060008282546113209190611d3f565b925050819055505050505050565b600760009054906101000a900473ffffffffffffffffffffffffffffffffffffffff1681565b60008054906101000a900473ffffffffffffffffffffffffffffffffffffffff1681565b61138061187e565b61138861187e565b60005b600981101561147a576000600a82600981106113aa576113a9611dd3565b5b0160009054906101000a900473ffffffffffffffffffffffffffffffffffffffff1690508073ffffffffffffffffffffffffffffffffffffffff166383e38d3b866040518263ffffffff1660e01b81526004016114079190611a10565b6020604051808303816000875af1158015611426573d6000803e3d6000fd5b505050506040513d601f19601f8201168201806040525081019061144a9190611fb4565b83836009811061145d5761145c611dd3565b5b60200201818152505050808061147290611e02565b91505061138b565b5080915050919050565b60005b60098110156115815760005b8582600981106114a6576114a5611dd3565b5b602002015181101561156d576000600a83600981106114c8576114c7611dd3565b5b0160009054906101000a900473ffffffffffffffffffffffffffffffffffffffff1690508073ffffffffffffffffffffffffffffffffffffffff166383c587df33886040518363ffffffff1660e01b8152600401611527929190611e8c565b600060405180830381600087803b15801561154157600080fd5b505af1158015611555573d6000803e3d6000fd5b5050505050808061156590611e02565b915050611493565b50808061157990611e02565b915050611487565b506000829050600082905061159461187e565b61159c61187e565b60005b600981101561160b5760006115d286601984815481106115c2576115c1611dd3565b5b9060005260206000200154610b66565b8097508192505050808483600981106115ee576115ed611dd3565b5b60200201818152505050808061160390611e02565b91505061159f565b5060005b60098110156117075760005b83826009811061162e5761162d611dd3565b5b60200201518110156116f3576000600a83600981106116505761164f611dd3565b5b0160009054906101000a900473ffffffffffffffffffffffffffffffffffffffff1690508073ffffffffffffffffffffffffffffffffffffffff166340d097c3336040518263ffffffff1660e01b81526004016116ad9190611a10565b600060405180830381600087803b1580156116c757600080fd5b505af11580156116db573d6000803e3d6000fd5b505050505080806116eb90611e02565b91505061161b565b5080806116ff90611e02565b91505061160f565b5060005b600981101561177757600061173e856019848154811061172e5761172d611dd3565b5b9060005260206000200154610b66565b80965081925050508083836009811061175a57611759611dd3565b5b60200201818152505050808061176f90611e02565b91505061170b565b5060005b60098110156118735760005b82826009811061179a57611799611dd3565b5b602002015181101561185f576000600a83600981106117bc576117bb611dd3565b5b0160009054906101000a900473ffffffffffffffffffffffffffffffffffffffff1690508073ffffffffffffffffffffffffffffffffffffffff166340d097c38b6040518263ffffffff1660e01b81526004016118199190611a10565b600060405180830381600087803b15801561183357600080fd5b505af1158015611847573d6000803e3d6000fd5b5050505050808061185790611e02565b915050611787565b50808061186b90611e02565b91505061177b565b505050505050505050565b604051806101200160405280600990602082028036833780820191505090505090565b826009810192821561190d579160200282015b8281111561190c5782518260006101000a81548173ffffffffffffffffffffffffffffffffffffffff021916908373ffffffffffffffffffffffffffffffffffffffff160217905550916020019190600101906118b4565b5b50905061191a919061191e565b5090565b5b8082111561193757600081600090555060010161191f565b5090565b600080fd5b600073ffffffffffffffffffffffffffffffffffffffff82169050919050565b600061196b82611940565b9050919050565b61197b81611960565b811461198657600080fd5b50565b60008135905061199881611972565b92915050565b6000602082840312156119b4576119b361193b565b5b60006119c284828501611989565b91505092915050565b60008115159050919050565b6119e0816119cb565b82525050565b60006020820190506119fb60008301846119d7565b92915050565b611a0a81611960565b82525050565b6000602082019050611a256000830184611a01565b92915050565b6000819050919050565b611a3e81611a2b565b82525050565b6000602082019050611a596000830184611a35565b92915050565b611a6881611a2b565b8114611a7357600080fd5b50565b600081359050611a8581611a5f565b92915050565b60008060408385031215611aa257611aa161193b565b5b6000611ab085828601611a76565b9250506020611ac185828601611989565b9150509250929050565b60008060408385031215611ae257611ae161193b565b5b6000611af085828601611a76565b9250506020611b0185828601611a76565b9150509250929050565b6000604082019050611b206000830185611a35565b611b2d6020830184611a35565b9392505050565b600060208284031215611b4a57611b4961193b565b5b6000611b5884828501611a76565b91505092915050565b600082825260208201905092915050565b7f63616e206f6e6c792062652063616c6c6564206279206f776e65720000000000600082015250565b6000611ba8601b83611b61565b9150611bb382611b72565b602082019050919050565b60006020820190508181036000830152611bd781611b9b565b9050919050565b7f72656369657665722773206164647265737320697320626c61636b6c6973746560008201527f6400000000000000000000000000000000000000000000000000000000000000602082015250565b6000611c3a602183611b61565b9150611c4582611bde565b604082019050919050565b60006020820190508181036000830152611c6981611c2d565b9050919050565b7f66756e647320617265206c657373207468616e20726571756573746564000000600082015250565b6000611ca6601d83611b61565b9150611cb182611c70565b602082019050919050565b60006020820190508181036000830152611cd581611c99565b9050919050565b7f4e487b7100000000000000000000000000000000000000000000000000000000600052601160045260246000fd5b6000611d1682611a2b565b9150611d2183611a2b565b9250828203905081811115611d3957611d38611cdc565b5b92915050565b6000611d4a82611a2b565b9150611d5583611a2b565b9250828201905080821115611d6d57611d6c611cdc565b5b92915050565b7f4e487b7100000000000000000000000000000000000000000000000000000000600052601260045260246000fd5b6000611dad82611a2b565b9150611db883611a2b565b925082611dc857611dc7611d73565b5b828204905092915050565b7f4e487b7100000000000000000000000000000000000000000000000000000000600052603260045260246000fd5b6000611e0d82611a2b565b91507fffffffffffffffffffffffffffffffffffffffffffffffffffffffffffffffff8203611e3f57611e3e611cdc565b5b600182019050919050565b6000611e5582611a2b565b9150611e6083611a2b565b9250828202611e6e81611a2b565b91508282048414831517611e8557611e84611cdc565b5b5092915050565b6000604082019050611ea16000830185611a01565b611eae6020830184611a01565b9392505050565b6000611ec082611a2b565b915060008203611ed357611ed2611cdc565b5b600182039050919050565b6000611ee982611a2b565b9150611ef483611a2b565b925082611f0457611f03611d73565b5b828206905092915050565b6000606082019050611f246000830186611a01565b611f316020830185611a01565b611f3e6040830184611a35565b949350505050565b611f4f816119cb565b8114611f5a57600080fd5b50565b600081519050611f6c81611f46565b92915050565b600060208284031215611f8857611f8761193b565b5b6000611f9684828501611f5d565b91505092915050565b600081519050611fae81611a5f565b92915050565b600060208284031215611fca57611fc961193b565b5b6000611fd884828501611f9f565b9150509291505056fea2646970667358221220a762f54bddc74b2c3ae047228516ef8b1e31e1ae27073972c29f2e9156efe51a64736f6c63430008150033",
			"opcodes": "PUSH1 0xA0 PUSH1 0x40 MSTORE PUSH1 0x0 PUSH1 0x13 SSTORE PUSH1 0x40 MLOAD DUP1 PUSH2 0x120 ADD PUSH1 0x40 MSTORE DUP1 PUSH2 0x1F4 PUSH2 0xFFFF AND DUP2 MSTORE PUSH1 0x20 ADD PUSH1 0xC8 PUSH2 0xFFFF AND DUP2 MSTORE PUSH1 0x20 ADD PUSH1 0x64 PUSH2 0xFFFF AND DUP2 MSTORE PUSH1 0x20 ADD PUSH1 0x32 PUSH2 0xFFFF AND DUP2 MSTORE PUSH1 0x20 ADD PUSH1 0x14 PUSH2 0xFFFF AND DUP2 MSTORE PUSH1 0x20 ADD PUSH1 0xA PUSH2 0xFFFF AND DUP2 MSTORE PUSH1 0x20 ADD PUSH1 0x5 PUSH2 0xFFFF AND DUP2 MSTORE PUSH1 0x20 ADD PUSH1 0x2 PUSH2 0xFFFF AND DUP2 MSTORE PUSH1 0x20 ADD PUSH1 0x1 PUSH2 0xFFFF AND DUP2 MSTORE POP PUSH1 0x19 SWAP1 PUSH1 0x9 PUSH3 0x89 SWAP3 SWAP2 SWAP1 PUSH3 0xD2 JUMP JUMPDEST POP CALLVALUE DUP1 ISZERO PUSH3 0x97 JUMPI PUSH1 0x0 DUP1 REVERT JUMPDEST POP CALLER PUSH20 0xFFFFFFFFFFFFFFFFFFFFFFFFFFFFFFFFFFFFFFFF AND PUSH1 0x80 DUP2 PUSH20 0xFFFFFFFFFFFFFFFFFFFFFFFFFFFFFFFFFFFFFFFF AND DUP2 MSTORE POP POP PUSH3 0x149 JUMP JUMPDEST DUP3 DUP1 SLOAD DUP3 DUP3 SSTORE SWAP1 PUSH1 0x0 MSTORE PUSH1 0x20 PUSH1 0x0 KECCAK256 SWAP1 DUP2 ADD SWAP3 DUP3 ISZERO PUSH3 0x117 JUMPI SWAP2 PUSH1 0x20 MUL DUP3 ADD JUMPDEST DUP3 DUP2 GT ISZERO PUSH3 0x116 JUMPI DUP3 MLOAD DUP3 SWAP1 PUSH2 0xFFFF AND SWAP1 SSTORE SWAP2 PUSH1 0x20 ADD SWAP2 SWAP1 PUSH1 0x1 ADD SWAP1 PUSH3 0xF3 JUMP JUMPDEST JUMPDEST POP SWAP1 POP PUSH3 0x126 SWAP2 SWAP1 PUSH3 0x12A JUMP JUMPDEST POP SWAP1 JUMP JUMPDEST JUMPDEST DUP1 DUP3 GT ISZERO PUSH3 0x145 JUMPI PUSH1 0x0 DUP2 PUSH1 0x0 SWAP1 SSTORE POP PUSH1 0x1 ADD PUSH3 0x12B JUMP JUMPDEST POP SWAP1 JUMP JUMPDEST PUSH1 0x80 MLOAD PUSH2 0x2017 PUSH3 0x16C PUSH1 0x0 CODECOPY PUSH1 0x0 DUP2 DUP2 PUSH2 0x501 ADD MSTORE PUSH2 0xC9E ADD MSTORE PUSH2 0x2017 PUSH1 0x0 RETURN INVALID PUSH1 0x80 PUSH1 0x40 MSTORE CALLVALUE DUP1 ISZERO PUSH2 0x10 JUMPI PUSH1 0x0 DUP1 REVERT JUMPDEST POP PUSH1 0x4 CALLDATASIZE LT PUSH2 0x14D JUMPI PUSH1 0x0 CALLDATALOAD PUSH1 0xE0 SHR DUP1 PUSH4 0xB150019A GT PUSH2 0xC3 JUMPI DUP1 PUSH4 0xE84530FB GT PUSH2 0x7C JUMPI DUP1 PUSH4 0xE84530FB EQ PUSH2 0x395 JUMPI DUP1 PUSH4 0xEB4F81F3 EQ PUSH2 0x3B3 JUMPI DUP1 PUSH4 0xF0483D73 EQ PUSH2 0x3E3 JUMPI DUP1 PUSH4 0xF5091598 EQ PUSH2 0x401 JUMPI DUP1 PUSH4 0xFA137B2A EQ PUSH2 0x41D JUMPI DUP1 PUSH4 0xFC07DBB8 EQ PUSH2 0x43B JUMPI PUSH2 0x14D JUMP JUMPDEST DUP1 PUSH4 0xB150019A EQ PUSH2 0x2CF JUMPI DUP1 PUSH4 0xCCA79636 EQ PUSH2 0x2ED JUMPI DUP1 PUSH4 0xD26813D3 EQ PUSH2 0x30B JUMPI DUP1 PUSH4 0xD68CFC14 EQ PUSH2 0x329 JUMPI DUP1 PUSH4 0xDD188DC3 EQ PUSH2 0x347 JUMPI DUP1 PUSH4 0xE0D6D530 EQ PUSH2 0x377 JUMPI PUSH2 0x14D JUMP JUMPDEST DUP1 PUSH4 0x588A2C09 GT PUSH2 0x115 JUMPI DUP1 PUSH4 0x588A2C09 EQ PUSH2 0x208 JUMPI DUP1 PUSH4 0x600FA18E EQ PUSH2 0x226 JUMPI DUP1 PUSH4 0x6AFFB729 EQ PUSH2 0x257 JUMPI DUP1 PUSH4 0x70CD47DF EQ PUSH2 0x275 JUMPI DUP1 PUSH4 0x9A5B9D62 EQ PUSH2 0x293 JUMPI DUP1 PUSH4 0xA805588E EQ PUSH2 0x2B1 JUMPI PUSH2 0x14D JUMP JUMPDEST DUP1 PUSH4 0x26541B4A EQ PUSH2 0x152 JUMPI DUP1 PUSH4 0x3EF0116D EQ PUSH2 0x182 JUMPI DUP1 PUSH4 0x43D6A6A2 EQ PUSH2 0x1A0 JUMPI DUP1 PUSH4 0x4838D165 EQ PUSH2 0x1D0 JUMPI DUP1 PUSH4 0x4CA9DEB9 EQ PUSH2 0x1EC JUMPI JUMPDEST PUSH1 0x0 DUP1 REVERT JUMPDEST PUSH2 0x16C PUSH1 0x4 DUP1 CALLDATASIZE SUB DUP2 ADD SWAP1 PUSH2 0x167 SWAP2 SWAP1 PUSH2 0x199E JUMP JUMPDEST PUSH2 0x459 JUMP JUMPDEST PUSH1 0x40 MLOAD PUSH2 0x179 SWAP2 SWAP1 PUSH2 0x19E6 JUMP JUMPDEST PUSH1 0x40 MLOAD DUP1 SWAP2 SUB SWAP1 RETURN JUMPDEST PUSH2 0x18A PUSH2 0x479 JUMP JUMPDEST PUSH1 0x40 MLOAD PUSH2 0x197 SWAP2 SWAP1 PUSH2 0x1A10 JUMP JUMPDEST PUSH1 0x40 MLOAD DUP1 SWAP2 SUB SWAP1 RETURN JUMPDEST PUSH2 0x1BA PUSH1 0x4 DUP1 CALLDATASIZE SUB DUP2 ADD SWAP1 PUSH2 0x1B5 SWAP2 SWAP1 PUSH2 0x199E JUMP JUMPDEST PUSH2 0x49F JUMP JUMPDEST PUSH1 0x40 MLOAD PUSH2 0x1C7 SWAP2 SWAP1 PUSH2 0x1A44 JUMP JUMPDEST PUSH1 0x40 MLOAD DUP1 SWAP2 SUB SWAP1 RETURN JUMPDEST PUSH2 0x1EA PUSH1 0x4 DUP1 CALLDATASIZE SUB DUP2 ADD SWAP1 PUSH2 0x1E5 SWAP2 SWAP1 PUSH2 0x199E JUMP JUMPDEST PUSH2 0x4E8 JUMP JUMPDEST STOP JUMPDEST PUSH2 0x206 PUSH1 0x4 DUP1 CALLDATASIZE SUB DUP2 ADD SWAP1 PUSH2 0x201 SWAP2 SWAP1 PUSH2 0x1A8B JUMP JUMPDEST PUSH2 0x5D1 JUMP JUMPDEST STOP JUMPDEST PUSH2 0x210 PUSH2 0xB40 JUMP JUMPDEST PUSH1 0x40 MLOAD PUSH2 0x21D SWAP2 SWAP1 PUSH2 0x1A10 JUMP JUMPDEST PUSH1 0x40 MLOAD DUP1 SWAP2 SUB SWAP1 RETURN JUMPDEST PUSH2 0x240 PUSH1 0x4 DUP1 CALLDATASIZE SUB DUP2 ADD SWAP1 PUSH2 0x23B SWAP2 SWAP1 PUSH2 0x1ACB JUMP JUMPDEST PUSH2 0xB66 JUMP JUMPDEST PUSH1 0x40 MLOAD PUSH2 0x24E SWAP3 SWAP2 SWAP1 PUSH2 0x1B0B JUMP JUMPDEST PUSH1 0x40 MLOAD DUP1 SWAP2 SUB SWAP1 RETURN JUMPDEST PUSH2 0x25F PUSH2 0xB9B JUMP JUMPDEST PUSH1 0x40 MLOAD PUSH2 0x26C SWAP2 SWAP1 PUSH2 0x1A10 JUMP JUMPDEST PUSH1 0x40 MLOAD DUP1 SWAP2 SUB SWAP1 RETURN JUMPDEST PUSH2 0x27D PUSH2 0xBC1 JUMP JUMPDEST PUSH1 0x40 MLOAD PUSH2 0x28A SWAP2 SWAP1 PUSH2 0x1A10 JUMP JUMPDEST PUSH1 0x40 MLOAD DUP1 SWAP2 SUB SWAP1 RETURN JUMPDEST PUSH2 0x29B PUSH2 0xBE7 JUMP JUMPDEST PUSH1 0x40 MLOAD PUSH2 0x2A8 SWAP2 SWAP1 PUSH2 0x1A10 JUMP JUMPDEST PUSH1 0x40 MLOAD DUP1 SWAP2 SUB SWAP1 RETURN JUMPDEST PUSH2 0x2B9 PUSH2 0xC0D JUMP JUMPDEST PUSH1 0x40 MLOAD PUSH2 0x2C6 SWAP2 SWAP1 PUSH2 0x1A44 JUMP JUMPDEST PUSH1 0x40 MLOAD DUP1 SWAP2 SUB SWAP1 RETURN JUMPDEST PUSH2 0x2D7 PUSH2 0xC13 JUMP JUMPDEST PUSH1 0x40 MLOAD PUSH2 0x2E4 SWAP2 SWAP1 PUSH2 0x1A10 JUMP JUMPDEST PUSH1 0x40 MLOAD DUP1 SWAP2 SUB SWAP1 RETURN JUMPDEST PUSH2 0x2F5 PUSH2 0xC39 JUMP JUMPDEST PUSH1 0x40 MLOAD PUSH2 0x302 SWAP2 SWAP1 PUSH2 0x1A10 JUMP JUMPDEST PUSH1 0x40 MLOAD DUP1 SWAP2 SUB SWAP1 RETURN JUMPDEST PUSH2 0x313 PUSH2 0xC5F JUMP JUMPDEST PUSH1 0x40 MLOAD PUSH2 0x320 SWAP2 SWAP1 PUSH2 0x1A44 JUMP JUMPDEST PUSH1 0x40 MLOAD DUP1 SWAP2 SUB SWAP1 RETURN JUMPDEST PUSH2 0x331 PUSH2 0xC65 JUMP JUMPDEST PUSH1 0x40 MLOAD PUSH2 0x33E SWAP2 SWAP1 PUSH2 0x1A44 JUMP JUMPDEST PUSH1 0x40 MLOAD DUP1 SWAP2 SUB SWAP1 RETURN JUMPDEST PUSH2 0x361 PUSH1 0x4 DUP1 CALLDATASIZE SUB DUP2 ADD SWAP1 PUSH2 0x35C SWAP2 SWAP1 PUSH2 0x199E JUMP JUMPDEST PUSH2 0xC6B JUMP JUMPDEST PUSH1 0x40 MLOAD PUSH2 0x36E SWAP2 SWAP1 PUSH2 0x1A44 JUMP JUMPDEST PUSH1 0x40 MLOAD DUP1 SWAP2 SUB SWAP1 RETURN JUMPDEST PUSH2 0x37F PUSH2 0xC83 JUMP JUMPDEST PUSH1 0x40 MLOAD PUSH2 0x38C SWAP2 SWAP1 PUSH2 0x19E6 JUMP JUMPDEST PUSH1 0x40 MLOAD DUP1 SWAP2 SUB SWAP1 RETURN JUMPDEST PUSH2 0x39D PUSH2 0x103C JUMP JUMPDEST PUSH1 0x40 MLOAD PUSH2 0x3AA SWAP2 SWAP1 PUSH2 0x1A44 JUMP JUMPDEST PUSH1 0x40 MLOAD DUP1 SWAP2 SUB SWAP1 RETURN JUMPDEST PUSH2 0x3CD PUSH1 0x4 DUP1 CALLDATASIZE SUB DUP2 ADD SWAP1 PUSH2 0x3C8 SWAP2 SWAP1 PUSH2 0x1B34 JUMP JUMPDEST PUSH2 0x1042 JUMP JUMPDEST PUSH1 0x40 MLOAD PUSH2 0x3DA SWAP2 SWAP1 PUSH2 0x1A10 JUMP JUMPDEST PUSH1 0x40 MLOAD DUP1 SWAP2 SUB SWAP1 RETURN JUMPDEST PUSH2 0x3EB PUSH2 0x1078 JUMP JUMPDEST PUSH1 0x40 MLOAD PUSH2 0x3F8 SWAP2 SWAP1 PUSH2 0x1A10 JUMP JUMPDEST PUSH1 0x40 MLOAD DUP1 SWAP2 SUB SWAP1 RETURN JUMPDEST PUSH2 0x41B PUSH1 0x4 DUP1 CALLDATASIZE SUB DUP2 ADD SWAP1 PUSH2 0x416 SWAP2 SWAP1 PUSH2 0x1B34 JUMP JUMPDEST PUSH2 0x109E JUMP JUMPDEST STOP JUMPDEST PUSH2 0x425 PUSH2 0x132E JUMP JUMPDEST PUSH1 0x40 MLOAD PUSH2 0x432 SWAP2 SWAP1 PUSH2 0x1A10 JUMP JUMPDEST PUSH1 0x40 MLOAD DUP1 SWAP2 SUB SWAP1 RETURN JUMPDEST PUSH2 0x443 PUSH2 0x1354 JUMP JUMPDEST PUSH1 0x40 MLOAD PUSH2 0x450 SWAP2 SWAP1 PUSH2 0x1A10 JUMP JUMPDEST PUSH1 0x40 MLOAD DUP1 SWAP2 SUB SWAP1 RETURN JUMPDEST PUSH1 0x18 PUSH1 0x20 MSTORE DUP1 PUSH1 0x0 MSTORE PUSH1 0x40 PUSH1 0x0 KECCAK256 PUSH1 0x0 SWAP2 POP SLOAD SWAP1 PUSH2 0x100 EXP SWAP1 DIV PUSH1 0xFF AND DUP2 JUMP JUMPDEST PUSH1 0x2 PUSH1 0x0 SWAP1 SLOAD SWAP1 PUSH2 0x100 EXP SWAP1 DIV PUSH20 0xFFFFFFFFFFFFFFFFFFFFFFFFFFFFFFFFFFFFFFFF AND DUP2 JUMP JUMPDEST PUSH1 0x0 PUSH1 0x17 PUSH1 0x0 DUP4 PUSH20 0xFFFFFFFFFFFFFFFFFFFFFFFFFFFFFFFFFFFFFFFF AND PUSH20 0xFFFFFFFFFFFFFFFFFFFFFFFFFFFFFFFFFFFFFFFF AND DUP2 MSTORE PUSH1 0x20 ADD SWAP1 DUP2 MSTORE PUSH1 0x20 ADD PUSH1 0x0 KECCAK256 SLOAD SWAP1 POP SWAP2 SWAP1 POP JUMP JUMPDEST CALLER PUSH20 0xFFFFFFFFFFFFFFFFFFFFFFFFFFFFFFFFFFFFFFFF AND PUSH32 0x0 PUSH20 0xFFFFFFFFFFFFFFFFFFFFFFFFFFFFFFFFFFFFFFFF AND EQ PUSH2 0x576 JUMPI PUSH1 0x40 MLOAD PUSH32 0x8C379A000000000000000000000000000000000000000000000000000000000 DUP2 MSTORE PUSH1 0x4 ADD PUSH2 0x56D SWAP1 PUSH2 0x1BBE JUMP JUMPDEST PUSH1 0x40 MLOAD DUP1 SWAP2 SUB SWAP1 REVERT JUMPDEST PUSH1 0x1 PUSH1 0x18 PUSH1 0x0 DUP4 PUSH20 0xFFFFFFFFFFFFFFFFFFFFFFFFFFFFFFFFFFFFFFFF AND PUSH20 0xFFFFFFFFFFFFFFFFFFFFFFFFFFFFFFFFFFFFFFFF AND DUP2 MSTORE PUSH1 0x20 ADD SWAP1 DUP2 MSTORE PUSH1 0x20 ADD PUSH1 0x0 KECCAK256 PUSH1 0x0 PUSH2 0x100 EXP DUP2 SLOAD DUP2 PUSH1 0xFF MUL NOT AND SWAP1 DUP4 ISZERO ISZERO MUL OR SWAP1 SSTORE POP POP JUMP JUMPDEST DUP1 PUSH1 0x0 ISZERO ISZERO PUSH1 0x18 PUSH1 0x0 DUP4 PUSH20 0xFFFFFFFFFFFFFFFFFFFFFFFFFFFFFFFFFFFFFFFF AND PUSH20 0xFFFFFFFFFFFFFFFFFFFFFFFFFFFFFFFFFFFFFFFF AND DUP2 MSTORE PUSH1 0x20 ADD SWAP1 DUP2 MSTORE PUSH1 0x20 ADD PUSH1 0x0 KECCAK256 PUSH1 0x0 SWAP1 SLOAD SWAP1 PUSH2 0x100 EXP SWAP1 DIV PUSH1 0xFF AND ISZERO ISZERO EQ PUSH2 0x665 JUMPI PUSH1 0x40 MLOAD PUSH32 0x8C379A000000000000000000000000000000000000000000000000000000000 DUP2 MSTORE PUSH1 0x4 ADD PUSH2 0x65C SWAP1 PUSH2 0x1C50 JUMP JUMPDEST PUSH1 0x40 MLOAD DUP1 SWAP2 SUB SWAP1 REVERT JUMPDEST DUP3 PUSH1 0x17 PUSH1 0x0 CALLER PUSH20 0xFFFFFFFFFFFFFFFFFFFFFFFFFFFFFFFFFFFFFFFF AND PUSH20 0xFFFFFFFFFFFFFFFFFFFFFFFFFFFFFFFFFFFFFFFF AND DUP2 MSTORE PUSH1 0x20 ADD SWAP1 DUP2 MSTORE PUSH1 0x20 ADD PUSH1 0x0 KECCAK256 SLOAD LT ISZERO PUSH2 0x6E7 JUMPI PUSH1 0x40 MLOAD PUSH32 0x8C379A000000000000000000000000000000000000000000000000000000000 DUP2 MSTORE PUSH1 0x4 ADD PUSH2 0x6DE SWAP1 PUSH2 0x1CBC JUMP JUMPDEST PUSH1 0x40 MLOAD DUP1 SWAP2 SUB SWAP1 REVERT JUMPDEST PUSH1 0x0 PUSH2 0x6F2 CALLER PUSH2 0x1378 JUMP JUMPDEST SWAP1 POP PUSH2 0x6FC PUSH2 0x187E JUMP JUMPDEST PUSH2 0x704 PUSH2 0x187E JUMP JUMPDEST DUP6 PUSH1 0x17 PUSH1 0x0 CALLER PUSH20 0xFFFFFFFFFFFFFFFFFFFFFFFFFFFFFFFFFFFFFFFF AND PUSH20 0xFFFFFFFFFFFFFFFFFFFFFFFFFFFFFFFFFFFFFFFF AND DUP2 MSTORE PUSH1 0x20 ADD SWAP1 DUP2 MSTORE PUSH1 0x20 ADD PUSH1 0x0 KECCAK256 PUSH1 0x0 DUP3 DUP3 SLOAD PUSH2 0x753 SWAP2 SWAP1 PUSH2 0x1D0B JUMP JUMPDEST SWAP3 POP POP DUP2 SWAP1 SSTORE POP DUP6 PUSH1 0x17 PUSH1 0x0 DUP8 PUSH20 0xFFFFFFFFFFFFFFFFFFFFFFFFFFFFFFFFFFFFFFFF AND PUSH20 0xFFFFFFFFFFFFFFFFFFFFFFFFFFFFFFFFFFFFFFFF AND DUP2 MSTORE PUSH1 0x20 ADD SWAP1 DUP2 MSTORE PUSH1 0x20 ADD PUSH1 0x0 KECCAK256 PUSH1 0x0 DUP3 DUP3 SLOAD PUSH2 0x7A9 SWAP2 SWAP1 PUSH2 0x1D3F JUMP JUMPDEST SWAP3 POP POP DUP2 SWAP1 SSTORE POP PUSH1 0x0 PUSH8 0xDE0B6B3A7640000 DUP8 PUSH2 0x7C6 SWAP2 SWAP1 PUSH2 0x1DA2 JUMP JUMPDEST SWAP1 POP PUSH1 0x0 DUP1 PUSH1 0x0 DUP1 PUSH1 0x0 SWAP1 POP JUMPDEST PUSH1 0x9 DUP2 LT ISZERO PUSH2 0x83F JUMPI PUSH1 0x0 PUSH2 0x806 DUP7 PUSH1 0x19 DUP5 DUP2 SLOAD DUP2 LT PUSH2 0x7F6 JUMPI PUSH2 0x7F5 PUSH2 0x1DD3 JUMP JUMPDEST JUMPDEST SWAP1 PUSH1 0x0 MSTORE PUSH1 0x20 PUSH1 0x0 KECCAK256 ADD SLOAD PUSH2 0xB66 JUMP JUMPDEST DUP1 SWAP8 POP DUP2 SWAP3 POP POP POP DUP1 DUP9 DUP4 PUSH1 0x9 DUP2 LT PUSH2 0x822 JUMPI PUSH2 0x821 PUSH2 0x1DD3 JUMP JUMPDEST JUMPDEST PUSH1 0x20 MUL ADD DUP2 DUP2 MSTORE POP POP POP DUP1 DUP1 PUSH2 0x837 SWAP1 PUSH2 0x1E02 JUMP JUMPDEST SWAP2 POP POP PUSH2 0x7D3 JUMP JUMPDEST POP PUSH1 0x0 DUP1 JUMPDEST PUSH1 0x9 DUP2 LT ISZERO PUSH2 0xB26 JUMPI DUP8 DUP2 PUSH1 0x9 DUP2 LT PUSH2 0x860 JUMPI PUSH2 0x85F PUSH2 0x1DD3 JUMP JUMPDEST JUMPDEST PUSH1 0x20 MUL ADD MLOAD DUP10 DUP3 PUSH1 0x9 DUP2 LT PUSH2 0x878 JUMPI PUSH2 0x877 PUSH2 0x1DD3 JUMP JUMPDEST JUMPDEST PUSH1 0x20 MUL ADD MLOAD LT PUSH2 0x94C JUMPI DUP8 DUP2 PUSH1 0x9 DUP2 LT PUSH2 0x895 JUMPI PUSH2 0x894 PUSH2 0x1DD3 JUMP JUMPDEST JUMPDEST PUSH1 0x20 MUL ADD MLOAD PUSH1 0x19 DUP3 DUP2 SLOAD DUP2 LT PUSH2 0x8AE JUMPI PUSH2 0x8AD PUSH2 0x1DD3 JUMP JUMPDEST JUMPDEST SWAP1 PUSH1 0x0 MSTORE PUSH1 0x20 PUSH1 0x0 KECCAK256 ADD SLOAD PUSH2 0x8C3 SWAP2 SWAP1 PUSH2 0x1E4A JUMP JUMPDEST DUP3 PUSH2 0x8CE SWAP2 SWAP1 PUSH2 0x1D3F JUMP JUMPDEST SWAP2 POP DUP8 DUP2 PUSH1 0x9 DUP2 LT PUSH2 0x8E3 JUMPI PUSH2 0x8E2 PUSH2 0x1DD3 JUMP JUMPDEST JUMPDEST PUSH1 0x20 MUL ADD MLOAD DUP8 DUP3 PUSH1 0x9 DUP2 LT PUSH2 0x8FB JUMPI PUSH2 0x8FA PUSH2 0x1DD3 JUMP JUMPDEST JUMPDEST PUSH1 0x20 MUL ADD DUP2 DUP2 MSTORE POP POP DUP8 DUP2 PUSH1 0x9 DUP2 LT PUSH2 0x917 JUMPI PUSH2 0x916 PUSH2 0x1DD3 JUMP JUMPDEST JUMPDEST PUSH1 0x20 MUL ADD MLOAD DUP10 DUP3 PUSH1 0x9 DUP2 LT PUSH2 0x92F JUMPI PUSH2 0x92E PUSH2 0x1DD3 JUMP JUMPDEST JUMPDEST PUSH1 0x20 MUL ADD DUP2 DUP2 MLOAD PUSH2 0x940 SWAP2 SWAP1 PUSH2 0x1D0B JUMP JUMPDEST SWAP2 POP DUP2 DUP2 MSTORE POP POP PUSH2 0xB13 JUMP JUMPDEST PUSH1 0x0 DUP3 PUSH8 0xDE0B6B3A7640000 DUP15 PUSH2 0x963 SWAP2 SWAP1 PUSH2 0x1DA2 JUMP JUMPDEST PUSH2 0x96D SWAP2 SWAP1 PUSH2 0x1D0B JUMP JUMPDEST SWAP1 POP PUSH1 0x0 PUSH1 0x1 DUP4 PUSH2 0x97E SWAP2 SWAP1 PUSH2 0x1D0B JUMP JUMPDEST SWAP1 POP JUMPDEST PUSH1 0x0 DUP2 LT PUSH2 0xB0C JUMPI PUSH1 0x19 DUP2 DUP2 SLOAD DUP2 LT PUSH2 0x99D JUMPI PUSH2 0x99C PUSH2 0x1DD3 JUMP JUMPDEST JUMPDEST SWAP1 PUSH1 0x0 MSTORE PUSH1 0x20 PUSH1 0x0 KECCAK256 ADD SLOAD DUP3 LT DUP1 ISZERO PUSH2 0x9CD JUMPI POP PUSH1 0x0 DUP12 DUP3 PUSH1 0x9 DUP2 LT PUSH2 0x9C6 JUMPI PUSH2 0x9C5 PUSH2 0x1DD3 JUMP JUMPDEST JUMPDEST PUSH1 0x20 MUL ADD MLOAD GT JUMPDEST ISZERO PUSH2 0xAF9 JUMPI DUP2 PUSH1 0x19 DUP3 DUP2 SLOAD DUP2 LT PUSH2 0x9E7 JUMPI PUSH2 0x9E6 PUSH2 0x1DD3 JUMP JUMPDEST JUMPDEST SWAP1 PUSH1 0x0 MSTORE PUSH1 0x20 PUSH1 0x0 KECCAK256 ADD SLOAD PUSH2 0x9FC SWAP2 SWAP1 PUSH2 0x1D0B JUMP JUMPDEST SWAP7 POP DUP7 PUSH1 0x19 DUP3 DUP2 SLOAD DUP2 LT PUSH2 0xA13 JUMPI PUSH2 0xA12 PUSH2 0x1DD3 JUMP JUMPDEST JUMPDEST SWAP1 PUSH1 0x0 MSTORE PUSH1 0x20 PUSH1 0x0 KECCAK256 ADD SLOAD PUSH2 0xA28 SWAP2 SWAP1 PUSH2 0x1D0B JUMP JUMPDEST SWAP6 POP PUSH1 0x19 DUP2 DUP2 SLOAD DUP2 LT PUSH2 0xA3E JUMPI PUSH2 0xA3D PUSH2 0x1DD3 JUMP JUMPDEST JUMPDEST SWAP1 PUSH1 0x0 MSTORE PUSH1 0x20 PUSH1 0x0 KECCAK256 ADD SLOAD SWAP5 POP PUSH1 0x0 PUSH1 0xA DUP3 PUSH1 0x9 DUP2 LT PUSH2 0xA61 JUMPI PUSH2 0xA60 PUSH2 0x1DD3 JUMP JUMPDEST JUMPDEST ADD PUSH1 0x0 SWAP1 SLOAD SWAP1 PUSH2 0x100 EXP SWAP1 DIV PUSH20 0xFFFFFFFFFFFFFFFFFFFFFFFFFFFFFFFFFFFFFFFF AND SWAP1 POP DUP1 PUSH20 0xFFFFFFFFFFFFFFFFFFFFFFFFFFFFFFFFFFFFFFFF AND PUSH4 0x83C587DF CALLER PUSH1 0x0 PUSH1 0x40 MLOAD DUP4 PUSH4 0xFFFFFFFF AND PUSH1 0xE0 SHL DUP2 MSTORE PUSH1 0x4 ADD PUSH2 0xAC1 SWAP3 SWAP2 SWAP1 PUSH2 0x1E8C JUMP JUMPDEST PUSH1 0x0 PUSH1 0x40 MLOAD DUP1 DUP4 SUB DUP2 PUSH1 0x0 DUP8 DUP1 EXTCODESIZE ISZERO DUP1 ISZERO PUSH2 0xADB JUMPI PUSH1 0x0 DUP1 REVERT JUMPDEST POP GAS CALL ISZERO DUP1 ISZERO PUSH2 0xAEF JUMPI RETURNDATASIZE PUSH1 0x0 DUP1 RETURNDATACOPY RETURNDATASIZE PUSH1 0x0 REVERT JUMPDEST POP POP POP POP POP PUSH2 0xB0C JUMP JUMPDEST DUP1 DUP1 PUSH2 0xB04 SWAP1 PUSH2 0x1EB5 JUMP JUMPDEST SWAP2 POP POP PUSH2 0x981 JUMP JUMPDEST POP POP PUSH2 0xB26 JUMP JUMPDEST DUP1 DUP1 PUSH2 0xB1E SWAP1 PUSH2 0x1E02 JUMP JUMPDEST SWAP2 POP POP PUSH2 0x844 JUMP JUMPDEST POP PUSH2 0xB33 DUP7 DUP12 DUP7 DUP7 PUSH2 0x1484 JUMP JUMPDEST POP POP POP POP POP POP POP POP POP POP POP JUMP JUMPDEST PUSH1 0x5 PUSH1 0x0 SWAP1 SLOAD SWAP1 PUSH2 0x100 EXP SWAP1 DIV PUSH20 0xFFFFFFFFFFFFFFFFFFFFFFFFFFFFFFFFFFFFFFFF AND DUP2 JUMP JUMPDEST PUSH1 0x0 DUP1 PUSH1 0x0 DUP4 DUP6 PUSH2 0xB77 SWAP2 SWAP1 PUSH2 0x1DA2 JUMP JUMPDEST SWAP1 POP DUP4 DUP6 PUSH2 0xB85 SWAP2 SWAP1 PUSH2 0x1EDE JUMP JUMPDEST PUSH1 0x16 DUP2 SWAP1 SSTORE POP DUP1 PUSH1 0x16 SLOAD SWAP3 POP SWAP3 POP POP SWAP3 POP SWAP3 SWAP1 POP JUMP JUMPDEST PUSH1 0x4 PUSH1 0x0 SWAP1 SLOAD SWAP1 PUSH2 0x100 EXP SWAP1 DIV PUSH20 0xFFFFFFFFFFFFFFFFFFFFFFFFFFFFFFFFFFFFFFFF AND DUP2 JUMP JUMPDEST PUSH1 0x1 PUSH1 0x0 SWAP1 SLOAD SWAP1 PUSH2 0x100 EXP SWAP1 DIV PUSH20 0xFFFFFFFFFFFFFFFFFFFFFFFFFFFFFFFFFFFFFFFF AND DUP2 JUMP JUMPDEST PUSH1 0x8 PUSH1 0x0 SWAP1 SLOAD SWAP1 PUSH2 0x100 EXP SWAP1 DIV PUSH20 0xFFFFFFFFFFFFFFFFFFFFFFFFFFFFFFFFFFFFFFFF AND DUP2 JUMP JUMPDEST PUSH1 0x13 SLOAD DUP2 JUMP JUMPDEST PUSH1 0x3 PUSH1 0x0 SWAP1 SLOAD SWAP1 PUSH2 0x100 EXP SWAP1 DIV PUSH20 0xFFFFFFFFFFFFFFFFFFFFFFFFFFFFFFFFFFFFFFFF AND DUP2 JUMP JUMPDEST PUSH1 0x9 PUSH1 0x0 SWAP1 SLOAD SWAP1 PUSH2 0x100 EXP SWAP1 DIV PUSH20 0xFFFFFFFFFFFFFFFFFFFFFFFFFFFFFFFFFFFFFFFF AND DUP2 JUMP JUMPDEST PUSH1 0x14 SLOAD DUP2 JUMP JUMPDEST PUSH1 0x16 SLOAD DUP2 JUMP JUMPDEST PUSH1 0x17 PUSH1 0x20 MSTORE DUP1 PUSH1 0x0 MSTORE PUSH1 0x40 PUSH1 0x0 KECCAK256 PUSH1 0x0 SWAP2 POP SWAP1 POP SLOAD DUP2 JUMP JUMPDEST PUSH1 0x0 CALLER PUSH20 0xFFFFFFFFFFFFFFFFFFFFFFFFFFFFFFFFFFFFFFFF AND PUSH32 0x0 PUSH20 0xFFFFFFFFFFFFFFFFFFFFFFFFFFFFFFFFFFFFFFFF AND EQ PUSH2 0xD13 JUMPI PUSH1 0x40 MLOAD PUSH32 0x8C379A000000000000000000000000000000000000000000000000000000000 DUP2 MSTORE PUSH1 0x4 ADD PUSH2 0xD0A SWAP1 PUSH2 0x1BBE JUMP JUMPDEST PUSH1 0x40 MLOAD DUP1 SWAP2 SUB SWAP1 REVERT JUMPDEST PUSH1 0x0 PUSH20 0x27F2DB78389654B645D3015CCE02D0EF571B2B89 SWAP1 POP PUSH1 0x0 PUSH20 0x15C15BB162D31CD58890DF3B4A38B59BD64D999C SWAP1 POP PUSH1 0x0 PUSH20 0x49309576194E07A8D38078346783125AA2C38B38 SWAP1 POP PUSH1 0x0 PUSH20 0xD9DF6ACAC6E676293F8C592DE2B5B6B9DB962ED9 SWAP1 POP PUSH1 0x0 PUSH20 0x490E7110FFDFBDA02FB9144CB20D03303DF2F825 SWAP1 POP PUSH1 0x0 PUSH20 0xFC71D3049CDC12DCB30292D2CB9C7D154A8F6940 SWAP1 POP PUSH1 0x0 PUSH20 0xACC26DD287683DB3A4350D352F10105BB652E1DC SWAP1 POP PUSH1 0x0 PUSH20 0xD1E69DE132D8A0B3A5AB60CB196E365442F777B9 SWAP1 POP PUSH1 0x0 PUSH20 0x98F0B2F27B5E4304B42D9B77F0E594FC001F19BD SWAP1 POP PUSH1 0x0 PUSH20 0xC348A698FFA8600B58D6F52C6B112B4A7823E8FC SWAP1 POP DUP1 PUSH1 0x9 PUSH1 0x0 PUSH2 0x100 EXP DUP2 SLOAD DUP2 PUSH20 0xFFFFFFFFFFFFFFFFFFFFFFFFFFFFFFFFFFFFFFFF MUL NOT AND SWAP1 DUP4 PUSH20 0xFFFFFFFFFFFFFFFFFFFFFFFFFFFFFFFFFFFFFFFF AND MUL OR SWAP1 SSTORE POP PUSH1 0x40 MLOAD DUP1 PUSH2 0x120 ADD PUSH1 0x40 MSTORE DUP1 DUP4 PUSH20 0xFFFFFFFFFFFFFFFFFFFFFFFFFFFFFFFFFFFFFFFF AND PUSH20 0xFFFFFFFFFFFFFFFFFFFFFFFFFFFFFFFFFFFFFFFF AND DUP2 MSTORE PUSH1 0x20 ADD DUP5 PUSH20 0xFFFFFFFFFFFFFFFFFFFFFFFFFFFFFFFFFFFFFFFF AND PUSH20 0xFFFFFFFFFFFFFFFFFFFFFFFFFFFFFFFFFFFFFFFF AND DUP2 MSTORE PUSH1 0x20 ADD DUP6 PUSH20 0xFFFFFFFFFFFFFFFFFFFFFFFFFFFFFFFFFFFFFFFF AND PUSH20 0xFFFFFFFFFFFFFFFFFFFFFFFFFFFFFFFFFFFFFFFF AND DUP2 MSTORE PUSH1 0x20 ADD DUP7 PUSH20 0xFFFFFFFFFFFFFFFFFFFFFFFFFFFFFFFFFFFFFFFF AND PUSH20 0xFFFFFFFFFFFFFFFFFFFFFFFFFFFFFFFFFFFFFFFF AND DUP2 MSTORE PUSH1 0x20 ADD DUP8 PUSH20 0xFFFFFFFFFFFFFFFFFFFFFFFFFFFFFFFFFFFFFFFF AND PUSH20 0xFFFFFFFFFFFFFFFFFFFFFFFFFFFFFFFFFFFFFFFF AND DUP2 MSTORE PUSH1 0x20 ADD DUP9 PUSH20 0xFFFFFFFFFFFFFFFFFFFFFFFFFFFFFFFFFFFFFFFF AND PUSH20 0xFFFFFFFFFFFFFFFFFFFFFFFFFFFFFFFFFFFFFFFF AND DUP2 MSTORE PUSH1 0x20 ADD DUP10 PUSH20 0xFFFFFFFFFFFFFFFFFFFFFFFFFFFFFFFFFFFFFFFF AND PUSH20 0xFFFFFFFFFFFFFFFFFFFFFFFFFFFFFFFFFFFFFFFF AND DUP2 MSTORE PUSH1 0x20 ADD DUP11 PUSH20 0xFFFFFFFFFFFFFFFFFFFFFFFFFFFFFFFFFFFFFFFF AND PUSH20 0xFFFFFFFFFFFFFFFFFFFFFFFFFFFFFFFFFFFFFFFF AND DUP2 MSTORE PUSH1 0x20 ADD DUP12 PUSH20 0xFFFFFFFFFFFFFFFFFFFFFFFFFFFFFFFFFFFFFFFF AND PUSH20 0xFFFFFFFFFFFFFFFFFFFFFFFFFFFFFFFFFFFFFFFF AND DUP2 MSTORE POP PUSH1 0xA SWAP1 PUSH1 0x9 PUSH2 0x102A SWAP3 SWAP2 SWAP1 PUSH2 0x18A1 JUMP JUMPDEST POP PUSH1 0x1 SWAP11 POP POP POP POP POP POP POP POP POP POP POP SWAP1 JUMP JUMPDEST PUSH1 0x15 SLOAD DUP2 JUMP JUMPDEST PUSH1 0xA DUP2 PUSH1 0x9 DUP2 LT PUSH2 0x1052 JUMPI PUSH1 0x0 DUP1 REVERT JUMPDEST ADD PUSH1 0x0 SWAP2 POP SLOAD SWAP1 PUSH2 0x100 EXP SWAP1 DIV PUSH20 0xFFFFFFFFFFFFFFFFFFFFFFFFFFFFFFFFFFFFFFFF AND DUP2 JUMP JUMPDEST PUSH1 0x6 PUSH1 0x0 SWAP1 SLOAD SWAP1 PUSH2 0x100 EXP SWAP1 DIV PUSH20 0xFFFFFFFFFFFFFFFFFFFFFFFFFFFFFFFFFFFFFFFF AND DUP2 JUMP JUMPDEST PUSH2 0x10A6 PUSH2 0x187E JUMP JUMPDEST PUSH1 0x0 PUSH1 0x9 PUSH1 0x0 SWAP1 SLOAD SWAP1 PUSH2 0x100 EXP SWAP1 DIV PUSH20 0xFFFFFFFFFFFFFFFFFFFFFFFFFFFFFFFFFFFFFFFF AND SWAP1 POP DUP1 PUSH20 0xFFFFFFFFFFFFFFFFFFFFFFFFFFFFFFFFFFFFFFFF AND PUSH4 0x23B872DD CALLER ADDRESS DUP7 PUSH1 0x40 MLOAD DUP5 PUSH4 0xFFFFFFFF AND PUSH1 0xE0 SHL DUP2 MSTORE PUSH1 0x4 ADD PUSH2 0x110A SWAP4 SWAP3 SWAP2 SWAP1 PUSH2 0x1F0F JUMP JUMPDEST PUSH1 0x20 PUSH1 0x40 MLOAD DUP1 DUP4 SUB DUP2 PUSH1 0x0 DUP8 GAS CALL ISZERO DUP1 ISZERO PUSH2 0x1129 JUMPI RETURNDATASIZE PUSH1 0x0 DUP1 RETURNDATACOPY RETURNDATASIZE PUSH1 0x0 REVERT JUMPDEST POP POP POP POP PUSH1 0x40 MLOAD RETURNDATASIZE PUSH1 0x1F NOT PUSH1 0x1F DUP3 ADD AND DUP3 ADD DUP1 PUSH1 0x40 MSTORE POP DUP2 ADD SWAP1 PUSH2 0x114D SWAP2 SWAP1 PUSH2 0x1F72 JUMP JUMPDEST POP PUSH1 0x0 PUSH8 0xDE0B6B3A7640000 DUP5 PUSH2 0x1164 SWAP2 SWAP1 PUSH2 0x1DA2 JUMP JUMPDEST SWAP1 POP PUSH1 0x0 JUMPDEST PUSH1 0x9 DUP2 LT ISZERO PUSH2 0x11D5 JUMPI PUSH1 0x0 PUSH2 0x119C DUP4 PUSH1 0x19 DUP5 DUP2 SLOAD DUP2 LT PUSH2 0x118C JUMPI PUSH2 0x118B PUSH2 0x1DD3 JUMP JUMPDEST JUMPDEST SWAP1 PUSH1 0x0 MSTORE PUSH1 0x20 PUSH1 0x0 KECCAK256 ADD SLOAD PUSH2 0xB66 JUMP JUMPDEST DUP1 SWAP5 POP DUP2 SWAP3 POP POP POP DUP1 DUP6 DUP4 PUSH1 0x9 DUP2 LT PUSH2 0x11B8 JUMPI PUSH2 0x11B7 PUSH2 0x1DD3 JUMP JUMPDEST JUMPDEST PUSH1 0x20 MUL ADD DUP2 DUP2 MSTORE POP POP POP DUP1 DUP1 PUSH2 0x11CD SWAP1 PUSH2 0x1E02 JUMP JUMPDEST SWAP2 POP POP PUSH2 0x1169 JUMP JUMPDEST POP PUSH1 0x0 JUMPDEST PUSH1 0x9 DUP2 LT ISZERO PUSH2 0x12D1 JUMPI PUSH1 0x0 JUMPDEST DUP5 DUP3 PUSH1 0x9 DUP2 LT PUSH2 0x11F8 JUMPI PUSH2 0x11F7 PUSH2 0x1DD3 JUMP JUMPDEST JUMPDEST PUSH1 0x20 MUL ADD MLOAD DUP2 LT ISZERO PUSH2 0x12BD JUMPI PUSH1 0x0 PUSH1 0xA DUP4 PUSH1 0x9 DUP2 LT PUSH2 0x121A JUMPI PUSH2 0x1219 PUSH2 0x1DD3 JUMP JUMPDEST JUMPDEST ADD PUSH1 0x0 SWAP1 SLOAD SWAP1 PUSH2 0x100 EXP SWAP1 DIV PUSH20 0xFFFFFFFFFFFFFFFFFFFFFFFFFFFFFFFFFFFFFFFF AND SWAP1 POP DUP1 PUSH20 0xFFFFFFFFFFFFFFFFFFFFFFFFFFFFFFFFFFFFFFFF AND PUSH4 0x40D097C3 CALLER PUSH1 0x40 MLOAD DUP3 PUSH4 0xFFFFFFFF AND PUSH1 0xE0 SHL DUP2 MSTORE PUSH1 0x4 ADD PUSH2 0x1277 SWAP2 SWAP1 PUSH2 0x1A10 JUMP JUMPDEST PUSH1 0x0 PUSH1 0x40 MLOAD DUP1 DUP4 SUB DUP2 PUSH1 0x0 DUP8 DUP1 EXTCODESIZE ISZERO DUP1 ISZERO PUSH2 0x1291 JUMPI PUSH1 0x0 DUP1 REVERT JUMPDEST POP GAS CALL ISZERO DUP1 ISZERO PUSH2 0x12A5 JUMPI RETURNDATASIZE PUSH1 0x0 DUP1 RETURNDATACOPY RETURNDATASIZE PUSH1 0x0 REVERT JUMPDEST POP POP POP POP POP DUP1 DUP1 PUSH2 0x12B5 SWAP1 PUSH2 0x1E02 JUMP JUMPDEST SWAP2 POP POP PUSH2 0x11E5 JUMP JUMPDEST POP DUP1 DUP1 PUSH2 0x12C9 SWAP1 PUSH2 0x1E02 JUMP JUMPDEST SWAP2 POP POP PUSH2 0x11D9 JUMP JUMPDEST DUP5 PUSH1 0x17 PUSH1 0x0 CALLER PUSH20 0xFFFFFFFFFFFFFFFFFFFFFFFFFFFFFFFFFFFFFFFF AND PUSH20 0xFFFFFFFFFFFFFFFFFFFFFFFFFFFFFFFFFFFFFFFF AND DUP2 MSTORE PUSH1 0x20 ADD SWAP1 DUP2 MSTORE PUSH1 0x20 ADD PUSH1 0x0 KECCAK256 PUSH1 0x0 DUP3 DUP3 SLOAD PUSH2 0x1320 SWAP2 SWAP1 PUSH2 0x1D3F JUMP JUMPDEST SWAP3 POP POP DUP2 SWAP1 SSTORE POP POP POP POP POP POP JUMP JUMPDEST PUSH1 0x7 PUSH1 0x0 SWAP1 SLOAD SWAP1 PUSH2 0x100 EXP SWAP1 DIV PUSH20 0xFFFFFFFFFFFFFFFFFFFFFFFFFFFFFFFFFFFFFFFF AND DUP2 JUMP JUMPDEST PUSH1 0x0 DUP1 SLOAD SWAP1 PUSH2 0x100 EXP SWAP1 DIV PUSH20 0xFFFFFFFFFFFFFFFFFFFFFFFFFFFFFFFFFFFFFFFF AND DUP2 JUMP JUMPDEST PUSH2 0x1380 PUSH2 0x187E JUMP JUMPDEST PUSH2 0x1388 PUSH2 0x187E JUMP JUMPDEST PUSH1 0x0 JUMPDEST PUSH1 0x9 DUP2 LT ISZERO PUSH2 0x147A JUMPI PUSH1 0x0 PUSH1 0xA DUP3 PUSH1 0x9 DUP2 LT PUSH2 0x13AA JUMPI PUSH2 0x13A9 PUSH2 0x1DD3 JUMP JUMPDEST JUMPDEST ADD PUSH1 0x0 SWAP1 SLOAD SWAP1 PUSH2 0x100 EXP SWAP1 DIV PUSH20 0xFFFFFFFFFFFFFFFFFFFFFFFFFFFFFFFFFFFFFFFF AND SWAP1 POP DUP1 PUSH20 0xFFFFFFFFFFFFFFFFFFFFFFFFFFFFFFFFFFFFFFFF AND PUSH4 0x83E38D3B DUP7 PUSH1 0x40 MLOAD DUP3 PUSH4 0xFFFFFFFF AND PUSH1 0xE0 SHL DUP2 MSTORE PUSH1 0x4 ADD PUSH2 0x1407 SWAP2 SWAP1 PUSH2 0x1A10 JUMP JUMPDEST PUSH1 0x20 PUSH1 0x40 MLOAD DUP1 DUP4 SUB DUP2 PUSH1 0x0 DUP8 GAS CALL ISZERO DUP1 ISZERO PUSH2 0x1426 JUMPI RETURNDATASIZE PUSH1 0x0 DUP1 RETURNDATACOPY RETURNDATASIZE PUSH1 0x0 REVERT JUMPDEST POP POP POP POP PUSH1 0x40 MLOAD RETURNDATASIZE PUSH1 0x1F NOT PUSH1 0x1F DUP3 ADD AND DUP3 ADD DUP1 PUSH1 0x40 MSTORE POP DUP2 ADD SWAP1 PUSH2 0x144A SWAP2 SWAP1 PUSH2 0x1FB4 JUMP JUMPDEST DUP4 DUP4 PUSH1 0x9 DUP2 LT PUSH2 0x145D JUMPI PUSH2 0x145C PUSH2 0x1DD3 JUMP JUMPDEST JUMPDEST PUSH1 0x20 MUL ADD DUP2 DUP2 MSTORE POP POP POP DUP1 DUP1 PUSH2 0x1472 SWAP1 PUSH2 0x1E02 JUMP JUMPDEST SWAP2 POP POP PUSH2 0x138B JUMP JUMPDEST POP DUP1 SWAP2 POP POP SWAP2 SWAP1 POP JUMP JUMPDEST PUSH1 0x0 JUMPDEST PUSH1 0x9 DUP2 LT ISZERO PUSH2 0x1581 JUMPI PUSH1 0x0 JUMPDEST DUP6 DUP3 PUSH1 0x9 DUP2 LT PUSH2 0x14A6 JUMPI PUSH2 0x14A5 PUSH2 0x1DD3 JUMP JUMPDEST JUMPDEST PUSH1 0x20 MUL ADD MLOAD DUP2 LT ISZERO PUSH2 0x156D JUMPI PUSH1 0x0 PUSH1 0xA DUP4 PUSH1 0x9 DUP2 LT PUSH2 0x14C8 JUMPI PUSH2 0x14C7 PUSH2 0x1DD3 JUMP JUMPDEST JUMPDEST ADD PUSH1 0x0 SWAP1 SLOAD SWAP1 PUSH2 0x100 EXP SWAP1 DIV PUSH20 0xFFFFFFFFFFFFFFFFFFFFFFFFFFFFFFFFFFFFFFFF AND SWAP1 POP DUP1 PUSH20 0xFFFFFFFFFFFFFFFFFFFFFFFFFFFFFFFFFFFFFFFF AND PUSH4 0x83C587DF CALLER DUP9 PUSH1 0x40 MLOAD DUP4 PUSH4 0xFFFFFFFF AND PUSH1 0xE0 SHL DUP2 MSTORE PUSH1 0x4 ADD PUSH2 0x1527 SWAP3 SWAP2 SWAP1 PUSH2 0x1E8C JUMP JUMPDEST PUSH1 0x0 PUSH1 0x40 MLOAD DUP1 DUP4 SUB DUP2 PUSH1 0x0 DUP8 DUP1 EXTCODESIZE ISZERO DUP1 ISZERO PUSH2 0x1541 JUMPI PUSH1 0x0 DUP1 REVERT JUMPDEST POP GAS CALL ISZERO DUP1 ISZERO PUSH2 0x1555 JUMPI RETURNDATASIZE PUSH1 0x0 DUP1 RETURNDATACOPY RETURNDATASIZE PUSH1 0x0 REVERT JUMPDEST POP POP POP POP POP DUP1 DUP1 PUSH2 0x1565 SWAP1 PUSH2 0x1E02 JUMP JUMPDEST SWAP2 POP POP PUSH2 0x1493 JUMP JUMPDEST POP DUP1 DUP1 PUSH2 0x1579 SWAP1 PUSH2 0x1E02 JUMP JUMPDEST SWAP2 POP POP PUSH2 0x1487 JUMP JUMPDEST POP PUSH1 0x0 DUP3 SWAP1 POP PUSH1 0x0 DUP3 SWAP1 POP PUSH2 0x1594 PUSH2 0x187E JUMP JUMPDEST PUSH2 0x159C PUSH2 0x187E JUMP JUMPDEST PUSH1 0x0 JUMPDEST PUSH1 0x9 DUP2 LT ISZERO PUSH2 0x160B JUMPI PUSH1 0x0 PUSH2 0x15D2 DUP7 PUSH1 0x19 DUP5 DUP2 SLOAD DUP2 LT PUSH2 0x15C2 JUMPI PUSH2 0x15C1 PUSH2 0x1DD3 JUMP JUMPDEST JUMPDEST SWAP1 PUSH1 0x0 MSTORE PUSH1 0x20 PUSH1 0x0 KECCAK256 ADD SLOAD PUSH2 0xB66 JUMP JUMPDEST DUP1 SWAP8 POP DUP2 SWAP3 POP POP POP DUP1 DUP5 DUP4 PUSH1 0x9 DUP2 LT PUSH2 0x15EE JUMPI PUSH2 0x15ED PUSH2 0x1DD3 JUMP JUMPDEST JUMPDEST PUSH1 0x20 MUL ADD DUP2 DUP2 MSTORE POP POP POP DUP1 DUP1 PUSH2 0x1603 SWAP1 PUSH2 0x1E02 JUMP JUMPDEST SWAP2 POP POP PUSH2 0x159F JUMP JUMPDEST POP PUSH1 0x0 JUMPDEST PUSH1 0x9 DUP2 LT ISZERO PUSH2 0x1707 JUMPI PUSH1 0x0 JUMPDEST DUP4 DUP3 PUSH1 0x9 DUP2 LT PUSH2 0x162E JUMPI PUSH2 0x162D PUSH2 0x1DD3 JUMP JUMPDEST JUMPDEST PUSH1 0x20 MUL ADD MLOAD DUP2 LT ISZERO PUSH2 0x16F3 JUMPI PUSH1 0x0 PUSH1 0xA DUP4 PUSH1 0x9 DUP2 LT PUSH2 0x1650 JUMPI PUSH2 0x164F PUSH2 0x1DD3 JUMP JUMPDEST JUMPDEST ADD PUSH1 0x0 SWAP1 SLOAD SWAP1 PUSH2 0x100 EXP SWAP1 DIV PUSH20 0xFFFFFFFFFFFFFFFFFFFFFFFFFFFFFFFFFFFFFFFF AND SWAP1 POP DUP1 PUSH20 0xFFFFFFFFFFFFFFFFFFFFFFFFFFFFFFFFFFFFFFFF AND PUSH4 0x40D097C3 CALLER PUSH1 0x40 MLOAD DUP3 PUSH4 0xFFFFFFFF AND PUSH1 0xE0 SHL DUP2 MSTORE PUSH1 0x4 ADD PUSH2 0x16AD SWAP2 SWAP1 PUSH2 0x1A10 JUMP JUMPDEST PUSH1 0x0 PUSH1 0x40 MLOAD DUP1 DUP4 SUB DUP2 PUSH1 0x0 DUP8 DUP1 EXTCODESIZE ISZERO DUP1 ISZERO PUSH2 0x16C7 JUMPI PUSH1 0x0 DUP1 REVERT JUMPDEST POP GAS CALL ISZERO DUP1 ISZERO PUSH2 0x16DB JUMPI RETURNDATASIZE PUSH1 0x0 DUP1 RETURNDATACOPY RETURNDATASIZE PUSH1 0x0 REVERT JUMPDEST POP POP POP POP POP DUP1 DUP1 PUSH2 0x16EB SWAP1 PUSH2 0x1E02 JUMP JUMPDEST SWAP2 POP POP PUSH2 0x161B JUMP JUMPDEST POP DUP1 DUP1 PUSH2 0x16FF SWAP1 PUSH2 0x1E02 JUMP JUMPDEST SWAP2 POP POP PUSH2 0x160F JUMP JUMPDEST POP PUSH1 0x0 JUMPDEST PUSH1 0x9 DUP2 LT ISZERO PUSH2 0x1777 JUMPI PUSH1 0x0 PUSH2 0x173E DUP6 PUSH1 0x19 DUP5 DUP2 SLOAD DUP2 LT PUSH2 0x172E JUMPI PUSH2 0x172D PUSH2 0x1DD3 JUMP JUMPDEST JUMPDEST SWAP1 PUSH1 0x0 MSTORE PUSH1 0x20 PUSH1 0x0 KECCAK256 ADD SLOAD PUSH2 0xB66 JUMP JUMPDEST DUP1 SWAP7 POP DUP2 SWAP3 POP POP POP DUP1 DUP4 DUP4 PUSH1 0x9 DUP2 LT PUSH2 0x175A JUMPI PUSH2 0x1759 PUSH2 0x1DD3 JUMP JUMPDEST JUMPDEST PUSH1 0x20 MUL ADD DUP2 DUP2 MSTORE POP POP POP DUP1 DUP1 PUSH2 0x176F SWAP1 PUSH2 0x1E02 JUMP JUMPDEST SWAP2 POP POP PUSH2 0x170B JUMP JUMPDEST POP PUSH1 0x0 JUMPDEST PUSH1 0x9 DUP2 LT ISZERO PUSH2 0x1873 JUMPI PUSH1 0x0 JUMPDEST DUP3 DUP3 PUSH1 0x9 DUP2 LT PUSH2 0x179A JUMPI PUSH2 0x1799 PUSH2 0x1DD3 JUMP JUMPDEST JUMPDEST PUSH1 0x20 MUL ADD MLOAD DUP2 LT ISZERO PUSH2 0x185F JUMPI PUSH1 0x0 PUSH1 0xA DUP4 PUSH1 0x9 DUP2 LT PUSH2 0x17BC JUMPI PUSH2 0x17BB PUSH2 0x1DD3 JUMP JUMPDEST JUMPDEST ADD PUSH1 0x0 SWAP1 SLOAD SWAP1 PUSH2 0x100 EXP SWAP1 DIV PUSH20 0xFFFFFFFFFFFFFFFFFFFFFFFFFFFFFFFFFFFFFFFF AND SWAP1 POP DUP1 PUSH20 0xFFFFFFFFFFFFFFFFFFFFFFFFFFFFFFFFFFFFFFFF AND PUSH4 0x40D097C3 DUP12 PUSH1 0x40 MLOAD DUP3 PUSH4 0xFFFFFFFF AND PUSH1 0xE0 SHL DUP2 MSTORE PUSH1 0x4 ADD PUSH2 0x1819 SWAP2 SWAP1 PUSH2 0x1A10 JUMP JUMPDEST PUSH1 0x0 PUSH1 0x40 MLOAD DUP1 DUP4 SUB DUP2 PUSH1 0x0 DUP8 DUP1 EXTCODESIZE ISZERO DUP1 ISZERO PUSH2 0x1833 JUMPI PUSH1 0x0 DUP1 REVERT JUMPDEST POP GAS CALL ISZERO DUP1 ISZERO PUSH2 0x1847 JUMPI RETURNDATASIZE PUSH1 0x0 DUP1 RETURNDATACOPY RETURNDATASIZE PUSH1 0x0 REVERT JUMPDEST POP POP POP POP POP DUP1 DUP1 PUSH2 0x1857 SWAP1 PUSH2 0x1E02 JUMP JUMPDEST SWAP2 POP POP PUSH2 0x1787 JUMP JUMPDEST POP DUP1 DUP1 PUSH2 0x186B SWAP1 PUSH2 0x1E02 JUMP JUMPDEST SWAP2 POP POP PUSH2 0x177B JUMP JUMPDEST POP POP POP POP POP POP POP POP POP JUMP JUMPDEST PUSH1 0x40 MLOAD DUP1 PUSH2 0x120 ADD PUSH1 0x40 MSTORE DUP1 PUSH1 0x9 SWAP1 PUSH1 0x20 DUP3 MUL DUP1 CALLDATASIZE DUP4 CALLDATACOPY DUP1 DUP3 ADD SWAP2 POP POP SWAP1 POP POP SWAP1 JUMP JUMPDEST DUP3 PUSH1 0x9 DUP2 ADD SWAP3 DUP3 ISZERO PUSH2 0x190D JUMPI SWAP2 PUSH1 0x20 MUL DUP3 ADD JUMPDEST DUP3 DUP2 GT ISZERO PUSH2 0x190C JUMPI DUP3 MLOAD DUP3 PUSH1 0x0 PUSH2 0x100 EXP DUP2 SLOAD DUP2 PUSH20 0xFFFFFFFFFFFFFFFFFFFFFFFFFFFFFFFFFFFFFFFF MUL NOT AND SWAP1 DUP4 PUSH20 0xFFFFFFFFFFFFFFFFFFFFFFFFFFFFFFFFFFFFFFFF AND MUL OR SWAP1 SSTORE POP SWAP2 PUSH1 0x20 ADD SWAP2 SWAP1 PUSH1 0x1 ADD SWAP1 PUSH2 0x18B4 JUMP JUMPDEST JUMPDEST POP SWAP1 POP PUSH2 0x191A SWAP2 SWAP1 PUSH2 0x191E JUMP JUMPDEST POP SWAP1 JUMP JUMPDEST JUMPDEST DUP1 DUP3 GT ISZERO PUSH2 0x1937 JUMPI PUSH1 0x0 DUP2 PUSH1 0x0 SWAP1 SSTORE POP PUSH1 0x1 ADD PUSH2 0x191F JUMP JUMPDEST POP SWAP1 JUMP JUMPDEST PUSH1 0x0 DUP1 REVERT JUMPDEST PUSH1 0x0 PUSH20 0xFFFFFFFFFFFFFFFFFFFFFFFFFFFFFFFFFFFFFFFF DUP3 AND SWAP1 POP SWAP2 SWAP1 POP JUMP JUMPDEST PUSH1 0x0 PUSH2 0x196B DUP3 PUSH2 0x1940 JUMP JUMPDEST SWAP1 POP SWAP2 SWAP1 POP JUMP JUMPDEST PUSH2 0x197B DUP2 PUSH2 0x1960 JUMP JUMPDEST DUP2 EQ PUSH2 0x1986 JUMPI PUSH1 0x0 DUP1 REVERT JUMPDEST POP JUMP JUMPDEST PUSH1 0x0 DUP2 CALLDATALOAD SWAP1 POP PUSH2 0x1998 DUP2 PUSH2 0x1972 JUMP JUMPDEST SWAP3 SWAP2 POP POP JUMP JUMPDEST PUSH1 0x0 PUSH1 0x20 DUP3 DUP5 SUB SLT ISZERO PUSH2 0x19B4 JUMPI PUSH2 0x19B3 PUSH2 0x193B JUMP JUMPDEST JUMPDEST PUSH1 0x0 PUSH2 0x19C2 DUP5 DUP3 DUP6 ADD PUSH2 0x1989 JUMP JUMPDEST SWAP2 POP POP SWAP3 SWAP2 POP POP JUMP JUMPDEST PUSH1 0x0 DUP2 ISZERO ISZERO SWAP1 POP SWAP2 SWAP1 POP JUMP JUMPDEST PUSH2 0x19E0 DUP2 PUSH2 0x19CB JUMP JUMPDEST DUP3 MSTORE POP POP JUMP JUMPDEST PUSH1 0x0 PUSH1 0x20 DUP3 ADD SWAP1 POP PUSH2 0x19FB PUSH1 0x0 DUP4 ADD DUP5 PUSH2 0x19D7 JUMP JUMPDEST SWAP3 SWAP2 POP POP JUMP JUMPDEST PUSH2 0x1A0A DUP2 PUSH2 0x1960 JUMP JUMPDEST DUP3 MSTORE POP POP JUMP JUMPDEST PUSH1 0x0 PUSH1 0x20 DUP3 ADD SWAP1 POP PUSH2 0x1A25 PUSH1 0x0 DUP4 ADD DUP5 PUSH2 0x1A01 JUMP JUMPDEST SWAP3 SWAP2 POP POP JUMP JUMPDEST PUSH1 0x0 DUP2 SWAP1 POP SWAP2 SWAP1 POP JUMP JUMPDEST PUSH2 0x1A3E DUP2 PUSH2 0x1A2B JUMP JUMPDEST DUP3 MSTORE POP POP JUMP JUMPDEST PUSH1 0x0 PUSH1 0x20 DUP3 ADD SWAP1 POP PUSH2 0x1A59 PUSH1 0x0 DUP4 ADD DUP5 PUSH2 0x1A35 JUMP JUMPDEST SWAP3 SWAP2 POP POP JUMP JUMPDEST PUSH2 0x1A68 DUP2 PUSH2 0x1A2B JUMP JUMPDEST DUP2 EQ PUSH2 0x1A73 JUMPI PUSH1 0x0 DUP1 REVERT JUMPDEST POP JUMP JUMPDEST PUSH1 0x0 DUP2 CALLDATALOAD SWAP1 POP PUSH2 0x1A85 DUP2 PUSH2 0x1A5F JUMP JUMPDEST SWAP3 SWAP2 POP POP JUMP JUMPDEST PUSH1 0x0 DUP1 PUSH1 0x40 DUP4 DUP6 SUB SLT ISZERO PUSH2 0x1AA2 JUMPI PUSH2 0x1AA1 PUSH2 0x193B JUMP JUMPDEST JUMPDEST PUSH1 0x0 PUSH2 0x1AB0 DUP6 DUP3 DUP7 ADD PUSH2 0x1A76 JUMP JUMPDEST SWAP3 POP POP PUSH1 0x20 PUSH2 0x1AC1 DUP6 DUP3 DUP7 ADD PUSH2 0x1989 JUMP JUMPDEST SWAP2 POP POP SWAP3 POP SWAP3 SWAP1 POP JUMP JUMPDEST PUSH1 0x0 DUP1 PUSH1 0x40 DUP4 DUP6 SUB SLT ISZERO PUSH2 0x1AE2 JUMPI PUSH2 0x1AE1 PUSH2 0x193B JUMP JUMPDEST JUMPDEST PUSH1 0x0 PUSH2 0x1AF0 DUP6 DUP3 DUP7 ADD PUSH2 0x1A76 JUMP JUMPDEST SWAP3 POP POP PUSH1 0x20 PUSH2 0x1B01 DUP6 DUP3 DUP7 ADD PUSH2 0x1A76 JUMP JUMPDEST SWAP2 POP POP SWAP3 POP SWAP3 SWAP1 POP JUMP JUMPDEST PUSH1 0x0 PUSH1 0x40 DUP3 ADD SWAP1 POP PUSH2 0x1B20 PUSH1 0x0 DUP4 ADD DUP6 PUSH2 0x1A35 JUMP JUMPDEST PUSH2 0x1B2D PUSH1 0x20 DUP4 ADD DUP5 PUSH2 0x1A35 JUMP JUMPDEST SWAP4 SWAP3 POP POP POP JUMP JUMPDEST PUSH1 0x0 PUSH1 0x20 DUP3 DUP5 SUB SLT ISZERO PUSH2 0x1B4A JUMPI PUSH2 0x1B49 PUSH2 0x193B JUMP JUMPDEST JUMPDEST PUSH1 0x0 PUSH2 0x1B58 DUP5 DUP3 DUP6 ADD PUSH2 0x1A76 JUMP JUMPDEST SWAP2 POP POP SWAP3 SWAP2 POP POP JUMP JUMPDEST PUSH1 0x0 DUP3 DUP3 MSTORE PUSH1 0x20 DUP3 ADD SWAP1 POP SWAP3 SWAP2 POP POP JUMP JUMPDEST PUSH32 0x63616E206F6E6C792062652063616C6C6564206279206F776E65720000000000 PUSH1 0x0 DUP3 ADD MSTORE POP JUMP JUMPDEST PUSH1 0x0 PUSH2 0x1BA8 PUSH1 0x1B DUP4 PUSH2 0x1B61 JUMP JUMPDEST SWAP2 POP PUSH2 0x1BB3 DUP3 PUSH2 0x1B72 JUMP JUMPDEST PUSH1 0x20 DUP3 ADD SWAP1 POP SWAP2 SWAP1 POP JUMP JUMPDEST PUSH1 0x0 PUSH1 0x20 DUP3 ADD SWAP1 POP DUP2 DUP2 SUB PUSH1 0x0 DUP4 ADD MSTORE PUSH2 0x1BD7 DUP2 PUSH2 0x1B9B JUMP JUMPDEST SWAP1 POP SWAP2 SWAP1 POP JUMP JUMPDEST PUSH32 0x72656369657665722773206164647265737320697320626C61636B6C69737465 PUSH1 0x0 DUP3 ADD MSTORE PUSH32 0x6400000000000000000000000000000000000000000000000000000000000000 PUSH1 0x20 DUP3 ADD MSTORE POP JUMP JUMPDEST PUSH1 0x0 PUSH2 0x1C3A PUSH1 0x21 DUP4 PUSH2 0x1B61 JUMP JUMPDEST SWAP2 POP PUSH2 0x1C45 DUP3 PUSH2 0x1BDE JUMP JUMPDEST PUSH1 0x40 DUP3 ADD SWAP1 POP SWAP2 SWAP1 POP JUMP JUMPDEST PUSH1 0x0 PUSH1 0x20 DUP3 ADD SWAP1 POP DUP2 DUP2 SUB PUSH1 0x0 DUP4 ADD MSTORE PUSH2 0x1C69 DUP2 PUSH2 0x1C2D JUMP JUMPDEST SWAP1 POP SWAP2 SWAP1 POP JUMP JUMPDEST PUSH32 0x66756E647320617265206C657373207468616E20726571756573746564000000 PUSH1 0x0 DUP3 ADD MSTORE POP JUMP JUMPDEST PUSH1 0x0 PUSH2 0x1CA6 PUSH1 0x1D DUP4 PUSH2 0x1B61 JUMP JUMPDEST SWAP2 POP PUSH2 0x1CB1 DUP3 PUSH2 0x1C70 JUMP JUMPDEST PUSH1 0x20 DUP3 ADD SWAP1 POP SWAP2 SWAP1 POP JUMP JUMPDEST PUSH1 0x0 PUSH1 0x20 DUP3 ADD SWAP1 POP DUP2 DUP2 SUB PUSH1 0x0 DUP4 ADD MSTORE PUSH2 0x1CD5 DUP2 PUSH2 0x1C99 JUMP JUMPDEST SWAP1 POP SWAP2 SWAP1 POP JUMP JUMPDEST PUSH32 0x4E487B7100000000000000000000000000000000000000000000000000000000 PUSH1 0x0 MSTORE PUSH1 0x11 PUSH1 0x4 MSTORE PUSH1 0x24 PUSH1 0x0 REVERT JUMPDEST PUSH1 0x0 PUSH2 0x1D16 DUP3 PUSH2 0x1A2B JUMP JUMPDEST SWAP2 POP PUSH2 0x1D21 DUP4 PUSH2 0x1A2B JUMP JUMPDEST SWAP3 POP DUP3 DUP3 SUB SWAP1 POP DUP2 DUP2 GT ISZERO PUSH2 0x1D39 JUMPI PUSH2 0x1D38 PUSH2 0x1CDC JUMP JUMPDEST JUMPDEST SWAP3 SWAP2 POP POP JUMP JUMPDEST PUSH1 0x0 PUSH2 0x1D4A DUP3 PUSH2 0x1A2B JUMP JUMPDEST SWAP2 POP PUSH2 0x1D55 DUP4 PUSH2 0x1A2B JUMP JUMPDEST SWAP3 POP DUP3 DUP3 ADD SWAP1 POP DUP1 DUP3 GT ISZERO PUSH2 0x1D6D JUMPI PUSH2 0x1D6C PUSH2 0x1CDC JUMP JUMPDEST JUMPDEST SWAP3 SWAP2 POP POP JUMP JUMPDEST PUSH32 0x4E487B7100000000000000000000000000000000000000000000000000000000 PUSH1 0x0 MSTORE PUSH1 0x12 PUSH1 0x4 MSTORE PUSH1 0x24 PUSH1 0x0 REVERT JUMPDEST PUSH1 0x0 PUSH2 0x1DAD DUP3 PUSH2 0x1A2B JUMP JUMPDEST SWAP2 POP PUSH2 0x1DB8 DUP4 PUSH2 0x1A2B JUMP JUMPDEST SWAP3 POP DUP3 PUSH2 0x1DC8 JUMPI PUSH2 0x1DC7 PUSH2 0x1D73 JUMP JUMPDEST JUMPDEST DUP3 DUP3 DIV SWAP1 POP SWAP3 SWAP2 POP POP JUMP JUMPDEST PUSH32 0x4E487B7100000000000000000000000000000000000000000000000000000000 PUSH1 0x0 MSTORE PUSH1 0x32 PUSH1 0x4 MSTORE PUSH1 0x24 PUSH1 0x0 REVERT JUMPDEST PUSH1 0x0 PUSH2 0x1E0D DUP3 PUSH2 0x1A2B JUMP JUMPDEST SWAP2 POP PUSH32 0xFFFFFFFFFFFFFFFFFFFFFFFFFFFFFFFFFFFFFFFFFFFFFFFFFFFFFFFFFFFFFFFF DUP3 SUB PUSH2 0x1E3F JUMPI PUSH2 0x1E3E PUSH2 0x1CDC JUMP JUMPDEST JUMPDEST PUSH1 0x1 DUP3 ADD SWAP1 POP SWAP2 SWAP1 POP JUMP JUMPDEST PUSH1 0x0 PUSH2 0x1E55 DUP3 PUSH2 0x1A2B JUMP JUMPDEST SWAP2 POP PUSH2 0x1E60 DUP4 PUSH2 0x1A2B JUMP JUMPDEST SWAP3 POP DUP3 DUP3 MUL PUSH2 0x1E6E DUP2 PUSH2 0x1A2B JUMP JUMPDEST SWAP2 POP DUP3 DUP3 DIV DUP5 EQ DUP4 ISZERO OR PUSH2 0x1E85 JUMPI PUSH2 0x1E84 PUSH2 0x1CDC JUMP JUMPDEST JUMPDEST POP SWAP3 SWAP2 POP POP JUMP JUMPDEST PUSH1 0x0 PUSH1 0x40 DUP3 ADD SWAP1 POP PUSH2 0x1EA1 PUSH1 0x0 DUP4 ADD DUP6 PUSH2 0x1A01 JUMP JUMPDEST PUSH2 0x1EAE PUSH1 0x20 DUP4 ADD DUP5 PUSH2 0x1A01 JUMP JUMPDEST SWAP4 SWAP3 POP POP POP JUMP JUMPDEST PUSH1 0x0 PUSH2 0x1EC0 DUP3 PUSH2 0x1A2B JUMP JUMPDEST SWAP2 POP PUSH1 0x0 DUP3 SUB PUSH2 0x1ED3 JUMPI PUSH2 0x1ED2 PUSH2 0x1CDC JUMP JUMPDEST JUMPDEST PUSH1 0x1 DUP3 SUB SWAP1 POP SWAP2 SWAP1 POP JUMP JUMPDEST PUSH1 0x0 PUSH2 0x1EE9 DUP3 PUSH2 0x1A2B JUMP JUMPDEST SWAP2 POP PUSH2 0x1EF4 DUP4 PUSH2 0x1A2B JUMP JUMPDEST SWAP3 POP DUP3 PUSH2 0x1F04 JUMPI PUSH2 0x1F03 PUSH2 0x1D73 JUMP JUMPDEST JUMPDEST DUP3 DUP3 MOD SWAP1 POP SWAP3 SWAP2 POP POP JUMP JUMPDEST PUSH1 0x0 PUSH1 0x60 DUP3 ADD SWAP1 POP PUSH2 0x1F24 PUSH1 0x0 DUP4 ADD DUP7 PUSH2 0x1A01 JUMP JUMPDEST PUSH2 0x1F31 PUSH1 0x20 DUP4 ADD DUP6 PUSH2 0x1A01 JUMP JUMPDEST PUSH2 0x1F3E PUSH1 0x40 DUP4 ADD DUP5 PUSH2 0x1A35 JUMP JUMPDEST SWAP5 SWAP4 POP POP POP POP JUMP JUMPDEST PUSH2 0x1F4F DUP2 PUSH2 0x19CB JUMP JUMPDEST DUP2 EQ PUSH2 0x1F5A JUMPI PUSH1 0x0 DUP1 REVERT JUMPDEST POP JUMP JUMPDEST PUSH1 0x0 DUP2 MLOAD SWAP1 POP PUSH2 0x1F6C DUP2 PUSH2 0x1F46 JUMP JUMPDEST SWAP3 SWAP2 POP POP JUMP JUMPDEST PUSH1 0x0 PUSH1 0x20 DUP3 DUP5 SUB SLT ISZERO PUSH2 0x1F88 JUMPI PUSH2 0x1F87 PUSH2 0x193B JUMP JUMPDEST JUMPDEST PUSH1 0x0 PUSH2 0x1F96 DUP5 DUP3 DUP6 ADD PUSH2 0x1F5D JUMP JUMPDEST SWAP2 POP POP SWAP3 SWAP2 POP POP JUMP JUMPDEST PUSH1 0x0 DUP2 MLOAD SWAP1 POP PUSH2 0x1FAE DUP2 PUSH2 0x1A5F JUMP JUMPDEST SWAP3 SWAP2 POP POP JUMP JUMPDEST PUSH1 0x0 PUSH1 0x20 DUP3 DUP5 SUB SLT ISZERO PUSH2 0x1FCA JUMPI PUSH2 0x1FC9 PUSH2 0x193B JUMP JUMPDEST JUMPDEST PUSH1 0x0 PUSH2 0x1FD8 DUP5 DUP3 DUP6 ADD PUSH2 0x1F9F JUMP JUMPDEST SWAP2 POP POP SWAP3 SWAP2 POP POP JUMP INVALID LOG2 PUSH5 0x6970667358 0x22 SLT KECCAK256 0xA7 PUSH3 0xF54BDD 0xC7 0x4B 0x2C GASPRICE 0xE0 SELFBALANCE 0x22 DUP6 AND 0xEF DUP12 0x1E BALANCE 0xE1 0xAE 0x27 SMOD CODECOPY PUSH19 0xC29F2E9156EFE51A64736F6C63430008150033 "
		},
		"gasEstimates": {
			"creation": {
				"codeDepositCost": "1643000",
				"executionCost": "infinite",
				"totalCost": "infinite"
			},
			"external": {
				"_10RupeeCount()": "2496",
				"_20RupeeCount()": "2451",
				"_5RupeeCount()": "2562",
				"_num()": "2518",
				"_rupeeContractList(uint256)": "2849",
				"blackList(address)": "infinite",
				"buy_With_note_denominations(uint256)": "infinite",
				"fifty_Rupee_contract()": "2537",
				"five_Rupee_contract()": "2560",
				"five_hundred_Rupee_contract()": "2625",
				"getUserFundAmt(address)": "2909",
				"isBlackListedMapping(address)": "2869",
				"noteCalculation(uint256,uint256)": "infinite",
				"one_Rupee_contract()": "2643",
				"one_hundred_Rupee_contract()": "2580",
				"rupee_contract_ERC20()": "2559",
				"setContracts()": "infinite",
				"ten_Rupee_contract()": "2537",
				"transferAmount(uint256,address)": "infinite",
				"twenty_Rupee_contract()": "2581",
				"two_Rupee_contract()": "2603",
				"two_hundred_Rupee_contract()": "2624",
				"userFundsMapping(address)": "2925"
			},
			"internal": {
				"fetchUserNotes(address)": "infinite",
				"sendNFT(uint256[9] memory,address,uint256,uint256)": "infinite"
			}
		},
		"methodIdentifiers": {
			"_10RupeeCount()": "d26813d3",
			"_20RupeeCount()": "e84530fb",
			"_5RupeeCount()": "a805588e",
			"_num()": "d68cfc14",
			"_rupeeContractList(uint256)": "eb4f81f3",
			"blackList(address)": "4838d165",
			"buy_With_note_denominations(uint256)": "f5091598",
			"fifty_Rupee_contract()": "588a2c09",
			"five_Rupee_contract()": "3ef0116d",
			"five_hundred_Rupee_contract()": "9a5b9d62",
			"getUserFundAmt(address)": "43d6a6a2",
			"isBlackListedMapping(address)": "26541b4a",
			"noteCalculation(uint256,uint256)": "600fa18e",
			"one_Rupee_contract()": "fc07dbb8",
			"one_hundred_Rupee_contract()": "f0483d73",
			"rupee_contract_ERC20()": "cca79636",
			"setContracts()": "e0d6d530",
			"ten_Rupee_contract()": "b150019a",
			"transferAmount(uint256,address)": "4ca9deb9",
			"twenty_Rupee_contract()": "6affb729",
			"two_Rupee_contract()": "70cd47df",
			"two_hundred_Rupee_contract()": "fa137b2a",
			"userFundsMapping(address)": "dd188dc3"
		}
	},
	"abi": [
		{
			"inputs": [],
			"stateMutability": "nonpayable",
			"type": "constructor"
		},
		{
			"inputs": [],
			"name": "_10RupeeCount",
			"outputs": [
				{
					"internalType": "uint256",
					"name": "",
					"type": "uint256"
				}
			],
			"stateMutability": "view",
			"type": "function"
		},
		{
			"inputs": [],
			"name": "_20RupeeCount",
			"outputs": [
				{
					"internalType": "uint256",
					"name": "",
					"type": "uint256"
				}
			],
			"stateMutability": "view",
			"type": "function"
		},
		{
			"inputs": [],
			"name": "_5RupeeCount",
			"outputs": [
				{
					"internalType": "uint256",
					"name": "",
					"type": "uint256"
				}
			],
			"stateMutability": "view",
			"type": "function"
		},
		{
			"inputs": [],
			"name": "_num",
			"outputs": [
				{
					"internalType": "uint256",
					"name": "",
					"type": "uint256"
				}
			],
			"stateMutability": "view",
			"type": "function"
		},
		{
			"inputs": [
				{
					"internalType": "uint256",
					"name": "",
					"type": "uint256"
				}
			],
			"name": "_rupeeContractList",
			"outputs": [
				{
					"internalType": "address",
					"name": "",
					"type": "address"
				}
			],
			"stateMutability": "view",
			"type": "function"
		},
		{
			"inputs": [
				{
					"internalType": "address",
					"name": "_blackListAddr",
					"type": "address"
				}
			],
			"name": "blackList",
			"outputs": [],
			"stateMutability": "nonpayable",
			"type": "function"
		},
		{
			"inputs": [
				{
					"internalType": "uint256",
					"name": "_amount",
					"type": "uint256"
				}
			],
			"name": "buy_With_note_denominations",
			"outputs": [],
			"stateMutability": "nonpayable",
			"type": "function"
		},
		{
			"inputs": [],
			"name": "fifty_Rupee_contract",
			"outputs": [
				{
					"internalType": "address",
					"name": "",
					"type": "address"
				}
			],
			"stateMutability": "view",
			"type": "function"
		},
		{
			"inputs": [],
			"name": "five_Rupee_contract",
			"outputs": [
				{
					"internalType": "address",
					"name": "",
					"type": "address"
				}
			],
			"stateMutability": "view",
			"type": "function"
		},
		{
			"inputs": [],
			"name": "five_hundred_Rupee_contract",
			"outputs": [
				{
					"internalType": "address",
					"name": "",
					"type": "address"
				}
			],
			"stateMutability": "view",
			"type": "function"
		},
		{
			"inputs": [
				{
					"internalType": "address",
					"name": "_user",
					"type": "address"
				}
			],
			"name": "getUserFundAmt",
			"outputs": [
				{
					"internalType": "uint256",
					"name": "",
					"type": "uint256"
				}
			],
			"stateMutability": "view",
			"type": "function"
		},
		{
			"inputs": [
				{
					"internalType": "address",
					"name": "",
					"type": "address"
				}
			],
			"name": "isBlackListedMapping",
			"outputs": [
				{
					"internalType": "bool",
					"name": "",
					"type": "bool"
				}
			],
			"stateMutability": "view",
			"type": "function"
		},
		{
			"inputs": [
				{
					"internalType": "uint256",
					"name": "_num1",
					"type": "uint256"
				},
				{
					"internalType": "uint256",
					"name": "_division",
					"type": "uint256"
				}
			],
			"name": "noteCalculation",
			"outputs": [
				{
					"internalType": "uint256",
					"name": "",
					"type": "uint256"
				},
				{
					"internalType": "uint256",
					"name": "",
					"type": "uint256"
				}
			],
			"stateMutability": "nonpayable",
			"type": "function"
		},
		{
			"inputs": [],
			"name": "one_Rupee_contract",
			"outputs": [
				{
					"internalType": "address",
					"name": "",
					"type": "address"
				}
			],
			"stateMutability": "view",
			"type": "function"
		},
		{
			"inputs": [],
			"name": "one_hundred_Rupee_contract",
			"outputs": [
				{
					"internalType": "address",
					"name": "",
					"type": "address"
				}
			],
			"stateMutability": "view",
			"type": "function"
		},
		{
			"inputs": [],
			"name": "rupee_contract_ERC20",
			"outputs": [
				{
					"internalType": "address",
					"name": "",
					"type": "address"
				}
			],
			"stateMutability": "view",
			"type": "function"
		},
		{
			"inputs": [],
			"name": "setContracts",
			"outputs": [
				{
					"internalType": "bool",
					"name": "",
					"type": "bool"
				}
			],
			"stateMutability": "nonpayable",
			"type": "function"
		},
		{
			"inputs": [],
			"name": "ten_Rupee_contract",
			"outputs": [
				{
					"internalType": "address",
					"name": "",
					"type": "address"
				}
			],
			"stateMutability": "view",
			"type": "function"
		},
		{
			"inputs": [
				{
					"internalType": "uint256",
					"name": "_amount",
					"type": "uint256"
				},
				{
					"internalType": "address",
					"name": "_to",
					"type": "address"
				}
			],
			"name": "transferAmount",
			"outputs": [],
			"stateMutability": "nonpayable",
			"type": "function"
		},
		{
			"inputs": [],
			"name": "twenty_Rupee_contract",
			"outputs": [
				{
					"internalType": "address",
					"name": "",
					"type": "address"
				}
			],
			"stateMutability": "view",
			"type": "function"
		},
		{
			"inputs": [],
			"name": "two_Rupee_contract",
			"outputs": [
				{
					"internalType": "address",
					"name": "",
					"type": "address"
				}
			],
			"stateMutability": "view",
			"type": "function"
		},
		{
			"inputs": [],
			"name": "two_hundred_Rupee_contract",
			"outputs": [
				{
					"internalType": "address",
					"name": "",
					"type": "address"
				}
			],
			"stateMutability": "view",
			"type": "function"
		},
		{
			"inputs": [
				{
					"internalType": "address",
					"name": "",
					"type": "address"
				}
			],
			"name": "userFundsMapping",
			"outputs": [
				{
					"internalType": "uint256",
					"name": "",
					"type": "uint256"
				}
			],
			"stateMutability": "view",
			"type": "function"
		}
	]
}